:100000000C94AA020C9416030C9416030C94160379
:100010000C9416030C9416030C9416030C941603FC
:100020000C9416030C9416030C9416030C941603EC
:100030000C9416030C94EA030C942A040C941603F3
:100040000C9416030C9416030C9416030C941603CC
:100050000C9416030C9416030C9416030C941603BC
:100060000C9416030C9416030C9416030C941603AC
:100070005A5501200101003808000000000000006E
:100080000000000000000000000000000000000070
:100090008100450027FF24FF2A902B1C210C22FB06
:1000A000850084008903888D81096F0244424700DE
:1000B0004501B083B300B10125118A4F8B031C07A2
:1000C0001F07270BDB07D30728072D073207C107B8
:1000D000350738073B077F07000204000770000060
:1000E000D800083C01050000FF000209000841009B
:1000F00000FB0A050000FF000000D800000000001F
:10010000000000E900000000000000000000000006
:100110000018181818180018006C6C6C000000000B
:10012000006C6CFE6CFE6C6C00187EC07C06FC18CB
:100130000000C6CC183066C600386C3876DCCC7649
:100140000030306000000000000C18303030180C17
:100150000030180C0C0C18300000663CFF3C6600A8
:10016000000018187E181800000000000000181881
:10017000300000007E0000000000000000001818A1
:1001800000060C183060C080007CCEDEF6E6C67C2F
:10019000001838181818187E007CC6067CC0C0FEEF
:1001A00000FC06063C0606FC000CCCCCCCFE0C0C7D
:1001B00000FEC0FC0606C67C007CC0C0FCC6C67C37
:1001C00000FE06060C183030007CC6C67CC6C67C15
:1001D000007CC6C67E06067C0000181800001818B1
:1001E0000000181800001818300C18306030180C77
:1001F0000000007E007E00000030180C060C183055
:10020000003C660C18180018007CC6DEDEDEC07EDE
:1002100000386CC6C6FEC6C600FCC6C6FCC6C6FC18
:10022000007CC6C0C0C0C67C00F8CCC6C6C6CCF830
:1002300000FEC0C0F8C0C0FE00FEC0C0F8C0C0C014
:10024000007CC6C0C0CEC67C00C6C6C6FEC6C6C63A
:10025000007E18181818187E000606060606C67CCA
:1002600000C6CCD8F0D8CCC600C0C0C0C0C0C0FE4C
:1002700000C6EEFEFED6C6C600C6E6F6DECEC6C692
:10028000007CC6C6C6C6C67C00FCC6C6FCC0C0C0D4
:10029000007CC6C6C6D6DE7C06FCC6C6FCD8CCC66C
:1002A000007CC6C07C06C67C00FF181818181818F9
:1002B00000C6C6C6C6C6C6FE00C6C6C6C6C67C380A
:1002C00000C6C6C6C6D6FE6C00C6C66C386CC6C6AE
:1002D00000C6C6C67C1830E000FE060C183060FE72
:1002E000003C30303030303C00C06030180C06022A
:1002F000003C0C0C0C0C0C3C0010386CC6000000D0
:100300000000000000000000FF18180C00000000B2
:100310000000007C067EC67E00C0C0C0FCC6C6FCD5
:100320000000007CC6C0C67C000606067EC6C67EEF
:100330000000007CC6FEC07C001C3630783030786F
:100340000000007EC6C67E06FCC0C0FCC6C6C6C68F
:10035000001800381818183C00060006060606C6E5
:100360007CC0C0CCD8F8CCC6003818181818183C77
:10037000000000CCFEFED6D6000000FCC6C6C6C6F5
:100380000000007CC6C6C67C000000FCC6C6FCC0DF
:10039000C000007EC6C67E06060000FCC6C0C0C007
:1003A0000000007EC07C06FC0018187E1818180E8D
:1003B000000000C6C6C6C67E000000C6C6C67C38A1
:1003C000000000C6C6D6FE6C000000C66C386CC6C5
:1003D000000000C6C6C67E06FC0000FE0C3860FEAB
:1003E000000E18187018180E001818180018181891
:1003F000007018180E1818700076DC00000000005D
:10040000000010386CC6C6FE00F0909090F020609E
:10041000202070F010F080F0F010F010F09090F0CC
:100420001010F080F010F0F080F090F0F01020400C
:1004300040F090F090F0F090F010F0F090F090908C
:10044000E090E090E0F0808080F0E0909090E0F02C
:1004500080F080F0F080F0808041626F7574004819
:10046000656C700044656D6F20524F4D0053442001
:100470004361726400203D3D3D3D20557A65382042
:100480003D3D3D3D20003C003E003D3D205344208D
:1004900042726F77736572203D3D003C003E005014
:1004A000726573732055702F446F776E006F6E20E6
:1004B00053442042726F777365720041202D2053A0
:1004C000656C65637420524F4D00436F6C6F7220F2
:1004D00070616C657474650053656C656374202D80
:1004E000204368616E67650052202D205265736558
:1004F000742047616D65004C202D204261636B20A4
:10050000746F204D656E7500507265737320557061
:100510002F446F776E005665722E20312E302E35A7
:1005200000557A653636363600566964656F202682
:10053000205344004761627269656C20284753412B
:100540002900557A65382043686970382F5343680D
:100550006970000011241FBECFEFD0E1DEBFCDBF18
:1005600014BE88E10FB6F89480936000109260008A
:100570000FBE11E0A0E0B1E0E2EFF8E702C00590A5
:100580000D92AE30B107D9F710E1AEE0B1E001C095
:100590001D92A430B107E1F70E94E306882311F40D
:1005A0000E94F906F89491E09093380190933901F4
:1005B000909337011092240110922A011092300179
:1005C0001092360110923C0110920E01109210010F
:1005D00082E180930F0180EC8093180180931601D3
:1005E00084E2809317018093150110921C011092F0
:1005F0001B011092200110921F01909323010E9471
:10060000600620E930E0F90185919491FC01F070D9
:1006100090832E5F3F4F80E02E3B3807A1F7789400
:100620000E9460060E941D390C94773C0C940000D7
:100630001124C0910001D0910101C115D10509F427
:1006400008950DED0A950C942503E1F700C00C9474
:10065000290344279091020156E0911153E0652F40
:1006600070EC911170EC88E0911180E199D136E144
:100670003A95F1F7000021D037E13A95F1F7000003
:100680000000E894513009F068940EF0C80F0EF0A5
:10069000D11D5A9509F4562F4395471739F7000095
:1006A0007FD1E091100142E0E160E427E093100186
:1006B000E2E0E0933600112408951E01282FE09017
:1006C0000701F0900601112400910201011143C0BD
:1006D000000009910E2C07FF0F2C08B816E01A95A0
:1006E000F1F70E2C06FF0F2C08B816E01A95F1F75B
:1006F0000E2C05FF0F2C08B816E01A95F1F70E2CFA
:1007000004FF0F2C08B816E01A95F1F70E2C03FF22
:100710000F2C08B816E01A95F1F70E2C02FF0F2CDB
:1007200008B816E01A95F1F70E2C01FF0F2C08B847
:1007300016E01A95F1F70E2C00FF0F2C08B814E004
:100740001A95F1F7000009912A9521F6C895002421
:1007500008B8E101089509910E2C07FF0F2C08B885
:10076000C895C89500000E2C06FF0F2C08B8C89538
:10077000C89500000E2C05FF0F2C08B8C895C89529
:1007800000000E2C04FF0F2C08B8C895C895000077
:100790000E2C03FF0F2C08B8C895C89500000E2C2E
:1007A00002FF0F2C08B8C895C89500000E2C01FF59
:1007B0000F2C08B8C895C89500000E2C00FF0F2C10
:1007C00008B800C009912A9539F6C895002408B8E0
:1007D000E10108950F921F92EF93FF93EFB7EF930C
:1007E000E0918400E251F1E0EF1700F0F395FA3068
:1007F000D8F30C94FB03E0910F01EA95E0930F010D
:10080000F0910E01F0FD57C0EC3098F0F3E0F0935A
:100810008900FDE8F0938800E0FB289826F4E1E0E9
:100820000E94E104B6C0E5E1EA95F1F70000289ADC
:10083000B0C0E63038F100C000C02898E0FBE4E02A
:1008400016F40E94E104E4E0E0933600E6E0E09371
:100850006F009FC0EF93EFB7EF93E0918400ED55E9
:10086000E13000F0E23000F0E33000F0E43000F07E
:10087000E53000F0289AE2E0E0936F00EF91EFBFDF
:10088000EF91189500C0E0FB289826F4E1E00E9463
:10089000E10405C0E5E1EA95F1F70000289AE0914E
:1008A0000F01E03009F075C0EDEFE0930F01E1E0DA
:1008B000E0930E016EC0E7E0E0938900EBE1E09386
:1008C000880000C02898E2E000C00E94E104FDEF2B
:1008D00000901501F019E0910F01EF17D0F4FDEF32
:1008E00000901501F01900901601F019EF1788F02B
:1008F000EDE1FF2700800F92EA95E1F706E00A9507
:10090000F1F70E941803E1E0FF270F900192EE310A
:10091000E0F3E0910F01E03009F03BC02F933F93EB
:100920004F935F936F937F938F939F93AF93BF93F7
:1009300078941124EE27E0930E01E2E1E0930F0199
:10094000F0911701F0931501F0911801F093160141
:10095000E0911101F0911201E115F10509F00995FD
:100960000E94D2060E9460060E94DB041124E091DE
:100970001301F0911401E115F10509F00995BF91FA
:10098000AF919F918F917F916F915F914F913F9127
:100990002F91EF91EFBFFF91EF911F900F9018955E
:1009A0002898E2E000C00E94E104E0910F01EA957E
:1009B000E0930F010895E0912301E0FD0E94BA0841
:1009C00008950F931F932F93CF93DF932E2F0091B2
:1009D000250110912701100F00912601E0912801B7
:1009E000F0912901E01F0491E09328011093270161
:1009F00010912401010300240008C12DD02D009185
:100A00002B0110912D01100F00912C01E0912E016E
:100A1000F0912F01E01F0491E0932E0110932D011E
:100A200010912A0120FD289A20FF00C00103002414
:100A30000008C10DD01D0091310110913301100F3C
:100A400000913201E0913401F0913501E01F0491F1
:100A5000E09334011093330110913001010300241D
:100A60000008C10DD01D0091380110913901E091AD
:100A70003A01EA9592F4F0913701EF2FE695002EB6
:100A80000694002600FA1695079516F9F0FF06F968
:100A9000009338011093390103C016E01A95F1F75D
:100AA000E0933A0121FD289A21FF00C010E800FDE3
:100AB0001FE700913601100300240008C10DD01D6E
:100AC00000913F0110913D01010F00933F01E09122
:100AD000400110913E01E11FF091410100E0F01F43
:100AE0000090440110904501009142011091430192
:100AF000E015F10508F0F801E0934001F0934101A1
:100B0000049110913C01010300240008C10DD01D87
:100B10000024C038D0050CF0CFE70A94C038D005C7
:100B20000CF4C0E8C058C093B300DF91CF912F916F
:100B30001F910F91089599277727833009F408951D
:100B4000E8E0F7E1660F771FE60FF71FA591B49174
:100B5000E4E2F1E026E0289FE00DF11DA183B283DD
:100B600011240895909137019170880F892B8093FB
:100B70003701089599277727E4E2F1E026E0289FDE
:100B8000E00DF11D6E3F31F4609137016E7F60938F
:100B900037010BC06F3F31F4609137016E6F609386
:100BA000370103C079E1760F7583112408959927E1
:100BB0007727E4E2F1E026E0289FE00DF11D608355
:100BC00011240895809300019093010108950F93DB
:100BD0001F9300910401109105018017C0F5611762
:100BE000B0F5161B211708F0212FDA01E091000162
:100BF000F0910101982F969596959695E90FF11D24
:100C000090910301969FE00DF11D1124382F37704C
:100C1000882777276D91432F403021F0669577958F
:100C20004A95E1F7408151818A0146275727408341
:100C30005183062309F08FEF172309F08FEFE90F97
:100C4000F11D2A9531F781701F910F910895882722
:100C50001F910F91089580930201803051F498E024
:100C60009093030190E49093040190E29093050126
:100C7000089590E19093030190E89093040190E42B
:100C8000909305010895A0910001B0910101A11573
:100C9000B10509F408959091020180E2911180E874
:100CA0001D921D921D921D921D921D921D921D92CC
:100CB0008A95B1F70895809307016093060108951E
:100CC00008958091100181700895209110012E7F68
:100CD000209310010895882329F48091190190919F
:100CE0001A01089580911D0190911E01089578E0E8
:100CF0007A95F1F700000197D1F70895F999FECFA1
:100D000092BD81BD60BDF894FA9AF99A78940895DD
:100D1000F999FECF92BD81BDF894F89A80B5789488
:100D20000895129AC895C895C895C895129820E05C
:100D300030E080E090E040E03695279596958795E5
:100D4000C895C895C895C8951398009B3068019BB5
:100D50009068139AC895C895C895C8954F5F40315B
:100D600059F730931A012093190190931E01809333
:100D70001D018091190190911A010F9731F0809116
:100D80001D0190911E010F9761F428E088E190E029
:100D90000FB6F894A895809360000FBE2093600072
:100DA000FFCF089510924901009903C081E080931C
:100DB0004901019905C080914901826080934901F0
:100DC0000E94910608951F9380E090E00E9488069B
:100DD000182F81E090E00E94880690E0382F20E0F4
:100DE000210F311D2A55354509F491E0892F1F91B6
:100DF0000895CF93DF93C0E0D0E0FE01E059FF4FAC
:100E0000E491CE016E2F0E947E062196C032D1055C
:100E1000A1F7C0E2D0E0CE016FEF0E947E06CE01C6
:100E200001966FEF0E947E06A09688E0C030D8073A
:100E300091F7DF91CF910895FC014587089581E0F6
:100E400091E09093390180933801409337010895E0
:100E5000FC0180818F7580830895FC01808180640E
:100E600080830895FC0144870895FC014783089519
:100E7000FC01408708951F93CF93DF93EC01162F59
:100E8000898190E0FC01EE0FFF1FE85FF84E25918D
:100E90003491E42FFF27E7FDF095E80FF91FEE0FDF
:100EA000FF1FE85FF84E8591949160915101821B7C
:100EB000930B70E00E948F3B9B016115710511F44B
:100EC00021E030E0812F90E0FC01EE0FFF1FE80FE2
:100ED000F91FEE0FFF1FEC5DFE4F81819281820FA3
:100EE000931F928381833B832A83888188608883D0
:100EF0008981840F8C83DF91CF911F910895409356
:100F0000510108959093BD018093BC018FE68093B9
:100F1000BF0110922201ECE4F1E090E18FEF28E1B3
:100F2000908313868187828716862087958376969D
:100F300031E0EA3BF307A1F70895DC01ED91FC9164
:100F40001197AF014F5F5F4F11965C934E93E49101
:100F50002E2F30E0E7FF13C02F7730703695322FF9
:100F6000222737952795FA014F5F5F4FE4918E2F27
:100F70008F77280F311DE7FDF1CF4D935C93C901A9
:100F80000895FF920F931F938C01862FF42E642FE8
:100F90000E949B05F801F1828081877F80831F91E9
:100FA0000F91FF900895FC01862F6181641B61837E
:100FB0000E949B050895FC01862F9181490F418372
:100FC000642F0E949B050895EF92FF920F931F9349
:100FD000CF93DF93182FF62E022F86E1189FE001A2
:100FE0001124C45BDE4FEE24888187FF02C0EE240B
:100FF000E3941A8A1D869FEF9C874B871B8A888102
:101000008062877B88831F8299870983133069F404
:10101000EE2009F4F02E81E091E090933901809365
:10102000380181E08093370134C0143051F51092BB
:101030003F0189E0F89EC00111242091BC0130914C
:10104000BD01280F391FF9013196459154915093F4
:10105000410140934001F901359685919491840FA7
:10106000951F9093430180934201F9013796859132
:101070009491480F591F509345014093440184E0D7
:1010800005C0812F60E00E94BA05812F602F0E9469
:101090009B05EE2011F0FF8601C0FE8689E0F89ED8
:1010A000C0011124E091BC01F091BD01E80FF91FCE
:1010B0003396259134912115310519F41D8A1C8A26
:1010C00007C0F9018491898B2F5F3F4F3D8B2C8B9B
:1010D000DF91CF911F910F91FF90EF9008951F9393
:1010E000782F142FA82FB0E086E190E0A89FF001A0
:1010F000A99FF00DB89FF00D1124E45BFE4F3081E5
:10110000532F35FF02C037FD33C02223F9F486E1A7
:1011100090E0A89FF001A99FF00DB89FF00D112459
:10112000E45BFE4F8585882311F456FF138686E124
:1011300090E0A89FF001A99FF00DB89FF00D112439
:10114000E45BFE4F80818F7B808312C086E190E05C
:10115000A89FF001A99FF00DB89FF00D1124E45B4A
:10116000FE4F3F773083872F422F212F0E94E407C5
:101170001F910895AF92BF92DF92EF92FF920F936B
:101180001F93CF93DF93ACE4B1E0C5E2D1E01D96AD
:101190008C911D978823B9F0282F332727FD309590
:1011A0001C968C911C97280F311D2F3F310519F08B
:1011B00014F02FEF30E0C90137FF02C080E090E06B
:1011C0001C968C931C978C9183FF26C012964D9190
:1011D0005C91139728813981240F351F3983288327
:1011E00014968C911497E82FF0E0EE0FFF1FE85F44
:1011F000F84E859194911416150624F42817390792
:1012000030F40AC0452B41F08217930728F09983E8
:1012100088838C91877F8C935696269641E0AA3BD3
:10122000B40709F0B4CF80912201882309F0DEC011
:10123000F1C0E091C301F091C401CF0101969093F8
:10124000C4018093C30144914F3F69F5AC014F5FE6
:101250005F4F5093C4014093C301FC0184918F32CE
:1012600019F410922201D0C0863009F0B2C0FA0100
:101270003196CF0101969093C4018093C301E4910C
:10128000E33529F49093C6018093C501A2C0E534EB
:1012900009F09FC08091C5019091C6019093C4014F
:1012A0008093C30196C047FF02C04093BE012091C6
:1012B000BE01322F3F7047FF08C001969093C401D2
:1012C0008093C3010197FC014491822F90E0807FBD
:1012D0009070803B910531F1803C910509F46DC01F
:1012E0008039910509F075C0E091C301F091C40106
:1012F0003196F093C401E093C3013197E491832FB9
:1013000090E08C9FD0018D9FB00D9C9FB00D11245B
:10131000A45BBE4FEE0F832F1E966C912E2F0E9462
:101320006F0857C0E091C301F091C4013196F0936A
:10133000C401E093C30131972491473071F4832FA6
:1013400090E08C9FF0018D9FF00D9C9FF00D11247B
:10135000E45BFE4F220F22873CC04B3071F4832F99
:1013600090E08C9FF0018D9FF00D9C9FF00D11245B
:10137000E45BFE4F220F21872CC04C3571F4832F84
:1013800090E08C9FF0018D9FF00D9C9FF00D11243B
:10139000E45BFE4F220F27831CC04436D1F4832F19
:1013A00090E08C9FF0018D9FF00D9C9FF00D11241B
:1013B000E45BFE4F220F20870CC0832F90E08C9FB0
:1013C000F0018D9FF00D9C9FF00D1124E45BFE4F0A
:1013D000468783EC91E00E949D079093C101809322
:1013E000C0011092BB011092BA0102C0C6E1D0E068
:1013F0002091BA013091BB018091C0019091C1014F
:101400002817390709F415CF2F5F3F4F3093BB01E1
:101410002093BA01CCE4D1E004E211E0FF24EFEF25
:10142000AE2EB12CDC2EED2E888186FD3DC08C8940
:101430009D89892B09F435C09A898989981768F59F
:1014400030C0EC89FD89CF0101969D8B8C8B249156
:101450002F3F31F488818F7788831D8A1C8A21C0B1
:1014600001969D8B8C8B0197FC014491822F90E01B
:10147000880F991F82549F4FFC01259134918D2D27
:101480009E2D6F2DF9010995EC89FD893196FD8B13
:10149000EC8B3197E491E98B1A8A9A89898998179C
:1014A00081F28A898F5F8A8B888185FD03C020E065
:1014B00030E070C08B898F3F11F08F5F8B8B8881FC
:1014C00087FF02C08FEF01C08A859B85992309F4AD
:1014D0005BC02C85222309F457C0882309F454C02B
:1014E0004091BF01442309F44FC0899FC0011124DA
:1014F00080509F4F892F992730E0B901869F900136
:10150000879F300D969F300D112420503F4F232F81
:101510003327898590E0FC012E9FC0012F9F900DFD
:101520003E9F900D112480509F4F892F9927242F83
:1015300030E0AC01429FC001439F900D529F900D3F
:10154000112480509F4F292F33278F818823F1F05A
:10155000EE81F0E0E050F74EE491E058E89FC001E2
:10156000112480509F4F892F9927B501681B790B53
:10157000629FC001639F900D729F900D1124805057
:101580009F4F292F332702C020E030E08E819885BD
:10159000890F8E83F8012083F39466960A5F1F4FAC
:1015A000F5E0FF1609F03ECFDF91CF911F910F912B
:1015B000FF90EF90DF90BF90AF900895582F762F57
:1015C00089E0589FC0011124E091BC01F091BD0158
:1015D000E80FF91F8491813011F443E021C082307B
:1015E00011F444E01DC08091620187FF16C0809114
:1015F0007101851711F4442381F48091780187FFEC
:101600000EC080918701851711F4442341F4909115
:10161000750180918B01891710F441E001C042E00F
:10162000242F30E086E190E0289FF001299FF00D03
:10163000389FF00D1124E45BFE4F80818068808329
:10164000842F652F472F20E50E94E4070895862FF9
:10165000642F0E94BA0508950000000000000000F9
:10166000000000000000000000000000000000007A
:10167000000000000000000000000000000000006A
:10168000000000000000000000000000000000005A
:10169000000000000000000000000000000000004A
:1016A000000000000000000000000000000000003A
:1016B000000000000000000000000000000000002A
:1016C000000000000000000000000000000000001A
:1016D000000000000000000000000000000000000A
:1016E00000000000000000000000000000000000FA
:1016F00000000000000000000000000000000000EA
:1017000080E0809323010895220024002600280011
:101710002B002D0030003300360039003D00400022
:10172000440048004C00510056005B006000660019
:101730006C00730079008100880090009900A2007D
:10174000AC00B600C100CC00D800E500F3000101F8
:10175000100121013201440157016C0181019801FE
:10176000B001CA01E50102022102410264028802BD
:10177000AE02D7020303300361039403CB030504D5
:1017800042048304C70410055D05AF050506610624
:10179000C206290796070908830805098E09200A49
:1017A000BA0A5D0B0A0CC10C840D510E2B0F1210DE
:1017B00007110A121D1340147415BA161418831950
:1017C000071BA31C571E24200E22142439267F2811
:1017D000E82A752D293006330F364539AD3C49408E
:1017E0001B442848734CFE50CF55EA5A51600C6692
:1017F0001D6C8B725A79928037885090E598FDA1C4
:101800009FABD3B5A3C000000000000000000000A3
:1018100000000000000000000000000000000000C8
:1018200000000000000000000000000000000000B8
:1018300000000000000000000000000000000000A8
:101840000000000000000000000000000000000098
:101850000000000000000000000000000000000088
:101860000000000000000000000000000000000078
:101870000000000000000000000000000000000068
:101880000000000000000000000000000000000058
:101890000000000000000000000000000000000048
:1018A0000000000000000000000000000000000038
:1018B0000000000000000000000000000000000028
:1018C0000000000000000000000000000000000018
:1018D0000000000000000000000000000000000008
:1018E00000000000000000000000000000000000F8
:1018F00000000000000000000000000000000000E8
:10190000000306090C101316191C1F2225282B2E64
:10191000313336393C3F414447494C4E5153555879
:101920005A5C5E60626466686A6B6D6F7071737436
:10193000757678797A7A7B7C7D7D7E7E7E7F7F7FEF
:101940007F7F7F7F7E7E7E7D7D7C7B7A7A797876D5
:1019500075747371706F6D6B6A68666462605E5CEB
:101960005A585553514E4C494744413F3C39363300
:10197000312E2B2825221F1C191613100C090603C3
:1019800000FDFAF7F4F0EDEAE7E4E1DEDBD8D5D2CA
:10199000CFCDCAC7C4C1BFBCB9B7B4B2AFADABA895
:1019A000A6A4A2A09E9C9A9896959391908F8D8CB8
:1019B0008B8A8887868685848383828282818181DF
:1019C0008181818182828283838485868687888AD9
:1019D0008B8C8D8F9091939596989A9C9EA0A2A4A3
:1019E000A6A8ABADAFB2B4B7B9BCBFC1C4C7CACD6E
:1019F000CFD2D5D8DBDEE1E4E7EAEDF0F4F7FAFD8B
:101A0000808182838485868788898A8B8C8D8E8F5E
:101A1000909192939495969798999A9B9C9D9E9F4E
:101A2000A0A1A2A3A4A5A6A7A8A9AAABACADAEAF3E
:101A3000B0B1B2B3B4B5B6B7B8B9BABBBCBDBEBF2E
:101A4000C0C1C2C3C4C5C6C7C8C9CACBCCCDCECF1E
:101A5000D0D1D2D3D4D5D6D7D8D9DADBDCDDDEDF0E
:101A6000E0E1E2E3E4E5E6E7E8E9EAEBECEDEEEFFE
:101A7000F0F1F2F3F4F5F6F7F8F9FAFBFCFDFEFFEE
:101A8000000102030405060708090A0B0C0D0E0FDE
:101A9000101112131415161718191A1B1C1D1E1FCE
:101AA000202122232425262728292A2B2C2D2E2FBE
:101AB000303132333435363738393A3B3C3D3E3FAE
:101AC000404142434445464748494A4B4C4D4E4F9E
:101AD000505152535455565758595A5B5C5D5E5F8E
:101AE000606162636465666768696A6B6C6D6E6F7E
:101AF000707172737475767778797A7B7C7D7E7F6E
:101B000000020406080A0C0E10121416181A1C1EE5
:101B100020222426282A2C2E30323436383A3C3ED5
:101B200040424446484A4C4E50525456585A5C5EC5
:101B300060626466686A6C6E70727476787A7C7EB5
:101B40007F7D7B79777573716F6D6B696765636195
:101B50005F5D5B59575553514F4D4B494745434185
:101B60003F3D3B39373533312F2D2B292725232175
:101B70001F1D1B19171513110F0D0B090705030165
:101B8000FFFDFBF9F7F5F3F1EFEDEBE9E7E5E3E155
:101B9000DFDDDBD9D7D5D3D1CFCDCBC9C7C5C3C145
:101BA000BFBDBBB9B7B5B3B1AFADABA9A7A5A3A135
:101BB0009F9D9B99979593918F8D8B898785838125
:101BC00080828486888A8C8E90929496989A9C9E25
:101BD000A0A2A4A6A8AAACAEB0B2B4B6B8BABCBE15
:101BE000C0C2C4C6C8CACCCED0D2D4D6D8DADCDE05
:101BF000E0E2E4E6E8EAECEEF0F2F4F6F8FAFCFEF5
:101C00007F7F7F7F7F7F7F7F7F7F7F7F7F7F7F7FE4
:101C10007F7F7F7F7F7F7F7F7F7F7F7F7F7F7F7FD4
:101C20007F7F7F7F7F7F7F7F7F7F7F7F7F7F7F7FC4
:101C30007F7F7F7F7F7F7F7F7F7F7F7F7F7F7F7FB4
:101F00000309131E28313A40464C5054585B5E6119
:101F1000636567696B6C6E6F7071727374757677D9
:101F2000777879797A7A7B7B7C7C7C7D7D7D7E7EFF
:101F30007E7E7F7F7F7F7F7F7F7F7F7F7F7F7F7FB3
:101F40007F7F7F7F7F7F7F7F7F7F7F7F7F7E7E7EA4
:101F50007E7D7D7D7C7C7C7B7B7A7A7979787777D6
:101F6000767574737271706F6E6C6B69676563619F
:101F70005E5B5854504C46403A31281E130903000A
:101F8000C6CCD5DBDFE3E5E7E9EAEBECEDEEEFEF1E
:101F9000F0F0F0F1F1F1F1F2F2F2F2F2F2F2F2F32A
:101FA000F3F3F3F3F3F3F3F3F3F3F3F3F3F3F3F301
:101FB000F3F3F3F3F3F3F3F3F3F3F3F3F3F3F3F3F1
:101FC000F3F3F3F3F3F3F3F3F3F3F3F3F3F3F3F3E1
:101FD000F3F3F3F3F3F3F3F3F3F3F3F3F3F3F3F3D1
:101FE000F2F2F2F2F2F2F2F2F1F1F1F1F0F0F0EFDE
:101FF000EFEEEDECEBEAE9E7E5E3DFDBD5CCC6009D
:1020000000283D42302D2C2B2C2D2E2F30323335F5
:1020100037393B3D3F414345484A4C4E5053555755
:10202000595B5D5F61636567696B6C6E707173743A
:10203000757778797A7B7C7D7D7E7E7F7F7F7F7FE1
:102040007F7F7F7F7F7F7E7E7D7D7C7B7A797877C7
:1020500075747371706E6C6B69676563615F5D5BEE
:1020600059575553504E4C4A484543413F3D3B39E3
:1020700037353332302F2E2D2C2B2C2D30423D284E
:1020800000E9E5FED4D7D7D7D6D4D2D0CECCCAC8B3
:10209000C6C3C1BFBDBAB8B6B4B1AFADABA9A7A5F1
:1020A000A3A19F9E9C9A999795949391908F8D8CC4
:1020B0008B8A8988888786858584848483838383C3
:1020C0008383838383848484858586878888898ABB
:1020D0008B8C8D8F909193949597999A9C9E9FA1AC
:1020E000A3A5A7A9ABADAFB1B4B6B8BABDBFC1C3C4
:1020F000C6C8CACCCED0D2D4D6D7D7D7D4FEE5E97D
:10210000F9F8F9F5EBE1DDDEE0E2E4E5E6E5E4E24D
:10211000DED9D2CAC1B7ACA299918A868381808068
:102120008182838586888A8C8D8F909293959697ED
:1021300098999A9B9B9C9D9D9D9E9E9E9F9F9F9FD5
:102140009F9F9F9E9E9E9D9D9D9C9B9B9A999897CD
:1021500096959392908F8D8C8A88868583828180D4
:10216000808183868A9199A2ACB7C1CAD2D9DEE2B6
:10217000E4E5E6E5E4E2E0DEDDE1EBF5F9F8F900BF
:102180000708070B151F2322201E1C1B1A1B1C1ED1
:1021900022272E363F49545E676F767A7E7F7F7F97
:1021A0007F7E7D7B7A7876747371706E6D6B6A69F1
:1021B00068676665656464636362626261616161E8
:1021C00061616162626263636364656566676869D1
:1021D0006A6B6D6E7071737476787A7B7D7E7F7FAB
:1021E0007F7F7E7A766F675E54493F362E27221EA8
:1021F0001C1B1A1B1C1E2022231F150B070807007F
:102200001F313D444E5354565A5F64696E7476795B
:102210007C7F7F7F7F7F7F7F7F7F7F7F7F7F7F7FD1
:102220007F7F7F7F7F7F7F7F7F7F7F7F7F7F7F7FBE
:102230007F7F7F7F7F7F7F7F7F7F7F7F7F7F7F7FAE
:102240007F7F7F7F7F7F7F7F7F7F7F7F7F7F7F7F9E
:102250007F7F7F7F7F7F7F7F7F7F7F7F7F7F7F7F8E
:102260007F7F7F7F7F7F7F7F7F7F7F7F7F7F7F7F7E
:102270007F7F7F7F7F7F7F7F7F7F7F7C7871684CD0
:102280002C1C120C0A0B0A05FDF3E9DFD4CAC0B7F7
:10229000AEA69E97918B868582808080808080808C
:1022A000808080808080808080808080808080802E
:1022B000808080808080808080808080808080801E
:1022C000808080808080808080808080808080800E
:1022D00080808080808080808080808080808080FE
:1022E00080808080808080808080808080808080EE
:1022F000808080808087919DACC4CBD4DDF2FAFAD7
:102300000F931F93CF93DF938C01C0E0D0E007C001
:102310000E9461068823E1F30E9465062196C0179A
:10232000D107B4F3DF91CF911F910F910895DF9200
:10233000EF92FF920F931F93D82E7A018B0187FFA4
:102340000CC087E740E050E060E070E00E94971129
:10235000823008F049C08FE7D8225E9A8FEF8EBD99
:102360000DB407FEFDCF8EB55E988FEF8EBD0DB418
:1023700007FEFDCF8EB5DEBC0DB407FEFDCF812F6D
:102380009927AA27BB278EBD0DB407FEFDCFC80134
:10239000AA27BB278EBD0DB407FEFDCFBB27A12FFB
:1023A000902F8F2D8EBD0DB407FEFDCFEEBC0DB46A
:1023B00007FEFDCF80E4D81611F485E906C088E455
:1023C000D81611F487E801C081E08EBD0DB407FE78
:1023D000FDCF9AE02FEF2EBD0DB407FEFDCF8EB5D9
:1023E00087FF02C09150B9F71F910F91FF90EF90B6
:1023F000DF900895EF92FF920F931F93CF93DF9397
:102400007C01E9018091460183FD07C039E0440F5A
:10241000551F661F771F3A95D1F781E50E949711E6
:10242000882309F04DC080E49CE93FEF3EBD0DB428
:1024300007FEFDCF2EB52F3F19F40197B9F740C025
:102440002E3F09F03DC0222733272C1B3D0B2E5F6A
:102450003D4F201B310B209741F08FEF8EBD0DB407
:1024600007FEFDCF9EB52197C9F7E114F10479F07D
:102470009FEF9EBD0DB407FEFDCF8EB5F7018083A3
:102480000150104089F00894E11CF11CF2CF9FEF3D
:102490009EBD0DB407FEFDCF8EB58EBD0DB407FEFB
:1024A000FDCF01501040A1F78FEF8EBD0DB407FE98
:1024B000FDCF9EB521503040C1F720E030E002C092
:1024C00021E030E05E9A8FEF8EBD0DB407FEFDCFA8
:1024D0008EB5C901DF91CF911F910F91FF90EF90C1
:1024E0000895CF92DF92EF92FF920F931F93DF93A5
:1024F000CF9300D000D0CDB7DEB72D9A84B1806ADB
:1025000084B95E9A569A80E58CBD81E08DBD5E9A55
:102510008AE09FEF9EBD0DB407FEFDCF2EB5815022
:10252000C9F780E440E050E060E070E00E9497115D
:10253000813009F076C088E44AEA51E060E070E05A
:102540000E949711813009F046C06E010894C11CA9
:10255000D11C76019FEF9E012B5F3F4F9EBD0DB4B6
:1025600007FEFDCF8EB5F70181937F01E217F307D8
:10257000A9F78B81813009F054C08C818A3A09F027
:1025800050C000E117E208C084E690E00E947706A0
:102590000150104009F445C089EE40E050E060E091
:1025A00070E40E949711882379F756C09FEF9EBD73
:1025B0000DB407FEFDCF8EB5F60181936F01EE15C8
:1025C000FF05A9F7898186FD03C0E4E0FE2E2AC03D
:1025D0007CE0F72E27C089EE40E050E060E070E03C
:1025E0000E949711823028F061E4E62EFF24F394D4
:1025F00004C059EEE52E42E0F42E00E117E207C0D8
:1026000084E690E00E9477060150104051F08E2D34
:1026100040E050E060E070E00E949711882381F76D
:1026200026C0FF24F09246015E9A8FEF8EBD0DB456
:1026300007FEFDCF8EB580E0FF2009F481E00F900A
:102640000F900F900F90CF91DF911F910F91FF90FE
:10265000EF90DF90CF9008958AE740E050E060E08F
:1026600070E00E949711882309F4A0CFDACF80E5AB
:1026700040E052E060E070E00E949711882389F604
:10268000D1CFCF92DF92EF92FF920F931F93CF9310
:10269000DF936C01C0914701D0914801FC01118288
:1026A00010822481358146815781213031054105D1
:1026B000510509F45CC08E819F81A885B9852817D2
:1026C00039074A075B0708F052C02115310541055B
:1026D000510539F48881833021F42E853F8548895E
:1026E0005989F601208731874287538721153105A3
:1026F0004105510581F18EEFE82E8FEFF82E8FEF17
:10270000082F8FEF182FE20EF31E041F151F8E8166
:102710009F81A885B9850297A109B109E816F90634
:102720000A071B0728F020E030E040E050E017C027
:102730002A8130E040E050E0C801B7010E94503BE0
:102740009B01AC018A899B89AC89BD89280F391FFF
:102750004A1F5B1F04C02E853F8548895989F601B1
:10276000248735874687578720E030E002C021E084
:1027700030E0C901DF91CF911F910F91FF90EF9051
:10278000DF90CF9008956F927F928F929F92AF9239
:10279000BF92CF92DF92EF92FF920F931F93DF933E
:1027A000CF9300D000D0CDB7DEB74B015C01609075
:1027B00047017090480182E088169104A104B10499
:1027C00008F4DDC0F30186819781A085B185881664
:1027D0009906AA06BB0608F0D2C08081823009F4AF
:1027E00064C0833009F485C0813009F0C8C0C401D9
:1027F00096958795880D991D9C013170892F992791
:1028000086956C01EE24FF24F3014285538564858F
:102810007585CE010196F1E02F3F3F0749F0C40EC8
:10282000D51EE61EF71EB701A60102E010E01EC08D
:102830004C0D5D1D6E1D7F1D2FEF31E001E010E09E
:102840000E94FA11892B09F09AC0F3014285538541
:10285000648575854F5F5F4F6F4F7F4F4C0D5D1DDA
:102860006E1D7F1DCE01029620E030E00E94FA111D
:10287000892B09F084C09A8180E02981622F70E061
:10288000682B792BC40181709070892B39F014E08A
:10289000769567951A95E1F79B0128C09B0140E06A
:1028A00050E03F70407050706EC077276B2D5A2DEE
:1028B000492DF30182859385A485B585480F591F5D
:1028C0006A1F7B1F94013070220F331FCE010196C7
:1028D00002E010E00E94FA11892B09F050C09A81A1
:1028E00080E0298130E0822B932B9C0140E050E076
:1028F0004AC0B501A401F7E07695679557954795CD
:10290000FA95D1F7F30182859385A485B585480FA3
:10291000591F6A1F7B1F94012F773070220F331FBE
:10292000220F331FCE01019604E010E00E94FA113D
:10293000892B29F58C8190E0A0E0B0E0582F442746
:10294000332722278B8190E0A0E0B0E0DC019927BB
:102950008827282B392B4A2B5B2B898190E0A0E01C
:10296000B0E0282B392B4A2B5B2B9A8180E0A0E02A
:10297000B0E0282B392B4A2B5B2B5F7004C021E081
:1029800030E040E050E0B901CA010F900F900F9085
:102990000F90CF91DF911F910F91FF90EF90DF90FB
:1029A000CF90BF90AF909F908F907F906F90089541
:1029B000AF92BF92CF92DF92EF92FF920F931F934D
:1029C000CF93DF935C01C0914701D0914801FC0196
:1029D000C080D1800894C11CD11CC114D10409F459
:1029E00091C02485358546855785211531054105DA
:1029F000510509F487C0C6018F709070892B09F0CA
:102A00007BC02F5F3F4F4F4F5F4F248735874687EF
:102A1000578740855185628573854115510561054C
:102A2000710539F48C819D81C816D90608F464C0FB
:102A300069C08A8190E001979601E4E03695279578
:102A4000EA95E1F782239323892B09F055C0CB0146
:102A5000BA010E94C3139B01AC016230710581056C
:102A6000910518F421E030E04FC08E819F81A88548
:102A7000B985281739074A075B0708F043C0F501F5
:102A80002087318742875387C0914701D091480101
:102A90006EEFE62E6FEFF62E6FEF062F6FEF162F0D
:102AA000E20EF31E041F151F8E819F81A885B98534
:102AB0000297A109B109E816F9060A071B0728F0D1
:102AC00020E030E040E050E012C02A8130E040E0F9
:102AD00050E0C801B7010E94503B9B01AC018A89BC
:102AE0009B89AC89BD89280F391F4A1F5B1FF501DF
:102AF0002487358746875787F501D182C08220E039
:102B000030E002C023E030E0C901DF91CF911F9196
:102B10000F91FF90EF90DF90CF90BF90AF9008950E
:102B2000AF92BF92CF92DF92EF92FF920F931F93DB
:102B3000DF93CF93CDB7DEB7AC970FB6F894DEBF77
:102B40000FBECDBF7C016B01809147019091480180
:102B5000892B19F426E030E0DFC0CE010196D701C1
:102B600013969C938E9312976115710541F023E0A3
:102B700030E09DE0A92EB12CAC0EBD1E2BC0C701CC
:102B80000E9441139C01C8C0F701208131812F7040
:102B9000307085E0220F331F8A95E1F7C50100E20E
:102BA00010E00E94FA11892B19F021E030E021C0D9
:102BB0009D85992309F4C2C0888D953E29F09E32E7
:102BC00019F08F7383FF21C0C7010E94D8149C01A4
:102BD000009779F4D7011C964D915D916D917C9190
:102BE0001F97411551056105710571F621153105D4
:102BF00061F0F70114861586168617862330310595
:102C000021F02115310509F087C0B601675F7F4FBC
:102C1000F70184859585A685B7850097A105B1053F
:102C200009F468C0FE013D969E012B5E3F4F8081F6
:102C3000803251F0853009F485EEDB018D93BD01C2
:102C40003196E217F30799F78D89803299F08EE279
:102C5000FB018193BF01FE0175969E01285E3F4FE7
:102C60008081803239F0DB018D93BD013196E2170E
:102C7000F307B1F7888DF60180872CA530E040E09E
:102C800050E0522F4427332722278BA590E0A0E065
:102C9000B0E0DC0199278827282B392B4A2B5B2BA6
:102CA00089A590E0A0E0B0E0282B392B4A2B5B2BC4
:102CB0009AA580E0A0E0B0E0282B392B4A2B5B2BB3
:102CC000D6012D933D934D935C9313979EA180E085
:102CD0002DA130E0822B932B15969C938E93149705
:102CE0009CA180E02BA130E0822B932B17969C9324
:102CF0008E931697FB011082C7010E94D8149C0185
:102D00008330910549F4D7011C961D921D921D92A6
:102D10001C921F9720E030E0C901AC960FB6F894E2
:102D2000DEBF0FBECDBFCF91DF911F910F91FF90FE
:102D3000EF90DF90CF90BF90AF90089523E030E008
:102D400058CF2F923F924F925F926F927F928F92C5
:102D50009F92AF92BF92CF92DF92EF92FF920F932A
:102D60001F93CF93DF937C015B016A0103C008943A
:102D7000C11CD11CD6018C918032C9F38F3219F459
:102D80000894C11CD11CF701148215821682178287
:102D9000D6018C91813238F4C7010E944113EC01B5
:102DA000F5011082B4C022242394FBE04F2E512C55
:102DB0004A0C5B1CF701A281B381FD01CD010B968A
:102DC00002C020E22193E817F907D9F720E0332465
:102DD00038E002C028E03BE0F601E30DF11D9081F0
:102DE00033949132B0F09F32A1F09E3211F023174C
:102DF00028F0383071F49E3269F30BC0892F815668
:102E00008A3108F49052FD01E20FF11D90832F5F8B
:102E1000E3CF1B961C921B97913210F41B962C92B9
:102E2000C7010E944113EC010097C1F5D7011C9620
:102E30004D915D916D917C911F972D913C912F70DB
:102E40003070E5E0220F331FEA95E1F7C50100E29B
:102E500010E00E94FA11892B19F081E090E01DC06A
:102E6000F5018081882309F466C0D2018C9183FD2D
:102E70000FC0F701A281B381F501E415F50509F44E
:102E80005DC090818C91981719F431961196F5CF09
:102E9000C7010E94D814009749F2EC01C330D10554
:102EA000B1F5D7011296ED91FC9113978385882394
:102EB00061F12DC0F201808184FF27C0C30CD11CB9
:102EC000D50155967C905597662454962C9154972D
:102ED00030E02629372940E050E0A9013327222796
:102EE0005B969C905B9788245A968C9190E08829F9
:102EF0009929A0E0B0E0282B392B4A2B5B2BF70156
:102F0000248335834683578355CFC4E0D0E0CE0178
:102F1000DF91CF911F910F91FF90EF90DF90CF90B5
:102F2000BF90AF909F908F907F906F905F904F90E9
:102F30003F902F900895C3E0D0E0B0CFD701129614
:102F4000ED91FC9113978385882309F4B3CFDFCFEC
:102F50000F931F93DF93CF93CDB7DEB7AC970FB628
:102F6000F894DEBF0FBECDBF8C01AB01809147014D
:102F700090914801892B19F426E030E039C0CE0148
:102F80000196F80193838283C801BE01635F7F4F7E
:102F90000E94A1169C01009731F58D858823F9F0D8
:102FA000888D84FF23C03AA120E089A190E0282BDE
:102FB000392B40E050E0A9013327222798A580E073
:102FC0006FA170E0862B972BA0E0B0E0282B392B67
:102FD0004A2B5B2BF8012483358346835783C80132
:102FE0000E9441139C012330310511F424E030E0AC
:102FF000C901AC960FB6F894DEBF0FBECDBFCF911E
:10300000DF911F910F9108950F931F93DF93CF933B
:10301000CDB7DEB7EC970FB6F894DEBF0FBECDBFCD
:10302000AC0100914701109148010115110519F4F7
:10303000E6E0F0E06DC0D80111961C92CE01019639
:10304000988B8F87CE010D96BE01635E7F4F0E94E5
:10305000A116FC01009709F05BC08D8D882309F44F
:1030600055C088A584FD52C03AA920E089A990E006
:10307000282B392B40E050E0A9013327222798ADB7
:1030800080E06FA970E0862B972BA0E0B0E0282BA2
:10309000392B4A2B5B2BD8015E962D933D934D9394
:1030A0005C9391972CAD30E040E050E0522F4427E4
:1030B000332722278BAD90E0A0E0B0E0DC01992718
:1030C0008827282B392B4A2B5B2B89AD90E0A0E079
:1030D000B0E0282B392B4A2B5B2B9AAD80E0A0E087
:1030E000B0E0282B392B4A2B5B2BD8015A962D9315
:1030F0003D934D935C935D9756961D921D921D9244
:103100001C92599781E011968C9302C0E3E0F0E0A5
:10311000CF01EC960FB6F894DEBF0FBECDBFCF91B6
:10312000DF911F910F9108954F925F926F927F925E
:103130008F929F92AF92BF92CF92DF92EF92FF92C7
:103140000F931F93CF93DF933C016B014A01C09112
:103150004701D0914801FA0111821082209719F499
:1031600026E030E0CDC0898180FD03C025E030E05D
:10317000C7C02A8D3B8D4C8D5D8D8E899F89A88D12
:10318000B98D281B390B4A0B5B0BCB01A0E0B0E0DB
:10319000281739074A075B0708F469015301412CD6
:1031A00002E0502EA3C02E893F89488D598DDA0147
:1031B000C9019170A070B0700097A105B10509F028
:1031C00060C0DA01C90119E0B695A7959795879572
:1031D0001A95D1F7FA80FA94F822D1F42115310525
:1031E0004105510529F46E8D7F8D88A199A106C0F6
:1031F0006AA17BA18CA19DA10E94C31362307105BD
:103200008105910508F479C06AA37BA38CA39DA3D3
:1032100000914701109148012AA13BA14CA15DA159
:103220002250304040405040F80186819781A0856F
:10323000B1850297A109B109281739074A075B0729
:1032400008F05BC0628170E080E090E00E94503B3B
:103250009B01AC01F80182899389A489B589280F63
:10326000391F4A1F5B1F211531054105510509F41E
:1032700044C02F0D311D411D511D2EA33FA348A752
:1032800059A72E893F893170C201821B930B7601A9
:103290008C159D0508F47C016114710419F480E01B
:1032A00090E001C0C5014EA15FA168A579A5870185
:1032B0000E94FA11892B09F5C701A0E0B0E02E8920
:1032C0003F89488D598D280F391F4A1F5B1F2E8B50
:1032D0003F8B488F598FAE0CBF1CCE18DF08F4010E
:1032E000808191818E0D9F1D91838083C114D104B3
:1032F00009F059CF20E030E003C0198221E030E02E
:10330000C901DF91CF911F910F91FF90EF90DF9056
:10331000CF90BF90AF909F908F907F906F905F9075
:103320004F900895CF92DF92EF92FF920F931F93E9
:10333000CF93DF93EC016A017B012EEF31E002E0D5
:1033400010E00E94FA11892B11F043E03BC09981F3
:1033500080E0288130E0822B932B85559A4A11F02A
:1033600042E030C0CE01B701A60126E330E002E022
:1033700010E00E94FA11892B59F4998180E028818C
:1033800030E0822B932B8654914411F440E01AC014
:10339000CE01B701A60122E530E002E010E00E9474
:1033A000FA11892B11F041E00DC040E0998180E0D5
:1033B000288130E0822B932B8654914409F441E01C
:1033C00081E04827842FDF91CF911F910F91FF90CB
:1033D000EF90DF90CF9008954F925F926F927F921F
:1033E0008F929F92AF92BF92CF92DF92EF92FF9215
:1033F0000F931F93DF93CF93CDB7DEB7A4970FB68C
:10340000F894DEBF0FBECDBF4C0110924801109260
:103410004701009709F484C10E94711280FF03C024
:1034200022E030E085C17E010894E11CF11CC70157
:1034300040E050E060E070E00E949219813021F09D
:10344000AA24BB2465013AC0C70140E050E060E017
:1034500070E02EEB31E000E110E00E94FA11892BC0
:1034600009F061C18D81882309F460C18C8590E0E9
:10347000A0E0B0E0D82ECC24BB24AA248B8590E019
:10348000A0E0B0E0DC0199278827A82AB92ACA2A37
:10349000DB2A898590E0A0E0B0E0A82AB92ACA2AF0
:1034A000DB2A9A8580E0A0E0B0E0A82AB92ACA2ADF
:1034B000DB2AC701B601A5010E949219833009F4E5
:1034C00032C1882309F032C1CE010196B601A501AF
:1034D0002DE030E004E210E00E94FA11892B09F09F
:1034E00022C19B8580E02A8530E0822B932B7C01D2
:1034F00000E010E0E114F1040105110519F58B8DD0
:1035000090E0A0E0B0E0182F0027FF24EE248A8D81
:1035100090E0A0E0B0E0DC0199278827E82AF92AAA
:103520000A2B1B2B888D90E0A0E0B0E0E82AF92A56
:103530000A2B1B2B998D80E0A0E0B0E0E82AF92A45
:103540000A2B1B2B2C8130E040E050E0C801B70172
:103550000E94503B2B013C019B8180E02A8130E09E
:10356000822B932BA0E0B0E0A80EB91ECA1EDB1E72
:10357000F401A286B386C486D586898182839E8122
:1035800080E02D81422F50E0482B592B55834483F6
:10359000988580E02F8130E0822B932B7C0100E026
:1035A00010E0E114F1040105110519F58F8990E08F
:1035B000A0E0B0E0182F0027FF24EE248E8990E0D1
:1035C000A0E0B0E0DC0199278827E82AF92A0A2B35
:1035D0001B2B8C8990E0A0E0B0E0E82AF92A0A2BA6
:1035E0001B2B9D8980E0A0E0B0E0E82AF92A0A2B95
:1035F0001B2B9B8180E02A8130E0822B932BA0E063
:10360000B0E0E81AF90A0A0B1B0BE418F5080609E2
:10361000170984E0569547958A95E1F7CA01A0E01D
:10362000B0E0E81AF90A0A0B1B0BF401228130E022
:1036300040E050E0C801B7010E94A23B2E5F3F4F1F
:103640004F4F5F4FF4012683378340875187273FD1
:10365000FFE03F07F0E04F07F0E05F0710F481E084
:1036600001C082E0275F3F4F4040504008F083E0B8
:10367000F4018083833041F52BA130E040E050E03D
:10368000522F4427332722278AA190E0A0E0B0E000
:10369000DC0199278827282B392B4A2B5B2B88A103
:1036A00090E0A0E0B0E0282B392B4A2B5B2B99A1AE
:1036B00080E0A0E0B0E0282B392B4A2B5B2B26873B
:1036C0003787408B518B0DC0F40182859385A4858B
:1036D000B585840D951DA61DB71D86879787A08B80
:1036E000B18BF40184819581A4E096958795AA9584
:1036F000E1F7A0E0B0E02285338544855585820F4F
:10370000931FA41FB51F840D951DA61DB71D828B89
:10371000938BA48BB58B11829092480180924701C4
:1037200020E030E005C021E030E002C027E030E0DA
:10373000C901A4960FB6F894DEBF0FBECDBFCF91DE
:10374000DF911F910F91FF90EF90DF90CF90BF908E
:10375000AF909F908F907F906F905F904F90089563
:103760002F923F924F925F926F927F928F929F9291
:10377000AF92BF92CF92DF92EF92FF920F931F937F
:10378000CF93DF93A8ECB1E042E1542E5092C801F0
:1037900034E1D32ED092C90182E58093CA0185E439
:1037A0008093CB0186E58093CC0129E42093CD0161
:1037B0008093CE0181E48093CF011CE41093D0016B
:1037C00093E59093D10184E58093D20185E58093C0
:1037D000D30174E47093D4012093D5018FE48093D6
:1037E000D6019093D70182E38093D80100E3009340
:1037F000D9010093DA0188E38093DB0180EE8093A6
:10380000DD012DE62093DE0190E29093DF013DEF94
:103810003093E00145E14093E10133E23093E2016E
:103820002EEB222E2092E3013093E40126EC20932C
:10383000E5015DE65093E60180E48093E7018DEFBA
:103840008093E8014093E9013093EA012092EB0173
:103850003093EC012093ED015093EE019093EF0132
:103860008093F0014093F1013093F2012092F30133
:1038700094EA692E6092F40103E8702E7092F501CB
:10388000E4E2E093F60198E49093F7015093F80195
:10389000F0E8F093F9018093FA014093FB01309333
:1038A000FC012092FD016092FE017092FF01E09305
:1038B00000029093010285EA809302027092030253
:1038C000E0930402DD969C93DD97DE965C936BE6B5
:1038D0006093080242E240930A0220930B029BE4A9
:1038E00090930C0240930E0284EE80930F0290930B
:1038F0001002CC24C394C09211023093120226E825
:103900002093130290931402F2E0DF2ED09215025E
:10391000409316028CEE8093170290931802F3E006
:10392000F093190230931A0220931B0290931C0209
:1039300054E0552E50921D0240931E0284EF809356
:103940001F029093200255E05093210230932202EF
:103950002093230280E6382E30922402C092250262
:1039600000EF0093260225E12093270230932802DE
:10397000209229028DE780932A02C0922B02309276
:103980002C028FE380932D028CE880932E0200EDB1
:10399000A02EA0922F0280933002D0923102109379
:1039A00032024093340280E78093350282E18093B3
:1039B0003602709337029093380240933A0280E9BE
:1039C00080933B0290933C02C0923D0240933E02A2
:1039D0008CEC80933F0290934002D092410240933E
:1039E000420282EA8093430290934402F09345029C
:1039F0004093460284ED8093470290934802509290
:103A0000490240934A0284EB80934B0290934C020C
:103A100050934D0240934E028CED80934F028BE702
:103A200080935002C09251029093520286E080939C
:103A30005302609354026EEE609357023093580223
:103A4000B8E09B2E9092590229EC20935A02F093F1
:103A50005B0289E880935C0254E950935D02809395
:103A60005E0250935F0280936002509361028093E4
:103A70006202509363028093640250936502309314
:103A8000660296E6909367026093690240936A0229
:103A90007CEF70936B0220936C02F0936D02809325
:103AA0006E0250936F028093700250937102809364
:103AB0007202509373028093740250937502809344
:103AC0007602509377023093780290937902609354
:103AD0007B0230937C02A8E14A2E40927D02209323
:103AE0007E02F0937F028093800250938102809344
:103AF00082025093830280938402509385028093C4
:103B000086025093870280938802509389023093F3
:103B10008A0290938B0260938D028EE680938E02D0
:103B200030939002909291026093930230939402AA
:103B30009093950280939602409398027093990215
:103B400060939B0230939C0290939D0280939E020F
:103B50003093A0024092A1026093A3023093A4028A
:103B60009093A5028093A6023093A8029092A90296
:103B70006093AB023093AC029092AD028EE78093DB
:103B8000AE02F093AF023093B0029092B102609314
:103B9000B3024093B4027093B5028093B602D09200
:103BA000B7024093B8027093B9026093BB0230939E
:103BB000BC024092BD028093BE02D092BF023093FD
:103BC000C0024092C1026093C302FCE6F093C402BB
:103BD0003093C6028AE38093C7023093C802809371
:103BE000C9023093CA028093CB023093CC028093F7
:103BF000CD026093CF02F093D0023093D202E093D3
:103C0000D3023093D402E093D5023093D602E093EE
:103C1000D7023093D802E093D9023093DA02E093CE
:103C2000DB023093DC02E093DD026093DF02F0936D
:103C3000E0023093E20280E58093E3023093E402F5
:103C40008093E5023093E6028093E7023093E80226
:103C50008093E9026093EB0296EA9093EC027092F3
:103C6000ED029EEF9093EE022EE12093EF029093EF
:103C7000F0022093F1029093F2022093F3029093CA
:103C8000F4022093F5027093F6022093F70241EFBD
:103C9000E42EE092F802A5E6A093F9026092FA02FF
:103CA0004CE74093FB02A092FC02B4E1B093FD020A
:103CB0004093FE02D092FF026093010389EA809351
:103CC00002037092030390930403209305039093DF
:103CD000060320930703909308032093090390930E
:103CE0000A0320930B0370930C0320930D03E092BF
:103CF0000E03A0930F036092100340931103A09250
:103D00001203B093130340931403D09215036093EE
:103D100017038BEA809318037092190390931A0388
:103D200020931B0390931C0320931D0390931E0369
:103D300020931F0390932003209321037093220369
:103D400020932303E0922403A0932503609226038B
:103D500040932703A0922803B093290340932A039A
:103D6000D0922B0360932D03F0932E0330923003F7
:103D70008FE1F82EF09231039AE890933203A092EB
:103D800033039093340384EC80933503E6E3F3E04C
:103D900090933603D09237039093380350933903AE
:103DA0001DEA10933A0370923B037AEF70933C0341
:103DB0000EE1802E20933D0370933E0320933F033A
:103DC000E0924003A0934103B4EA5B2E6092420369
:103DD00000E80093430300EDA0924403B3E1B093E5
:103DE000450340934603C09247038CE38093480306
:103DF00048E0C42E90924903B0934A0388E680932A
:103E00004B0360934D0380E6B82E30924E03F09240
:103E10004F0390935003A092510390935203D0927A
:103E20005303909354035093550310935603709289
:103E30005703709358032093590370935A032093A8
:103E40005B03E0925C03A0935D0360925E0340E835
:103E500040935F03A0926003B093610330926203CA
:103E6000F092630390936403A09265038AE78093C2
:103E700066039092670390936803D09269039093CE
:103E80006A0350936B0310936C0370926D037093ED
:103E90006E0320936F037093700320937103E0927D
:103EA0007203A5AF66AE47AFA0927603B0937703D7
:103EB0006093790356EA50937A0370927B031DEF67
:103EC00010937C0320937D0370EF972E90927E03D6
:103ED000A0937F0370E370938003909282034092DB
:103EE0008303609385039092860387E08093870322
:103EF00070938803B0938A03AEEB20928B03609398
:103F00008D039DE690938E03B4E0B0938F0381E61A
:103F100080939003ECE0E0939103309292038CE164
:103F20008093930342E640939403F2E1F093950368
:103F3000609296032093970392EF909398032093B7
:103F40009903A0929A0366E1462E40929B03109338
:103F50009C0355E1D52ED0929D0353E230939E03EE
:103F600020929F033092A00334E13093A103409349
:103F7000A203E093A3036092A403E5EAF3E0209395
:103F8000A5039093A6032093A7030093A8039F0182
:103F90002C5F3F4F4092A903B092AA0364E2609362
:103FA000AB034093AC0388E18093AD035092AE0322
:103FB0008092AF039093B0038092B1030093B20359
:103FC0004092B3031093B403D092B5035093B60359
:103FD000A093B703B092B803BCE0B093B903409389
:103FE000BA03B6E0B093BB035092BC038092BD030A
:103FF0009093BE038092BF030093C0034092C1031D
:10400000B092C2038CE28093C3034093C4038092B6
:10401000C5035092C6038092C7039093C803809251
:10402000C9030093CA034092CB031093CC03D092F0
:10403000CD035093CE03A093CF035092D003809230
:10404000D103B092D20384E0D82ED092D303009350
:10405000D4034092D503B092D60384E38093D70370
:104060004093D8036093D9035092DA038092DB0324
:104070009093DC038092DD030093DE034092DF0324
:104080001093E00385E18093E10355AFA6AFEEEE18
:10409000E901ECAFFCE0FFAF61E1562E5092E9037D
:1040A0005092EA0350E1D52ED092EB0385E980933C
:1040B000EE0395E59093EF038093F0038DEC8093EE
:1040C000F10383E58093F4039093F5039093F60353
:1040D00083E38093F70320E42093F8032093F9030C
:1040E00084E48093FA0382E48093FB0381E4809369
:1040F000FC0396E49093FD032093FF038AE68093EC
:1041000000048AE4809301048093020490930304E2
:1041100030E230930504F9E6F09306048AEA8093CE
:10412000070480930804F093090430930C0480E999
:1041300080930D0488E880930E0470930F0484E646
:104140008093100451E05093110485E6809312048B
:1041500087E0809313044093140483E6809316044D
:10416000B092180481E880931A0470931B040093A2
:104170001C0450921D0491E790931E04C0921F04EA
:1041800084EF8093200480922104009322045092B3
:10419000230490932404C0922504809326048092E3
:1041A0002704009328045092290490932A04C09273
:1041B0002B0480932C0480922D0400932E045092A3
:1041C0002F04809330048092310480E7809332047E
:1041D000C0923304709334042093350494E1909397
:1041E000360492E59093370483E780933804A3E084
:1041F000A093390483E880933A0490933B0482E7C8
:1042000080933C0450933D0482E380933E04C0922B
:104210003F04E4E1E093400480E5809341043EEEF6
:10422000532E50924304B0924404A0EBA093450453
:1042300090924604B09247042093480480EA809309
:10424000490420934A04B093550496EC9093590482
:104250003BED30935D04709361048FE580937404AB
:10426000B09375044EEF409378049093790483EDF6
:1042700080937C04EBEFE0937D0490928004909215
:104280008104B093940486EF80939804E0939C0497
:1042900060EE60939D049092A004B093B404B09338
:1042A000B5049093B9043093BD047093C104B093E6
:1042B000D404B093D5049093D90423E0D22ED092A5
:1042C000DC0481EF8093DD047093E0046093E104EB
:1042D000B093F4049093F80489ED8093FC04609308
:1042E00000055FE250931405B09315052FEF20935E
:1042F000180590931905F0931C0530931D056093E4
:10430000200570932105B093340586E78093380526
:1043100083EF80933C0560933D05709340050FE16A
:1043200000935F0537E0309360057FE0709361058F
:1043300020936305409364051CEF109365059EE789
:10434000909366058EE3D82ED09269058CE7809312
:104350006A0550937F05FBE1EF2EE09280053093D4
:1043600081052093830590928405E0938505009351
:10437000860540938905A0938A0537E130939F0510
:104380007093A0052093A305A8EFA093A405909394
:10439000A5057093A6058CE08093A805E4E1E09361
:1043A000A90588E38093AA055093BF05EBE0BE2ED4
:1043B000B092C0057093C1054093C3056093C405D6
:1043C000E5ECF5E01093C5055FE3F52EF092C60528
:1043D0009093C9051093CA0557E13093DF05009308
:1043E000E00583E0582E5092E1052093E30590927A
:1043F000E4052093E5050093E60500E80093E70552
:104400004093E905B092FF057093000646AFA7AF51
:104410009093050670930606ECE1E0930806D092AF
:10442000090630931F0630932006709321064093AF
:10443000230680EC80932406A0932506F09226069E
:104440004093290610932A068BE280933F06FFE1F2
:10445000DF2ED092400620934306609344068FE7F8
:1044600080934506D09246060093470604E00093E9
:104470004806E09349068CE380934A0600934B0676
:1044800095E090934C068BE1E0924D0690934E069A
:10449000E0924F0630935006009351063093520637
:1044A00027E02093530618E0C09254063093550637
:1044B000C0925606E0935706C092580665E1609395
:1044C00059064AE1F42EF0925A06B0935B065092D8
:1044D0005C0624E1A22EA0925E06E0925F064AE00E
:1044E000409360064092610640926206F092630635
:1044F00040936406AEE0DA2ED0926506F09266062E
:10450000C092670622E020936806A0E1A0936A06A5
:1045100080926B06FCE0F0936C0660936D0630931E
:104520006E06F8E15F2E50926F06B0927006C09250
:104530007106A9E19A2E90927206B09273067724C2
:10454000739470927406FDE02F2E20927606A0E2FE
:10455000A09377067093780673E1372E3092790630
:1045600090927A0660937B0640937C06F3E0F0938A
:104570007D0660937E06A0937F0672E170938006AD
:10458000D092810670928206F0E15F2E50928306EF
:10459000F092840670928506B0928606A0928706F5
:1045A000C0928806A1E15A2E50928A06AFE1A093EC
:1045B0008B06A0928C0620928D06E0928E06709358
:1045C0008F0670929006F4E0F0939106F9E06F2E5A
:1045D0006092920660939306B0939406209296069A
:1045E000ADE1A09397064092980640939906E09219
:1045F0009A0660939B06F3E0F0939C06B0939D06A9
:10460000C0929E06A8E1A0939F069093A006709288
:10461000A1066092A206E093A3064092A406B0937E
:10462000A5069092A6063093A7069093A806E7E009
:10463000E093A906C092AA06E092AB069093AC065E
:10464000F4E0F093AD069093AE06E092AF0630939F
:10465000B006F093B1063093B2063093B306C09221
:10466000B406C092B506C092B606F093B706A09203
:10467000B8066092B9062093BA06F092BB06A093E2
:10468000BC068092BD06E093BE069093BF063092B2
:10469000C006C092C106E093C2069093C306709311
:1046A000C406D092C5067092C6069092C706909234
:1046B000C806AFE1A093C9064093CA062093CB0673
:1046C0007093CC06C092CD06B093CE06C092CF06B2
:1046D0007093D006A092D1062093D206B8E1B09391
:1046E000D306F092D406E0E2E093D506FCE0F09326
:1046F000D606A0E1A093D8066092D9069093DA0678
:104700004093DB067093DC069092DD06B4E0B09334
:10471000DE066093DF06E092E006D092E206EFE16B
:10472000E093E306D092E406B092E506F3E0F0935E
:10473000E606ACE0A093E706A092E806BDE1B093E0
:10474000E906C092EA06B092EC06D092ED067092AD
:10475000EE06E1E1E093EF06E092F006B093F10699
:10476000E093F206B092F3063093F406FFE1F09383
:10477000F5062092F606C092F8067093F90670923C
:10478000FA062092FB06F092FC06E092FD0670937A
:10479000FE06C092FF06A8E1A093000780920107E1
:1047A0007093020720930307B7E0B0930407309398
:1047B000050720930607A7E0B7E04093070730936B
:1047C00008079092090730920A07E0920B0730938E
:1047D0000C07E0920D0790930E07FD0138960093A9
:1047E0000F075093100700931107909312075093EF
:1047F00013071093140750931507A09216073DE175
:10480000309317074093180736E030931907009349
:104810001A0760931B07F0921C0770921D076093A4
:104820001E0780931F07609220073BE0309321070B
:104830009093220780932307D09224071093250793
:1048400033E030932607D0922707809328075092B1
:104850002A073EE130932B073CE030932C0730E1F0
:1048600030932D0700932E0750932F077093300736
:10487000409331072093320710933307F0923407A7
:104880003FE1309335073FE03093360720923807F9
:1048900036E13093390700933A0730E130933B0714
:1048A000A0923C0720923D0720933E073EE13093C3
:1048B0003F07A092400733E03093410736E1309341
:1048C00042078093430736E0DD963C93DD97DE9602
:1048D0002C93DE97DF966C9260AE31AEA0E1A2AF72
:1048E00073AEF4AEB8E1B5AF3FE136AF47AF70920B
:1048F0004F0770935007A7E0A0935107B6E0B0931D
:10490000520700935307EFE0E0935407A092550736
:10491000209356073092570780935807F0E2F093A0
:104920005907D0925A0770925B07D0925C07209289
:104930005D0790935E0720935F074093600738E11F
:1049400030936107A3E0A0936207BBE0B0936307D5
:1049500080936407EFE1E093650730926607009368
:104960006707409368077093690790936A070093FD
:104970006B0750936C0700936D0790936E078093BD
:104980006F0750937007809371079093720710938D
:104990007307A092740710937507109376076093BE
:1049A000770790927807FEE1F093790710937A07E2
:1049B00050927C07EDE7F7E060927D0720937E0739
:1049C000A0927F0750938007809381073CE030934B
:1049D0008207D092830750938407AFE1A0938507A5
:1049E000B0938607B0938807BFE0B09389077092B1
:1049F0008A0730E130938B07F0928C073CE13093CB
:104A00008D07A0E1A0938E0760928F0730929007E8
:104A1000BFE1B0939107D092920720939307A6E04D
:104A2000A093940760939507209396074093970768
:104A3000F0929807F092990760939A0710939B075A
:104A4000D0929C07B0939D07BFE0B0939E07109350
:104A50009F072093A0079093A107A8E1A093A20726
:104A6000F092A3079093A4075093A5079092A607EE
:104A70004093A7076092A807BEE1B093A90770937F
:104A8000AA07A092AC07D092AD077092AE075092E1
:104A9000AF078093B0073093B1076092B207AFE0E1
:104AA000A093B3079093B407BDE1B093B507A0926C
:104AB000B607D092B807ACE0A093B90785AF36AE81
:104AC00027AFB093BD07D092BE076093BF07009396
:104AD000C0073093C1076093C2074093C407B7E093
:104AE000B093C507F092C607E6E1E093C70790933D
:104AF000C8078093C9075092CA078093CB07909349
:104B0000CC070093CD079093CE070093CF07509327
:104B1000D0078093D1075093D207F8E1F093D307E1
:104B20001093D4071093D5071093D607A3E0A09352
:104B3000D707A092D8074093D9072093DA0790921D
:104B4000DB079092DC07BFE1B093DD071093DE072F
:104B50000093DF077093E0076092E107E6E0E093DF
:104B6000E2079093E3077093E4075092E5072093E0
:104B7000E6075093E707F092E807F0E2F093E907C1
:104B8000ACE0A093EA077092EB07B0E1B093EC07BA
:104B90004093ED079093EE07E7E0E093EF07509224
:104BA000F0075093F107F3E0F093F207A092F307B8
:104BB0008093F4072092F607A0E2A093F707BFE0E6
:104BC000B093F807ECE0E093F907F093FA0740930D
:104BD000FB077093FC073093FD07F7E0F093FE07A7
:104BE000409300085092010880930208B093030894
:104BF00020930408AEE1A093050850920608BBE09C
:104C0000B0930708A0920808EFE1E0930908B09379
:104C10000A0810930C0870930D0870920E082092E9
:104C20000F08809310088093110830921208409367
:104C30001308F6E1F0931408E0931508AFE0A09391
:104C4000160820931708B6E0B09318086093190867
:104C500070921A0840931B0890921C0890921D08AD
:104C6000A0921E08E7E0E0931F0850932008FEE1A1
:104C7000F093210830922208A3E0A0932308B09378
:104C8000240890922508A093260810932708509393
:104C90002808B8E1B0932908A0922A0880932B082D
:104CA00090932C0800932D0890932E0880932F0842
:104CB00050933008009331085093320850933308D2
:104CC00010933408109335081093360880933708F2
:104CD00010933808E6E1E0933908F0923A0890938F
:104CE0003B0800933C0870923D0860933E08F092A8
:104CF0003F08609240085093410860934208F09248
:104D00004308409344085092450880934608F6E0D3
:104D1000F0934708A093480870934A08ADE1A09328
:104D20004B0840934C0850934D08E0934E08509325
:104D30004F0840935008BBE0B0935108F0925208DE
:104D4000E7E0E093530820935408F0E1F09356080D
:104D5000AFE1A0935708BCE0B0935808E6E1E093B8
:104D6000590850935A0860935B0840935C08F6E03A
:104D7000F0935D08A8E1A0935E0840935F087092ED
:104D80006008B0E2B0936108D0926208D0926408E3
:104D9000A0926508909266083092670810936808A0
:104DA00020936908A0926A08B0936B0850926C082F
:104DB000D0926D0870926E0850926F0880937008C0
:104DC00020937108EBE0E0937208A092730890932F
:104DD0007408FFE0F0937608AFE1A0937708A09203
:104DE00078082092790880937A0870937B08209342
:104DF0007C0800937D0840937E0850937F080093C1
:104E000080087092810840938208BDE1B0938308C6
:104E10006093840810938508F09286086093870851
:104E200090938808E6E0E093890860928A0880936E
:104E30008B0850938C0880938D0890938E08009374
:104E40008F08509390080093910890939208F8E18E
:104E5000F093930810939408F0939508A092960805
:104E6000209397087093980890929908F0939A0865
:104E700040939B0820939C08AEE1A0939D08B7E067
:104E8000B0939E0800939F083092A008A092A108BA
:104E90005093A2080093A308D092A4085093A508A9
:104EA0009092A6085092A7087092A808E0E2E093BA
:104EB000A908FBE0F093AA087092AB08A0E1A093C8
:104EC000AC08BFE0B093AD08E8E1E093AE08109302
:104ED000AF084093B0086093B108F092B2085093C5
:104EE000B3082093B408F0E2F093B508B093B60885
:104EF0002092B8086092B908E093BA08B093BB0852
:104F00001093BC087093BD08F092BE087092BF0861
:104F10001093C0083093C10826E02093C208009384
:104F2000C30836E13093C408ADE1A093C5083092C0
:104F3000C6083093C7086092C808B093C908809328
:104F4000CA089093CB080093CC087093CE08BEE1BA
:104F5000B093CF084093D008E093D1083093D208A3
:104F60008093D3082092D408EBE0E093D508F09228
:104F7000D608FCE0F093D70828ED38E0EE24E3945F
:104F80007092D8086EE0D092DA08B093DB08D09225
:104F9000DC08E2E18E2E7093DD08B7E1BB2E509362
:104FA000DE08A093DF087093E008A7E0DA2ED09225
:104FB000E1089092E208F4E1DF2EA092E3087092FB
:104FC000E4086092E608EBE19E2E8093E708709378
:104FD000E8082092E9085093EA080093EB08509300
:104FE000EC080093ED0875E09093EE088093EF08CD
:104FF0005093F0088093F1089093F20888E01093A2
:10500000F308A092F4081093F508F9017E96109326
:10501000F6085AE04093F70843E04093F80870928E
:10502000F908A092FA08AFE1A093FB08BBE0B093A7
:10503000FC0846E14093FD084AE1242EF092FE0868
:10504000B093FF089093000900930109A0E1A09399
:105050000209509203099093040950920609B0E2A4
:10506000B093070950920809A093090990920A0980
:10507000D901D3961FE0512E50920B0912E01093E4
:105080000C0903E000930D094CE040930E0996E1F2
:1050900090930F0949E0542E509210096093120921
:1050A0000DE10093130990931409E9015DAF2EAE51
:1050B00045E14FAF12A373A397E0592E54A2B5A2B6
:1050C00066A30DE000A7B1A622A623A624E024A78C
:1050D00075A7B6A687A733E030AB41AB23E122AB7F
:1050E000E3AA54AB9FE195AB86AB67ABE0AE01E1C1
:1050F000502E51AE92AE33AF24AF00E105AFB6AE45
:1051000017AF9B968C939B9730E29C963C939C9711
:105110009D966C939D979E962C939E979F96EC924E
:105120009F979CE0D0969C93D097D1962C92D19744
:10513000D2961C93D297D3966C93D397D4965C93C4
:10514000D497E8E1D596EC93D597F3E0D696FC9307
:10515000D69797E0592ED7965C92D7970FE1D896BD
:105160000C93D897D9968C92D997DA96EC93DA97D4
:10517000DB961C93DB9739E0DC963C93DC97DD965D
:10518000BC92DD9794E0DE969C93DE97EBE0DF9691
:10519000EC9390934B0970934C0990924D09709346
:1051A0004E0990924F09B092500990935109B092D4
:1051B00052093CE1309353098093540940935509B7
:1051C00020925609A6E0A0935709F0935809D0926F
:1051D0005A0920925B0950935C0960935D09209203
:1051E0005E0980935F0910936009F0E1F093620912
:1051F00008E1502E50926309E09364098093650999
:1052000009E100936609E0936709E09268099DE06F
:1052100090936A0940936B0950936C09B3E0B09383
:105220006D0940936E0960936F09E0927009E092F6
:105230007109E0937209D092730980937409E1E1D6
:10524000E093760980927709E0927809D092790903
:1052500080927A0940937B09A0937C0990937E0900
:1052600020937F09D092800940938109B0938209ED
:105270005092830970938409E0928509F9E0F093D4
:105280008609E093870940938809B0928909709351
:105290008A0990928B0970938C09B4E05B2E50922E
:1052A0008D0970938E0900E100938F094093900956
:1052B000B092910980939209F09393091093940905
:1052C0009EE190939509B7E0B09396096093970992
:1052D0004093980980939909B0939A0960939B0928
:1052E000E0929C09EFE1E0939D0950939E09FCE058
:1052F000F0939F094093A0098093A109A093A2096C
:10530000D092A3091093A409EBE05E2E5092A50958
:10531000D092A60900E20093A709F093A80999E0AA
:105320009093A9097093AA09B9E1B093AB09E4E09D
:10533000E093AC095093AD09D092AE09FFE1F09330
:10534000AF096093B0095092B10993E0592E509281
:10535000B2090DE10093B3098093B4098093B509B4
:105360002093B6096093B709E092B8090093B90990
:1053700091E19093BA09F093BB09BDE0B093BC09E9
:105380008092BD09E092BE09E7E0E093BF099093E7
:10539000C0099092C1098092C209FEE1F093C3094D
:1053A0008092C409B092C5091093C609A093C70999
:1053B00000E1502E5092C80909E10093C9092093D9
:1053C000CA099092CB09B092CC099092CD09709302
:1053D000CE09A093CF096093D009B092D1098093F0
:1053E000D2099DE19093D3095093D4094093D509F4
:1053F0002092D609E093D709BCE0B093D8099092E7
:10540000D909E9E0E093DA099092DB096093DC09BD
:105410006093DD099092DE098093DF095093E009E3
:10542000F093E109B093E209B092E3098092E409B4
:105430008093E5092092E609FFE1F093E709BFE0D8
:105440005B2E5092E8090BE00093E9098093EA098A
:1054500090E19093EB09D092EC09BEE1B093ED0995
:10546000D092EE09E3E0E093EF09F6E1F093F00962
:105470005092F109F7E05F2E5092F20909E0009393
:10548000F3092093F4092092F50998E19093F60925
:10549000E092F7098092F8098092F9098093FA095D
:1054A000B4E0B093FB09EFE0E093FC092093FD0921
:1054B0009092FE094093FF090093000AE092010ACE
:1054C0006093020A1093030A5093040AFBE0F093DE
:1054D000050A9092060A9093070AF093080AB0937F
:1054E000090A50930A0AB0930B0AB0920C0AB093BF
:1054F0000D0A70930E0AE9E15E2E50920F0A609336
:10550000100A8093110AD092120A01E10093140A42
:1055100099E09093150A1093160AB8E1B093170A10
:10552000E0E1E093180AA093190A80921A0AF09316
:105530001C0AFFE0F0931D0AE0921E0A96E1592E24
:1055400050921F0A2093200A7093210AE093220AA6
:105550001093230AA093240AD092250AD092260AF7
:105560004093270A1093280A7093290A60932A0A05
:1055700000932B0AD0922C0A80932D0A10932E0AA6
:1055800020922F0A7093300A7093310AE2E3FAE016
:105590000DE00093320A9EE06093330A2093340AB0
:1055A0006093350AE092360A3093370A39E0309337
:1055B000380AA093390ABCE0B0933A0A00933B0A38
:1055C00031E130933C0A20933D0A10933E0A0DE1ED
:1055D000502E50923F0A6093400AA093410ABAE0CD
:1055E0007B2E5093420A6093430A0FE00093440AD3
:1055F000B6E1B093450A05E0302E7093460A9092CA
:10560000470A3093480A07E0F02EF092490A09E071
:10561000502E50924A0A00E1C02EC0924B0A60936D
:105620004C0A08E100934D0A08E0402E80934E0A90
:1056300080934F0A8093500A8093510AD092520A65
:105640008092530A6093540A04E0602E6092550AD7
:105650008092560A5092570AA093580A2093590AEA
:10566000B0935A0AD0925B0A60935C0AE0925D0A9A
:10567000C0925E0A50935F0A7093600ABFE0B093D5
:10568000610AB6E15B2E5092620A5092630AC092A0
:10569000640A0DE00093660ABCE0B093670A03E079
:1056A000502E5092680A5093690A05E140936A0AA5
:1056B000B6E1B0936B0A80926C0A50936E0ABFE019
:1056C0005B2E55AE16AFF7AE2093720A8093740A24
:1056D0004093750A2093760A8092770AE092780ABE
:1056E0007093790AC0927A0A10937B0AA0937C0A7D
:1056F00040937D0AE0927E0A20937F0A4093800ABD
:105700007093810A6093820AB3E0B093830AA093F6
:10571000840AE9E1E093850AB093860A3093870A08
:105720004093880A7093890AFBE0F0938A0A90926A
:105730008B0A70938C0A60928D0A70938E0A509235
:105740008F0A4093900AE7E15E2EB092910A80930F
:10575000920A9092930A8093940A7093950A6092A9
:10576000960A6093970A4093980A2092990AB9E0A2
:10577000B0939A0A20929B0A50939C0AA0939D0A88
:10578000E3E0E0939E0AFCE0F0939F0AD092A00A27
:10579000BDE1B093A10A5093A20AB092A30A50931C
:1057A000A40AF092A50A1093A60AEFE1E093A70AD3
:1057B000F093A80AFBE0F093A90AD092AA0A4093BA
:1057C000AB0A5093AC0A5093AD0AE092AE0AB0E235
:1057D000B093AF0A6093B00A5093B10A2093B20A13
:1057E0002093B30A8093B40AB093B50A3093B60AF3
:1057F0006093B70AE092B80AE9E0E093B90A8092B0
:10580000BA0AD092BB0A7093BC0AFFE1F093BD0ABA
:10581000D092BE0A8093BF0A3093C00A8092C10A18
:105820001093C20AB092C30A6092C40ABDE1B09359
:10583000C50A4093C60AF092C70AE0E1E093C80A9D
:105840004093C90A7093CA0A9092CB0AB092CC0ACC
:105850009092CD0A7093CE0AA093CF0A6093D00A9B
:10586000F8E1F093D10A8093D20A79E17093D30AD8
:10587000F093D40AAEE1A093D50AF092D60AF09242
:10588000D70ABCE0B093D80AD092D90AB092DA0A0B
:10589000B092DB0A7093DC0AE0E2E093DD0AFBE001
:1058A000F093DE0AAFEDBAE08093DF0A5093E00A8E
:1058B0005FE0D52ED092E10A58E15093E20A40937E
:1058C000E30A2092E40AF093E50A8093E60AE09363
:1058D000E70AD092E80A79E07093E90A5093EA0A5D
:1058E0008092EB0A2092EC0A6093ED0AF092EE0AA5
:1058F0006092EF0A86E18093F00AEDE1E093F10A0D
:105900002093F20AD092F30A9092F40A8092F50A58
:10591000F092F60A8092F80AFD017A965093F90AFD
:105920008093FA0A2BE0D22ED092FB0A2AE1209330
:10593000FC0A9093FE0A8093FF0A7093000B42E1E9
:105940004093010B5092020BF092030B59E15093DC
:10595000040B7093060B78E17093070BD092080B41
:105960008DE08093090B50920A0B60920B0B5092C2
:105970000C0B60920D0B30920E0B50930F0B90930B
:10598000100B4092110BA092120B7092130B13E0AC
:10599000D12ED092140B21E02093150BA092160B60
:1059A0007093170BC092180B4BE04093190B309279
:1059B0001A0B30931B0BDD963C92DD97DF963C93E0
:1059C00056E156A372E177A38FE080A7A2E0A1A7DA
:1059D00052A7B9E0B3A795A706A7A7A7B3E1DB2E07
:1059E000D0AAD1AA52AA93AB2DE025AB4AE146AB8F
:1059F00067AA40AE53E051AF02AFD3AE71E074AFCF
:105A000075AE8FE186AF47AE9093390B70933A0B2A
:105A1000C0923B0B50923C0BA0933D0B40923E0B2F
:105A200080E280933F0B9093400BD092410B709398
:105A3000420B7092430BA8E1A093440B5093450B8B
:105A4000F092460BBFE1B093470BE2E1E093480BC5
:105A5000A093490BF2E0F0934A0BC0924B0B90934A
:105A60004C0B76E0D72ED0924D0BF0924E0B29E1E5
:105A700020934F0BF092500B2093510B0093520B3D
:105A80004DE04093530B9093540B5BE15093550BB7
:105A900079E07093560B86E18093570B5092580B28
:105AA0007093590B30925A0BABE0A0935B0B909321
:105AB0005C0BBCE1B0935D0BECE0E0935E0BF2E1BC
:105AC000F0935F0B68E1D62ED092600B4093610B90
:105AD0006092620BB093630B9093640B7093650BB1
:105AE000E093660B9093670B2093680B3093690BE0
:105AF00060926A0B50936B0B90936C0B70936D0BD1
:105B000070926E0BA0936F0BD092700BA092710BE2
:105B10003092720B2AE12093730B9093740BF092E6
:105B2000750B8093760B7092770B7093780BA09225
:105B3000790BF0937A0B20937B0B90937C0B309234
:105B40007D0BA0927E0BE0937F0BF092800B43E1E4
:105B50004093810BA092820B2093830B9093840B34
:105B60006092850B3093860B9093870BF092880B95
:105B7000E9E8FBE03093890B00938A0B50938B0B81
:105B800090938C0B60928D0B90938E0B60E1C09282
:105B90008F0B0093900BC092910BF092920B56E0FA
:105BA0005093930B7CE07093940BB093950B8FE024
:105BB0008093960B9093970B0093980B3093990BCF
:105BC000F0929A0B70929B0B70929C0BADE1A0939C
:105BD0009D0BC0929E0B70939F0B0093A00B409364
:105BE000A10B4092A20B9093A30B7092A40BB093C5
:105BF000A50BB2E1B093A60B8BE0D82ED092A70BE9
:105C000014E1212EA092A80BA092A90B4092AA0BFE
:105C1000B093AB0BD092AC0B7092AD0BA092AE0BCD
:105C20002093AF0BA092B00B3092B10B4092B20B0D
:105C30000093B30B9093B40BF092B50B5093B60B4B
:105C40004092B70B4093B80B77E15092B90B26E125
:105C50002093BA0B0093BB0B3093BC0B7092BD0B1F
:105C60006092BE0BF092BF0B3093C00B5092C10BF1
:105C7000D092C20B4093C30B0093C40B4DE04093F2
:105C8000C50B65AE56AFC7AE58E15093C90B8CE05B
:105C90008093CA0BC092CB0B5092CC0BC092CD0B11
:105CA0003092CE0BA6E0A093CF0B9093D00B19E1CE
:105CB0001093D10B9093D20B3093D30BF092D40B63
:105CC000D092D50B5092D60B5093D70BC092D80BD5
:105CD000F092D90B8093DA0B3093DB0BB9E0B093E1
:105CE000DC0BA093DD0B2093DE0B5092DF0BE2E187
:105CF000E093E00B4092E10B7092E20BC092E30B59
:105D00007092E40BF3E0F093E50BA3E1DA2ED0926E
:105D1000E60BA092E70BA092E80B2AE12093E90B97
:105D20007092EA0B9093EB0B4BE04093EC0B3093AB
:105D3000ED0B0093EE0B5DE15093EF0B8DE0809344
:105D4000F00BF093F10BAFE0A093F20B8093F30B09
:105D50007092F40B5093F50BC092F60B8093F70BF7
:105D60000093F80BE093F90B4092FA0BBCE0B09370
:105D7000FB0B4092FC0B2093FD0BA092FE0BE9E085
:105D8000E093FF0BD092000C0093010CE093020C07
:105D90008093030CF6E0F093040C0093050C5092F2
