:100000000C94CD340C9437350C9437350C9437352B
:100010000C9437350C9437350C9437350C943735B0
:100020000C94C9390C9437350C9437350C9437350A
:100030000C9437350C94A0370C94E0370C9437357A
:100040000C9437350C9437350C9437350C94373580
:100050000C9437350C9437350C9437350C94373570
:100060000C9437350C9437350C9437350C94373560
:100070005A5501200101003808000000000000006E
:100080000000000000000000000000000000000070
:100090008100450027FF24FF2A902B1C210C22FB06
:1000A000850084008903888D81096F0244424700DE
:1000B0004501B083B300B10125118A4F8B03463B44
:1000C000493B523B573B5F3B683B6D3B723B753B4B
:1000D000873B8A3B8D3BCE3BD13BD43B0040889154
:1000E000D2E4ADB5B6BEBFFF06575757575757575F
:1000F00006040404040404060604040606060606B0
:100100000604FFFFFFFFFFFF0604FFFFFFFFFFFFE7
:100110000604FFFF570406060604FFFF57060606FF
:100120000606FFFF060606065757575757575757F5
:1001300006040404040404570606060606040457CD
:10014000FFFFFFFFFFFF0457FFFFFFFFFFFF045705
:1001500006060404FFFF045706060604FFFF0457C3
:1001600006060606FFFF06570606FFFF06060606FA
:100170000604FFFF570606060604FFFF570406069F
:100180000604FFFFFFFFFFFF0604FFFFFFFFFFFF67
:100190000604020202020206060404040404040621
:1001A000060606060606060606060606FFFF0657AC
:1001B00006060605FFFF045706060405FFFF045761
:1001C000FFFFFFFFFFFF0457FFFFFFFFFFFF045785
:1001D000060202020205045706040404040404573C
:1001E000060606060606065769BCBCBCBCBCBCBC01
:1001F0006910101010101069691010696969696937
:100200006910BB10696969696910BBBB106969FF36
:100210006910BBBBBB1072FF6910BBBBBB72FFFF99
:10022000696969696972FFFFBCBCBCBCBCBCBCBC71
:1002300069101010101010BC69696969691010BC50
:1002400069696969106110BCFF696910616110BC5E
:10025000FF721061616110BCFFFF7261616110BCCF
:10026000FFFF7269696969BC6969696969FFFFFFB4
:100270006910BBBBFFFFFFFF6910BBFFFFFFFFFF64
:100280006910FFFFFFFFFFFF6910BB10101010691E
:1002900069101010101010696910101010101069FA
:1002A0006969696969696969FFFFFF69696969BCA9
:1002B000FFFFFFFF616110BCFFFFFFFFFF6110BC8C
:1002C000FFFFFFFFFFFF10BC69101010106110BC92
:1002D00069101010101010BC69101010101010BC14
:1002E00069696969696969BC89E3E3E3E3E3E3E3B5
:1002F000894949494949498989494989898989FFF8
:100300008949E34989FFFFFF8949E3E3FFFFFFFFD5
:100310008949E3FFFFFF92898949E3FFFF924989F9
:100320008989FFFFFF898989E3E3E3E3E3E3E3E30B
:1003300089494949494949E3FF898989894949E303
:10034000FFFFFF89499149E3FFFFFFFF499149E31F
:100350008992FFFFFF9149E3899292FFFF9149E360
:10036000898989FFFFFF89E38989FFFFFF898989DF
:100370008949E3FFFF4949898949E3FFFFFF49892B
:100380008949E3E3FFFFFFFF8949E34949FFFFFF95
:1003900089494949494949FF894949494949498957
:1003A0008989898989898989898989FFFFFF89E301
:1003B000894949FFFF9149E38949FFFFFF9149E3DB
:1003C000FFFFFFFF919149E3FFFFFF49499149E397
:1003D000FF494949494949E389494949494949E363
:1003E00089898989898989E33F3F3F3F3F3F3F3F73
:1003F0003F3F4B4B4B4B4B4B3F4B4B069D9D9D9D6E
:100400003F4B0606069D9D9D3F4B950606069D9D0E
:100410003F4B95950606069D3F4B9595950606061E
:100420003F4B9595959506063F3F3F3F3F3F3F3FEA
:100430004B4B4B4B4B4B3F3F9D9D9D9D064A4A3F2F
:100440009D9D9D0606064A3F9D9D060606954A3FD0
:100450009D06060695954A3F0606069595954A36E9
:100460000606959595954A363F4B959595950606C2
:100470003F4B9595950606063F4B95950606064A11
:100480003F4B950606064A4A364B0606064A4A4A36
:1004900036364A064A4A4A4A3636364A4A4A4A4A64
:1004A0001B1B1B1B1B1B1B1B0606959595954A3694
:1004B0000606069595954A364A06060695954A36E5
:1004C0004A4A060606954A364A4A4A0606064A3601
:1004D0004A4A4A4A064A36364A4A4A4A4A36363624
:1004E0001B1B1B1B1B1B1B1B3F3F3F3F3F3F3F3F3C
:1004F0003F3F4B4B4B4B4B4B3F4B4B9D9D9D9D9DD6
:100500003F4B959D9D3F369D3F4B951F369D9D3F93
:100510003F4B1F061F9D04573F4B951F9595045752
:100520003F4B9595959504573F3F3F3F3F3F3F3F9A
:100530004B4B4B4B4B4B3F3F9D9D9D9D9D4A4A3F97
:100540009D9D9D9D9D954A3F069D9D9D95954A3FEC
:1005500006049D9595954A3F0604959595954A36CE
:100560000604959595954A363F4B95959595045774
:100570003F4B9595959504573F4B9595954A045754
:100580003F4B95954A4A0457364B954A4A4A045779
:1005900036364A4A4A4A04573636364A4A4A4A574B
:1005A0001B1B1B1B1B1B1B1B0604959595954A3695
:1005B0000604959595954A3606044A9595954A36CA
:1005C00006044A4A95954A3606044A4A4A954A36E6
:1005D00006044A4A4A4A3636064A4A4A4A363636AD
:1005E0001B1B1B1B1B1B1B1B3F3F3F3F3F3F4B4B23
:1005F0003F3F4B4B4B4BFF3F3F4B4B9D9D4BFF3F7B
:100600003F4B9D9D9D4BFF3F3F4B9D9D9D4BFF3F16
:100610003F4B4B4B4BFFFFFF4BFFFFFFFFFFFF36F7
:100620003F4B3F3F3FFFFF363F3F3F3F3F3F3F3F57
:100630004B4B4B4B4B4B3F3F4B9D9D9D9D4B4A3FE7
:100640004B9D9D9D4B3F4B3FFF4B4B4B3F364B3F95
:100650003F3F3F3F3F364B3F36363F36364B4A36BD
:10066000363F3F364B954A363F4B4B3F3F3FFF3F70
:100670003F4B954B3F3F3FFF3F4B95954B3F3F3F98
:100680003F4B954B3F3F3F3F364B4A4B3F3F3F3FF2
:1006900036364B3F3F3F4A4A36364B3F3F4A4A4A3F
:1006A0001B1B1B4B4B1B1B1B3F3F364B95954A3669
:1006B000363F36364B954A363F363F3F364B4B3604
:1006C0003F3636363F36364B4A4A4A4A363F364B35
:1006D0004A4A4A4A4A4A4B364A4A4A4A4A363636C9
:1006E0001B1B1B1B1B1B1B1B3F3F3F3F3F3F3F4B2E
:1006F0003F3F4B4B4B4B4BFF3F4B4B9D9D9D4BFF10
:100700003F4B9D9D9D9D4BFF4BFF4B4B9D4BFFFFDB
:100710004B3FFFFF4B4BFFFF3F4B3F3FFFFFFF3F79
:100720003F4B4B3F3FFFFF3F4B3F3F3F3F3F3F3F35
:100730003F4B4B4B4B4B3F3F3F4B9D9D9D4A4A3F51
:100740003F4B9D9D9D9D4B3F3F3F4B9D4B4B3F4B9B
:100750003F3F4B4B3F3F364B363F3F3F36364B36A6
:10076000363F3F3F364B4A363F4B954B3F3F3FFF6F
:100770003F4B95954B3F3FFF3F4B954B3F3F3F3F97
:100780003F4B4B3F3F3F3F3F364B3F3F3F3F3F4A53
:10079000364B3F3F3F4A4A4A364B4B4A4A4A4A4AFF
:1007A0001B1B1B1B1B1B1B1B3F3636364B954A3630
:1007B0003F36364B95954A36363F36364B954A3658
:1007C00036363F36364B4A364A36363F36364B3665
:1007D0004A4A4A363F3F4B364A4A4A4A4A4B3636DD
:1007E0001B1B1B1B1B1B1B1B3F3F3F3F3F3F3F3F39
:1007F0003F3F4B4B4B4B4B4B3F4B4B9D9D9D9D4B25
:100800003F4BFF4B9D9D9D4B3F4B3FFF4B4B4BFF4A
:100810003F4B3F3FFFFFFFFF3F4B4B3F3FFF3F360D
:100820003F4B954B3FFF3F364B4B3F3F3F3F3F3F9B
:10083000FF3F4B4B4B4B3F3FFF3F4B9D9D4A4A3F3A
:10084000FF3F4B9D9D954A3FFF3F4B9D95954A3FEE
:100850003F3F3F4B4B4B4B3F363F3F3F3F3F3F4B75
:1008600036363F3F3F364B363F4B95954B3FFF3F2C
:100870003F4B954B3F3F3FFF3F4B4B3F3F3F3F3F42
:100880004B3F3F3F3F3F3F3F4B3F3F3F4A4A4A4A34
:10089000364B4A4A4A4A4A4A3636364A4A4A4A4A07
:1008A0001B1B1B1B1B1B1B1B3F3F3636364B4A3685
:1008B0003F3F36364B954A363F3F364B4A954A3690
:1008C0003F3F36364B4A4A3636363F364B4A4A3633
:1008D0004A4A3636364B36364A4A4A3F364B363621
:1008E0001B1B1B4B4B1B1B1B3F3F3F3F3F3F4B4BC0
:1008F0003F3F5252525B5B5B3F4B520000ADADAD90
:100900003F4B00000000FFFF3F4B0000000000FFD6
:100910003F4B0000FFFF00FF4BFF0000000000FF07
:100920003F4BFF000000FF003F3F3F3F3F3F3F3F47
:100930005B5B5B5252523F3FADADAD0000524A3F50
:10094000FFFF000000004B3FFF00000000004B3F96
:10095000FF0000FFFF004B3FFF00000000004A3691
:1009600000FF000000FF4A363F4BFFFFFFFFFFFF85
:100970003F4B000052FF52FF3F4BAD5200000000C2
:100980003F4B52AD5BFF52FF364B525252ADADADB5
:10099000363600525252525236364B3F3F4A4A4A3E
:1009A0001B1B1B4B4B1B1B1BFFFFFFFFFFFF4A3695
:1009B000FF52FF5200004A360000000052AD4B3695
:1009C000FF52FF5BAD52364BADADAD525252364B7E
:1009D0005252525252004B364A4A4A4A4A363636E8
:1009E0001B1B1B1B1B1B1B1B00000000000000002F
:1009F00000000000000000000000000000000000F7
:100A000000000000000000000000000000000000E6
:100A100000000000000000000000000000000000D6
:100A2000000000000000000003540C8282828282D9
:100A300056828289898989890C8289D1D1D1D1D183
:100A40008289D189FFFFFFFF8289D1FF8989898946
:100A50008289D1FF8989FFE38289D1FF89FFFF89DC
:100A60008289D1FF89E3898282828282820C540347
:100A70008989898989828256D1D1D1D1D189820C43
:100A8000FFFFFFFF89D1898289898989FFD1898206
:100A9000E3FF8989FFD1898289FFFF89FFD189829C
:100AA0008289E389FFD189828289E389FFD18982A2
:100AB0008289E389FFD1FF898289E389FF89D1D1C6
:100AC0008289E389D1FFFFFF8289E3898989898946
:100AD000008289E3E3E3E3E30082828989898989EB
:100AE00000000082828282828289D1FF89E389822A
:100AF00089FFD1FF89E38982D1D189FF89E3898286
:100B0000FFFFFFD189E389828989898989E3898205
:100B1000E3E3E3E3E38982008989898989828200AA
:100B200082828282820000008289D1FF89E38982E9
:100B30008289D1FF89E389828289D1FF89E3898211
:100B40008289D1FF89E389828289D1FF89E3898201
:100B50008289D1FF89E389828289D1FF89E38982F1
:100B60008289D1FF89E389828289E389FFD18982E1
:100B70008289E389FFD189828289E389FFD18982D1
:100B80008289E389FFD189828289E389FFD18982C1
:100B90008289E389FFD189828289E389FFD18982B1
:100BA0008289E389FFD189828282828282828282E3
:100BB0008989898989898989D1D1D1D1D1D1D1D165
:100BC000FFFFFFFFFFFFFFFF8989898989898989E5
:100BD000E3E3E3E3E3E3E3E38989898989898989B5
:100BE0008282828282828282020B135454540303D3
:100BF000550B090B0A0B020C025D540B54020C0C32
:100C00000C0B0C0B540B0D0D0C0B0B0A0A0B565551
:100C1000540C0B545D660B540B540B0B1454010B0A
:100C2000540B5553545309090D020A5D010101018A
:100C30000C550A0A0B0201010B0C0B1354020201A2
:100C4000550B02540B0303020A0B0B0A0A020202A1
:100C50000A550A530102040353550B0B0A020303FE
:100C600054020B0A0A03030354550B0B5401530A95
:100C70000B0B555D13535C530B540A530A535354D7
:100C8000540A53530B145C0A550B0B0A0C0B5454A7
:100C9000020B0B550C0254540B0B0254030C540A58
:100CA0000C0D55020B0A530B0B0B5E0A0B0D0302C6
:100CB0000B020C0B0B030D0201560D0C0B0B0C025F
:100CC000550D0C030B550B0B0C0355020C0B0203BB
:100CD0004D0B0202550B020B0B0C020B140B0C03F9
:100CE0000B0B02030B02020202030D03020C0B0B9F
:100CF0000B0C020C0B0B55540C0C0D040C020B547A
:100D000002550D0C0B55540B0B020D55020D0B0A21
:100D1000560202020C550B0A0B0B140C0C54540A0D
:100D20000C024C0B0B540B540B0B0303030303017A
:100D300002030C0C030B030C5D5503030C0C0B544A
:100D4000540B0C0B0B0B020A5454035654020A0B9F
:100D500056020C0C020A0A0A0A0C0D020A530A0176
:100D60005502030B0A5309010B530B0A020B0A0B22
:100D7000010A5353030A0A5D0A540A0A0201535333
:100D800001010A0A0B0B0A020A0B0B5C0B0A0A0A86
:100D90000A0B0B0A0B0B0A01020B0B0B0A0B0A0BBB
:100DA000020A0A0113530A0A0B020C0A0A5302022E
:100DB000550E020A5354010B0B02030A0A010B0CD5
:100DC00002020C0101020B0203030302020C0203E4
:100DD0000D0C0C0B020B01020B0302030A0A0A544E
:100DE00002030203010B0B0A000000004080808018
:100DF0000000004080C8C8C800004080D1E0E0E0AA
:100E0000004080D1F00000004080D1F000000000E0
:100E100080C8E0000000F0F080C8E0000000E000C2
:100E200080C8E0000000000080804000000000005A
:100E3000C8C8804000000000E0E0D1804000000011
:100E40000000F0D180400000000000F0D1804000A0
:100E500000000000E0C8800000000000E0C8800042
:100E600000000000E0C8800000000000000080805A
:100E7000000000000080C8C80000000080C8E0E05A
:100E800000000080C8E00000000080C8E000000012
:100E90000080C8E0000000000080C8E00000000002
:100EA000000080C8E0E000008000000000000000BA
:100EB000C880000000000000E0C8800000000000C2
:100EC00000E0C8800000000000E0C88000000000D2
:100ED00000E0C8800000000000E0C88000000000C2
:100EE00000E0C880000000000000000080808080DA
:100EF00000000080C8C8C8C8000080C8E0E0E0E08A
:100F00000080C8E00000000080C8E0000000000091
:100F100080C8E0000000F0F00080C8E0E0F0F0F0F1
:100F20000080C8E000000000808040000000000059
:100F3000C8C8804000000000E0E0D1804000000010
:100F40000000F0D180400000000000F0D18040009F
:100F5000F0000000E0C88000F0000000E0C8800061
:100F6000000000F0D1804000000000808080808080
:100F7000000080C8C8C8C8C80080C8E0E0E0E0E061
:100F800080C8E0000000000080C8E0000000000011
:100F90004080D1F0F0F0F0F0004080D1D1E00000CE
:100FA000000080C8C8E00000808080800000000051
:100FB000C8C8C8C880000000E0E0E0E0C8800000C9
:100FC00000000000E0C8800000000000E0C88000D1
:100FD000F0000000E0C88000000000F0D180400078
:100FE000000000E0C8800000000000808080000059
:100FF000000080C8C8C880400080C8E0E0E0C88029
:1010000080C8E0000000E0D180C8E0000000E0D12E
:1010100080C8E0000000E0D180C8E0000000F0F0EF
:1010200080C8E00000000000408080400000000018
:1010300080C8C88040000000D1E0E0D180400000BE
:10104000F00000F0D1804000F00000F0D1804000BE
:10105000F00000F0D1804000F00000F0D1804000AE
:1010600000000000E0C880000000008080808080D8
:10107000000080C8C8C8C8C80080C8E0E0E0E0E060
:1010800080C8E0000000000080C8E0000000000010
:1010900080C8E0000000F0F080C8E0000000F0F040
:1010A00080C8E00000000000808080800000000018
:1010B000C8C8C8C880000000E0E0E0E0C8800000C8
:1010C00000000000E0C8800000000000E0C88000D0
:1010D000F0F0F0F0D1804000F0F0E0D1804000006E
:1010E000000000E0C8800000000000004080808018
:1010F0000000004080C8C8C800004080D1E0E0E0A7
:10110000004080D1F00000004080D1F000000000DD
:1011100080C8E0000000F0F080C8E0000000F0F0BF
:1011200080C8E00000000000000000808080808017
:10113000000080C8C8C8C8C80080C8E0E0E0E0E09F
:1011400080C8E0000000000080C8E000000000004F
:101150004080D1F0F0F0F0F0004080D1D1D1D1F05A
:101160000000408080D1F00080808080000000007E
:10117000C8C8C8C880000000E0E0E0E0C880000007
:1011800000000000E0C8800000000000E0C880000F
:10119000F0000000E0C88000000000E0C88000000F
:1011A0000000E0C880000000000000004080808057
:1011B0000000004080C8C8C800004080D1E0E0E0E6
:1011C000004080D1F00000004080D1F0000000001D
:1011D00080C8E0000000F0F080C8E0000000F0F0FF
:1011E0000080C8E000000000808040000000000097
:1011F000C8C8804000000000E0E0D180400000004E
:101200000000F0D180400000000000F0D1804000DC
:10121000F0000000E0C88000F0000000E0C880009E
:10122000000000E0C88000000000000040808080D6
:101230000000004080C8C8C800004080D1E0E0E065
:10124000004080D1F00000004080D1F0000000009C
:1012500080C8E0000000F0F080C8E0000000F0F07E
:101260004080D1F0000000008080400000000000BD
:10127000C8C8804000000000E0E0D18040000000CD
:101280000000F0D180400000000000F0D18040005C
:10129000F0000000E0C88000F0000000E0C880001E
:1012A00000000000E0C8800080C8E00000000000EE
:1012B00080C8E000000000F080C8E00000000000EE
:1012C0000080C8E000000000000080C8E0F0F0F0FE
:1012D00000000080C8D1D1D1000000008080808053
:1012E0000000000000404040F0000000E0C8800026
:1012F000E0000000E0C8800000000000E0C88000BE
:10130000000000E0C8800000F0F0E0C880000000AD
:10131000D1D1C88000000000808080000000000063
:10132000404000000000000000000080C8E0000015
:10133000000080C8E0E000000080C8E0000000007D
:101340000080C8E000000000004080D1F0F0F0F024
:1013500000004080D1D1D1D1000000408080808049
:10136000000000004040404000E0C8800000000055
:1013700000E0E0C880000000000000E0C88000003D
:10138000000000E0C8800000F0F0F0D180400000D4
:10139000D1D1D1804000000080808040000000005A
:1013A000404040000000000080C8E0000000000055
:1013B00080C8E0000000E0E080C8E000000000001D
:1013C00080C8E000000000004080D1F0F0F0F0F0B4
:1013D000004080D1D1D1D1D1000040808080808078
:1013E00000000040404040400000F0D1804000003C
:1013F000E0E0E0E0C880000000000000E0C88000FD
:1014000000000000E0C88000F0F0F0F0D180400063
:10141000D1D1D1D180400000808080804000000088
:1014200040404040000000000080C8E0E0D1F0F003
:1014300080C8E00000F0E0E080C8E00000000000AC
:101440004080D1F000000000004080D1F0F0F0F0CA
:1014500000004080D1D1D1D1000000408080808048
:10146000000000004040404080C8E0000000000054
:101470000080C8E0E0E0E0E0000080C8C8C8C8D153
:1014800000000080808080D100000000000080C843
:1014900000000000000000800000000000000000CC
:1014A000000000000000000000000000E0C8800014
:1014B000F00000F0D1804000F00000F0D18040004A
:1014C000F00000F0D1804000E0F0F0E0C8800000C3
:1014D000C8D1D1C88000000080808080000000005A
:1014E000004040000000000080C8E0000000000054
:1014F0000080C8E0E0E0E0E080C8E000000000001C
:1015000080C8E000000000004080D1F0F0F0F0F072
:10151000004080D1D1D1D1D1000040808080808036
:10152000000000404040404000000000E0C8800053
:10153000E0000000E0C8800000000000E0C880007B
:10154000000000E0C8800000F0F0E0C8800000006B
:10155000D1D1C88000000000808080000000000021
:10156000404000000000000080C8E00000000000D3
:1015700080C8E0000000E0E080C8E000000000005B
:101580000080C8E000000000000080C8E0F0F0F03B
:1015900000000080C8D1D1D1000000008080808090
:1015A000000000000040404000000080C8E0000053
:1015B00000000080C8E0000000000080C8E00000DB
:1015C00000000080C8E000000000004080D1F0F082
:1015D000000000004080D1D1000000000040808069
:1015E000000000000000404000E0C8800000000053
:1015F00000E0C8800000000000E0C880000000009B
:1016000000E0C88000000000F0D180400000000031
:10161000D180400000000000804000000000000079
:1016200040000000000000004080D1F000000000F9
:1016300080C8E0000000E0E080C8E000000000009A
:101640000080C8E000000000000080C8E0F0F0F07A
:1016500000000080C8D1D1D10000000080808080CF
:101660000000000000404040000000F0D180400039
:10167000E0000000E0C8800000000000E0C880003A
:10168000000000E0C8800000F0F0E0C8800000002A
:10169000D1D1C880000000008080800000000000E0
:1016A0004040000000000000004080D1F000000039
:1016B0000080C8E0E0E0E0E080C8E000000000005A
:1016C00080C8E000000000004080D1F0F0F0F0F0B1
:1016D000004080D1D1D1D1D1000040808080808075
:1016E00000000040404040400000000040808080FA
:1016F0000000004080C8C8C800004080D1E0E0E0A1
:10170000004080D1F00000004080D1F000000000D7
:1017100080C8E0000000F0F080C8E0000000E0D1E8
:1017200080C8E0000000E0C88080808000000000E9
:10173000C8C8C8C880000000E0E0E0E0C880000041
:1017400000000000E0C8800000000000E0C8800049
:10175000F0F0F0F0D1804000D1D1D1D18040000034
:1017600080808080400000000000008080808080B9
:10177000000080C8C8C8C8C80080C8E0E0E0E0E059
:1017800080C8E0000000000080C8E0000000000009
:1017900080C8E0000000F0F080C8E0000000E0D168
:1017A00080C8E0000000E0C8808040000000000029
:1017B000C8C8804000000000E0E0D1804000000088
:1017C0000000F0D180400000000000F0D180400017
:1017D000F0000000E0C88000E0000000E0C88000E9
:1017E000E0000000E0C880008080808000000000F1
:1017F000C8C8C8C880000000E0E0E0E0C880000081
:1018000000000000E0C8800000000000E0C8800088
:10181000F0F0F0F0D1804000F0F0F0D18040000016
:10182000000000E0C88000000000000040808080D0
:101830000000004080C8C8C800004080D1E0E0E05F
:10184000004080D1F00000004080D1F00000000096
:1018500080C8E0000000F0F080C8E0000000E0E098
:1018600080C8E0000000E0F0808080800000000080
:10187000C8C8C8C880000000E0E0E0E0C880000000
:1018800000000000E0C8800000000000E0C8800008
:10189000F0F0F0F0D1804000F0F0F0F0D1804000A6
:1018A00000000000E0C88000000000808080000090
:1018B000000080C8C8C880000080C8E0E0E0C880A0
:1018C00080C8E0000000E0C880C8E0000000E0C878
:1018D00080C8E0000000E0D180C8E0000000F0F027
:1018E00080C8E00000000000008080800000000050
:1018F00080C8C8C880000000C8E0E0E0C8800000E0
:10190000E0000000E0C88000E0000000E0C88000C7
:10191000E0000000E0C88000F0000000E0C88000A7
:1019200000000000E0C8800000000040808080804F
:1019300000004080C8C8C8C8004080D1E0E0E0E0B6
:101940004080D1F0000000004080D1F00000000095
:101950000080C8E0F0F00000000080C8D1E0000086
:1019600000000080C8E0000080808040000000008F
:10197000C8C8C88040000000E0E0E0D1804000001E
:10198000000000F0D1804000000000F0D180400055
:1019900000F0F0E0C880000000E0D1C88000000046
:1019A00000E0C8800000000000000000000000000F
:1019B00000000000000000000000000000000080A7
:1019C00000000000000080C800000000000080C887
:1019D00000000040404080C800004080808080C8F7
:1019E000004080D1D1D180C80080808000000000FC
:1019F00080C8C8C880000000C8E0E0E0C8800000DF
:101A0000E0000000E0C88000E0000000E0C88000C6
:101A1000E0000000E0C88000E0000000E0C88000B6
:101A2000E0000000E0C8800080C8E0000000000086
:101A300080C8E0000000E0E080C8E0000000E0C8EE
:101A400080C8E0000000E0C84080D1F0F0F0D18014
:101A5000004080D1D1D18040000040808080400093
:101A6000000000404040000000000000E0C880008E
:101A7000E0000000E0C88000E0000000E0C8800056
:101A8000E0000000E0C88000D1F0F0F0D18040001C
:101A900080D1D1D180400000408080804000000093
:101AA000004040400000000080C8E0000000E0C8A6
:101AB00080C8E0000000E0E080C8E0000000000016
:101AC0000080C8E000000000000080C8E0F0F0F0F6
:101AD00000000080C8D1D1D100000000808080804B
:101AE0000000000000404040C8C8C8C88000000096
:101AF000E0E0E0E0C880000000000000E0C88000F6
:101B000000000000E0C88000F0F0F0F0D18040005C
:101B1000D1D1D1D180400000808080804000000081
:101B2000404040400000000080C8E0000000E0C8E5
:101B300080C8E0000000E0E080C8E0000000000095
:101B400080C8E000000000004080D1F0F0F0F0F02C
:101B5000004080D1D1D1D1D10000408080808080F0
:101B60000000004040404040E0000000E0C880002D
:101B7000E0000000E0C8800000000000E0C8800035
:101B8000000000E0C8800000F0F0E0C88000000025
:101B9000D1D1C880000000008080800000000000DB
:101BA0004040000000000000000000E0C88000008D
:101BB000E0E0E0E0C880000000000000E0C8800035
:101BC00000000000E0C88000F0F0F0F0D18040009C
:101BD000D1D1D1D1804000008080808040000000C1
:101BE0004040404000000000000000E0C8800000CD
:101BF000E0E0E0C880000000C8C8C8800000000025
:101C00008080800000000000400000000000000014
:101C100000000000000000000000000000000000C4
:101C2000000000000000000080C8E0000000E0F0BC
:101C300080C8E0000000E0E080C8E0000000000094
:101C40000080C8E000000000000080C8E0F0F0F074
:101C500000000080C8D1D1D10000000080808080C9
:101C6000000000000040404000000000E0C880008C
:101C7000E0000000E0C8800000000000E0C8800034
:101C800000000000E0C88000F0F0F0F0D1804000DB
:101C9000D1D1D1D180400000808080804000000000
:101CA000404040400000000000004080C8E00000CC
:101CB000004080D1E0E000004080D1F00000000052
:101CC0004080D1F0000000000080C8E0F0F0F0F0AB
:101CD000000080C8D1D1D1D10000008080808080F8
:101CE000000000004040404000E0C880400000008C
:101CF00000E0E0D180400000000000F0D180400012
:101D0000000000F0D1804000F0F0F0E0C88000005A
:101D1000D1D1D1C880000000808080800000000008
:101D200040404000000000004080D1F0F0F0D1C8F9
:101D300080C8E0000000E0E080C8E0000000000093
:101D40000080C8E000000000000080C8E0F0F0F073
:101D500000000080C8D1D1D10000000080808080C8
:101D60000000000000404040000000808080000033
:101D7000000080C8C8C880000080C8E0E0E0C880DB
:101D800080C8E0000000E0C880C8E0000000E0E09B
:101D900080C8E0000000E00080C8E0000000000013
:101DA00080C8E0000000000000808080000000008B
:101DB00080C8C8C880000000C8E0E0E0C88000001B
:101DC000E0000000E0C88000000000F0D18040008A
:101DD0000000F0D18040000000F0D1804000000001
:101DE000F0D18040000000000000008080800000F2
:101DF000000080C8C8C880000080C8E0E0E0C8805B
:101E000080C8E0000000E0C880C8E0000000E0C832
:101E100080C8E0000000E0C880C8E0000000E0C822
:101E200080C8E0000000E0C80000000000000000E2
:101E300000000000000000000000000000000000A2
:101E40008000000000000000800000000000000092
:101E50008000000000000000800000000000000082
:101E600080808080000000000000008080800000F2
:101E7000000080C8C8C880000080C8E0E0E0C880DA
:101E800080C8E0000000E0C880C8E000000000E07A
:101E900080C8E0000000000080C8E00000000000F2
:101EA00080C8E0000000F00000808080000000009A
:101EB00080C8C8C880000000C8E0E0E0C88000001A
:101EC000E0000000E0C8800000000000E0C88000E2
:101ED00000000000E0C8800000000000E0C88000B2
:101EE000F0000000E0C8800000808080000000005A
:101EF00080C8C8C880000000C8E0E0E0C8800000DA
:101F0000E0000000E0C88000E0000000E0C88000C1
:101F1000E0000000E0C8800000000000E0C8800091
:101F200000000000E0C88000808080000000000009
:101F3000C8C8C88000000000E0E0E0C880000000E1
:101F4000000000E0C880000000000000E0C8800041
:101F5000F0000000E0C88000F0F0E0E0C880000081
:101F6000000000E0C88000000000008080808080C9
:101F7000000080C8C8C8C8C80080C8E0E0E0E0E051
:101F800080C8E0000000000080C8E0000000000001
:101F90004080D1F0F0F00000004080D1D1E000009E
:101FA00000004080C8E000008080808000000000C9
:101FB000C8C8C8C880000000E0E0E0E0C8800000B9
:101FC00000000000E0C8800000000000E0C88000C1
:101FD00000F0F0F0D180400000E0D1D1804000005E
:101FE00000E0C8804000000080C8E0000000000061
:101FF00080C8E0000000F00080C8E0000000E0F0D1
:1020000080C8E0000000E0D14080D1F0F0F0D18045
:10201000004080D1D1D180400000408080804000CD
:10202000000000404040000000E0C88000000000C8
:102030000000E0C880000000000000E0C880000050
:10204000F0000000E0C88000D1F0F0F0D180400046
:1020500080D1D1D1804000004080808040000000CD
:10206000004040400000000080C8E0000000E0F0B8
:1020700080C8E0000000E0D180C8E0000000E0C8B7
:1020800080C8E0000000E0C84080D1F0F0F0D180CE
:10209000004080D1D1D1804000004080808040004D
:1020A0000000004040400000E0000000E0C8800068
:1020B000E0000000E0C88000E0000000E0C8800010
:1020C000E0000000E0C88000D1F0F0F0D1804000D6
:1020D00080D1D1D18040000040808080400000004D
:1020E000004040400000000000000000E0C8800008
:1020F000F0000000E0C88000E0000000E0C88000C0
:10210000E0000000E0C88000D1F0F0F0D180400095
:1021100080D1D1D18040000040808080400000000C
:1021200000404040000000000000F0D1804000006E
:10213000E0E0D18040000000C8C8804000000000FE
:10214000808040000000000040000000000000000F
:10215000000000000000000000000000000000007F
:10216000000000000000000080C8E0000000E0E087
:1021700080C8E0000000E0F080C8E000000000003F
:102180000080C8E000000000000080C8E0F0F0F02F
:1021900000000080C8D1D1D1000000008080808084
:1021A0000000000000404040F0000000E0C8800057
:1021B00000000000E0C8800000000000E0C88000CF
:1021C00000000000E0C88000F0F0F0F0D180400096
:1021D000D1D1D1D1804000008080808040000000BB
:1021E00040404040000000000000F0D1804000006E
:1021F0000000E0C880000000000000E0C88000008F
:10220000F0000000E0C88000D1F0F0F0D180400084
:1022100080D1D1D18040000040808080400000000B
:102220000040404000000000004080D1F00000006D
:102230004080D1F0F0F0E0E080C8E0000000000055
:102240004080D1F000000000004080D1F0F0F0F0BC
:1022500000004080D1D1D1D100000040808080803A
:1022600000000000404040400000008080800000EE
:10227000000080C8C8C880000080C8E0E0E0C880D6
:1022800080C8E0000000E0C880C8E0000000E0C8AE
:1022900080C8E0000000E0C880C8E0000000E0E086
:1022A00080C8E0000000E000000000808000000026
:1022B000000080C8C88000000080C8E0E0C880003E
:1022C00080C8E00000E0C88080C8E0000000E0C8EE
:1022D0004080D1F0000000E0004080D1F00000001C
:1022E00000004080D1F0000000008080000000006D
:1022F0000080C8C88000000080C8E0E0C8800000FE
:10230000C8E00000E0C88000E0000000E0C88000F5
:10231000000000F0D18040000000F0D180400000BB
:1023200000F0D180400000000000008080400000EC
:10233000000080C8C88040000080C8E0E0D1804034
:1023400080C8E00000F0D18080C8E0000000F0D13B
:102350000080C8E0000000F0000080C8E00000003D
:1023600000000080C8E00000004080800000000005
:102370004080C8C88000000080D1E0E0C880000034
:10238000D1F00000E0C88000F0000000E0C880004C
:10239000000000E0C88000000000E0C880000000ED
:1023A00000E0C88000000000000000808080808085
:1023B000000080C8C8C8C8C80080C8E0E0E0E0E00D
:1023C00080C8E0000000000080C8E00000000000BD
:1023D0004080D1F0F0F0F0F0004080D1D1D1E000A9
:1023E00000004080C8E00000808080800000000085
:1023F000C8C8C8C880000000E0E0E0E0C880000075
:1024000000000000E0C8800000000000E0C880007C
:10241000000000F0D18040000000F0D180400000BA
:1024200000F0D1804000000000000000000080802B
:10243000000000000080C8C80000000080C8E0E084
:1024400000000080C8E0000000000080C8E000003C
:1024500000000080C8E0000000000080C8E000002C
:1024600000000080C8E00000000000000000408084
:1024700000000000004080C8000000004080D1E063
:102480000000004080D1F00000004080D1F000004A
:1024900000004080D1F0000000004080D1F000003A
:1024A00000004080D1F000008080000000000000AB
:1024B000C8C8800000000000E0E0C8800000000004
:1024C0000000E0C8800000000000E0C880000000BC
:1024D000F0F0D18040000000F0D18040000000000A
:1024E000F0D180400000000000000000808080806B
:1024F00000000080C8C8C8C8000080C8E0E0E0E074
:102500000080C8E00000000080C8E000000000007B
:1025100080C8E0000000F0F00080C8E0E0E0E0F0FB
:10252000000080C8C8E0000000000000008080803B
:102530000000000080C8C8C800000080C8E0E0E0DB
:10254000000080C8E0000000000080C8E00000003B
:1025500000004080D1F0F0000000004080D1F00089
:102560000000004080D1F0004000000000000000AA
:102570008040000000000000D1804000000000000A
:10258000F0D180400000000000F0D1804000000049
:1025900000F0D1804000000000F0D1804000000039
:1025A00000F0D1804000000080C8E0000000E0C8DA
:1025B0004080D1F0000000E0004080D1F000000039
:1025C00000004080D1F000000000004080D1F0F019
:1025D000000000004080D1D1000000000040808059
:1025E0000000000000004040E0000000E0C8800063
:1025F000000000F0D18040000000F0D180400000D9
:1026000000F0D18040000000F0D1804000000000C8
:10261000D180400000000000804000000000000069
:10262000400000000000000080C8E0000000000042
:1026300080C8E0000000000080C8E000000000F05A
:1026400080C8E0000000F0D14080D1F0F0F0D180EF
:10265000004080D1D1D18040000040808080400087
:10266000000000404040000000000000E0C8800082
:1026700000000000E0C8800000000000E0C880000A
:10268000F0000000E0C88000D1F0F0F0D180400000
:1026900080D1D1D180400000408080804000000087
:1026A0000040404000000000000080C8E000000042
:1026B0000080C8E0000000F080C8E0000000F0D119
:1026C00080C8E00000F0D1804080D1F0F0D180409F
:1026D000004080D1D1804000000040808040000058
:1026E00000000040400000000000E0C88000000042
:1026F000000000E0C8800000F0000000E0C880009A
:10270000D1F00000E0C8800080D1F0F0D18040001E
:102710004080D1D180400000004080804000000017
:102720000000404000000000000080C8E000000001
:102730000080C8E0000000F080C8E0000000000059
:1027400080C8E000000000004080D1F0F0F0F0F020
:10275000004080D1D1D1D1D10000408080808080E4
:102760000000004040404040F0D1C8C88000000058
:10277000E0E0E0E0C880000000000000E0C8800069
:1027800000000000E0C88000F0F0F0F0D1804000D0
:10279000D1D1D1D1804000008080808040000000F5
:1027A000404040400000000000000080C8E0E0E041
:1027B00000000080C8E0000000000080C8E00000C9
:1027C00000000080C8E000000000004080D1F0F070
:1027D000000000004080D1D1000000000040808057
:1027E0000000000000004040E0E0C8800000000061
:1027F00000E0C8800000000000E0C8800000000089
:1028000000E0C88000000000F0D18040000000001F
:10281000D180400000000000804000000000000067
:10282000400000000000000000004080D1F00000E7
:1028300000004080D1F0000000004080D1F0000096
:1028400000000080C8E000000000000080C8E0F048
:10285000000000000080C8D100000000000080805F
:102860000000000000000040F0D1804000000000A7
:10287000F0E0C880000000000000E0C88000000018
:102880000000E0C880000000F0F0D18040000000AF
:10289000D1D1804000000000808040000000000096
:1028A000404000000000000000004080D1F0000027
:1028B00000004080D1F0E0E000004080D1F0000056
:1028C00000004080D1F0000000000080C8E0F0F07F
:1028D0000000000080C8D1D100000000008080808E
:1028E00000000000000040400000F0D180400000E7
:1028F000F0E0D18040000000F0D1804000000000F6
:10290000F0D1804000000000E0C88000000000001E
:10291000C8800000000000008000000000000000EF
:1029200000000000000000000000004080D1F00026
:1029300000000080C8E0F000000080C8E000000057
:10294000000080C8E000000000004080D1F0F0F0FE
:102950000000004080D1D1D1000000004080808084
:10296000000000000040404000F0D1804000000026
:1029700000F0D1804000000000F0D1804000000055
:1029800000E0C88000000000E0C8800000000000F7
:10299000C88000000000000080000000000000006F
:1029A0000000000000000000000000000000000027
:1029B0000000000000000000000000000000000017
:1029C000000000000000243F0000000000243F0041
:1029D00000000000243F00FF000000243F00FFFF34
:1029E0000000243F00FFFFFF0000000000243F3FE5
:1029F0000000243F3F3F0000243F3F000000FFFF56
:102A00003F0000FFFFFFFFFF00FFFFFFFFFFFFFF93
:102A1000FFFFFFFFFFFFFFFFFFFFFFFFFFFFFFFFC6
:102A2000FFFFFFFFFFFFFFFF3F3F3F3F3F3F3F3FB6
:102A30000000000000000000FFFFFFFFFFFFFFFF9E
:102A4000FFFFFFFFFFFFFFFFFFFFFFFFFFFFFFFF96
:102A5000FFFFFFFFFFFFFFFFFFFFFFFFFFFFFFFF86
:102A6000FFFFFFFFFFFFFFFF3F3F240000000000CC
:102A700000003F3F3F240000FFFF0000003F3F24D5
:102A8000FFFFFFFFFF00003FFFFFFFFFFFFFFF0013
:102A9000FFFFFFFFFFFFFFFFFFFFFFFFFFFFFFFF46
:102AA000FFFFFFFFFFFFFFFF00000000000000002E
:102AB0000000000000000000000000000000000016
:102AC0003F24000000000000003F24000000000040
:102AD000FF003F2400000000FFFF003F2400000033
:102AE000FFFFFF003F2400003F3F240000000000E4
:102AF00000003F3F24000000FFFF00003F240000D3
:102B0000FFFFFFFF003F2400FFFFFFFFFF003F002C
:102B1000FFFFFFFFFF003F24FFFFFFFFFFFF003F1E
:102B2000FFFFFFFFFFFF003F2C3F3F3F3F3F3F3F87
:102B30003F000000000000003F00ADFFFFFFFFFF6F
:102B40003F00FFFFFFFFFFFF3F00FFFFFFFFFFFF13
:102B50003F00FFFFFFFFFFFF3F00FFFFFFFFFFFF03
:102B60003F00FFFFFFFFFFFF3F3F3F3F3F3F3F2C47
:102B7000000000000000003FFFFFFFFFFFAD003F2F
:102B8000FFFFFFFFFFFF003FFFFFFFFFFFFF003FD3
:102B9000FFFFFFFFFFFF003FFFFFFFFFFFFF003FC3
:102BA000FFFFFFFFFFFF003F00243F00FFFFFFFF8D
:102BB000003F00FFFFFFFFFF243F00FFFFFFFFFF7D
:102BC0003F00FFFFFFFFFFFF3F00FFFFFFFFFFFF93
:102BD0003F00FFFFFFFFFFFF3F00FFFFFFFFFFFF83
:102BE0003F00FFFFFFFFFFFFFFFFFFFFFFFFFFFFB4
:102BF000FFFFFFFFFFFFFFFFFFFFFFFFFFFFFFFFE5
:102C0000FFFFFFFFFFFFFFFFFFFFFFFFFFFFFFFFD4
:102C1000FFFFFFFFFFFFFFFFFFFFFFFFFFFFFFFFC4
:102C2000FFFFFFFFFFFFFFFFFFFFFFFF003F24004D
:102C3000FFFFFFFFFF003F00FFFFFFFFFF003F24FC
:102C4000FFFFFFFFFFFF003FFFFFFFFFFFFF003F12
:102C5000FFFFFFFFFFFF003FFFFFFFFFFFFF003F02
:102C6000FFFFFFFFFFFF003FFFFFFFFFFFFFFFFF33
:102C7000FFFFFFFFFFFFFFFFFFFFFFFFFFFFFFFF64
:102C8000FFFFFFFFFFFFFFFFFFFF0000000000004E
:102C9000FF002C3F3F3F3F3F00003F2C0000000063
:102CA00000003F2C00000000FFFFFFFFFFFF003F80
:102CB000FFFFFFFFFFFF003FFFFFFFFFFFFF003FA2
:102CC000FFFFFFFFFFAD003F000000000000003FDE
:102CD0003F3F3F3F3F3F3F2C00000000000000000F
:102CE00000000000000000003F00FFFFFFFFFFFFAB
:102CF0003F00FFFFFFFFFFFF3F00FFFFFFFFFFFF62
:102D00003F00ADFFFFFFFFFF3F000000000000009D
:102D10002C3F3F3F3F3F3F3F0000000000000000CE
:102D20000000000000000000FFFFFFFFFFFFFFFFAB
:102D3000FFFFFFFFFFFFFFFFFFFFFFFFFFFFFFFFA3
:102D4000FFFFFFFFFFFFFFFF0000FFFFFFFFFFFF91
:102D50003F00FFFFFFFFFFFF3F00FFFFFFFFFFFF01
:102D60003F00FFFFFFFFFFFFFFFFFFFFFFFFFFFF32
:102D7000FFFFFFFFFFFFFFFFFFFFFFFFFFFFFFFF63
:102D8000FFFFFFFFFFFFFFFFFFFFFFFFFFFF000051
:102D9000FFFFFFFFFFFF003FFFFFFFFFFFFF003FC1
:102DA000FFFFFFFFFFFF003F3F00FFFFFFFFFFFFB1
:102DB0003F00FFFFFFFFFFFF3F00FFFFFFFFFFFFA1
:102DC0003F00FFFFFFFFFFFF3F00FFFFFFFFFFFF91
:102DD0003F00FFFFFFFFFFFF3F00FFFFFFFFFFFF81
:102DE0003F00FFFFFFFFFFFFFFFFFFFFFFFF003F71
:102DF000FFFFFFFFFFFF003FFFFFFFFFFFFF003F61
:102E0000FFFFFFFFFFFF003FFFFFFFFFFFFF003F50
:102E1000FFFFFFFFFFFF003FFFFFFFFFFFFF003F40
:102E2000FFFFFFFFFFFF003F3F00FFFFFFFFFFFF30
:102E30003F00FFFFFFFFFFFF243F00FFFFFFFFFFFB
:102E4000003F00FFFFFFFFFF00243F00FFFFFFFFE9
:102E500000003F00FFFFFFFF0000243F00FFFFFFD7
:102E6000000000243F00FFFFFFFFFFFFFFFFFFFF09
:102E7000FFFFFFFFFFFFFFFFFFFFFFFFFFFFFFFF62
:102E8000FFFFFFFFFFFFFFFFFFFFFFFFFFFFFFFF52
:102E9000FFFFFFFFFFFFFFFFFFFFFFFFFFFFFFFF42
:102EA0000000000000000000FF002C3F3F3F3F3FBC
:102EB000FFFF000000000000FFFFFFFFFFFFFFFF1C
:102EC000FFFFFFFFFFFFFFFFFFFFFFFFFFFFFFFF12
:102ED000FFFFFFFFFFFFFFFFFFFFFFFFFFFFFFFF02
:102EE000FFFFFFFFFFFFFFFF0000000000000000EA
:102EF00000000000000000000000000000000000D2
:102F000000000000000000000000000000000000C1
:102F100000000000000000000000000000000000B1
:102F20000000000000000000FFFFFFFFFFFF003F68
:102F3000FFFFFFFFFFFF003FFFFFFFFFFF003F24FA
:102F4000FFFFFFFFFF003F00FFFFFFFF003F2400E8
:102F5000FFFFFFFF003F0000FFFFFF003F240000D6
:102F6000FFFF003F24000000FFFFFFFFFFFFFFFF08
:102F7000FFFFFFFFFFFFFFFFFFFFFFFFFFFFFFFF61
:102F8000FFFFFFFFFFFFFFFFFFFFFFFFFFFFFFFF51
:102F9000FFFFFFFFFFFF0000FFFFFFFFFFFF003FFE
:102FA000FFFFFFFFFFFF003FFFFFFFFFFFFFFFFFF0
:102FB000FFFFFFFFFFFFFFFFFFFFFFFFFFFFFFFF21
:102FC000FFFFFFFFFFFFFFFFFFFFFFFFFFFFFFFF11
:102FD00000000000000000003F3F3F3F3F3F3F3FF9
:102FE0000000000000000000FFFFFFFFFFFFFFFFE9
:102FF000FFFFFFFFFFFFFFFFFFFFFFFFFFFFFFFFE1
:10300000FFFFFFFFFFFFFFFFFFFFFFFFFFFFFFFFD0
:103010000000FFFFFFFFFFFF3F00FFFFFFFFFFFF7D
:103020003F00FFFFFFFFFFFF000000003F3F0000E9
:1030300000000000243F3F3F0000000000000000AF
:103040000000000000000000000000000000000080
:103050000000000000000000000000000000000070
:10306000000000000000000000FFFFFFFFFFFFFF67
:10307000FFFFFFFFFFFFFFFFFFFFFFFFFFFFFFFF60
:10308000FFFFFFFFFFFFFFFFFFFFFFFFFFFFFFFF50
:10309000FFFFFFFFFFFFFFFFFFFFFFFFFFFFFFFF40
:1030A000FFFFFFFFFFFFFFFFFFFFFFFFFFFFFFFF30
:1030B000FFFFFFFFFFFFFFFFFFFFFFFFFFFFFFFF20
:1030C000FFFFFFFFFFFFFFFFFFFFFFFFFFFFFFFF10
:1030D000FFFFFFFFFFFFFF00FFFFFFFFFFFF003FBE
:1030E000FFFFFFFFFFFF003FFFFFFFFFFFFFFFFFAF
:1030F000FFFFFFFFFFFFFFFFFFFFFFFFFFFFFFFFE0
:10310000FFFFFFFFFFFFFFFFFFFFFFFFFFFFFFFFCF
:10311000FFFFFFFFFFFFFFFF00FFFFFFFFFFFFFFBE
:1031200000FFFFFFFFFFFFFFFFFF003F0000000069
:10313000FFFF003F00000000FFFF003F0000000015
:10314000FFFF003F00000000FFFFFF003F00000006
:10315000FFFFFF003F000000FFFFFFFF003F0000F8
:10316000FFFFFFFFFF003F00FFFFFFFFFFFFFFFF2D
:10317000FFFFFFFFFFFFFFFFFFFFFFFFFFFF00005D
:10318000FFFFFFFF00003F3F000000003F3F240023
:103190003F3F3F3F2400000000000000000000000F
:1031A0000000000000000000FF003F2400000000BD
:1031B000003F2400000000003F2400000000000049
:1031C00024000000000000000000000000000000DB
:1031D00000000000000000000000000000000000EF
:1031E000000000000000000000FFFFFFFFFFFFFFE6
:1031F00000FFFFFFFFFFFFFF2C00FFFFFFFFFFFFB0
:103200003F00ADFFFFFFFFFF3F2C0000000000006C
:103210003F3F3F3F3F3F3F3F0000000000000000B6
:10322000000000000000000000000000243F00FF3C
:103230000000000000243F00000000000000243FC8
:10324000000000000000002400000000000000005A
:10325000000000000000000000000000000000006E
:103260000000000000000000FFFFFFFFFFFFFFFF66
:10327000FFFFFFFFFFFFFFFF0000FFFFFFFFFFFF5C
:103280003F3F0000FFFFFFFF00243F3F0000000022
:10329000000000243F3F3F3F00000000000000000E
:1032A0000000000000000000FFFFFFFFFFFFFFFF26
:1032B000FFFFFFFFFFFFFFFFFFFFFFFFFFFFFFFF1E
:1032C000FFFFFFFFFFFFFFFF000000000000000006
:1032D0003F3F3F3F3F3F3F3F0000000000000000F6
:1032E0000000000000000000FFFFFFFFFFFF003FA5
:1032F000FFFFFFFFFFFF003FFFFFFFFFFFFF003F5C
:10330000FFFFFFFFFFFF003FFFFFFFFFFFFF003F4B
:10331000FFFFFFFFFFFFAD00FFFFFFFFFFFFFF000D
:10332000FFFFFFFFFFFFFFFF000000000000003F66
:10333000000000000000003F000000000000003F0F
:10334000000000000000003F0000000000003F00FF
:103350003F3F3F3F3F3F00FF000000000000FFFFF6
:10336000FFFFFFFFFFFFFFFF00FFFFFFFFFFFFFF6C
:1033700000FFFFFFFFFFFFFF00FFFFFFFFFFFFFF5B
:1033800000FFFFFFFFFFFFFFFFFFFFFFFFFFFFFF4C
:10339000FFFFFFFFFFFFFFFFFFFFFFFFFFFFFFFF3D
:1033A000FFFFFFFFFFFFFFFFFFFFFFFFFFFF003FEC
:1033B000FFFFFFFFFFFF003FFFFFFFFFFFFF003F9B
:1033C000FFFFFFFFFF003F24FFFFFFFFFF003F0065
:1033D000FFFFFFFF003F2400FFFFFFFF003F000053
:1033E000FFFFFF003F240000FFFFFFFFFFFFFFFF85
:1033F000FFFFFFFFFFFFFFFFFFFFFFFFFFFFFFFFDD
:10340000FFFFFFFFFFFFFFFFFFFFFFFFFFFF0000CA
:10341000FFFFFFFF00003F3FFFFFFFFFFFFF000038
:10342000FFFFFFFFFFFFFFFFFFFF003F2400000043
:10343000FFFF003F00000000FF003F2C00000000E5
:10344000003F2C00000000003F2C000000000000A6
:103450003F2C0000000000003F2C00000000000096
:10346000003F2C0000000000FFFFFFFFFFFFFFFFF9
:10347000FFFFFFFFFFFFFFFFFFFFFFFFFFFFFFFF5C
:10348000FFFFFFFFFFFFFFFFFFFFFFFFFFFFFF004B
:10349000FFFFFFFFFFFFAD00FFFFFFFFFFFF003F4C
:1034A000FFFFFFFFFFFF003FFFFFFFFFFFFFFFFFEB
:1034B000FFFFFFFFFFFFFFFFFFFFFFFFFFFFFFFF1C
:1034C000FFFFFFFFFFFFFFFF000000000000FFFF06
:1034D0003F3F3F3F3F3F00FF0000000000003F0034
:1034E000000000000000003FFFFFFFFFFFFFFFFFA5
:1034F000FFFFFFFFFFFFFFFFFFFFFFFFFFFFFFFFDC
:10350000FFFFFFFFFFFFFFFFFFFFFFFFFFFFFFFFCB
:10351000FFFFFFFFFFFFFFFFFFFFFFFFFFFFFFFFBB
:1035200000FFFFFFFFFFFFFFFF003F2C0000000038
:10353000FFFF003F00000000FFFF003F24000000ED
:10354000FFFFFF003F240000FFFFFFFF003F0000E0
:10355000FFFFFFFF003F2400FFFFFFFFFF003F00D2
:10356000FFFFFFFFFF003F2495FFFFFF00FFFF95D8
:10357000FFFFFF0000FFFFFFFFFFFFFF00FFFFFF58
:10358000FFFFFFFF00FFFFFFFFFFFFFF00FFFFFF49
:10359000FFFFFF000000FFFF95FFFFFFFFFFFF950C
:1035A000959595959595959595FFFFFF00FFFF954E
:1035B000FFFFFF00FF00FFFFFFFFFFFFFF00FFFF18
:1035C000FFFFFFFF00FFFFFFFFFFFF00FFFFFFFF09
:1035D000FFFFFF000000FFFF95FFFFFFFFFFFF95CC
:1035E000959595959595959595FFFFFF00FFFF950E
:1035F000FFFFFF00FF00FFFFFFFFFFFF00FFFFFFD8
:10360000FFFFFFFFFF00FFFFFFFFFF00FF00FFFFC7
:10361000FFFFFFFF00FFFFFF95FFFFFFFFFFFF958D
:10362000959595959595959595FFFF00FF00FF95CC
:10363000FFFFFF00FF00FFFFFFFFFF000000FFFF95
:10364000FFFFFFFFFF00FFFFFFFFFFFFFF00FFFF88
:10365000FFFFFFFFFF00FFFF95FFFFFFFFFFFF954D
:10366000959595959595959595FFFF000000FF958B
:10367000FFFFFF00FFFFFFFFFFFFFF0000FFFFFF57
:10368000FFFFFFFFFF00FFFFFFFFFF00FF00FFFF47
:10369000FFFFFFFF00FFFFFF95FFFFFFFFFFFF950D
:1036A000959595959595959595FFFFFF0000FF954C
:1036B000FFFFFF00FFFFFFFFFFFFFF0000FFFFFF17
:1036C000FFFFFF00FF00FFFFFFFFFF00FF00FFFF06
:1036D000FFFFFFFF00FFFFFF95FFFFFFFFFFFF95CD
:1036E000959595959595959595FFFF000000FF950B
:1036F000FFFFFFFFFF00FFFFFFFFFFFFFF00FFFFD8
:10370000FFFFFFFF00FFFFFFFFFFFF00FFFFFFFFC7
:10371000FFFFFF00FFFFFFFF95FFFFFFFFFFFF958C
:10372000959595959595959595FFFFFF00FFFF95CC
:10373000FFFFFF00FF00FFFFFFFFFFFF00FFFFFF96
:10374000FFFFFF00FF00FFFFFFFFFF00FF00FFFF85
:10375000FFFFFFFF00FFFFFF95FFFFFFFFFFFF954C
:10376000959595959595959595FFFFFF00FFFF958C
:10377000FFFFFF00FF00FFFFFFFFFF00FF00FFFF55
:10378000FFFFFFFF0000FFFFFFFFFF00FF00FFFF45
:10379000FFFFFFFF00FFFFFF95FFFFFFFFFFFF950C
:1037A000959595959595959595FF00FFFF00FF954B
:1037B000FF0000FF00FF00FFFFFF00FF00FF00FF12
:1037C000FFFF00FF00FF00FFFFFF00FF00FF00FF03
:1037D000FF000000FF00FFFF95FFFFFFFFFFFF95C9
:1037E000959595959595959595FF00FFFF00FF950B
:1037F000FF0000FF0000FFFFFFFF00FFFF00FFFFD3
:10380000FFFF00FFFF00FFFFFFFF00FFFF00FFFFC4
:10381000FF000000000000FF95FFFFFFFFFFFF9586
:10382000959595959595959595FF00FFFF00FF95CA
:10383000FF0000FF00FF00FFFFFF00FFFFFF00FF92
:10384000FFFF00FFFF00FFFFFFFF00FF00FFFFFF84
:10385000FF000000000000FF95FFFFFFFFFFFF9546
:10386000959595959595959595FF00FFFF00FF958A
:10387000FF0000FF00FF00FFFFFF00FFFF00FFFF52
:10388000FFFF00FFFFFF00FFFFFF00FF00FF00FF43
:10389000FF000000FF00FFFF95FFFFFFFFFFFF9508
:1038A000959595959595959595FF00FF00FF009549
:1038B000FF0000FF00FF00FFFFFF00FF000000FF10
:1038C000FFFF00FFFFFF00FFFFFF00FFFFFF00FF04
:1038D000FF000000FFFF00FF95FFFFFFFFFFFF95C8
:1038E000959595959595959595FF00FF0000009508
:1038F000FF0000FF00FFFFFFFFFF00FF0000FFFFD2
:10390000FFFF00FFFFFF00FFFFFF00FF00FF00FFC2
:10391000FF000000FF00FFFF95FFFFFFFFFFFF9587
:10392000959595959595959595FF00FFFF000095C8
:10393000FF0000FF00FFFFFFFFFF00FF0000FFFF91
:10394000FFFF00FF00FF00FFFFFF00FF00FF00FF81
:10395000FF000000FF00FFFF95FFFFFFFFFFFF9547
:1039600095959595959595955253656654556768C7
:103970005657696A58596B665A5B6C6D5C5D6E6F21
:103980005E5D706F5F607172616273746364756FA6
:103990005E6483845C6269747677858678798788CB
:1039A0005C7A69895C7A838A7B7C8B8C7D7E83845C
:1039B0007F808D8E81828F8890919A9B929387864B
:1039C00094959C9D94969C9E767985885C57839F60
:1039D0007679A0A15C579AA26397A36F98997172A8
:1039E000928285889282B1B2A482B3B4A5A6B5B6FC
:1039F000A7A87172A9AAB7B8AB55B9BAACADBBBC90
:103A0000AE57BDBEAFB0BFC0160A0001020304002E
:103A10000102050602020706020304000102030474
:103A2000080909090A08090B0C0D0E0F0C100909E9
:103A30000A080909090A10090909111213140715BE
:103A40001011151009091610090909111017181974
:103A5000111A061B1615101115101C1D1E1209092E
:103A600009160D0C150D0C150D1F20150D0C150D3F
:103A70000C210C2223241F2000010205060202074C
:103A800000010203040001020706071506070809E2
:103A90000B0C0D0E0F0C080909090A080909111071
:103AA00025262728121314071510111510090909C6
:103AB0001110090B0C100909292A1A061B161510DA
:103AC0001115101718191112091407102B2C2D2E6F
:103AD000150D1F20150D0C150D0C150D0C22232492
:103AE0000C0D0C150D0C000205000739000ACB0067
:103AF000099E0300FF0300FE0300F900FF0002011E
:103B000000070000000B000ADF0009AA0500FF0AF9
:103B100000FC0002030500F800FF00020300075745
:103B2000000A7800096301075704075900020501DC
:103B30000A8C0200F70000F6010AB300FF00011230
:103B40000007000000FC0101170101120100F40050
:103B5000FF0001020007000000FF01010101010256
:103B60000201010500FE40FF000105000700000002
:103B7000F80201070201030101010200F400FF0045
:103B800001050007000000F802010702010301011E
:103B9000010200F400FF00FF00020400030C000714
:103BA00043000ACB00099E0300FF0300FE0300F957
:103BB0000300F30B050000FF0002050007480000AA
:103BC000080106000000F900FF00020300070A01D7
:103BD0000007000ADF0009AA0700FF1300FC000627
:103BE000000300F60400F400FF00FF0001120007CC
:103BF0002E0000FC0101170101120100F400FF007A
:103C000001020007220000FF01010101010202017F
:103C1000010500FE40FF0001050007200000F8023A
:103C200001070201030101010200F400FF0001018C
:103C30000007900000E200FF000202000746000AB1
:103C4000B40009630300FF0300FE0300F90300F35F
:103C500000FF00020400073E0000080000F900FF1A
:103C600000020300071B0300FF0300FE0300F9032B
:103C700000F30B050000FF00FF00FF00FF00FF0046
:103C8000FF0002040007430000FF0400FE0700F9E4
:103C90000600F30B050000FF000204000ADF000924
:103CA000DE0007490000030200FF0C00FE00FF00D9
:103CB0000204000732000AF40009AA0000FF0C0009
:103CC000FE0800FD0400FC00FF00011200072E00AA
:103CD00000FC0101170101120100F400FF000102C4
:103CE0000007220000FF010101010102020101059C
:103CF00000FE40FF0001010007220000FF0101015A
:103D00000101020201010500FE40FF00010500075C
:103D1000200000F80201070201030101010200F482
:103D200000FF00FF000204000746000840030847A8
:103D300003084C0000FA09FF00020100072A0000F6
:103D40001B000847000D0A0002040009C7000AAC66
:103D50000203090000FE030409000A2C000204000B
:103D60000A850100FF000E0A0000FB09FF0007247E
:103D700000082202082701083502083B0308420018
:103D800000FD04084A02084F0000F301085000FF3C
:103D900000074A00084501083E02083A0000F70102
:103DA000083703082F00FF0002000008280007BEA4
:103DB000000CE0000BE20F00FFB4FF000700000260
:103DC00003000827010750000CE0000BE20000FF91
:103DD000B4FF000000E63A00000000000000FD3AD9
:103DE000000000000000001A3B000000000100007D
:103DF0003D3B00000000010000513B0000000001BD
:103E00000000683B000000000100007F3B00000054
:103E100000010000963B00000000000000983B00FD
:103E2000000000000000B83B00000000000000C9D6
:103E30003B00000000000000E93B00000000010022
:103E400000EB3B00000000010000FF3B0000000011
:103E5000010000163C000000000100002D3C0000A5
:103E60000000000000383C00000000000000523C50
:103E700000000000000000603C00000000000000A6
:103E8000773C00000000010000793C0000000001C8
:103E900000007B3C000000000100007D3C000000B1
:103EA000000100007F3C00000000000000813C0099
:103EB000000000000000983C00000000000000AF7F
:103EC0003C00000000000000C93C000000000100B0
:103ED00000DD3C00000000010000F43C0000000098
:103EE0000100000B3D00000000010000223D000029
:103EF0000000000000243D00000000000000383DEC
:103F0000000000000000006D3D0000000000C00047
:103F100000C10100C20200C30000B0077F006400BE
:103F20000090406400B1077F00640000913E4600AD
:103F3000B2640000077F0092286400B3077F0093FB
:103F4000044000FF0601530690426406436400915A
:103F5000406400922864079040640091426400929B
:103F6000286406904764009143640092346400938F
:103F7000054007914064009303400690406400911F
:103F800047640092286400930540079042640092C1
:103F900028640093054006904364009140640092B9
:103FA00028640093054006904064009142640092AA
:103FB000286407904864009143640092346400933D
:103FC00003400691406400930540079040640091CF
:103FD000486400922864069042640093054007906C
:103FE000436400914064009228640690406400910C
:103FF0004264009228640093054006904A64009150
:104000004364009228640093034007914064069043
:10401000406400914A640092286400930340079032
:104020004264009228640093034006904364009128
:10403000406400923464009305400790426400910C
:1040400042640093034006904864009143640092E8
:10405000286400930540069142640092286400930E
:1040600005400790406400914864009228640093E2
:1040700005400690426400922864079043640091D2
:1040800040640092346400930340069042640091BF
:10409000426400930540079040640091436400929D
:1040A000286406903E6400914264009305400690A7
:1040B000406400914064009228640093054007909A
:1040C000426400913E64009228640093054006908B
:1040D00043640091406400922B6400930440079075
:1040E00040640091426406904764009143640092EA
:1040F0002B640791406400922B6406904064009109
:104100004764009237640093054006904264009330
:104110000340079043640091406400922B64009335
:104120000540069040640091426400922B64009325
:104130000540079048640091436400922B6400930B
:1041400005400691406400922B6407904064009102
:1041500048640092376400930340069042640093E1
:104160000540069043640091406400922B640790E0
:104170004064009142640093054006904A640091B7
:10418000436400922B640791406400922B64009377
:1041900005400690406400914A6400922B640093AD
:1041A0000340079042640643640091406400922BF0
:1041B0006400930340069040640091426400922B97
:1041C0006400930340079048640091436400923771
:1041D00064009305400691406400930340079040BB
:1041E000640091486400922B64009305400690425D
:1041F0006400922B64009305400790436400914053
:104200006400922B64009305400690426400914242
:104210006400922B640790406400914364009237DD
:10422000640093034006903E64009142640093054D
:1042300040069040640091406400922B64079042D5
:104240006400913E640093054006904364009140F1
:104250006400922B640093054007904564009142EE
:104260006400922B640093054006904064009143E3
:1042700064009228640093034007904264009145D3
:1042800064069043640091406400922864009303A4
:1042900040069040640091426400922864009303B9
:1042A0004007904764009143640092346400930592
:1042B000400691406400930340079040640091479A
:1042C000640092286400930540069042640092289E
:1042D0006400930540079043640091406400922875
:1042E0006400930540069040640091426400922867
:1042F0006406904864009143640092346400930320
:104300004007914064009305400690406400914846
:10431000640092286407904264009305400690432D
:1043200064009140640092286407904064009142C8
:1043300064009228640093054006904A640091430B
:104340006400922864009303400691406407904003
:104350006400914A640092286400930340069042EE
:1043600064009228640093034007904364009140E6
:1043700064009234640093054006904264009142C8
:1043800064009303400790486400914364009228BE
:1043900064009305400691426400922864009305EE
:1043A00040069040640091486400922864009305A0
:1043B0004007904264009228640690436400914054
:1043C0006400923464009303400790426400914279
:1043D0006400930540069040640091436400922875
:1043E0006407903E6400914264009305400690404B
:1043F0006400914064009228640093054006904256
:104400006400913E64009228640093054007904345
:10441000640091406400922B640093044006904035
:104420006400914264079047640091436400922BBA
:10443000640691406400922B6407904064009147A9
:104440006400923764009305400690426400930331
:1044500040069043640091406400922B64009305F1
:1044600040079040640091426400922B64009305E1
:1044700040069048640091436400922B64009305C9
:10448000400791406400922B64069040640091487C
:1044900064009237640093034007904264009305E0
:1044A00040069043640091406400922B6407904062
:1044B00064009142640093054006904A6400914371
:1044C0006400922B640691406400922B6400930573
:1044D000400790406400914A640092266400930370
:1044E0004006904264074364009140640092266451
:1044F0000093034006904064009142640092266459
:104500000093034007904864009143640092326432
:104510000093054006914064009303400690406478
:10452000009148640092266400930540079042641D
:104530000092266400930540069043640091406415
:104540000092266400930540079042640091426403
:1045500000922664069040640091436400922864AF
:104560000093034007903E640091426400922664E9
:1045700000930540069040640091406400922864D6
:104580000690426400913E6400922A6400930540C4
:10459000079043640091406400922B6400930540AF
:1045A000069045640091426400923964009305408E
:1045B00007904C6400914364009228640093034088
:1045C000069145640093034007904F6400914C644A
:1045D00000922864009303400692286400930340ED
:1045E00006914F6400923464009305400D904C6432
:1045F00000922864009305400792286400930540C8
:104600000690516400914C6400922864009303402A
:104610000792286400930340069151640092346429
:104620000093034006034007904C64009228640006
:1046300093054006054007904F6400914C6400923A
:1046400028640628640093054007914F640092286F
:10465000640093034006034006904C640092286473
:10466000009303400792286400930340069051642E
:1046700000914C64009234640093054007034006A7
:1046800091516400922864009303400792286406C5
:10469000904F6400922864009305400692286400BD
:1046A00093034007904E6400914F6400923464007D
:1046B0009303400D904C6400914E64009228640076
:1046C00093034006054007904E6400914C640092AD
:1046D00028640093034006922864009305400690E6
:1046E0004C6400914E6400922B64009303400703D6
:1046F0004006904F6400914C6400922B6400930339
:104700004007922B640093034006914F6400923758
:1047100064009305400D904C6400922B6400930557
:104720004007922B64009305400690516400914C21
:104730006400922B640093034006922B6400930361
:104740004007915164009237640093034006034090
:1047500007904C6400922B640093054006054007C7
:10476000904F6400914C6400922B64062B6400937C
:10477000054006914F6400922B64009303400703A9
:104780004006904C6400922B640093034007922BE8
:1047900064009303400690536400914C6400923788
:1047A00064009305400703400691536400922B6414
:1047B0000093034006922B640790516400922B648F
:1047C0000093054006922B640093034007904F64CA
:1047D0000091516400923764009303400D904E6441
:1047E00000914F6400922B6400930340060540063D
:1047F000904A6400914E6400922B6400930340073A
:10480000922B640093054006904C6400914A64002A
:104810009228640093034007034006904F64009180
:104820004C6400922864009303400792286400932C
:10483000034006914F6400923464009305400D904C
:104840004C6400922864009305400692286400930B
:1048500005400790516400914C64009228640093D5
:10486000034006922864009303400791516400922C
:1048700034640093034006034006904C6400922881
:10488000640093054007054006904F6400914C6416
:10489000009228640728640093054006914F640045
:1048A0009228640093034007034006904C640092F2
:1048B0002864009303400692286400930340079005
:1048C000516400914C6400923464009305400603E7
:1048D0004007915164009228640093034006922897
:1048E0006407904F64009228640093054006922864
:1048F000640093034007904E6400914F640092342B
:1049000064009303400C904C6400914E6400922824
:10491000640093034007054006904E6400914C6488
:104920000092286400930340079228640093054096
:1049300006904C6400914E6400922B6400930340F7
:1049400007034006904F6400914C6400922B640072
:1049500093034006922B640093034007914F640039
:10496000923764009305400D904C6400922B6400D4
:1049700093054006922B6400930540079051640014
:10498000914C6400922B640093034006922B6400C8
:1049900093034006915164009237640093034007EB
:1049A000034006904C6400922B6400930540070579
:1049B0004006904F6400914C6400922B64072B6476
:1049C0000093054006914F640092266400930340D3
:1049D00006034007904C640092266400930340064F
:1049E000922664009303400790536400914C640046
:1049F000923264009305400603400791536400928D
:104A00002664009303400692266406905164009247
:104A100026640093054007922664009303400690A5
:104A20004F64009151640092286400930340079200
:104A3000266406904E6400914F64009228640093AF
:104A4000034007922A640093054006904A6400914F
:104A50004E6400922B6400930340069239640093E5
:104A600005400790406400914A64009228640093D6
:104A70000440069043640747640091406400922814
:104A80006406904A64009143640092286407904849
:104A90006400914764009234640093034006904799
:104AA0006400914A6406904564009148640092282D
:104AB0006400930540079043640091476400922886
:104AC0006400930540069047640091456400922875
:104AD000640093034007904564009143640092286A
:104AE0006400930340069047640091476400923449
:104AF000640093034007904364009145640093036E
:104B00004006904564009147640092286400930534
:104B100040069042640091436407904364009145CD
:104B20006400922864009303400690406400914220
:104B3000640092286400930540079042640091430A
:104B40006400922864009303400690406400914002
:104B500064079042640091426400922864009305C7
:104B60004006903E640091406400922864009305E2
:104B700040079040640091426400923464009303C3
:104B80004006903C6400913E6406903E6400914073
:104B900064009228640093054007903B6400913CB8
:104BA00064009228640093054006903C6400913EA6
:104BB0006400922864009303400790396400913B9D
:104BC00064009228640093034006903B6400913C8B
:104BD0006400923464009303400790376400913975
:104BE000640093034006B0640000903A6400913B77
:104BF0006400922864069036640091376400930341
:104C0000400790396400B1640000913A6400922832
:104C10006400930540069035640091366400922844
:104C20006400930540079036640091396400922B2C
:104C300064009303400691356407366400922B6448
:104C40000093054006922B6400930540069237645A
:104C5000009303400D90346400922B640093054050
:104C60000790326400922B640093054006903464F0
:104C70000091346400922B640093034007913264E6
:104C800000922B64009303400690366400913464D4
:104C90000092376400930340060340079136640096
:104CA000922B64009305400D922B64009303400601
:104CB000922B64009305400790366400922B6400A9
:104CC0009303400C91366400922B640093054007D7
:104CD000922B640093054006923764009303400DC5
:104CE00090346400922B6400930540079032640076
:104CF000922B640093054006903464009134640064
:104D0000922B64009303400691326400922B64005E
:104D10009303400790366400913464009237640036
:104D20009303400603400790376400913664009275
:104D30002B640093054006903964073B640091376B
:104D40006400922B640093034006903C6400913908
:104D50006400922B640093054006903B6400913BF5
:104D600064009228640093034007913C64063B640E
:104D70000092286400930540079228640093054040
:104D800006923464009303400D903B6400922864C3
:104D90000093054007903C6400922864009305400E
:104DA0000690396400913B640092286400930340AC
:104DB00006913C6400922864009303400791396493
:104DC000009234640093034006034007922864066F
:104DD00093034007903964009228640093054006CD
:104DE000903B64009228640093054006903764006D
:104DF000913964009228640093034007913B640654
:104E00003764009228640093054007922864009359
:104E1000054006923464009303400D90376400927D
:104E2000286400930540069039640092286400933A
:104E3000054007903664009137640092286400931F
:104E4000034006913964009228640093034007915F
:104E500036640092346400930340060340079228AE
:104E600064009305400C903464009228640093031E
:104E70004007903264009228640093054006903405
:104E8000640091346400922B6400930340079132D4
:104E900064029034640491346400922B640093059E
:104EA000400490366403922B6400930540029134D1
:104EB0006404903664009237640093034004913692
:104EC00064059037640491366400922B6400930566
:104ED000400490376402922B64009305400291379E
:104EE000640590396400922B640093034004913769
:104EF0006402922B64009303400290396405913957
:104F00006400923764009303400490376402930373
:104F100040029139640490376400922B6400930539
:104F20004005913764049036640491376400922BF5
:104F300064009303400590366402922B640093054D
:104F4000400291366404B0640000903264009226FE
:104F500064009303400491366409B1640000913207
:104F6000640092266400930540069226640093052F
:104F7000400790326400923264009303400D9132F6
:104F8000640092266400930540069226640093050F
:104F90004007922664009303400692266400930320
:104FA000400692286400930340079226640093030E
:104FB0004006922864072A640093034006922B64FB
:104FC00000930540079239640093054006903E64C3
:104FD00000922864009303400790436406476400EE
:104FE000913E64009228640093054006903E640060
:104FF0009143640092286400930540079042640046
:105000009147640092346400930340069045640025
:10501000913E6407903E64009142640092286400CF
:105020009305400690436400914564009228640013
:105030009305400790476400913E64009228640005
:1050400093034006903E64009143640092286400FC
:1050500093034006904264009147640092346400D8
:105060009303400790456400913E6400930340061B
:10507000903E6400914264009228640093054007CA
:10508000904364009145640690476400913E64003B
:105090009228640093034007903E640091436400AB
:1050A0009228640093054006904264009147640092
:1050B000922864009303400690456400913E640783
:1050C000903E64009142640092286400930540067B
:1050D0009043640091456400922864009305400762
:1050E00090476400913E640092346400930340064C
:1050F000903E6400914364079042640091476400CD
:10510000922864009305400690456400913E640037
:105110009228640093054006903E6400914264002A
:105120009228640093034007904364009145640013
:10513000922864009303400690476400913E640007
:105140009234640093034007903E640091436400EE
:1051500093034006904264009147640092286407DC
:1051600090456400913E640093034006903E6400C5
:1051700091426400922864009305400690436400C5
:1051800091456400922864009305400790476400AD
:10519000913E6400922B640093034006903E6400AD
:1051A000914364079042640091476400922B64002D
:1051B0009305400690456400913E6400922B640084
:1051C00093054007903E640091426400923764006A
:1051D0009303400690436400914564069047640041
:1051E000913E6400922B640093054007903E64005A
:1051F00091436400922B6400930540069042640042
:1052000091476400922B640093034007904564002B
:10521000913E6400922B640093034006903E64002C
:105220009142640092376400930340079043640006
:10523000914564009303400690476400913E6400EA
:10524000922B640093054006903E640091436407EE
:105250009042640091476400922B640093034006DF
:1052600090456400913E6400922B640093054007D2
:105270009047640091426400922B640093034006BF
:10528000904A640091456407904864009147640027
:10529000922B64009305400690476400914A640095
:1052A000922B640093054007904564009148640088
:1052B0009237640093034006904864009147640667
:1052C0009047640091456400922B64009305400769
:1052D0009045640091486400922B64009305400659
:1052E0009043640091476400922B6400930340074D
:1052F0009047640091456400922B6400930340063C
:105300009045640091436400923764009303400722
:105310009043640091476400930340069042640008
:1053200091456400922B640093054006904564000B
:10533000914364079043640091426400922B64009F
:10534000930340069042640091456400922B6400F0
:1053500093054007904064009143640092286400E4
:1053600093034006903E64009142640790406400BD
:1053700091406400922864009305400690426400C6
:10538000913E6400922864009305400690436400B7
:105390009140640092346400930340079142640694
:1053A0004364009228640093054007904264009291
:1053B000286400930540069043640092286400939B
:1053C0000340079045640091426400922864009372
:1053D0000340069047640091436400923464009354
:1053E0000340069145640093034007904564009193
:1053F0004764009228640690476400930340079036
:10540000486400914564009228640093054006902A
:105410003E64009147640092286400930540079021
:10542000426400914864009228640093034006900F
:10543000456400913E6406903E640091426400928F
:1054400028640093054007904264009145640092EF
:105450002864009305400690476400913E640092E2
:1054600034640093034007903E64009142640690C8
:1054700042640091476400922864009305400790BD
:10548000456400913E6400922864009305400690B4
:105490003E640091426400922864009303400690A9
:1054A0004364009145640092286400930340079090
:1054B000476400913E640092346400930340069078
:1054C0003E6400914364009303400790426400915E
:1054D000476400922864009305400690456400915B
:1054E0003E6407903E6400914264009228640093F9
:1054F0000340069042640091456400922864009342
:1055000005400690436400913E6400922B64009332
:10551000034007903C64009142640690406400910F
:10552000436400922B64009305400790436400910C
:105530003C6400922B640093054006903C6400910B
:1055400040640092376400930340079040640091E8
:1055500043640690456400913C6400922B64009380
:10556000054006903C640091406400922B640093D7
:105570000540079040640091456400922B640093BD
:1055800003400690436400913C6400922B640093B6
:10559000034007903C64009140640092376400939C
:1055A00003400690406400914364009303400790D9
:1055B000456400913C6400922B6400930540069082
:1055C0003C640091406407904064009145640092FF
:1055D0002B64009303400690436400913C64009266
:1055E0002B640093054006903C6400914064009257
:1055F0002664009303400790406400914364069042
:10560000426400913C640092266400930540079038
:105610003B6400914064009226640093054006902C
:105620003E6400914264009232640093034007900C
:10563000426400913B6406903B6400913E6400929A
:1056400026640093054006903E64009142640092F7
:105650002664009305400790516400913B640092DA
:1056600026640093034002904F64024D64024C6430
:1056700000913E64009226640093034002904A64C5
:1056800003486402476400915164009228640093C7
:1056900003400290456400914F640290436400917E
:1056A0004D640290416400914C6400922664009322
:1056B00003400290406400914A6402903E6400916D
:1056C000486403903C64009147640092286402900F
:1056D0003B640091456402903964009143640290F8
:1056E00037640091416400922A6400930340029061
:1056F0003564009140640290346400913E640290ED
:10570000326400913C6400922B6400930540039046
:10571000306400913B6402902F64009139640290E0
:105720002D64009137640092396400930540029023
:105730002B64009135640290296400913464023234
:10574000640093034002913064032F640290456427
:1057500000912D640092356402912B640229640249
:10576000930540079145640093054006904364000B
:10577000923464009303400D914364009305400606
:105780009041640092326400930540070340069103
:10579000416400930340079040640092306400939A
:1057A0000340060340069140640093054007903E85
:1057B0006400922F640693034007913E64009305B2
:1057C000400603400790436400923464069305400A
:1057D000069143640093054007904164009232644F
:1057E000009303400D91416400930540069040648E
:1057F0000092306400930540070340069140640026
:1058000093034006903E6400922F64009303400788
:10581000034006913E640093054007903C6400926B
:105820002D640693034007913C64009305400603F2
:10583000400790416400923264069305400691410E
:105840006400930540079040640092306400930325
:10585000400D9140640093054006903E6400922FF5
:10586000640093054007034006913E6400930340A3
:1058700006903C6400922D640093034007034006A9
:10588000913C6407903B6400922B640093034006B4
:10589000054007913B640093054006034006904095
:1058A00064009230640793054006914064009305BC
:1058B0004007903E6400922F64009303400D913E98
:1058C000640093054006903C6400922D64009305AB
:1058D0004006034007913C640093034006903B64FC
:1058E00000922B640093034007034006913B640041
:1058F000930540079039640092296406930340069B
:105900009139640093054007FF06014500FF2F0011
:1059100000C00800C10900C20A00C30B00B007762E
:1059200000902E400091224000B2077F00922E404E
:1059300000930C4000FF0601530F902E4000922E62
:10594000400F902E400091264000922E4000930E72
:10595000400F902C400091264000922C400F902E3A
:10596000400091224000922E4000930C401A903447
:105970004000923540049035400091264000923519
:105980004000930E401E902E400091224000922E27
:105990004000930C400F902E4000922E400F902E0E
:1059A000400091264000922E4000930E400F902C14
:1059B000400091264000922C400F902E40009122F2
:1059C0004000922E4000930C401A903540009232D5
:1059D0004004903240009126400092324000930EE5
:1059E000401E902E400091224000922E4000930CC9
:1059F000400F902E4000922E400F902E4000912696
:105A00004000922E4000930E400F902C40009126B3
:105A10004000922C400F902E400091224000922E88
:105A20004000930C401A9034400092354004903569
:105A300040009126400092354000930E401E903564
:105A400040009129400092354000930E400F903362
:105A50004000912740009233400F90324000912641
:105A6000400092324000930C400F9030400091244F
:105A700040009230400F902E400091224000922E24
:105A80004000930E401A9115400490344000923526
:105A90004000930C40039035400092354004903410
:105AA00040009234400490354000923540049034D8
:105AB000400092354000930C4003903540009235F1
:105AC000400C902E400091224000922E4000930CFA
:105AD000400F902E4000922E400F902E40009126B5
