:100000000C94AD330C9417340C9417340C941734AF
:100010000C9417340C9417340C9417340C94173434
:100020000C94A9380C9417340C9417340C9417348E
:100030000C9417340C9480360C94C0360C941734FE
:100040000C9417340C9417340C9417340C94173404
:100050000C9417340C9417340C9417340C941734F4
:100060000C9417340C9417340C9417340C941734E4
:100070005A5501200101003808000000000000006E
:100080000000000000000000000000000000000070
:100090008100450027FF24FF2A902B1C210C22FB06
:1000A000850084008903888D81096F0244424700DE
:1000B0004501B083B300B10125118A4F8B03A239EA
:1000C000A539AE39B339BB39C439C939CE39D1397B
:1000D000E339E639E9392A3A2D3A303A0040889135
:1000E000D2E4ADB5B6BEBFFF06575757575757575F
:1000F00006040404040404060604040606060606B0
:100100000604FFFFFFFFFFFF0604FFFFFFFFFFFFE7
:100110000604FFFF570406060604FFFF57060606FF
:100120000606FFFF060606065757575757575757F5
:1001300006040404040404570606060606040457CD
:10014000FFFFFFFFFFFF0457FFFFFFFFFFFF045705
:1001500006060404FFFF045706060604FFFF0457C3
:1001600006060606FFFF06570606FFFF06060606FA
:100170000604FFFF570606060604FFFF570406069F
:100180000604FFFFFFFFFFFF0604FFFFFFFFFFFF67
:100190000604020202020206060404040404040621
:1001A000060606060606060606060606FFFF0657AC
:1001B00006060605FFFF045706060405FFFF045761
:1001C000FFFFFFFFFFFF0457FFFFFFFFFFFF045785
:1001D000060202020205045706040404040404573C
:1001E000060606060606065769BCBCBCBCBCBCBC01
:1001F0006910101010101069691010696969696937
:100200006910BB10696969696910BBBB106969FF36
:100210006910BBBBBB1072FF6910BBBBBB72FFFF99
:10022000696969696972FFFFBCBCBCBCBCBCBCBC71
:1002300069101010101010BC69696969691010BC50
:1002400069696969106110BCFF696910616110BC5E
:10025000FF721061616110BCFFFF7261616110BCCF
:10026000FFFF7269696969BC6969696969FFFFFFB4
:100270006910BBBBFFFFFFFF6910BBFFFFFFFFFF64
:100280006910FFFFFFFFFFFF6910BB10101010691E
:1002900069101010101010696910101010101069FA
:1002A0006969696969696969FFFFFF69696969BCA9
:1002B000FFFFFFFF616110BCFFFFFFFFFF6110BC8C
:1002C000FFFFFFFFFFFF10BC69101010106110BC92
:1002D00069101010101010BC69101010101010BC14
:1002E00069696969696969BC89E3E3E3E3E3E3E3B5
:1002F000894949494949498989494989898989FFF8
:100300008949E34989FFFFFF8949E3E3FFFFFFFFD5
:100310008949E3FFFFFF92898949E3FFFF924989F9
:100320008989FFFFFF898989E3E3E3E3E3E3E3E30B
:1003300089494949494949E3FF898989894949E303
:10034000FFFFFF89499149E3FFFFFFFF499149E31F
:100350008992FFFFFF9149E3899292FFFF9149E360
:10036000898989FFFFFF89E38989FFFFFF898989DF
:100370008949E3FFFF4949898949E3FFFFFF49892B
:100380008949E3E3FFFFFFFF8949E34949FFFFFF95
:1003900089494949494949FF894949494949498957
:1003A0008989898989898989898989FFFFFF89E301
:1003B000894949FFFF9149E38949FFFFFF9149E3DB
:1003C000FFFFFFFF919149E3FFFFFF49499149E397
:1003D000FF494949494949E389494949494949E363
:1003E00089898989898989E33F3F3F3F3F3F3F3F73
:1003F0003F3F4B4B4B4B4B4B3F4B4B069D9D9D9D6E
:100400003F4B0606069D9D9D3F4B950606069D9D0E
:100410003F4B95950606069D3F4B9595950606061E
:100420003F4B9595959506063F3F3F3F3F3F3F3FEA
:100430004B4B4B4B4B4B3F3F9D9D9D9D064A4A3F2F
:100440009D9D9D0606064A3F9D9D060606954A3FD0
:100450009D06060695954A3F0606069595954A36E9
:100460000606959595954A363F4B959595950606C2
:100470003F4B9595950606063F4B95950606064A11
:100480003F4B950606064A4A364B0606064A4A4A36
:1004900036364A064A4A4A4A3636364A4A4A4A4A64
:1004A0001B1B1B1B1B1B1B1B0606959595954A3694
:1004B0000606069595954A364A06060695954A36E5
:1004C0004A4A060606954A364A4A4A0606064A3601
:1004D0004A4A4A4A064A36364A4A4A4A4A36363624
:1004E0001B1B1B1B1B1B1B1B3F3F3F3F3F3F3F3F3C
:1004F0003F3F4B4B4B4B4B4B3F4B4B9D9D9D9D9DD6
:100500003F4B959D9D3F369D3F4B951F369D9D3F93
:100510003F4B1F061F9D04573F4B951F9595045752
:100520003F4B9595959504573F3F3F3F3F3F3F3F9A
:100530004B4B4B4B4B4B3F3F9D9D9D9D9D4A4A3F97
:100540009D9D9D9D9D954A3F069D9D9D95954A3FEC
:1005500006049D9595954A3F0604959595954A36CE
:100560000604959595954A363F4B95959595045774
:100570003F4B9595959504573F4B9595954A045754
:100580003F4B95954A4A0457364B954A4A4A045779
:1005900036364A4A4A4A04573636364A4A4A4A574B
:1005A0001B1B1B1B1B1B1B1B0604959595954A3695
:1005B0000604959595954A3606044A9595954A36CA
:1005C00006044A4A95954A3606044A4A4A954A36E6
:1005D00006044A4A4A4A3636064A4A4A4A363636AD
:1005E0001B1B1B1B1B1B1B1B3F3F3F3F3F3F4B4B23
:1005F0003F3F4B4B4B4BFF3F3F4B4B9D9D4BFF3F7B
:100600003F4B9D9D9D4BFF3F3F4B9D9D9D4BFF3F16
:100610003F4B4B4B4BFFFFFF4BFFFFFFFFFFFF36F7
:100620003F4B3F3F3FFFFF363F3F3F3F3F3F3F3F57
:100630004B4B4B4B4B4B3F3F4B9D9D9D9D4B4A3FE7
:100640004B9D9D9D4B3F4B3FFF4B4B4B3F364B3F95
:100650003F3F3F3F3F364B3F36363F36364B4A36BD
:10066000363F3F364B954A363F4B4B3F3F3FFF3F70
:100670003F4B954B3F3F3FFF3F4B95954B3F3F3F98
:100680003F4B954B3F3F3F3F364B4A4B3F3F3F3FF2
:1006900036364B3F3F3F4A4A36364B3F3F4A4A4A3F
:1006A0001B1B1B4B4B1B1B1B3F3F364B95954A3669
:1006B000363F36364B954A363F363F3F364B4B3604
:1006C0003F3636363F36364B4A4A4A4A363F364B35
:1006D0004A4A4A4A4A4A4B364A4A4A4A4A363636C9
:1006E0001B1B1B1B1B1B1B1B3F3F3F3F3F3F3F4B2E
:1006F0003F3F4B4B4B4B4BFF3F4B4B9D9D9D4BFF10
:100700003F4B9D9D9D9D4BFF4BFF4B4B9D4BFFFFDB
:100710004B3FFFFF4B4BFFFF3F4B3F3FFFFFFF3F79
:100720003F4B4B3F3FFFFF3F4B3F3F3F3F3F3F3F35
:100730003F4B4B4B4B4B3F3F3F4B9D9D9D4A4A3F51
:100740003F4B9D9D9D9D4B3F3F3F4B9D4B4B3F4B9B
:100750003F3F4B4B3F3F364B363F3F3F36364B36A6
:10076000363F3F3F364B4A363F4B954B3F3F3FFF6F
:100770003F4B95954B3F3FFF3F4B954B3F3F3F3F97
:100780003F4B4B3F3F3F3F3F364B3F3F3F3F3F4A53
:10079000364B3F3F3F4A4A4A364B4B4A4A4A4A4AFF
:1007A0001B1B1B1B1B1B1B1B3F3636364B954A3630
:1007B0003F36364B95954A36363F36364B954A3658
:1007C00036363F36364B4A364A36363F36364B3665
:1007D0004A4A4A363F3F4B364A4A4A4A4A4B3636DD
:1007E0001B1B1B1B1B1B1B1B3F3F3F3F3F3F3F3F39
:1007F0003F3F4B4B4B4B4B4B3F4B4B9D9D9D9D4B25
:100800003F4BFF4B9D9D9D4B3F4B3FFF4B4B4BFF4A
:100810003F4B3F3FFFFFFFFF3F4B4B3F3FFF3F360D
:100820003F4B954B3FFF3F364B4B3F3F3F3F3F3F9B
:10083000FF3F4B4B4B4B3F3FFF3F4B9D9D4A4A3F3A
:10084000FF3F4B9D9D954A3FFF3F4B9D95954A3FEE
:100850003F3F3F4B4B4B4B3F363F3F3F3F3F3F4B75
:1008600036363F3F3F364B363F4B95954B3FFF3F2C
:100870003F4B954B3F3F3FFF3F4B4B3F3F3F3F3F42
:100880004B3F3F3F3F3F3F3F4B3F3F3F4A4A4A4A34
:10089000364B4A4A4A4A4A4A3636364A4A4A4A4A07
:1008A0001B1B1B1B1B1B1B1B3F3F3636364B4A3685
:1008B0003F3F36364B954A363F3F364B4A954A3690
:1008C0003F3F36364B4A4A3636363F364B4A4A3633
:1008D0004A4A3636364B36364A4A4A3F364B363621
:1008E0001B1B1B4B4B1B1B1B3F3F3F3F3F3F4B4BC0
:1008F0003F3F5252525B5B5B3F4B520000ADADAD90
:100900003F4B00000000FFFF3F4B0000000000FFD6
:100910003F4B0000FFFF00FF4BFF0000000000FF07
:100920003F4BFF000000FF003F3F3F3F3F3F3F3F47
:100930005B5B5B5252523F3FADADAD0000524A3F50
:10094000FFFF000000004B3FFF00000000004B3F96
:10095000FF0000FFFF004B3FFF00000000004A3691
:1009600000FF000000FF4A363F4BFFFFFFFFFFFF85
:100970003F4B000052FF52FF3F4BAD5200000000C2
:100980003F4B52AD5BFF52FF364B525252ADADADB5
:10099000363600525252525236364B3F3F4A4A4A3E
:1009A0001B1B1B4B4B1B1B1BFFFFFFFFFFFF4A3695
:1009B000FF52FF5200004A360000000052AD4B3695
:1009C000FF52FF5BAD52364BADADAD525252364B7E
:1009D0005252525252004B364A4A4A4A4A363636E8
:1009E0001B1B1B1B1B1B1B1B00000000000000002F
:1009F00000000000000000000000000000000000F7
:100A000000000000000000000000000000000000E6
:100A100000000000000000000000000000000000D6
:100A2000000000000000000003540C8282828282D9
:100A300056828289898989890C8289D1D1D1D1D183
:100A40008289D189FFFFFFFF8289D1FF8989898946
:100A50008289D1FF8989FFE38289D1FF89FFFF89DC
:100A60008289D1FF89E3898282828282820C540347
:100A70008989898989828256D1D1D1D1D189820C43
:100A8000FFFFFFFF89D1898289898989FFD1898206
:100A9000E3FF8989FFD1898289FFFF89FFD189829C
:100AA0008289E389FFD189828289E389FFD18982A2
:100AB0008289E389FFD1FF898289E389FF89D1D1C6
:100AC0008289E389D1FFFFFF8289E3898989898946
:100AD000008289E3E3E3E3E30082828989898989EB
:100AE00000000082828282828289D1FF89E389822A
:100AF00089FFD1FF89E38982D1D189FF89E3898286
:100B0000FFFFFFD189E389828989898989E3898205
:100B1000E3E3E3E3E38982008989898989828200AA
:100B200082828282820000008289D1FF89E38982E9
:100B30008289D1FF89E389828289D1FF89E3898211
:100B40008289D1FF89E389828289D1FF89E3898201
:100B50008289D1FF89E389828289D1FF89E38982F1
:100B60008289D1FF89E389828289E389FFD18982E1
:100B70008289E389FFD189828289E389FFD18982D1
:100B80008289E389FFD189828289E389FFD18982C1
:100B90008289E389FFD189828289E389FFD18982B1
:100BA0008289E389FFD189828282828282828282E3
:100BB0008989898989898989D1D1D1D1D1D1D1D165
:100BC000FFFFFFFFFFFFFFFF8989898989898989E5
:100BD000E3E3E3E3E3E3E3E38989898989898989B5
:100BE0008282828282828282020B135454540303D3
:100BF000550B090B0A0B020C025D540B54020C0C32
:100C00000C0B0C0B540B0D0D0C0B0B0A0A0B565551
:100C1000540C0B545D660B540B540B0B1454010B0A
:100C2000540B5553545309090D020A5D010101018A
:100C30000C550A0A0B0201010B0C0B1354020201A2
:100C4000550B02540B0303020A0B0B0A0A020202A1
:100C50000A550A530102040353550B0B0A020303FE
:100C600054020B0A0A03030354550B0B5401530A95
:100C70000B0B555D13535C530B540A530A535354D7
:100C8000540A53530B145C0A550B0B0A0C0B5454A7
:100C9000020B0B550C0254540B0B0254030C540A58
:100CA0000C0D55020B0A530B0B0B5E0A0B0D0302C6
:100CB0000B020C0B0B030D0201560D0C0B0B0C025F
:100CC000550D0C030B550B0B0C0355020C0B0203BB
:100CD0004D0B0202550B020B0B0C020B140B0C03F9
:100CE0000B0B02030B02020202030D03020C0B0B9F
:100CF0000B0C020C0B0B55540C0C0D040C020B547A
:100D000002550D0C0B55540B0B020D55020D0B0A21
:100D1000560202020C550B0A0B0B140C0C54540A0D
:100D20000C024C0B0B540B540B0B0303030303017A
:100D300002030C0C030B030C5D5503030C0C0B544A
:100D4000540B0C0B0B0B020A5454035654020A0B9F
:100D500056020C0C020A0A0A0A0C0D020A530A0176
:100D60005502030B0A5309010B530B0A020B0A0B22
:100D7000010A5353030A0A5D0A540A0A0201535333
:100D800001010A0A0B0B0A020A0B0B5C0B0A0A0A86
:100D90000A0B0B0A0B0B0A01020B0B0B0A0B0A0BBB
:100DA000020A0A0113530A0A0B020C0A0A5302022E
:100DB000550E020A5354010B0B02030A0A010B0CD5
:100DC00002020C0101020B0203030302020C0203E4
:100DD0000D0C0C0B020B01020B0302030A0A0A544E
:100DE00002030203010B0B0A000000004080808018
:100DF0000000004080C8C8C800004080D1E0E0E0AA
:100E0000004080D1F00000004080D1F000000000E0
:100E100080C8E0000000F0F080C8E0000000E000C2
:100E200080C8E0000000000080804000000000005A
:100E3000C8C8804000000000E0E0D1804000000011
:100E40000000F0D180400000000000F0D1804000A0
:100E500000000000E0C8800000000000E0C8800042
:100E600000000000E0C8800000000000000080805A
:100E7000000000000080C8C80000000080C8E0E05A
:100E800000000080C8E00000000080C8E000000012
:100E90000080C8E0000000000080C8E00000000002
:100EA000000080C8E0E000008000000000000000BA
:100EB000C880000000000000E0C8800000000000C2
:100EC00000E0C8800000000000E0C88000000000D2
:100ED00000E0C8800000000000E0C88000000000C2
:100EE00000E0C880000000000000000080808080DA
:100EF00000000080C8C8C8C8000080C8E0E0E0E08A
:100F00000080C8E00000000080C8E0000000000091
:100F100080C8E0000000F0F00080C8E0E0F0F0F0F1
:100F20000080C8E000000000808040000000000059
:100F3000C8C8804000000000E0E0D1804000000010
:100F40000000F0D180400000000000F0D18040009F
:100F5000F0000000E0C88000F0000000E0C8800061
:100F6000000000F0D1804000000000808080808080
:100F7000000080C8C8C8C8C80080C8E0E0E0E0E061
:100F800080C8E0000000000080C8E0000000000011
:100F90004080D1F0F0F0F0F0004080D1D1E00000CE
:100FA000000080C8C8E00000808080800000000051
:100FB000C8C8C8C880000000E0E0E0E0C8800000C9
:100FC00000000000E0C8800000000000E0C88000D1
:100FD000F0000000E0C88000000000F0D180400078
:100FE000000000E0C8800000000000808080000059
:100FF000000080C8C8C880400080C8E0E0E0C88029
:1010000080C8E0000000E0D180C8E0000000E0D12E
:1010100080C8E0000000E0D180C8E0000000F0F0EF
:1010200080C8E00000000000408080400000000018
:1010300080C8C88040000000D1E0E0D180400000BE
:10104000F00000F0D1804000F00000F0D1804000BE
:10105000F00000F0D1804000F00000F0D1804000AE
:1010600000000000E0C880000000008080808080D8
:10107000000080C8C8C8C8C80080C8E0E0E0E0E060
:1010800080C8E0000000000080C8E0000000000010
:1010900080C8E0000000F0F080C8E0000000F0F040
:1010A00080C8E00000000000808080800000000018
:1010B000C8C8C8C880000000E0E0E0E0C8800000C8
:1010C00000000000E0C8800000000000E0C88000D0
:1010D000F0F0F0F0D1804000F0F0E0D1804000006E
:1010E000000000E0C8800000000000004080808018
:1010F0000000004080C8C8C800004080D1E0E0E0A7
:10110000004080D1F00000004080D1F000000000DD
:1011100080C8E0000000F0F080C8E0000000F0F0BF
:1011200080C8E00000000000000000808080808017
:10113000000080C8C8C8C8C80080C8E0E0E0E0E09F
:1011400080C8E0000000000080C8E000000000004F
:101150004080D1F0F0F0F0F0004080D1D1D1D1F05A
:101160000000408080D1F00080808080000000007E
:10117000C8C8C8C880000000E0E0E0E0C880000007
:1011800000000000E0C8800000000000E0C880000F
:10119000F0000000E0C88000000000E0C88000000F
:1011A0000000E0C880000000000000004080808057
:1011B0000000004080C8C8C800004080D1E0E0E0E6
:1011C000004080D1F00000004080D1F0000000001D
:1011D00080C8E0000000F0F080C8E0000000F0F0FF
:1011E0000080C8E000000000808040000000000097
:1011F000C8C8804000000000E0E0D180400000004E
:101200000000F0D180400000000000F0D1804000DC
:10121000F0000000E0C88000F0000000E0C880009E
:10122000000000E0C88000000000000040808080D6
:101230000000004080C8C8C800004080D1E0E0E065
:10124000004080D1F00000004080D1F0000000009C
:1012500080C8E0000000F0F080C8E0000000F0F07E
:101260004080D1F0000000008080400000000000BD
:10127000C8C8804000000000E0E0D18040000000CD
:101280000000F0D180400000000000F0D18040005C
:10129000F0000000E0C88000F0000000E0C880001E
:1012A00000000000E0C8800080C8E00000000000EE
:1012B00080C8E000000000F080C8E00000000000EE
:1012C0000080C8E000000000000080C8E0F0F0F0FE
:1012D00000000080C8D1D1D1000000008080808053
:1012E0000000000000404040F0000000E0C8800026
:1012F000E0000000E0C8800000000000E0C88000BE
:10130000000000E0C8800000F0F0E0C880000000AD
:10131000D1D1C88000000000808080000000000063
:10132000404000000000000000000080C8E0000015
:10133000000080C8E0E000000080C8E0000000007D
:101340000080C8E000000000004080D1F0F0F0F024
:1013500000004080D1D1D1D1000000408080808049
:10136000000000004040404000E0C8800000000055
:1013700000E0E0C880000000000000E0C88000003D
:10138000000000E0C8800000F0F0F0D180400000D4
:10139000D1D1D1804000000080808040000000005A
:1013A000404040000000000080C8E0000000000055
:1013B00080C8E0000000E0E080C8E000000000001D
:1013C00080C8E000000000004080D1F0F0F0F0F0B4
:1013D000004080D1D1D1D1D1000040808080808078
:1013E00000000040404040400000F0D1804000003C
:1013F000E0E0E0E0C880000000000000E0C88000FD
:1014000000000000E0C88000F0F0F0F0D180400063
:10141000D1D1D1D180400000808080804000000088
:1014200040404040000000000080C8E0E0D1F0F003
:1014300080C8E00000F0E0E080C8E00000000000AC
:101440004080D1F000000000004080D1F0F0F0F0CA
:1014500000004080D1D1D1D1000000408080808048
:10146000000000004040404080C8E0000000000054
:101470000080C8E0E0E0E0E0000080C8C8C8C8D153
:1014800000000080808080D100000000000080C843
:1014900000000000000000800000000000000000CC
:1014A000000000000000000000000000E0C8800014
:1014B000F00000F0D1804000F00000F0D18040004A
:1014C000F00000F0D1804000E0F0F0E0C8800000C3
:1014D000C8D1D1C88000000080808080000000005A
:1014E000004040000000000080C8E0000000000054
:1014F0000080C8E0E0E0E0E080C8E000000000001C
:1015000080C8E000000000004080D1F0F0F0F0F072
:10151000004080D1D1D1D1D1000040808080808036
:10152000000000404040404000000000E0C8800053
:10153000E0000000E0C8800000000000E0C880007B
:10154000000000E0C8800000F0F0E0C8800000006B
:10155000D1D1C88000000000808080000000000021
:10156000404000000000000080C8E00000000000D3
:1015700080C8E0000000E0E080C8E000000000005B
:101580000080C8E000000000000080C8E0F0F0F03B
:1015900000000080C8D1D1D1000000008080808090
:1015A000000000000040404000000080C8E0000053
:1015B00000000080C8E0000000000080C8E00000DB
:1015C00000000080C8E000000000004080D1F0F082
:1015D000000000004080D1D1000000000040808069
:1015E000000000000000404000E0C8800000000053
:1015F00000E0C8800000000000E0C880000000009B
:1016000000E0C88000000000F0D180400000000031
:10161000D180400000000000804000000000000079
:1016200040000000000000004080D1F000000000F9
:1016300080C8E0000000E0E080C8E000000000009A
:101640000080C8E000000000000080C8E0F0F0F07A
:1016500000000080C8D1D1D10000000080808080CF
:101660000000000000404040000000F0D180400039
:10167000E0000000E0C8800000000000E0C880003A
:10168000000000E0C8800000F0F0E0C8800000002A
:10169000D1D1C880000000008080800000000000E0
:1016A0004040000000000000004080D1F000000039
:1016B0000080C8E0E0E0E0E080C8E000000000005A
:1016C00080C8E000000000004080D1F0F0F0F0F0B1
:1016D000004080D1D1D1D1D1000040808080808075
:1016E00000000040404040400000000040808080FA
:1016F0000000004080C8C8C800004080D1E0E0E0A1
:10170000004080D1F00000004080D1F000000000D7
:1017100080C8E0000000F0F080C8E0000000E0D1E8
:1017200080C8E0000000E0C88080808000000000E9
:10173000C8C8C8C880000000E0E0E0E0C880000041
:1017400000000000E0C8800000000000E0C8800049
:10175000F0F0F0F0D1804000D1D1D1D18040000034
:1017600080808080400000000000008080808080B9
:10177000000080C8C8C8C8C80080C8E0E0E0E0E059
:1017800080C8E0000000000080C8E0000000000009
:1017900080C8E0000000F0F080C8E0000000E0D168
:1017A00080C8E0000000E0C8808040000000000029
:1017B000C8C8804000000000E0E0D1804000000088
:1017C0000000F0D180400000000000F0D180400017
:1017D000F0000000E0C88000E0000000E0C88000E9
:1017E000E0000000E0C880008080808000000000F1
:1017F000C8C8C8C880000000E0E0E0E0C880000081
:1018000000000000E0C8800000000000E0C8800088
:10181000F0F0F0F0D1804000F0F0F0D18040000016
:10182000000000E0C88000000000000040808080D0
:101830000000004080C8C8C800004080D1E0E0E05F
:10184000004080D1F00000004080D1F00000000096
:1018500080C8E0000000F0F080C8E0000000E0E098
:1018600080C8E0000000E0F0808080800000000080
:10187000C8C8C8C880000000E0E0E0E0C880000000
:1018800000000000E0C8800000000000E0C8800008
:10189000F0F0F0F0D1804000F0F0F0F0D1804000A6
:1018A00000000000E0C88000000000808080000090
:1018B000000080C8C8C880000080C8E0E0E0C880A0
:1018C00080C8E0000000E0C880C8E0000000E0C878
:1018D00080C8E0000000E0D180C8E0000000F0F027
:1018E00080C8E00000000000008080800000000050
:1018F00080C8C8C880000000C8E0E0E0C8800000E0
:10190000E0000000E0C88000E0000000E0C88000C7
:10191000E0000000E0C88000F0000000E0C88000A7
:1019200000000000E0C8800000000040808080804F
:1019300000004080C8C8C8C8004080D1E0E0E0E0B6
:101940004080D1F0000000004080D1F00000000095
:101950000080C8E0F0F00000000080C8D1E0000086
:1019600000000080C8E0000080808040000000008F
:10197000C8C8C88040000000E0E0E0D1804000001E
:10198000000000F0D1804000000000F0D180400055
:1019900000F0F0E0C880000000E0D1C88000000046
:1019A00000E0C8800000000000000000000000000F
:1019B00000000000000000000000000000000080A7
:1019C00000000000000080C800000000000080C887
:1019D00000000040404080C800004080808080C8F7
:1019E000004080D1D1D180C80080808000000000FC
:1019F00080C8C8C880000000C8E0E0E0C8800000DF
:101A0000E0000000E0C88000E0000000E0C88000C6
:101A1000E0000000E0C88000E0000000E0C88000B6
:101A2000E0000000E0C8800080C8E0000000000086
:101A300080C8E0000000E0E080C8E0000000E0C8EE
:101A400080C8E0000000E0C84080D1F0F0F0D18014
:101A5000004080D1D1D18040000040808080400093
:101A6000000000404040000000000000E0C880008E
:101A7000E0000000E0C88000E0000000E0C8800056
:101A8000E0000000E0C88000D1F0F0F0D18040001C
:101A900080D1D1D180400000408080804000000093
:101AA000004040400000000080C8E0000000E0C8A6
:101AB00080C8E0000000E0E080C8E0000000000016
:101AC0000080C8E000000000000080C8E0F0F0F0F6
:101AD00000000080C8D1D1D100000000808080804B
:101AE0000000000000404040C8C8C8C88000000096
:101AF000E0E0E0E0C880000000000000E0C88000F6
:101B000000000000E0C88000F0F0F0F0D18040005C
:101B1000D1D1D1D180400000808080804000000081
:101B2000404040400000000080C8E0000000E0C8E5
:101B300080C8E0000000E0E080C8E0000000000095
:101B400080C8E000000000004080D1F0F0F0F0F02C
:101B5000004080D1D1D1D1D10000408080808080F0
:101B60000000004040404040E0000000E0C880002D
:101B7000E0000000E0C8800000000000E0C8800035
:101B8000000000E0C8800000F0F0E0C88000000025
:101B9000D1D1C880000000008080800000000000DB
:101BA0004040000000000000000000E0C88000008D
:101BB000E0E0E0E0C880000000000000E0C8800035
:101BC00000000000E0C88000F0F0F0F0D18040009C
:101BD000D1D1D1D1804000008080808040000000C1
:101BE0004040404000000000000000E0C8800000CD
:101BF000E0E0E0C880000000C8C8C8800000000025
:101C00008080800000000000400000000000000014
:101C100000000000000000000000000000000000C4
:101C2000000000000000000080C8E0000000E0F0BC
:101C300080C8E0000000E0E080C8E0000000000094
:101C40000080C8E000000000000080C8E0F0F0F074
:101C500000000080C8D1D1D10000000080808080C9
:101C6000000000000040404000000000E0C880008C
:101C7000E0000000E0C8800000000000E0C8800034
:101C800000000000E0C88000F0F0F0F0D1804000DB
:101C9000D1D1D1D180400000808080804000000000
:101CA000404040400000000000004080C8E00000CC
:101CB000004080D1E0E000004080D1F00000000052
:101CC0004080D1F0000000000080C8E0F0F0F0F0AB
:101CD000000080C8D1D1D1D10000008080808080F8
:101CE000000000004040404000E0C880400000008C
:101CF00000E0E0D180400000000000F0D180400012
:101D0000000000F0D1804000F0F0F0E0C88000005A
:101D1000D1D1D1C880000000808080800000000008
:101D200040404000000000004080D1F0F0F0D1C8F9
:101D300080C8E0000000E0E080C8E0000000000093
:101D40000080C8E000000000000080C8E0F0F0F073
:101D500000000080C8D1D1D10000000080808080C8
:101D60000000000000404040000000808080000033
:101D7000000080C8C8C880000080C8E0E0E0C880DB
:101D800080C8E0000000E0C880C8E0000000E0E09B
:101D900080C8E0000000E00080C8E0000000000013
:101DA00080C8E0000000000000808080000000008B
:101DB00080C8C8C880000000C8E0E0E0C88000001B
:101DC000E0000000E0C88000000000F0D18040008A
:101DD0000000F0D18040000000F0D1804000000001
:101DE000F0D18040000000000000008080800000F2
:101DF000000080C8C8C880000080C8E0E0E0C8805B
:101E000080C8E0000000E0C880C8E0000000E0C832
:101E100080C8E0000000E0C880C8E0000000E0C822
:101E200080C8E0000000E0C80000000000000000E2
:101E300000000000000000000000000000000000A2
:101E40008000000000000000800000000000000092
:101E50008000000000000000800000000000000082
:101E600080808080000000000000008080800000F2
:101E7000000080C8C8C880000080C8E0E0E0C880DA
:101E800080C8E0000000E0C880C8E000000000E07A
:101E900080C8E0000000000080C8E00000000000F2
:101EA00080C8E0000000F00000808080000000009A
:101EB00080C8C8C880000000C8E0E0E0C88000001A
:101EC000E0000000E0C8800000000000E0C88000E2
:101ED00000000000E0C8800000000000E0C88000B2
:101EE000F0000000E0C8800000808080000000005A
:101EF00080C8C8C880000000C8E0E0E0C8800000DA
:101F0000E0000000E0C88000E0000000E0C88000C1
:101F1000E0000000E0C8800000000000E0C8800091
:101F200000000000E0C88000808080000000000009
:101F3000C8C8C88000000000E0E0E0C880000000E1
:101F4000000000E0C880000000000000E0C8800041
:101F5000F0000000E0C88000F0F0E0E0C880000081
:101F6000000000E0C88000000000008080808080C9
:101F7000000080C8C8C8C8C80080C8E0E0E0E0E051
:101F800080C8E0000000000080C8E0000000000001
:101F90004080D1F0F0F00000004080D1D1E000009E
:101FA00000004080C8E000008080808000000000C9
:101FB000C8C8C8C880000000E0E0E0E0C8800000B9
:101FC00000000000E0C8800000000000E0C88000C1
:101FD00000F0F0F0D180400000E0D1D1804000005E
:101FE00000E0C8804000000080C8E0000000000061
:101FF00080C8E0000000F00080C8E0000000E0F0D1
:1020000080C8E0000000E0D14080D1F0F0F0D18045
:10201000004080D1D1D180400000408080804000CD
:10202000000000404040000000E0C88000000000C8
:102030000000E0C880000000000000E0C880000050
:10204000F0000000E0C88000D1F0F0F0D180400046
:1020500080D1D1D1804000004080808040000000CD
:10206000004040400000000080C8E0000000E0F0B8
:1020700080C8E0000000E0D180C8E0000000E0C8B7
:1020800080C8E0000000E0C84080D1F0F0F0D180CE
:10209000004080D1D1D1804000004080808040004D
:1020A0000000004040400000E0000000E0C8800068
:1020B000E0000000E0C88000E0000000E0C8800010
:1020C000E0000000E0C88000D1F0F0F0D1804000D6
:1020D00080D1D1D18040000040808080400000004D
:1020E000004040400000000000000000E0C8800008
:1020F000F0000000E0C88000E0000000E0C88000C0
:10210000E0000000E0C88000D1F0F0F0D180400095
:1021100080D1D1D18040000040808080400000000C
:1021200000404040000000000000F0D1804000006E
:10213000E0E0D18040000000C8C8804000000000FE
:10214000808040000000000040000000000000000F
:10215000000000000000000000000000000000007F
:10216000000000000000000080C8E0000000E0E087
:1021700080C8E0000000E0F080C8E000000000003F
:102180000080C8E000000000000080C8E0F0F0F02F
:1021900000000080C8D1D1D1000000008080808084
:1021A0000000000000404040F0000000E0C8800057
:1021B00000000000E0C8800000000000E0C88000CF
:1021C00000000000E0C88000F0F0F0F0D180400096
:1021D000D1D1D1D1804000008080808040000000BB
:1021E00040404040000000000000F0D1804000006E
:1021F0000000E0C880000000000000E0C88000008F
:10220000F0000000E0C88000D1F0F0F0D180400084
:1022100080D1D1D18040000040808080400000000B
:102220000040404000000000004080D1F00000006D
:102230004080D1F0F0F0E0E080C8E0000000000055
:102240004080D1F000000000004080D1F0F0F0F0BC
:1022500000004080D1D1D1D100000040808080803A
:1022600000000000404040400000008080800000EE
:10227000000080C8C8C880000080C8E0E0E0C880D6
:1022800080C8E0000000E0C880C8E0000000E0C8AE
:1022900080C8E0000000E0C880C8E0000000E0E086
:1022A00080C8E0000000E000000000808000000026
:1022B000000080C8C88000000080C8E0E0C880003E
:1022C00080C8E00000E0C88080C8E0000000E0C8EE
:1022D0004080D1F0000000E0004080D1F00000001C
:1022E00000004080D1F0000000008080000000006D
:1022F0000080C8C88000000080C8E0E0C8800000FE
:10230000C8E00000E0C88000E0000000E0C88000F5
:10231000000000F0D18040000000F0D180400000BB
:1023200000F0D180400000000000008080400000EC
:10233000000080C8C88040000080C8E0E0D1804034
:1023400080C8E00000F0D18080C8E0000000F0D13B
:102350000080C8E0000000F0000080C8E00000003D
:1023600000000080C8E00000004080800000000005
:102370004080C8C88000000080D1E0E0C880000034
:10238000D1F00000E0C88000F0000000E0C880004C
:10239000000000E0C88000000000E0C880000000ED
:1023A00000E0C88000000000000000808080808085
:1023B000000080C8C8C8C8C80080C8E0E0E0E0E00D
:1023C00080C8E0000000000080C8E00000000000BD
:1023D0004080D1F0F0F0F0F0004080D1D1D1E000A9
:1023E00000004080C8E00000808080800000000085
:1023F000C8C8C8C880000000E0E0E0E0C880000075
:1024000000000000E0C8800000000000E0C880007C
:10241000000000F0D18040000000F0D180400000BA
:1024200000F0D1804000000000000000000080802B
:10243000000000000080C8C80000000080C8E0E084
:1024400000000080C8E0000000000080C8E000003C
:1024500000000080C8E0000000000080C8E000002C
:1024600000000080C8E00000000000000000408084
:1024700000000000004080C8000000004080D1E063
:102480000000004080D1F00000004080D1F000004A
:1024900000004080D1F0000000004080D1F000003A
:1024A00000004080D1F000008080000000000000AB
:1024B000C8C8800000000000E0E0C8800000000004
:1024C0000000E0C8800000000000E0C880000000BC
:1024D000F0F0D18040000000F0D18040000000000A
:1024E000F0D180400000000000000000808080806B
:1024F00000000080C8C8C8C8000080C8E0E0E0E074
:102500000080C8E00000000080C8E000000000007B
:1025100080C8E0000000F0F00080C8E0E0E0E0F0FB
:10252000000080C8C8E0000000000000008080803B
:102530000000000080C8C8C800000080C8E0E0E0DB
:10254000000080C8E0000000000080C8E00000003B
:1025500000004080D1F0F0000000004080D1F00089
:102560000000004080D1F0004000000000000000AA
:102570008040000000000000D1804000000000000A
:10258000F0D180400000000000F0D1804000000049
:1025900000F0D1804000000000F0D1804000000039
:1025A00000F0D1804000000080C8E0000000E0C8DA
:1025B0004080D1F0000000E0004080D1F000000039
:1025C00000004080D1F000000000004080D1F0F019
:1025D000000000004080D1D1000000000040808059
:1025E0000000000000004040E0000000E0C8800063
:1025F000000000F0D18040000000F0D180400000D9
:1026000000F0D18040000000F0D1804000000000C8
:10261000D180400000000000804000000000000069
:10262000400000000000000080C8E0000000000042
:1026300080C8E0000000000080C8E000000000F05A
:1026400080C8E0000000F0D14080D1F0F0F0D180EF
:10265000004080D1D1D18040000040808080400087
:10266000000000404040000000000000E0C8800082
:1026700000000000E0C8800000000000E0C880000A
:10268000F0000000E0C88000D1F0F0F0D180400000
:1026900080D1D1D180400000408080804000000087
:1026A0000040404000000000000080C8E000000042
:1026B0000080C8E0000000F080C8E0000000F0D119
:1026C00080C8E00000F0D1804080D1F0F0D180409F
:1026D000004080D1D1804000000040808040000058
:1026E00000000040400000000000E0C88000000042
:1026F000000000E0C8800000F0000000E0C880009A
:10270000D1F00000E0C8800080D1F0F0D18040001E
:102710004080D1D180400000004080804000000017
:102720000000404000000000000080C8E000000001
:102730000080C8E0000000F080C8E0000000000059
:1027400080C8E000000000004080D1F0F0F0F0F020
:10275000004080D1D1D1D1D10000408080808080E4
:102760000000004040404040F0D1C8C88000000058
:10277000E0E0E0E0C880000000000000E0C8800069
:1027800000000000E0C88000F0F0F0F0D1804000D0
:10279000D1D1D1D1804000008080808040000000F5
:1027A000404040400000000000000080C8E0E0E041
:1027B00000000080C8E0000000000080C8E00000C9
:1027C00000000080C8E000000000004080D1F0F070
:1027D000000000004080D1D1000000000040808057
:1027E0000000000000004040E0E0C8800000000061
:1027F00000E0C8800000000000E0C8800000000089
:1028000000E0C88000000000F0D18040000000001F
:10281000D180400000000000804000000000000067
:10282000400000000000000000004080D1F00000E7
:1028300000004080D1F0000000004080D1F0000096
:1028400000000080C8E000000000000080C8E0F048
:10285000000000000080C8D100000000000080805F
:102860000000000000000040F0D1804000000000A7
:10287000F0E0C880000000000000E0C88000000018
:102880000000E0C880000000F0F0D18040000000AF
:10289000D1D1804000000000808040000000000096
:1028A000404000000000000000004080D1F0000027
:1028B00000004080D1F0E0E000004080D1F0000056
:1028C00000004080D1F0000000000080C8E0F0F07F
:1028D0000000000080C8D1D100000000008080808E
:1028E00000000000000040400000F0D180400000E7
:1028F000F0E0D18040000000F0D1804000000000F6
:10290000F0D1804000000000E0C88000000000001E
:10291000C8800000000000008000000000000000EF
:1029200000000000000000000000004080D1F00026
:1029300000000080C8E0F000000080C8E000000057
:10294000000080C8E000000000004080D1F0F0F0FE
:102950000000004080D1D1D1000000004080808084
:10296000000000000040404000F0D1804000000026
:1029700000F0D1804000000000F0D1804000000055
:1029800000E0C88000000000E0C8800000000000F7
:10299000C88000000000000080000000000000006F
:1029A0000000000000000000000000004080808067
:1029B0000000004080C8C8C800004080D1E0E0E0CE
:1029C000004080D1F00000004080D1F00000000005
:1029D00080C8E0000000F0F080C8E0000000E000E7
:1029E00080C8E0000000000080804000000000007F
:1029F000C8C8804000000000E0E0D1804000000036
:102A00000000F0D180400000000000F0D1804000C4
:102A100000000000E0C8800000000000E0C8800066
:102A200000000000E0C8800000000000000080807E
:102A3000000000000080C8C80000000080C8E0E07E
:102A400000000080C8E00000000080C8E000000036
:102A50000080C8E0000000000080C8E00000000026
:102A6000000080C8E0E000008000000000000000DE
:102A7000C880000000000000E0C8800000000000E6
:102A800000E0C8800000000000E0C88000000000F6
:102A900000E0C8800000000000E0C88000000000E6
:102AA00000E0C880000000000000000080808080FE
:102AB00000000080C8C8C8C8000080C8E0E0E0E0AE
:102AC0000080C8E00000000080C8E00000000000B6
:102AD00080C8E0000000F0F00080C8E0E0F0F0F016
:102AE0000080C8E00000000080804000000000007E
:102AF000C8C8804000000000E0E0D1804000000035
:102B00000000F0D180400000000000F0D1804000C3
:102B1000F0000000E0C88000F0000000E0C8800085
:102B2000000000F0D18040000000008080808080A4
:102B3000000080C8C8C8C8C80080C8E0E0E0E0E085
:102B400080C8E0000000000080C8E0000000000035
:102B50004080D1F0F0F0F0F0004080D1D1E00000F2
:102B6000000080C8C8E00000808080800000000075
:102B7000C8C8C8C880000000E0E0E0E0C8800000ED
:102B800000000000E0C8800000000000E0C88000F5
:102B9000F0000000E0C88000000000F0D18040009C
:102BA000000000E0C880000000000080808000007D
:102BB000000080C8C8C880400080C8E0E0E0C8804D
:102BC00080C8E0000000E0D180C8E0000000E0D153
:102BD00080C8E0000000E0D180C8E0000000F0F014
:102BE00080C8E0000000000040808040000000003D
:102BF00080C8C88040000000D1E0E0D180400000E3
:102C0000F00000F0D1804000F00000F0D1804000E2
:102C1000F00000F0D1804000F00000F0D1804000D2
:102C200000000000E0C880000000008080808080FC
:102C3000000080C8C8C8C8C80080C8E0E0E0E0E084
:102C400080C8E0000000000080C8E0000000000034
:102C500080C8E0000000F0F080C8E0000000F0F064
:102C600080C8E0000000000080808080000000003C
:102C7000C8C8C8C880000000E0E0E0E0C8800000EC
:102C800000000000E0C8800000000000E0C88000F4
:102C9000F0F0F0F0D1804000F0F0E0D18040000092
:102CA000000000E0C880000000000000408080803C
:102CB0000000004080C8C8C800004080D1E0E0E0CB
:102CC000004080D1F00000004080D1F00000000002
:102CD00080C8E0000000F0F080C8E0000000F0F0E4
:102CE00080C8E0000000000000000080808080803C
:102CF000000080C8C8C8C8C80080C8E0E0E0E0E0C4
:102D000080C8E0000000000080C8E0000000000073
:102D10004080D1F0F0F0F0F0004080D1D1D1D1F07E
:102D20000000408080D1F0008080808000000000A2
:102D3000C8C8C8C880000000E0E0E0E0C88000002B
:102D400000000000E0C8800000000000E0C8800033
:102D5000F0000000E0C88000000000E0C880000033
:102D60000000E0C88000000000000000408080807B
:102D70000000004080C8C8C800004080D1E0E0E00A
:102D8000004080D1F00000004080D1F00000000041
:102D900080C8E0000000F0F080C8E0000000F0F023
:102DA0000080C8E0000000008080400000000000BB
:102DB000C8C8804000000000E0E0D1804000000072
:102DC0000000F0D180400000000000F0D180400001
:102DD000F0000000E0C88000F0000000E0C88000C3
:102DE000000000E0C88000000000000040808080FB
:102DF0000000004080C8C8C800004080D1E0E0E08A
:102E0000004080D1F00000004080D1F000000000C0
:102E100080C8E0000000F0F080C8E0000000F0F0A2
:102E20004080D1F0000000008080400000000000E1
:102E3000C8C8804000000000E0E0D18040000000F1
:102E40000000F0D180400000000000F0D180400080
:102E5000F0000000E0C88000F0000000E0C8800042
:102E600000000000E0C8800080C8E0000000000012
:102E700080C8E000000000F080C8E0000000000012
:102E80000080C8E000000000000080C8E0F0F0F022
:102E900000000080C8D1D1D1000000008080808077
:102EA0000000000000404040F0000000E0C880004A
:102EB000E0000000E0C8800000000000E0C88000E2
:102EC000000000E0C8800000F0F0E0C880000000D2
:102ED000D1D1C88000000000808080000000000088
:102EE000404000000000000000000080C8E000003A
:102EF000000080C8E0E000000080C8E000000000A2
:102F00000080C8E000000000004080D1F0F0F0F048
:102F100000004080D1D1D1D100000040808080806D
:102F2000000000004040404000E0C8800000000079
:102F300000E0E0C880000000000000E0C880000061
:102F4000000000E0C8800000F0F0F0D180400000F8
:102F5000D1D1D1804000000080808040000000007E
:102F6000404040000000000080C8E0000000000079
:102F700080C8E0000000E0E080C8E0000000000041
:102F800080C8E000000000004080D1F0F0F0F0F0D8
:102F9000004080D1D1D1D1D100004080808080809C
:102FA00000000040404040400000F0D18040000060
:102FB000E0E0E0E0C880000000000000E0C8800021
:102FC00000000000E0C88000F0F0F0F0D180400088
:102FD000D1D1D1D1804000008080808040000000AD
:102FE00040404040000000000080C8E0E0D1F0F028
:102FF00080C8E00000F0E0E080C8E00000000000D1
:103000004080D1F000000000004080D1F0F0F0F0EE
:1030100000004080D1D1D1D100000040808080806C
:10302000000000004040404080C8E0000000000078
:103030000080C8E0E0E0E0E0000080C8C8C8C8D177
:1030400000000080808080D100000000000080C867
:1030500000000000000000800000000000000000F0
:10306000000000000000000000000000E0C8800038
:10307000F00000F0D1804000F00000F0D18040006E
:10308000F00000F0D1804000E0F0F0E0C8800000E7
:10309000C8D1D1C88000000080808080000000007E
:1030A000004040000000000080C8E0000000000078
:1030B0000080C8E0E0E0E0E080C8E0000000000040
:1030C00080C8E000000000004080D1F0F0F0F0F097
:1030D000004080D1D1D1D1D100004080808080805B
:1030E000000000404040404000000000E0C8800078
:1030F000E0000000E0C8800000000000E0C88000A0
:10310000000000E0C8800000F0F0E0C8800000008F
:10311000D1D1C88000000000808080000000000045
:10312000404000000000000080C8E00000000000F7
:1031300080C8E0000000E0E080C8E000000000007F
:103140000080C8E000000000000080C8E0F0F0F05F
:1031500000000080C8D1D1D10000000080808080B4
:10316000000000000040404000000080C8E0000077
:1031700000000080C8E0000000000080C8E00000FF
:1031800000000080C8E000000000004080D1F0F0A6
:10319000000000004080D1D100000000004080808D
:1031A000000000000000404000E0C8800000000077
:1031B00000E0C8800000000000E0C88000000000BF
:1031C00000E0C88000000000F0D180400000000056
:1031D000D18040000000000080400000000000009E
:1031E00040000000000000004080D1F0000000001E
:1031F00080C8E0000000E0E080C8E00000000000BF
:103200000080C8E000000000000080C8E0F0F0F09E
:1032100000000080C8D1D1D10000000080808080F3
:103220000000000000404040000000F0D18040005D
:10323000E0000000E0C8800000000000E0C880005E
:10324000000000E0C8800000F0F0E0C8800000004E
:10325000D1D1C88000000000808080000000000004
:103260004040000000000000004080D1F00000005D
:103270000080C8E0E0E0E0E080C8E000000000007E
:1032800080C8E000000000004080D1F0F0F0F0F0D5
:10329000004080D1D1D1D1D1000040808080808099
:1032A000000000404040404000000000408080801E
:1032B0000000004080C8C8C800004080D1E0E0E0C5
:1032C000004080D1F00000004080D1F000000000FC
:1032D00080C8E0000000F0F080C8E0000000E0D10D
:1032E00080C8E0000000E0C880808080000000000E
:1032F000C8C8C8C880000000E0E0E0E0C880000066
:1033000000000000E0C8800000000000E0C880006D
:10331000F0F0F0F0D1804000D1D1D1D18040000058
:1033200080808080400000000000008080808080DD
:10333000000080C8C8C8C8C80080C8E0E0E0E0E07D
:1033400080C8E0000000000080C8E000000000002D
:1033500080C8E0000000F0F080C8E0000000E0D18C
:1033600080C8E0000000E0C880804000000000004D
:10337000C8C8804000000000E0E0D18040000000AC
:103380000000F0D180400000000000F0D18040003B
:10339000F0000000E0C88000E0000000E0C880000D
:1033A000E0000000E0C88000808080800000000015
:1033B000C8C8C8C880000000E0E0E0E0C8800000A5
:1033C00000000000E0C8800000000000E0C88000AD
:1033D000F0F0F0F0D1804000F0F0F0D1804000003B
:1033E000000000E0C88000000000000040808080F5
:1033F0000000004080C8C8C800004080D1E0E0E084
:10340000004080D1F00000004080D1F000000000BA
:1034100080C8E0000000F0F080C8E0000000E0E0BC
:1034200080C8E0000000E0F08080808000000000A4
:10343000C8C8C8C880000000E0E0E0E0C880000024
:1034400000000000E0C8800000000000E0C880002C
:10345000F0F0F0F0D1804000F0F0F0F0D1804000CA
:1034600000000000E0C880000000008080800000B4
:10347000000080C8C8C880000080C8E0E0E0C880C4
:1034800080C8E0000000E0C880C8E0000000E0C89C
:1034900080C8E0000000E0D180C8E0000000F0F04B
:1034A00080C8E00000000000008080800000000074
:1034B00080C8C8C880000000C8E0E0E0C880000004
:1034C000E0000000E0C88000E0000000E0C88000EC
:1034D000E0000000E0C88000F0000000E0C88000CC
:1034E00000000000E0C88000000000408080808074
:1034F00000004080C8C8C8C8004080D1E0E0E0E0DB
:103500004080D1F0000000004080D1F000000000B9
:103510000080C8E0F0F00000000080C8D1E00000AA
:1035200000000080C8E000008080804000000000B3
:10353000C8C8C88040000000E0E0E0D18040000042
:10354000000000F0D1804000000000F0D180400079
:1035500000F0F0E0C880000000E0D1C8800000006A
:1035600000E0C88000000000000000000000000033
:1035700000000000000000000000000000000080CB
:1035800000000000000080C800000000000080C8AB
:1035900000000040404080C800004080808080C81B
:1035A000004080D1D1D180C8008080800000000020
:1035B00080C8C8C880000000C8E0E0E0C880000003
:1035C000E0000000E0C88000E0000000E0C88000EB
:1035D000E0000000E0C88000E0000000E0C88000DB
:1035E000E0000000E0C8800080C8E00000000000AB
:1035F00080C8E0000000E0E080C8E0000000E0C813
:1036000080C8E0000000E0C84080D1F0F0F0D18038
:10361000004080D1D1D180400000408080804000B7
:10362000000000404040000000000000E0C88000B2
:10363000E0000000E0C88000E0000000E0C880007A
:10364000E0000000E0C88000D1F0F0F0D180400040
:1036500080D1D1D1804000004080808040000000B7
:10366000004040400000000080C8E0000000E0C8CA
:1036700080C8E0000000E0E080C8E000000000003A
:103680000080C8E000000000000080C8E0F0F0F01A
:1036900000000080C8D1D1D100000000808080806F
:1036A0000000000000404040C8C8C8C880000000BA
:1036B000E0E0E0E0C880000000000000E0C880001A
:1036C00000000000E0C88000F0F0F0F0D180400081
:1036D000D1D1D1D1804000008080808040000000A6
:1036E000404040400000000080C8E0000000E0C80A
:1036F00080C8E0000000E0E080C8E00000000000BA
:1037000080C8E000000000004080D1F0F0F0F0F050
:10371000004080D1D1D1D1D1000040808080808014
:103720000000004040404040E0000000E0C8800051
:10373000E0000000E0C8800000000000E0C8800059
:10374000000000E0C8800000F0F0E0C88000000049
:10375000D1D1C880000000008080800000000000FF
:103760004040000000000000000000E0C8800000B1
:10377000E0E0E0E0C880000000000000E0C8800059
:1037800000000000E0C88000F0F0F0F0D1804000C0
:10379000D1D1D1D1804000008080808040000000E5
:1037A0004040404000000000000000E0C8800000F1
:1037B000E0E0E0C880000000C8C8C8800000000049
:1037C0008080800000000000400000000000000039
:1037D00000000000000000000000000000000000E9
:1037E000000000000000000080C8E0000000E0F0E1
:1037F00080C8E0000000E0E080C8E00000000000B9
:103800000080C8E000000000000080C8E0F0F0F098
:1038100000000080C8D1D1D10000000080808080ED
:10382000000000000040404000000000E0C88000B0
:10383000E0000000E0C8800000000000E0C8800058
:1038400000000000E0C88000F0F0F0F0D1804000FF
:10385000D1D1D1D180400000808080804000000024
:10386000404040400000000000004080C8E00000F0
:10387000004080D1E0E000004080D1F00000000076
:103880004080D1F0000000000080C8E0F0F0F0F0CF
:10389000000080C8D1D1D1D100000080808080801C
:1038A000000000004040404000E0C88040000000B0
:1038B00000E0E0D180400000000000F0D180400036
:1038C000000000F0D1804000F0F0F0E0C88000007F
:1038D000D1D1D1C88000000080808080000000002D
:1038E00040404000000000004080D1F0F0F0D1C81E
:1038F00080C8E0000000E0E080C8E00000000000B8
:103900000080C8E000000000000080C8E0F0F0F097
:1039100000000080C8D1D1D10000000080808080EC
:103920000000000000404040000000808080000057
:10393000000080C8C8C880000080C8E0E0E0C880FF
:1039400080C8E0000000E0C880C8E0000000E0E0BF
:1039500080C8E0000000E00080C8E0000000000037
:1039600080C8E000000000000080808000000000AF
:1039700080C8C8C880000000C8E0E0E0C88000003F
:10398000E0000000E0C88000000000F0D1804000AE
:103990000000F0D18040000000F0D1804000000025
:1039A000F0D1804000000000000000808080000016
:1039B000000080C8C8C880000080C8E0E0E0C8807F
:1039C00080C8E0000000E0C880C8E0000000E0C857
:1039D00080C8E0000000E0C880C8E0000000E0C847
:1039E00080C8E0000000E0C8000000000000000007
:1039F00000000000000000000000000000000000C7
:103A000080000000000000008000000000000000B6
:103A100080000000000000008000000000000000A6
:103A20008080808000000000000000808080000016
:103A3000000080C8C8C880000080C8E0E0E0C880FE
:103A400080C8E0000000E0C880C8E000000000E09E
:103A500080C8E0000000000080C8E0000000000016
:103A600080C8E0000000F0000080808000000000BE
:103A700080C8C8C880000000C8E0E0E0C88000003E
:103A8000E0000000E0C8800000000000E0C8800006
:103A900000000000E0C8800000000000E0C88000D6
:103AA000F0000000E0C8800000808080000000007E
:103AB00080C8C8C880000000C8E0E0E0C8800000FE
:103AC000E0000000E0C88000E0000000E0C88000E6
:103AD000E0000000E0C8800000000000E0C88000B6
:103AE00000000000E0C8800080808000000000002E
:103AF000C8C8C88000000000E0E0E0C88000000006
:103B0000000000E0C880000000000000E0C8800065
:103B1000F0000000E0C88000F0F0E0E0C8800000A5
:103B2000000000E0C88000000000008080808080ED
:103B3000000080C8C8C8C8C80080C8E0E0E0E0E075
:103B400080C8E0000000000080C8E0000000000025
:103B50004080D1F0F0F00000004080D1D1E00000C2
:103B600000004080C8E000008080808000000000ED
:103B7000C8C8C8C880000000E0E0E0E0C8800000DD
:103B800000000000E0C8800000000000E0C88000E5
:103B900000F0F0F0D180400000E0D1D18040000082
:103BA00000E0C8804000000080C8E0000000000085
:103BB00080C8E0000000F00080C8E0000000E0F0F5
:103BC00080C8E0000000E0D14080D1F0F0F0D1806A
:103BD000004080D1D1D180400000408080804000F2
:103BE000000000404040000000E0C88000000000ED
:103BF0000000E0C880000000000000E0C880000075
:103C0000F0000000E0C88000D1F0F0F0D18040006A
:103C100080D1D1D1804000004080808040000000F1
:103C2000004040400000000080C8E0000000E0F0DC
:103C300080C8E0000000E0D180C8E0000000E0C8DB
:103C400080C8E0000000E0C84080D1F0F0F0D180F2
:103C5000004080D1D1D18040000040808080400071
:103C60000000004040400000E0000000E0C880008C
:103C7000E0000000E0C88000E0000000E0C8800034
:103C8000E0000000E0C88000D1F0F0F0D1804000FA
:103C900080D1D1D180400000408080804000000071
:103CA000004040400000000000000000E0C880002C
:103CB000F0000000E0C88000E0000000E0C88000E4
:103CC000E0000000E0C88000D1F0F0F0D1804000BA
:103CD00080D1D1D180400000408080804000000031
:103CE00000404040000000000000F0D18040000093
:103CF000E0E0D18040000000C8C880400000000023
:103D00008080400000000000400000000000000033
:103D100000000000000000000000000000000000A3
:103D2000000000000000000080C8E0000000E0E0AB
:103D300080C8E0000000E0F080C8E0000000000063
:103D40000080C8E000000000000080C8E0F0F0F053
:103D500000000080C8D1D1D10000000080808080A8
:103D60000000000000404040F0000000E0C880007B
:103D700000000000E0C8800000000000E0C88000F3
:103D800000000000E0C88000F0F0F0F0D1804000BA
:103D9000D1D1D1D1804000008080808040000000DF
:103DA00040404040000000000000F0D18040000092
:103DB0000000E0C880000000000000E0C8800000B3
:103DC000F0000000E0C88000D1F0F0F0D1804000A9
:103DD00080D1D1D180400000408080804000000030
:103DE0000040404000000000004080D1F000000092
:103DF0004080D1F0F0F0E0E080C8E000000000007A
:103E00004080D1F000000000004080D1F0F0F0F0E0
:103E100000004080D1D1D1D100000040808080805E
:103E20000000000040404040000000808080000012
:103E3000000080C8C8C880000080C8E0E0E0C880FA
:103E400080C8E0000000E0C880C8E0000000E0C8D2
:103E500080C8E0000000E0C880C8E0000000E0E0AA
:103E600080C8E0000000E00000000080800000004A
:103E7000000080C8C88000000080C8E0E0C8800062
:103E800080C8E00000E0C88080C8E0000000E0C812
:103E90004080D1F0000000E0004080D1F000000040
:103EA00000004080D1F00000000080800000000091
:103EB0000080C8C88000000080C8E0E0C880000022
:103EC000C8E00000E0C88000E0000000E0C880001A
:103ED000000000F0D18040000000F0D180400000E0
:103EE00000F0D18040000000000000808040000011
:103EF000000080C8C88040000080C8E0E0D1804059
:103F000080C8E00000F0D18080C8E0000000F0D15F
:103F10000080C8E0000000F0000080C8E000000061
:103F200000000080C8E00000004080800000000029
:103F30004080C8C88000000080D1E0E0C880000058
:103F4000D1F00000E0C88000F0000000E0C8800070
:103F5000000000E0C88000000000E0C88000000011
:103F600000E0C880000000000000008080808080A9
:103F7000000080C8C8C8C8C80080C8E0E0E0E0E031
:103F800080C8E0000000000080C8E00000000000E1
:103F90004080D1F0F0F0F0F0004080D1D1D1E000CD
:103FA00000004080C8E000008080808000000000A9
:103FB000C8C8C8C880000000E0E0E0E0C880000099
:103FC00000000000E0C8800000000000E0C88000A1
:103FD000000000F0D18040000000F0D180400000DF
:103FE00000F0D18040000000000000000000808050
:103FF000000000000080C8C80000000080C8E0E0A9
:1040000000000080C8E0000000000080C8E0000060
:1040100000000080C8E0000000000080C8E0000050
:1040200000000080C8E000000000000000004080A8
:1040300000000000004080C8000000004080D1E087
:104040000000004080D1F00000004080D1F000006E
:1040500000004080D1F0000000004080D1F000005E
:1040600000004080D1F000008080000000000000CF
:10407000C8C8800000000000E0E0C8800000000028
:104080000000E0C8800000000000E0C880000000E0
:10409000F0F0D18040000000F0D18040000000002E
:1040A000F0D180400000000000000000808080808F
:1040B00000000080C8C8C8C8000080C8E0E0E0E098
:1040C0000080C8E00000000080C8E00000000000A0
:1040D00080C8E0000000F0F00080C8E0E0E0E0F020
:1040E000000080C8C8E00000000000000080808060
:1040F0000000000080C8C8C800000080C8E0E0E000
:10410000000080C8E0000000000080C8E00000005F
:1041100000004080D1F0F0000000004080D1F000AD
:104120000000004080D1F0004000000000000000CE
:104130008040000000000000D1804000000000002E
:10414000F0D180400000000000F0D180400000006D
:1041500000F0D1804000000000F0D180400000005D
:1041600000F0D1804000000080C8E0000000E0C8FE
:104170004080D1F0000000E0004080D1F00000005D
:1041800000004080D1F000000000004080D1F0F03D
:10419000000000004080D1D100000000004080807D
:1041A0000000000000004040E0000000E0C8800087
:1041B000000000F0D18040000000F0D180400000FD
:1041C00000F0D18040000000F0D1804000000000ED
:1041D000D18040000000000080400000000000008E
:1041E000400000000000000080C8E0000000000067
:1041F00080C8E0000000000080C8E000000000F07F
:1042000080C8E0000000F0D14080D1F0F0F0D18013
:10421000004080D1D1D180400000408080804000AB
:10422000000000404040000000000000E0C88000A6
:1042300000000000E0C8800000000000E0C880002E
:10424000F0000000E0C88000D1F0F0F0D180400024
:1042500080D1D1D1804000004080808040000000AB
:104260000040404000000000000080C8E000000066
:104270000080C8E0000000F080C8E0000000F0D13D
:1042800080C8E00000F0D1804080D1F0F0D18040C3
:10429000004080D1D180400000004080804000007C
:1042A00000000040400000000000E0C88000000066
:1042B000000000E0C8800000F0000000E0C88000BE
:1042C000D1F00000E0C8800080D1F0F0D180400043
:1042D0004080D1D18040000000408080400000003C
:1042E0000000404000000000000080C8E000000026
:1042F0000080C8E0000000F080C8E000000000007E
:1043000080C8E000000000004080D1F0F0F0F0F044
:10431000004080D1D1D1D1D1000040808080808008
:104320000000004040404040F0D1C8C8800000007C
:10433000E0E0E0E0C880000000000000E0C880008D
:1043400000000000E0C88000F0F0F0F0D1804000F4
:10435000D1D1D1D180400000808080804000000019
:10436000404040400000000000000080C8E0E0E065
:1043700000000080C8E0000000000080C8E00000ED
:1043800000000080C8E000000000004080D1F0F094
:10439000000000004080D1D100000000004080807B
:1043A0000000000000004040E0E0C8800000000085
:1043B00000E0C8800000000000E0C88000000000AD
:1043C00000E0C88000000000F0D180400000000044
:1043D000D18040000000000080400000000000008C
:1043E000400000000000000000004080D1F000000C
:1043F00000004080D1F0000000004080D1F00000BB
:1044000000000080C8E000000000000080C8E0F06C
:10441000000000000080C8D1000000000000808083
:104420000000000000000040F0D1804000000000CB
:10443000F0E0C880000000000000E0C8800000003C
:104440000000E0C880000000F0F0D18040000000D3
:10445000D1D18040000000008080400000000000BA
:10446000404000000000000000004080D1F000004B
:1044700000004080D1F0E0E000004080D1F000007A
:1044800000004080D1F0000000000080C8E0F0F0A3
:104490000000000080C8D1D10000000000808080B2
:1044A00000000000000040400000F0D1804000000B
:1044B000F0E0D18040000000F0D18040000000001A
:1044C000F0D1804000000000E0C880000000000043
:1044D000C880000000000000800000000000000014
:1044E00000000000000000000000004080D1F0004B
:1044F00000000080C8E0F000000080C8E00000007C
:10450000000080C8E000000000004080D1F0F0F022
:104510000000004080D1D1D10000000040808080A8
:10452000000000000040404000F0D180400000004A
:1045300000F0D1804000000000F0D1804000000079
:1045400000E0C88000000000E0C88000000000001B
:10455000C880000000000000800000000000000093
:104560000000000000000000525365665455676863
:104570005657696A58596B665A5B6C6D5C5D6E6F15
:104580005E5D706F5F607172616273746364756F9A
:104590005E6483845C6269747677858678798788BF
:1045A0005C7A69895C7A838A7B7C8B8C7D7E838450
:1045B0007F808D8E81828F8890919A9B929387863F
:1045C00094959C9D94969C9E767985885C57839F54
:1045D0007679A0A15C579AA26397A36F989971729C
:1045E000928285889282B1B2A482B3B4A5A6B5B6F0
:1045F000A7A87172A9AAB7B8AB55B9BAACADBBBC84
:10460000AE57BDBEAFB0BFC000020400030C000730
:1046100043000ACB00099E0300FF0300FE0300F9DC
:104620000300F30B050000FF00020500074800002F
:10463000080106000000F900FF00020300070A015C
:104640000007000ADF0009AA0700FF1300FC0006AC
:10465000000300F60400F400FF00FF000112000751
:104660002E0000FC0101170101120100F400FF00FF
:1046700001020007220000FF010101010102020105
:10468000010500FE40FF0001050007200000F802C0
:1046900001070201030101010200F400FF00FF0015
:1046A000020400030C000743000ACB00099E03002C
:1046B000FF0300FE0300F90300F30B050000FF00F9
:1046C00002050007480000080106000000F900FF8D
:1046D00000020300070A010007000ADF0009AA0719
:1046E00000FF1300FC0006000300F60400F400FFC6
:1046F00000FF00011200072E0000FC01011701015C
:10470000120100F400FF0001020007220000FF0177
:1047100001010101020201010500FE40FF00010547
:104720000007200000F80201070201030101010255
:1047300000F400FF0001010007900000E200FF000C
:104740000202000746000AB40009630300FF0300E9
:10475000FE0300F90300F300FF00020400073E001F
:1047600000080000F900FF00020300071B0300FF20
:104770000300FE0300F90300F30B050000FF00FF38
:1047800000FF00FF00FF00FF0002040007430000DD
:10479000FF0400FE0700F90600F30B050000FF0010
:1047A0000204000ADF0009DE0007490000030200DE
:1047B000FF0C00FE00FF000204000732000AF400B4
:1047C00009AA0000FF0C00FE0800FD0400FC00FF29
:1047D00000011200072E0000FC0101170101120167
:1047E00000F400FF0001020007220000FF010101A8
:1047F0000101020201010500FE40FF000101000766
:10480000220000FF0101010101020201010500FE79
:1048100040FF0001050007200000F8020107020127
:10482000030101010200F400FF00FF00073C000843
:104830001D02082101082502082703082D0000FD9C
:104840000408300208340000F301083C00FF0007B0
:104850004A00084501083E02083A0000FD010837F9
:1048600003082F0000F9010828020824010821008C
:10487000FF00072400082202082701083502083B30
:104880000308420000FD04084A02084F0000F3013B
:10489000085000FF00074A00084501083E02083A98
:1048A0000000F701083703082F00FF00020000088E
:1048B000280007BE000CE0000BE20F00FFB4FF0071
:1048C0000700000203000827010750000CE0000B5E
:1048D000E20000FFB4FF00000008460000000000F6
:1048E00000002846000000000000003946000000DB
:1048F000000000005946000000000100005B460077
:104900000000000100006F4600000000010000866A
:1049100046000000000100009D460000000000006D
:10492000009F4600000000000000BF46000000009D
:10493000000000D04600000000000000F04600002B
:104940000000010000F246000000000100000647E0
:10495000000000000100001D4700000000010000F1
:104960003447000000000000003F47000000000046
:1049700000005947000000000000006747000000E9
:10498000000000007E47000000000100008047009A
:1049900000000001000082470000000001000084C8
:1049A00047000000000100008647000000000000F2
:1049B000008847000000000000009F470000000042
:1049C000000000B64700000000000000D0470000D3
:1049D0000000010000E44700000000010000FB4768
:1049E000000000000100001248000000000100006B
:1049F0002948000000000200812B4800000001024D
:104A000000804E4800000001020081714800000053
:104A10000102008094480000000100007EAB4800C5
:104A2000000001020080BF480000000100C000003B
:104A3000C10100C20200C3020090234000B2077F00
:104A40000093044000FF0601530F9023400F2740BE
:104A500000930640079023400F234008274000930F
:104A600004401E922F40009306401E90214000916A
:104A7000214000930440079120400890214000917C
:104A800021400F90264000930640079021400F21BF
:104A900040082640009304401E922D40009306409B
:104AA0001E901E4000911E400093044007911D403F
:104AB00008901E4000911E400F9023400093064036
:104AC00007901E400F1E40082340009304401E9292
:104AD0002A40009306401E902140009121400093FF
:104AE000044007912040089021400091214000930C
:104AF0000440070440089026400091264000930699
:104B000040079021400091214008902340009123CC
:104B1000400F90234000912340009304400F902ABF
:104B20004000912A4000930440070440089023402D
:104B300000912340009305400F902B4000912B40A3
:104B40000F9023400091234007224008902340000B
:104B50009123400F90274000930640079023400F79
:104B60002340082740009304401E922F40009306E4
:104B7000401E902140009121400093044007912065
:104B80004008902140009121400F9026400093065C
:104B900040079021400F2140082640009304401E0A
:104BA000922D40009306401E901E4000911E400032
:104BB00093044007911D4008901E4000911E400F35
:104BC0009023400093064007901E400F1E4008238C
:104BD00040009304401E922A40009306401E9021FC
:104BE000400091214000930440079120400890210B
:104BF0004000912140009304400704400890264063
:104C000000912640009306400790214000912140EA
:104C100008902340009123400F90234000912340AF
:104C2000009304400F902A4000912A4000930440D2
:104C30000790234000912340009304400805400F53
:104C4000902340009123400F902A4000912A400079
:104C5000922A400F90234000912340009223400F5E
:104C6000902A4000912A4000922A40009306400F6B
:104C7000902B4000912B4000922B40009304400762
:104C8000902A4000912A4000922A40089304400F45
:104C90009023400091234000922340009306401649
:104CA000064008902140009121400092214000934D
:104CB00004400704400890284000912840009228B2
:104CC0004000930440070440089021400091214097
:104CD00000922140009306400F9028400091284008
:104CE00000922840009306400F90294000912940EF
:104CF00000922940009304400790284000912840EA
:104D00000092284008930440070640089021400084
:104D100091214000922140079306400806400F90E1
:104D20001E4000911E4000921E40009304400F90D0
:104D3000254000912540009225400093044007043F
:104D40004008901E4000911E4000921E40009304B7
:104D500040070440089025400091254000922540DE
:104D6000009306400F902640009126400092264076
:104D70000093044007902540009125400092254073
:104D8000089304400F901E4000911E4000921E4068
:104D900000930640160640089021400091214000F3
:104DA000922140009304400704400890284000915D
:104DB00028400092284000930440070440089021B6
:104DC000400091214000922140009306400F90281E
:104DD000400091284000922840009306400F9029FF
:104DE00040009129400092294000930440079028F8
:104DF00040009128400092284008902B4000912BC1
:104E00004000922B400093044007902A4000912AD2
:104E10004000922A400093064008902D4000912DBA
:104E20004000922D4007902B4000912B4000922B88
:104E3000400093064008902A4000912A4000922AA0
:104E400040009306400F902340009123400092239E
:104E500040009305400F902A4000912A4000922A7A
:104E6000400F90234000912340009223400F902A4E
:104E70004000912A4000922A40009306400F902B58
:104E80004000912B4000922B400093044007902A51
:104E90004000912A4000922A40089304400F90233A
:104EA00040009123400092234000930640160640A4
:104EB000089021400091214000922140009304403D
:104EC00007044008902840009128400092284000A4
:104ED0009304400704400890214000912140009233
:104EE0002140009306400F902840009128400092F6
:104EF0002840009306400F902940009129400092DD
:104F000029400093044007902840009128400092D7
:104F10002840089304400706400890214000912152
:104F20004000922140079306400806400F901E4023
:104F300000911E4000921E40009304400F902540B7
:104F4000009125400092254000930440070440084A
:104F5000901E4000911E4000921E400093044007A6
:104F60000440089025400091254000922540009380
:104F700006400F9026400091264000922640009364
:104F80000440079025400091254000922540089359
:104F900004400F901E4000911E4000921E4000935E
:104FA00006401606400890214000912140009221C1
:104FB0004000930440070440089028400091284096
:104FC00000922840009304400704400890214000CC
:104FD00091214000922140009306400F902840000C
:104FE00091284000922840009306400F90294000ED
:104FF00091294000922940009304400790284000E6
:105000009128400092284008902B4000912B4000AE
:10501000922B400093044007902A4000912A4000C0
:10502000922A400093064008902D4000912D4000A8
:10503000922D4007902B4000912B4000922B400076
:1050400093064008902A4000912A4000922A40008E
:105050009306400F902A4000912A4000922340007E
:105060009305400F902F4000912340072240089065
:105070002F40009123400F9033400093064007904B
:105080002F400F2F40083340009304401E922F40C2
:10509000009306401E902D40009121400093044053
:1050A0000791204008902D40009121400F90324000
:1050B0000093064007902D400F2D4008324000938A
:1050C00004401E922D40009306401E902A400091FD
:1050D0001E400093044007911D4008902A40009113
:1050E0001E400F902F400093064007902A400F2A41
:1050F00040082F40009304401E922A40009306402F
:105100001E902D40009121400093044007912040C3
:1051100008902D400091214000930440070440086E
:10512000903240009126400093064007902D4000A9
:1051300091214008902F40009123400F902F400074
:10514000912340009304400F90364000912A400084
:1051500093044007044008902F400091234000939F
:1051600005400F90374000912B400F902F40009149
:10517000234007224008902F40009123400F903396
:10518000400093064007902F400F2F400833400007
:105190009304401E922F40009306401E902D400025
:1051A000912140009304400791204008902D400039
:1051B0009121400F9032400093064007902D400F00
:1051C0002D40083240009304401E922D400093066B
:1051D000401E902A4000911E400093044007911DFC
:1051E0004008902A4000911E400F902F40009306E7
:1051F0004007902A400F2A40082F40009304401E89
:10520000922A40009306401E902D400091214000BC
:105210009304400791204008902D400091214000C8
:1052200093044007044008903240009126400093C8
:10523000064007902D400091214008902F4000919A
:1052400023400F902F4000912340009304400F9083
:10525000364000912A400093044007902F4000916F
:105260002340009304400805400F902F40009123F5
:10527000400F90364000912A4000922A400F902F14
:105280004000912340009223400F90364000912A25
:105290004000922A40009306400F90374000912B27
:1052A0004000922B40009304400790364000912A22
:1052B0004000922A40089304400F902F4000912311
:1052C00040009223400093064016064008902D406F
:1052D00000912140009221400093044007044008BF
:1052E00090344000912840009228400093044007E9
:1052F000044008902D4000912140009221400093ED
:1053000006400F90344000912840009228400093BE
:1053100006400F90354000912940009229400093AB
:1053200004400790344000912840009228400893A0
:10533000044007064008902D400091214000922132
:1053400040079306400806400F902A4000911E40F7
:1053500000921E40009304400F9031400091254080
:10536000009225400093044007044008902A400022
:10537000911E4000921E4000930440070440089094
:1053800031400091254000922540009306400F9047
:10539000324000912640009226400093044007903E
:1053A00031400091254000922540089304400F9021
:1053B0002A4000911E4000921E40009306401606AF
:1053C0004008902D4000912140009221400093041C
:1053D0004007044008903440009128400092284043
:1053E0000093044007044008902D400091214000A4
:1053F000922140009306400F9034400091284000D5
:10540000922840009306400F9035400091294000BB
:1054100092294000930440079034400091284000B6
:105420009228400890374000912B4000922B40007A
:105430009304400790364000912A4000922A400091
:105440009306400890394000912D4000922D40076E
:1054500090374000912B4000922B4000930640086B
:1054600090364000912A4000922A40009306400F57
:10547000902F400091234000922340009305400F5D
:1054800090364000912A4000922A400F902F400011
:10549000912340009223400F90364000912A400013
:1054A000922A40009306400F90374000912B400015
:1054B000922B40009304400790364000912A400010
:1054C000922A40089304400F902F400091234000FF
:1054D0009223400093064016064008902D4000910C
:1054E000214000922140009304400704400890347A
:1054F0004000912840009228400093044007044057
:1055000008902D40009121400092214000930640D8
:105510000F903440009128400092284000930640AC
:105520000F9035400091294000922940009304409B
:10553000079034400091284000922840089304408E
:1055400007064008902D400091214000922140071D
:105550009306400806400F902A4000911E4000929A
:105560001E40009304400F9031400091254000926E
:1055700025400093044007044008902A4000911EF3
:105580004000921E400093044007044008903140C0
:105590000091254000922540009306400F90324034
:1055A000009126400092264000930440079031402D
:1055B0000091254000922540089304400F902A4016
:1055C00000911E4000921E400093064016064008BF
:1055D000902D40009121400092214000930440070B
:1055E00004400890344000912840009228400093E5
:1055F000044007044008902D400091214000922172
:1056000040009306400F90344000912840009228BB
:1056100040009306400F90354000912940009229A8
:1056200040009304400790344000912840009228A5
:10563000400890374000912B4000922B400093048B
:10564000400790364000912A4000922A400093067D
:10565000400890394000912D4000922D400790372E
:105660004000912B4000922B40009306400890365A
:105670004000912A4000922A40009306400F903645
:105680004000912A4000922340009305400FFF06FE
:10569000014500FF2F0000C00800C10900C20A0038
:1056A000C30B00B0077600902E400091224000B25C
:1056B000077F00922E4000930C4000FF0601530F1D
:1056C000902E4000922E400F902E400091264000D8
:1056D000922E4000930E400F902C400091264000E7
:1056E000922C400F902E400091224000922E4000BC
:1056F000930C401A9034400092354004903540009D
:105700009126400092354000930E401E902E40009E
:1057100091224000922E4000930C400F902E4000AA
:10572000922E400F902E400091264000922E400075
:10573000930E400F902C400091264000922C400F79
:10574000902E400091224000922E4000930C401A6F
:105750009035400092324004903240009126400043
:1057600092324000930E401E902E40009122400045
:10577000922E4000930C400F902E4000922E400F2E
:10578000902E400091264000922E4000930E400F34
:10579000902C400091264000922C400F902E40000B
:1057A00091224000922E4000930C401A9034400009
:1057B00092354004903540009126400092354000DB
:1057C000930E401E903540009129400092354000D4
:1057D000930E400F90334000912740009233400FCA
:1057E000903240009126400092324000930C400FCE
:1057F00090304000912440009230400F902E4000A5
:1058000091224000922E4000930E401A91154004C0
:105810009034400092354000930C40039035400096
:10582000923540049034400092344004903540005A
:10583000923540049034400092354000930C400370
:10584000903540009235400C902E4000912240004F
:10585000922E4000930C400F902E4000922E400F4D
:10586000902E400091264000922E4000930E400F53
:10587000902C400091264000922C400F902E40002A
:1058800091224000922E4000930C401A9034400028
:1058900092354004903540009126400092354000FA
:1058A000930E401E902E400091224000922E400008
:1058B000930C400F902E4000922E400F902E4000EF
:1058C00091264000922E4000930E400F902C4000F5
:1058D00091264000922C400F902E400091224000D3
:1058E000922E4000930C401A9035400092324004B2
:1058F000903240009126400092324000930E401EAC
:10590000902E400091224000922E4000930C400FB8
:10591000902E4000922E400F902E40009126400085
:10592000922E4000930E400F902C40009126400094
:10593000922C400F902E400091224000922E400069
:10594000930C401A9034400092354004903540004A
:105950009126400092354000930E401E9035400045
:105960009129400092354000930D400F9033400044
:10597000912740009233400F903240009126400022
:1059800092324000930C40070C4008903040009148
:1059900024400092304000930E40070C4008902EA7
:1059A000400091224000922E400F930E400F903401
:1059B00040009118400092354003903540009235E8
:1059C00040049034400092344004903540009235B9
:1059D00040049034400092354000930E40039035CF
:1059E00040009235400C902E400091224000922EB3
:1059F0004000930C400F902E400091224000922EC8
:105A00004000930C40070C40089030400091264025
:105A10000092304000930E400F903240009232408E
:105A20000F903540009122400092354000930C4089
:105A30000F903340009122400092334000930C407D
:105A4000070C4008903240009129400092324000FB
:105A5000930E401E902E400091224000922E400056
:105A6000930C400F902E400091224000922E400057
:105A7000930C40070C400890304000912640009263
:105A8000304000930E400F9032400091224000922F
:105A900032400F90304000912940009230400093F6
:105AA0000E40070C4008903340009127400092338D
:105AB0004000930C40070C40089030400091264075
:105AC0000092304000930E40070C40089035400093
:105AD00092354000930C40070C4008902E400091F6
