:100000000C944C3A0C94B03A0C94B03A0C94B03A2C
:100010000C94B03A0C94B03A0C94B03A0C94B03AB8
:100020000C94B03A0C94B03A0C94B03A0C94B03AA8
:100030000C94B03A0C94863C0C94C63C0C94B03AA8
:100040000C94B03A0C94B03A0C94B03A0C94B03A88
:100050000C94B03A0C94B03A0C94B03A0C94B03A78
:100060000C94B03A0C94B03A0C94B03A0C94B03A68
:100070005A5501200101003808000000000000006E
:100080000000000000000000000000000000000070
:100090008100450027FF24FF2A902B1C210C22FB06
:1000A000850084008903888D81096F0244424700DE
:1000B0004501B083B300B10125118A4F8B03B43FD2
:1000C000B73FFC43AD40A540C03FC53FCA3F93404A
:1000D000CD3FD03FD33F174000408891D2E4ADB52B
:1000E000B6BEBFFF00020100071400001603001097
:1000F0000100000000E703FF0002000007140000F9
:10010000020700010100000000F609FF00020400E0
:10011000071400000B0400070100000300FC0200AC
:10012000F906FF00010800072C0000E20100F101C0
:1001300000F802050000FF0001050007210000E2B1
:100140000100F10100F801050000FF0002010007B5
:10015000100000080100200300100100000006004C
:100160000000E703FF000204000716000010010072
:10017000120100140100000500FF0200FE0200FD54
:100180000200FC06FF0006FF00010200071200004B
:10019000F80100FB01050000FF0001060007140044
:1001A00000F80100FB01050000FF00FF00FF00FF59
:1001B00000FF00FF0002010009C8000A3700071411
:1001C00000001201001A02001001000000060000E9
:1001D00000E703FF00020400071400000A02000702
:1001E0000100040100000100FF0100FE0100FC020B
:1001F00000F904FF000201000714000016030010BC
:100200000100000000E703FF00010A0007120000E0
:10021000F80100FB01050000FF00010600071200C5
:1002200000F80100FB01050000FF000102000712B9
:100230000000F80100FB01050000FF00FF00FF00C7
:1002400009B4000A3C00020100071400000B03007F
:10025000110100160100000500EA03FF000204007E
:10026000070C0000100400000300F509FF00020461
:1002700000070201000401000601000801000A0154
:10028000000C0400000006000000F40100F601006C
:10029000F80100FA01FF0001010007210000F1014F
:1002A00000F802050000FF0001050007210000F131
:1002B0000100F802050000FF00010900072100000D
:1002C000F10100F802050000FF00FF000201000735
:1002D0001400002104000000060000098C000A2719
:1002E0000000E703FF00020100071B0100160300E6
:1002F000000006000000E703FF00020100071400F1
:1003000000160400000006000000E703FF000101E2
:100310000007210000F10100F802050000FF0001C4
:10032000050007210000F10100F802050000FF00B0
:10033000FF00FF00FF00FF00FF00077F0002020038
:1003400000FF000843010404010404010404010443
:10035000040104040104040104040104040104046C
:1003600001040402076400083C01040401040401C0
:10037000040401040401040401040401040401044C
:100380000401040401040402074600083C010404BB
:10039000010404010404010404010404010404012F
:1003A00004040104040104040104040207280008F1
:1003B0003C010404010404010404010404010404D4
:1003C00001040401040401040401040401040402FE
:1003D000071400083C01040401040401040401049E
:1003E00004010404010404010404010404010404DC
:1003F00001040401050000FF00077F000203000064
:10040000FF00084101040401040401040401040480
:1004100001040401040401040401040401040403AC
:10042000076400083C0104040104040104040104FD
:10043000040104040104040104040104040104048B
:1004400003075000083701040401040401040401F7
:10045000040401040401040401040401040401046B
:1004600004030732000832010404010404010404F7
:10047000010404010404010404010404010404014E
:10048000040403072800082D0104040104040104E6
:10049000040104040104040104040104040104042B
:1004A00001040403071400082801040401040401E2
:1004B000040401040401040401040401040401040B
:1004C0000401040401050000FF000700040201000C
:1004D00007FF000990000A3C0000FB0108500503DB
:1004E000050603050703050803050903050A0305B7
:1004F0000B050000FF000000E40000000000000009
:1005000000F800000000000000000C0100000000E6
:10051000010000230100000000010000370100007D
:1005200000000000004B0100000000000000650119
:100530000000000000000086010000000001000033
:100540008801000000000100009901000000000186
:100550000000AA0100000000010000AC0100000042
:1005600000010000AE0100000000010000B0010029
:10057000000000010000B20100000000000000B413
:100580000100000000000000D40100000000000095
:1005900000F401000000000100000802000000005B
:1005A0000100001902000000000100002A02000002
:1005B00000000100003B02000000000100003D02BD
:1005C000000000000000003F0200000000000000EA
:1005D0005C02000000000000006D0200000000014D
:1005E0000000960200000000010000A702000000C9
:1005F00000010000B80200000000010000C9020074
:10060000000000000000CB0200000000000000E538
:100610000200000000000000F902000000000100DC
:10062000000D03000000000100001E030000000098
:100630000100002F03000000000100003103000052
:10064000000001000033030000000001000035033A
:10065000000000000100003703000000000000005F
:10066000390300000000000000F803000000000053
:100670000000C90400000000A4A4A4A4A4A4A4A48D
:10068000A4FFFFFFFFFFFFFFA4FFFFFFFFFFFFFF30
:10069000A4FFFFF6F6F6F6F6A4FFFFF6F6F6F6F67A
:1006A000A4FFFFF6F6F6F6F6A4FFFFF6F6F6F60060
:1006B000A4FFFFF6F6F6003FA4A4A4A4A4A4A4A457
:1006C000FFFFFFFFFFFFFFFFFFFFFFFFFFFFFFFF3A
:1006D000F6F6F6F6F6F6F6F6F6F60000000000F688
:1006E00000003F3F3F3F3F003F3F3F3F3F3F3F3FD7
:1006F0003F3F3F3F3F3F3F3FA4A4A4A4A4A4A4F690
:10070000FFFFFFFFFFFFF6A4FFFFFFFFFFF6A4A41C
:10071000F6F6F6F6F6A4A4A4F6F6F6F6F6A4A4A465
:1007200000F6F6F6F6A4A4A43F00F6F6F6A4A4A4F8
:100730003F3F00F6F6A4A4A4A4FFFFF6F6003F3F57
:10074000A4FFFFF6F6003F3FA4FFFFF6003F3F3F48
:10075000A4FFFFF6003F3F3FA4FFFFF6003F3F3FEF
:10076000A4FFFFF6003F3F3FA4FFFFF6003F3F3FDF
:10077000A4FFFFF6F6003F3F3F3F3F3F3F3F3F3F75
:100780003F00003F3F3F00003F00003F3F3F000071
:100790003F3F3F3F3F3F3F3F3F3F3F3F3F3F3F3F69
:1007A0003F3F3F3F3F3F3F3F003F3F3F3F3F3F3F98
:1007B0003F003F3F3F3F3F003F3F3F00F6A4A4A420
:1007C0003F3F3F00F6A4A4A43F3F3F3F00A4A4A4A2
:1007D0003F3F3F3F00A4A4A43F3F3F3F00A4A4A449
:1007E0003F3F3F3F00A4A4A4003F3F3F00A4A4A478
:1007F0003F3F3F00F6A4A4A4A4FFFFF6F6003F3F4E
:10080000A4FFFFF6F6F6003FA4FFFFF6F6F6F600AB
:10081000A4FFFFF6F6F6F6F6A4FFFFF6F6F6F6F6F8
:10082000A4FFF6A4A4A4A4A4A4F6A4A4A4A4A4A489
:10083000F6A4A4A4A4A4A4A43F3F00000000003F89
:100840003F3F3F3F3F3F3F3F3F3F3F3F3F3F3F3FB8
:1008500000003F3F3F3F3F00F6F60000000000F67B
:10086000A4A4A4A4A4A4A4A4A4A4A4A4A4A4A4A448
:10087000A4A4A4A4A4A4A4A43F3F3F00F6A4A4A4B9
:100880003F3F00F6F6A4A4A43F00F6F6F6A4A4A405
:1008900000F6F6F6F6A4A4A4F6F6F6F6F6A4A4A4DA
:1008A000A4A4A4A4A4A4A4A4A4A4A4A4A4A4A4A408
:1008B000A4A4A4A4A4A4A4A42400243F3F3F2400EF
:1008C0000000003F3F3F00002400243F3F3F240042
:1008D0003F3F3F3F3F3F3F3F3F3F3F3F3F3F3F3F28
:1008E0003F3F3F0000003F3F3F3F24003F00243F89
:1008F0003F3F003F3F3F003F243F3F00F6A4A4A4FA
:10090000003F3F00F6A4A4A4243F3F3F00A4A4A4BA
:100910003F3F3F3F00A4A4A43F3F3F3F00A4A4A407
:100920003F3F3F3F00A4A4A43F3F3F3F00A4A4A4F7
:100930003F3F3F00F6A4A4A43F3F24003F00243FD4
:100940003F3F3F0000003F3F3F3F3F3F3F3F3F3F74
:1009500000003F3F3F3F3F00F6F60000000000F67A
:10096000A4A4A4A4A4A4A4A4A4A4A4A4A4A4A4A447
:10097000A4A4A4A4A4A4A4A4003F003F3F3F003F1C
:100980003F003F3F3F3F3F00003F003F3F3F003FB2
:100990003F3F3F3F3F3F3F3F3F3F3F3F3F3F3F3F67
:1009A0003F3F3F3F3F3F3F3F3F3F00000000003F92
:1009B0003F003F3F3F3F3F00003F3F00F6A4A4A45D
:1009C0003F3F3F00F6A4A4A4003F3F3F00A4A4A4DF
:1009D0003F3F3F3F00A4A4A43F3F3F3F00A4A4A447
:1009E0003F3F3F3F00A4A4A43F3F3F3F00A4A4A437
:1009F0003F3F3F00F6A4A4A4003F3F3F3F3F3F3F9F
:100A00003F3F3F3F3F3F3F3F3F3F3F3F3F3F3F3FF6
:100A100000003F3F3F3F3F00F6F60000000000F6B9
:100A2000A4A4A4A4A4A4A4A4A4A4A4A4A4A4A4A486
:100A3000A4A4A4A4A4A4A4A4003F3F00F6A4A4A436
:100A40003F3F00F6F6A4A4A43F00F6F6F6A4A4A443
:100A500000F6F6F6F6A4A4A4F6F6F6F6F6A4A4A418
:100A6000A4A4A4A4A4A4A4A4A4A4A4A4A4A4A4A446
:100A7000A4A4A4A4A4A4A4A4A4A4A4A4A4A4A4A436
:100A8000A4A4A4A4A4A4A4A4A4A4F6F6F6F6F6F63A
:100A9000A4A4F6F6F6F6F6F6A4A4F6F6F6F6F6F63E
:100AA000A4A4F6F6F6F6F6F6A4A4F6F6F6F6F6F62E
:100AB000A4A4F6F6F6F6F6F6A4A4A4A4A4A4A4A40A
:100AC000A4A4A4A4A4A4A4A4F6F6F6F6F6F6F6F656
:100AD000F6F6F6F6F6F6F6F6F6F6F6F6F6F6F6F6B6
:100AE000F6F6F60000000000F600003F3F3F3F3FF3
:100AF000003F3F3F3F3F3F3FA4A4A4A4A4A4A4F6CB
:100B0000A4A4A4A4A4A4A4A4F6F6F6F6F6F6F6A467
:100B1000F6F6F6F6F6F6F6A4F6F6F6F6F6F6F6A419
:100B2000F6F6F6F6F6F6F6A40000F6F6F6F6F6A4F5
:100B30003F3F00F6F6F6F6A4A4A4F6F6F6F6F600A5
:100B4000A4A4F6F6F6F6003FA4A4F6F6F6F6003FE7
:100B5000A4A4F6F6F6003F3FA4A4F6F6F6003F3F45
:100B6000A4A4F6F6F6003F3FA4A4F6F6F6003F3F35
:100B7000A4A4F6F6F6003F3F3F3F3F3F3F3F3F3FD5
:100B80003F3F3F3F3F3F3F3F3F3F00003F3F3F0032
:100B90003F3F00003F3F3F003F3F3F3F3F3F3F3F22
:100BA0003F3F3F3F3F3F3F3F3F3F3F3F3F3F3F3F55
:100BB0003F003F3F3F3F3F3F3F3F3F00F6F6F6A439
:100BC0003F3F3F3F00F6F6A4003F3F3F00F6F6A44C
:100BD000003F3F3F3F00F6A43F3F3F3F3F00F6A4AA
:100BE0003F3F3F3F3F00F6A43F3F3F3F3F00F6A45B
:100BF0003F003F3F3F00F6A4A4A4F6F6F6F6003F00
:100C0000A4A4F6F6F6F6003FA4A4F6F6F6F6F6006F
:100C1000A4A4F6F6F6F6F6F6A4A4F6F6F6F6F6F6BC
:100C2000A4A4F6F6F6F6F6F6A4A4F6F6F6F6F6F6AC
:100C3000F6A4A4A4A4A4A4A43F3F003F3F3F3F3F89
:100C40003F3F3F00000000003F3F3F3F3F3F3F3FEF
:100C5000003F3F3F3F3F3F3FF600003F3F3F3F3FAA
:100C6000F6F6F60000000000F6F6F6F6F6F6F6F6F2
:100C7000A4A4A4A4A4A4A4A4003F3F3F00F6F6A407
:100C80003F3F3F3F00F6F6A43F3F3F00F6F6F6A495
:100C90003F3F00F6F6F6F6A40000F6F6F6F6F6A4E8
:100CA000F6F6F6F6F6F6F6A4F6F6F6F6F6F6F6A488
:100CB000A4A4A4A4A4A4A4A4A4FFFFF6F6003F3F08
:100CC000A4FFFFF6F6003F3FA4FFFFF6003F3F0002
:100CD000A4FFFFF6003F003FA4FFFFF600003F3FE8
:100CE000A4FFFFF6003F3F3FA4FFFFF6003F3F3F5A
:100CF000A4FFFFF6F6003F3F3F3F3F3F3F3F3F3FF0
:100D00000000000000000000000000003F000000A4
:100D1000000000003F0000002400003F3F3F0000B3
:100D20003F3F3F3F3F3F3F3F3F3F3F3F3F3F3F3FD3
:100D30003F003F3F3F3F3F003F3F3F00F6A4A4A49A
:100D4000003F3F00F6A4A4A400003F3F00A4A4A4D9
:100D5000003F003F00A4A4A4243F3F0000A4A4A49B
:100D60003F3F3F3F00A4A4A43F3F3F3F00A4A4A4B3
:100D70003F3F3F00F6A4A4A4FE0000FEFEFEFEFEE0
:100D8000FE00FF00FEFEFEFEFE00FFFF00FEFEFE78
:100D9000FE00FFFFFF00FEFEFE00FFFFFFFF00FE64
:100DA000FE000000FF00FEFEFEFEFE00FFFF00FE54
:100DB000FEFEFEFE000000FE010203040506070819
:100DC00009010203040A0B070C09010203040D0EBA
:100DD000070F101112131415161718190102031A10
:100DE0001B1C070809FFFFFFFFFFFFFFFFFFFFFFBF
:100DF000FFFFFFFFFFFFFFFFFFFFFFFFFFF6F6F61E
:100E0000F6F6F6F6F6F6F6F6F6F6F6F6F6F6F6F682
:100E1000F6F6F6F6F6F6F6F6F6F6F6F6F6F6F6F672
:100E2000F6F6F6F6F6FFFFFFFFFFFFFFFFFFFFFFFF
:100E3000FFFFFFFFFFFFFFFFFFFFFFFFFFF6F6F6DD
:100E4000F6F6F6F6F6F6F6F6F6F6F6F6F6F6F6F642
:100E5000F6F6F6F6F6F6F6F6F6F6F6F6F6F6F6F632
:100E6000F6F6F6F6F6F6F6F6F6F6F6F6F6F6F6F622
:100E7000F6F6A4A4A4F6F6F6F6F6A4A4A4F6F6F6FE
:100E8000F6F6A4A4F6F6F6F6F6F6A4A4F6F6F6F64A
:100E9000F6F6A4A4F6F6F6F6F6F6A4A4F6F6F6F63A
:100EA000F6F6A4A4F6F6F6F6F6F6F6F6F6A4A4A47C
:100EB000A4A4A4A4A4A4A4A4A4A4A4A4A4F6F6F6FC
:100EC000F6F6F6F6F6F6F6F6F6F6F6F6F6F6F6F6C2
:100ED000F6F6F6F6F6F6F6F6F6F6F6F6F6F6F6F6B2
:100EE000F6F6F6F6A4F6F6F6F6F6F6F6F6A4A4A4EA
:100EF000A4A4A4A4A4A4A4A4A4A4A4A4A4F6F6F6BC
:100F0000F6F6F6F6F6F6F6F6F6F6F6F6F6F6F6F681
:100F1000F6F6F6F6F6F6F6F6F6F6F6F6F6A4A4A467
:100F2000A4A4A4A4A4F6F6F6F6F6F6F6F6A4A4A4F1
:100F3000A4A4A4A4A4A4A4A4A4A4A4A4A4F6F6F67B
:100F4000F6F6F6F6F6F6F6F6F6F6F6F6F6F6F6F641
:100F5000F6F6F6F6F6F6F6F6F6F6F6F6F6F6F6F631
:100F6000F6F6F6F6F6F6F6F6F6F6F6F6F6A4A4A417
:100F7000A4A4A4A4A4A4A4A4A4A4A4A4A4F6F6F63B
:100F8000F6F6F6F6F6F6F6F6F6F6F6F6F6F6F6F601
:100F9000F6F6F6F6F6F6F6F6F6F6F6F6F6F6F6F6F1
:100FA000F6F6F6A4A4F6F6F6F6F6F6F6F6A4A4A47B
:100FB000A4A4A4A4A4A4A4A4A4A4A4A4A4F6F6F6FB
:100FC000F6F6F6F6F6F6F6F6F6F6F6F6F6F6F6F6C1
:100FD000F6F6F6F6F6F6F6F6F6F6F6F6F6A4A4A4A7
:100FE000A4A4A4A4F6F6F6F6F6F6F6F6F6A4A4F68D
:100FF000F6F6F6F6F6A4F6FFF6F6F6F6F6F6FFFFC8
:10100000F6F6F6F6F6F6FFFFF6F6F6F6F6F6FFFF5C
:10101000F6F6F6F6F6F6FFFFF6F6F6F6F6F6FFFF4C
:10102000F6F6F6F6F6F6F6F6F6F6A4A4F6F6F6F604
:10103000F6F6A4A4F6F6F6F6F6F6A4A4F6F6F6F698
:10104000F6F6A4A4F6F6F6F6F6F6A4A4F6F6F6F688
:10105000F6F6A4A4F6F6F6F6F6F6A4A4F6F6F6F678
:10106000F6F6A4A4F6F6F6F6F6F6F6F6A4F6F6F616
:10107000F6F6F6F6A4F6F6F6F6F6F6F6A4F6F6F6B4
:10108000F6F6F6F6A4F6F6F6F6F6F6F6A4F6F6F6A4
:10109000F6F6F6F6A4F6F6F6F6F6F6F6A4F6F6F694
:1010A000F6F6F6F6A40000000000000000000000C4
:1010B0000000000000000000000000000000000030
:1010C0000000000000000000000000000000000020
:1010D0000000000000000000000000000000000010
:1010E0000000000000FFF6F6F6F6F6F6F6FFF6F65C
:1010F000F6F6F6F6F6FFF6F6F6F6F6F6F6FFF6F67E
:10110000F6F6F6F6F6FFF6F6F6F6F6F6F6FFF6F66D
:10111000F6F6F6F6F6FFF6F6F6F6F6F6F6FFF6F65D
:10112000F6F6F6F6F6F6F6F6F6F6F6F6F6F6F6F65F
:10113000F6F6F6F6F6F6F6F6F6F6F6F6F6F6F6F64F
:10114000F6F6F6F6F6F6F6F6F6F6F6F6F6F6F6F63F
:10115000F6F6F6F6F6F6F6F6F6F6F6F6F6F6F6F62F
:10116000F6F6F6F6F6F6F6F6F6F6F6A400F6F6F667
:10117000F6F6F6A400F6F6F6F6F6F6A400F6F6F69F
:10118000F6F6F6A400F6F6F6F6F6F6A400F6F6F68F
:10119000F6F6F6A400F6F6F6F6F6F6A400F6F6F67F
:1011A000F6F6F6A40000000000000000FF000000BA
:1011B00000000000FF00000000000000FF00000031
:1011C00000000000FF00000000000000FF00000021
:1011D00000000000FF00000000000000FF00000011
:1011E00000000000FFF6FFFFF6F6F6F6F6F6FFFF4A
:1011F000F6F6F6F6F6F6FFFFF6F6F6F6F6F6FFFF6B
:10120000F6F6F6F6F6F6FFFFF6F6F6F6F6F6FFFF5A
:10121000F6F6F6F6F6F6FFFFF6F6F6F6F6F6FFFF4A
:10122000F6F6F6F6F6F6F6F6F6F6A4A4F6F6F6F602
:10123000F6F6A4A4F6F6F6F6F6F6A4A4F6F6F6F696
:10124000F6F6A4A4F6F6F6F6F6F6A4F6FFF6F6F62B
:10125000F6F6F6FFFFF6F6F6F6F6F6F6F6F6F6F61C
:10126000F6F6F6F6F6F6F6F6F6F6F6F6F6F6F6F61E
:10127000F6F6F6F6F6F6F6F6F6F6F6F6F6F6F6F60E
:10128000F6F6F6F6F6FFFFFFFFFFFFFFFFFFFFFF9B
:10129000FFFFFFFFFFF6F6F6F6F6F6F6F6F6F6F6C1
:1012A000F6F6F6F6F6FFFFFFFFFFFFFFFFF6F6F696
:1012B000F6F6F6F6F6F6F6F6F6F6F6F6F6F6F6F6CE
:1012C000F6F6F6F6F6FFFFFFFFFFFFFFFFFFFFFF5B
:1012D000FFFFFFFFFFF6F6F6F6F6F6F6F6F6F6F681
:1012E000F6F6F6F6F6FFF6F6F6F6F6F6F6F6F6F695
:1012F000F6F6F6F6F6F6F6F6F6F6F6F6F6F6F6F68E
:10130000F6F6F6F6F6FFFFFFFFFFFFFFFFFFFFFF1A
:10131000FFFFFFFFFFF6F6F6F6F6F6F6F6F6F6F640
:10132000F6F6F6F6F6F6F6F6F6F6F6F6FFF6F6F654
:10133000F6F6F6F6F6F6F6F6F6F6F6F6F6F6F6F64D
:10134000F6F6F6F6F6FFFFFFFFFFFFFFFFFFFFFFDA
:10135000FFFFFFFFFFF6F6F6F6F6F6F6F6F6F6F600
:10136000F6F6F6F6F6F6FFFFF6F6F6F6F6F6FFFFF9
:10137000F6F6F6F6F6F6FFFFF6F6F6F6F6F6FFFFE9
:10138000F6F6F6F6F6FFFFFFF6F6F6F6F6FFFFFFC7
:10139000F6F6F6F6F6F6F6F6F6F6F6F6F6F6F6F6ED
:1013A000F6F6F6F6F6F6F6F6F6F6F6F6F6F6F6F6DD
:1013B000F6F6F6F6F6F6F6F6F6F6F6F6F6F6F6F6CD
:1013C000F6F6F6F6F6F6F6F6F6F6A4A4A4F6F6F6B3
:1013D000F6F6A4A4A4F6F6F6F6F6A4A4A4F6F6F699
:1013E000F6F6A4A4A4F6F6F6F6F6F6F6F6F6F6F693
:1013F000F6F6F6F6F6F6F6F6F6F6F6F6F6F6F6F68D
:10140000F6F6F6F6F6A4A4A4A4A4A4A4A4A4A4A402
:10141000A4A4A4A4A4A4A4A4A4A4A4A4A4A4A4A48C
:10142000A4A4A4A4A4F6F6F6F6F6F6F6F6F6F6F6F6
:10143000F6F6F6F6F6F6F6F6F6F6F6F6F6F6F6F64C
:10144000F6F6F6F6F6A4A4A4F6F6F6F6F6A4A4F6D6
:10145000F6F6F6F6F6A4F6FFF6F6F6F6F6F6FFFF63
:10146000F6F6F6F6F6F6F6F6F6F6A4A4A4F6F6F612
:10147000F6F6A4A4A4F6F6F6F6F6A4A4A4F6F6F6F8
:10148000F6F6A4A4A4F6F6F6F6F6A4A4A4F6F6F6E8
:10149000F6F6A4A4A4F6F6F6F6F6A4A4A4F6F6F6D8
:1014A000F6F6A4A4A4FFFFFFF6F6F6F6F6FFFFFF9C
:1014B000F6F6F6F6F6FFFFFFF6F6F6F6F6FFFFFF96
:1014C000F6F6F6F6F6FFFFFFF6F6F6F6F6FFFFFF86
:1014D000F6F6F6F6F6FFFFFFF6F6F6F6F6FFFFFF76
:1014E000F6F6F6F6F6F6F6F6F6F6A4A4F6F6F6F640
:1014F000F6F6A4F6FFF6F6F6F6F6F6FFFFF6F6F6C3
:10150000F6F6F6F6F6F6F6F6F6F6F6F6F6F6F6F67B
:10151000F6F6F6F6F6F6F6F6F6F6F6F6F6F6F6F66B
:10152000F6F6F6F6F6FFFFFFF6F6F6F6F6FFFFFF25
:10153000F6F6F6F6F6FFFFFFF6F6F6F6F6F6F6F630
:10154000F6F6F6F6F6F6F6F6F6F6F6F6F6F6F6F63B
:10155000F6F6F6F6F6F6F6F6F6F6F6F6F6F6F6F62B
:10156000F6F6F6F6F6FFFFFFFFFFFFFFFFFFFFFFB8
:10157000FFFFFFFFFFFFFFF6F6F6F6F6F6FFFFF6BA
:10158000F6F6F6F6F6FFFFF6F6F6F6F6F6FFFFF6D7
:10159000F6F6F6F6F6FFFFF6F6F6F6F6F6FFFFF6C7
:1015A000F6F6F6F6F6FFFFFFFFFFFFFFF6FFFFFF81
:1015B000FFFFFFF6A4F6F6F6F6F6F6A4A4F6F6F6A6
:1015C000F6F6F6A4A4F6F6F6F6F6F6A4A4F6F6F603
:1015D000F6F6F6A4A4F6F6F6F6F6F6A4A4F6F6F6F3
:1015E000F6F6F6A4A4FFFFF6F6F6F6F6F6FFFFF61B
:1015F000F6F6F6F6F6FFFFF6F6F6F6F6F6FFFFF667
:10160000F6F6F6F6F6FFFFF6F6F6F6F6F6FFFFF656
:10161000F6F6F6F6F6FFF6A4A4A4A4A4A4F6A4A4F1
:10162000A4A4A4A4A4F6F6F6F6F6F6A4A4F6F6F698
:10163000F6F6F6A4A4F6F6F6F6F6F6A4A4F6F6F692
:10164000F6F6F6A4A4F6F6F6F6F6F6A4A4F6F6F682
:10165000F6F6F6A4A4A4A4A4A4A4A4A4A4A4A4A454
:10166000A4A4A4A4A4A4A4A4A4A4A4A4A4A4F6F696
:10167000F6F6F6F6F6A4F6F6F6F6F6F6F6A4F6F6AE
:10168000F6F6F6F6F6A4F6F6F6F6F6F6F6A4F6F69E
:10169000F6F6F6F6F6A4F6F6F6F6F6F6F6A4F6F68E
:1016A000F6F6F6F6F6A4A4A4A4A4A4A4A4F6F6F66A
:1016B000F6F6F6F6F6F6F6F6F6F6F6F6F6F6F6F6CA
:1016C000F6F6F6F6F6F6F6F6F6F6F6F6F6F6F6F6BA
:1016D000F6F6F6F6F6F6F6F6F6F6F6F6F6F6F6F6AA
:1016E000F6F6F6F6F6A4F6F6F6F6F6F6F6A4F6F63E
:1016F000F6F6F6F6F6A4F6F6F6F6F6F6F6A4F6F62E
:10170000F6F6F6F6F6A4F6F6F6F6F6F6F6A4F6F61D
:10171000F6F6F6F6F6A4F6F6F6F6F6F6F6A4F6F60D
:10172000F6F6F6F6F6F6F6F6F6F6F6F6F6F6F6F659
:10173000F6F6F6F6F6F6F6F6F6F6F6F6F6F6F6F649
:10174000F6F6F6F6F6F6F6F6F6F6F6F6F6F6F6F639
:10175000F6F6F6F6F6F6F6F6F6F6F6F6F6F6F6F629
:10176000F6F6F6F6F6A4A4A4A4A4A4A4A4A4F6F6FB
:10177000F6F6F6F6F6A4F6F6F6F6F6F6F6A4F6F6AD
:10178000F6F6F6F6F6A4F6F6F6F6F6F6C0A4F6F6D3
:10179000F6F6F6C0C0A4F6F6F6F6C0C0C0A4F6F69B
:1017A000F6F6F6F6C0A4A4A4A4A4A4A4A4F6F6F69F
:1017B000F6F6F6F6F6F6F6F6F6F6F6F6F6C0C0F635
:1017C000F6F6F6F6F6C0C0F6F6F6F6F6F6C0C0F691
:1017D000F6F6F6F6F6C0C0F6F6F6F6F6F6C0C0F681
:1017E000F6F6F6F6F6A4F6F6F6F6F6F6C0A4F6F673
:1017F000F6F6F6F6C0A4F6F6F6F6F6F6C0A4F6F699
:10180000F6F6C0C0C0A4F6F6F6F6C0C0C0A4F6F660
:10181000F6F6F6F6F6A4F6F6F6F6F6F6F6A4F6F60C
:10182000F6F6F6F6F6C0C0F6F6F6F6F6F6C0C0F630
:10183000F6F6F6F6F6C0C0F6F6F6F6F6F6C0C0C056
:10184000C0F6F6F6F6C0C0C0C0F6F6F6F6F6F6F646
:10185000F6F6F6F6F6F6F6F6F6F6F6F6F6F6F6F628
:10186000F6F6F6F6F6A4A4A4A4A4A4A4A4A4F6F6FA
:10187000F6F6F6F6F6A4F6F6F6F6F6F6F6A4F6F6AC
:10188000F620202020A4F6F62020202020A4F6F622
:10189000202020F6F6A4F6F6F6F6F6F6F6A4F6F60E
:1018A000F6F6F6F6F6A4A4A4A4A4A4A4A4F6F6F668
:1018B000F6F6F6F6F6F6F6F6F6F6F6F6F62020204A
:1018C00020F6F6F6F62020202020F6F6F6F6F62092
:1018D0002020F6F6F6F6F6202020F6F6F620202058
:1018E00020F6F6F6F6A4F6F6F6F6F62020A4F6F6BE
:1018F000F620202020A4F6F620202020F6A4F6F6DC
:101900002020202020A4F6F62020202020A4F6F677
:10191000F6F6F6F6F6A4F6F6F6F6F6F6F6A4F6F60B
:10192000F6F6F6F6F6202020F6F6F6F6F620F6F6AF
:10193000F6F6F6F6F6F6F6F6F6F6F6F6F6202020C9
:101940002020F6F6F62020202020F6F6F6F6F6F611
:10195000F6F6F6F6F6F6F6F6F6F6F6F6F6F6F6F627
:10196000F6F6F6F6F6A4A4A4A4A4A4A4A4A4F6F6F9
:10197000F6F6F6F6F6A4F6F6F6F6F6F6F6A4F6F6AB
:101980000707070707A4F6F60707070707A4F6F6F1
:10199000F6F6F6F6F6A4F6F6F6F6F6F6F6A4F6F68B
:1019A000F6F6F60707A4A4A4A4A4A4A4A4F6F6F645
:1019B000F6F6F6F6F6F6F6F6F6F6F6F6F607070794
:1019C00007F6F6F6F60707070707F6F6F6F6F60740
:1019D0000707F6F6F6F6F6070707F6F6F60707071F
:1019E00007F6F6F6F6A4F6F6F6F6F60707A4F6F608
:1019F000F6F6F6F6F6A4F6F6F6F6F6F6F6A4F6F62B
:101A00000707070707A4F6F60707070707A4F6F670
:101A1000F6F6F6F6F6A4F6F6F6F6F6F6F6A4F6F60A
:101A2000F6F6F6F6F607070707F6F6F6F6F6F60701
:101A30000707F6F6F6F6F6070707F6F6F6070707BE
:101A40000707F6F6F607070707F6F6F6F6F6F6F6D0
:101A5000F6F6F6F6F6F6F6F6F6F6F6F6F6F6F6F626
:101A6000F6F6F6F6F6A4A4A4A4A4A4A4A4A4F6F6F8
:101A7000F6F6F6F6F6A4F6F6F6F6F6F6F6A4F6F6AA
:101A8000F6F6808080A4F6F6F6F6808080A4F6F65E
:101A9000F6808080F6A4F6F6F6808080F6A4F6F64E
:101AA0008080808080A4A4A4A4A4A4A4A4F6F6F6B4
:101AB000F6F6F6F6F6F6F6F6F6F6F6F6F6F68080B2
:101AC00080F6F6F6F6F6808080F6F6F6F6F680807A
:101AD00080F6F6F6F6F6808080F6F6F6F6808080E0
:101AE0008080F6F6F6A4F6F68080808080A4F6F674
:101AF000F6F6F6F6F6A4F6F6F6F6F6F6F6A4F6F62A
:101B0000F6F6F6F6F6A4F6F6F6F6F6F6F6A4F6F619
:101B1000F6F6F6F6F6A4F6F6F6F6F6F6F6A4F6F609
:101B2000F6F6F6F6F68080808080F6F6F6F680808F
:101B300080F6F6F6F6F6808080F6F6F6F6F6808009
:101B400080F6F6F6F6F6808080F6F6F6F6F6F6F60D
:101B5000F6F6F6F6F6F6F6F6F6F6F6F6F6F6F6F625
:101B6000F6F6F6F6F6A4A4A4A4A4A4A4A4A4F6F6F7
:101B7000F6F6F6F6F6A4F6F6F6F6F6F6F6A4F6F6A9
:101B80000404040404A4F6F60404040404A4F6F60D
:101B9000040404F6F6A4F6F6040404F6F6A4F6F635
:101BA0000404040404A4A4A4A4A4A4A4A4F6F6F61F
:101BB000F6F6F6F6F6F6F6F6F6F6F6F6F60404049B
:101BC0000404F6F6F60404040404F6F6F6F6F6F653
:101BD000F6F6F6F6F6F6F6F6F6F6F6F6F60404047B
:101BE00004F6F6F6F6A4F6F60404040404A4F6F6E5
:101BF000F6F6F6F6F6A4F6F6F6F6F6F6F6A4F6F629
:101C00000404040404A4F6F60404040404A4F6F68C
:101C1000F6F6F6F6F6A4F6F6F6F6F6F6F6A4F6F608
:101C2000F6F6F6F6F60404040404F6F6F6F6F60400
:101C30000404F6F6F6F6F6040404F6F6F6040404D4
:101C40000404F6F6F604040404F6F6F6F6F6F6F6E0
:101C5000F6F6F6F6F6F6F6F6F6F6F6F6F6F6F6F624
:101C6000F6F6F6F6F6A4A4A4A4A4A4A4A4A4F6F6F6
:101C7000F6F6F6F6F6A4F6F6F6F6F6F6F6A4F6F6A8
:101C8000F6A0A0A0A0A4F6F6A0A0A0A0A0A4F6F69E
:101C9000A0A0A0F6F6A4F6F6A0A0A0F6F6A4F6F68C
:101CA000A0A0A0A0A0A4A4A4A4A4A4A4A4F6F6F612
:101CB000F6F6F6F6F6F6F6F6F6F6F6F6F6A0A0A0C6
:101CC000A0F6F6F6F6A0A0A0A0F6F6F6F6F6F6F662
:101CD000F6F6F6F6F6F6F6F6F6F6F6F6F6A0A0A0A6
:101CE000A0F6F6F6F6A4F6F6A0A0A0A0A0A4F6F63C
:101CF000A0A0A0F6F6A4F6F6A0A0A0F6F6A4F6F62C
:101D0000A0A0A0A0A0A4F6F6F6A0A0A0A0A4F6F61D
:101D1000F6F6F6F6F6A4F6F6F6F6F6F6F6A4F6F607
:101D2000F6F6F6F6F6A0A0A0A0A0F6F6F6F6F6A057
:101D3000A0A0F6F6F6F6F6A0A0A0F6F6F6A0A0A0F3
:101D4000A0A0F6F6F6A0A0A0A0F6F6F6F6F6F6F637
:101D5000F6F6F6F6F6F6F6F6F6F6F6F6F6F6F6F623
:101D6000F6F6F6F6F6A4A4A4A4A4A4A4A4A4F6F6F5
:101D7000F6F6F6F6F6A4F6F6F6F6F6F6F6A4F6F6A7
:101D80000000000000A4F6F60000000000A4F6F633
:101D9000F6F6F6F6F6A4F6F6F6F6F6F6F6A4F6F687
:101DA000F6F6F6F6F6A4A4A4A4A4A4A4A4F6F6F663
:101DB000F6F6F6F6F6F6F6F6F6F6F6F6F6000000A5
:101DC0000000F6F6F60000000000F6F6F6F6F60063
:101DD0000000F6F6F6F6F6000000F6F6F6F600005D
:101DE00000F6F6F6F6A4F6F6F6F6F6F6F6A4F6F62D
:101DF000F6F6F6F6F6A4F6F6F6F6F6F6F6A4F6F627
:101E0000F6F6F6F600A4F6F6F6F6F6F600A4F6F602
:101E1000F6F6F6F6F6A4F6F6F6F6F6F6F6A4F6F606
:101E2000F6F6F6F6F6F6000000F6F6F6F600000016
:101E3000F6F6F6F6F6000000F6F6F6F6F60000F610
:101E4000F6F6F6F6F60000F6F6F6F6F6F6F6F6F61E
:101E5000F6F6F6F6F6F6F6F6F6F6F6F6F6F6F6F622
:101E6000F6F6F6F6F6A4A4A4A4A4A4A4A4A4F6F6F4
:101E7000F6F6F6F6F6A4F6F6F6F6F6F6F6A4F6F6A6
:101E8000F6A4A4A4A4A4F6F6A4A4A4A4A4A4F6F678
:101E9000A4A4A4F6F6A4F6F6A4A4A4F6F6A4F6F672
:101EA000F6A4A4A4A4A4A4A4A4A4A4A4A4F6F6F6AA
:101EB000F6F6F6F6F6F6F6F6F6F6F6F6F6A4A4A4B8
:101EC000A4F6F6F6F6A4A4A4A4A4F6F6F6F6F6A4F0
:101ED000A4A4F6F6F6F6F6A4A4A4F6F6F6A4A4A432
:101EE000A4F6F6F6F6A4F6F6F6A4A4A4A4A4F6F6D0
:101EF000A4A4A4F6F6A4F6F6A4A4A4F6F6A4F6F612
:101F0000A4A4A4A4A4A4F6F6F6A4A4A4A4A4F6F6F7
:101F1000F6F6F6F6F6A4F6F6F6F6F6F6F6A4F6F605
:101F2000F6F6F6F6F6A4A4A4A4F6F6F6F6F6F6A4EB
:101F3000A4A4F6F6F6F6F6A4A4A4F6F6F6A4A4A4D1
:101F4000A4A4F6F6F6A4A4A4A4F6F6F6F6F6F6F61D
:101F5000F6F6F6F6F6F6F6F6F6F6F6F6F6F6F6F621
:101F6000F6F6F6F6F6A4A4A4A4A4A4A4A4A4F6F6F3
:101F7000F6F6F6F6F6A4F6F6F6F6F6F6F6A4F6F6A5
:101F8000F6F6F6F6F6A4F6F6F600F60000A4F6F677
:101F9000F6F6000000A4F6F6F60000FFFFA4F6F641
:101FA000F60000FFFFA4A4A4A4A4A4A4A4F6F6F63B
:101FB000F6F6F6F6F600F6F6F6F6F6F6F600F6F6AD
:101FC000F6F6F6F6F6000000F600F6F6F60000006B
:101FD00000F6F6F6F60000000000F6F6F600000047
:101FE0000000F6F6F6A4F6000000000000A4F6F6E5
:101FF000F600000000A4F6F6F600000000A4F6F6D5
:10200000F6F6000000A4F6F6F600F60000A4F6F6D8
:10201000F6F6F6F6F6A4F6F6F6F6F6F6F6A4F6F604
:10202000F6F6F6F6F600000000000000F6000000EC
:102030000000F6F6F60000000000F6F6F6000000DC
:1020400000F6F6F6F6000000F600F6F6F600F6F6F4
:10205000F6F6F6F6F600F6F6F6F6F6F6F6F6F6F616
:10206000F6F6F6F6F6A4A4A4A4A4A4A4A4A40707D0
:102070000707070707A407070707070707A40707B6
:102080000707070707A407070700070000A40707BB
:102090000707000000A40707070000FFFFA40707C9
:1020A000070000FFFFA4A4A4A4A4A4A4A4070707F6
:1020B00007070707070007070707070707000707BE
:1020C00007070707070000000700070707000000D1
:1020D00000070707070000000000070707000000CF
:1020E0000000070707A407000000000000A407077E
:1020F0000700000000A407070700000000A407076E
:102100000707000000A407070700070000A407074F
:102110000707070707A407070707070707A4070715
:102120000707070707000000000000000700000085
:102130000000070707000000000007070700000075
:102140000007070707000000070007070700070749
:102150000707070707000707070707070707070716
:102160000707070707FFA4A4A4A4A4A4A4FFF6F6E6
:10217000F6F6F6F6F6FFF6F6F6F6F6F6F6FFF607DC
:1021800007F6F6F6F6FFF6F60707F60000FFF6F696
:10219000F607070000FFF6F6F6000707FFFFF6F662
:1021A000F600000707A4A4A4A4A4A4A4A4F6F6F629
:1021B000F6F6F6F6F600F6F6F6F6F6F6F600F6F6AB
:1021C000F6F60707F6000000F60707F6F60000002F
:1021D0000707F6F6F60000070700F6F6F600070711
:1021E0000000F6F6F6FFF6000000000007FFF6F626
:1021F000F600000007FFF6F6F600000707FFF6F608
:10220000F6F6070700FFF6F6F607070000FFF6F6FA
:102210000707F6F6F6FFF60707F6F6F6F6FFF6F608
:10222000F6F6F6F6F607070000000000F6070700CE
:102230000000F6F6F60007070000F6F6F6000007C5
:1022400007F6F6F6F60000000707F6F6F600F6F6D3
:10225000F60707F6F600F6F6F6F60707F6F6F6F6D0
:10226000F6F6F6F6F6FFFFFFFFFFFFFFFFFFFFFFAB
:10227000FFFFFFFFFFFFFFF6F6F6F6F6F6FFFFF6AD
:10228000F6F6F6F607FFFFF6F6F6070707FFFFF686
:10229000F607070707FFFFF6F6F6070707FFFFF643
:1022A000F6F6F6F607FFFFFFFFFFFFFFF6FFFFFF63
:1022B000FFFFFFF6A4F6F6F6F6F6F6A4A407F6F688
:1022C000F6F6F6A4A407F6F6F6F6F6A4A407F6F6D4
:1022D000F6F6F6A4A407F6F6F6F6F6A4A407F6F6C4
:1022E000F6F6F6A4A4FFFFF6F6F6F6F6F6FFFFF60E
:1022F000F6F6F6F6F6FFFFF6F6F6F60000FFFFF646
:10230000F600000000FFFFF6F600000000FFFFF6F9
:10231000F6F6F6F6F6FFF6A4A4A4A4A4A4F6A4A4E4
:10232000A4A4A4A4A400F6F6F6F6F6A4A400F6F677
:10233000F6F6F6A4A40000F6F6F6F6A4A400000053
:1023400000F6F6A4A400000000F6F6A4A4F6F6F643
:10235000F6F6F6A4A4A4A4A4A4A4A4A4A4A4A4A447
:10236000A4A4A4A4A4FFFFFFFFFFFFFFFFFFFFFF44
:10237000FFFFFFFFFFFFFFF6F6F6F6F6F6FFFFF6AC
:10238000F6F6F60000FFFFF6F6F60000F6FFFFF6A1
:10239000F6F60000F6FFFFF6F6F6F6F6F6FFFFF6A5
:1023A000F6F6F6F6F6FFFFFFFFFFFFFFF6FFFFFF73
:1023B000FFFFFFF6A4F6F6F6F6F6F6A4A40000F684
:1023C000F6F6F6A4A4F60000F6F6F6A4A4F60000CD
:1023D000F6F6F6A4A4F60000F6F6F6A4A40000F6BD
:1023E000F6F6F6A4A4FFFFF6F6F6F6F600FFFFF603
:1023F000F6F6F6F600FFFFF6F6F6F6F6F6FFFFF64F
:10240000F6F6F6F600FFFFF6F6F6F6F600FFFFF634
:10241000F6F6F6F6F6FFF6A4A4A4A4A4A4F6A4A4E3
:10242000A4A4A4A4A400F6F6F6F6F6A4A400F6F676
:10243000F6F6F6A4A4F6F6F6F6F6F6A4A400F6F67A
:10244000F6F6F6A4A400F6F6F6F6F6A4A4F6F6F66A
:10245000F6F6F6A4A4A4A4A4A4A4A4A4A4A4A4A446
:10246000A4A4A4A4A4FFFFFFFFFFFFFFF6FFFFFF4C
:10247000FFFFFFF6A4FFFFF6F6F6F6A4A4FFFFF6B3
:10248000F6F6F6A4A4FFFFF6F6F6F6A4A4FFFFF610
:10249000F6F6F6A4A4FFF6A4A4A4A4A4A4F6A4A407
:1024A000A4A4A4A4A4A4A4A4A4A4A4A4A4A4F6F648
:1024B000F6F6F6F6F6A4F6F6F6F6F6F6F6A4F6F660
:1024C000F6F6F6F6F6A4F6F6F6F6F6F6F6A4F6F650
:1024D000F6F6F6F6F6A4F6F6F6F6F6F6F6A4F6F640
:1024E000F6F6F6F6F6A4A4A4A4A4A4A4A4A4F6F66E
:1024F000F6C0C0F6F6A4F6C0C0C0C0F6F6A4C0C0D0
:10250000C0C0C0F6F6A4F6F6C0C0C0F6F6A4F6F653
:10251000C0C0C0F6F6A4F6F6C0C0C0F6F6A4C0C0AF
:10252000C0C0C0C0C0A4A4A4A4A4A4A4A4A4F62011
:1025300020202020F6A42020F6F6F62020A4F6F68F
:10254000F6F6F62020A4F6F620202020F6A4F620A9
:102550002020F6F6F6A4202020F6F6F6F6A4202099
:102560002020202020A4A4A4A4A4A4A4A4A40707F9
:1025700007070707F6A4F6F6F6F6F60707A4F6F639
:10258000F6F6F60707A4F6F607070707F6A4F6F629
:10259000F6F6F60707A4F6F6F6F6F60707A4070719
:1025A00007070707F6A4A4A4A4A4A4A4A4A4F680DF
:1025B00080F68080F6A4F68080F68080F6A4F6800F
:1025C00080F68080F6A480808080808080A4F6F6EB
:1025D000F6F68080F6A4F6F6F6F68080F6A4F6F617
:1025E000F6F68080F6A4A4A4A4A4A4A4A4A404043D
:1025F0000404040404A40404F6F6F6F6F6A40404A1
:10260000F6F6F6F6F6A404040404040404A4F6F6AC
:10261000F6F6F60404A4F6F6F6F6F60404A40404AA
:1026200004040404F6A4A4A4A4A4A4A4A4A4F6A04A
:10263000A0A0A0A0F6A4A0A0F6F6F6F6F6A4A0A08E
:10264000F6F6F6F6F6A4A0A0A0A0A0A0A0A4A0A0D4
:10265000F6F6F6A0A0A4A0A0F6F6F6A0A0A4F6A018
:10266000A0A0A0A0F6A4A4A4A4A4A4A4A4A4000030
:102670000000000000A4F6F6F6F6F60000A4F6F658
:10268000F6F6F60000A4F6F6F6F60000F6A4F6F666
:10269000F6000000F6A4F6F6F6000000F6A4F6F642
:1026A000F60000F6F6A4A4A4A4A4A4A4A4A4F6A4EA
:1026B000A4A4A4A4F6A4A4A4F6F6F6A4A4A4A4A492
:1026C000F6F6F6A4A4A4F6A4A4A4A4A4F6A4A4A430
:1026D000F6F6F6A4A4A4A4A4F6F6F6A4A4A4F6A47C
:1026E000A4A4A4A4F6A4A4A4A4A4A4A4A4A4F6F6B4
:1026F000F600F6F6F6A4F60000000000F6A4F600D8
:10270000F6000000F6A400000000000000A4F6009F
:1027100000000000F6A4F60000000000F6A4F6F6A3
:10272000F600F6F6F6A4A4A4A4A4A4A4A4A40707FF
:102730000700070707A407000000000007A4070020
:10274000F600000007A400000000000000A407003D
:102750000000000007A407000000000007A407070E
:102760000700070707A4A4A4A4A4A4A4A4A407F68C
:10277000F600F6F607A4F60700000007F6A4F60038
:1027800007000700F6A400000007000000A4F60000
:1027900007000700F6A4F60700000007F6A407F6F6
:1027A000F600F6F607FFFFFFFF0707FFF6FFFF073C
:1027B000070707F6A4FF0707070707A4A4FFFF07FB
:1027C000070707A4A4FFFFF6F60707A4A4FFFFF678
:1027D000F6F600A4A4FFF6A4A4A400A4A4F6A4A45E
:1027E00000000000A4FFFFFFFFFFFFFFF6FFFF0058
:1027F000000000F6A4FF0000F6F60000A4FFFFF6BC
:10280000F6F60000A4FFFFF60000F6A4A4FFFFF612
:102810000000F6A4A4FFF6A4A4A4A4A4A4F6A4A46F
:102820000000A4A4A40000000000000000000000BC
:102830000007070707000000070007070700000060
:102840000707000707000000070707000000000057
:10285000070707000000000007070700000000004E
:10286000070707000000000000000000000707073E
:102870000707000000070707070007000007070712
:102880000007070000000000070707000000000025
:10289000070707000000000007070700000000000E
:1028A00007070700000000000707070000000000FE
:1028B00007070000000000000700000400000000FF
:1028C00000000400040000000700000400000000F5
:1028D00007070000000000000707070000000000D5
:1028E00007070700000000000707070000000000BE
:1028F00000070700000400040000070000000400B7
:1029000004000000000400040000070000000000B4
:102910000007070000000000070707000000000094
:10292000070707000000000007070700000000007D
:10293000070707000000000007070700000000006D
:10294000070700070700000007000707070000004F
:10295000000707070700000000000000000000005B
:102960000000000000000000070707000000000052
:102970000707070000000000070707000007070718
:102980000007070000070707070007000007070701
:102990000707000000000000000000000000000029
:1029A0000000000000000000000000000000000027
:1029B0000000040004000000040000040000000007
:1029C00000040000040000000400040000000000F7
:1029D00000040000000000000400040000000000EB
:1029E00000040000000000000000000000000400DF
:1029F00004000000000400040000070000000400C0
:102A000000070700000000000707070000000000A3
:102A1000070707000000000007070700000000008C
:102A20000707070000000000040004000000000089
:102A3000000400000000000004000004000000008A
:102A40000000040004000000040000040000000076
:102A5000000400000000000004000400000000006A
:102A6000000400000000000004000400000000005A
:102A7000000400000000000004000400000000004A
:102A80000004000004000000040000040000000036
:102A9000000004000400000000000000000000002E
:102AA0000000000000000000070707000000000011
:102AB00007070700000000000707070000000400E8
:102AC00000070700000400040000070000000400E5
:102AD00004000000000000000000000000000000F2
:102AE00000000000000000000000000000000000E6
:102AF00000070707070000000400070707000000A1
:102B000000040007070000000400040000000000AB
:102B100000040000000000000400040000000000A9
:102B20000004000000000000040004000000000099
:102B30000004000000000000040007070700000078
:102B4000000707070700000007000707070000004D
:102B50000707000000000000070707000000000052
:102B6000070707000000000007070700000000003B
:102B7000000707000007070707000700000707070F
:102B80000707000000070707070004000000000017
:102B90000004000000000000040004000000000029
:102BA0000004000000000000040004000000000019
:102BB00000040000000000000400040000070707F4
:102BC00000040000000707070700040000070707CC
:102BD00007070000000000000000000000000000E7
:102BE00000000000000000000400040000000000DD
:102BF00000040000000000000400070707000000B8
:102C0000000707070700000004000707070000008F
:102C100000040000000000000400040000000000A8
:102C2000000400000000000007070700000000008B
:102C3000000707000007070707000700000707074E
:102C40000707000000070707070007000000000053
:102C50000007070000000000070707000000000051
:102C60000707070000000000040004000000000047
:102C70000004000000000000040004000000000048
:102C80000004000707000000040007070700000019
:102C90000007070707000000000000000000000018
:102CA0000000000000000000000000000000000024
:102CB0000000040004000000070000040000000001
:102CC00007070000040000000707070000000000DD
:102CD00007070700000000000707070000000000CA
:102CE00007070700000000000707070000000000BA
:102CF00007070000000000000700070707000000AA
:102D0000000707070700000004000707070000008E
:102D100000040000000000000400040000000000A7
:102D2000000400000000000000000000000707078A
:102D30000707000000070707070004000007070750
:102D40000004000000000000040004000000000077
:102D50000004000000000000040004000000000067
:102D60000004000000000000040004000000000057
:102D7000000400000007070707000400000707071A
:102D80000707000000070707070007000000000012
:102D90000007070000000000070707000000000010
:102DA00007070700000000000707070000000000F9
:102DB00007070000000000000700070707000000E9
:102DC00000070707070000000700070707000000CB
:102DD00007070000000000000707070000000000D0
:102DE00007070700000000000000000000000400CA
:102DF00004000000000400040000040000000400BF
:102E000000040000000000000400040000000000B6
:102E100000040000000000000400040000000000A6
:102E20000004000000000000040004000000000096
:102E30000004000000070707070004000007070759
:102E40000707000000070707070004000000000054
:102E50000004000000000000040004000000000066
:102E60000004000000000000040004000000000056
:102E70000004000000000000040004000000040042
:102E8000000400000004000400000400000004002E
:102E9000040000000000000000000000000000002E
:102EA0000000000000F6F6F6F6F6F6F6F6F6F6F690
:102EB000F6F6F6F6F6F6F6F6F6F6F6F6F6F6F6F6B2
:102EC000F6F6F6F6F6F6F6F6F6F6F6F6F6F6F6F6A2
:102ED000F6F6F6F6F6F6F6F6F6F6F6F6F6F6F6F692
:102EE000F6F6F6F6F6F6F6000000A4F6F6F6F600AC
:102EF0000000A4F6F6F6F6000000A4F6F6F6F600DA
:102F000000A4A4F6F6F6F60000A4F6F6F6F6F6A48B
:102F1000A4A4F6F6F6F6F60000A4F6F6F6F6F6F633
:102F2000F6F6F6F6F6F6F6F6F6F6F6F6F6F6F6F641
:102F300000F6F6F6F6F600F600F600F6F6F6F600FF
:102F40000000F6F6F6F600F600F600F6F6F6F6F6EF
:102F500000F6F6F6F6F6F6F6F6F6F6F6F6F6F6F607
:102F6000F6F6F6F6F6F6F6F6F6F6F6F6F6F6F6F601
:102F7000F6F6F6F6F6F6F6F6F6F6F6F6F6F60000DD
:102F8000000000F6F6F6F6F6F6F6F6F6F6F6F6F6C3
:102F9000F6F6F6F6F6F6F6F6F6F6F6F6F6F6F6F6D1
:102FA000F6F6F6F6F6F6F6000000F6F6F6F600A4EB
:102FB000A40000F6F60000A4F6A40000F60000A4A9
:102FC000F6F60000F60000A4F6F60000F6F60000A3
:102FD000A4F600A4F6F6F6000000A4F6F6F6F6F65F
:102FE000F6F6F6F6F6F6F6F60000F6F6F6F6F60063
:102FF0000000A4F6F6F6F6F60000A4F6F6F6F6F6ED
:103000000000A4F6F6F6F6F60000A4F6F6F6F6F6DC
:103010000000A4F6F6F6000000000000F6F6F6A4A4
:10302000A4A4A4A4A4F60000000000A4F60000F6E6
:10303000F6F60000A4F6F6F6F6000000A4F6F60098
:10304000000000A4F6F600000000A4F6F600000060
:10305000A4A4F6F6F600000000000000F6F6A4A412
:10306000A4A4A4A4A4F6000000000000F6F6F6A4B0
:10307000A40000A4F6F6F6F60000A4F6F6F6F600B4
:10308000000000F6F6F6F6F6F6F60000F60000F69A
:10309000F6F60000F6F60000000000A4F6F6F6A42E
:1030A000A4A4A4F6F6F6F6F6000000A4F6F6F600E0
:1030B000000000A4F6F60000A40000A4F60000A49E
:1030C000F60000A4F600000000000000F6F6A4A43C
:1030D000A40000A4A4F6F6F6F60000A4F6F6F6F6B0
:1030E000F6F6A4A4F6000000000000F6F60000A426
:1030F000A4A4A4F6F6000000000000F6F6F6A4A4CE
:10310000A4A40000F6F6F6F6F6A40000F60000F619
:10311000F6A40000F6F60000000000F6F6F6A4A4FF
:10312000A4A4A4F6F6F6F600000000F6F6F60000F9
:10313000A4A4F6F6F60000A4F6F6F6F6F6000000F3
:10314000000000F6F60000A4A4A40000F60000A40D
:10315000F6F60000F6F60000000000A4F6F6F6A46D
:10316000A4A4A4F6F600000000000000F60000A4ED
:10317000A4A40000F6F6F6F6F60000A4F6F6F6F6BD
:103180000000A4F6F6F6F60000A4F6F6F6F6F60051
:1031900000A4F6F6F6F6F60000A4F6F6F6F6F6F655
:1031A000F6F6F6F6F6F600000000F6F6F60000A4D5
:1031B000A4A400F6F6000000A4F600F6F6F600005F
:1031C0000000F6F6F600A4A400000000F600A4F645
:1031D000F6F60000F6F60000000000A4F6F6F6F69B
:1031E000F6F6F6F6F6F60000000000F6F60000A48B
:1031F000A4A40000F60000A4F6F60000F6F6000015
:1032000000000000F6F6F6F6F6F60000F6F6F6F622
:10321000F60000A4F6F600000000A4F6F6F6F6A408
:10322000A4A4F6F6F6F6F6000000A4F6F6F6000002
:10323000A40000A4F60000A4F6A40000F60000A478
:10324000F6F60000A400000000000000A40000A4A6
:10325000A4A40000A40000A4F6F60000A4A4A4A462
:10326000F6F6F6A4A4000000000000F6F60000A4A4
:10327000A4A40000F60000A4F6F60000F60000008A
:10328000000000A4F60000A4A4A40000F60000A41E
:10329000F6F60000F6000000000000A4F6F6A4A474
:1032A000A4A4A4F6F6F6F600000000A4F6F60000CA
:1032B000A4A40000F60000A4F6F6F6F6F60000A4BA
:1032C000F6F6F6F6F60000A4F6F6F6F6F6F60000C8
:1032D000A4A40000F6F6A400000000A4F6F6F6A4EC
:1032E000A4A4A4F6F60000000000A4F6F60000A4D2
:1032F000A40000A4F60000A4F6F60000F60000A466
:10330000F6F60000F60000A4F6F60000F60000A4B1
:10331000F60000A4F60000000000A4F6F6F6A4A44F
:10332000A4A4F6F6F600000000000000F60000A4D9
:10333000A4A4A4F6F60000A4F6F6F6F6F600000043
:10334000000000F6F60000A4A4A4F6F6F60000A41F
:10335000F6F6F6F6F600000000000000F6F6A4A46B
:10336000A4A4A4A4F600000000000000F60000A43D
:10337000A4A4A4F6F60000A4F6F6F6F6F600000003
:10338000000000F6F60000A4A4A4F6F6F60000A4DF
:10339000F6F6F6F6F60000A4F6F6F6F6F6F6F6F60B
:1033A000F6F6F6F6F6F6F60000000000F6F6000077
:1033B000A4A4A4F6F60000A4F6F6F6F6F60000A41F
:1033C000F6000000F60000A4F6A40000F6F60000E7
:1033D000A4A40000F6F6F600000000A4F6F6F6F647
:1033E000F6F6F6F6F60000F6F6F60000F60000A493
:1033F000F6F60000A40000A4F6F60000A400000009
:1034000000000000A40000A4A4A40000A40000A4E4
:10341000F6F60000A40000A4F6F60000A4F6A4A4AA
:10342000F6F6F6A4A4F6000000000000F6F6F6F6A4
:103430000000A4F6F6F6F6F60000A4F6F6F6F6F6A8
:103440000000A4F6F6F6F6F60000A4F6F6F6F6F698
:103450000000A4F6F6F6000000000000F6F6F6A460
:10346000A4A4A4A4F6F6F6F600000000A4F6F6F66E
:10347000F60000A4F6F6F6F6F60000A4F6F6F6F668
:10348000F60000A4F6F6F6F6F60000A4F600F6F64E
:10349000F60000A4F6F600000000A4F6F6F6F6A486
:1034A000A4A4A4F6F60000F6F6F60000F60000A4C8
:1034B000F60000A4F60000A40000A4F6F600000048
:1034C00000A4F6F6F60000000000F6F6F60000A4F0
:1034D000000000F6F60000A4F6000000F6F6A4A432
:1034E000F6F6A4A4F6F60000F6F6F6F6F6F60000F8
:1034F000A4F6F6F6F6F60000A4F6F6F6F6F60000E8
:10350000A4F6F6F6F6F60000A4F6F6F6F6F60000D7
:10351000A4F6F6F6F6F6000000000000F6F6F6A4B3
:10352000A4A4A4A4F60000A4F6F60000F60000008F
:10353000A4000000A400000000000000A40000009F
:1035400000000000A40000A400A40000A40000A447
:10355000F6F60000A40000A4F6F60000A4F6A4A469
:10356000F6F6F6A4A40000F6F6F60000F600000059
:10357000A4F60000A400000000A40000A4000000C5
:1035800000000000A40000A400000000A40000A4AB
:10359000F6000000A40000A4F6F60000A4F6A4A41F
:1035A000F6F6F6A4A4F60000000000F6F60000A46B
:1035B000A4A40000F60000A4F6F60000F60000A4A3
:1035C000F6F60000F60000A4F6F60000F60000A4EF
:1035D000F6F60000F6F60000000000A4F6F6F6A4E9
:1035E000A4A4A4F6F6000000000000F6F60000A473
:1035F000A4A40000F60000A4F6F60000F60000A463
:10360000F6F60000F6000000000000A4F60000A49A
:10361000F6F6F6F6F60000A4F6F6F6F6F6F6F6F688
:10362000F6F6F6F6F6F60000000000F6F60000A446
:10363000F6F60000F60000A4F6F60000F60000A47E
:10364000F6F60000F60000A400000000F60000A45A
:10365000F60000A4F6F600000000A400F6F6F6F668
:10366000F6F6F6F6F6000000000000F6F60000A4FC
:10367000A4A40000F60000A4F6F60000F60000A4E2
:10368000F6000000F60000000000A4F6F60000A41A
:10369000000000A4F60000A4F6000000A4F6F6F670
:1036A000F6F6F6F6F6F600000000A4F6F60000A422
:1036B000A40000F6F60000A4F6F6F6F6F6F6000012
:1036C000000000F6F6F6F6F6A4A40000F60000F6F8
:1036D000F6F60000F6F60000000000A4F6F6F6F696
:1036E000F6F6F6F6F6000000000000A4F6F6F60086
:1036F00000A4F6F6F6F6F60000A4F6F6F6F6F600E6
:1037000000A4F6F6F6F6F60000A4F6F6F6F6F600D5
:1037100000A4F6F6F6F6F60000A4F6F6F6F6F6F6CF
:10372000F6F6F6F6F60000A4F6F60000A40000A4F3
:10373000F6F60000A40000A4F6F60000A40000A421
:10374000F6F60000A40000A4F6F60000A40000A411
:10375000A4A40000A4F60000000000A4F6F6F6F60B
:10376000F6F6F6F6F60000A4F6F60000A40000A4B3
:10377000F6F60000A40000A4F6F60000A400000085
:10378000A4000000A4F60000000000A4F6F6F60075
:103790000000A4F6F6F6F6F600A4F6F6F6F6F6F64F
:1037A000F6F6F6F6F60000F6F6F60000F60000A4CF
:1037B000F6F60000A40000A400A40000A40000008D
:1037C00000000000A400000000000000A4000000B1
:1037D000A4000000A40000A4F6A40000A4F6A4F62F
:1037E000F6F6F6A4A40000A4F6F60000A40000007B
:1037F000A4000000A4F60000000000A4F6F6F60005
:103800000000A4F6F6F60000000000A4F600000098
:10381000A4000000A40000A4F6F60000A4F6F6F64A
:10382000F6F6F6F6F6F60000A4F60000A4F60000A0
:10383000A4F60000A4F60000A4F60000A4F6F6002A
:10384000000000A4F6F6F6F60000A4F6F6F6F6F68A
:103850000000A4F6F6F6F6F60000A4F6F6F6F6F684
:10386000F6A4A4F6F600000000000000A4F6A4A44C
:10387000A4000000A4F6F6F6000000A4F6F6F60098
:103880000000A4F6F6F6000000A4F6F6F60000002C
:10389000A4F6F6F6F600000000000000A4F6A4A4CA
:1038A000A4A4A4A4A4010203040506070809040AA9
:1038B0000B0C020D0E050F0C02101112061308144A
:1038C000110A0B0115141612060115171605060C20
:1038D0000209040A0B010217110506010214111254
:1038E00006071810190A1A1E1C0101010101010125
:1038F00001010101010101010101010101010101B8
:10390000010101010101010203040404040404058E
:103910000505050505050505050505050604040459
:103920000404070508090A0B0B0B0B0B0B0C0D0D00
:103930000D0D0D0D0D0D0D0D0D0D0E0B0B0B0B0BC0
:103940000F0D10090A0B0B0B0B0B0B0C0D0D0D0DB6
:103950000D0D0D0D0D0D0D0D0E0B0B0B0B0B0F0D9E
:1039600010090A0B0B0B0B0B0B0C0D0D0D0D0D0D98
:103970000D0D0D0D0D0D0E0B0B0B0B0B0F0D101177
:10398000121313131313131412121212121212120F
:1039900012121212151313131313131216171818E9
:1039A0001818181818181818181818181818181897
:1039B00018181818181818181818191A0D0D0D0DB0
:1039C0000D0D0D0D0D0D0D0D0D0D0D0D0D0D0D0D27
:1039D0000D0D0D0D0D0D0D0D1B1A0D0D0D0D0D0DFC
:1039E0000D0D0D0D0D0D0D0D0D0D0D0D0D0D0D0D07
:1039F0000D0D0D0D0D0D1B1A0D0D0D0D0D0D0D0DDC
:103A00000D0D0D0D0D0D0D0D0D0D0D0D0D0D0D0DE6
:103A10000D0D0D0D1B1A0D0D0D0D0D0D0D0D0D0DBB
:103A20000D0D0D0D0D0D0D0D0D0D0D0D0D0D0D0DC6
:103A30000D0D1B1A0D0D0D0D0D0D0D0D0D0D0D0D9B
:103A40000D0D0D0D0D0D0D0D0D0D0D0D0D0D0D0DA6
:103A50001B1A0D0D0D0D0D0D0D0D0D0D0D0D0D0D7B
:103A60000D0D0D0D0D0D0D0D0D0D0D0D0D0D1B1A6B
:103A70000D0D0D0D0D0D0D0D0D0D0D0D0D0D0D0D76
:103A80000D0D0D0D0D0D0D0D0D0D0D0D1B1A0D0D4B
:103A90000D0D0D0D0D0D0D0D0D0D0D0D0D0D0D0D56
:103AA0000D0D0D0D0D0D0D0D0D0D1B1A0D0D0D0D2B
:103AB0000D0D0D0D0D0D0D0D0D0D0D0D0D0D0D0D36
:103AC0000D0D0D0D0D0D0D0D1B1A0D0D0D0D0D0D0B
:103AD0000D0D0D0D0D0D0D0D0D0D0D0D0D0D0D0D16
:103AE0000D0D0D0D0D0D1B1A0D0D0D0D0D0D0D0DEB
:103AF0000D0D0D0D0D0D0D0D0D0D0D0D0D0D0D0DF6
:103B00000D0D0D0D1B1A0D0D0D0D0D0D0D0D0D0DCA
:103B10000D0D0D0D0D0D0D0D0D0D0D0D0D0D0D0DD5
:103B20000D0D1B1A0D0D0D0D0D0D0D0D0D0D0D0DAA
:103B30000D0D0D0D0D0D0D0D0D0D0D0D0D0D0D0DB5
:103B40001B1A0D0D0D0D0D0D0D0D0D0D0D0D0D0D8A
:103B50000D0D0D0D0D0D0D0D0D0D0D0D0D0D1B1A7A
:103B60000D0D0D0D0D0D0D0D0D0D0D0D0D0D0D0D85
:103B70000D0D0D0D0D0D0D0D0D0D0D0D1B1A0D0D5A
:103B80000D0D0D0D0D0D0D0D0D0D0D0D0D0D0D0D65
:103B90000D0D0D0D0D0D0D0D0D0D1B1A0D0D0D0D3A
:103BA0000D0D0D0D0D0D0D0D0D0D0D0D0D0D0D0D45
:103BB0000D0D0D0D0D0D0D0D1B1A0D0D0D0D0D0D1A
:103BC0000D0D0D0D0D0D0D0D0D0D0D0D0D0D0D0D25
:103BD0000D0D0D0D0D0D1B1A0D0D0D0D0D0D0D0DFA
:103BE0000D0D0D0D0D0D0D0D0D0D0D0D0D0D0D0D05
:103BF0000D0D0D0D1B1A0D0D0D0D0D0D0D0D0D0DDA
:103C00000D0D0D0D0D0D0D0D0D0D0D0D0D0D0D0DE4
:103C10000D0D1B1C01010101010101010101010147
:103C20000101010101010101010101010101010184
:103C30001D00C20200C10100C00000B0077F00905B
:103C40003A6400B1075A00B2077F00921F6400B3C4
:103C5000077F00FF0601530C903B6407436400910B
:103C60004764009304640C903A64009147640093A5
:103C7000046407903B64009226640C904364073A06
:103C80006400914764009303640C903B64084364B0
:103C900000921F640C903A6401930364020364026F
:103CA000046402903B640091476400921F64009397
:103CB00004640C904364009147640093046407908B
:103CC0004164009221640C904064083F6400914775
:103CD0006400922364009303640C903E64073C6488
:103CE0000092246413903C6400914864009304643F
:103CF0000C903E64009148640093046407903F6414
:103D000000921F640C90406408486400914864006D
:103D100093036413904664009224641390456400F6
:103D200091486400922464009304640C91486400F8
:103D300093046408903F64009223640C90406407ED
:103D40003C640091486400922164009303640C0376
:103D50006407921F640C90476407466400914764AF
:103D6000009304640D9047640091476400930464D9
:103D700007904564009226640C9043640791476461
:103D8000009303640C90476407466400921F640C20
:103D90009047640193036402036402046403904542
:103DA0006400914764009304640C9043640091475D
:103DB0006400930464079226640C9045640743648E
:103DC00000914764009303640A0364029045640809
:103DD0004764009148640092246400930464139043
:103DE0004864134264134364143F640C4064073F07
:103DF000640C4064073B64143C6413376400921FF6
:103E0000640C903664073A6400914764009304643C
:103E10000C903B64009147640093046407903E64F7
:103E2000009226640D903B64074364009147640050
:103E30009303641390416400921F640C90376401F3
:103E40009303640203640204640290406400914797
:103E500064009304640C90376400914764009304F9
:103E60006408903E64009226640C903F64074064AE
:103E700000914764009303640C903764073C64002E
:103E800092246414903C6400914864009304640C90
:103E9000903E64009148640093046407903F64007E
:103EA000921F640C9040640748640091486400933A
:103EB0000364139046640092246414904564009156
:103EC000486400922464009304640C914864009355
:103ED0000464079043640092266413904064009148
:103EE000486400922864009303640C0364089045BE
:103EF0006400914864009229640093036413904520
:103F0000640091486400922964009303640C036484
:103F100002921F64059047640091486400922B64EC
:103F200000930364139045640091486400922B64ED
:103F3000009303641490436400914C6400922B64DA
:103F4000009303640C9042640293036403036402CD
:103F500090436400914C6400922B64009303640CC2
:103F6000904564009303640392216404914C6400BF
:103F7000922D64009303640C9043640840640091A4
:103F80004C6400922D640093036413903E6400918E
:103F90004A64009224640093036413903E64009189
:103FA0004A6400922464009303640E036406904301
:103FB0006400914C6400921F64009303640C903F72
:103FC00064073E6400914A6400921F640093036496
:103FD00013903C6400914C64009224640093036449
:103FE0000A03640990376400914A6400921F6400D8
:103FF0009303641490486400914864009230640014
:1040000093036426921F6414914764009304640C24
:1040100091476400930464079226641391476400F7
:1040200093036413921F640D9303640203640204F8
:10403000640391476400921F64009304640C9147E9
:1040400064009304640792216413914764009223EF
:1040500064009303641492246413914864009304ED
:10406000640C9148640093046407922B6414914893
:1040700064009303641391486400923064139304C2
:10408000640C04641B036409FF06014500FF2F0054
:1040900000C37500C20000C10600C00500B0077F64
:1040A00000B1077F00077E00077E00B2077E000791
:1040B0007E03905064009128700093087F00FF06F3
:1040C0000153099051640950640093097F0990518C
:1040D000640093097F089053640093087F12905105
:1040E00064009126700093097F129050640091281B
:1040F0006D0093087F119051640093097F129050D6
:10410000640091296E0093087F12904D640093091A
:104110007F12904C64009128700093087F08904DA6
:1041200064094C640093097F09904D640093097FF2
:10413000099050640093087F12904D64009126709E
:104140000093097F11904C640091286D0093087FC3
:1041500012904D640093097F12904C640091296E77
:104160000093087F11904A640093097F129047647E
:10417000009128700093087F099048640947640003
:1041800093097F099048640093097F08904B64006D
:1041900093087F12904864009126700093097F1263
:1041A0009047640091286D0093087F119048640047
:1041B00093097F129047640091296E0093087F1243
:1041C0009045640093097F11904464009128700029
:1041D00093087F099045640944640093097F09901E
:1041E00045640093097F099044640093087F12900E
:1041F0004164009126700093097F11904064009102
:10420000286D0093087F12097F23097F1290506464
:10421000009128700093087F099051640950640050
:1042200093097F089051640093097F0990536400BB
:1042300093087F12905164009126700093097F12B9
:104240009050640091286D0093087F119051640094
:1042500093097F129050640091296E0093087F1299
:10426000904D640093097F11904C64009128700078
:1042700093087F09904D64094C640093097F09906D
:104280004D640093097F099050640093087F11905A
:104290004D64009126700093097F12904C64009148
:1042A000286D0093087F12904D640093097F119050
:1042B0004C640091296E0093087F12904A64009329
:1042C000097F12904764009128700093087F09903D
:1042D00048640947640093097F0890486400930983
:1042E0007F09904B640093087F12904864009126E8
:1042F000700093097F129047640091286D00930825
:104300007F119048640093097F12904764009129BF
:104310006E0093087F129045640093097F119044CA
:1043200064009128700093087F09904564094464F3
:104330000093097F099045640093097F09904464C4
:104340000093087F11904164009126700093097FCB
:10435000129040640091286D1293097F11087F0428
:1043600008660408660A097F129047640091287065
:104370000093087F099048640847640093097F0907
:104380009048640093097F09904B640093087F1262
:10439000904864009126700093097F129047640052
:1043A00091286D0093087F119048640093097F1253
:1043B0009047640091296E0093087F129045640035
:1043C00093097F11904464009128700093087F093D
:1043D0009045640944640093097F09904564009303
:1043E000097F099044640093087F11904164009113
:1043F00026700093097F129040640091286D00930D
:10440000087F12097F11097F12097F12904764000B
:104410009128700093087F099048640847640093CE
:10442000097F099048640093097F09904B640093C9
:10443000087F0E912670049048640093097F1190C4
:104440004B640091286D0093087F1290486400939C
:10445000097F129047640091296E0093087F1290A3
:1044600045640093097F119044640091287009907D
:104470004564094464094564094464114164009138
:104480002670129040640091286D279309660309F5
:10449000660409660B08660A912866092966092CD4
:1044A00066092D7F092F7211307F12337F1230720F
:1044B000112F6612306612347208357F0934720982
:1044C0003372093066122F66112D66092E66092D8A
:1044D0007F092C6609296611277212FF0601450023
:1044E000FF2F0000C37300C11000C21100C00F00F5
:1044F000B0077F00077F0093126400FF060153108E
:10450000924564009313660492466404913A6408E9
:104510009245640093126410913D640093136610F9
:1045200092466400913664009312640892466400D7
:1045300091366408931366089242640091356400D2
:1045400093126410126408913364009313661092FE
:1045500043640091316400931264049244640C46F5
:1045600064009131640093136610924764009135A2
:1045700064009312640892486400913864089313AD
:104580006608924964089131640093126410905C4B
:1045900064085E64009135640093126410905B645B
:1045A0000093126408905C64009130640093136679
:1045B00010912F6400931264109246640093136666
:1045C0000492476404913364089242640093126435
:1045D00010913664009313661092476400912F6423
:1045E000009312640892476400912F640893136645
:1045F00008924B64009133640093126410126408B3
:1046000091366400931366109249640091366400F9
:1046100093126410924B64009313661092496400E5
:10462000913664009312640A92486400913A6406D9
:104630009313660592476400913D640B90546400A7
:104640009246640091366400931264049055640CA1
:104650005764009136640093136608905564009186
:104660003A6400931264081266089054640093122E
:10467000640890536400913D64009313660890525F
:1046800064084E6400912F64009312640813660856
:1046900090526400924A640490536400924B640404
:1046A00091336408904E640092476400931264084A
:1046B0001366089136640890536400924B64089125
:1046C0002F64009312640813660890576400924E9A
:1046D0006400912F64009313660891336400931370
:1046E0006608905A6400925164009313660813663A
:1046F00004905964009250640491366400931366E8
:104700000890576400924E640093136608905564B5
:104710000091366400931264109055640093136600
:1047200008913A6408905564009312640C905464A4
:1047300004913D6400931366089053640857640025
:1047400091336400931264109057640093136608C9
:1047500091366400931264089057640893126404BD
:1047600090556404913A640093136608905264086B
:10477000506400913164009312640890506408936F
:10478000136608905264009135640893126408908F
:104790005364085464009138640093136610905574
:1047A0006400913B6400931264109057640093136B
:1047B000660891336400931264109052640093125F
:1047C0006408905064009134640093136610904E16
:1047D00064009136640093126410136608913A6481
:1047E0000893126410913D640093136610126408DC
:1047F00091316408906164009131640093136608FC
:1048000014660490613C04605A0091336400931470
:104810006608146604906037045F500091356400A8
:104820009314660C905F32045055009136640093E7
:10483000146602905164029314660C9136641090D1
:1048400050550091366400931466029051640293AF
:1048500014661C90505500913664009313660290C4
:104860005164029312660C904E640091366400937A
:10487000136608904C6400913A6400931264081225
:104880006608126408904E6400913D6400931366BC
:104890001090505500913664009312640290516458
:1048A0000E50550091366400931366029051640EC9
:1048B00050550091366400931264029051640E4E7C
:1048C000640093136608904E640091366408904C1F
:1048D000640093126408904864009136640890481C
:1048E0006400931366089047640091366400931245
:1048F000640890456400913A640890426400931201
:10490000640890426400913D6400931366089042ED
:1049100064084E6400912F6400931264059047640C
:10492000054E6406476400912F640093136605905A
:104930004E64054764034E6403576400912F64007E
:10494000931264089057640893136608905764089C
:10495000576400912F6400931264089053640853C5
:104960006400912F64009313660891336408905A91
:10497000640093126608905A64009312640890577A
:1049800064009136640093136608905364084E6483
:1049900000913264009312641091326400931466A3
:1049A00008146608905164009136640093146608F8
:1049B00014660890536400913964083464089312B3
:1049C000640891346408905264009313660891342B
:1049D000640093126408905864009138640893123C
:1049E000640890596400913B640093136602905AE6
:1049F000640E9136640093126410905964009136ED
:104A0000640093136602905A640E91366400931208
:104A100064109059640093136602905A64065964B6
:104A200000913564089312640891356408905564C8
:104A300000931366089135640093126408905264E1
:104A400000913A640093126608126408905C640056
:104A5000913D640093136602905D64065C64025DA0
:104A600064065C64009133640093126402905D6498
:104A7000065C64025D64065C640091336400931319
:104A80006602905D64065C64085D640091336400B6
:104A900093126408905D6408931366089133640868
:104AA000905D640093126408905D64009133640823
:104AB000905A640093136608905864005A640091F9
:104AC000336400931264089058640091366408902F
:104AD0005464009312640890546400913A64009303
:104AE0001366089053640851640091326400931275
:104AF00064109055640091326400931366089055D9
:104B000064085564009132640093126408905564FF
:104B1000085364009313660890536400913264084C
:104B200090586400931264089132640890556408A8
:104B300055640091326400931264089053640091AC
:104B400036640890556400931264089139640093A8
:104B500013661091316400931264089049640093C5
:104B6000136608904E6400913164089050640850B8
:104B70006400913664009312640890556400913883
:104B8000640093136608905A64085C6408616400CA
:104B90005C64009137640093126408906164009132
:104BA00037640093146608146608146608906164FC
:104BB0000091386408905864009131640093146641
:104BC0000891336400931466089135640093146669
:104BD00008FF06014500FF2F0000C11800C01700A4
:104BE000C21900C37306931A6C00B3077F00B207A3
:104BF0007F0092386C00B0077F00B1077F009120E2
:104C00006E00FF0601530C931C6C0D1B6C0091246D
:104C10006E0C931C6C0091276E0D931A6C009125FD
:104C20006E06256E07931C6C0091256E0C931B6C11
:104C30000091296E0D931A6C00912C6E0CB3077FB6
:104C400000931A6C0091206E0D931C6C0C1B6C0071
:104C500091246E0D931C6C0091276E0C931A6C00BE
:104C600091256E07256E06931C6C00911D6E0C93AA
:104C70001B6C0092366C00911E6E0D931A6C0091A5
:104C80001F6E0DB3077F00931A6C0092386C009171
:104C9000206E0C931C6C0D1B6C0091246E0C931CED
:104CA0006C0091276E0D931A6C0091256E06256E8F
:104CB00006931C6C0091256E0D931B6C0091296E60
:104CC0000C931A6C00912C6E0D931A6C0091206E4F
:104CD0000C931C6C0091206E0D931B6C0091246E44
:104CE0000D931A6C0091276E06931A6C061B6C00CC
:104CF00091256E06256E07931A6C0091296E0C9310
:104D00001B6C00912A6E0D931A6C0092366C009108
:104D10002B6E0C931A6C00B3077F0092386C0091D5
:104D2000206E0D931C6C0C1B6C0091246E0D931C5B
:104D30006C0091276E0C931A6C0091256E07256EFE
:104D400006931C6C0091256E0D931B6C0091296ECF
:104D50000C931A6C00912C6E0DB3077F00931A6CA4
:104D60000091206E0C931C6C0D1B6C0091246E0C3A
:104D7000931C6C0091276E0D931A6C0091256E06A2
:104D8000256E06931C6C00911D6E0D931B6C00929A
:104D9000366C00911E6E0C931A6C00911F6E0DB351
:104DA000077F00931A6C0092386C0091206E0D936F
:104DB0001C6C0C1B6C0091246E0D931C6C009127D5
:104DC0006E0C931A6C0091256E06256E07931C6C71
:104DD0000091256E0C931B6C0091296E0D931A6C3B
:104DE00000912C6E0C931A6C0091206E0D931C6C2C
:104DF0000091206E0C931B6C0091246E0D931A6C25
:104E00000091276E06931A6C071B6C0091256E06A5
:104E1000256E06931A6C0091296E0D931B6C009100
:104E20002A6E0C931A6C0092366C00912B6E0D93C7
:104E30001A6C00B3077F0092386C0090486E0091A6
:104E4000206E0C931C6C0D1B6C0090486E0091241E
:104E50006E0C931C6C0091276E0D931A6C0090469B
:104E60006E0091256E06256E07931C6C0090466EB1
:104E70000091256E0C931B6C0091296E0D931A6C9A
:104E80000090466E00912C6E0CB3077F00931A6C55
:104E90000090486E0091206E0D931C6C0C1B6C00F2
:104EA00090486E0091246E0D931C6C0091276E0C3F
:104EB000931A6C0090496E0091256E07256E06933B
:104EC0001C6C0090496E00911D6E0C931B6C009140
:104ED0001E6E0D931A6C0092366C0090496E009114
:104EE0001F6E0DB3077F00931A6C0092386C009010
:104EF000486E0091206E0C931C6C0D1B6C0090484A
:104F00006E0091246E0C931C6C0091276E0D931A09
:104F10006C0090466E0091256E06256E06931C6C03
:104F20000090466E0091256E0D931B6C0091296ECA
:104F30000C931A6C0090466E00912C6E0D931A6CB7
:104F40000090486E0091206E0C931C6C0091206EB6
:104F50000D931B6C0090486E0091246E0D931A6C9B
:104F60000091276E06931A6C061B6C0090496E0028
:104F700091256E0690496E0091256E07931A6C007C
:104F800090496E0091296E0690496E06931B6C0045
:104F900090496E00912A6E0D931A6C0092366C0047
:104FA000904B6E00912B6E0C931A6C00B3077F0030
:104FB00092386C0090486E0091206E0D931C6C0C22
:104FC0001B6C0090486E0091246E0D931C6C009138
:104FD000276E0C931A6C0090466E0091256E072583
:104FE0006E06931C6C0090466E0091256E0D931B0F
:104FF0006C0091296E0C931A6C0090466E00912CF7
:105000006E0DB3077F00931A6C0090486E009120DC
:105010006E0C931C6C0D1B6C0090486E0091246EFE
:105020000C931C6C0091276E0D931A6C0090496EC6
:105030000091256E06256E06931C6C0090496E004B
:10504000911D6E0D931B6C00911E6E0C931A6C00DB
:1050500092366C0090496E00911F6E0DB3077F0071
:10506000931A6C0092386C0090486E0091206E0D7F
:10507000931C6C0C1B6C0090486E0091246E0D9379
:105080001C6C0091276E0C931A6C0090466E009178
:10509000256E06256E07931C6C0090466E009125C8
:1050A0006E0C931B6C0091296E0D931A6C00904648
:1050B0006E00912C6E0C931A6C0090486E0091203B
:1050C0006E0D931C6C0091206E0C931B6C0090482D
:1050D0006E0091246E0D931A6C0091276E06931A40
:1050E0006C071B6C0090496E0091256E0690496E0E
:1050F0000091256E06931A6C0090496E0091296EFE
:105100000690496E07931B6C0090496E00912A6EC1
:105110000C931A6C0092366C00904B6E00912B6EC3
:105120000DB3077F00077F00077F00077F00077F21
:1051300000077F00077F00077F00077F00077F00D1
:10514000077F00077F00077F00077F00077F0007BA
:105150007F00FF06014500FF2F0000C22000C11F95
:1051600000C37300C01E009322640091296400FFF5
:105170000601530B9322640B21640C2264009129D5
:10518000640B93226400912C640B9322640C2164C1
:105190000B226400912C640B93226400912E640C0A
:1051A0009322640B21640C226400912E640B9322E1
:1051B00064009130640B93226400912E6406932264
:1051C0006406226400912C640B932164009127648F
:1051D0000B932264009129640C9322640B21640BCD
:1051E0002264009129640C93226400912C640B9337
:1051F00022640C21640B226400912C640B932264C2
:1052000000912E640C9322640B21640B22640091A4
:105210002E640C932264009130640B2E640C932254
:105220006400912C640B932264009127640B9322F9
:1052300064009129640C9322640B21640B226400A6
:105240009129640C93226400912C640B9322640BCB
:1052500021640C226400912C640B93226400912E33
:10526000640C9322640B21640B226400912E640C65
:10527000932264009130640B93226400912E640B9E
:1052800093226600912C640C932164009127640B97
:10529000904B6400932264009129640B904D64004C
:1052A0009322640C904B64009321640B904864003B
:1052B000932264009129640C904B64009322640053
:1052C000912C640B904D64009322640B21640C902C
:1052D0004B640093226400912C640B932264009130
:1052E0002E640B904D64009322640C904B640093E9
:1052F00021640B9048640093226400912E640C900A
:105300004B6400932264009130640B904D640093D1
:10531000226400912E640B904B64009322640091F0
:105320002C640693226406904664009321640091E5
:1053300027640B90486400932264009129640B90C9
:105340004864009322640C21640B22640091296458
:105350000B93226400912C640C9322640B21640C47
:10536000226400912C640B93226400912E640B93B1
:1053700022640C21640B226400912E640B9322643E
:10538000009130640C93226400912E640B9321648D
:1053900000912C640C932264009127640B904B6461
:1053A00000932264009129640B904D640093226461
:1053B0000C904B64009321640B904864009322642A
:1053C000009129640B904B640093226400912C643B
:1053D0000C904D64009322640B21640B904B64008D
:1053E00093226400912C640C93226400912E640B30
:1053F000904D64009322640C904B64009321640BE5
:105400009048640093226400912E640B904B6400DA
:10541000932264009130640C904D640093226400E8
:10542000912E640B904B640093216400912C640BCB
:1054300090466400932264009127640C90486400B5
:10544000932264009129640B9322640B21640C2243
:1054500064009129640B93226400912C640C9322C4
:10546000640B21640B226400912C640C9322640071
:10547000912E640B9322640B21640C226400912E04
:10548000640B932264009130640693226406904872
:10549000640093226600912E640B904B640093216C
:1054A0006600912C640B904D640093226400912758
:1054B000640C90506400932264009129640B932241
:1054C000640B904D64009321640C904B6400932214
:1054D00064009129640B904D640093226400912C28
:1054E000640B9322640C904B64009321640B9048EE
:1054F000640093226400912C640C90466400932213
:105500006400912E640B904864009322640B9044D5
:1055100064009321640C9041640093226400912EF6
:10552000640B90466400932264009130640B9048B1
:10553000640093226400912E640C904464009321D3
:105540006400912C640B90416400932264009127C5
:10555000640C90466400932264009129640B904887
:1055600064009322640B21640C2264009129640B73
:1055700093226400912C640B9322640C21640B220F
:105580006400912C640B93226400912E640C93228E
:10559000640B21640C226400912E640B932264003E
:1055A0009130640B9041640093226400912E640C4E
:1055B0009044640093216400912C640B9046640035
:1055C000932264009127640B904864009322640046
:1055D0009129640C9322640B904664009321640B20
:1055E00090446400932264009129640C9046640006
:1055F00093226400912C640B9322640C9044640009
:105600009321640B9041640093226400912C640BFD
:105610009044640093226400912E640C9322640BE6
:10562000904164009321640B903F640093226400D6
:10563000912E640C904164009322640091306405C3
:10564000932264069044640093226400912E6406C1
:10565000932264069046640093216400912C640BAD
:1056600090446400932264009127640B29642229EA
:10567000640C2C64222C640B2E642293226400910F
:105680002E640C93226400913064059322640622F8
:105690006400912E640693226405216400912C64B9
:1056A0000C932264009127640BFF06014500FF2F35
:1056B00000FFFFFFFFFFFFFFFFFFFFFFFFFFFFFFF9
:1056C000FFFFFFFFFFFFFFFFFFFFFFFFFFFFFFFFEA
:1056D000FFFFFFFFFFFFFFFFFFFFFFFFFFFFFFFFDA
:1056E000FFFFFFFFFFFFFFFFFFFFFFFFFFFFFFFFCA
:1056F000FFFFFFFFFFF6F6FFF6FFFFFF00F6FFAD2F
:105700005BFFFFF65B5B000000FFFFFF5B5B0000E1
:1057100000FFFFFFFF09000009FFFFFFFF5BA40080
:1057200009FFFFFFFFADAD0009FFFFFFFFF6AD0072
:1057300009AD5B090052A4FFFF525209000009F6AF
:10574000A400095252A4A4AD52095252A45BFFFF17
:105750005B095252A4A45B095209525209A4525245
:105760005B09525B09AD0952A409525B09F6095B5A
:10577000ADFFFFFFFFFF5B0900FFFFFFFF09000018
:1057800009ADF6FFFFF6FF00FFA4ADFFFFFF5BAD25
:10579000FFA4ADFFFFFFFFF6F6A4F6FFFFFFFFF645
:1057A000A4ADF6FFFFFFFFFF5BF6FFFFFFFFFFFF6C
:1057B0005B0052ADFFFFFFFFFFA4ADF6FFAD00A4FD
:1057C000FFFFFFFF52FFFFADADFFFFA4F6AD5B5B38
:1057D000A4F6FF5BAD52095BA4ADFFA4AD09525B1B
:1057E000ADADFFA4F6095BA4F6ADFFADF6525BAD1F
:1057F000F6FFFFFFFFFFFFFFFFFFFFFFFFFFFFFFC2
:10580000FFF6FFFFFFFFFFFFFFF6FFFFFFFFFFFFBA
:10581000FFF6FFFFFFFFFFFFFFF6FFFFFFFFFFFFAA
:10582000FFF6FFF6FFFFFFFFFFADF6FFFFFFFFFFF5
:10583000FFFFFFFFFFFFFFFFFFFFFFFFFFFFFFFF78
:10584000FFFFFFFFFFFFFFFFFFFFFFFFFFFFFFFF68
:10585000FFFFFFFFFFFFFFFFFFFFFFFFFFFFFFFF58
:10586000FFFFFFFFFFFFFFF6FFFFFFFFFFFFA400AB
:10587000ADFFFFFFFFFFFFFFFFFFFFFFFFFFFFFF8A
:10588000FFFFFFFFFFFFFFFFFFFFFFFFFFFFFFFF28
:10589000FFFFFFFFFFFFFFFFFFFFFFFFFFFFFFFF18
:1058A000FFFFFFFFFFFFFFFFFFFFFFFFFFFFFFAD5A
:1058B000A4FFFFFFFFFFFFFFFFFFFFFFFFFFFFFF53
:1058C000FFFFFFFFFFFFFFFFFFFFFFFFFFFFFFFFE8
:1058D000FFFFFFFFFFFFFFFFFFFFFFFFFFFFFFFFD8
:1058E000FFFFFFFFFFFFFFFFFFADF6FFFFFFFFF62C
:1058F000FFFFFFFFFFFFFFFFFFFFFFFFFFFFFFFFB8
:10590000FFFFFFFFFFFFFFFFFFFFFFFFFFFFFFFFA7
:10591000FFFFFFFFFFFFFFFFFFFFFFFFFFFFFFFF97
:10592000FFFFFFFFFFFFFFFFFFFFFFFFFFFFFFFF87
:1059300009FFFFFFFFFFFFFFFFFFFFFFFFFFFFFF6D
:10594000FFFFFFFFFFFFFFFFFFFFFFFFFFFFFFFF67
:10595000FFFFFFFFFFFFFFFFFFFFFFFFFFFFFFFF57
:10596000FFFFADA4ADFFFFFFA4000000A4A4090049
:1059700000FFFFFFFFFFFFFFFFFFFFFFFFFFFFFF36
:10598000FFFFFFFFFFFFFFFFFFFFFFFFFFFFFFFF27
:10599000FFFFFFFFFFFFFFFFFFFFFFFFFFFFFFFF17
:1059A000FFF6FFFFFFFFFFF6ADFFF6FFFFF6A45285
:1059B00052FFFFFFFFFFFFFFFFFFFFFFFFFFFFFFA4
:1059C000FFFFFFFFFFFFFFFFFFFFFFFFFFFFFFFFE7
:1059D000FFFFFFFFFFFFFFFFFFFFFFFFFFFFFFFFD7
:1059E000FFA4A4A4A4ADFFFFFF090000000000ADC8
:1059F000FFFFFFFFFFFFFFFFFFFFFFFFFFFFFFFFB7
:105A0000FFFFFFFFFFFFFFFFFFFFFFFFFFFFFFFFA6
:105A1000FFFFFFFFFFFFFFFFFFFFFFFFFFFFFFFF96
:105A2000FFFFFFFFFFFFFFF6F6FFFFFFFFFFFFFF98
:105A3000ADFFFFFFFFFFFFFFFFFFFFFFFFFFFFFFC8
:105A4000FFFFFFFFFFFFFFFFFFFFFFFFFFFFFFFF66
:105A5000FFFFFFFFFFFFFFFFFFFFFFFFFFFFFFFF56
:105A6000FFADADF6FFFFFFFFFF5B0000ADF6FFFFF0
:105A7000FFFFFFFFFFFFFFFFFFFFFFFFFFFFFFFF36
:105A8000FFFFFFFFFFFFFFFFFFFFFFFFFFFFFFFF26
:105A9000FFFFFFFFFFFFFFFFFFFFFFFFFFFFFFFF16
:105AA000FFF6ADA4A4ADFFFFFFFFA4090009F6F6C1
:105AB000FFFFFFFFFFFFFFFFFFFFFFFFFFFFFFFFF6
:105AC000FFFFFFFFFFFFFFFFFFFFFFFFFFFFFFFFE6
:105AD000FFFFFFFFFFFFFFFFFFFFFFFFFFFFFFFFD6
