:100000000C94271F0C949F1F0C949F1F0C949F1FF0
:100010000C949F1F0C949F1F0C949F1F0C949F1F68
:100020000C949F1F0C949F1F0C949F1F0C949F1F58
:100030000C949F1F0C94FE1F0C943E200C949F1F49
:100040000C949F1F0C949F1F0C949F1F0C949F1F38
:100050000C949F1F0C949F1F0C949F1F0C949F1F28
:100060000C949F1F0C949F1F0C949F1F0C949F1F18
:100070005A5501200101003808000000000000006E
:100080000000000000000000000000000000000070
:100090008100450027FF24FF2A902B1C210C22FB06
:1000A000850084008903888D81096F0244424700DE
:1000B0004501B083B300B10125118A4F8B0337236B
:1000C0003A230227F323EB23432348234D23DC2346
:1000D0005023532356239A2300020800085504088E
:1000E0005A0000F8000990000A1E32050000FF00C7
:1000F0000000D80000000000000000000000000028
:1001000000000000000000000000000000000000EF
:1001100000000000000000000000000000000000DF
:1001200000000000000000000000000000000000CF
:1001300000000000000000000000000000000000BF
:10014000000000000000000000000049000000491D
:100150005252000052525C2D0000000000000000CE
:1001600000000000000000000040000000494A526A
:10017000004952525B1C52531C25241B2425251B6D
:100180000A0A2D1C12120A0A0000000000000000DA
:10019000404949494949525B5B5B525B1C1C131245
:1001A000241C1209090912090909090A0A0A0A0A7A
:1001B0000A13120A0A12130A0000000000009252E9
:1001C0005252525213121309001C0A1212401B659C
:1001D000090A0009241B120000251C1C010025240B
:1001E0001C1C002425242424000000000000524987
:1001F000494000001B1352494900641C1C5B4A48DB
:100200001C651C2552491C1C652464491C1C652561
:1002100064491C1C6D2E5C490000000000000000B9
:100220000000004900000000535200000053522516
:1002300000004A52252500005B251300005B530097
:100240000A1C095B1C657F374052522E2E1C525CE3
:100250002E251B1324251C1C12002525120000121C
:100260001B0000132E37001B37372E2E37372E2E4C
:100270002E2E2E2E6E6E6E1C1313120009131200FA
:10028000001213130012251C13132E371C13131303
:10029000361C131B1B1B25131C1C1B1B1B1C1C1C93
:1002A0001C1C1C1C1C1C1C131312121313001313F4
:1002B000131C000913131C010037131C13002E2EEE
:1002C0001C1C001C772E2500137F251C010A3724D7
:1002D0001C1C0A2E25250900132E242525252E2534
:1002E0002525252525252D2E251B2E2E251C1325C0
:1002F000251C1C1C1C011C1C1300011C0A00016590
:10030000775C016E7F6E521B25256D1C5249252599
:100310001C1353001C1C1C524A001B135B5B000087
:1003200009525C0000005B5C000000001B00000044
:100330000000000000000000135B7F776E6E136505
:1003400077766E6E1B65777676761B5BBF76B676B4
:1003500009136DBFB7B6001B125C76BF0000121BFD
:10036000125B00000000090A6E6E6E77241C6E6E30
:1003700077251C1C6E776E1C1C1C76761C1C242595
:10038000B765646D6D1B766D6D5B09125B5C5B120E
:100390005B641213131B12121C1C1C1C1C241C1C3F
:1003A000242525242425251B00002513000064BFD7
:1003B00000096EBFBF6D6EBF6D5B12135B1213122F
:1003C00009000901000000002E1C0900096E01004F
:1003D00009767F7F12777F7F6412BF775B121B09DC
:1003E0005B121B0900001B09000000000000000058
:1003F00000000000000000007F7F53131300641210
:100400001B0100001B1200000000000000000000A3
:1004100000000000000000000000000000000000DC
:1004200000000000000000000000000000002600A6
:10043000000026002F0000002F00370000003700CA
:10044000FF000000FF00BF000000BF0037000037C2
:100450000000002626000000000000000000262604
:1004600026262600000000002F00000000370000B4
:100470000000FF00000000BF000000003700000087
:100480000000262626262600000000000000262662
:10049000262626002F000000000037000000000084
:1004A000FFFFFFFF0000BF0000000000370000005A
:1004B0000000262626262600000000000000262632
:1004C000262600002F0000002F0037000000370014
:1004D000FFFFFFFF0000BF000000BF00370000006B
:1004E000370026262626000000000000000000003D
:1004F00026262600002F00002F00370000003700BE
:10050000FF000000FF00BF000000BF003700003701
:100510000000262626000000000000000000260043
:10052000000026002F0000002F00003700370000D9
:100530000000FF00000000BF00BF00003700000007
:100540003700260000002600000000000000000028
:10055000000000000000000000000000000000009B
:1005600000000000000000000000009B000000529E
:100570009BA400005B9B6D77000000000000000062
:100580000000000000000000005B000000E4F6FF37
:10059000099BEDF6FFBFA4ADBFBFBFBF767F7FB79E
:1005A000B7BF7F766EB7B7BF000000000000000045
:1005B0005BB6F6F6F6FFFFFFFFBFFFFFFFBFBFAE64
:1005C000FFFFFFB7AD65FFFFB7B6AD65FFFFBFB774
:1005D000AE6EFFFFBFB7B765000000000000F6F683
:1005E000EDEDADA4B66D6D5C526E656565526576D8
:1005F0005C5C52536E246552526E25255B52772DFA
:100600002525526E6E2D2525000000000000A49BBC
:100610009B4900006564A49B92006D252564934965
:10062000656E652E9B5224256D25655225246D2D02
:10063000655225256E2E6452000000000000000067
:100640000000004A000000005B9B0000005B5B2D87
:100650000000525B2E2E00015B2D1C01005C5B0133
:100660004A654A5B1C6E7F77495B9B77776D5B655C
:10067000776E65656D2D25255C522E25130949641D
:100680001C09095C7F7F091C7F7F777F777F7777E5
:100690007F7F7776777F7F6E656E6EA4B6FF655B32
:1006A000A4B7BFFF526DBFBFBFFF7FBFBFBFBFFFBC
:1006B000BFBFB7BFFFFF7FB7BFBFFFFF6EB7BFBFF3
:1006C000FFFF77BFBFBFFFFFFFFFBFBFB75BFFFFEE
:1006D000BFBFA464FFFFBFADA47FFFFFBFA4BF7F68
:1006E000FFBFADBFBFBFFFB6BFBFBF77F7BFBFBFC5
:1006F0007777FFBFBFBF64526D7F6E2E2D2D7F7643
:100700006E6E6E2E777777762E1C7F776E251C2582
:10071000776525251C096E6E1C0949255B494A6EC3
:100720007F645377BF775B5C256E6E255B4A2565DA
:100730001C1B5B002524245B53001C1B5B5C00001E
:100740000A5B640000006464000000005C000000BC
:1007500000000000000000005B5C7FBF77765C6DEE
:100760007FB777775C6D7FBF77775C64BFBFBFBFB4
:100770000A5C6EBFBFBF0065646DBFBF00005B6DEC
:10078000646D00000000125B7777777F6E6E77777D
:100790007F766D7677BF776D6E76BF7F6D6E767F75
:1007A000BF7676BFBF76BFBFBFB664ADADB6B6ADE0
:1007B000BFFF646DADB6AD6477BFBFBFFFFF77BF4E
:1007C000BFBFFFFF7FBFBFBFFFF6BFB7ADF6FFFFE5
:1007D000A4ADFFFFFFFFFFFFFFFFFFFFFFFFFFF6DF
:1007E000A4005B5200000000BFBFAD5B64BFB6ADAC
:1007F000ADBFFFBFFFFFFFFFBF64FFFFBFB6765B6C
:10080000FFBFBF5B0000FF5C0000000000000000B5
:100810000000000000000000BFBF645C5C006E5C74
:10082000654900006D5B0000000000000000000052
:1008300000000000000000000000000000000000B8
:10084000000000000000000006000400000001009D
:10085000020003000400050006000700080009006C
:100860000A000B000C000D000E000F00100000002D
:1008700011001200130014001500160006000300FA
:1008800000001700180019001A001B001C001D00B2
:100890001E001F002000210022002300240025004C
:1008A0002600000000408891D2E4ADB5B6BEBFFF7F
:1008B0000000000000000000000000000000000038
:1008C0000000000000000000000000000000000028
:1008D0000000000000000000000000000000000018
:1008E0000000FF00000000FFFFFF000000FFFFFF0F
:1008F00000000000FF0000000000FF0000000000FA
:10090000000000000000FF000000000000000000E8
:10091000FFFF00FFFF00FFFF00FFFF00FF0000FFE1
:1009200000000000000000000000000000000000C7
:1009300000000000000000000000000000000000B7
:1009400000000000000000FF00FF0000FFFFFFFFAD
:10095000FF0000FF00FF000000FF00FF0000FFFF9E
:10096000FFFFFF0000FF00FF00000000000000008C
:1009700000FF0000000000FFFFFF0000FF0000007C
:10098000000000FFFF000000000000FF0000FFFF6C
:10099000FF0000000000FF00000000000000000059
:1009A000FFFF0000FF00FFFF0000FF00000000FF4E
:1009B00000000000FF00000000FF00000000FF003A
:1009C00000FFFF00FF0000FFFF000000000000002C
:1009D00000FF00000000FF00FF000000FF00FF001C
:1009E000000000FF00000000FF00FF00FF00FF000C
:1009F00000FF000000FFFF00FF00000000000000FB
:100A000000FFFF00000000FFFF00000000FF0000EB
:100A100000000000000000000000000000000000D6
:100A200000000000000000000000000000000000C6
:100A30000000FF00000000FF0000000000FF0000B9
:100A4000000000FF0000000000FF0000000000FFA9
:100A5000000000000000FF00000000000000000097
:100A600000FF000000000000FF0000000000FF0089
:100A700000000000FF0000000000FF000000000078
:100A8000FF00000000FF0000000000000000000068
:100A900000000000000000FF00FF000000FFFFFF5B
:100AA0000000FFFFFFFFFF0000FFFFFF000000FF4F
:100AB00000FF000000000000000000000000000037
:100AC0000000000000000000FF0000000000FF0028
:100AD0000000FFFFFFFFFF000000FF00000000001C
:100AE000FF00000000000000000000000000000007
:100AF00000000000000000000000000000000000F6
:100B0000000000000000000000000000000000FFE6
:100B1000FF00000000FFFF00000000FF00000000D9
:100B200000000000000000000000000000000000C5
:100B30000000FFFFFFFFFF000000000000000000BA
:100B400000000000000000000000000000000000A5
:100B50000000000000000000000000000000000095
:100B6000000000000000000000000000000000FF86
:100B7000FF00000000FFFF00000000000000000078
:100B800000000000000000000000FF00000000FF67
:100B900000000000FF00000000FF00000000FF0058
:100BA0000000000000000000000000000000000045
:100BB000002F2F2F00002F0000002F002F00002FEC
:100BC0002F002F002F002F002F2F00002F002F00AD
:100BD00000002F00002F2F2F000000000000000059
:100BE00000002F000000002F2F00000000002F0049
:100BF000000000002F00000000002F000000000097
:100C00002F000000002F2F2F000000000000000028
:100C1000002F2F2F00002F0000002F0000000000E9
:100C20002F0000002F2F0000002F000000002F00D9
:100C3000000000002F2F2F2F2F00000000000000C9
:100C4000002F2F2F00002F0000002F0000000000B9
:100C50002F00002F2F2F0000000000002F002F007A
:100C600000002F00002F2F2F0000000000000000C8
:100C70000000002F000000002F2F0000002F002F89
:100C800000002F00002F00002F2F2F2F2F0000001B
:100C9000002F00000000002F0000000000000000F6
:100CA0002F2F2F2F2F002F00000000002F000000FB
:100CB00000002F2F2F2F0000000000002F002F001A
:100CC00000002F00002F2F2F000000000000000068
:100CD00000002F2F0000002F000000002F00000058
:100CE00000002F2F2F2F00002F0000002F002F00BB
:100CF00000002F00002F2F2F000000000000000038
:100D00002F2F2F2F2F00000000002F000000002F9A
:100D1000000000002F000000002F00000000002F46
:100D200000000000002F0000000000000000000094
:100D3000002F2F2F00002F0000002F002F00000099
:100D40002F00002F2F2F00002F0000002F002F005A
:100D500000002F00002F2F2F0000000000000000D7
:100D6000002F2F2F00002F0000002F002F00000069
:100D70002F00002F2F2F2F00000000002F00000059
:100D8000002F0000002F2F000000000000000000D6
:100D900000000000000000000000000000FFFF0055
:100DA000000000FFFF00000000000000000000FF46
:100DB000FF00000000FFFF00000000000000000036
:100DC00000000000000000000000000000FFFF0025
:100DD000000000FFFF00000000000000000000FF16
:100DE000FF00000000FFFF00000000FF0000000007
:100DF00000000000FF00000000FF00000000FF00F6
:100E0000000000FF000000000000FF0000000000E4
:100E100000FF000000000000FF00000000000000D4
:100E2000000000000000000000000000FFFFFFFFC6
:100E3000FF00000000000000000000000000FFFFB5
:100E4000FFFFFF00000000000000000000000000A5
:100E500000FF000000000000FF000000000000FF95
:100E6000000000000000FF00000000FF0000000084
:100E7000FF00000000FF0000000000000000000074
:100E800000FFFFFF0000FF000000FF000000000067
:100E9000FF000000FFFF00000000FF000000000056
:100EA000000000000000FF00000000000000000043
:100EB00000FFFFFF0000FF000000FF00FF00FFFF3A
:100EC000FF00FF00FF00FF00FF00FFFFFF00FF002B
:100ED0000000000000FFFFFF000000000000000015
:100EE00000FFFFFF0000FF000000FF00FF00000008
:100EF000FF00FF000000FF00FFFFFFFFFF00FF00FB
:100F00000000FF00FF000000FF00000000000000E4
:100F1000FFFFFFFF0000FF000000FF00FF000000D8
:100F2000FF00FFFFFFFF0000FF000000FF00FF00C9
:100F30000000FF00FFFFFFFF0000000000000000B6
:100F400000FFFFFF0000FF000000FF00FF000000A7
:100F50000000FF0000000000FF0000000000FF0094
:100F60000000FF0000FFFFFF000000000000000085
:100F7000FFFFFFFF0000FF000000FF00FF00000078
:100F8000FF00FF000000FF00FF000000FF00FF0067
:100F90000000FF00FFFFFFFF000000000000000056
:100FA000FFFFFFFFFF00FF0000000000FF00000048
:100FB0000000FFFFFFFF0000FF0000000000FF0037
:100FC00000000000FFFFFFFFFF0000000000000026
:100FD000FFFFFFFFFF00FF0000000000FF00000018
:100FE0000000FFFFFFFF0000FF0000000000FF0007
:100FF00000000000FF0000000000000000000000F2
:1010000000FFFFFF0000FF000000FF00FF000000E6
:101010000000FF00FFFFFF00FF000000FF00FF00D7
:101020000000FF0000FFFFFFFF00000000000000C5
:10103000FF000000FF00FF000000FF00FF000000B5
:10104000FF00FFFFFFFFFF00FF000000FF00FF00A9
:101050000000FF00FF000000FF0000000000000093
:1010600000FFFFFF00000000FF0000000000FF0085
:1010700000000000FF0000000000FF000000000072
:10108000FF00000000FFFFFF000000000000000064
:1010900000000000FF0000000000FF000000000052
:1010A000FF0000000000FF00FF000000FF00FF0045
:1010B0000000FF0000FFFFFF000000000000000034
:1010C000FF000000FF00FF0000FF0000FF00FF0026
:1010D0000000FFFF00000000FF00FF000000FF0015
:1010E00000FF0000FF000000FF0000000000000003
:1010F000FF0000000000FF0000000000FF000000F3
:101100000000FF0000000000FF0000000000FF00E2
:1011100000000000FFFFFFFFFF00000000000000D4
:10112000FF000000FF00FFFF00FFFF00FF00FF00C7
:10113000FF00FF000000FF00FF000000FF00FF00B5
:101140000000FF00FF000000FF00000000000000A2
:10115000FF000000FF00FFFF0000FF00FF00FF0096
:10116000FF00FF0000FFFF00FF000000FF00FF0086
:101170000000FF00FF000000FF0000000000000072
:1011800000FFFFFF0000FF000000FF00FF00000065
:10119000FF00FF000000FF00FF000000FF00FF0055
:1011A0000000FF0000FFFFFF000000000000000043
:1011B000FFFFFFFF0000FF000000FF00FF00000036
:1011C000FF00FFFFFFFF0000FF0000000000FF0026
:1011D00000000000FF000000000000000000000010
:1011E00000FFFFFF0000FF000000FF00FF00000005
:1011F000FF00FF000000FF00FF00FF00FF00FF00F6
:1012000000FF000000FFFF00FF00000000000000E2
:10121000FFFFFFFF0000FF000000FF00FF000000D5
:10122000FF00FFFFFFFF0000FF0000FF0000FF00C6
:101230000000FF00FF000000FF00000000000000B1
:1012400000FFFFFF0000FF000000FF00FF000000A4
:10125000000000FFFFFF000000000000FF00FF0093
:101260000000FF0000FFFFFF000000000000000082
:10127000FFFFFFFFFF000000FF0000000000FF0075
:1012800000000000FF0000000000FF000000000060
:10129000FF0000000000FF00000000000000000050
:1012A000FF000000FF00FF000000FF00FF00000043
:1012B000FF00FF000000FF00FF000000FF00FF0034
:1012C0000000FF0000FFFFFF000000000000000022
:1012D000FF000000FF00FF000000FF00FF00000013
:1012E000FF00FF000000FF00FF000000FF0000FF04
:1012F00000FF00000000FF000000000000000000F0
:10130000FF000000FF00FF000000FF00FF00FF00E3
:10131000FF00FF00FF00FF00FF00FF00FF00FF00D5
:10132000FF00FF0000FF00FF0000000000000000C1
:10133000FF000000FF00FF000000FF0000FF00FFB3
:1013400000000000FF00000000FF00FF0000FF00A1
:101350000000FF00FF000000FF0000000000000090
:10136000FF000000FF00FF000000FF00FF00000082
:10137000FF0000FF00FF00000000FF000000000071
:10138000FF0000000000FF0000000000000000005F
:10139000FFFFFFFF0000000000FF00000000FF0053
:1013A000000000FF00000000FF0000000000FF0040
:1013B00000000000FFFFFFFF000000000000000031
:1013C0000000FFFF000000FF0000000000FF000021
:1013D0000000FFFF0000000000FF0000000000FF11
:1013E000000000000000FFFF0000000000000000FF
:1013F0000000FFFF000000FF0000FF00FF00FFFFF4
:1014000000FFFF00FF0000FFFF00FFFF00FF00FFE5
:101410000000FF000000FFFF0000000000000000CF
:1014200000FFFF000000000000FF0000000000FFC0
:101430000000000000FFFF00000000FF00000000AF
:1014400000FF000000FFFF0000000000000000009F
:10145000000000000000000000000000000000008C
:10146000000000000000000000000000000000007C
:10147000000000000000000000000000000000006C
:10148000A4A4A4A4A4A4A4A4A4A4A4A4A4A4A4A41C
:10149000A4A4A4A4A4A4A4A4A4A4A4A4A4A4A4A40C
:1014A000A4A4A4A4A4A4A4A4A4A4A4A4A4A4A4A4FC
:1014B000A4A4A4A4A4A4A4A4A4A4A4A4A4A4A4A4EC
:1014C000A400A4A4A4A400FFA4A4A400FFFFA4A4B7
:1014D000A400FFF8A4A400FFFFF8A4A400FFF8F8FC
:1014E000A4A4A4A4A4A4A400000000A400FFFFFFDF
:1014F000FF00FFFFFFFFFFFFF8FFFFFFFFFFF8FF09
:10150000FFFFFFFFFFFFFFFFFFFFFFFFFFFFFFFFEB
:10151000A4A4A4A4A4A4A4A4A4A4A4A400A4A4A42F
:10152000A4A4FF00A4A4A4A4FFFF00A4A4A4FFFFFC
:1015300000A4A4A4FFFFFF00A4A4FFFFFF00A4A435
:10154000A400FFFFF8FFA400FFFFFFFFA400FFFFC0
:10155000FFFFA400FFFFFFFFA400FFFFFFFFA400A9
:10156000FFFFFFFFA400FFFFFFFFA400FFFFFFFF3F
:10157000FFFFFFFFFFFFFFFFFFFFFFFFFFFFFFFF7B
:10158000FFFFFFFFFFFFFFFFFFFFFFFFFFFFFFFF6B
:10159000FFFFFFFFFFFFFFFFFFFFFFFFFFFFFFFF5B
:1015A000FFFFFFFF00A4FFFFFFFF00A4FFFFFFFFFF
:1015B00000A4FFFFFFFF00A4FFFFFFFF00A4FFFF49
:1015C000FFFF00A4FFFFFFFF00A4FFFFFFFF00A439
:1015D000A4A400FFFFFFA4A400FFFFFFA4A4A40095
:1015E000FFFFA4A4A400FFFFA4A4A4A400FFA4A43C
:1015F000A4A4A400A4A4A4A4A4A4A4A4A4A4A4A44F
:10160000FFFFFFFFFFFFFFFFFFFFFFFFFFFFFFFFEA
:10161000FFFFFFFFFFFFFFFFFFFFFFFFFFFF00FFD9
:10162000FFFFFF00A400000000A4A4A4A4A4A4A49D
:10163000FFFFFF00A4A4FFFFFF00A4A4FFFF00A47E
:10164000A4A4FFFF00A4A4A4FF00A4A4A4A400A435
:10165000A4A4A4A4A4A4A4A4A4A4A4A4A4A4A4A44A
:10166000A4A4A4A4A4A4A4A4A4A4A4A4A4A4A4A43A
:10167000A400A4A4A4A40007A4A4A4000707A4A4ED
:10168000A40007FCA4A4000707FCA4A40007FCFC1A
:10169000A4A4A4A4A4A4A400000000A40007070715
:1016A0000700070707070707FC0707070707FC07E7
:1016B00007070707070707070707070707070707BA
:1016C000A4A4A4A4A4A4A4A4A4A4A4A400A4A4A47E
:1016D000A4A40700A4A4A4A4070700A4A4A4070723
:1016E00000A4A4A407070700A4A407070700A4A454
:1016F000A4000707FC07A40007070707A4000707C3
:101700000707A40007070707A40007070707A400A7
:1017100007070707A40007070707A400070707072D
:101720000707070707070707070707070707070749
:101730000707070707070707070707070707070739
:101740000707070707070707070707070707070729
:101750000707070700A40707070700A407070707ED
:1017600000A40707070700A40707070700A4070747
:10177000070700A40707070700A40707070700A437
:10178000A4A400070707A4A400070707A4A4A400B3
:101790000707A4A4A4000707A4A4A4A40007A4A462
:1017A000A4A4A400A4A4A4A4A4A4A4A4A4A4A4A49D
:1017B00007070707070707070707070707070707B9
:1017C00007070707070707070707070707070007B0
:1017D00007070700A400000000A4A4A4A4A4A4A4D4
:1017E00007070700A4A407070700A4A4070700A48D
:1017F000A4A4070700A4A4A40700A4A4A4A400A46C
:10180000A4A4A4A4A4A4A4A4A4A4A4A4A4A4A4A498
:10181000A4A4A4A4A4A4A4A4A4A4A4A4A4A4A4A488
:10182000A400A4A4A4A40020A4A4A4002020A4A4F0
:10183000A40020FCA4A4002020FCA4A40020FCFC04
:10184000A4A4A4A4A4A4A400000000A40020202018
:101850002000202020202020FC2020202020FC20F0
:101860002020202020202020202020202020202078
:10187000A4A4A4A4A4A4A4A4A4A4A4A400A4A4A4CC
:10188000A4A42000A4A4A4A4202000A4A4A42020F4
:1018900000A4A4A420202000A4A420202000A4A40C
:1018A000A4002020FC20A40020202020A400202030
:1018B0002020A40020202020A40020202020A400FC
:1018C00020202020A40020202020A4002020202050
:1018D0002020202020202020202020202020202008
:1018E00020202020202020202020202020202020F8
:1018F00020202020202020202020202020202020E8
:101900002020202000A42020202000A4202020200F
:1019100000A42020202000A42020202000A420209B
:10192000202000A42020202000A42020202000A48B
:10193000A4A400202020A4A400202020A4A4A4006B
:101940002020A4A4A4002020A4A4A4A40020A4A433
:10195000A4A4A400A4A4A4A4A4A4A4A4A4A4A4A4EB
:101960002020202020202020202020202020202077
:101970002020202020202020202020202020002087
:1019800020202000A400000000A4A4A4A4A4A4A4D7
:1019900020202000A4A420202000A4A4202000A413
:1019A000A4A4202000A4A4A42000A4A4A4A400A46F
:1019B000A4A4A4A4A4A4A4A4A4A4A4A4A4A4A4A4E7
:1019C000A4A4A4A4A4A4A4A4A4A4A4A4A4A4A4A4D7
:1019D000A400A4A4A4A400C0A4A4A400C0C0A4A45F
:1019E000A400C0FCA4A400C0C0FCA4A400C0FCFCD3
:1019F000A4A4A4A4A4A4A400000000A400C0C0C087
:101A0000C000C0C0C0C0C0C0FCC0C0C0C0C0FCC01E
:101A1000C0C0C0C0C0C0C0C0C0C0C0C0C0C0C0C0C6
:101A2000A4A4A4A4A4A4A4A4A4A4A4A400A4A4A41A
:101A3000A4A4C000A4A4A4A4C0C000A4A4A4C0C022
:101A400000A4A4A4C0C0C000A4A4C0C0C000A4A49A
:101A5000A400C0C0FCC0A400C0C0C0C0A400C0C0DE
:101A6000C0C0A400C0C0C0C0A400C0C0C0C0A4000A
:101A7000C0C0C0C0A400C0C0C0C0A400C0C0C0C01E
:101A8000C0C0C0C0C0C0C0C0C0C0C0C0C0C0C0C056
:101A9000C0C0C0C0C0C0C0C0C0C0C0C0C0C0C0C046
:101AA000C0C0C0C0C0C0C0C0C0C0C0C0C0C0C0C036
:101AB000C0C0C0C000A4C0C0C0C000A4C0C0C0C0DE
:101AC00000A4C0C0C0C000A4C0C0C0C000A4C0C0AA
:101AD000C0C000A4C0C0C0C000A4C0C0C0C000A49A
:101AE000A4A400C0C0C0A4A400C0C0C0A4A4A400FA
:101AF000C0C0A4A4A400C0C0A4A4A4A400C0A4A462
:101B0000A4A4A400A4A4A4A4A4A4A4A4A4A4A4A439
:101B1000C0C0C0C0C0C0C0C0C0C0C0C0C0C0C0C0C5
:101B2000C0C0C0C0C0C0C0C0C0C0C0C0C0C000C075
:101B3000C0C0C000A400000000A4A4A4A4A4A4A445
:101B4000C0C0C000A4A4C0C0C000A4A4C0C000A461
:101B5000A4A4C0C000A4A4A4C000A4A4A4A400A4DD
:101B6000A4A4A4A4A4A4A4A4A4A4A4A4A4A4A4A435
:101B7000A4A4A4A4A4A4A4A4A4A4A4A4A4A4A4A425
:101B8000A400A4A4A4A4003FA4A4A4003F3FA4A430
:101B9000A4003FFCA4A4003F3FFCA4A4003FFCFC25
:101BA000A4A4A4A4A4A4A400000000A4003F3F3F58
:101BB0003F003F3F3F3F3F3FFC3F3F3F3F3FFC3FFA
:101BC0003F3F3F3F3F3F3F3F3F3F3F3F3F3F3F3F25
:101BD000A4A4A4A4A4A4A4A4A4A4A4A400A4A4A469
:101BE000A4A43F00A4A4A4A43F3F00A4A4A43F3FF6
:101BF00000A4A4A43F3F3F00A4A43F3F3F00A4A4EF
:101C0000A4003F3FFC3FA4003F3F3F3FA4003F3FB5
:101C10003F3FA4003F3F3F3FA4003F3F3F3FA40062
:101C20003F3F3F3FA4003F3F3F3FA4003F3F3F3F78
:101C30003F3F3F3F3F3F3F3F3F3F3F3F3F3F3F3FB4
:101C40003F3F3F3F3F3F3F3F3F3F3F3F3F3F3F3FA4
:101C50003F3F3F3F3F3F3F3F3F3F3F3F3F3F3F3F94
:101C60003F3F3F3F00A43F3F3F3F00A43F3F3F3F38
:101C700000A43F3F3F3F00A43F3F3F3F00A43F3F02
:101C80003F3F00A43F3F3F3F00A43F3F3F3F00A4F2
:101C9000A4A4003F3F3FA4A4003F3F3FA4A4A4004E
:101CA0003F3FA4A4A4003F3FA4A4A4A4003FA4A435
:101CB000A4A4A400A4A4A4A4A4A4A4A4A4A4A4A488
:101CC0003F3F3F3F3F3F3F3F3F3F3F3F3F3F3F3F24
:101CD0003F3F3F3F3F3F3F3F3F3F3F3F3F3F003F53
:101CE0003F3F3F00A400000000A4A4A4A4A4A4A417
:101CF0003F3F3F00A4A43F3F3F00A4A43F3F00A4B8
:101D0000A4A43F3F00A4A4A43F00A4A4A4A400A4AE
:101D1000A4A4A4A4A4A4A4A4A4A4A4A4A4A4A4A483
:101D20000A0A14A4A4A40A0A14140A0A0A0A141413
:101D30000A0A0A0A14140A0A0A0A14140A0A0A0ADB
:101D400014140A0A0A0A14140A0A0A0A14140A0AB7
:101D50000A0A14140A0A0A0A14140A0A0A0A1414A7
:101D60000A0A0A0A14140A0A0A0A14140A0A0A0AAB
:101D700014140A0A0A0A14140A0A0A0A14140A0A87
:101D80000A0A14140A0A0A0A14140A0A0A0A141477
:101D90000A0A0A0A14140A0A0A0A14140A0A0A0A7B
:101DA00014140A0A0A0A14140A0AA4A4A4140A0A93
:101DB000A4A4A4A4A4A40A0A14140A0A0A0A1414BF
:101DC0000A0A0A0A14140A0A0A0A14140A0A0A0A4B
:101DD00014140A0A0A0A14140A0A0A0A14140A0A27
:101DE00000000000000000000000000014141414A3
:101DF00014141414141414140A0A14140A0A0A0ADF
:101E000014140A0A0A0A14140A0A0A0A14140A0AF6
:101E10000000000000000000000000001414141472
:101E200014141414141414140A0A14140A0A0A0AAE
:101E300014140A0A0A0A14140A0AA4A4A4140A0A02
:101E40000A0A14140A0A0A0A14140A0A0A0A1414B6
:101E50000A0A0A0A14140A0A14141414141414147E
:101E60001414141400000000000000000000000022
:101E70000A0A14A4A4A40A0A14140A0A0A0A1414C2
:101E80000A0A0A0A14140A0A14141414141414144E
:101E900014141414000000000000000000000000F2
:101EA0000000000000000000000000000000000032
:101EB0000000000000000000000000000000000022
:101EC000000000000000000000000000000000FF13
:101ED00000000000FFFF000000FFFFFF0000FFFF09
:101EE000FFFF00FFFFFFFFFF00FFFFFFFFFF0000FE
:101EF000FFFFFFFF000000FFFFFF00000000FFFFEB
:101F00000000000000FF00000000000000000000D2
:101F100000000000000000000000000000000000C1
:101F200000000000000000000000000000000000B1
:101F3000000000000000000000000000FFFFFFFFA5
:101F4000FFFFFFFFFFFFFFFFFFFFFFFFFFFFFFFFA1
:101F5000FFFFFFFF00000000000000000000000085
:101F60000000000000000000000000000000000071
:101F70000000000000000000000000000000000061
:101F800000000000000000000000FF000000000052
:101F9000FFFF00000000FFFFFF000000FFFFFFFF4A
:101FA0000000FFFFFFFFFF00FFFFFFFFFF00FFFF3D
:101FB000FFFF0000FFFFFF000000FFFF0000000028
:101FC000FF00000000000000000000000000000012
:101FD0000000000000000000000000000000000001
:101FE00000000000000000000000000000000000F1
:101FF00000000000000000000000000000000000E1
:1020000000000000000000000000000000000000D0
:102010000000000000000000000000000000001FA1
:10202000000000001F1F0000001F1F1F00001F1FD7
:102030001F1F001F1F1F1F1F001F1F1F1F1F00002C
:102040001F1F1F1F0000001F1F1F000000001F1F79
:1020500000000000001F0000000000000000000061
:102060000000000000000000000000000000000070
:102070000000000000000000000000000000000060
:102080000000000000000000000000001F1F1F1FD4
:102090001F1F1F1F1F1F1F1F1F1F1F1F1F1F1F1F50
:1020A0001F1F1F1F000000000000000000000000B4
:1020B0000000000000000000000000000000000020
:1020C0000000000000000000000000000000000010
:1020D000000000000000000000001F0000000000E1
:1020E0001F1F000000001F1F1F0000001F1F1F1FD9
:1020F00000001F1F1F1F1F001F1F1F1F1F001F1F6C
:102100001F1F00001F1F1F0000001F1F00000000F6
:102110001F000000000000000000000000000000A0
:1021200000000000000000000000000000000000AF
:10213000000000000000000000000000000000009F
:102140000A0A14A4A4A40A0A14140AC70A0A141432
:102150000AC70A0A14140AC70A0A1414C7C70A0AC3
:102160001414C7C70A0A1414C7C70A0A1414C7C725
:102170000A0A1414C70A0A0A14C7C70A0A0A14C7A3
:10218000C70A0A0A14C7C70A0A0A14C7C70A0A0AEA
:1021900014C7C70A0A0A14C7C70A0A0A1414C70AC6
:1021A0000A0A1414C7C70A0A1414C7C70A0A14145F
:1021B000C7C70A0A1414C7C70A0A14140AC70A0AA6
:1021C00014140AC70A0A14140AC7A4A4A4140A0AF5
:1021D0000A0A14A4A4A4C70A14140A0AC70A1414E5
:1021E0000A0AC70A14140A0AC7C714140A0AC7C776
:1021F00014140A0AC7C714140A0AC7C714140A0A0F
:102200000AC714140A0A0AC7C7140A0A0AC7C71455
:102210000A0A0AC7C7140A0A0AC7C7140A0A0AC759
:10222000C7140A0A0AC7C7140A0A0AC714140A0AF2
:10223000C7C714140A0AC7C714140A0AC7C7141454
:102240000A0AC7C714140A0AC70A14140A0AC70AD2
:1022500014140A0AC70A14140A0AA4A4A4140A0A21
:102260000000000000000000000000C700000000A7
:1022700000C70000000000C700000000C7C7000042
:102280000000C7C700000000C7C700000000C7C7A4
:1022900000000000C700000000C7C700000000C722
:1022A000C700000000C7C700000000C7C70000004B
:1022B00000C7C700000000C7C70000000000C7003B
:1022C00000000000C7C700000000C7C700000000F2
:1022D000C7C700000000C7C70000000000C700001B
:1022E000000000C70000000000C700000000000060
:1022F000000000000000C70000000000C700000050
:102300000000C70000000000C7C700000000C7C7EA
:1023100000000000C7C700000000C7C700000000A1
:1023200000C70000000000C7C700000000C7C700CA
:10233000000000C7C700000000C7C700000000C7BA
:10234000C700000000C7C700000000C70000000071
:10235000C7C700000000C7C700000000C7C70000D3
:102360000000C7C700000000C70000000000C70051
:1023700000000000C7000000000000000000000096
:102380005A5A5A5A5A5A5AAC63AC5AAC5A5A635AA5
:102390005A635A635AAC63A35A5AAC5AF5AC5A5AA8
:1023A000AC5AACF55AAC5A5AF5F55A635AACA3ACD0
:1023B0005A5A5A5A5A5A5AACF5ACF55A5AA3AC5A08
:1023C000AC5AACA3A3ACF55AACACACA3A35AA3A330
:1023D000ACA3F55AACA3F5ACF55AACF5A3A3AC5A33
:1023E0005A63ACACA3AC5A5A5AACACAC5A635A5A06
:1023F0005AAC5A5AAC5AACF55A63AC5AF5F55A6312
:102400005A63A3AC5AAC63ACAC635A5A5A5A5A5A80
:10241000ACF5A3A3AC5AA3ACF5ACA35AF5ACA3A3FB
:10242000F55AACA3ACA3AC5A63ACF5A3F55AA3AC74
:10243000A3ACA35AF5F5A3F5AC5A5A5A5A5A5A5AAC
:102440009D9D9D9D9D9D9DEEEE9DEEEE9DEE9DEED6
:10245000EE9D9DEEEEEEEEEE9D9DEEF7F7EE9DEE1F
:10246000EE9DF7F79DF7EEEEEE9D9D9DEEEEF7EEFD
:102470009D9D9D9D9D9DEE9DEE9DEE9DF7EEEEF743
:102480009D9DF7EE9DF7EE9DF7F7F7EEEE9DEEEED4
:10249000EEF7F79DF7EEF7F79D9DEE9DEEEEF79DBB
:1024A0009DF7EEEEF7EE9D9DEE9DF7EE9DEEEEEEC6
:1024B000EE9D9DEEF79DEEEE9DF79DEEF7F79D9D4F
:1024C000EEEEF7EE9DF7EE9DEEF79D9D9D9D9D9D99
:1024D000F7EEEEF79D9DEE9DEEEEF79DF7F7EEEE33
:1024E000F79DF7EE9DF7EE9D9DEE9DF7EE9DF7EEC5
:1024F000EEF79D9D9DF7EEEEEE9D9D9D9D9D9D9D14
:102500000015150000151F1F1F1F1F1F1F1F1F1F56
:102510001F1F1F1F1F1F1F1F1F1F1F1F1F151F1FD5
:102520001F1F15001F1F1F1500001F1F1F15000074
:102530001515151500001F1F1F1F15001F1F1F1F3A
:102540001F151F1F1F1F1F1F151F1F1F1F1F0000ED
:102550001F1F1F1F0000001F1F1F0000001F1F1F45
:102560000000001F1F1F00000000151500000000E4
:102570000014150000000000150000000000150008
:10258000000000001F15000000001F1500000000E3
:102590001F1F1F1F1F1F15151515151514141414B3
:1025A0001414000000000000000000000000000003
:1025B000000000000000000000000000000000001B
:1025C0001F1F1F1F1F1F1515151515151414141483
:1025D00014140000000000000000000000000000D3
:1025E0000015150000001F1F1F1500001F1F1F15DD
:1025F0001F1F1F1F1F1F1515151515151414141453
:10260000141400000000000000000000000000158D
:10261000151500001F1F1F1F15001F1F1F1F15006E
:102620001F1F1F1F1F1F1515151515151414141422
:102630001414000000000000000000000000000072
:102640000000000000000000001F00000000001F4C
:102650001F1F1F1F1F1F15151515151514141414F2
:102660001414000000000000000000000000151518
:10267000000000001F1F150000001F1F15000000B4
:102680001F1F1F1F00001515151515001414141415
:102690001414000000000000000000000000000012
:1026A000000000000000000000000000000000002A
:1026B0001F1F1F1500001F1F1F1500001F1F1F15C4
:1026C00000001F1F1F1500001F1F1F1500001F1FE8
:1026D0001F1F1F1F1F1F1F1F1F1F1F1F1F1F1F1F0A
:1026E0000000001F1F1F0000001F1F1F0000001F11
:1026F0001F1F0000001F1F1F00001F1F1F1F1F1F85
:102700001F1F1F1F1F1F1F1F1F1F1F1F1F1F1F15E3
:102710001F15000000001F15000000001F1500001D
:1027200000001F15000000001F150000000015002C
:102730000000000015000000000000000000000084
:10274000000000000015000000001F1F0000000036
:102750001F1F000000001F1F00000000001F0000DE
:102760000000000000000000000000000000000069
:102770001515150000001F1F1F1500001F1F1F1F2C
:1027800015001F1F1F1F15001F1F1F1F1500001FF3
:102790001F1F1500001F1F1F1500001F1F1F150002
:1027A00000001F1F1F1500001F1F1F1500001F1F07
:1027B0001F1500001F1F1F1500001F1F1F15000001
:1027C0001F1F1F1500001F1F1F1500001F1F1F15B3
:1027D0000000000015150000001F1F1F0000001F53
:1027E0001F1F0000001F1F1F000000001F1F000010
:1027F00000001F1F000000001F1F000000001F1F1F
:102800000000000000001500000000001F1500007F
:1028100000001F15000000001F15000000001F151C
:10282000000000001F15000000001F150000000040
:10283000001F150000001F1F1F1500001F1F1F1580
:1028400000001F1F1F1500001F1F1F1500001F1F66
:102850001F1500001F1F1F1500001F1F1F15000060
:102860001F1F1F1F1500001F1F1F1500001F1F1F08
:102870001500001F1F1F1500001F1F1F1500001F40
:102880001F1F1500001F1F1F1500001F1F1F150011
:102890000000000000000000000000000000000038
:1028A0000000000000001F1F0000001F1F1F00008D
:1028B0001F1F1F1F00001F1F1F1F001F1F1F1F158F
:1028C00000000000000000000000000015151515B4
:1028D00015151F1F1F1F1F1F1F1F1F1F1F1F1F1F1C
:1028E0001F1F1F1F1515001F1F1F000000001F1FA7
:1028F00000000000000000000000000000000000D8
:10290000000015000000001F1F150000001F1F150C
:102910000000001F1F1F1500001F1F1F1500001FB4
:102920000000000000000000000000001515150068
:1029300000001F1F1F1515151F1F1F1F1F1F1F1F03
:102940001F1F1F1F1F1F1F1F1F1F1F1F1F150000DF
:102950000000000000000000000000000000000077
:1029600000001515000000001F1F150000001F1FAC
:102970001F1500001F1F1F1F15001F1F1F1F150001
:1029800000000000001F00000000001F0000000009
:10299000001F00000000001F00000000001F0000DA
:1029A0000000001F00000000001F0000001F1F1F8C
:1029B0001F1F150000001F1F150000001F1F15001E
:1029C00000001F1F150000001F1F150000001F1F23
:1029D000150015151F1F1F1F1F1F1F1F1F1F1F1F44
:1029E00000000000000000000000000000000000E7
:1029F000000000000000000000000000001F0000B8
:102A000000001F1F150000001F1F1500001F1F1FC3
:102A1000000000000000000000000000000015158C
:102A200015151F1F1F1F1F1F1F1F1F1F1F1F1F1FCA
:102A30001F1F1F1F1F1F1515001F1F15000000005F
:102A4000000000000000000000000000151500005C
:102A500000001F1F150000001F1F1F1500001F1F73
:102A60001F1500001F1F1F1F15001F1F1F1F150010
:102A7000000000000000000000000000000015152C
:102A80000000001F1F1F1500001F1F1F1F15001F24
:102A90001F1F1F1500001F1F1F1500001F1F1F15E0
:102AA00000000000000000000000000000001515FC
:102AB0000000001F1F1F15001F1F1F1F15001F1FD5
:102AC0001F1F15001F1F1F1500001F1F1F150000CF
:102AD00000000000000000000000000000000000F6
:102AE0001F1F0000001F1F1F00001F1F1F1F001FB0
:102AF0001F1F1F1F001F1F1F1F15001F1F1F150057
:102B00000000000000000000000000001F15151567
:102B100015151F1F1F1F1F1F1F1F1F1F1F1F151FE3
:102B20001F1F1F1F0000001F1F1F000000001F1F8E
:102B3000000000000000000000000000151500006B
:102B400000001F1F15001F1F1F1F1F1F1F1F1F1FFC
:102B50001F1F1F1F1F1F1F1F1F1F1F1F1F1F151599
:102B60000000000000000000000000001515150026
:102B700000001F1F1F1500001F1F1F1F15001F1F14
:102B80001F1F1F151F1F1F1F1F1500001F1F1F15B1
:102B90001F1F1F1F1F1F1F1F1F1F1F151F1F1F1F4F
:102BA00015001F1F1F1500001F1F1F1500001F1FEE
:102BB0001F1500001F1F1F1500001F1F1F150000FD
:102BC0001F1F1F1F1F1515151F1F1F1F00001F1F71
:102BD0001F1F0000001F1F1F0000001F1F1F0000FD
:102BE00000001F1F000000001F1F000000001F1F2B
:102BF00000000000000015000000000015000000AB
:102C000000001F150000001F1F150000001F1F15EA
:102C100000001F1F1F1500001F1F1F1500001F1F92
:102C20000000001F1F1F001F1F1F1F1F1F1F1F1F30
:102C30001F1F1F1F1F1F1F151F1F1F1515001F1FE1
:102C4000150000001F1F150000001F1500000000E8
:102C50001F1F1F1F15001F1F1F1F15001F1F1F1FD6
:102C60001500151F1F1F1500001F1F1F1500001F37
:102C70001F1F1500001F1F1F1500001F1F1F15001D
:102C800000001F1F1F1F00001F1F1F1F00001F1F0E
:102C90001F1F00001F1F1F1F00001F1F1F15000008
:102CA0001F1F1F1500001F1F1F1500001F1F1F15CE
:102CB0001515151500001F1F1F1F15001F1F1F1FB3
:102CC0001F151F1F1F1F1F1500001F1F1F1F0000A4
:102CD000001F1F1F0000001F1F1F000000001F1FFC
:102CE000000000001F1F000000001F1F0000000068
:102CF0001F1F000000001F1F15000000001F15000F
:102D00000000001F1500000000001F15000000005B
:102D10001F150000001F1F150000001F1F1F1500BA
:102D20001F1F1F1F1F151F1F1F1F1F1F1F1F1F1FBD
:102D30001F1F1F1F1F1F1F1F001F00000000001F5D
:102D40001F1F1F1500001F1F1F1500001F1F1F152D
:102D500000001F1F1F1500001F1F1F1500001F1F51
:102D6000150000001F1F150000001F1F15000000A8
:102D7000001F1F1F1500001F1F1F1500001F1F1F12
:102D80001500001F1F1F1500001F1F1F1500001F2B
:102D90001F1F1500001F1F1F1500001F1F1F1500FC
:102DA000001F1F1F1F15001F1F1F1500001F1F1FC3
:102DB0001500001F1F1F1500001F1F1F1500001FFB
:102DC0001F1F1500001F1F1F1500001F1F1F1500CC
:102DD00000000000001F00000000001F00000000B5
:102DE000001F00000000001F00000000001F000086
:102DF0000000001F00000000001F00000000001F76
:102E00001F1F1500001F1F1F1500001F1F1F15008B
:102E1000001F1F1F1500001F1F1F1500001F1F1F71
:102E20001500001F1F1F1500001F1F1F1500001F8A
:102E30001F1F1F1500001F1F150000001F1F15007A
:102E400000001F1F150000001F1F150000001F1F9E
:102E5000150000001F1F150000001F1F15000000B7
:102E6000001F1F1F1500001F1F1F1F15001F1F1F02
:102E70001F1500001F1F1F1500001F1F1F1500003A
:102E80001F1F1F1500001F1F1F1500001F1F1F15EC
:102E900000001F1F1F1F00001F1F1F1F0000001F1B
:102EA0001F1F00000000001F00000000001F0000A6
:102EB0000000001F00000000001F00000000001FB5
:102EC0001F1F1F1F1F151F1F1F1515001F1F150078
:102ED00000001F1F150000001F1F150000001F1F0E
:102EE000150000001F1F150000001F1F1500000027
:102EF0000000001F1F1F0000001F1F1F0000001FF9
:102F00001F1F0000001F1F1F0000001F1F1F0000C9
:102F1000001F1F1F0000001F1F1F0000001F1F1F9A
:102F20001F15000000001500000000001500000043
:102F30000000150000000000150000000000150052
:102F40000000000015000000000015000000000057
:102F500000001F1F1F1500001F1F1F1500001F1F4F
:102F60001F1500001F1F1F1500001F1F1F15000049
:102F70001F1F1F1F00001F1F1F1F0000001F1F1FFC
:102F80000000000000000000000000000000000041
:102F9000000000000000000000000000000015001C
:102FA0000000001F15000000001F15001F15001F66
:102FB0001F1F1F1500001F1F1F1500001F1F1F15BB
:102FC00000001F1F1F1500001F1F1F1500001F1FDF
:102FD0001F1500001F1F1F1500001F1F15000000F8
:102FE000001F1F1F1500001F1F1F1500001F1F1FA0
:102FF0001500001F1F1F1500001F1F1F1F1F001F90
:103000001F1F1F1F001F1F1F1F1F001F1F1F1F1F0E
:10301000000000001F1F000000001F1F0000001F15
:103020001F1F1F1F1F1F1F1F1F1F1F1F1F1F1F1FB0
:103030001F1F1F151F1F151515001F15000000006D
:103040001F1F1500001F1F1F1500001F1F15000068
:10305000001F1F150000001F15000000001F0000CA
:103060000000001F00000000001F00000000001F03
:103070000000001F1500000000000000000000001C
:103080000000000000000000000000000000000040
:103090000000000000000000000000000000000030
:1030A0001F1F1F1500001F1F1F1500001F1F1F15CA
:1030B00000001F1F1F1500001F1F1F1F1F1F1F1FA6
:1030C0001F1F1F1F1F1F1F1F1F1F001F1F1F1F1F2F
:1030D000000000001F1F0000001F1F1F0000001F36
:1030E0001F1F00001F1F1F1F1F1F1F1F1F1F1F1F2E
:1030F0001F1F1F1F1F1F1F1F1F151F1F1F1515001D
:103100001F1500001F1F1F1500001F1F1F150000A7
:103110001F1F1F1500001F1F15000000001F1500B6
:10312000000000000000000000000000000000009F
:103130001F15000000001F15000000001F1F1500D4
:1031400000001F1F1F1500151F1F1F1F151F1F1F0A
:103150001F1F1F1F001F1F1F1F1F00001F1F1F15E6
:10316000001F1F1F1500001F1F1F1500001F1F1F1E
:1031700015001F1F1F1F15001F1F1F1F15001F1FDA
:103180001F1F1F151F151F1F1F151500001F1500DE
:1031900000001F1F1F1500001F1F1F1500001F1F0D
:1031A0001F1500001F1F1F1F00001F1F1F1F0000F3
:1031B0001F1F1F1F00001F1F1F1F0000001F1500E3
:1031C000000000001F1F000000001F1F0000000083
:1031D0001F1F1500001F1F1F1F15151F1F1F1F1F5B
:1031E0001F1F1F1F1F1F1F1F1F151F1F1F1515002C
:1031F0001F15000000001F15000000001F15000033
:1032000000001F15000000001F1500000000150041
:1032100000000000000000000000000000000000AE
:10322000000000001F1F000000001F1F0000001F03
:103230001F1F0000001F1F1F001F1F1F1F1F1F1F1A
:103240001F1F1F1F1F1F1F1F1F15001F1F151500EA
:103250001F1F150000001F15000000001F150000B3
:10326000000015000000000015000000000015001F
:10327000000000000000000000000000000000004E
:10328000001F1F1F1500001F1F1F1500001F1F1FFD
:103290001500001F1F1F1500001F1F1F1500001F16
:1032A0001F1F1500001F1F1F150000001F15000025
:1032B000001F1F1F1500001F1F1F1500001F1F1FCD
:1032C0001F15001F1F1F1F1500001F1F1F1F0000BD
:1032D0001F1F1F1F0000001F1F1F000000001F1FD7
:1032E00000000000001F00000000001F00000000A0
:1032F0001F1F00001F1F1F1F1F1F1F1F1F1F1F1F1C
:103300001F1F1F1F1F1F1F1F15151F1F1515000033
:103310001F1F1500001F1F1F1500001F1F1F150076
:10332000001F1F150000001F1F150000001F1500C3
:103330000000001F00000000001F0000000000004F
:103340001F1F150000001F1F150000001F1F150084
:1033500000001F1F150000001F1F150000001F1F89
:10336000150000001F1F150000001F1500000000C1
:1033700000001F1F1F1500001F1F1F1500001F1F2B
:103380001F1F00001F1F1F1F00001F1F1F1F000007
:10339000001F1F1F0000001F1F1F000000001F153F
:1033A0000000000000000000000000001500000008
:1033B00000001500000000001500000000001500CE
:1033C00000000000150000000000000000000000E8
:1033D00000000000001F00000000001F00000000AF
:1033E000001F00000000001F00000000001F000080
:1033F0000000001F000000000000000000000000AE
:103400001F1F150000001F1F150000001F1F1500C3
:1034100000001F1F1F1500001F1F1F1F15151F1F56
:103420001F1F1F1F1F1F1F1F1F1F001F1F1F1F15D5
:103430000000001F1F1F0000001F1F1F0000001FB3
:103440001F1F0000001F1F1F000000001F1F15008E
:1034500000001F1F15000000001F000000000000FA
:103460001500000000001500000000001F150000FE
:1034700000001F1500001F1F1F1F1F1F1F1F1F1FE2
:103480001F1F1F1F1F1F1F1F1F1F1F1F1F1F151560
:10349000001F1F1F1500001F1F1F15001F1F1F1FCC
:1034A00015001F1F1F1500001F1F1F1500001F1FE5
:1034B00015000000151500000000000000000000CD
:1034C0000000001F1F1F0000001F1F1F0000001F23
:1034D0001F1F0000001F1F1F000000001F1F000013
:1034E00000001F1F000000001F1F00000000001F41
:1034F0001F1F1F1F151F1F1F1F1F1F1F1F1F1F1FE6
:103500001F1F1F1F1F1F1F1F1F1F151F1F1F1F15DF
:1035100000001F1F1F1500001F1F15000000001FC7
:103520001F1F150000001F1F150000001F1F1500A2
:1035300000001F15000000001F15000000001F15EF
:10354000000000001F150000000015000000000032
:10355000001F1F1F1500001F1F1F1500001F1F1F2A
:103560001500001F1F1F1F15001F1F1F1F1F001FFB
:103570001F1F1F1F00001F1F1F1F000000001F1F15
:10358000000000000000000000000000000000003B
:10359000000000000000001515151515151F1F1F50
:1035A0001F1F1F1F1F1F1F1F1F1F1F1F1F1F1F1F2B
:1035B00000000000001F00000000001F00000000CD
:1035C000001F15150000001F1F1F1500001F1F1FE3
:1035D0001500001F1F150000001F1500000000004F
:1035E00000000000000000000000000000000000DB
:1035F000000015000000001F1F150000001F1F1510
:103600000000001F1F1F1500001F1F1F1500001FB7
:1036100000000C02000000000C02000000000C0280
:10362000000000000C02000000000C02000000007E
:103630000C02000000000C02000000000C02000060
:103640000000C48200000000C48200000000C482A8
:1036500000000000C48200000000C48200000000DE
:10366000C48200000000C48200000000C482000088
:103670000000E0A200000000E0A200000000E0A2C4
:1036800000000000E0A200000000E0A20000000036
:10369000E0A200000000E0A200000000E0A20000A4
:1036A0000000246400000000246400000000246482
:1036B00000000000246400000000246400000000FA
:1036C0002464000000002464000000002464000062
:1036D0000000BFBF00000000BFBF00000000BFBF70
:1036E00000000000BFBF00000000BFBF00000000DE
:1036F000BFBF00000000BFBF00000000BFBF000050
:1037000000002464000000002464000000000000A9
:103710000000140000140014140014000014141409
:1037200014000014140014000014140000140014F9
:103730000000246400000000246400000000000079
:1037400000001414140014140000000014001414D9
:1037500000001414000000001400141414001400DD
:103760000000246400000000246400000000000049
:1037700000001400001414140014001400001400BD
:103780000014141414000014000000140014141485
:103790000000246400000000246400000000000019
:1037A00000000014000000141400140014000000B5
:1037B00000140000140000140000000000140000B9
:1037C00000002464000000002464000000000000E9
:1037D000000014141400000000000014001414145D
:1037E0001400001414000000001414141414000039
:1037F00000002464000000002464000000000000B9
:103800000000141400000014000014001414000040
:103810001400001400001400001414140000141408
:103820000000246400000000246400000000000088
:103830000000000014141414000014000000000024
:1038400014141400000000000014140014141400D8
:10385000C7C7C7C7C7C7C7C7C7C7C7C7C7C7C7C7F8
:10386000C7C7C7C7C7C7C7C7C7C7C7C7C7C7C7C7E8
:10387000C7C7C7C7C7C7C7C7C7C7C7C7C7C7C7C7D8
:10388000010003000000000000000100030001002F
:103890000100010001000300020005000800010012
:1038A00003000300060009000100030004000700F4
:1038B0000A00010003000B000E00110001000300CC
:1038C0000C000F001200010003000D001000130097
:1038D00001000300140017001A0001000300150086
:1038E00018001B0001000300160019001C00010055
:1038F00003001D0020002300010003001E00210022
:103900002400010003001F00220025000100030025
:10391000260029002C000100030027002A002D00AA
:103920000100030028002B002E00010003002F00DF
:10393000300031000100030032003000300013007D
:103940000100330033003300340033003300330010
:1039500034003300330033003400330033003300CD
:10396000340033003300330013000100350035000C
:10397000350036003500350035003600350035009D
:10398000350036003500350035003600350035008D
:103990003500020003003700000038003A0039000B
:1039A00000000200030000003B003A003C00000061
:1039B0003D00020003003E0000003F0041004000C7
:1039C000000002000300000042004100430000002C
:1039D00044000100030045004600470001000300C9
:1039E000480049004A00010003004B004C004D0014
:1039F000010003004E004F0050000400020051007F
:103A0000520055005600530054005700580004005F
:103A10000200550056005100520057005800530054
:103A200054001F00040059005A005B005C005C0059
:103A30005D005C005C005C005C005E005C005C00A3
:103A40005C005C005C005C005C005F0060005C008F
:103A50005C005C005C005C005C005C005C005C0086
:103A60005C0061006200630064006500660067003E
:103A70000000680069006A006B006C006D006E0059
:103A80006F0070000000000071007200730074008D
:103A9000750076000000770078007900B3007A00A6
:103AA0007B007C007D007E007F0080008100820022
:103AB00083008400850086008700880089008A00D2
:103AC0008B00000000008C008D008E008F008600AF
:103AD0009000910092009300940095008A00960057
:103AE0009700980099009A009B009C009D009E0002
:103AF0009F00A000A100A200A300A400A500A600B2
:103B0000A7000000A800A900AA00AB00AC00AD000F
:103B1000AE00AF00B000B100B200A500000000028E
:103B2000040007700000D800083C01050000FF00F9
:103B300002040007700000F60008320008280103A4
:103B40000201030201030201030201030201030255
:103B50000103020103020103020103020103020146
:103B6000050000FF0002040000FD00083C00020404
:103B7000000990000A600203050203050203050222
:103B80000304020304020304020303020303020307
:103B900003020302020302020302020302020302FF
:103BA00002030201050000FF0002020008500004A9
:103BB00012010404010301010301010301010301D6
:103BC00005050000FF0002040007500000C40105C5
:103BD0000000FF0000001E3B000000000000002F5E
:103BE0003B00000000000000643B000000000000FB
:103BF00000A83B00000000000000C53B00000000E2
:103C00002D20505245535320425554544F4E202797
:103C1000535441525427202D002D20424142594CEB
:103C20004F4E20544F574552202D0028484F52499F
:103C30005A4F4E54414C29002D2D3A2D2D00285617
:103C40004552544943414C29002D2D3A2D2D002D2C
:103C500020424553542054494D45202D0028484FBB
:103C600052495A4F4E54414C20524F5753204F46C1
:103C70002042414C4C532900285645525449434157
:103C80004C20524F5753204F462042414C4C532911
:103C900000594F55522054494D45205350454E54DC
:103CA000202D200020202020202020002020202047
:103CB0002020200027535441525427004D454E5593
:103CC000202D002742272D4E4F002741272D5945F3
:103CD0005300202047414D453F004E4557202020AE
:103CE000003A002D54494D452D002753544152545C
:103CF00027004D454E55202D002D20505245535341
:103D000020425554544F4E2027535441525427209B
:103D10002D002D20424142594C4F4E20544F5745C3
:103D200052202D004F46205448452042414C4C0023
:103D300027422720564552544943414C204D4F5667
:103D4000454D454E54002B27412720524F57204FB9
:103D5000462042414C4C53202852494748542900A0
:103D60005249474854205343524F4C4C494E4720E8
:103D7000484F52495A4F4E54414C002B274127205F
:103D8000524F57204F462042414C4C5320284C451F
:103D9000465429004C454654205343524F4C4C49FD
:103DA0004E4720484F52495A4F4E54414C00444FC1
:103DB000574E200055502054484520435552534FEC
:103DC00052005249474854204D4F5645004C4546F5
:103DD00054200048454C5028434F4E54524F4C53AA
:103DE000292D505245535320425554544F4E2027AD
:103DF0004227004E45572047414D45202D50524502
:103E0000535320425554544F4E20274127004F46CC
:103E100020484F52495A4F4E54414C20434F4C4F2B
:103E2000524544204C494E4553004D4F56494E474C
:103E3000205448452042414C4C532047455420468D
:103E400049564520564552544943414C00001124DF
:103E50001FBECFEFD0E1DEBFCDBF14BE88E10FB6ED
:103E6000F89480936000109260000FBE11E0A0E013
:103E7000B1E0E4EBFBE702C005900D92AC32B10774
:103E8000D9F71DE0ACE2B1E001C01D92A732B10745
:103E9000E1F70E94FE22882311F40E941423F89473
:103EA000E7E0FAE080E881939CE0E331F907D9F795
:103EB00087E09AE09093140C8093130C1092150CE9
:103EC00091E090932C0C90932D0C90932B0C1092CE
:103ED000180C10921E0C1092240C10922A0C1092A6
:103EE000F20982E18093F30980EE8093FC098093CC
:103EF000FA0984E18093FB098093F9091092000A82
:103F00001092FF091092040A1092030A9093170C62
:103F10000E94802D20E930E0F90185919491FC0107
:103F2000F07090832E5F3F4F80E02E3B3807A1F763
:103F300078940E94802E0E94E93B0C94D83D0C940A
:103F4000000030EE3A950C94A51FE1F70C94A81FE1
:103F5000CCE2D1E000EEA02E662776E037D137E242
:103F60003A95F1F70E94DC1F35E13A95F1F7AA94F2
:103F700089F0C8956395683029F033E03A95F1F7F8
:103F80000000ECCF6627002430E5C30FD01DC89594
:103F90000000E4CF35E03A95F1F700C017D111E009
:103FA0000091F00901270093F00900FF1093F40934
:103FB000E2E0E09336000895DE014D915D91679F48
:103FC000C001480F591FFA0128E2059108B94D9127
:103FD000059108B95D91059108B900C0059108B92E
:103FE000480F591F059108B90591FA012A9508B99A
:103FF00061F700C00000002708B908950F921F92D2
:10400000EF93FF93EFB7EF93E0918400E251F1E07B
:10401000EF1700F0F395FA30D8F30C940F20E091ED
:10402000F309EA95E093F309F091F209F0FD57C026
:10403000EC3098F0F3E0F0938900FDE8F09388000D
:10404000E0FB289826F4E1E00E94CB21B8C0E5E12E
:10405000EA95F1F70000289AB2C0E63038F100C0C6
:1040600000C02898E0FBE4E016F40E94CB21E4E0D5
:10407000E0933600E6E0E0936F00A1C0EF93EFB766
:10408000EF93E0918400ED55E13000F0E23000F074
:10409000E33000F0E43000F0E53000F0289AE2E090
:1040A000E0936F00EF91EFBFEF91189500C0E0FB38
:1040B000289826F4E1E00E94CB2105C0E5E1EA95CD
:1040C000F1F70000289AE091F309E03009F077C099
:1040D000EDEFE093F309E1E0E093F20970C0E7E06F
:1040E000E0938900EBE1E093880000C02898E2E0CB
:1040F00000C00E94CB21FDEF0090F909F019E0917A
:10410000F309EF17E0F4FDEF0090F909F0190090C2
:10411000FA09F019EF1798F0EDE1FF2700800F92F0
:10412000EA95E1F70FE10A95F1F7000000000E941F
:10413000A11FE1E0FF270F900192EE31E0F3E09143
:10414000F309E03009F03BC02F933F934F935F9307
:104150006F937F938F939F93AF93BF937894112422
:10416000EE27E093F209E2E1E093F309F091FB0915
:10417000F093F909F091FC09F093FA09E091F5093F
:10418000F091F609E115F10509F009950E94ED227B
:104190000E94A52D0E94F1201124E091F709F091D1
:1041A000F809E115F10509F00995BF91AF919F91CB
:1041B0008F917F916F915F914F913F912F91EF91EF
:1041C000EFBFFF91EF911F900F9018952898E2E0B4
:1041D00000C00E94CB21E091F309EA95E093F30936
:1041E0000895E091170CE0FD0E9491240090150CB9
:1041F000002019F4A7E0BAE002C0ADE0BBE021E086
:1042000002260092150C22E02093160CE091170C68
:10421000E0FF08952F923F924F925F926F927F92AC
:104220008F929F92AF92BF92CF92DF92EF92FF92C6
:104230000F931F93CF93DF9350912A0C60912C0C16
:1042400070912D0C80912E0C2090190C30901A0C2E
:1042500040901C0C50901D0C60901B0C1091180C81
:1042600070901F0C8090200C9090210CA090220C3C
:10427000B090230C20911E0CC090250CD090260CE1
:10428000E090280CF090290C0091270C3091240C20
:104290009FEF620C431CF20144914103002400088B
:1042A000C12DD02D970CA81CF50144914203002488
:1042B0000008C10DD01D0C0DED1CF7014491430306
:1042C00000240008C10DD01D8A956AF440912B0C82
:1042D000842F8695062E0694062600FA7695679515
:1042E00076F940FF66F940E860FD4FE7450300249A
:1042F0000008C10DD01D0024C038D0050CF0CFE758
:104300000A94C038D0050CF4C0E8C058CD939A95F3
:1043100009F0BFCF4091160C4A954093160C97E0D8
:1043200009F0B7CF60921B0C40921C0C9092210CAC
:10433000A092220C0093270CE092280C60932C0C86
:1043400070932D0C80932E0CDF91CF911F910F91C4
:10435000FF90EF90DF90CF90BF90AF909F908F90A5
:104360007F906F905F904F903F902F900895E091D5
:10437000130CF091140C019100000093B3000CE0B9
:10438000E331F00707E01AE008F0F801E093130CBE
:10439000F093140C08950F931F932F93EF93E091D4
:1043A000130CF091140C01910093B3000CE0E33175
:1043B000F00707E01AE008F0F801E093130CF0931F
:1043C000140CE8E0EA95F1F7EF912F911F910F910E
:1043D000E0FD289AE0FF01C00895F4E1FA95F1F7B5
:1043E00000C0E1FD289AE1FF00C0089599277727D2
:1043F000833008F00895E8E0FFE4660F771FE60FCA
:10440000F71FA591B491E8E1FCE026E0289FE00DBC
:10441000F11DA183B2831124089590912B0C91700A
:10442000880F892B80932B0C089599277727E8E133
:10443000FCE026E0289FE00DF11D6E3F31F4609115
:104440002B0C6E7F60932B0C0BC06F3F31F460918F
:104450002B0C6E6F60932B0C03C071E5760F758388
:104460001124089599277727E8E1FCE026E0289FAA
:10447000E00DF11D608311240895E0E6F4E0ACE264
:10448000B1E06091EC097091ED096D937D933197E6
:10449000E1F7112408959927552728E2220F629FFA
:1044A000880F080E191EACE2B1E0A00DB11D60919D
:1044B000EC097091ED0920E3429F600D711D6D9331
:1044C0007C93112408959927772728E2220F629F71
:1044D000880F080E191EACE2B1E0A00DB11D60916D
:1044E000EE097091EF0920E3429F600D711D529F0C
:1044F000700D6D937C93112408958093EC09909333
:10450000ED0908958093EE099093EF090895809145
:10451000F409089511241092F4090895882329F4C8
:104520008091FD099091FE0908958091010A909172
:10453000020A0895F999FECF92BD81BD60BDF8943D
:10454000FA9AF99A78940895F999FECF92BD81BDAF
:10455000F894F89A80B5789408958093F709909329
:10456000F8090895129AC895C895129820E030E08D
:1045700080E090E040E036952795969587951398D2
:10458000C895C895009B3068019B9068139AC895A0
:10459000C8954F5F403179F73093FE092093FD09AC
:1045A0009093020A8093010A8091FD099091FE097F
:1045B0000F9731F08091010A9091020A0F9761F4F0
:1045C00028E088E190E00FB6F894A8958093600009
:1045D0000FBE20936000FFCF08951092330C009916
:1045E00003C081E08093330C019905C08091330CA6
:1045F00082608093330C0E94B22208951F9380E062
:1046000090E00E94A422182F81E090E00E94A42252
:1046100090E0382F20E0210F311D2A55354509F44F
:1046200091E0892F1F910895CF93DF93C0E0D0E0F0
:10463000FE01E059FF4FE491CE016E2F0E949A22B5
:104640002196C032D105A1F7C0E2D0E0CE016FEFD4
:104650000E949A22CE0101966FEF0E949A22A096A4
:1046600088E0C030D80791F7DF91CF910895FC0121
:104670004587089581E091E090932D0C80932C0C58
:1046800040932B0C0895FC0180818F7580830895E1
:10469000FC018081806480830895FC014487089533
:1046A000FC0147830895FC01408708951F93CF9331
:1046B000DF93EC01162F898190E0FC01EE0FFF1FC4
:1046C000E85FF04B25913491E42FFF27E7FDF0954B
:1046D000E80FF91FEE0FFF1FE85FF04B85919491F3
:1046E00060913B0C821B930B70E00E94D13C9B01BC
:1046F0006115710511F421E030E0812F90E0FC019B
:10470000EE0FFF1FE80FF91FEE0FFF1FE85EF34FDC
:1047100081819281820F931F928381833B832A83BD
:104720008881886088838981840F8C83DF91CF9111
:104730001F91089540933B0C08959093910C8093A2
:10474000900C8FE68093950C1092060AE6E3FCE04D
:1047500090E18FEF28E19083138681878287168608
:104760002087958376963CE0EE38F307A1F708950D
:10477000DC01ED91FC911197AF014F5F5F4F1196F6
:104780005C934E93E4912E2F30E0E7FF13C02F7718
:1047900030703695322F222737952795FA014F5FD3
:1047A0005F4FE4918E2F8F77280F311DE7FDF1CFFA
:1047B0004D935C93C9010895FF920F931F938C0151
:1047C000862FF42E642F0E94F621F801F1821F91AA
:1047D0000F91FF900895FC01862F6181641B618316
:1047E0000E94F6210895FC01862F9181490F418393
:1047F000642F0E94F6210895FF920F931F93CF9389
:10480000DF93182FF62E86E1189FE0011124CA5C71
:10481000D34F00E0888187FD01E01A8A1D869FEF53
:104820009C874B871B8A88818062877B88831F8255
:1048300099872983133069F4002309F4F22E81E06B
:1048400091E090932D0C80932C0C81E080932B0CA5
:1048500008C0812F622F0E94F621812F60E00E9404
:104860001522002311F0FF8601C0FE8689E0F89E24
:10487000C0011124E091900CF091910CE80FF91F08
:104880003396259134912115310519F41D8A1C8A1E
:1048900007C0F9018491898B2F5F3F4F3D8B2C8B93
:1048A000DF91CF911F910F91FF900895582F742F92
:1048B000A82FB0E086E190E0A89FF001A99FF00D3D
:1048C000B89FF00D1124EA5CF34F308135FF02C030
:1048D00037FD26C0222391F486E190E0A89FF001E5
:1048E000A99FF00DB89FF00D1124EA5CF34F3F7BB8
:1048F000308385858823A1F41386089586E190E0AE
:10490000A89FF001A99FF00DB89FF00D1124EA5C5B
:10491000F34F3F773083852F422F272F0E94FC23B0
:104920000895AF92BF92DF92EF92FF920F931F9381
:10493000CF93DF93A6E3BCE0C9E1DCE01D968C9148
:104940001D978823B9F0282F332727FD30951C9613
:104950008C911C97280F311D2F3F310519F014F051
:104960002FEF30E0C90137FF02C080E090E01C96D5
:104970008C931C978C9183FF26C012964D915C916D
:10498000139728813981240F351F39832883149682
:104990008C911497E82FF0E0EE0FFF1FE85FF04BCB
:1049A000859194911416150624F42817390730F4CC
:1049B0000AC0452B41F08217930728F0998388831A
:1049C0008C91877F8C93569626964CE0AE38B40730
:1049D00009F0B4CF8091060A882309F0DEC0FAC03E
:1049E000E091980CF091990CCF0101969093990C5D
:1049F0008093980C44914F3F69F5AC014F5F5F4F36
:104A00005093990C4093980CFC0184918F3219F4C7
:104A10001092060AD0C0863009F0B2C0FA01319671
:104A2000CF0101969093990C8093980CE491E33513
:104A300029F490939B0C80939A0CA2C0E53409F062
:104A40009FC080919A0C90919B0C9093990C8093AD
:104A5000980C96C047FF02C04093920C2091920C94
:104A6000322F3F7047FF08C001969093990C8093B6
:104A7000980C0197FC014491822F90E0807F907008
:104A8000803B910531F1803C910509F46DC080397E
:104A9000910509F075C0E091980CF091990C319650
:104AA000F093990CE093980C3197E491832F90E068
:104AB0008C9FD0018D9FB00D9C9FB00D1124AA5CDE
:104AC000B34FEE0F832F1E966C912E2F0E9456240B
:104AD00057C0E091980CF091990C3196F093990C95
:104AE000E093980C31972491473071F4832F90E034
:104AF0008C9FF0018D9FF00D9C9FF00D1124EA5CBE
:104B0000F34F220F22873CC04B3071F4832F90E08B
:104B10008C9FF0018D9FF00D9C9FF00D1124EA5C9D
:104B2000F34F220F21872CC04C3571F4832F90E076
:104B30008C9FF0018D9FF00D9C9FF00D1124EA5C7D
:104B4000F34F220F27831CC04436D1F4832F90E00B
:104B50008C9FF0018D9FF00D9C9FF00D1124EA5C5D
:104B6000F34F220F20870CC0832F90E08C9FF00121
:104B70008D9FF00D9C9FF00D1124EA5CF34F46874A
:104B800088E99CE00E94B8239093970C8093960C40
:104B900010928F0C10928E0C02C0C6E1D0E02091D2
:104BA0008E0C30918F0C8091960C9091970C281759
:104BB000390709F415CF2F5F3F4F30938F0C2093A7
:104BC0008E0C8091930C9091940C01969093940C80
:104BD0008093930CC6E3DCE008E11CE0FF24EFEFD8
:104BE000AE2EB12CDC2EED2E888186FD3DC08C8949
:104BF0009D89892B09F435C09A898989981768F5A8
:104C000030C0EC89FD89CF0101969D8B8C8B24915E
:104C10002F3F31F488818F7788831D8A1C8A21C0B9
:104C200001969D8B8C8B0197FC014491822F90E023
:104C3000880F991F82549F4FFC01259134918D2D2F
:104C40009E2D6F2DF9010995EC89FD893196FD8B1B
:104C5000EC8B3197E491E98B1A8A9A8989899817A4
:104C600081F28A898F5F8A8B888185FD03C020E06D
:104C700030E06BC08B898F3F11F08F5F8B8B9B85F2
:104C8000992309F45CC02C85222309F458C08A8535
:104C9000882309F454C04091950C442309F44FC073
:104CA000899FC001112480509F4F892F992730E0A0
:104CB000B901869F9001879F300D969F300D11247A
:104CC00020503F4F232F3327898590E0FC012E9FF2
:104CD000C0012F9F900D3E9F900D112480509F4F3B
:104CE000892F9927242F30E0AC01429FC001439FB8
:104CF000900D529F900D112480509F4F292F3327E4
:104D00008F818823F1F0EE81F0E0E050FF4AE491DA
:104D1000E058E89FC001112480509F4F892F9927A8
:104D2000B501681B790B629FC001639F900D729F54
:104D3000900D112480509F4F292F332702C020E06F
:104D400030E08E819885890F8E83F8012083F3945B
:104D500066960A5F1F4FF4E0FF1609F043CFDF911C
:104D6000CF911F910F91FF90EF90DF90BF90AF9088
:104D70000895582F762F89E0589FC0011124E091A3
:104D8000900CF091910CE80FF91F8491813011F48F
:104D900043E021C0823011F444E01DC080914C0CEE
:104DA00087FF16C080915B0C851711F4442381F4B2
:104DB0008091620C87FF0EC08091710C851711F4F1
:104DC000442341F490915F0C8091750C891710F485
:104DD00041E001C042E0242F30E086E190E0289FCE
:104DE000F001299FF00D389FF00D1124EA5CF34F7C
:104DF000808180688083842F652F472F20E50E9463
:104E0000FC230895862F642F0E9415220895000028
:104E10000000000000000000000000000000000092
:104E20000000000000000000000000000000000082
:104E30000000000000000000000000000000000072
:104E40000000000000000000000000000000000062
:104E50000000000000000000000000000000000052
:104E60000000000000000000000000000000000042
:104E70000000000000000000000000000000000032
:104E80000000000000000000000000000000000022
:104E90000000000000000000000000000000000012
:104EA0000000000000000000000000000000000002
:104EB00000000000000000000000000000000000F2
:104EC00000000000000000000000000000000000E2
:104ED00000000000000000000000000000000000D2
:104EE00000000000000000000000000000000000C2
:104EF00000000000000000000000000000000000B2
:104F000080E08093170C08952200240026002800DA
:104F10002B002D0030003300360039003D004000EA
:104F2000440048004C00510056005B0060006600E1
:104F30006C00730079008100880090009900A20045
:104F4000AC00B600C100CC00D800E500F3000101C0
:104F5000100121013201440157016C0181019801C6
:104F6000B001CA01E5010202210241026402880285
:104F7000AE02D7020303300361039403CB0305049D
:104F800042048304C70410055D05AF0505066106EC
:104F9000C206290796070908830805098E09200A11
:104FA000BA0A5D0B0A0CC10C840D510E2B0F1210A6
:104FB00007110A121D1340147415BA161418831918
:104FC000071BA31C571E24200E22142439267F28D9
:104FD000E82A752D293006330F364539AD3C494056
:104FE0001B442848734CFE50CF55EA5A51600C665A
:104FF0001D6C8B725A79928037885090E598FDA18C
:105000009FABD3B5A3C0000000000000000000006B
:105010000000000000000000000000000000000090
:105020000000000000000000000000000000000080
:105030000000000000000000000000000000000070
:105040000000000000000000000000000000000060
:105050000000000000000000000000000000000050
:105060000000000000000000000000000000000040
:105070000000000000000000000000000000000030
:105080000000000000000000000000000000000020
:105090000000000000000000000000000000000010
:1050A0000000000000000000000000000000000000
:1050B00000000000000000000000000000000000F0
:1050C00000000000000000000000000000000000E0
:1050D00000000000000000000000000000000000D0
:1050E00000000000000000000000000000000000C0
:1050F00000000000000000000000000000000000B0
:10510000000306090C101316191C1F2225282B2E2C
:10511000313336393C3F414447494C4E5153555841
:105120005A5C5E60626466686A6B6D6F70717374FE
:10513000757678797A7A7B7C7D7D7E7E7E7F7F7FB7
:105140007F7F7F7F7E7E7E7D7D7C7B7A7A7978769D
:1051500075747371706F6D6B6A68666462605E5CB3
:105160005A585553514E4C494744413F3C393633C8
:10517000312E2B2825221F1C191613100C0906038B
:1051800000FDFAF7F4F0EDEAE7E4E1DEDBD8D5D292
:10519000CFCDCAC7C4C1BFBCB9B7B4B2AFADABA85D
:1051A000A6A4A2A09E9C9A9896959391908F8D8C80
:1051B0008B8A8887868685848383828282818181A7
:1051C0008181818182828283838485868687888AA1
:1051D0008B8C8D8F9091939596989A9C9EA0A2A46B
:1051E000A6A8ABADAFB2B4B7B9BCBFC1C4C7CACD36
:1051F000CFD2D5D8DBDEE1E4E7EAEDF0F4F7FAFD53
:10520000808182838485868788898A8B8C8D8E8F26
:10521000909192939495969798999A9B9C9D9E9F16
:10522000A0A1A2A3A4A5A6A7A8A9AAABACADAEAF06
:10523000B0B1B2B3B4B5B6B7B8B9BABBBCBDBEBFF6
:10524000C0C1C2C3C4C5C6C7C8C9CACBCCCDCECFE6
:10525000D0D1D2D3D4D5D6D7D8D9DADBDCDDDEDFD6
:10526000E0E1E2E3E4E5E6E7E8E9EAEBECEDEEEFC6
:10527000F0F1F2F3F4F5F6F7F8F9FAFBFCFDFEFFB6
:10528000000102030405060708090A0B0C0D0E0FA6
:10529000101112131415161718191A1B1C1D1E1F96
:1052A000202122232425262728292A2B2C2D2E2F86
:1052B000303132333435363738393A3B3C3D3E3F76
:1052C000404142434445464748494A4B4C4D4E4F66
:1052D000505152535455565758595A5B5C5D5E5F56
:1052E000606162636465666768696A6B6C6D6E6F46
:1052F000707172737475767778797A7B7C7D7E7F36
:1053000000020406080A0C0E10121416181A1C1EAD
:1053100020222426282A2C2E30323436383A3C3E9D
:1053200040424446484A4C4E50525456585A5C5E8D
:1053300060626466686A6C6E70727476787A7C7E7D
:105340007F7D7B79777573716F6D6B69676563615D
:105350005F5D5B59575553514F4D4B49474543414D
:105360003F3D3B39373533312F2D2B29272523213D
:105370001F1D1B19171513110F0D0B09070503012D
:10538000FFFDFBF9F7F5F3F1EFEDEBE9E7E5E3E11D
:10539000DFDDDBD9D7D5D3D1CFCDCBC9C7C5C3C10D
:1053A000BFBDBBB9B7B5B3B1AFADABA9A7A5A3A1FD
:1053B0009F9D9B99979593918F8D8B8987858381ED
:1053C00080828486888A8C8E90929496989A9C9EED
:1053D000A0A2A4A6A8AAACAEB0B2B4B6B8BABCBEDD
:1053E000C0C2C4C6C8CACCCED0D2D4D6D8DADCDECD
:1053F000E0E2E4E6E8EAECEEF0F2F4F6F8FAFCFEBD
:105400007F7F7F7F7F7F7F7F7F7F7F7F7F7F7F7FAC
:105410007F7F7F7F7F7F7F7F7F7F7F7F7F7F7F7F9C
:105420007F7F7F7F7F7F7F7F7F7F7F7F7F7F7F7F8C
:105430007F7F7F7F7F7F7F7F7F7F7F7F7F7F7F7F7C
:105700000309131E28313A40464C5054585B5E61E1
:10571000636567696B6C6E6F7071727374757677A1
:10572000777879797A7A7B7B7C7C7C7D7D7D7E7EC7
:105730007E7E7F7F7F7F7F7F7F7F7F7F7F7F7F7F7B
:105740007F7F7F7F7F7F7F7F7F7F7F7F7F7E7E7E6C
:105750007E7D7D7D7C7C7C7B7B7A7A79797877779E
:10576000767574737271706F6E6C6B696765636167
:105770005E5B5854504C46403A31281E13090300D2
:10578000C6CCD5DBDFE3E5E7E9EAEBECEDEEEFEFE6
:10579000F0F0F0F1F1F1F1F2F2F2F2F2F2F2F2F3F2
:1057A000F3F3F3F3F3F3F3F3F3F3F3F3F3F3F3F3C9
:1057B000F3F3F3F3F3F3F3F3F3F3F3F3F3F3F3F3B9
:1057C000F3F3F3F3F3F3F3F3F3F3F3F3F3F3F3F3A9
:1057D000F3F3F3F3F3F3F3F3F3F3F3F3F3F3F3F399
:1057E000F2F2F2F2F2F2F2F2F1F1F1F1F0F0F0EFA6
:1057F000EFEEEDECEBEAE9E7E5E3DFDBD5CCC60065
:1058000000283D42302D2C2B2C2D2E2F30323335BD
:1058100037393B3D3F414345484A4C4E505355571D
:10582000595B5D5F61636567696B6C6E7071737402
:10583000757778797A7B7C7D7D7E7E7F7F7F7F7FA9
:105840007F7F7F7F7F7F7E7E7D7D7C7B7A7978778F
:1058500075747371706E6C6B69676563615F5D5BB6
:1058600059575553504E4C4A484543413F3D3B39AB
:1058700037353332302F2E2D2C2B2C2D30423D2816
:1058800000E9E5FED4D7D7D7D6D4D2D0CECCCAC87B
:10589000C6C3C1BFBDBAB8B6B4B1AFADABA9A7A5B9
:1058A000A3A19F9E9C9A999795949391908F8D8C8C
:1058B0008B8A89888887868585848484838383838B
:1058C0008383838383848484858586878888898A83
:1058D0008B8C8D8F909193949597999A9C9E9FA174
:1058E000A3A5A7A9ABADAFB1B4B6B8BABDBFC1C38C
:1058F000C6C8CACCCED0D2D4D6D7D7D7D4FEE5E945
:10590000F9F8F9F5EBE1DDDEE0E2E4E5E6E5E4E215
:10591000DED9D2CAC1B7ACA299918A868381808030
:105920008182838586888A8C8D8F909293959697B5
:1059300098999A9B9B9C9D9D9D9E9E9E9F9F9F9F9D
:105940009F9F9F9E9E9E9D9D9D9C9B9B9A99989795
:1059500096959392908F8D8C8A888685838281809C
:10596000808183868A9199A2ACB7C1CAD2D9DEE27E
:10597000E4E5E6E5E4E2E0DEDDE1EBF5F9F8F90087
:105980000708070B151F2322201E1C1B1A1B1C1E99
:1059900022272E363F49545E676F767A7E7F7F7F5F
:1059A0007F7E7D7B7A7876747371706E6D6B6A69B9
:1059B00068676665656464636362626261616161B0
:1059C0006161616262626363636465656667686999
:1059D0006A6B6D6E7071737476787A7B7D7E7F7F73
:1059E0007F7F7E7A766F675E54493F362E27221E70
:1059F0001C1B1A1B1C1E2022231F150B0708070047
:105A00001F313D444E5354565A5F64696E74767923
:105A10007C7F7F7F7F7F7F7F7F7F7F7F7F7F7F7F99
:105A20007F7F7F7F7F7F7F7F7F7F7F7F7F7F7F7F86
:105A30007F7F7F7F7F7F7F7F7F7F7F7F7F7F7F7F76
:105A40007F7F7F7F7F7F7F7F7F7F7F7F7F7F7F7F66
:105A50007F7F7F7F7F7F7F7F7F7F7F7F7F7F7F7F56
:105A60007F7F7F7F7F7F7F7F7F7F7F7F7F7F7F7F46
:105A70007F7F7F7F7F7F7F7F7F7F7F7C7871684C98
:105A80002C1C120C0A0B0A05FDF3E9DFD4CAC0B7BF
:105A9000AEA69E97918B8685828080808080808054
:105AA00080808080808080808080808080808080F6
:105AB00080808080808080808080808080808080E6
:105AC00080808080808080808080808080808080D6
:105AD00080808080808080808080808080808080C6
:105AE00080808080808080808080808080808080B6
:105AF000808080808087919DACC4CBD4DDF2FAFA9F
:105B0000089580919E0C8823F9F080919F0C882342
:105B1000C1F480919C0C80939F0C8091A00CE82F85
:105B2000F0E0ED55F74FE491E7B990919D0C980F97
:105B30009093A00C992311F09D3031F410929E0C9B
:105B40000895815080939F0C08950E94812D08959F
:105B50000F931F93CF93DF938C01C0E0D0E007C079
:105B60000E9487228823E1F30E948A222196C0178F
:105B7000D107B4F3DF91CF911F910F910895FF9258
:105B80000F931F93CF93DF938C01F62EEA01FE0152
:105B900044912196442349F0802F0F5F1F4F4F7788
:105BA00040526F2D0E944B22F2CFDF91CF911F9177
:105BB0000F91FF900895FF920F931F93182F062FB8
:105BC000F42E42954F704A3010F4405F01C0495E98
:105BD000812F602F0E944B224F2D4F70812F8F5F9E
:105BE0004A3010F4405F01C0495E602F0E944B2292
:105BF0001F910F91FF9008957F928F929F92AF9285
:105C0000BF92CF92DF92EF92FF920F931F93CF93A9
:105C1000DF93782E862E5A016901780100E010E0AA
:105C20000CC0872D8C0F692DA7010E94632221963D
:105C3000CA15DB05B4F30F5F1F4F0C151D052CF4BF
:105C4000C0E0D0E0902E980CF3CFDF91CF911F9160
:105C50000F91FF90EF90DF90CF90BF90AF909F900B
:105C60008F907F9008957F928F929F92AF92BF9274
:105C7000CF92DF92EF92FF920F931F93CF93DF9318
:105C8000782E862EEA01FA01C590D490FA01329658
:105C9000A590B49000E016C0FC01EE0DFF1D3296F9
:105CA000EE0FFF1FEC0FFD1F45915491812F870DC3
:105CB000692D0E9463221F5F812F90E08C159D0546
:105CC0005CF30F5F802F90E08A159B055CF48C9D40
:105CD00070018D9DF00C9C9DF00C112410E0902E15
:105CE000980CEACFDF91CF911F910F91FF90EF9029
:105CF000DF90CF90BF90AF909F908F907F9008954E
:105D00000F931F938FEE90E00E949D2308EF10E009
:105D1000C8010E948222C8010E947D220E943D2269
:105D20008FE090E00E94A82D80E06FEF41E00E949C
:105D3000B92608E418E082E16CE0A8010E94332E45
:105D400083E090E00E94A82D82E16CE04CE758E0EF
:105D50000E94332E82E090E00E94A82D82E16CE048
:105D6000A8010E94332E80E290E00E94A82D0E949C
:105D70003D228AE090E00E94A82D1F910F91089586
:105D80008091CB0C8823C9F08091300C8F5F809379
:105D9000300C8C3339F41092300C8091310C8F5FC1
