:100000000C9460250C94CB250C94CB250C94CB251B
:100010000C94CB250C94CB250C94CB250C94CB25A0
:100020000C94CB250C94CB250C94CB250C94CB2590
:100030000C94CB250C94A1270C94E1270C94CB2590
:100040000C94CB250C94CB250C94CB250C94CB2570
:100050000C94CB250C94CB250C94CB250C94CB2560
:100060000C94CB250C94CB250C94CB250C94CB2550
:100070005A5501200101003808000000000000006E
:100080000000000000000000000000000000000070
:100090008100450027FF24FF2A902B1C210C22FB06
:1000A000850084008903888D81096F0244424700DE
:1000B0004501B083B300B10125118A4F8B03452A56
:1000C000482A512A552A5D2A642A692A6E2A712AE9
:1000D0008A2A8D2A902ACE2A00408891D2E4ADB592
:1000E000B6BEBFFFA65B5B5B5B5B5B045B5B00005C
:1000F00000005B5B5B00FE0000E9005B5B0000074B
:100100001F00005B5B00003F6800005B5B00950028
:100110000091005B5B5B000000005B5BD95B5B5B9D
:100120005B5B5B35FFFFFFFFFFFFFFFFFFFFFFFF95
:10013000FFFFFFFFFFFFFFFFFFFFFFFFFFFFFFFFCF
:10014000FFFFFFFFFFFFFFFFFFFFFFFFFFFFFFFFBF
:10015000FFFFFFFFFFFFFFFFFFFFFFFFFFFFFFFFAF
:10016000FFFFFFFF19191900B70000B71919191976
:100170000000B719191919190000B719B719191979
:100180000000B719B719191900B719191919191950
:1001900000B719191919191900B7191919191919C5
:1001A00000B7191919190000B700191919191919E7
:1001B000000000B7191919190000190019191919A7
:1001C0001900190019191919190019001919191903
:1001D00019191900191919B7B70000B71919B71962
:1001E000191900B7D9D9D9D9D9D9D9D9D9D9D9D9FA
:1001F000D9D9D9D9D9D919D9D9D9D9D9D9D9D9D92F
:10020000D9D9D9D9D9D9D9D9D9D9D9D9D9D9D9D95E
:10021000D9D9D9D919D9D9D9D9D9D9D9D9D9D9D90E
:10022000D9D9D9D91919190000B7191919191900EB
:1002300000B71919B719000000B70019B71900B7AE
:10024000B7B700001900B719191919191900B7190A
:100250001919190019B719191919191900B719B766
:100260001919B7001919B719191919001919B71956
:10027000191919001900B719191900001900B7192F
:10028000191900B70000B719191900B70000B719FC
:10029000191900B70000001919000000B70000B7D5
:1002A000B70000B7D9D9D9D9D9D9D9D9D9D9D9D9B4
:1002B00019D9D9D9D9D9D9D9D9D9D9D9D9D9D9D96E
:1002C000D9D9D9D9D9D9D9D9D9D9D9D9D9D9D9195E
:1002D000D9D9D9D9D9D9D9D9D9D9D9D9D9D9D9D98E
:1002E000D9D9D9D9B719191919191900B71919195B
:1002F00019191919B719000019191919B7B71919C6
:1003000000191919B719191900191919B719191953
:1003100000191919B719191900191919B719191943
:10032000001919190000B719190000000000B719C9
:10033000191900000000B719191900000000B719B9
:10034000191900B70000B719191900B70000B7193B
:100350000000B7B700000000B7B7B7B70000B7B7E5
:10036000B7B7B7B719191919B719191919191919E7
:10037000B719191919191900B719191919191900E3
:10038000B719191919191900B719191919191900D3
:10039000B719191900190000B7191919B700000089
:1003A000B7191919000000B719190000191900B779
:1003B00019191900191900B719191900191900B7D5
:1003C00019191919191900B719191919191900B793
:1003D0001919191919190000B71919191919000053
:1003E00000B7191900000000000000000000000024
:1003F00000000000000000000000000000000000FD
:1004000000000000000000000000000000000000EC
:1004100000000000000000000000000000000000DC
:1004200000000000B719191900191900B719191996
:100430000019190000B719190019190000B7191986
:100440000019190000B719190019000000B71900A8
:10045000000000B70000B7B7B7B7B7B7B7B7B7B7BF
:10046000B7B7B7B700B7B7B7B7B7B7B700B7B7B78A
:10047000B7B7B7B700B7B7B7B7B7B7B700B7B7B77A
:10048000B7B7B7B7B7B7B7B7B7B7B7B7B7B7B7B7FC
:10049000B7B7B7B7B7B7B7B7B7B7B7B7B7B7B7B7EC
:1004A000B7B7B7B7B7B7B70000191919B7B7B7B724
:1004B00000190019B7B7B7B7B7000000B7B7B7B79B
:1004C000B7B7B7B7B7B7B7B7B7B7B7B7B7B7B7B7BC
:1004D000B7B7B7B7B7B7B7B7B7B7B7B7B7B7B7B7AC
:1004E000B7B7B7B71919000000B7191919000000FC
:1004F00000B719190000000000B71919000000002A
:1005000000B71919B7B7B7B700B71919B7B7B7B761
:10051000B7001919B7B7B7B7B7001919B7B7B7B751
:10052000B7B70000B7B7B7B7B7B7B7B7B7B7B7B7C9
:10053000B7B7B7B7B7B7B7B7B7B7B7B7B7B7B7B74B
:10054000B7B7B7B7B7B7B7B7B7B7B7B7B7B7B7B73B
:10055000B7B7B7B7B7B7B7B7B7B7B7B7B7B7B7B72B
:10056000B7B7B7B7B7B7B7B7B7B7B7B7B7B7B7B71B
:10057000B7B7B7B7B7B7B7B7B7B7B7B7B7B7B7B70B
:10058000B7B7B7B7B7B7B7B7B7B70000B7B7B7B769
:10059000B7B71900B7B7B7B7B7191900B7B7B7B733
:1005A000B7191900B7B719190000B7B7B719191952
:1005B000190000B719191919191900B7B71919191C
:1005C00019190000B719191919190000B7191919C3
:1005D00019000000B7191919191900000019191983
:1005E000191900B7B7B7B7B7B7B7B7B7B7B7B7192C
:1005F00000B7B7B7B7B719191900B7B7B7191919AD
:10060000191900B700191919191900B7B7191919CB
:1006100019191900B719191919191900B719191940
:1006200019190000B7B7B7B7B7B7B7B7B7B7B7B704
:10063000B7B7B7B7B7B7B7B7B7B7B7B7B7B7B7B74A
:10064000B7B7B7B7B7B7B7B7B7B7B7B7B7B7B7B73A
:10065000B7B7B7B719B7B7B7B7B7B7B71919000072
:1006600000B7B7B7B7B7191900B7B7B7B71919199E
:100670001900B7B7B719B7191900001919B719191F
:100680001900B71919B719191900B71919B7191994
:1006900000B719191919191900B7191919191919C0
:1006A00000B71919B7B7B7B7B7B7B7B7B7B7B7B7CD
:1006B000B7B7B7B719190000B7B7B7B719191919EC
:1006C00000B7B7B7191919190000B7B719191919CF
:1006D0001900B7B700191919190000B70019190046
:1006E000000000B7B7B7B7B7B7B7B7B7B7B7B7B7BF
:1006F000B7B7B700B7B7B7B7B7000000B7B7B7001D
:10070000000000D9B7B7B7B700D9D919B7B7B70044
:1007100000D9D9D9B7B70000D9D9D9D9B7B700D935
:10072000D9D9D9D9B70000B7B70000000000000040
:100730000000000000D9D9000000D9D9D9D9D9D9F1
:10074000D9D9D919D9D9D9D9D9D9D9D9D9D9D9D9D9
:1007500019D9D9D9D9D9D9D9D9D9D9D9D9D9D9D9C9
:10076000D9D9D9D900B7B7B7B7B7B7B7000000B76D
:10077000B7B7B7B7D90000000000B7B7D9D9D9D9F2
:1007800000B7B7B7D9D9D9D9B7B7B7B7D9D919D960
:10079000B7B7B7B7D9D9D9D90000B7B7D9D9D9D947
:1007A000D9D900B7B7B7B7B7B7B7B7B7B7B7B7B74C
:1007B000B7B7D9D9B7B7B7B7B7D91919B7B7B7B79F
:1007C000B7D91919B7B7B7D9D9191919B7B7D919E5
:1007D00019191919B7B7D900D91919D9B7B7D90043
:1007E000D91919D9B7B7B7B7B7D9D9D9D9D9D9D9A3
:1007F000D9D9191919191919190019191919191902
:100800001919000019D9D9D9D9D91919D91919190A
:1008100019190019191919191919001900000000DE
:1008200000000019D9D9D9B7B7B7B7B7191919D96D
:10083000D9D9D9D9191919001919191900000000A5
:10084000191919191919D9D9D9D9D91919D9191998
:100850001919190019D919191919191919D90000D3
:1008600000000000B7B7B7B7B7B7B7B7D9D9B7B7B0
:10087000B7B7B7B7190000B7B7B7B7B7191900B707
:10088000B7B7B7B71919000000B7B7B719191919D1
:100890000000B7B700191900D900B7B7001919003F
:1008A000D900B7B7B7B7B7B7B7B7B7B7B7B7B7B76D
:1008B000B7D9D9D900B7B7D9D919191900B7D919E2
:1008C0001919191900B7D91919D9D9D919D9191953
:1008D000D9190000191919D919190000191919D9AC
:1008E00019191919B7B7B7B7B7B7B7B7D9D9D9B7AA
:1008F000B7B7B7D91919190000B7B7D91919191904
:100900001900B7D9D9D9D9191900B7D900001900D8
:1009100019190019000019190019191919191919AB
:1009200000191919B7B7B70000191900B7B7191985
:1009300000191900B719191919191900B719191936
:1009400000191900B719191900190000B719191958
:100950000019000019191919191900001919191984
:100960001919000019191919191919B7191919198B
:10097000191919B719191919191900B7B719191926
:100980001919000000191919191900001919191954
:100990001919000000191919190000B700190000F1
:1009A000191900B719191919191900B719191919AD
:1009B000190000B719191919190000B7B719191931
:1009C000191900000019191919191900B7B70000F1
:1009D0001919190019191919001900001919190004
:1009E00000191900190019191900B7B7191919199F
:1009F0001900B7B719191919191900B7B719191921
:100A0000191900B7B7191919191900B7B719191910
:100A1000190000B7B7000019190000B7B7000000AF
:100A20001900B7B7B719191900B71919B719191952
:100A300000B71919B719191900B71919191919197E
:100A40000019191919191919001919191919191948
:100A500019191919B71919191919001900000000E5
:100A60000000000000191900190000B7000019006B
:100A7000190000B700001900190000B7190019008B
:100A8000000000B719191900001900B7190000007B
:100A90001919B7B719190000000000000000000084
:100AA0000000B7B7B7B700D9D919D9D9B70000D95D
:100AB000D9D9D9D9B700D9D9D9D9D9D9B7D9D91983
:100AC000D9D9D9D9B7D9D9D9D9D9D9D9B7D9D9D9DA
:100AD000D9D919D9B7D919D9D9D9D9D9B7D9D9D94A
:100AE000D9D9D9D919D9D9D9D9D9D900D9D9D9D90F
:100AF00019D9D900D9D9D9D9D9D9D900D9D9D9D9D8
:100B0000D9D9D9B7D9D9D919D9D9D9B7D9D9D9D959
:100B1000D9D9B7B7D9D9D9D9D9D9B7B7D9D9D9D9CD
:100B2000D9D9B7B7B7B719191919B7B7B719191963
:100B3000191919B7191919191919B7001919191902
:100B40001919B700191919191919B700191919190B
:100B500019B70000B719B7B7B70000B7B7B70000AB
:100B60000000B7B7B7B7D900D91919D9B7B7D900A5
:100B7000D91919D9B7B7D900D9191919B7B7D900DF
:100B8000D9191919B7B7D91919191919B7B7D9191D
:100B900019191919B7D9191919191919D9191919A7
:100BA000191919B71919000000191900191919197B
:100BB0001919190000000000000000191919B7B731
:100BC000B7B7B7B719B7191900000000B70019195E
:100BD00000000000B700001900000000000000192C
:100BE0000000000019D919000000191919D91919A4
:100BF000191919191919000000000000B7B7B7B783
:100C0000B7B71919000000001919B7190000000042
:100C1000191900B700000000190000B7000000001B
:100C20001900000000191900D900B7B70019190000
:100C3000D900B7B719191900D900B7B71919190090
:100C4000D900B7B7191919191900B7B71919D9D98E
:100C50000000B7B719D91919190000B7B7D9191970
:100C600019000000191919D91919D9D919191919FF
:100C700000D9001919191919D91900191919B7B773
:100C8000B7B7B71919B71919001919B7B700191952
:100C900000001900B7000019000000000000001952
:100CA00000000000D9D91919001919191900D90023
:100CB00019191919190019D91919191919B7B7B723
:100CC000B7B71919B71919001919B7190019000080
:100CD000191900B700000000190000B7000000005B
:100CE00019000000B7B71900B7191919B7B70000F4
:100CF00019190000B7B7B71919D90000B7B7B71954
:100D000019D9D9D919191919191900191900191945
:100D100000190000191919191919001919191919A7
:100D20001919001919B71900B7D9B7B7191900005F
:100D3000B7D9B7B7D91919B7B7D9B7B7D91919B733
:100D4000B7D9B7B719191900B7D9B7B70000001943
:100D500000D9B7B71919191919D900B719191900F4
:100D6000191900B7191919191919191900000000D2
:100D700000000000B7191919191900B7B719191986
:100D8000191900B7B7B719191900B7B7B7B7B71915
:100D900000B7B7B7B7B7B71900B7B7B7B7191919C9
:100DA000190000B7D9191919191919B7D919191929
:100DB000191919B7D9001919191919B7D9D9000072
:100DC000000000B7D919D9D9D9D9D9B7D90019197B
:100DD000191919B7D9001919191919B7D9D9000052
:100DE000000000B7D919D91900191900D919D91952
:100DF00000191900D919D9190000190000000000C4
:100E000000D91900D9D9D9D9D9191900D91919195D
:100E100019001900D919191919001900000000004A
:100E200000D91900D9D9D9D9D9D9D919D919D9D924
:100E3000D9D9D9D9D9D9D9D9D9D9D9D9D9D9D9D922
:100E4000D9D9D9D9B7D9D919D9D9D9D9B7D9D9D916
:100E5000D9D9D9D9B7D9D9D9D9D9D9D9B7D9D9D946
:100E6000D9D9D9D9D9D9D9D919D900B7D9D9D9D9AD
:100E7000D9D900B7D9D9D9D9D9D900B7D9D9D9D9D8
:100E8000D9D900B7D9D9D9D9D9D900B7D9D9D91988
:100E9000D9D900B7D9D9D9D9D9D90000D9D9D9D96F
:100EA000D9D9D900191919191919001919191919A4
:100EB000191900D919191919191900191919191914
:100EC000191900D919001919001900191919191936
:100ED000191900B7B7000000000000000000000072
:100EE0000000000019191900191900B7D9191900C3
:100EF000191900B7D9D9D9D900D900B7D9191919F1
:100F000000D900B71919000000D900B7B7001919A6
:100F100019D9B7B70019191919D900B7000000007D
:100F200000000000B7D9D9D9D9D9D9B7D919191919
:100F300019191900D919191919191900D9191919D3
:100F400019191900D919191919191900D9191919C3
:100F500019191900D91919191919190000000000D7
:100F600000000000D900D9D9D9D9D9B7D9001919A9
:100F7000191919B7D9001919191919B7D9D90000B0
:100F8000000000B7D919D9D9D9D9D9B7D9191919A0
:100F9000191919B700191919191919B70000000002
:100FA00000000000D9D9D9D9D9191900D9191919AE
:100FB00019001900D91919191900190000000000A9
:100FC00000D91900D9D9D9D9D9191900D91919199C
:100FD00019191900D9191919191919000000000057
:100FE00000000000B700001919191919B700D9D964
:100FF000D9D9D9D9B700D9D9D9D9D9D9B700D9D957
:10100000D9D9D9D9B700001919191919B700D9D9DF
:10101000D9D9D9D9B700D9D9D9D9D9D9B700D9D936
:10102000D9D9D9D9191919191919B700D9D9D9D9AB
:10103000D9D9B700D9D9D9D9D9D9B700D9D9D9D916
:10104000D9D9B700191919191919B700D9D9D9D986
:10105000D9D9B700D9D9D9D9D9D9B700D9D9D9D9F6
:10106000D9D9B700B7D9D919D9D9D9D9B7B7D9D911
:10107000D9D9D9D9B7B7B7B7D9D9D9D9B7B7B7B7F0
:10108000B7D9D9D9B7B7B7B700D9D9D9B7B7B70092
:1010900000D9D9D9B7B7B7B7B7B7D9D9B7B7B7B7ED
:1010A000B7B7B7B7D9D9D9D9D9D9D919D9D9D9D9F8
:1010B000D9D9D9D919D9D9D9D9D9D9D9D9D9D9D960
:1010C000D9D9D9D9D9D9D9D9D9D9D9D9D9D9D9D990
:1010D000D9D9D9D919D9D919D9B7D9D9D9D9B7D944
:1010E000B7B7B7B7D9D9D9D9D9D9D9B7D919D9D9DA
:1010F000D919D9B7D9D9D9D9D9D9B7B7D9D9D9D986
:10110000B7B7B7B7D9D9D9D900B7B7B719D9D9D9D6
:101110000000B7B7D9D9D9B7B7B7B7B7B7B7B7B767
:10112000B7B7B7B7D9D9D9D9D919D9D9B7D9B7B7DD
:10113000D9D9D9D9B7B7B7B7D9D9D9D9B7B7B7B72F
:10114000B7B7D9D9B7B7B7B7B7B7D919B7B7B7B767
:10115000B7B7D9D9B7B7B7B7B7B7D9D9B7B7B7B797
:10116000B7B7B7D9D9D9D919D9D9D9D9D9D9D9D915
:10117000D9D9B7B7D9D9D9D9D9B7B7B7D919D9B76B
:10118000B7B7B7B7D9D9D900B7B7B7B7D9D9D90091
:1011900000B7B7B7D9D9D900B7B7B7B719D9D9B741
:1011A000B7B7B7B7B7B7B7B7B7B700D9B7B7B7B764
:1011B000B70000D9B7B7B7B7B7B7B7B7B7B7B7B70B
:1011C000B7B7B7B7B7B7B7B7B7B7B7B7B7B7B7B7AF
:1011D000B7B7B7B7B7B7B7B7B7B7B7B7B7B7B7B79F
:1011E000B7B7B7B7D9B7B7B7B7B7B7B7D9B7B7B74B
:1011F000B7B7B7B7D9B7B7B7B7B7B7B7B7B7B7B75D
:10120000B7B7B7B7B7B7B7B7B7B7B7B7B7B7B7B76E
:10121000B7B7B7B7B7B7B7B7B7B7B7B7B7B7B7B75E
:10122000B7B7B7B7D9B7D9D9D9D9D9D9D9B7D9D9FA
:10123000D900D9D9B7B7D9D9B700D9D91919D9D9B6
:10124000B7D9B7D9B719B7D919B7B7D9B719B7B780
:10125000B7B719B7B7B7B7D9B7B7B7B7B7D9B7D956
:10126000B7B7D9B719D9D900D9D9D9D919D9D90086
:10127000D919D9D91919D9D9D919D9B719B7D919A2
:10128000D9B7B7B7B719D9B7D9D9B719B719B7B740
:10129000D9B7B719B7D9B7B7D9D9D9B7D9D9B7D96C
:1012A000D9B7D9B7D9D9B7D9D9B7D9B7D9D9D9D958
:1012B000D9D9D9B7D9D9D900D9B7D9D9D9D9D90094
:1012C000D9B7D9D9D9D9B7D9D9B7D9D9D9D9D9D9F4
:1012D000D9D9D9D9D9D9D9D9D9D9D9D9D9D9D9D97E
:1012E000D9D9D9D9D900D900D9B7D9B7D900D9D93D
:1012F000D9B7D9D9D900D9D9D9D9D9D9D9D9D9D959
:10130000D9D9D9D9D9D9D9D9D9D9D9D9B7D9D9D96F
:10131000D9D9D9B7D9D9D9D9D9D9D9D9D9D9D9D95F
:10132000D9D9D9D9B719B7B7B7D9D9B7B7191919F9
:10133000D9D9D9D9B719191919B7B7B7B700191920
:1013400019B7B7B7B7D9D9D9191919B7D9D9D9D9B7
:10135000D9191919B7B7D9D900191919B7B7B7B722
:1013600000001919B7B7B719B7B7B7B7B7B7B719F3
:1013700019000000B7B7B71919191900B7B7B7198D
:1013800000191919B7B7B70000191919B7B7B7007D
:10139000191919191919B70019001919191919006A
:1013A00019001919B7B7B7B7B7B700B7B7B7B7B715
:1013B000B70000B70000B7B7000000B7000000009A
:1013C000000000000000000000000000000000001D
:1013D000001900001919000019000000191900195E
:1013E00019000000B700000000B7B7B70000000008
:1013F0000000B7B70000000019000000190000004D
:1014000019000000191919191919000019191919C9
:10141000191919001919191900191919191919196E
:1014200000191919B7000000000000B70000000003
:1014300000000000000000000000000000000000AC
:101440000000000000000000001919190000001938
:101450001919191900001900191919191919190060
:1014600019191900B7B7B7B7B7000019B7B7B7B7A9
:10147000B7B70019B7B7B7B7B7B70000B7B7B7B7BF
:10148000B7B7B700B7B7B7B7B7B7B700B7B7B7B75A
:10149000B7D9D9D9B7B7B7B7D9D9D9D9B7B7B7B7EE
:1014A000B7B7D9D919191919190019191900191922
:1014B0000019191919001919190019190000001932
:1014C000190019190000000019001919D9D90000D4
:1014D00000001919D9D9000000191919D900000004
:1014E0000019191900191919190000000019191902
:1014F0000000000019191919000000001919191924
:101500000000001919001919190000191900190013
:1015100019000019190019001900001919001919EA
:1015200000000019191919000000191919191900DA
:10153000B700191919191900B7001919191919192A
:10154000001919191919191919191919191919003D
:101550000019000019000000001900001900000027
:10156000000000001919000000191900191900B72E
:1015700000191900191900B70019190019191900D3
:10158000191919001919191919191900000019192F
:1015900019191900000000001900191900000000B5
:1015A00000001900B7B7000019190019B7B70000FB
:1015B00019190019B7B7000019190019B7B71900A0
:1015C00019190019B7B7190019190019B7B7190077
:1015D00019190019B7B7190019190019B7B7190067
:1015E0001919001919001919000019001900191901
:1015F0000000190019000019000019001900001955
:101600000000190019000019190000001900001944
:101610001919000019000019001900191900001902
:1016200000190019B7B7B7B7B7B71900B7B7B7B749
:10163000B7190000B7B7B719191900B7B7B719002C
:101640001900D9D9B719001900D9D9B7191900004B
:1016500000B7B7B719001900B7B7B7B7000019003E
:10166000B7B7B7B7B719190019000019B7190000B3
:1016700019001919B719001919001919B719001902
:1016800019001919B7190019191919191919001977
:101690000019191919191919001919191919B7B7B0
:1016A0001919B71919001919001900191900190089
:1016B0000019000019001900191900001919190062
:1016C0001900000019191919191900001900191920
:1016D0001900001919190000000000191919191929
:1016E00019000019001900B7B7B7B7B7000000B765
:1016F000B7B7B7B71900B7B7B7B7B7B71900B7B724
:10170000B7B7B7B70000B7B7B7B7B7B7000000B7FC
:10171000B7B7B7B7000000B7B7B7B7B70019000041
:10172000B7B7B7B7FFFFFF005B00005BFFFFFFFF2E
:1017300000005BFFFFFFFFFF00005BFF5BFFFFFFA1
:1017400000005BFF5BFFFFFF005BFFFFFFFFFFFF92
:10175000005BFFFFFFFFFFFF005BFFFFFFFFFFFFDF
:10176000005BFFFFFFFF00005B00FFFFFFFFFFFFCD
:101770000000005BFFFFFFFF0000FF00FFFFFFFF17
:10178000FF00FF00FFFFFFFFFF00FF00FFFFFFFF65
:10179000FFFFFF00FFFFFF5B5B00005BFFFF5BFFE6
:1017A000FFFF005B5B5B5B5B5B5B5B5B5B5B5B5B9C
:1017B000FF5BFF005B5BFF5BFFFFFFFF5B5BFFFF10
:1017C00000FFFFFF5BFFFFFFFFFFFFFF5BFFFFFF70
:1017D000FFFF00FFFFFFFFFFFFFFFFFFFFFF00FF17
:1017E000FFFFFFFF5B5B5B5B5B5B5B5B00005B5B6F
:1017F0005B5B5B5BFF000000005B5B5BFFFF00006F
:10180000FF005B5BFFFFFF0000005B5BFFFF00FF73
:101810000000005BFFFF000000005B5BFFFFFF00BC
:101820000000005BB7B7B7B7B7B7B7B7B7B7B7B7C9
:1018300019B71900B7B719B719191919B7B719197D
:1018400000191919B719191919191919B7191919E5
:10185000191900191919191919191919191900192A
:1018600019191919B7B7B7B7B7B7B7B70000B7B7EE
:10187000B7B7B7B71900000000B7B7B7191900001C
:101880001900B7B7191919000000B7B719190019CD
:10189000000000B7191900000000B7B719191900A6
:1018A000000000B7FFFFFF00005BFFFFFFFFFF002E
:1018B000005BFFFF5BFF0000005B00FF5BFF005B66
:1018C0005B5B0000FF005BFFFFFFFFFFFF005BFFB4
:1018D000FFFFFF00FF5BFFFFFFFFFFFF005BFF5B02
:1018E000FFFF5B00FFFF5BFFFFFFFF00FFFF5BFFF2
:1018F000FFFFFF00FF005BFFFFFF0000FF005BFF3B
:10190000FFFF005B00005BFFFFFF005B00005BFF71
:10191000FFFF005B000000FFFF0000005B00005BBA
:101920005B00005B5BFFFFFFFFFFFFFFFFFFFFFFB1
:1019300000FFFFFFFFFFFFFFFFFFFFFFFFFF00FFB5
:10194000FFFFFFFF5BFFFFFFFFFFFF005B5B5BFF36
:10195000FFD9FFD95B5B5B5B00D9D9D95B5B5B00CF
:101960000000000000FFFF0000FF005BFFFFFF0022
:101970000000005BFF00000000005B5BFFFF00FF5A
:1019800000005B5B00000000005B5B5B0000FF5B36
:101990005B5B5B5BD9D90000000000000000000029
:1019A00000005B5BB71919191919191919191919B7
:1019B00000191919191919191919191919190019C9
:1019C00019191919B719191919191900B7B7B71928
:1019D00019D919D9B7B7B7B700D9D9D9B7B7B70097
:1019E0000000000000191900001900B719191900AA
:1019F000000000B7190000000000B7B7191900195E
:101A00000000B7B70000000000B7B7B7000019B773
:101A1000B7B7B7B7D9D90000000000000000000038
:101A20000000B7B75BFFFFFFFFFFFF005BFFFFFF9B
:101A3000FFFFFFFF5BFF0000FFFFFFFF5B5BFFFFA0
:101A400000FFFFFF5BFFFFFF00FFFFFF5BFFFFFFEC
:101A500000FFFFFF5BFFFFFF00FFFFFF5BFFFFFFDC
:101A600000FFFFFF00005BFFFF00000000005BFFC6
:101A7000FFFF000000005BFFFFFF000000005BFFB6
:101A8000FFFF005B00005BFFFFFF005B00005BFFF0
:101A900000005B5B000000005B5B5B5B00005B5B6E
:101AA0005B5B5B5B5B5B5B5B5B5B5B5B5B5B5B5B86
:101AB0005B5B5B5B5B5B5B5B5B5B5B5B5B5B5B5B76
:101AC0005B5B5B5B5B5B5B5B5B5B5B5B5B5B5B5B66
:101AD0005B5B5B5B5B5B5B5B5B5B5B5B5B5B5B5B56
:101AE0005B5B5B5BB7B7B7B7B7B7B7B7B7B7B7B7F6
:101AF000B7B7B7B7B7B719B7B7B7B7B7B7B7B7B714
:101B0000B7B719B7B7B7B7B7B7B7B7B7B719B7B7A1
:101B1000B7B7B7B7B7B7B7B7B7B7B7B7B7B7B7B755
:101B200019B7B7B7B7B7B7B7B7B7B719B7B7B7B781
:101B300019B7B7B7B7B7B7B7B7B7B7B7B7B7B7B7D3
:101B4000B7B7B7B7B719B7B7B7B7B7B7B7B7B7B7C3
:101B5000B719B7B7B7B7B7B7B7B7B7B7B7B7B7B7B3
:101B6000B7B7B7B75BFFFFFF00FFFF005BFFFFFFEB
:101B700000FFFF00005BFFFF00FFFF00005BFFFFB7
:101B800000FFFF00005BFFFF00FF0000005BFF00A5
:101B90000000005B00005B5B5B5B5B5B5B5B5B5B5C
:101BA0005B5B5B5B005B5B5B5B5B5B5B005B5B5B3B
:101BB0005B5B5B5B005B5B5B5B5B5B5B005B5B5B2B
:101BC0005B5B5B5B5B5B5B5B5B5B5B5B5B5B5B5B65
:101BD0005B5B5B5B5B5B5B5B5B5B5B5B5B5B5B5B55
:101BE0005B5B5B5BB7B7B7B7B7B7B7B7B7B7B7B7F5
:101BF000B7B7B719B7B719B7B7B7B7B7B7B7B7B7B1
:101C0000B7B7B7B7B7B7B7B7B7B7B7B719B7B7B702
:101C1000B7B719B7B7B7B7B7B7B7B7B7B7B7B71990
:101C2000B7B7B7B7B7B7B719B7B7B7B7B7B7B7B7E2
:101C3000B7B7B7B7B7B7B7B7B7B7B7B7B7B7B7B734
:101C4000B7B719B7B7B7B719B7B7B7B7B7B7B7B760
:101C5000B7B7B7B7B7B7B7B7B7B7B7B7B719B7B7B2
:101C6000B7B7B7B75B5B5B5B5B5BFFFF5B5B5B5B0C
:101C70005BFFFFFF5B5B5B5BFFFFFFFF5B5B5BFF94
:101C8000FFFFD9D95B5BFFFFFFFFD9D95B5BFFFF8C
:101C9000D9D9D9D95B5BFFFFD9D9D9D95B5BFFFF14
:101CA0000000D9D9FF5B5B5B5B5B5B5BFFD95B5B78
:101CB0005B5B5B5BFFFFD95B5B5B5B5B00FFFFD943
:101CC0005B5B5B5B00FFFFFFD95B5B5BD9D900FF10
:101CD000D95B5B5BD9D900FFD95B5B5B000000FF80
:101CE000D95B5B5B5B5B5B5B5B5B5B5B5B5B5B5BC6
:101CF0005B5BD9D95B5B5B5B5BD9FFFF5B5B5B5B72
:101D00005BD9FFFF5B5B5BD9D9FFFFFF5B5BD9FF53
:101D1000FFFFFFFF5B5BD900D9FFFFD95B5BD900F9
:101D2000D9FFFFD95B5B5B5B5B5B5B5B5B5B5B5BBF
:101D30005BD9D9D9005B5BD9D9FFFFFF005BD9FF25
:101D4000FFFFFFFF005BD9FFFFD9D9D9FFD9FFFF04
:101D5000D9FF0000FFFFFFD9FFFF0000FFFFFFD901
:101D6000FFFFFFFF5B5B5B5B5B5B5B5BD9D9D95BB9
:101D70005B5B5BD9FFFFFF00005B5BD9FFFFFFFFF1
:101D8000FF005BD9D9D9D9FFFF005BD90000FF0064
:101D9000FFFF00FF0000FFFF00FFFFFFFFFFFFFF4F
:101DA00000FFFFFF5B5B5B5B5B5B5B5BD9D95B5BF6
:101DB0005B5B5B5BFF00005B5B5B5B5BFFFF005B98
:101DC0005B5B5B5BFFFF0000005B5B5BFFFFFFFF9C
:101DD00000005B5B00FFFF00D9005B5B00FFFF00C2
:101DE000D9005B5BD9D9FFFFFFFFD9D9D900FFFF2D
:101DF000FFFFD9D9D900FFFFFFFFFF00D900FFFF88
:101E0000FFFFFFFFD9D9D9D9D9D9D9D9FFFFFFFF12
:101E1000FFFFFFFFFFFFFFFFFFFFFFFF00000000CE
:101E20000000000000FFFFFFD9D9D95B00FFFFFFD2
:101E3000D900D90000FFFFFFD900D900FFFFFFFF45
:101E4000D900D900D9D9D9D9D9D9D900FFFFFFFFF5
:101E5000FFFFFF00FFFFFFFFFFFFFF00000000008C
:101E6000000000005B5BFFFFFFFF5B5B5BFFFFFFB2
:101E7000FFFFFF5BFFFFFFFFFFFF5B00FFFFFFFFB9
:101E8000FFFF5B00FFFFFFFFFFFF5B00FFFFFFFFA8
:101E9000FF5B00005BFF5B5B5B00005B5B5B00006C
:101EA00000005B5B5B5BD900D9FFFFD95B5BD900AE
:101EB000D9FFFFD95B5BD900D9FFFFFF5B5BD9007E
:101EC000D9FFFFFF5B5BD9FFFFFFFFFF5B5BD9FF24
:101ED000FFFFFFFF5BD9FFFFFFFFFFFFD9FFFFFF02
:101EE000FFFFFF5BFFFFFFD9FFFFD9D9FFFFFFFF18
:101EF00000D900FFFFFFFFFFD9FF00FFFFFF5B5B83
:101F00005B5B5BFFFF5BFFFF00FFFF5B5B00FFFFB7
:101F10000000FF005B0000FF00000000000000FF69
:101F200000000000D9D9FFFF00FFFFFFFF00D9002C
:101F3000FFFFFFFFFF00FFD9FFFFFFFFFF5B5B5BC2
:101F40005B5BFFFF5BFFFF00FFFF5BFF00FF00002D
:101F5000FFFF005B00000000FF00005B00000000CE
:101F6000FF00000000FFFF00D9005B5B00FFFF00E7
:101F7000D9005B5BFFFFFF00D9005B5BFFFFFF0049
:101F8000D9005B5BFFFFFFFFFF005B5BFFFFD9D961
:101F900000005B5BFFD9FFFFFF00005B5BD9FFFF29
:101FA000FF0000005B5BFF005BFFFFFF5B5B00006F
:101FB000FFFF00005B5B5BFFFFD900005B5B5BFF2B
:101FC000FFD9D9D9FFFFFFFFFFFF00FFFF00FFFF91
:101FD00000FF0000FFFFFFFFFFFF00FFFFFFFFFF0D
:101FE000FFFF00FFFF5BFF005BD95B5BFFFF0000B3
:101FF0005BD95B5BD9FFFF5B5BD95B5BD9FFFF5BA9
:102000005BD95B5BFFFFFF005BD95B5B000000FF00
:1020100000D95B5BFFFFFFFFFFD9005BFFFFFF0005
:10202000FFFF005BFFFFFFFFFFFFFFFF000000005F
:10203000000000005BFFFFFFFFFF005B5BFFFFFF97
:10204000FFFF005B5B5BFFFFFF005B5B5B5B5BFFBE
:10205000005B5B5B5B5B5BFF005B5B5B5BFFFFFFF6
:10206000FF00005BD9FFFFFFFFFFFF5BD9FFFFFF12
:10207000FFFFFF5BD900FFFFFFFFFF5BD9D9000027
:102080000000005BD9FFD9D9D9D9D95BD900FFFFAE
:10209000FFFFFF5BD900FFFFFFFFFF5BD9D9000007
:1020A0000000005BD9FFD9FF00FFFF00D9FFD9FF77
:1020B00000FFFF00D9FFD9FF0000FF000000000073
:1020C00000D9FF00D9D9D9D9D9FFFF00D9FFFFFF27
:1020D000FF00FF00D9FFFFFFFF00FF00000000002E
:1020E00000D9FF00FFFFFFFFFFFF00FFFFFFFFFF23
:1020F000FFFF00D9FFFFFFFFFFFF00FFFFFFFFFF14
:10210000FFFF00D9FF00FFFF00FF00FFFFFFFFFF01
:10211000FFFF005B5B00000000000000000000000B
:1021200000000000FFFFFF00FFFF005BD9FFFF0082
:10213000FFFF005BD9D9D9D900D9005BD9FFFFFFD8
:1021400000D9005BFFFF000000D9005B5B00FFFFD0
:10215000FFD95B5B00FFFFFFFFD9005B00000000C1
:10216000000000005BD9D9D9D9D9D95BD9FFFFFFCD
:10217000FFFFFF00D9FFFFFFFFFFFF00D9FFFFFFB9
:10218000FFFFFF00D9FFFFFFFFFFFF00D9FFFFFFA9
:10219000FFFFFF00D9FFFFFFFFFFFF00000000006F
:1021A00000000000D900D9D9D9D9D95BD900FFFFE7
:1021B000FFFFFF5BD900FFFFFFFFFF5BD9D90000E6
:1021C0000000005BD9FFD9D9D9D9D95BD9FFFFFF6E
:1021D000FFFFFF5B00FFFFFFFFFFFF5B0000000052
:1021E00000000000D9D9D9D9D9FFFF00D9FFFFFFDE
:1021F000FF00FF00D9FFFFFFFF00FF00000000000D
:1022000000D9FF00D9D9D9D9D9FFFF00D9FFFFFFE5
:10221000FFFFFF00D9FFFFFFFFFFFF0000000000EE
:1022200000000000B7B7B7B7B7B7B7B7B7B7B7B71A
:10223000B7B7B7B7B7B7B7B7B7B7B7B7B7B7B7B72E
:10224000B7B7B7B700B7B7B7B7B7B7B700B7B7B78C
:10225000B7B7B7B700B7B7B7B7B7B7B7D900B7B75A
:10226000B7B7B7B7D900B7B7B7B7B7B7D900B7B728
:10227000B7B7B7B7D900B7B7B7B7B7B719D900006D
:10228000B7B7B7B7D9D9D900B7B7B7B7D9D9D90080
:102290000000B7B7D919D900000000B7D9D9D9D9EA
:1022A000D9D900005B5BFFFF00005B5B5BFFFFFFBA
:1022B000FF00005BFFFFFFFFFFFF005B5BFFFFFF17
:1022C000FFFF00005BFFFFFFFFFF00005BFFFFFF62
:1022D000FF0000005BFFFFFFFFFF000000FFFFFFAC
:1022E000FFFF005B5B5B5B5B5B5B5B5B5B5B5BFFAD
:1022F000005B5B5B5B5BFFFFFF005B5B5BFFFFFF0C
:10230000FFFF005B00FFFFFFFFFF005B5BFFFFFFC6
:10231000FFFFFF005BFFFFFFFFFFFF005BFFFFFF13
:10232000FFFF00005B0000FFFFFFFFFF5B00D9D94C
:10233000D9D9D9D95B00D9D9D9D9D9D95B00D9D9BB
:10234000D9D9D9D95B0000FFFFFFFFFF5B00D9D9C6
:10235000D9D9D9D95B00D9D9D9D9D9D95B00D9D99B
:10236000D9D9D9D9FFFFFFFFFFFF5B00D9D9D9D950
:10237000D9D95B00D9D9D9D9D9D95B00D9D9D9D97B
:10238000D9D95B00FFFFFFFFFFFF5B00D9D9D9D987
:10239000D9D95B00D9D9D9D9D9D95B00D9D9D9D95B
:1023A000D9D95B00FFFFFFFFFFFFFF5BFFFFFFFFD0
:1023B000FFFFFF5BFFFFFFFFFFFF005B5BFFFFFF18
:1023C000FFFF000000FFFFFFFFFF0000FFFFFFFF18
:1023D000FFFF000000FFFFFFFF00005B00FF0000A9
:1023E000FFFF005BFFFFFFFFFFFF005BFFFFFFFF43
:1023F000FF00005BFFFFFFFFFF00005B5BFFFFFFD5
:10240000FFFF000000FFFFFFFFFFFF005B5B00001E
:10241000FFFFFF00FFFFFFFF00FF0000FFFFFF00C7
:1024200000FFFF00FFFFFFFF5BFFFFFFFFFFFFFF5E
:102430005BFFFFFFFFFFFF005BFFFFFFFFFFFF00F2
:102440005BFFFFFFFFFFFF005BFFFFFFFFFFFF00E2
:102450005BFFFFFF00FF00005BFFFFFF5B00000072
:102460005BFFFFFF0000005BFFFF0000FFFF005B62
:10247000FFFFFF00FFFF005BFFFFFF00FFFF005BB0
:10248000FFFFFFFFFFFF005BFFFFFFFFFFFF005BA2
:10249000FFFFFFFFFFFF00005BFFFFFFFFFF0000EC
:1024A000005BFFFF5B5B5B0000FFFFFF5B5B5B5B59
:1024B00000FF00FF5B5B5B5B5B0000005B5B5B5BEB
:1024C0005B5B5B5B5B5B5B5B5B5B5B5B5B5B5B5B5C
:1024D0005B5B5B5B5B5B5B5B5B5B5B5B5B5B5B5B4C
:1024E0005B5B5B5BFFFF0000005BFFFFFF0000002A
:1024F000005BFFFF00000000005BFFFF000000002A
:10250000005BFFFF5B5B5B5B005BFFFF5B5B5B5B41
:102510005B00FFFF5B5B5B5B5B00FFFF5B5B5B5B31
:102520005B5B000019191919191919D91900191922
:102530001900190019191919191919001919191956
:10254000191919001919191919191900191919192D
:10255000191919001919191919191900191919191D
:10256000191919001919191919191900191919190D
:1025700019191900191919191919190019191919FD
:102580001919190019191919191919001900191906
:10259000190019001919191919191900D900000081
:1025A000000000005B5B5B5B5B5B5B5B5B5B5B5BE7
:1025B0005B5B5B5B5B5B5B5B5B5B5B5B5B5B5B5B6B
:1025C0005B5B5B5B5B5B5B5B5B5B00005B5B5B5B11
:1025D0005B5BFF005B5B5B5B5BFFFF005B5B5B5B15
:1025E0005BFFFF005B5B5B5B5B5B5B5B5B5B5B5B4E
:1025F0005B5B5B5B5B5B5B5B5B5B5B5B5B5B5B5B2B
:102600005B5B5B5B5B5B5B5B5B5B5B5B5B5B5B5B1A
:102610005B5B5B5BFF5B5B5B5B5B5B5BFFFF0000D4
:10262000005B5B5B5B5B5B0000FFFF005B5BFFFFD6
:1026300000FFFF005BFFFFFFFFFFFF005BFFFFFFEF
:1026400000FFFF005BFFFFFF00FF00005BFFFFFFDD
:1026500000FF0000FFFFFFFFFFFF0000FFFFFFFF85
:10266000FFFF0000FF00FFFFFF005B5BFFFFFFFFBE
:10267000FF005B5BFFFFFFFFFFFF005B5BFFFFFFF8
:10268000FFFF005B5BFFFFFFFFFF005B5BFFFFFFE8
:10269000FF00005B5B0000FFFF00005B5B000000D1
:1026A000FF005B5BB7B7B7B7B7B7B7B7B7B7B7B7E1
:1026B000B7B7B7B7B7B7B7B7B7B7B7B7B7B7B7B7AA
:1026C000B7B7B7B7B7B7B7B7B7B7B7B7B7B7B7B79A
:1026D000B7B7B7B7B7B7B7B7B7B7B700B7B7B7B741
:1026E000B7B700D9B7B7B7B7B7B7B7D9B7B7B7B7ED
:1026F000B7B700D9B7B7B7B7B700D9D9B7B7B7B772
:10270000B700D919B7B7B7B7B700D9D9B7B700006D
:1027100000D9D9D9B7B7B70000D9D9D9000000D9A5
:10272000D9D9D919020200000000020201021112D7
:10273000020223243132020203041314020225266A
:10274000333402020506151602020506353602026A
:10275000070817180202072737380202090A191A50
:1027600002020B0C1B1C02020D0E1D1E02020F109A
:102770001F2002022829393A0202282A393B020284
:102780002D2E3E3F02022B2C3C3D02024041515275
:10279000020262637475020242435354020264658A
:1027A000767702024445555602026667787902023E
:1027B00046475758020268697A7B02024849595ACB
:1027C00002026A6B7C7D02024A4B5B0002026C6D66
:1027D0007E7F0202004C5C5D02026E6F808102010E
:1027E0004D4E02015E5F02027071828302024F5001
:1027F0006061020272738485FEFEFEFEFEFEFEFE36
:10280000FEFEFEFEFEFEFEFEFEFEFEFEFEFEFEFEE8
:10281000FEFEFEFEFEFEFEFEFEFEFEFEFEFEFEFED8
:10282000FEFEFEFEFEFEFEFEFEFEFEFEFEFEFEFEC8
:10283000FEFEFEFEFEFEFEFEFEFEFEFEFE3D3D3DFB
:10284000FEFEFEFE3D3D3D3DFEFE67FE3D1E1E1EA4
:10285000FEFE67FE1E1E1E1EFEFE67671E673D67AC
:10286000FEFE67671E671E67FEFEFE676767676797
:10287000FEFEFE3D3D67671E3D3D3DFEFEFEFEFE4B
:102880003D3D3D3DFEFEFEFE1E1E1E3DFE67FEFE64
:102890001E1E1E1EFE67FEFE673D671E6767FEFE6C
:1028A000671E671E6767FEFE67676767671EFEFE37
:1028B0001E67673D3D1EFEFEFEFEFEFEFEFE3D3D2A
:1028C000FEFEFE1E1E1E1E3DFEFE1E1E1E1E1E1EA9
:1028D000FEFEFE1E1E1E1E1E1EFEFE673D67671EBE
:1028E0001E6767671E67671E1EFEFE67676767676E
:1028F0001EFEFE676767673D3D3DFEFEFEFEFEFE77
:102900003D3D3D3DFEFEFEFE3D3D673D3D3DFEFE47
:102910001E67673D3D3D3DFE6767673D3DFE3DFEF1
:1029200067671E1E3DFEFEFE671E1E1EFEFEFEFEAD
:102930003D3D3DFEFEFEFEFEFEFEFE3D3D3D3D3DBF
:10294000FEFE3D3D3D3D3D3D67FE3D3D3D3D3D3D4A
:10295000673D3D3D3D3D3D3D671E3D3D3D3D3D3D72
:1029600067671E1E3D3D3D3DFE671E1E1E3D3D1E12
:10297000FE1E3D1E1E1E1E1E3DFEFEFEFEFEFEFE39
:102980003D3DFEFEFEFEFEFE3D3DFE67FEFEFEFE02
:102990003D3D3D67FEFEFEFE3D3D1E67FEFEFEFE2A
:1029A0001E1E6767FEFEFEFE1E1E67FEFEFEFEFE8C
:1029B0001E3D1EFEFEFEFEFEFEFEFEFEFE3D3D3DFB
:1029C000FEFEFE3D3D3D3D3DFE3D3D3D673D3D1E28
:1029D0003D3D3D3D67671E1E3DFE3D3D6767671EF1
:1029E000FEFE3D1E1E67671EFEFEFE1E1E1E676764
:1029F000FEFEFEFE3D3D3D3D3DFEFEFEFEFEFEFEBC
:102A00001E1E1E1EFEFEFEFE1E1E1E1E1EFEFEFEC6
:102A10001E1E1E1EFEFEFEFE67673D67FEFEFEFEDC
:102A200067671E676767FEFE67676767FE1EFEFED5
:102A300067676767FE1EFEFEFEFEFE1E1EFE3D3D34
:102A4000FEFE1E271E3D3D3DFE1E1E273D3D1E1E59
:102A50001E1E27273D1E1E1E1E1E27271E273D2722
:102A6000271E1E271E271E27FE271E1E3D27271E48
:102A7000FEFE271E3D3D271E3D3D3DFEFEFEFEFEA9
:102A80003D3D3D3DFEFEFEFE1E1E3D3D3DFEFEFE6D
:102A90001E1E1E3D3DFE27FE273D1E1E3D2727FE16
:102AA000271E271E3D27FEFE1E27272727FEFEFE88
:102AB0001E27271E1EFEFEFEFEFEFEFEFEFE3D3D06
:102AC000FEFEFE1E1E1E1E3DFEFE1E1E1E1E1E1EA7
:102AD000FEFEFE1E1E1E1E1EFEFEFE273D27271E9C
:102AE000FE2727271E27271EFEFEFE27272727272C
:102AF000FEFE27272727273D3D3DFEFEFEFEFEFE6C
:102B00003D3D3D3DFEFEFEFE3D3D273D3DFEFEFEC4
:102B10001E27273D3DFEFEFE2727273D3D3DFEFEAD
:102B200027271E1E3D3D3DFE271E1E1EFEFE3DFEAE
:102B30003D3D3D3DFEFEFEFEFEFEFE1E3D3D3D3D9D
:102B4000FE27FE3D3D3D3D3DFE271E3D3D3D3D3DBD
:102B5000FE27273D3D3D3D3DFE1E271E3D3D3D3DA3
:102B6000FE1E271E1E3D3D3DFE1E1E3D1E1E3D1E21
:102B7000FE1E1E3D3D1E1E1E3DFEFEFEFEFEFEFE18
:102B80003D3DFEFEFEFEFEFE3D3D3DFEFEFEFEFE2A
:102B90003D3D3DFE27FEFEFE3D3D1E2727FEFEFE7F
:102BA0001E1E1E27FEFEFE271E1E3D27FEFE271EA2
:102BB0001E3D1E1E1E271E1EFEFEFEFEFEFE3D3D8F
:102BC000FEFEFEFE3D3D3D3DFEFEFE3D3D273D3D04
:102BD000FEFEFE3D3D27271EFEFE3D3D3D272727ED
:102BE000FE3D3D3D1E1E2727FE3DFEFE1E1E1E27EE
:102BF000FEFEFEFE3D3D3D3D3D3DFEFEFEFEFEFE7B
:102C00003D1E1E1E1EFEFEFE1E1E1E1E1E1EFEFE65
:102C10001E1E1E1E1EFEFEFE1E27273D27FEFEFE5A
:102C20001E27271E272727FE2727272727FEFEFEEA
:102C30003D2727272727FEFEFE1E1E1E1E1E676736
:102C40001E1E671E1E1E1E3D1E6767671E1E671E18
:102C50001E1E671E1E1E673D1E1E671E1E1E671E51
:102C60001E1E1E1E1E1E673DFE67676767671EFEEF
:102C7000FEFEFEFE1E1E1EFE67673D3D1E1E1EFE64
:102C80003D3D3D3D671E1EFE1E3D3D6767671EFEC6
:102C90001E1E1E1E676767FE1E3D3D3D3D67FEFE14
:102CA0003D3D3D3DFEFEFEFEFE1E1E1EFEFEFEFEE8
:102CB000FEFEFEFEFEFEFEFE1E671E1E1E3D3D3D8E
:102CC0001E671E1E3D3D3D671EFE1E1E3D3D3D67AF
:102CD0001EFEFEFE1E3D3D3D1EFEFEFE1E1E1E1E77
:102CE000FEFEFEFE3D3D3D3DFEFEFEFEFEFEFE1EE8
:102CF000FEFEFEFEFEFE1E1E3D3D3D3D1EFEFEFE98
:102D000067673D1E1E1EFEFE67671E1E1E1EFEFE20
:102D100067671E1E1E1EFEFE3D3D1E1E3DFEFEFE84
:102D20003D3D3D3D3D3DFEFE1E1E1EFEFEFEFEFEE9
:102D30001E1E1EFEFEFEFEFE1E1E3D3D3D3D3D3D99
:102D40001E1E3D3D3D3D3D3DFE1E1E3D3D3D3D3D6E
:102D5000FE3D3D1E1E1E1E1EFE3D3D3D3D3D3D3DBC
:102D6000FE1E1E1E3D3D3D3DFE1E1E1E1EFEFE1E87
:102D7000FEFE1E1EFEFEFEFE3D1E1EFEFEFEFEFEB4
:102D80003D1E1E67FEFEFEFE3D1E1E67FEFEFEFE93
:102D90001E3D6767FEFEFEFE3D3D3DFEFEFEFEFE65
:102DA0003D1EFEFEFEFEFEFE1EFEFEFEFEFEFEFEC4
:102DB000FEFEFEFEFEFEFEFEFEFE3D1E1E3D3D67CD
:102DC000FEFE1E1E1E1E1E67FE3D1E1E1E1E1E67D2
:102DD000FE3D3D1E1E1E1E3D1E1E3D3D3D3D3D1E3B
:102DE0001E1E1E3D3D3D3D3DFE1E1E1EFEFEFEFE08
:102DF000FEFEFEFEFEFEFEFE67671E1E671EFEFE58
:102E000067673D1E671EFEFE673D3D1EFE1EFEFE01
:102E10003D3D1EFEFE1EFEFE1E1E1E3DFE1EFEFE55
:102E20003D3D3D1E1EFEFEFEFE1E1E1EFEFEFEFE65
:102E3000FEFEFEFEFEFEFEFEFEFEFE273D3D3D27A3
:102E4000FEFEFEFE1E3D3D3DFEFEFEFE3D1E3D1E07
:102E5000FEFEFEFE3D3D1E1EFEFEFE1E1E3D3D1EF6
:102E6000FEFE1E1E1EFE3D3DFEFEFEFEFEFEFEFEA4
:102E7000FEFEFEFEFEFEFEFE27271E1E1E1EFEFEA0
:102E80003D3D1E1E1E1EFEFE1E1E1E1E1E3DFEFE85
:102E90003D1E1E1E3D3DFEFE1E27271E3D3D1EFE05
:102EA0002727273D3D1E1E1E272727FE1E1E1E1EEE
:102EB000FEFEFEFEFEFEFEFEFEFE2727271E1E1E57
:102EC000FEFEFE27271E1E1EFEFEFEFE3D1E1E1ED1
:102ED000FEFEFE1E1E3D3D3DFEFEFE1E1E1E1E1E75
:102EE000FEFE1E1E3D3D3D3DFE1E1E1E1EFEFEFE46
:102EF000FEFEFEFEFEFEFEFE1E1E1E3D3DFEFEFE14
:102F00001E1E1E1E3DFEFEFE1E1E1E1E3D3DFEFE24
:102F10001E1E1E3D3D3D3DFE3D3D3D3D3D3D1E1EBB
:102F20003D3D3D3D3D1E1E1EFEFEFEFE1E1E1EFEC6
:102F3000FEFEFEFEFEFEFEFEFEFE1E3D3D3D3D3D56
:102F4000FEFE1E3D3D3D3D3DFEFE3D1E3D3D3D3DEB
:102F5000FE1E3D3D1E1E1E1E1E1E3D3D3D3D3D3DB9
:102F60001E1E1EFEFEFEFE3DFEFEFEFEFEFEFEFEE2
:102F7000FEFEFEFEFEFEFEFE3D3D1E1E271E1E1E2A
:102F80003D3D1E271E1E1E1E3D3D271E1E1E1EFEF3
:102F90001E1E1E271E1EFEFE3D3D3D3D27FEFEFE63
:102FA0003D3D3D1E1EFEFEFEFEFE1E1E1E1EFEFEC4
:102FB000FEFE1E1E1E1EFEFEFEFEFE3D3D1E1E1ED3
:102FC000FEFEFE3D1E1E1E1EFEFE3D3D1E1E1E1E64
:102FD000FE3D3D3D3D1E1E1E1E1E3D3D3D3D3D3DFB
:102FE0001E1E1E3D3D3D3D3DFE1E1E1EFEFEFEFE06
:102FF000FEFEFEFEFEFEFEFE1E1E1E272727FEFE16
:103000001E1E1E2727FEFEFE1E1E1E3DFEFEFEFE8F
:103010003D3D3D1E1EFEFEFE1E1E1E1E1EFEFEFE33
:103020003D3D3D3D1E1EFEFEFEFEFE1E1E1E1EFE04
:10303000FEFEFEFEFEFEFEFE005B5B0407071F3F7A
:10304000005B5B0407071F3F005B5B0407071F3F34
:10305000005B5B0407071F3F005B5B0407071F3F24
:10306000005B5B0407071F3F005B5B0407071F3F14
:10307000005B5B0407071F3F3F68E9E99195959561
:103080003F68E9E9919595953F68E9E991959595AE
:103090003F68E9E9919595953F68E9E9919595959E
:1030A0003F68E9E9919595953F68E9E9919595958E
:1030B0003F68E9E991959595FEFEFEFEFE3D3D3D9A
:1030C000FEFEFEFE3D3D3D3DFEFE67FE3D1E1E1E1C
:1030D000FEFE67FE1E1E1E1EFEFE67671E673D6724
:1030E000FEFE67671E671E67FEFEFE67676767670F
:1030F000FEFEFEFE3D67671E3D3D3DFEFEFEFEFE02
:103100003D3D3D3DFEFEFEFE1E1E1E3DFE67FEFEDB
:103110001E1E1E1EFE67FEFE673D671E6767FEFEE3
:10312000671E671E6767FEFE67676767671EFEFEAE
:103130001E67673D1E1EFEFEFEFEFEFEFEFEFEFE3E
:10314000FEFEFEFEFE3D3D3DFEFE1E1E1E1E3D3DE4
:10315000FE1E1E1E1E1E1E3DFEFE1E1E1E1E1E1ED0
:10316000FEFE673D67671E676767671E67671E67C6
:103170001EFE676767676767FEFEFEFEFEFEFEFED9
:103180003DFEFEFEFEFEFEFE3D3D3DFEFEFEFEFE63
:103190003D673D3D3DFEFEFE67673D3D3D3DFEFE1C
:1031A00067673D3DFE3DFEFE671E1E3DFEFEFEFEC8
:1031B0001E1E1EFEFEFEFEFE3DFEFEFEFEFEFEFE90
:1031C0001E1E1E1EFEFEFEFE1E1E1E1E1EFEFEFEFF
:1031D0001E1E1E1EFEFEFEFE67673D67FEFE1EFEF5
:1031E00067671E6767671EFE67676767FEFE1EFEEE
:1031F00067676767FEFE1EFEFE2727FEFEFE3D3D5B
:10320000FE272727FE3D1E1EFE1E1EFE3D1E1E1E05
:10321000FE1E1E271E273D27FE1E1E2727271E27B0
:10322000FEFE1E1E27272727FEFE1E1E1E27271E08
:10323000FEFE1E1E1E3D271E3D3D3DFEFEFEFEFE09
:103240003D3D3D3DFEFEFEFE1E1E1E3DFE27FEFEDA
:103250001E1E1E1EFE27FEFE273D271E2727FEFEE2
:10326000271E271E2727FEFE27272727271EFEFEAD
:103270001E27273D1E1EFEFE3D3DFEFEFE2727FEAD
:103280001E1E3DFE272727FE1E1E1E3DFE1E1EFE85
:10329000273D271E271E1EFE271E2727271E1EFE30
:1032A000272727271E1EFEFE1E27271E1E1EFEFE88
:1032B0001E273D1E1E1EFEFEFEFEFEFEFEFEFFFE45
:1032C000FEFEFEFEFEFEFEFEFEFEFEFEFFFEFEFE1D
:1032D000FEFEFFFEFEFEFEFEFEFEFEFEFEFEFFFF0B
:1032E000FEFEFEFFFEFEFEFEFEFEFFFEFEFEFEFEFC
:1032F000FEFEFEFEFFFEFFFEFEFFFEFEFEFEFEFEEB
:10330000FEFEFEFEFEFEFEFEFEFEFEFFFEFEFEFEDC
:10331000FEFEFEFEFEFFFEFEFFFFFEFEFEFEFEFECA
:10332000FEFEFEFEFFFEFEFEFEFEFEFEFEFFFEFEBB
:10333000FEFFFEFFFEFEFEFEFEFEFEFEFEFFFFFFA8
:10334000FEFEFEFEFFFFFFFFFEFEFFFFFFFFFFFF93
:10335000FEFFFFFFE0FFFFFFFEFFFFE0FFFFFFFFBD
:10336000FEFFFFE0FFFFFFFFFFFFFFE0FFFFFFFFAC
:10337000FFFFFFFFE0FFFFFFFFFFFFFEFEFEFEFE81
:10338000FFFFFFFFFEFEFEFEFFFFFFFFFFFFFEFE53
:10339000FFFFFFE0FFFFFFFEFFFFFFFFE0FFFFFE7D
:1033A000FFFFFFFFE0FFFFFEFFFFFFFFE0FFFFFF6C
:1033B000FFFFFFE0FFFFFFFFFFADAD5DA6A62FB74C
:1033C000FFADAD5DA6A62FB7FFADAD5DA6A62FB72D
:1033D000FFADAD5DA6A62FB7FFADAD5DA6A62FB71D
:1033E000FFADAD5DA6A62FB7FFADAD5DA6A62FB70D
:1033F000FFADAD5DA6A62FB7B735F4F4A3F6F6F68C
:10340000B735F4F4A3F6F6F6B735F4F4A3F6F6F60A
:10341000B735F4F4A3F6F6F6B735F4F4A3F6F6F6FA
:10342000B735F4F4A3F6F6F6B735F4F4A3F6F6F6EA
:10343000B735F4F4A3F6F6F6FEFE1E1E1E1E1E673A
:10344000FE1E1E671E1E1E1EFE1E6767671E1E676F
:10345000FE1E1E671E1E1E67FE1E1E671E1E1E67A8
:10346000FE1E1E1E1E1E1E67FEFE6767676767FE46
:10347000FEFEFEFEFEFEFEFE67673D3D3D67FEFE74
:103480003D3D3D3D3D67FEFE1E1E3D3D1EFEFEFEDA
:103490003D1E1E1E3DFEFEFE1E1E3D3D3DFEFEFE71
:1034A0003D3D3D1EFEFEFEFEFE1E1E1EFEFEFEFEFF
:1034B000FE1E1E1EFEFEFEFE1EFE676767673D3D8A
:1034C0001E671E1E6767673D1E671E3D6767671E96
:1034D0001EFE1E3D3D67671E1EFEFE1E3D3D3D1E3F
:1034E0001EFE3D1E1E1E1E3DFE1E1E3D3D3D3D3D63
:1034F000FEFE1E1E1EFEFEFE3D3DFEFEFEFEFEFE0E
:103500003D1E1E3DFEFEFEFE1E1E1E1EFEFEFEFE9D
:103510001E1E1E1E3DFEFEFE1E1E1E3D3DFEFEFE2E
:103520003D3D3D3D1E1EFEFE3D3D3D1E1E1EFEFE62
:10353000FEFE1E1E1EFEFEFEFE1E1E3D3D3D3D3DD0
:10354000671E1E3D3D3D3D3D671E1E3D3D3D3D3DD3
:1035500067673D1E1E1E1E1EFE3D3D3D3D3D3D3D21
:10356000FEFE1E3D3D3D3D3DFEFEFE1E1EFEFE1EC0
:10357000FEFEFEFEFEFEFEFE3D3D1E1EFEFEFEFEAD
:103580003D3D1E1EFEFEFEFE3D1E1EFEFEFEFEFE1E
:103590001E3D3DFEFEFEFEFE3D3D3DFEFEFEFEFEF0
:1035A0001E1E1EFEFEFEFEFE1E1E1EFEFEFEFEFE7B
:1035B0001E1EFEFEFEFEFEFEFEFE1E3D3D3D3D3D90
:1035C000FE1E1E1E3D676767FE1E1E1E1E67676786
:1035D000FE1E1E1E1E67673DFEFE3D1E1E3D3D1E5D
:1035E000FE3D3D3D3D3D3D3DFEFEFEFE1E1E1E1EC2
:1035F000FEFEFEFE1E1E1E1E3D3D1E1E1E671EFE04
:103600003D3D3D1E1E671EFE3D3D3D1E1EFE1EFE37
:103610003D3D1EFEFEFE1EFE1E1E1EFEFEFE1EFE8C
:103620003D3D3DFEFEFEFEFEFEFEFEFEFEFEFEFEFD
:103630001EFEFEFEFEFEFEFEFEFEFE1E3D3D3D3D6E
:10364000FEFEFE1E3D3D3D3DFEFEFE3D3D3D1E1E81
:10365000FEFEFE1E1E1E1E3DFEFEFE3D3D3D1E1ECE
:10366000FEFEFE3D3D3D3D3DFEFEFEFE1E1E1EFEDF
:10367000FEFEFEFE1E1E1EFE27273D3D3D27FEFED2
:103680003D3D3D3D3D27FEFE1E1E3D3D1EFEFEFE18
:103690003D1E1E1E3DFEFEFE1E1E3D3D3DFEFEFE6F
:1036A0003D3D3D1EFEFEFEFEFE1E1E1EFEFEFEFEFD
:1036B000FE1E1E1EFEFEFEFE3D3D3D3D1EFEFEFEAE
:1036C0003D3D3D3D1EFEFEFE1E1E3D3D3DFEFEFE01
:1036D0003D1E1E1E1EFEFEFE1E1E3D3D3DFEFEFE4E
:1036E0003D3D3D3D3DFEFEFEFE1E1E1EFEFEFEFE5F
:1036F000FE1E1E1EFEFEFEFEFFFEFEFEFEFEFEFE89
:10370000FEFEFEFEFFFEFEFFFEFEFFFEFEFEFEFED6
:10371000FEFEFEFEFEFEFEFFFEFEFFFEFEFEFEFEC7
:10372000FEFEFEFEFEFFFEFEFEFEFEFEFEFEFEFFB7
:10373000FEFEFEFEFEFFFFFEFEFEFEFEFEFEFEFFA6
:10374000FFFEFEFFFEFEFEFEFEFEFEFEFEFFFEFE96
:10375000FFFEFEFEFEFEFEFEFEFEFEFEFEFFFEFE87
:10376000FEFEFFFEFEFEFEFEFFFEFEFEFEFEFEFE77
:10377000FEFFFFFEFEFEFEFEFFFFFFFFFFFFFFFF5F
:10378000FFFFFFFFFFFFFFFFFEFFFFFFFFFFFFFF4A
:10379000FEFFE0FFFFE0FFFFFEFEE0FFFFE0E0FFD7
:1037A000FEFEE0FFFFFFE0E0FEFEFEE0FFFFFFFFAA
:1037B000FEFEFEFEFFFFFFFEFFFFFFFFFFFFFFFF1E
:1037C000FFFFFFFFFFFFFFFFFFFFFFFFFFFFFFFE0A
:1037D000FFFFE0FFFFE0FFFEFFE0E0FFFFE0FEFE97
:1037E000E0E0FFFFFFE0FEFEFFFFFFFFE0FEFEFE6A
:1037F000FEFFFFFFFEFEFEFEFEFE17FEFEFE17FEB4
:10380000FEFE17FEFEFEFE17FEFEFEFEFE17FE1774
:10381000FEFE27FEFE171717FEFEFE17FE171717F0
:10382000FE17FE1717FE1717FE171717172717177C
:1038300017FE171717171717FEFEFEFEFEFEFEFEF9
:10384000FEFE17FE27FEFEFE17FEFE17FE17FEFE0B
:103850001717FE17FE17FEFE17171717FEFEFEFEC0
:1038600017271717FE1727FE17172717171717FE03
:1038700027172717171717FEFEFEFEFEFEFEFEFE99
:10388000FEFEFEFEFE1717271717FE17172717173E
:10389000FE17171717171717FEFE171717172717F3
:1038A0001717171727171717FE171717FFFF1717E1
:1038B000FEFE17FFFF17FFFFFEFEFEFEFEFEFEFEF2
:1038C000271717FEFEFEFEFE1717271717FE1717FE
:1038D00017171717171717FE172717171717FEFEB3
:1038E00017171727171717171717FFFF171717FEA1
:1038F000FFFF17FFFF17FEFEFEFEFEFEFEFE17FE99
:10390000FEFEFEFEFEFE1717FEFEFE17FEFE17175A
:10391000FEFEFE17171717FFFE17FEFE17FFFFFF2D
:10392000FE1717FE17FF1717FE171717FF171717A2
:10393000FE171717FFFFFFFFFEFE17FEFE17FEFE26
:10394000FE1717FE1717FEFE1717171717FEFEFEB6
:10395000FF1717171717FEFEFFFF27171717FEFE93
:1039600017FF1717172717FEFF171727171717FE29
:10397000FF171717171727FEFEFEFEFEFEFEFEFEC0
:10398000FEFEFEFE17171717FEFEFEFEFE171717A8
:10399000FEFE1717FEFE1717FEFEFE171717FFFF96
:1039A000FEFEFE17FFFF17FF17171717FF1717FF6A
:1039B000FE1717FFFF1717FFFEFEFEFEFEFEFEFEC0
:1039C00017171717FEFEFEFE171717FEFEFEFEFE68
:1039D0001717FEFE1717FEFEFFFF171717FEFEFE56
:1039E000FF17FFFF17FEFEFEFF1717FF171717172A
:1039F000FF1717FFFF1717FEFE17FEFE17FEFEFE4E
:103A0000FE1717FE1717FE17FEFE171717171717C3
:103A1000FE1717171717FFFFFE17171727FFFFFFD0
:103A20001727171717FF1717171717271717FF1736
:103A3000271717171717FFFF17FEFEFEFEFEFEFEE5
:103A400017FEFEFEFEFEFEFE17FEFE17FEFEFEFE4B
:103A500017171717FEFEFEFEFFFF17FEFE17FEFEEE
:103A600017FF17FE1717FEFE1717FF171717FEFE93
:103A7000FFFFFF171717FEFEFEFEFEFEFE3D3D3D5B
:103A8000FEFEFEFEFE272727FEFEFEFEFE3D3D3D1E
:103A9000FEFEFE3DFE272727FEFEFE3D3D3D3D3D51
:103AA000FEFEFEFEFE1F1F1FFEFEFEFEFE1F1F1F70
:103AB000FEFEFEFEFE1F1F1FFEFEFEFEFEFEFEFEC3
:103AC000FEFEFEFEFEFEFEFEFEFEFEFEFEFEFEFE16
:103AD000FE3DFEFEFEFEFEFE3D3DFEFEFEFEFEFE49
:103AE000FEFEFEFEFEFEFEFEFEFEFEFEFEFEFEFEF6
:103AF000FEFEFEFEFEFEFEFEFE1FFEFEFEFEFEFEC5
:103B00001F1F1FFEFEFEFEFE1F1F1FFEFEFEFEFE0F
:103B10001F1F1FFEFEFEFEFE1F1F1FFEFEFEFEFEFF
:103B20001F1F1FFEFEFEFEFE1F1F1FFEFEFEFEFEEF
:103B30001F1F1FFEFEFEFEFEFEFEFEFE81FE81FE3C
:103B4000FEFEFE8181FEE081FEFE81818181E081B9
:103B5000FEFE818181818181FE81818181818181DE
:103B6000FE818181818181818181FE81FE818181CE
:103B700081FEFEFEFEFE81FEFE81FE81FEFEFEFE59
:103B800081E0FE8181FEFEFE81E081818181FEFE79
:103B9000818181818181FEFE81818181818181FE9E
:103BA00081818181818181FE818181FE81FE81818E
:103BB000FE81FEFEFEFEFE81FEFEFEFEFEFEFEFE1F
:103BC000FEFEFEFEFEFEFEFEFEFEFEFEFEFEFEFE15
:103BD000FEFEFEFFFEFEFEFEFEFEFEFEFEFEFEFF03
:103BE000FEFEFEFEFEFFFEE0FEFEFEFEFEFEFEFF11
:103BF000FEFEFEFEFFE0FFE0FEFEFEFEFEFEFEFE1F
:103C0000FEFEFEFEFEFEFEFEFEFEFEFEFEFEFEFED4
:103C1000FEFEFEFFFEFEFEFEFEFEFEFEFEFEFEFEC3
:103C2000FEFFFEFEFEFEFEFEFEFEFEFEFEFEFEFEB3
:103C3000FFE0FFFEFEFEFEFE17FE17171717271701
:103C400017171717172717271717171727272727A4
:103C5000FE1717272727FF27FE17172727FFFFFF26
:103C6000FEFE17172727FFFFFEFE17171727272728
:103C7000FEFEFEFE1717171727172727171717FE21
:103C8000272727272717FE17FF2727172717171775
:103C9000FF27FF2727171717FFFF2727171717FEDD
:103CA000FFFF2727171717FE272717171717FEFEDF
:103CB000171717FEFEFEFEFEFE1717FFFF1717FF72
:103CC00017171717FF1717FFFEFEFE17FFFF17FF47
:103CD000FEFEFE171717FFFFFEFE1717FEFE171753
:103CE000FEFEFEFEFE171717FEFEFEFE1717171745
:103CF000FEFEFEFEFEFEFEFEFF1717FFFF1717FE7D
:103D0000FF1717FF17171717FF17FFFF17FEFEFE06
:103D1000FFFF171717FEFEFE1717FEFE1717FEFE12
:103D2000171717FEFEFEFEFE17171717FEFEFEFE04
:103D3000FEFEFEFEFEFEFEFEFE171717FFFFFFFF54
:103D4000FE171717FF171717FE1717FE17FF17177E
:103D5000FE17FEFE17FFFFFFFEFEFE17171717FFE9
:103D6000FEFEFE17FEFE1717FEFEFEFEFEFE1717F6
:103D7000FEFEFEFEFEFE17FEFF171717171727FEA3
:103D8000FF171727171717FE17FF1717172717FE05
:103D9000FFFF27171717FEFEFF1717171717FEFE4F
:103DA0001717171717FEFEFEFE1717FE1717FEFE52
:103DB000FEFE17FEFE17FEFEFEFE17FFFF17FFFFBB
:103DC000FE171717FFFF17171717171727171717BC
:103DD000FEFE171717172717FE17171717171717AE
:103DE0001717FE1717271717FEFEFEFEFE171727D9
:103DF000FEFEFEFEFEFEFEFEFFFF17FFFF17FEFEAD
:103E00001717FFFF171717FE17171727171717177B
:103E1000172717171717FEFE17171717171717FE6D
:103E20001717271717FE1717271717FEFEFEFEFE98
:103E3000FEFEFEFEFEFEFEFE271717171717FFFFFA
:103E4000171717271717FF171727171717FF171712
:103E5000FE17171727FFFFFFFE1717171717FFFF8C
:103E6000FEFE171717171717FE1717FE1717FE175F
:103E7000FE17FEFE17FEFEFEFFFFFF171717FEFEE2
:103E80001717FF171717FEFE17FF17FE1717FEFE6F
:103E9000FFFF17FEFE17FEFE17171717FEFEFEFEAA
:103EA00017FEFE17FEFEFEFE17FEFEFEFEFEFEFEE7
:103EB00017FEFEFEFEFEFEFEFEFEFEFEFE1F1F1FA6
:103EC000FEFEFEFEFE1F1F1FFEFEFEFEFE1F1F1F4C
:103ED000FEFEFEFEFE1F1F1FFEFEFEFEFE1F1F1F3C
:103EE000FEFEFEFEFE1F1F1FFEFEFEFEFE1F1F1F2C
:103EF000FEFEFEFEFEFE1FFEFEFEFEFEFEFEFEFEC1
:103F0000FEFEFEFEFEFEFEFEFEFEFEFEFEFEFEFED1
:103F1000FEFEFEFEFEFE3D3DFEFEFEFEFEFE3DFE04
:103F2000FEFEFEFEFEFEFEFEFEFEFEFEFEFEFEFEB1
:103F3000FEFEFEFEFEFEFEFE1F1F1FFEFEFEFEFE3E
:103F40001F1F1FFEFEFEFEFE1F1F1FFEFEFEFEFECB
:103F50003D3D3D3D3DFEFEFE272727FE3DFEFEFE8C
:103F60003D3D3DFEFEFEFEFE272727FEFEFEFEFE39
:103F70003D3D3DFEFEFEFEFEFEFEFEFEFE8181FE9E
:103F8000FEFEFEFEFE81E081FEFEFEFE8181E081FE
:103F9000FEFEFEFE81818181FEFEFE8181818181A6
:103FA000FEFEFEFE818181FEFEFEFEFE8181FEFEA2
:103FB000FEFEFEFEFE81FEFEFE8181FEFEFEFEFE98
:103FC00081E081FEFEFEFEFE81E08181FEFEFEFEBE
:103FD00081818181FEFEFEFE8181818181FEFEFE66
:103FE000FE818181FEFEFEFEFEFE8181FEFEFEFE62
:103FF000FEFE81FEFEFEFEFEFEFEFEFEFFE0FFE098
:10400000FEFEFEFEFEFEFEFFFEFEFEFEFEFFFEE0EC
:10401000FEFEFEFEFEFEFEFFFEFEFEFFFEFEFEFEBE
:10402000FEFEFEFEFEFEFEFEFEFEFEFEFEFEFEFEB0
:10403000FEFEFEFEFEFEFEFEFFE0FFFEFEFEFEFEBC
:10404000FEFEFEFEFEFEFEFEFEFFFEFEFEFEFEFE8F
:10405000FEFEFEFEFEFEFEFEFEFEFEFFFEFEFEFE7F
:10406000FEFEFEFEFEFEFEFEFEFEFEFEFEFEFEFE70
:10407000FEFEFEFEFEFEFEFEFEFEFEFEFEFEFEFE60
:10408000FEFEFE27FE17FEFEFEFE17FE17FEFE17C3
:10409000FEFE17FE17FE1717FEFEFEFE1717171778
:1040A000FE2717FE17172717FE17171717271717BB
:1040B000FE17171717271727FE17FEFEFE17FEFE1F
:1040C00017FEFEFEFE17FEFE17FE17FEFEFEFEFEAC
:1040D000171717FEFE27FEFE171717FE17FEFEFE28
:1040E0001717FE1717FE17FE17172717171717FEB4
:1040F000171717171717FE17FEFEFEFEFE171727D6
:10410000FEFEFE171727171717171717171717177A
:10411000FE17171717172717FEFE1717271717175A
:1041200017171717FFFF1717FE1717FFFF17FFFFC8
:10413000FEFE17FFFF1717FF271717FEFEFEFEFEF6
:104140001717271717FEFEFE17171717171717173A
:1041500017271717171717FE171717271717FEFE1A
:104160001717FFFF17171717FFFF17FFFF1717FE88
:10417000FF1717FFFF17FEFEFEFEFEFEFEFEFEFE11
:10418000FEFEFEFEFEFE1717FEFEFEFEFEFEFE1704
:10419000FEFEFEFE1717171717FEFEFE1717FFFF8E
:1041A00017FEFEFEFE17FF171717171717FF171733
:1041B0001717171717FFFFFFFEFE17FEFE17FEFE6D
:1041C000FE1717FE1717FEFE171717171717FEFE15
:1041D000FFFF1717171717FEFFFFFF27171717FE09
:1041E0001717FF171717271717FF1717271717176F
:1041F000FFFF171717171727FEFEFEFE17171717D3
:10420000FEFEFEFEFEFE1717FEFEFEFEFEFE17176A
:10421000FEFEFEFEFEFE1717FEFEFE1717FE171728
:10422000FEFEFE171717FFFFFE17FE17FFFF17FF13
:10423000FE171717FF1717FF17171717FEFEFEFEBB
:104240001717FEFEFEFEFEFE1717FEFEFEFEFEFE2A
:104250001717FEFEFEFEFEFE1717FE1717FEFEFEE8
:10426000FFFF171717FEFEFEFF17FFFF17FE17FED3
:10427000FF1717FF171717FEFE17FEFE17FEFEFEAD
:10428000FE1717FE1717FE17FE1717171717171722
:104290001717171717FFFF1717171727FFFFFFFF2E
:1042A00027171717FF1717171717271717FF1717AE
:1042B0001717171717FFFFFFFEFEFEFEFEFEFEFE9E
:1042C00017FEFEFEFEFEFEFEFEFEFEFEFEFEFEFEF5
:1042D000171717FEFEFEFEFEFF1717FEFEFE17FE67
:1042E000FF17FEFEFEFE17FE17FF1717171717FE24
:1042F000FFFF1717171717FEFEFEFEFEFEFEFEFE5F
:10430000FEFEFEFEFEFEFEFEFEFEFEFEFEFEFEFECD
:10431000FEFEFEFEFEFEFEFEFEFEFEFEFEFEFEFEBD
:10432000FEFEFEFEFEFEFEFEFE1F1F1F1F1F1F1FC6
:104330001F1F1F1F1F1F1F1FFEFEFEFEFEFEFEFE95
:10434000FEFEFEFEFEFEFEFEFEFEFEFEFEFEFEFE8D
:10435000FEFEFEFEFEFEFEFEFEFEFE3D3DFEFEFEFF
:10436000FEFEFE3DFEFEFEFE1F1F1F3D273D273DBC
:104370001F1F1F3D273D273DFEFEFEFEFEFEFEFEEB
:10438000FEFEFEFEFEFEFEFEFEFEFEFEFEFEFEFE4D
:10439000FEFEFEFEFEFEFEFEFEFEFE3D3DFEFEFEBF
:1043A000FEFEFEFE3DFEFEFE3D273D273D1F1F1F7C
:1043B0003D273D273D1F1F1FFEFEFEFEFEFEFEFEAB
:1043C000FEFEFEFEFEFEFEFEFEFEFEFEFEFEFEFE0D
:1043D000FEFEFEFEFEFEFEFEFEFEFEFEFEFEFEFEFD
:1043E000FEFEFEFEFEFEFEFE1F1F1F1F1F1F1FFE06
:1043F0001F1F1F1F1F1F1F1FFEFEFEFEFE2727275A
:10440000FEFEFEFEFF27FF27FEFEFEFE27270027FB
:10441000FEFEFEFE27270027FEFEFEFE17FF2727D3
:10442000FEFEFE17FFFFFFFFFEFE1717FFFF000057
:10443000FE1717FFFF17FFFF272727FEFEFEFEFED2
:1044400027FF27FFFEFEFEFE27002727FEFEFEFEBB
:1044500027002727FEFEFEFE2727FF17FEFEFEFE93
:10446000FFFFFFFF17FEFEFE0000FFFF1717FEFE17
:10447000FFFF17FFFF1717FEFEFEFEFEFEFEFEFF0C
:10448000FEFFFEFEFEFEFEFEFEFEE0FEFEFEFEFF68
:10449000FEFEFEFFFEFEFEFFFEFEFEFEFFFEFEE057
:1044A000FEFEFEFEFEFFFEFFFEFEFEFEFEFEE0E066
:1044B000FFFEFFFFE0FFE0FFFEFEFEFEFEFEFEFE53
:1044C000FEFEFEFEFEFFFEFEFEFEFEFEE0FEFEFE29
:1044D000FEFEFEFFFEFEFEFEFEFEFFFEFEFEFEFEFA
:1044E000FEFFFEFEFEFEFEFEE0FEFEFEFEFEFEFE09
:1044F000E0FFE0FFFFFEFFFEFE1717172727172735
:1045000017FE1727272727271717172717272700EB
:104510001717172727FF2700FE1717172727000051
:10452000FE17171727270000FEFE17171717272754
:10453000FEFEFEFEFE171717172717171717FE1791
:10454000271727171717171727272727171717179B
:1045500027002727271717FE00000027271717FE19
:10456000000027271717FEFE272727171717FEFE1D
:1045700017171717FEFEFEFEFE171717FF1717FF78
:10458000FE17FE17FFFF17FFFEFEFE171717FFFFB0
:10459000FEFEFE1717FE1717FEFEFEFEFEFE1717A5
:1045A000FEFEFEFEFEFE1717FEFEFEFEFEFE1717C7
:1045B000FEFEFEFE17171717FF1717FF171717FE38
:1045C000FF17FFFF17FE17FEFFFF171717FEFEFE70
:1045D0001717FE1717FEFEFE1717FEFEFEFEFEFE65
:1045E0001717FEFEFEFEFEFE1717FEFEFEFEFEFE87
:1045F00017171717FEFEFEFE1717171717FFFFFFF7
:104600001717171717FF171717FEFEFEFE17FF17CE
:1046100017FEFEFE1717FFFFFEFEFEFE1717171709
:10462000FEFEFEFEFEFEFE17FEFEFEFEFEFE17175F
:10463000FEFEFEFEFEFEFEFEFFFF171717171727F2
:1046400017FF1717271717171717FF17171727170A
:10465000FFFFFF27171717FEFFFF1717171717FE84
:10466000171717171717FEFEFE1717FE1717FEFE70
:10467000FEFE17FEFE17FEFEFEFE17FFFF1717FFDA
:10468000FE1717FFFF17FFFF17171717FFFF171763
:10469000FEFE171727171717FE17171717172717D5
:1046A0001717171717171717FEFEFE1717271717D5
:1046B000FEFEFEFEFE171727FF1717FFFF17FEFE71
:1046C000FFFF17FFFF1717FE1717FFFF1717171723
:1046D000171717271717FEFE17271717171717FE95
:1046E00017171717171717171717271717FEFEFE95
:1046F000271717FEFEFEFEFE1717171717FFFFFFFF
:104700001717271717FF171727171717FF17171749
:1047100017171727FFFFFFFF1717171717FFFF17A9
:10472000FE17171717171717FE1717FE1717FE177D
:10473000FE17FEFE17FEFEFEFFFF1717171717FEE8
:1047400017FF1717171717FEFF17FEFEFEFE17FEBF
:10475000FF1717FEFEFE17FE171717FEFEFEFEFEE2
:10476000FEFEFEFEFEFEFEFE17FEFEFEFEFEFEFE50
:10477000FEFEFEFEFEFEFEFEFE1F1F1F1F1F1F1F72
:10478000FEFEFEFEFEFEFEFEFEFEFEFEFEFEFEFE49
:10479000FEFEFEFEFEFEFEFEFEFEFEFEFEFEFEFE39
:1047A000FEFEFEFEFEFEFEFEFEFEFEFEFEFEFEFE29
:1047B000FEFEFEFEFEFEFEFE1F1F1F3D273D273DA7
:1047C000FEFEFE3DFEFEFEFEFEFEFE3D3DFEFEFE4C
:1047D000FEFEFEFEFEFEFEFEFEFEFEFEFEFEFEFEF9
:1047E000FEFEFEFEFEFEFEFEFEFEFEFEFEFEFEFEE9
:1047F000FEFEFEFEFEFEFEFE3D273D273D1F1F1F67
:10480000FEFEFEFE3DFEFEFEFEFEFE3D3DFEFEFE0B
:10481000FEFEFEFEFEFEFEFEFEFEFEFEFEFEFEFEB8
:10482000FEFEFEFEFEFEFEFEFEFEFEFEFEFEFEFEA8
:10483000FEFEFEFEFEFEFEFE1F1F1F1F1F1F1FFEB1
:10484000FEFEFEFEFEFEFEFEFEFEFEFEFEFEFEFE88
:10485000FEFEFEFEFEFEFEFEFEFEFEFEFEFEFEFE78
:10486000FEFEFEFEFEFEFEFEFEFEFEFEFEFEFEFE68
:10487000FEFEFEFEFEFEFEFE271717FF1717FFFFC8
:10488000271717171717FFFF27171717FE1717FFF9
:10489000FE171717FE171717FE171717FE1717170C
:1048A000FEFE17FE17171717FEFEFEFE1717171747
:1048B000FEFEFE1717272717FFFF1717FF171727EB
:1048C000FFFF171717171727FF1717FE17171727B9
:1048D000171717FE171717FE171717FE171717FECC
:1048E00017171717FE17FEFE17171717FEFEFEFE07
:1048F0001727271717FEFEFEFFFEFFFFE0FFE0FF72
:10490000FEFEFEFEFEFEE0E0FEFEFEFEFEFFFEFF01
:10491000FEFEFEFEFFFEFEE0FEFEFEFFFEFEFEFFD2
:10492000FEFEE0FEFEFEFEFFFEFFFEFEFEFEFEFEC3
:10493000FEFEFEFEFEFEFEFFE0FFE0FFFFFEFFFECE
:10494000E0FEFEFEFEFEFEFEFEFFFEFEFEFEFEFEA4
:10495000FEFEFFFEFEFEFEFEFEFEFEFFFEFEFEFE75
:10496000FEFEFEFEE0FEFEFEFEFEFEFEFEFFFEFE84
:10497000FEFEFEFEFEFEFEFE000810182028303867
:10498000404850586068707801091119212931395F
:104990004149515961697179020A121A222A323A3F
:1049A000424A525A626A727A030B131B232B333B1F
:1049B000434B535B636B737B040C141C242C343CFF
:1049C000444C545C646C747C050D151D252D353DDF
:1049D000454D555D656D757D060E161E262E363EBF
:1049E000464E565E666E767E070F171F272F373F9F
:1049F000474F575F676F777F5870782000597078FE
:104A00002000582F332000592F3320006D6170583B
:104A10003D006D6170593D006D756C743D005344EF
:104A20002074657374206661696C65642100506F41
:104A3000776572206379636C652074686520557AA8
:104A400065626F782E004D61702074657374696EB5
:104A500067206D6F64653A0050726573732053452B
:104A60004C45435420746F20656E64006D583D00C2
:104A70006D593D006D756C3D004C6F61642E2E00CC
:104A8000446F6E652E2E00543A0050726573732089
:104A900027422720666F72206E65787420706167E8
:104AA0006500416C6C2074696C6573206861766583
:104AB000206265656E20646973706C61796564005D
:104AC00011241FBECFEFD0E1DEBFCDBF15E0A0E0C7
:104AD000B5E0EEE4FAE802C005900D92AA35B10700
:104AE000D9F712E1A0E6B5E001C01D92A83EB107DA
:104AF000E1F714BE88E10FB6F8948093600010923D
:104B000060000FBE0E942E2A811102C00E940C2A52
:104B1000F89481E0809316128093171280931512F7
:104B2000109202121092081210920E121092141289
:104B300010921A121092DA111092DC1192E19093F5
:104B4000DB1198ED9093E4119093E21190E2909331
:104B5000E3119093E1111092E8111092E711109275
:104B6000EC111092EB11809301120E940B3680E938
:104B700090E0FC0125913491F901FF2730830296E2
:104B800020E08E3B9207A9F778940E940A360E9493
:104B9000A1430C9425450C9400000CE00A95F1F714
:104BA000E2E6F1E1C0E6D5E02091A9120027A0815C
:104BB000B181AC0FBD1F1C911283021708F4102F96
:104BC0001C9333960395033290F30AE116E01A958D
:104BD000F1F70A95D9F72090D7113090D8110091AC
:104BE000D3111091D411680138018BE1C0E6D5E0F2
:104BF0004E0100243091D611303009F0CAE809F096
:104C0000D8E009F0832F09F0610108EDA02E662796
:104C100078E07DD23CE03A95F1F7000000000E9478
:104C200040263FE03A95F1F700000000AA94A9F071
:104C30006395C895683031F033E03A95F1F700009C
:104C40000000E7CF662700243EE1C30FD01D8A9500
:104C500009F4E40109F46301DCCF36E03A95F1F799
:104C600056D211240E948034E091DC1142E0E160D0
:104C7000E427E093DC11E2E0E0933600112408958C
:104C8000DE01679F8601005C1840000D111D1801B0
:104C900002EA18E0000D111D280130E41EE12D91FB
:104CA000239FA101233208F4A201040E151EF00176
:104CB0002332F0F0059108B92D91059108B9239F91
:104CC000059108B923320000059108B908F4A20142
:104CD000059108B9040E151E059108B923321A95DD
:104CE000059108B9059131F1F00108B918F700C034
:104CF000019108B92D910191000008B9239F0191FC
:104D0000000008B9233200C0019108B908F0A101E0
:104D10000191040E08B9151E00C0019108B9233293
:104D200000C0019108B901911A9521F0F00108B96C
:104D300008F6DECF08B90027C895000008B9089525
:104D400020E4E091D311F091D4118352829FE00DC1
:104D5000F11DA2EAB8E0629FA00DB11D00240590EC
:104D60000D9205900D9205900D9205900D92059073
:104D70000D9205900D9205900D9205900D92059063
:104D80000D9205900D9205900D9205900D92059053
:104D90000D9205900D9205900D9205900D92059043
:104DA0000D9205900D9205900D9205900D92059033
:104DB0000D9205900D9205900D9205900D92059023
:104DC0000D9205900D9205900D9205900D92059013
:104DD0000D9205900D9205900D9205900D92059003
:104DE0000D9205900D9205900D9205900D920590F3
:104DF0000D9205900D9205900D9205900D920590E3
:104E00000D9205900D9205900D9205900D920590D2
:104E10000D9205900D9205900D9205900D920590C2
:104E20000D9205900D9205900D9205900D920590B2
:104E30000D9205900D9205900D9205900D920590A2
:104E40000D9205900D9205900D9205900D92059092
:104E50000D9205900D9205900D9205900D921124E2
:104E600008950F931F93CF93DF9394E0899FEAE80F
:104E7000F8E0E00DF11D03818281E0E48E9FD00116
:104E800098E0099FCBECD1E10024C10DD01DE88151
:104E9000F981EA0FFB1FA2EAB8E090E4699FA00D38
:104EA000B11D1124DD27403051F4A20FB11D822F16
:104EB000C22F00FF11C03796C0E1C21B0DC088E0B1
:104EC000821B00FD04C0C82FE80FF11D05C0C8E01B
:104ED000C20FE20FF11D3197503041F498E0939FDB
:104EE000A00DB11D932F01FDF8960AC098E0931B09
:104EF000632F6A9501FF692F58E0569FE00DF11D61
:104F00006FEF7FEF00FF61E000FF772701FD609703
:104F100011243EEF58E0591B48E0481B249123130D
:104F20002C931196E60FF71F4A95C1F7EC0FFD1F62
:104F3000A80FB11D5A9581F7DF91CF911F910F9165
:104F400008950F921F92EF93FF93EFB7EF93E091C5
:104F50008400E251F1E0EF1700F0F395FA30D8F356
:104F60000C94B227E091DB11EA95E093DB11F0910C
:104F7000DA11F0FD57C0EC3098F0F3E0F0938900BF
:104F8000FDE8F0938800E0FB289826F4E1E00E9419
:104F90009828B6C0E5E1EA95F1F70000289AB0C07C
:104FA000E63038F100C000C02898E0FBE4E016F4D9
:104FB0000E949828E4E0E0933600E6E0E0936F007A
:104FC0009FC0EF93EFB7EF93E0918400ED55E13090
:104FD00000F0E23000F0E33000F0E43000F0E530C3
:104FE00000F0289AE2E0E0936F00EF91EFBFEF91BD
:104FF000189500C0E0FB289826F4E1E00E9498286C
:1050000005C0E5E1EA95F1F70000289AE091DB118F
:10501000E03009F075C0EDEFE093DB11E1E0E093E3
:10502000DA116EC0E7E0E0938900EBE1E0938800DD
:1050300000C02898E2E000C00E949828FDEF009090
:10504000E111F019E091DB11EF17D0F4FDEF0090C2
:10505000E111F0190090E211F019EF1788F0EDE17D
:10506000FF2700800F92EA95E1F706E00A95F1F735
:105070000E94CD25E1E0FF270F900192EE31E0F391
:10508000E091DB11E03009F03BC02F933F934F9349
:105090005F936F937F938F939F93AF93BF93789416
:1050A0001124EE27E093DA11E2E1E093DB11F091B5
:1050B000E311F093E111F091E411F093E211E0912A
:1050C000DD11F091DE11E115F10509F009950E945D
:1050D000FC290E9419360E9492281124E091DF11C8
:1050E000F091E011E115F10509F00995BF91AF913B
:1050F0009F918F917F916F915F914F913F912F91F0
:10510000EF91EFBFFF91EF911F900F9018952898A6
:10511000E2E000C00E949828E091DB11EA95E0935C
:10512000DB110895E0910112E0FD0E94D12A08955B
:105130000F931F932F93CF93DF932E2F0091031282
:1051400010910512100F00910412E0910612F091D7
:105150000712E01F0491E0930612109305121091BC
:10516000021201030008C12DD02D00000091091288
:1051700010910B12100F00910A12E0910C12F09195
:105180000D12E01F0491E0930C1210930B1210917A
:10519000081220FD289A20FF00C001030024000807
:1051A000C10DD01D00910F1210911112100F00911E
:1051B0001012E0911212F0911312E01F0491E0938B
:1051C00012121093111210910E1201030008C10D5A
:1051D000D01D0091161210911712E0911812EA9545
:1051E00092F4F0911512EF2FE695002E069400260A
:1051F00000FA1695079516F9F0FF06F900931612B6
:105200001093171203C016E01A95F1F7E0931812E5
:1052100010E821FD289A21FF00C000FD1FE7009142
:10522000141210030008C10DD01D00911D12109121
:105230001B12010F00931D12E0911E1210911C12FF
:10524000E11FF0911F1200E0F01F8F01009020126B
:1052500010902112001911090090221210902312AF
:10526000E015F10508F0F801E0931E12F0931F120B
:10527000049110911A1201030008C10DD01D0024E1
:10528000C038D0050CF0CFE70A94C038D0050CF434
:10529000C0E8C058C093B300DF91CF912F911F9108
:1052A0000F9108958093CB119093CC110895EAE269
:1052B000F3E0A0E6B5E063E26D933197E9F71124DE
:1052C00008955091D511450F00C0992777272EE1F9
:1052D000629F080E191EA0E6B5E0A00DB11D4D5D40
:1052E0004C93112408958093D51108958093D31180
:1052F0009093D4110895992777272EE1629F080E85
:10530000191EA0E6B5E0A00DB11D8C91835299271E
:10531000112408958091DC11817008952091DC1191
:105320002E7F2093DC110895882329F48091E511C4
:105330009091E61108958091E9119091EA110895F4
:1053400078E07A95F1F700000197D1F70895F9997F
:10535000FECF92BD81BD60BDF894FA9AF99A789417
:105360000895F999FECF92BD81BDF894F89A80B561
:105370007894089528E088E190E00FB6F894A89515
:10538000809360000FBE20936000FFCF129AC895F3
:10539000C895C895C895129840E180E090E020E05B
:1053A00030E03695279596958795C895C895C89508
:1053B000C8951398009B3068019B9068139AC89514
:1053C000C895C895C895415061F73093E611209370
:1053D000E5119093EA118093E9118091E511909184
:1053E000E6110F9731F08091E9119091EA110F9732
:1053F00011F40E94BA29089510922812009903C04E
:1054000081E080932812019905C080912812826062
:10541000809328120C94C629CF93DF93C0E0D0E08C
:10542000FE01E059FF4F6491CE010E94A729219609
:10543000C032D105A9F7C0E2D0E06FEFCE010E94E3
:10544000A7296FEFCE0101960E94A729A096C1154A
:1054500088E0D80791F7DF91CF910895CF9380E04E
:1054600090E00E94B129C82F81E090E00E94B1290C
:10547000282F30E0322F22272C0F311D81E02A35D2
:10548000354509F080E0CF910895FC0145870895E6
:1054900081E091E0909317128093161240931512B9
:1054A0000895862F642F0C94EA2DFC01862F91819C
:1054B000490F4183642F0C94D32DFC01862F618109
:1054C000641B61830C94D32DFC0120812F752083F4
:1054D0000895FC012081206420830895FC01448705
:1054E00008950F931F93CF93DF931F92CDB7DEB72D
:1054F0008C01862F642F49830E94D32D4981F801A6
:1055000041838081877F80830F90DF91CF911F91AE
:105510000F910895FC0147830895FC014087089589
:105520001F93CF93DF93EC01162F298130E0C9013F
:10553000880F991F885F924AFC0165917491F90167
:10554000E40FF11D47FDFA95EE0FFF1FE85FF24AE9
:1055500085919491861B970B6091301270E00E94A8
:10556000EF446115710511F461E070E086E0189F69
:10557000F0011124EE5FFD4E21813281260F371F8D
:10558000328321837B836A838881886088838981D1
:10559000840F8C83DF91CF911F9108954093301237
:1055A00008959F92AF92BF92CF92DF92EF92FF92B7
:1055B0000F931F93CF93DF93A3E0B2E1CBE2D2E14D
:1055C00020E030E0F901E55DFD4E8585882389F016
:1055D0004485992787FD9095840F911D8F3F9105F4
:1055E00019F014F08FEF90E097FF02C080E090E098
:1055F0008487188113FF23C06A817B818D919C91E0
:105600001197860F971F11969C938E93E481F0E07B
:10561000EE0FFF1FE85FF24A4591549116161706E8
:1056200024F48417950730F40AC0672B41F048171B
:10563000590728F011965C934E93177F18832A5EC2
:105640003F4F669616962E36310509F0BBCF8091F6
:105650000012882309F4C6C0C6E180919912909186
:105660009A1220919F123091A0128217930709F08D
:10567000B4C02091A2123091A312B9016F5F7F4F85
:105680007093A3126093A212F90144914F3F69F500
:10569000A9014E5F5F4F5093A3124093A212FB01EA
:1056A00064916F3219F41092001297C0663009F0BD
:1056B00087C0C90104969093A3128093A212F901A6
:1056C00033962491233529F49093A5128093A41244
:1056D00077C0253409F074C08091A4129091A5126E
:1056E0009093A3128093A2126BC047FD40939D122A
:1056F00090919D12892F8F7047FF08C02E5F3F4FFA
:105700003093A3122093A212FB014491907F903B0F
:10571000E9F0903C09F44EC0903909F051C0E09195
:10572000A212F091A3129F012F5F3F4F3093A3125B
:105730002093A2122491220FC89FD0011124A55DAD
:10574000BD4E1E966C910E949B2D3AC0E091A21214
:10575000F091A3129F012F5F3F4F3093A31220932C
:10576000A2129491473041F4C89FF0011124E55DE5
:10577000FD4E990F928724C04B3041F4C89FF00131
:105780001124E55DFD4E990F91871AC04C3541F407
:10579000C89FF0011124E55DFD4E990F978310C05D
:1057A000443671F4C89FF0011124E55DFD4E990F58
:1057B000908706C0C89FF0011124E55DFD4E468725
:1057C00082EA92E10E94E22C9093A01280939F12B1
:1057D00010929A121092991240CF019690939A12B9
:1057E00080939912B2E0CB2EB2E1DB2ECBE2D2E174
:1057F000E12CF12C912CAA24AA94B12C888186FD4D
:105800004DC08C899D898701055D1D4E892B09F44A
:105810003EC0D80152969C91529751968C91981700
:1058200008F435C0F80192898189981330C0EC8959
:10583000FD89AF014F5F5F4F5D8B4C8B24912F3FF4
:1058400031F488818F7788831D8A1C8A20C0CF011C
:1058500002969D8B8C8BFA014491E22FF0E0EE0FC3
:10586000FF1FE254FF4F25913491692DCE01F901BC
:105870000995EC89FD89CF0101969D8B8C8BE49174
:10588000D8015196EC93519752961C92CBCFD801E8
:1058900052968C9152978F5F52968C93888185FF98
:1058A00074C0D701A55DBD4E53969C9153979F3F01
:1058B00021F09F5F53969C93539787FD04C01A96DF
:1058C0008C911A9701C08FEF1B962C911B971696FF
:1058D0006C911697222309F44FC01C965C911C977B
:1058E000552309F449C0882309F446C040919E120B
:1058F000442309F441C0289F900111243395232F9C
:105900003327529FC001539F900D11249395892FE7
:10591000992719965C911997589F9001599F300DBE
:1059200011243395232F3327429FC001439F900DAD
:1059300011249395892F992717962C911797222335
:10594000E9F0E62FF0E0E050F14AE491E0582E9FB4
:10595000F0011124F395EF2FFF27A5014E1B5F0BDC
:10596000489F9001499F300D589F300D1124C90167
:105970009395892F992702C080E090E018962C918A
:105980001897260F16962C9302C080E090E0F6013F
:1059900080839394F6E1EF0EF11C669686E0C80EC4
:1059A000D11CAEE6EA16F10409F028CFDF91CF91C1
:1059B0001F910F91FF90EF90DF90CF90BF90AF902D
:1059C0009F900895DC01ED91FC9111979F012F5F4D
:1059D0003F4F11963C932E93849187FD02C090E037
:1059E00008958F7790E0F9019695982F88279795DD
:1059F00087959F012F5F3F4FE4914E2F4F77840F84
:105A0000911DE7FDF0CF2D933C930895EF92FF9207
:105A10000F931F93CF93DF9300D0CDB7DEB7982FAE
:105A2000062F36E1839F70011124B701655D7D4E1D
:105A30007B01FB018081182F111F1127111F128A72
:105A400015863FEF34874387138A877B8062808384
:105A5000178231872183933069F4111101C0022F1D
:105A600081E091E0909317128093161281E0809369
:105A7000151239C0943059F510921D1280919B1265
:105A800090919C12F9E00F9F800D911D1124FC0153
:105A90003196A591B491B0931F12A0931E12FC01F0
:105AA0003796459154910596FC0185919491BA01E0
:105AB000681B790B70932112609320124A0F5B1FB1
:105AC0005093231240932212622F84E00AC060E0B8
:105AD000892F2A8399830E94EA2D2A81622F998136
