:100000000C94C1530C9422540C9422540C942254FA
:100010000C9422540C9422540C9422540C94225488
:100020000C9422540C9422540C9422540C94225478
:100030000C9422540C9480540C94C0540C9422546C
:100040000C9422540C9422540C9422540C94225458
:100050000C9422540C9422540C9422540C94225448
:100060000C9422540C9422540C9422540C94225438
:100070005A5501200101003808000000000000006E
:100080000000000000000000000000000000000070
:100090008100450027FF24FF2A902B1C210C22FB06
:1000A000850084008903888D81096F0244424700DE
:1000B0004501B083B300B10125118A4F8B03385736
:1000C0003B574457495752575A575F5764576757DA
:1000D00079577C577F57C35700408891D2E4ADB51C
:1000E000B6BEBFFF000202020502020202020002C7
:1000F000000502000002000000FA0000020000FDFE
:10010000020002FD020200FD02FD0500FD000200EA
:10011000000202020200FA0002FA000000FDFD00E7
:10012000000502050805050202020200FD0200FAB0
:1001300000000200001605FD0202FDFD080EFD088C
:1001400010F1001302FA0800FD02FD0002FA0E028F
:10015000FA02FDF70B0002F7080805F1000016028D
:10016000FA10FAFD0502FD021C0B0E0BE9FA080558
:1001700000FA00FD1FEF050B0016F708F70202005A
:100180000805F7020205FD02F702FD02FD0E0EFA58
:10019000050005F4F10BFA050019EF0208F10BEF69
:1001A000F4FD05FD00000019000B0008020510FA1F
:1001B00005FD02000B0B00020505FA050200FD001B
:1001C000E308FD0B00050B05FA13FDF7020005001F
:1001D000FDFD0EEFF705FD0500000005F7FA05052A
:1001E000F10B10FA05F70EFAFA0202FD0805FD05FB
:1001F0000205FD05020B02020200000200000508D4
:10020000FA020500FD0502FD020200050200FD00E4
:10021000FDFA050005FD02000200FD00050200FDDB
:10022000000E02020008000B0E000008000502008C
:1002300000FA0202FAFD02F4000500FD00FD0B10B9
:10024000F7020002FA08F70E0205FDFD0000FA00B1
:1002500000000013050810FD0B08020500FD00FD5D
:10026000FDFA00FDFA05FD0002000502000500FD93
:1002700005FD00F70502020002FA080B00FD05F477
:10028000F1FAF10000020E10020E08101616080016
:1002900000F7ECFDECF400FA0202FD100E00100570
:1002A000020202F702000000FDFA020E0BFD080236
:1002B000CDE9F4E3051CF72D19FD192102351000D5
:1002C00016F7EFFDDEE905F70205FD050B00161038
:1002D000080202020000FA00FDFD021C08FD1CE9F4
:1002E000DEF1DEDB16FA191900082F00382F161977
:1002F00005E3FADBD8FDF4FDFD02FD1008161C191C
:10030000130002FDFD00FAFAFD002108FD0BE0E0FC
:10031000F4D2E91CF72A10051F130E32191613FD2B
:10032000E9F4E3E6F700F702FAFD02081C212113C5
:100330000502FA00FD000002131CF708EFCDECDB0C
:10034000E305FD0E270B19211F213B160805E0F1DF
:10035000E3E3F1FDF705ECF4000510271F27190072
:1003600002FA02FDFDFA051005FDFDDEDEDBE3EC21
:10037000050219161924212424381916FDF4E3E680
:10038000E3F7FAF100E3F7FA0B1F2D21211602051E
:1003900000FDFD00FD020B02FA00EFE6DBECE6FDDE
:1003A000FD130B10161F3532432116F102E0F7E062
:1003B000EFF7F4FDEC00FD101627132416050800D6
:1003C000FD02FDFD00101600FDDEE0D2ECEF00FDA9
:1003D0001F050E1F272F324E0521F7E6D8EFE90043
:1003E000FAE9F4EFFD02431C3508130B0205000087
:1003F0000000F41C3E1FE0EFB3A8DBECF7320E2741
:100400003E214C511F0EF1B6D2CDE6FD08082A1050
:100410002A2AFAF1E6C7F702021313021608000EA1
:100420000210FA5334B3DC8292E007FA47122F5AD3
:10043000252F3AF5F2F5B2ED00F225201D553AFAD6
:1004400002B7BAE2F20D0A0530301A10FDFD05FAC6
:10045000FA005736ADD2B0CA1A09E41609307D3B0E
:100460001115CDDE00CBECF4DA2935304B13E5EC79
:10047000C4C8F9E304162C4634F702F90002F9EE79
:10048000F04C62B8CDAFA40415D9192B267D33F7F3
:1004900006E1D615D8D80DE341522B220FC704C967
:1004A000CBEAE80A362D3520EF00020103F0E4F430
:1004B0004F67D4BDE9CA1E10C8C12F237D45E4F79C
:1004C000F0F224ECA3F5E93C5A24F70CE60DF2C255
:1004D000D1EB1040350F0DEF131DF9F2EAF603379B
:1004E0007AE195E1CC0C16C3D0582B7D3FC5EA15B7
:1004F0000110DB821107464901D11EFA15DB9DCCA4
:100500000D294213F80E161C0BD9DFF200133646E4
:10051000C99021EF0AE4C1C966314E06B7016604ED
:10052000E5CE944A2D330AF0ED610CE5A1ADFC3C1B
:100530001307FE164421F1ECE9001300EC1D6AE2FA
:10054000C813D000F4B7D075335410CE1F55D9D787
:10055000B99E3F26180D08176CF1CDAFD50421FBCD
:100560000B092D2B09E7FAFDFEF0F5F5306CEB8257
:1005700009F307EFB6DC78382915D71560E3A2E553
:10058000B95224F4E831145AC4B4C30FF616D82073
:1005900038380AFAEA16FDE2F8FEFD3A50B2A23DFA
:1005A000F9EBB6BFF07D230AE5063964A8C4ED0D6A
:1005B0003FF1CE214C211CB4D305FAD4EB043D34D9
:1005C0000600061608D3E41DFE02245C9AF323EA13
:1005D000D2DFB82A6AFE020A195A1C86E304010A0D
:1005E000DDF563490A01DE07F4C1D10B18290110BA
:1005F0002212FBFBDB1D09E6E74A6395C11DF4F4FB
:10060000D4C13C7DFA07074D31FD82EB0E02D8E2E2
:1006100015601DF7010205E0C4ED1D12050122253C
:1006200005EFF40016F6D802513582E331FBE1BF45
:10063000E15549D40218451FDAAA420DE4CFFA2148
:1006400052D7F61720EDC9CA1E16F2F91B3C1CE55D
:10065000F717FC02E7F00E37358EDE6203A5DDE406
:100660004054B1F3683A01E7C02C12AAD0232E27D8
:10067000EA014C24CBB8F51AFBC8FD3B3AF8F10C63
:100680001FFDF7EFFC022644B8A65703A4C7121FAC
:100690006BE1EB4D4EECFDD00823B6CB202301F9E6
:1006A000FD4620EAC70404EDD3071A31F8070E1EF1
:1006B000F7FCF109F2082722822161D8A1FAFA3465
:1006C000119E335A18D90CE64CCFC1E243F801E62B
:1006D000462F01D1F800FDC7ED12230407142203B1
:1006E000F7FC07F7F2FC381787EB7DD7AEF31F272F
:1006F000199D3D630DD225F13ECFAE0C3DD7F208DA
:100700003634F1D80802D8DAF51911010D3002009B
:100710000206FEF7E608371582FA63D39B14290E0A
:100720000DD24E4C03D2420212AFDE1423BA051290
:10073000470BE5ED2AEAD8EC0D060902290F00FC6B
:100740000BFA01EE01FA312DA1C97BCF86133BF8DC
:1007500022D3356AF8CC4613E9DFC4191BD0E5353E
:100760001F1FE80713F1CC08F9FE001C2015E91043
:1007700013FDEDF906F9083C0682274882CD400BAF
:100780001115DA7C21D80C56D20AB6000FFEB4330C
:100790001020FD060809C80004F0FB111717F60425
:1007A0001CFBF3030AFEEE0D44E5824F1AA1D6307E
:1007B000F31EE3174D13DE2D24EBE5D8050AD9E22D
:1007C0002D0912FA100BF3D214FAF0F31D110FF0E9
:1007D0001B0EF8F814FCFDEB283CD185711982E35F
:1007E00039EF26D3176704C0582EDDEFDE1507CE8C
:1007F000E44CF40D022002F6CC22F4D7F2370401C7
:10080000FC2508FEF719FCF6EF1A2601823E5989ED
:10081000B65007F3FCEE5A1DC6136BB1E4F61AF698
:10082000E5D94F08FB083A01FCE10700D5EB250CA0
:10083000F10A1D1BF1FD150FDCF5050E18F6827D82
:100840000288EE5BC311EC304DFEC56822C90B0374
:10085000F0E6D60D35D6043334EEF8F909E6DCF8C7
:1008600026F9071C1EF9000A0DE9F405FCF23723EE
:1008700094087082B63B14D137F05326EF066EAA67
:10088000F8FAFEDAF3E739FAF91B3DF10202FEE26B
:10089000F4EE10FDFD1E21F9FB070AF1F6080DE943
:1008A0000B332782FA67AF9A3E27EEF9075629C81D
:1008B0001562D8E00202EEE3DD2F00DB173E07F9F8
:1008C0000200F9E7F70AFCF4131902FB0A0B01F125
:1008D0000C0BECF12824F88248579ACC57F0D3023D
:1008E000104AF5D15251AD030AFDE3E8EA3ED9F5CD
:1008F0002933E50A060CE4ECFA09E604230EF30FAB
:10090000150AEF020B04E70B001725B0C27DD38A4E
:10091000413BAEFB122733CD126EEEC146F5D8D661
:10092000010C13C22F3B06EC2E03E6DC13FBE9E1BE
:10093000300DF60329F8FCFA19FEF7F911F010262C
:10094000EA825116850752D6EF191A3AE0F4590E89
:10095000BA2E0EDEE000070DC5153409E5261FF698
:10096000D90F14DAD71910F70C1B08F7081506E78A
:100970000304F8F31820EEB15B3582F14BD1DB3282
:10098000111FE80D5117A02511DBD50D0205D72742
:100990002FF6E33318F1E10A13DADB2511E4002125
:1009A0000DEF022207EA0C1BFAEDFE0D33D9927D02
:1009B00017941354BAEB152014EDFE69EDCD3212E5
:1009C000B8F20409E7D62821E9FE3B02F30703FE4B
:1009D000F1E20A01EF0F1FFD011314FC000002F207
:1009E000FA02FE111CE1CA731B821B38BEE04309E8
:1009F00015DD2941F2BF4DF1C6EE1DF7EAE72F0ED6
:100A0000F1FB33FEF5131AD6EC0CFEE5021409F4E3
:100A10000C170EF60805FDEE05F6F1FD2212F3AAFD
:100A20005D1582265CB5CD330C0AE42649E5D56B0D
:100A300004B4F11EF1D9E12A04D91C48FAE9252EA3
:100A4000ECD91B06BFF622F8F50F1C09F81023EDB0
:100A5000F60CFEED01FC0A0F0AB16F1F9517389FC7
:100A6000DB2FFE0BF6294903E161E7BDF319D5E45D
:100A7000F622F4F41D3FF603221FEDE80303C4F44D
:100A800021EFF1220E010E2710F9FE0EF6F1FEFB0A
:100A9000EC131A12B4343C82ED48E7CC2E0912FB59
:100AA0002B4C06D1440BD6F706D9E3F70FFCF2170F
:100AB000310F002914EB01F9F9E2E70008EE1F20DD
:100AC000FE061B0F08FC01FEF1F701F503051A28CD
:100AD000D1EC6794C55E089F1E1901FE174B1CD40C
:100AE0003F46BEED19DBCAF30701E4094019F830AF
:100AF00023EDF10BEDDAEB01EFF00F2900102914D3
:100B0000FA07FEFEE1FE01F2FA1A00152403D9519C
:100B1000008B171DCFE2400F09004829ECFC3FDC99
:100B2000CA0905D4EEFE0DF406321AF7202E04FB96
:100B30000006D3E90AFBD70C220A042F1C0400107C
:100B400000F1FD04F1EB0C12F90A1F19FDD138F97F
:100B500090042ABCFB3900040E2F37FD0635EEE168
:100B60000AF5C9E30002F215270F00341CFD00024C
:100B7000F9EEDEF9F9E9001A00142316000B04FD62
:100B8000F6FDFBF6F6060006060B260F0DE91047EC
:100B900096DF1DDDC35C0900172E2017EF270BCC55
:100BA000FD09CCDE09F8FD02261700132807040909
:100BB00000ECFDECF6F1EC0CFD09221D02220C000C
:100BC000FD00FBFDF300FDFD0913FB111B1816C60C
:100BD000F54BAADC49E1AC2816EE1B233A07074285
:100BE0001CBA0207CCD905FDF8FA261FFD1C3102FC
:100BF000F81A0FEAF000F5EDFA050005171A0015CE
:100C000018FA020000FA0200FAFD1205020A1D0598
:100C10000015FAC92B0BA71810C8F45300241E2C7A
:100C2000240D0824E1DE05D8DEF700F1FA0E240ECB
:100C3000102D1CFD0B08F7F1FAF4E3F4FD00021F80
:100C4000160E0B2702020002F7F400FAFD00050061
:100C5000050E0005160810E0D549CAB12DFAB61FD9
:100C60001F00132D3516FA3E1CD0EC0BC7D2000026
:100C7000F4FA2116081C320802080000FAFDF1E31C
:100C8000FA05FA051C0EFD101C08000200FDFA0210
:100C9000FDFA0005FD05100EFD0800080BEFD24C13
:100CA000E9A83505B92457EF13212AFA021319CD03
:100CB000000EDBE90BF4FA001C0B051619000B1CE7
:100CC000F7F108F4E3FDFDFD0005131C00131C0201
:100CD00005FDFDFA000000FD020005020502050207
:100CE000020008000BE9DE46C7B62710CD27320008
:100CF0000B2D1300FA1F02D2FA19E6EC0B00E9FDE6
:100D00002108FD1C1300001008EFFA05FDF100FD9D
:100D100000050205051616020205FDFA0500FA0592
:100D2000000000050205000200050200000200F4B8
:100D3000E921E6EF1C08E02121FA0B1C0EFD0B084F
:100D400005F40500F4FA02FAFA050BFA101C08057E
:100D5000050200FA0200FAFD02FA0005020202088A
:100D600000050200FD0500FDFD05FD02FD08000275
:100D7000020502000005F7080B0EA8430E8C105A5E
:100D8000CA0554F700192A0000101FDE000BFAE311
:100D90000BFAEFEC1600FD0E1FFA0E1605FA08FD11
:100DA000FAFD05FD00FA0200000205FD0808020236
:100DB00005FD0005FDFD000200FD02000500050027
:100DC00005000200080500D235E9C12727C1102F10
:100DD000EF00271CFA051F02EF130BF1EC05F4F7E7
:100DE000050BFA050E0B000E0B0200020000FD02BF
:100DF000FAFA00000000050502080B0202000202D8
:100E000000FDFA05FDFD08FD0205050500050202CD
:100E10000000020BECF12AE3DE160EE02721FA05B2
:100E20002713FA0819FDFA0202EFFA08F400000B82
:100E3000FA080E02001302050002FDFA0000FAFA99
:100E4000000202020808FD0800050002FD02000081
:100E5000020000080002FD08FD020202FD0200057A
:100E6000FD080000DE24F1D50E0EDB021CFA02198B
:100E70001F00051005F108FDF4F405F7FA0005FA66
:100E800002080BFA0E05000202FD0202FDFDFD0242
:100E900000FD050000020800030C0007FF0000EC45
:100EA00001FF0007800001040000E20101060101CA
:100EB0000801010A01010C00FF00076400010301A1
:100EC00001010007320100E700FF00077D00010378
:100ED00001076E0001010100E70200F600FF0007B4
:100EE000500001000000F60100FE00010100FF00BB
:100EF00002050007FF000960000A1E0000F801FF5C
:100F000000020400040C0007FF0000E20200EC01F4
:100F1000FF00020100040C0007FF0000E20200ECE9
:100F200001FF00020500040C0007FF0000E20200C0
:100F3000EC01FF00020100030C0007FF0000FA01B2
:100F4000FF00041F01FF0002080007C000001E028E
:100F500000F90700E20400F901FF0007E00000FBD0
:100F600001FF00020100040C0007FF0000FE1E004C
:100F7000FF01FF0002040007FF000C20000BC0016E
:100F800007D00000E20300F601FF000201000700A5
:100F90000000120E00FD1700FF01FF00077A00029B
:100FA000090000F800097A000A2C01083D020839FE
:100FB00001083501083101082D02050000FF00007D
:100FC00007630002070000FE000859010C10000B27
:100FD000E00909C0000A1E0000F507050000FF0037
:100FE00000077A0002080000FB0009FF000ABC00AD
:100FF000081B010CC8000B4E280C0002050000FF66
:101000000000077A0002040000F800097A000A2CA8
:1010100001083701083801083901083A01083B0185
:10102000083D01083E01084001084201084402054C
:101030000000FF0000077A0002040000F800097AAF
:10104000000A2C000C07000B0700083404083D01BF
:10105000083E010B06000C0304050000FF0000071A
:10106000660002040000F0000852010964000A6FE3
:101070000108510000DE01050000FF0000074D00DF
:101080000009000204010964000A6F010857010801
:10109000510108570108510108570108510108572B
:1010A000010851010857010851010964000AB40000
:1010B00000FE01085F01085E01085D01085C01088F
:1010C0005B01085A01085F01085E01085D01085CC8
:1010D00001085B01085A01085F01085E01085D0113
:1010E000085C01085B01085A01085F01085E0108FD
:1010F0005D01085C01085B01085A01085F01085E98
:1011000001085D01085C01085B01085A01085F01E4
:10111000085E01085D01085C01085B01085A0108CE
:101120005F01085E01085D01085C01085B01085A67
:1011300001085F01085E01085D01085C01085B01B0
:10114000085A01085F01085E01085D01085C01089A
:101150005B01085A01085F01085E01085D01085C37
:1011600001085B01085A01085F01085E01085D0182
:10117000085C01085B01085A01085F01085E01086C
:101180005D01085C01085B01085A01085F01085E07
:1011900001085D01085C01085B01085A01085F0154
:1011A000085E01085D01085C01085B01085A01083E
:1011B0005F01085E01085D01085C01085B01085AD7
:1011C00001085F01085E01085D01085C01085B0120
:1011D000085A01085F01085E01085D01085C01080A
:1011E0005B01085A01085F01085E01085D01085CA7
:1011F00001085B01085A01085F01085E01085D01F2
:10120000085C01085B01085A01050000FF000007A7
:101210007A000207000980000A5A000800000CFF4B
:10122000000B08320B10360B183A0B203E0B28002F
:101230000A3C420B30460B38480B40000A2D4A0B43
:10124000484A0B4C04050000FF00000000940E000B
:10125000000000010000A20E00000000010000B923
:101260000E00000000010000CA0E00000000010096
:1012700000DE0E00000000000000EF0E0000000085
:10128000000000000F00000000000000110F00002F
:101290000000000000220F00000000000000330FDB
:1012A0000000000002E400410FB20DB30D00000089
:1012B000460F000000000200B95A0F0000000100B4
:1012C0000000620F00000000000000730F0000002B
:1012D000000000008A0F000000000000009B0F00CB
:1012E000000000000000BF0F00000000000000E050
:1012F0000F000000000000000110000000000000CE
:10130000003410000000000000005E10000000002B
:101310000000007C10000000000000000E12000021
:1013200000001E001600000001000200030004007F
:10133000050006000700080009000A000B000C0069
:101340000D000E000F00100011001200100013001D
:1013500014001500160017001800190010001000E6
:101360001A001B001C001D001E001F002000210091
:101370002200230024002500260027002800290041
:101380002A002B002C002D002E002F0030003100F1
:1013900032003300340035003600370038003900A1
:1013A0003A003B003C003D003E003F004000410051
:1013B0004200430044004500460047004800490001
:1013C0004A004B004C004D004E004F0050005100B1
:1013D00052001000530054005500560057005800AA
:1013E00059005A005B005C005D005E005F00600019
:1013F00061006200630064006500660067006800C9
:1014000069006A006B006C006D006E006F001000D8
:101410007000710072007300740075007600770030
:10142000780079007A007B007C007D007E007F00E0
:101430008000810082008300840085008600870090
:10144000880089008A008B008C008D008E008F0040
:1014500090009100920093009400950096009700F0
:10146000980099009A009B009C009D009E009F00A0
:10147000A000A100A200A300A400A500A600A70050
:10148000A800A900AA00AB00AC00AD00AE00AF0000
:10149000B000B100B200B300B400B500B600B700B0
:1014A000B800B900BA00BB00BC00BD00BE00BF0060
:1014B000C000C100C200C300C400C500C600C70010
:1014C000C800C900CA00CB00CC00CD00CE00CF00C0
:1014D000D000D100D200D300D400D500D600D70070
:1014E000D800D900DA00DB00DC00DD00DE00DF0020
:1014F000E000E100E200E300E400E500E600E700D0
:10150000E800E900EA00EB00EC00ED00EE00EF007F
:10151000F000F100F200F300F400F500F600F7002F
:10152000F800F900FA00FB00FC00FD00FE00FF00DF
:101530000001010102010301040105010601070187
:101540000801090110000A010B010C010D010E0137
:101550000F011001110112011301140115011601EF
:101560001701180119011A011B011C011D011E019F
:101570001F01200121012201230124012501100066
:1015800026012701280129012A012B012C012D0107
:101590002E012F01300131013201330134013501B7
:1015A00036013701380139013A013B013C013D0167
:1015B0003E013F014001410142011000430144014D
:1015C0004501460147011000480149014A014B010C
:1015D0004C014D014E014F01500151015201530187
:1015E0005401550156015701580159015A015B0137
:1015F0005C015D015E01100010005F01600161018E
:1016000062016301640165016601670168016901A6
:101610006A016B016C016D016E016F017001710156
:101620007201730174017501760177017801790106
:101630007A017B017C017D017E017F0180018101B6
:101640008201830184018501860187018801890166
:101650008A018B018C018D018E018F019001910116
:101660009201930194019501960197019801100050
:10167000100099019A019B019C0110009D019E019F
:101680009F01A001A101A201A301A401A501A6013E
:10169000A701A801A901AA01AB01AC01AD01AE01EE
:1016A000AF01B001B101B201B301B40110001000EB
:1016B000B501B601B701B801B901BA01BB01BC015E
:1016C000BD01BE011000BF01C001C101C201C301C3
:1016D000C401C501C601C701C801C901CA01CB01C6
:1016E000CC01CD01CE011000CF011000D001D101FD
:1016F0001000D201D301D401D501D601D7012601B2
:10170000D8011000D901DA01DB01DC01DD01DE01C5
:10171000DF01E001E101E201E301E4011000E50184
:10172000E601E701E801E9011000EA01EB01EC0143
:101730001000ED0110001000EE01EF011000F001AB
:10174000F1011000F201F301F401F501F601F701D6
:10175000F801F901FA01FB01FC011000FD01100084
:101760001000FE01FF01000210000102020203024C
:101770001000040205021000060207021000080211
:1017800009020A020B020C020D020E020F021002E5
:10179000110212021302140210001502160217029F
:1017A000180219021A021B02100010001C0210007D
:1017B00010001D021E02100010001F022002210254
:1017C00022022302240225022602270228022902DD
:1017D0002A022B021000100010002C022D022E02F3
:1017E0002F023002100031021000100032023302CA
:1017F0001000100034023502360237023802390276
:101800003A023B023C023D023E023F0240024102DC
:1018100042021000430244024502460247024802C7
:101820004902100010004A024B0210001000100084
:101830004C024D024E024F0250025102520253021C
:1018400054025502560257025802100059020C0C5D
:101850000C4C0C4C0C540C0C0C0C540C54144C4CE8
:1018600015551555140C14155515551414541555B6
:10187000155554141455155D1414555415550C4C28
:101880000303034B0C0C550C4B030C4C155D151549
:10189000540C0C141E66144C0C4C0C151554140CE2
:1018A0004C0C5515551414541D5D5D15551403024B
:1018B0000201020B4303430201024C0303034302F0
:1018C0001E550C430303262726550C434C1D262F7B
:1018D00027150C4C15652E2F140C4C0C55264C0C52
:1018E0000D4D0D4E024C0C0D4D0D0202430C0D0D15
:1018F000020202034C0D0343020202034C034303A2
:10190000430227150C4303432F2F67150C034E1674
:1019100056565E1F4D4E0E0E5656150D4E4E0E0E61
:1019200055161D16564E0C151E1E1E16030C151EA2
:101930002F2F03030B0C1E2F030343030C155E67AD
:101940002F6F2F6F1F5E276F6F2F561E5E27676FDB
:101950000E56161E2627564E0E56161E261E564E7E
:101960005616372F271E16562637372F27166F770E
:1019700077776F6F6F6F777777772F2F2F6F7777F7
:101980006F6F6F6F6F7767276F6F6F6F1E5E276761
:101990006F6F161E5E27676756561E1E5E1F6F6F9F
:1019A0006F6F6F6F6F776F6F776F7777776F6F7717
:1019B0007777777777777777777777776F6F7777C7
:1019C000776F6F6F6F6F777767676F6F6FAF7777CF
:1019D000777777776F6F776F77776F776F777777BF
:1019E0007777777777777777B77777777777777747
:1019F000B7776F777777777F77776F7777776F6F4F
:101A00006F676F67776F6F6E6F6E77776F6F6F6FE0
:101A1000777777776F6F7777777777777777777766
:101A2000777777777777777777B777777777666727
:101A300066665E5D6F6F6F67665E6F6F6F6F66661F
:101A4000776F6F6E66666F776F6E666677776F6FAC
:101A50006E667777776F6E6677776F6F6E665D55B8
:101A6000541454145D5D5D55144B5E5E5D555454C5
:101A7000665E5D5D1554665E5D555455665E5D5DE2
:101A80005D5D66665E5E5D5D66665E5E5E5D4B14B8
:101A90004B0B0A020B0B0B4A0A02144B0B0B0A02EC
:101AA0000C4B0B4B0A0255144B0B0B0A5554140BE1
:101AB0000B0B5D5555544B4B555455540C0B0A01AB
:101AC00009010900020A01010100020209090101DC
:101AD00009010A0100000209010901010A020109C4
:101AE00001090B4A0A0A01094B0B0B420A010000CB
:101AF00000000000000000000000090000000000DD
:101B000000000000000000000000000000000000D5
:101B100000000109000000000901000000000000B1
:101B200008000000000000000000000000000000AD
:101B300000000000000000000000000000000000A5
:101B40000000000000000000000000000000000095
:101B50000000000000000000000000000000000085
:101B60000000000000000000000000000000000075
:101B7000000000000000000000000000000000085D
:101B80000000000000000000000000000100000054
:101B9000000000000000000000000000000008003D
:101BA0000000000100000000000000000000000034
:101BB0000000000000000000000000000000000025
:101BC0000000000000000000000000000000000015
:101BD00000000000000000000108000000000000FC
:101BE00000000000000008000000000000000000ED
:101BF00000000000000000000000000000000000E5
:101C000000000000000000000000000000000008CC
:101C100000000000000000000000000000000000C4
:101C200000000000000000000000000800000000AC
:101C300000000000000000000000000000000000A4
:101C4000000800000000000000000000000001008B
:101C5000000000000000010000000000080000007B
:101C60000000000000000000000000000000000074
:101C7000000008000000000000000000000000005C
:101C80000000000000000000000000000000000054
:101C9000000000000000000000000000000000083C
:101CA000010008010000000000000000000000002A
:101CB000000000000001000900000000000000001A
:101CC00009000000000000080000000000000008FB
:101CD00001000900000000000000000000090000F1
:101CE00000000000000000000000010000000000F3
:101CF00008000000000000000000000000010900D2
:101D000000000900000000000000000000000000CA
:101D100000090000000000000000000000000000BA
:101D200000000000000000000000000000000000B3
:101D3000000009090000000001010000000001018D
:101D4000000000000000000000000108000000008A
:101D500001010000000000000000080100011D5CFE
:101D60001D5D14551D1D5D1D5D5D14151D5D1D1D45
:101D70000C0C55151554154C0C0C4C0C1D1D550D0B
:101D80000C0C1D5E265E554C15151E661E151D5D40
:101D90001E5E1D55151D1D5D1E5D5D5D5D1D5D1D80
:101DA00014141D1D5D1D1454145C1D5D0C0C0C0CD5
:101DB00014140C4C0C140C55550D144D0E051554E3
:101DC0000C0C0C541D155514140C5E5D1D1554148B
:101DD0001D1E1E5D1D1E5D1D5D1E570E1C5E170E19
:101DE0000300164D030000000300000000001D2644
:101DF0002F2F26554C14652E2F2F144D0D55662F61
:101E00004E0D0C0504050301000000000000000059
:101E100000000000000000000000000000004C4333
:101E20000B43030B261D15144C032F6F27271E553C
:101E30000D0D0D0D0D0D0000000000000000000054
:101E400000000000090100000000000000000C1E5E
:101E50002E37372F030B151E2E370D4C4C0D162722
:101E60000D0D050504440000000000000000000006
:101E700000000000000800000000000000001E1626
:101E800056561E5E37261E5616562F2F2F261656CE
:101E9000050E272F2E260000030D1F27000000002F
:101EA000020D0000000000000000000000001E5FA6
:101EB00067676F6F16561E5F6767165616561E5E6B
:101EC0005E165616561626261E561656171F1E1E28
:101ED0001E16010556165E1E000001040E166F6FD9
:101EE000776F77776F6F7777777767676F6F7777CA
:101EF0005E6767676F6F16565F67676F5616565E49
:101F0000675F1E5616574E041D170E0301007777A4
:101F1000777777777777777777777777777F7F7741
:101F2000777FBF775F4D6F6F5F0D02005704020030
:101F30000000010000010001000000000000776FB8
:101F40006F6E6F6E777777776F777777776F777753
:101F50000D0D0D4D0D0D00000000000000080000EB
:101F600000000001010900010900080000006E6680
:101F700066665E5D6E776E6E6E666F6F6F6F6F6FAB
:101F80000D0D0D0D0D0D0000000000000000000003
:101F900000000801000108010000000000005D557C
:101FA0005454540B66655D5D54546767675E5E55B7
:101FB0000D0D0D0D0D0E00000000000000000000D2
:101FC00000000801000000000000000000000B0BF2
:101FD0004A0B0201544B0B0A0A095C54544B4B4206
:101FE000575E5D540B0B030D565E5D5400000205F9
:101FF000565600000000010400000000000001012E
:1020000009000000010001000000090101090000B1
:102010004B0901090101540B42090109540A0A0A3A
:1020200002010D0D4B09090001040D0C0203000013
:1020300000000000000000000000000000000000A0
:102040000000000000000000000000020000000B83
:102050000D0D010C0D0502004D04020000000000F2
:102060000000000000000000000000000009020A5B
:1020700000020C050C040C0D04010000030000001C
:102080000000000000000000000000000000000050
:102090000000000000000000000002090209020A1E
:1020A0000C040C040C0C00000000000000000000F8
:1020B0000000000000000009000000000000000116
:1020C000000000000000000000000A0A0A020A02E4
:1020D00004040C0C0C0C00000000000000000000C8
:1020E00000000800000000010000000000000000E7
:1020F000000000000000000000000A020A010000C9
:102100000C040C0D0C0200000001030D0000000087
:1021100000000000000000000000000000000000BF
:1021200000000000000000000000000000000800A7
:102130000000000000000C0B00000000030D0D0B60
:1021400001000000020C0D0C000000000104000062
:102150000000080000000000000000000000000077
:10216000000000000000000000000000000000006F
:10217000000002000000000B0D0C01034D040000E4
:102180000000000000000009000000000000000046
:10219000000000000002000000020D4D000B0D4D7C
:1021A00003000D0D0300000002000000000000000D
:1021B0000000000000000000000000010202020216
:1021C0000C0D0C0C040C04010000000000000000C9
:1021D00000000000000000000000000000000000FF
:1021E000000000000000000000000A020902020ACC
:1021F000040C040C0C0400000000000000000000AF
:1022000000000000000000000000000000000000CE
:1022100000000000000000000000020A02020A02A2
:10222000040C040C040C000000000000000000007E
:102230000000000000000000000008000000000096
:10224000000000000000000000000A010000000083
:1022500004050C0200000001030D0C030000000047
:10226000030C00000000000000000000000001005E
:1022700000000000000000000000000000095B52A8
:10228000000000005C530000000052520D030100EA
:10229000000902040D0C0200000001040D0C0000F6
:1022A0000000000000000000000052095B00000078
:1022B000A45CAD00000064A45C00000009090900F2
:1022C000000000000000000001000000000000000D
:1022D00001000001000000000000000000000000FC
:1022E00000000000000000000000000100000000ED
:1022F00000090000000000000000000000011414AC
:10230000551E666614141515155E0C141455151516
:10231000130C141415550C1414141415141455140A
:1023200014140C14151555150C0C145515151E15F3
:10233000550E03005E1E150E01001555154E0100C9
:102340001515550E02001555150E01001515154EE3
:102350000403141415150F4F550D140D140D000022
:10236000000000000000000001000000000000016B
:102370000001000000080000000000000303030348
:1023800003030F4F0F4F0E4F150D0C140C0C0000D4
:10239000010000000000000000000001000000003B
:1023A0000100000000000000000000000303030320
:1023B00003030E4E0E0E4E0E14140C0C0C0C0000EB
:1023C00000000000020E0D0505260457154E2F3F94
:1023D000031614143F1F031643253747450E0C3EC2
:1023E00027470E4C143F2F170B0C0C1D3F3F0000CE
:1023F000000000002D2D2D2D2D2D272F2F2F2F2FBD
:102400004747474747470F0F0F0F4F0F4F470F479C
:102410000F4F4F4F4F0F4F0F371F5F5F1F4F000082
:10242000000000002D2D2D2D2D2D2F2F2F2F2F2F84
:102430004747474747470F0F0F0F0F0F4F4F4F4F5C
:102440004F470F0F0F0F0F17074F4F4F575F0000EA
:10245000000000452D2D2D352C252F2F2F27373708
:10246000474747474F470F0F0F4F0F0F0F470F4F6C
:102470004F0F4F4F4F17074F5F1F5F17470F4744CF
:1024800000000000372D2C2D2D2D272F2F2F2F2F23
:102490004747474747470F0F0F4F0F0F4F4F0F0F3C
:1024A000470F0F0F4F4F174F0F4F575F2767000012
:1024B000000000002D2D2D3535132F2F2F272F3FF6
:1024C00047474747472F4F0F0F0F4F4F0F4F0F47AC
:1024D0000F574F0F4F0F4F5727276727671F0001D1
:1024E0000000000000001B352D2E11003F37272F64
:1024F0003E2437474747373F27470F0F273F1F47A0
:102500004F0F2727470F0F0F271F470F4F4F000170
:10251000000000002D2E1E460E0E272F3F77775706
:102520004747373FBF5F0F47173F37674F0F472F6B
:102530003F3F4F0F47173F3F0F0F4F4F373F0000B1
:10254000000000000223352D35351D3F2F272F2792
:102550002F2F474747473717470F0F4F2F470F4F2B
:102560000F0F1F470F0F4F0F474F4F0F4F0F000019
:10257000000000002D0100092D353F2400233F27D6
:102580002736002337470F3F091B37474737231AA2
:10259000374747272D2337474F0F37352F47000041
:1025A000004447452D2D2D2D2F2D2F2F2F2F2F2F31
:1025B0004747474747470F0F0F0F0F0F4F4F4F4FDB
:1025C000474F0F0F0F1757174F47172F2F2F000089
:1025D000000000002C2D2D2D352D2F2F2F2F272FD4
:1025E0004747474747470F0F0F0F0F0F4F4F0F4FEB
:1025F0004F0F571757570F4F2F2F2F2F2F0F000009
:1026000000000000352300000000273F24000000E8
:10261000471F3F0900090F473F23002C4F472F2D2D
:10262000003E0F47173624374F0F472F3F27000034
:10263000000000000023352E2D2E2C3F272F2F2F9A
:102640003F1F4747474737470F0F0F0F27470F4F8A
:102650004F4F474F0F0F0F17470F4F0F5F67000088
:10266000000000002D2E2D2E2D352F2F2F2F2F2F38
:102670004747474747470F4F0F0F4F0F0F0F4F0F5A
:102680004F0F574F574F574F672767276727000050
:1026900000000000352D01000009273F1B00093F05
:1026A00047371A003E2F47371A352E46472F3F2D02
:1026B000034F573F3601054F3F3F0A010F4F0000C0
:1026C000000000002C352D352D3537272F2F2F2FCB
:1026D0004747474747474F0F0F0F0F0F0F4F0F4FFA
:1026E0000F4F0F4F0F17570D0F4F17670B0B00446E
:1026F000464501002C2D2F2E2C352F2F2F2F27371D
:102700004747474747040F0F0F4F0F030F4F0F4F18
:102710000403470F4F0E041617570D155F6700008F
:10272000000000002D352D35352D37272F2F2F2F69
:102730000447474747474E0F4F0F0F4F4F0F4F0F5D
:102740004F0F574F574F174F5F1F5F275F4F0000C7
:10275000000000003535352D35352F272F2F2F2739
:102760004747474747470F0F4F0F0F0F4F0F4F0F69
:102770004F4F4F4F0F4F0F174F0F0F4F0F57000077
:1027800000000000352D2E2D2E2D2F2F2F2F273F0F
:102790004747474747370F0F0F471F3F470F4747E9
:1027A000372C4F4F4F2F3F095F2F3F361200000944
:1027B000000000001545030000002D030D0000007F
:1027C0001A010C00000000020D00000000030C00C4
:1027D000000000030400000000030C0000000000E3
:1027E00000000004000100000002000000000002E0
:1027F00000000000000200000000000200000000D5
:1028000000020000000000020000000000020D00B5
:10281000000000000400000000000C0000000000A8
:102820000400000000000C00000000000400000094
:1028300000000400000000000C0000000000000088
:102840000000000100000000000100000000000185
:10285000000000000101000000000008000000006E
:102860000000000000000000000000000000140C48
:102870000C1415151D151514141526265E1E5D1D48
:102880002E6F2E67661E772F6F6F67677677777765
:102890006F6F37367777776F367777777777151566
:1028A00015144D0D1D1D55150D0D151D15150D0D71
:1028B0005E151515150D665E1E15154D675E5E5687
:1028C000150D6F671E165E15776F6F6F67574D0D8D
:1028D0004D0D0D0D0D150D4D0D4D0D0D0D0D150D58
:1028E000154D0D0D0D0D0D0D150C554E550D4E0FB5
:1028F0000E05560F4E0401000E03010000000D4DA1
:102900000D0C0C0C0D0C4D0C0C554D0C0C0D4E0DF6
:1029100015164E0D03010E05020000000200000016
:1029200000000000000001000000000000000B0C8F
:102930000E46041B0E4E04020000040100000000BD
:102940000000000000000000010000000000000086
:102950000100000000000000010000000000363F00
:10296000372F2747001B363F370F000000243F1743
:10297000000000093F17000000123F170100000986
:102980003F17000000123F17000244163F170F4F79
:102990000F0F571F470F474F575F474F0F4F175F97
:1029A000470F4F0F575F470F0F4F571F474F0F4F9F
:1029B0004F5F470F470F575F470F4F0F575F272F47
:1029C000274F0F4F27371F470F0F272F17474F4FFF
:1029D0002F27474F0F0F271F470F4F0F274F0F4F1F
:1029E0000F4F1F470F4F074F17470F4F0F4F4F0FF7
:1029F0004F171F1F4F0F0F4747470F4F0F4F4F0FD7
:102A00004F074F470F474F5717575717575F272FF6
:102A10002F27175F27272F2F0F0F4F4F0F171F5FDE
:102A20001F1F1F2F4707474747270F4F0F4F0F5FA6
:102A30004F470F470F575717575757172F272F270E
:102A40002F57372F2F372F0F171717170F4F2F4FBE
:102A5000470F4F0F2F470F4F0F4F17470F470F5F6E
:102A60004F0F4F0F4F67074F074F5727470F4F0F16
:102A70005F27074F0F4F5F274F4F0F474F274F0FCE
:102A80004F472F270F4F0F4F170F4F074F0F4F472E
:102A900017470F4F074F274F0F4F4F0F371F470F46
:102AA0000F4F3F2F474F470F3F3F0F470F4F470FE6
:102AB0000F4F0F4F4F0F47174F0F0F4F075F1F4716
:102AC0000F470F5F2F0F4F074F2737270F4F5727FE
:102AD0003F3F470F5F2F373F474F5F373F1F0F473E
:102AE0002F3F2F474F47173F2F470F0F473F37477E
:102AF000474F472F3747470F471F2F47474F0F175E
:102B0000270F17474F4F170F474F0F0F474F0F47CD
:102B100017271F1F4F0F4F4747470F4F0F4F0F0FDD
:102B20004F4F0F4F074F0F0F4F0F4F4F4F470E672E
:102B3000275F0F4F0E272F2F4F4F0F472F3F1F2776
:102B40001F271F0F47474747470F0F0F0F0F4F0F05
:102B5000474F470F4F070F0F4F4F0F4F675F1F5FD5
:102B60005F5F2F2F2F2F2F2F3F3F3F3F3F3F4F0FB5
:102B700047273F0F0F4F47172F474F0F0F0F4F0F8D
:102B80004F074F4F0F4F0F570F0D4F0F5F671D052B
:102B90004F4F2F2F15064F0F3F3F26470F4F470F21
:102BA0000F0F1F1F0F4F4F0F4F474F0F0F4F0F0F9D
:102BB0000F0F4F470F470F4F0F0F4F0F0F4F5F670D
:102BC0002767470F2F2727270F4F0F4F0F4F1F1F25
:102BD0001F1F17274747474F4F470F0F0F4F0F0F25
:102BE0000F4F4F470F4F4F4F0F0F4F4F27676767DD
:102BF000276F2727272727370F4F0F4F4F173726C6
:102C000000044F0F4F04000D4F4F4F0301040F4FAF
:102C10004F0402155F574E041E67275726141F578F
:102C20000F47361447470F470F470F0F4F0F0F4FF0
:102C30000F0E045F0F4F4F4F0F0F0F4F0F0F0F4F20
:102C40000F4F0F4F4F0F575F570F0F4F1F27675FE4
:102C50005F571F2F275F1F564F0F4F0F0F4F671DD7
:102C6000252F2F2F0F1627373F374F4F470F273F5F
:102C70000F0F0F4F47274F4F0F0F47270E0E4F4F86
:102C8000472F03054F0F47270F4F4F0F47272F2F72
:102C90002F275F4F37372F27574F3F372F275F4F4C
:102CA0003F372F675F4F3F372F275F4F3F372F67E4
:102CB000574F3F372F275F4F3F372F27574F0F0F64
:102CC0004F474F2F4F0F0F47173F4F4F4F471F365D
:102CD0004F0F0F471F360F4F4F471F364F0F0F47EE
:102CE0001F360F4F4F471F36470F0F471F363F3EC8
:102CF0001B000000250C0000000002440000000042
:102D00000A04000000000A04000000000A44000059
:102D100000000A04000000000A0400000000000394
:102D20000400000000030C00000000030400000089
:102D300000030C000000000B0400000000030C0066
:102D4000000000030400000000030D00000000006C
:102D5000000000020000000000020000000000026D
:102D6000000000000002000000000002000000005F
:102D70000002000000000002000000000002040049
:102D8000000000000D000000000004000000000032
:102D90000400000000000C0000000000040000001F
:102DA00000000C0000000000040000000000000013
:102DB0000000000000000000000000000000000013
:102DC00000000000000000000000000900000000FA
:102DD0000001000000000109000000000901373671
:102DE0007F7F77773677377F7F7736363F7F7F7F76
:102DF00036373F7F3F7F6E777F7F7F7F1E266E77E0
:102E00007F7F261E1E1E262F2F6F2F2F27273777F7
:102E1000775F0D037F7F770500007F7F770D0000D0
:102E20007F7F770D00007F7F770D00007F3F7F0D54
:102E30000000777F770D00001E27270D0008000097
:102E40000000000000000001000000090000010077
:102E50000100000108000800090000010108000944
:102E60000000080108010008000801000801000036
:102E7000000100000000000001000100010000004E
:102E80000000000100000801080000000100010826
:102E9000010000080100080000010800000900000E
:102EA00000000002000001030D4F01030E4F161534
:102EB00003575615151503571E565615035F5F5FCA
:102EC000175702040C0C0C04000000000000054E13
:102ED000061D37170E0C0B1D3F171415441D3F1F01
:102EE0004D150D0C373F1515550C0D25571756165A
:102EF0004E4604040404040C000000000000474F88
:102F00000F4F571F470F470F575747470F4F5757F9
:102F100037275F57571F363F3F37372F4E162F370C
:102F20003F3F04044404141C0000000000004F0F45
:102F30004F0F4F0F074F0F4F0F4F0F4747474F0789
:102F400067271F1F175F2F37373F372F3F3F3F3F01
:102F50003F3F1C1C1C14041D0000000000044F4FC8
:102F60000F474F470F470F0F0F4F4F0F4F4F4F0751
:102F7000575F175F175F2F2F2F2F2F2F3F3F3F3F99
:102F80003F3F2714111212124F450100000047471E
:102F900047474F0F0F0F0F0F4F0F4F4F4F4F074F19
:102FA000571F571F575F2F2F2F2F2F2F3F3F3F3F69
:102FB0003F3F1312121213120000000000000F0F07
:102FC0004F074F5F4F470F4F175F4F0F470F5F2759
:102FD000175F175F5F2F2F2F2F2F2F2F3F3F3F3F61
:102FE0003F3F12121212121C000000000000373F77
:102FF000375757172F3F3F3727272F371C363F3F6D
:103000003F36020B252E3F2E430301443F1F4E56F1
:103010000D4F140404040404000000000000571FB6
:1030200027373F2727272F3F2D373F3F3F36013E8A
:103030002524240A002403000000000903000000E6
:103040000000010000000000000000010000470F28
:103050004F0F4F0F474F0F4F0F4F27474F0F470F40
:103060003F5717575F573F372F2F2F2F1B3F3F3F9C
:103070003F3F0012131212120000000000000F0F59
:10308000474F372D4F4F07573F1B0F474F273F14D1
:103090005F57573F37042F2F2F3F27433F3F3F377F
:1030A0004F0313121109470C000000440F0D1B1BA6
:1030B0001B1B1B1B000000000000000000000000A4
:1030C00000000100000100000000000900090100EB
:1030D00000000000000000000300000000001B3E94
:1030E00027474F0F09360F470F4F2D2E444F4F4F95
:1030F0003614045F1F573F261E372F2F1B3F3F3FBD
:103100003F3F0009121212120000000000004F0F92
:10311000470F4F0F0F4F0F4F0F4F4F4F4F0F4F4F47
:103120001F5F175F575F372F2F2F2F2F3F3F3F3FD7
:103130003F3F1212121C1C1C000000000000470F31
:103140004F0F47470F4F074F0F4F4F4F4F0F4F0F27
:103150001F571F5F5F4E2F2F2F3726253F3F3F3FC3
:103160003F3F1C1C1C1C13120000000000004F4FAE
:103170000F4F0F4F0F4F4F0F4F0F46064F4F0F4F31
:103180000D1E5F5F575F2F372F372F373F3F3F3F72
:103190003F3F1212121212120000000000000F4FE7
:1031A0000F4F4F0F4F0F4F0F4F074F4F4F4F4F4F77
:1031B0005F1F5F1F5F1F2F372F2F2F2F3F3F3F3F77
:1031C0003F3F1212121212120000000000004F0FB7
:1031D0000F4F47274F4F0F0F47270F4F4F470F37BF
:1031E0005F571F2F3F3E2F3F3F36121B3F2D1E04C0
:1031F000001209004704000001050D0D0C003F37C7
:103200002F67574F3F372F275F4F3F372F27574F96
:103210003F372F5F5F573F3F2F2F2F373F3F3F3FB6
:103220003F3F1212121212090000000000004F0F5F
:103230004F471F364F074F471736474F47471F3FE8
:10324000571F2F373F2C3F3F3E2D12002D1B0100F3
:1032500000000000000000000000000000000A4420
:10326000000000000A04000000000A440000000002
:10327000010400000000020C00000000020E030226
:103280000B0300030C04040C00000000000000030A
:103290000400000000030C00000000030500000013
:1032A00000030C00000000020C000000020D0500ED
:1032B0000000040C020000000000000000000000FC
:1032C00000000000000000000000000000000000FE
:1032D00000000000000000000000000000000009E5
:1032E00000000000000000000000000000000000DE
:1032F00000000002000000000002000000000002C8
:1033000000000000000200000000000200000000B9
:10331000000200000000000100000000010D0C0090
:10332000000000000400000000000C00000000008D
:103330000400000000000C00000000000400000079
:1033400000000D000000000005000000000000006B
:103350000009000100000000000000000000000063
:10336000000000000000000000000001000000005C
:1033700000000000000000000000000000007637A0
:103380007777776F2E77777F7F7F6E3777777F7747
:103390003677773F7F7F3677377F3F7F2F373737D7
:1033A0003F3F3737377F7F771E263737373F2F2FFF
:1033B000274D00007F7F6F0D00007F7F770D00009D
:1033C0007F7F7F4501013F3F371716177F3F7F3FC4
:1033D0007F3F3F373F3F3F3F7F3F373F3F7F0100CA
:1033E00000080100000100010000000000000000D2
:1033F0000101010101011617175717173F7F3F7F82
:103400007F7F3F3F7F7F3F7F7F7F7F377F770900D1
:103410000801080008010800090900000000000078
:1034200001010101010117571717170F7F7F7777E8
:1034300077777F7F7F7F7F7F7F3777377777000949
:103440000001080100000900010808000008000050
:103450000101010101010E0F0F1617172F27272752
:10346000272777776F6F67277F777F77776F0000E2
:103470000100000001080009010000000000000038
:10348000010101010101175717571757272F2F77F0
:1034900037771F1E1F1E27276F6F671F1F1F000014
:1034A0000000000001000100010000000000000019
:1034B00001010101010117571717175777377737A0
:1034C0007777272F2F2F37771F1F2767272F00008A
:1034D0000000000401000100000C000000000004D6
:1034E0000101010100041717170F0E0F7777776F8F
:1034F000675F77777777776F2F377777777F57178C
:103500000F050200175516570F0E171516161657EA
:103510004E154D155616150D0D150D161E1E1615AC
:10352000150D6F6F6F675E16777F7737776F0000C7
:1035300000000000030100000000570E030100001E
:103540001E17574F040216561E17570F151516163D
:103550001E1F150D0D151656671E154D0D0D00007D
:10356000000000000001000000000000000000005A
:103570000101010101010E0E0E4F0E0F171F17164C
:1035800056161F1E5F1F1F5E16165F1F5F5F00002F
:10359000000000000000000001000000000000002A
:1035A0000101010101010F0F0F0E0F0F1E5F1F5FC1
:1035B0006767161E1E1E1E1E1F5F5E165E1E010022
:1035C00000000000000000000000000000000000FB
:1035D0000101010102010F4E0F0E0E4E5F1F5E5ED4
:1035E000165626661E5E5E165E1F5F5E1E5E01003C
:1035F0000000000000000000020D000002050E0D9A
:10360000020D0E4D03020F4E0C030B0B150C0D0C8F
:10361000040B55550D4C0C0356154D0C0C0C0204A7
:103620000E0E0B0D4E0E0C030B0B03020B03030BC4
:10363000030303030303030B030B0B03040B0B0331
:10364000030B0B03030B03020B03030202024E0DD9
:1036500004010000030C4D0E0402030201020C0DD4
:10366000020201010001020109010101020201013E
:103670000101020202090100020A01010109000020
:103680000000000000000000000005020000000033
:10369000040D0D030202000003050D0401000000EB
:1036A0000000010000000000000000000000000019
:1036B000000000000000000000000000000000000A
:1036C0000202020202020D050D040D0500000000B9
:1036D00000000000000000000000000000000000EA
:1036E00000000000000000000000000000000000DA
:1036F000020202020A020D0D050D050D0000000078
:1037000000000000000000000000000000000000B9
:1037100000000000000000000000000000000000A9
:1037200002020A02034D0D050D0D0D0200000000FE
:103730000000000000000000000000000000000089
:103740000000020D0000030D4D04030D4D030000A9
:103750000D03000000000000000000000000000950
:1037600001090001090101010109010101094D04DB
:1037700000020D0500000000000200010801000029
:103780000000000100010000000109000000080124
:1037900000010901010001000100080100010C0104
:1037A00000000001040D050200000001040D0D03DE
:1037B00009000001030D00010900000009000101DA
:1037C00001090101010100000009000801090001CF
:1037D00000000100000000080000000000000000E0
:1037E0000D0302020202030D0D050D05000001018B
:1037F00001010100000000000000010000080000BD
:1038000000000000090000000000000000000000AF
:103810000202020202020D050D050D050101010063
:103820000101000000010000010001000109000089
:103830000000000000000000000000000000000088
:103840000202020202020D0D050D0D05010101002B
:103850000000090000010100010009000809000042
:103860000000000000000000000000000000030D48
:10387000020203050D030D0D0D0200000000000003
:103880000100000001090900010109010101000016
:10389000020D4D04020D050400000D0300000000A0
:1038A0000000000000000000000000000000000018
:1038B00000000108010001000901010901090000DF
:1038C00000000000000000000000000000000000F8
:1038D00000000000000000000000000000000000E8
:1038E00000000000000009000000000000000000CF
:1038F00000000000000000000000000000000000C8
:1039000000000000000000000000000000000000B7
:103910000100000000000800000000000100151573
:103920001E1E27271E1F161F1F1F16571F5F5F1FF4
:10393000161616571F1F66665F161716266F6F77C7
:103940006F672626272F77772E2F2F2F272F2F2FA2
:103950007737773F5F1F1F1F6F6F1F1F1F1F1F5F6F
:103960005F275F5F5F1F17171617175F5F5E1716DA
:103970000E0E7777B767675F2F6F777777773F7F21
:103980003F7F373F2F377F3F7F3F1F1E27B7FFFF08
:103990005F5F17A6ADFF5F5F5F1715FF0E17575FDD
:1039A0005FFF160E0E0E17FF6F6F67671FFF373F23
:1039B00037377F3F3F3F7F3F3F3FFFFF763F7F7F70
:1039C000F6A4532E7737AC03155F1F67A416671F45
:1039D0001F5FAC155F676767AC0D1F5F1F27373F21
:1039E0007F777F777F3F3F3F7F3F7F7FFFB6367F89
:1039F0007737FFE424BF2767FFAD257F1F1FFFED4B
:103A00001D775F27FFED146F2727FFAC156F7F77BA
:103A1000776F2F277F7F7F777777FF76377F7F7F5F
:103A2000FF5C367F7777FF64367F3F7FFF64363FEA
:103A30003F3FFF642E3F3F3FFF642637373727273E
:103A40001F1F27276F2F2F2727277777FFFFFFB607
:103A5000777FFFF6A49A3F7FFFA41B2D3F7FFFA433
:103A60002E7F3F3FFFA52E3F377FFFA42D3F2F2FF7
:103A7000377777772727272727271E271F27271FEF
:103A80005D776F6F6F677777773777373777377708
:103A900037773737372F2F2F77377737773777774E
:103AA0003F7737772F2F6F2F37371E1F1F67272737
:103AB00067271F1F1F67376F6F272727773777778E
:103AC0002F6F2F6F2F6F7777773777376F2F776F4E
:103AD000261E150C7777772F6F662F2F37BFFFFFC6
:103AE000272FB7FFA4AD2727BFF60A6E271FB7F50C
:103AF000156F776FFFF51C6F7777BFFFAE770D4DB2
:103B0000165F1F6715150D0D1616B72E265D150DC0
:103B1000FF763F372E5EFFA52D3F7F36FE5B1527D4
:103B20002E7E65141E5F272F37776F27272767673D
:103B30001F5F1F1E5F671F67675F161667FFFFF730
:103B40000D16FFF69CFF2666FF5B03B73E7FFF6402
:103B50001DB7367EFF641DBF262EFF6414B71F1EDF
:103B60001E5E1E5E1F5E1E1E5E1E5E175616165ED3
:103B7000F60E5716560EFD0C1756164EF6131E1659
:103B80001615F5141E1E5616FE0C16561E561E5DF4
:103B900015154C0C5F1E5E5E15141EAFFF5556FFCB
:103BA0000EAFFF5416FF0DA7FE5456FF0567FF54D6
:103BB00016FF0EA6FF540DFF16AFFF5416FF030AA3
:103BC000020A02090C0B02020A01AE030C020201F6
:103BD000F5034C030201AD0B4D0B0201AD0B550C6F
:103BE0000B02AD0B4D0B0201AD0B0C0B02000101E2
:103BF00001090000010A0901090901B6F60053FF95
:103C000001FFFF005BFF01F7FE0053FF01B6FF005D
:103C100052FF01B6FF090AFF00AEFFAD52FF0000E0
:103C2000000000000000000000005B000000000039
:103C30005B00000000005B00000000005B00000073
:103C400000005B00000000005B00000000000000BE
:103C50000000000000090909000009FFFFFFAD098D
:103C600052FFF6ADFFF60AFF6400AEFF09FFA400A5
:103C7000ADFF0AFFA400ADFF52FFA400ADFF00009E
:103C800000000000000100000001000001000052DF
:103C90000000090000120900000101000A000109EA
:103CA00001010A0102020A020A01020202020000E4
:103CB00000000000090909090901FFFFFFFFF600E4
:103CC000ADFFFFB6640100A5FF09000200ADFF4A89
:103CD000010201A5FF0A010201ADFF4A0102000134
:103CE0000109010109010901090101010109F7B6F1
:103CF000010A0102B6FF0A0202010AFF02020201E2
:103D00000AFF020A02010AFF0A0202010AFF00007A
:103D10000001080009530A000109F7FFFF530001E1
:103D2000FFA4FFFF0900AD00A5FF5200AD00A5FFF5
:103D30004A00AD0065FF5200AD00A5FF5200010032
:103D40000001010000010009000001000100006401
:103D50000109010053FF090101005CFF010101009D
:103D60005CFF010901005BFF010101005CFF000035
:103D700000090001525309000000FFFFF60900008E
:103D8000B6A4FFAD00015200FFFF01015300FFF692
:103D900000015300FFF601015300FFF60001000986
:103DA000000000000100010800000900000100649B
:103DB000010101005BFF01010900AEFF09010100E3
:103DC000B6FF01090100AEFF01010100AEFF0000D6
:103DD00000000100090909090109FFFFFF5C00015A
:103DE000F6B6FFA400010001F65B0002090101091B
:103DF000020209010101020A09010902090201097D
:103E000001010001010109090A0909010053FF53D9
:103E10000101005CFF530202015CFF5B0201015CD7
:103E2000FF520202015CFF4A0202015CFFAD010188
:103E30000001000001090A01090000B6F6000000B7
:103E400000FFFF00000100F7FE00010101FFF60086
:103E5000010165FF5B000901FFAD000202010000E6
:103E60000000000000000000000000000000000052
:103E70000101000000000009000000000101010034
:103E80000000010901090000090101000000000013
:103E90000000000000000800000001000000000019
:103EA0000000000000010000000009080000000000
:103EB00000000000000000000000000000001E27BD
:103EC0002F2F372F15161E27272F16161616161FDB
:103ED000161F1F5F1F171F1F1F271F2716161F1FC5
:103EE0001F1F0D160E1617560D0E4D154E162F2FA1
:103EF0002F2F2F2F2F77377737371E1F27272F3753
:103F00001F171F1E1F271F1F1F1F1F161F5F1F1F8B
:103F10001F1F171F1F1F1F1F1616551616562F3748
:103F20002F3777FF372F2F2F2FFF37777F7737FFE9
:103F3000272F37377FFF1F1E1F2727FF1F1F17172A
:103F40001FFF1F1F1F1F1FFF171F1F171FFFA41D6E
:103F5000671F1F5FA425776F2F27A41D372F3737C3
:103F6000A425372F2F2FA4257F7F7777AC152F2FF0
:103F7000377FAC0C1F1E1E26AC0D1F1616161F27F2
:103F8000F7FFB7BF1F1FB7FFF5F6372FFFF50B661B
:103F90002F2FFFEC1D77372FFFED1C777F7FFFADB5
:103FA000257F2E37FFED2DBF151DBFED247FFF5C54
:103FB0001E27272FFF5C1E1F1F1FFF5C161F5F1F82
:103FC000FF641E671F1EFF6426776F6FFF5C252E40
:103FD0002E77FF642E2F2626FF64767F77372F37C4
:103FE000FFAD2E7F1F27FFFFFFB6161FFFF6A4535E
:103FF0001F27FFA414262767FFA426377777FFA47F
:104000002537262EFFA5257F2E2EFFA425373F77A7
:104010003F7F777F2D3F3F373F7F1D3737373F3F0C
:1040200067272627272F372F271E1E1E373737379C
:104030002F67773737373737377F3F3F3736377711
:10404000377737777F7F3F7F37373F3F3F3F7F7FF0
:10405000377F3F7F7F7F1E276F77773F2727276731
:104060006F37372F2F2F37772E2E262F6F2F2F3783
:1040700077FFF676772F2F77FFAE3F372F2FFFFE94
:104080007F372F2767FF773737271EB7773F3737B9
:104090002F6F377F7FBF37377737FFF51C7F7F7FE5
:1040A0007F77776F3E7F7F7F77776E3F3F3F3F37EA
:1040B000B62E3F7F3F77FF6D373F777FFFA52D3FC0
:1040C0003F77FFA42E3F7F37FFA52D7F7F7F276F90
:1040D000FFA40CB77777FF6415B72F6FFFA416BF47
:1040E0006F6FFF641EFF3777FFA416BF3777FF643B
:1040F00016B77777FFA415B77F77FF6415B7FE0B68
:104100001616165EFD0C0E550D15F5141616151522
:10411000F5141F1E5616F5141F5F1616FD141F17F3
:104120001E56FD0C161E1616FE0C161D551616AF45
:10413000FE5416FF15AFFF5416FF0D6FFF5416FF08
:1041400016AFFE541EFF0E67FF5C1EFF1667FF5C76
:104150001DFF166FFF530CFF26BFFF5315FFAD0B5E
:104160004D0B0A0AAD0B0C0B1312ED020B0A0A01E0
:10417000AD020A010000AD0A0B010101F5130A00AE
:104180000100B50A0B0A0909F50B13135B5C09ADB5
:10419000FFFFAEFF01B6F7FEFFFF00F6AE5BFFFFCD
:1041A00000B7FE00ADFF00F6FF0053FF01B6FF00B1
:1041B00053FF01F6FE0154FF13B7F60255FF5B00F3
:1041C000000101005B00010009005B00000000002D
:1041D0005B00000000005C00010109025B000A0BAB
:1041E0000C035C020B0B0B029C030C0C0B030AFF71
:1041F000A400ADFF4AFFA400ADFF09FFA400AEFF7D
:1042000012FFA400AEFF4CFFA401AEFF14FFA401F7
:10421000AEFF0BFFA400AEFF13FFA400A6FF0A022F
:10422000020B020A4A01020202020A010A02090200
:104230000A01020102010A0101090A010A0202013E
:1042400001014A020A0100000A010100000001A563
:10425000FF0A010101ADFF4A010201A5FF0A0101A8
:1042600000ADFF4A000100A5FF09000000A5FF4ABC
:10427000000000A4FF0A000100A5FF4900000101A1
:1042800009010AFF090A01000AFF0101010009FFF3
:104290000001000009FF0000000009FF000100000C
:1042A00009FF0000000009FF0009000009FFAD0040
:1042B00064FF5200AD00AEFF0A00FFFFFFAD00003B
:1042C000F7ADFFB60000AD00ADFF5200AD0064FFDA
:1042D0005200AD00A4FF5200AD00A4FF520000093F
:1042E00000005BFF000000005BFF000100005BFFBF
:1042F000000000005BFF000000005BFF0001000009
:104300005BFF000000005BFF000900005BFF530043
:10431000FFF601005200FFF60001AD5BFFF6000062
:10432000FFFFFFB60000A452FFF600005200FFF7A7
:1043300000005300F7FE01005B00FFF700090109D0
:104340000100AEFF00000100AEFF01090000ADFF5B
:1043500000000000AEFF00000000ADFF0101000002
:10436000AEFF09090100ADFF02020900AEFF09011D
:10437000010101010901010901010900010109010E
:1043800009010901010109000101090109000101F7
:1043900001010900000009010000645300010A0A3C
:1043A000015CFFFF02010154FFFF090A015CFFFFEE
:1043B0000202015CFFF60A01015CFF53010A015C85
:1043C000FF530A02025CFF5B010A025CFF53FE0915
:1043D000020202095C000A020101F602010A090157
:1043E000FFAD01020201B6FF530109010BFFB60147
:1043F000010101F7FE01010901B7FE0101010101FF
:10440000000100010901090109010101010901007F
:10441000090109010101010101010901090101016C
:10442000090101090109010901010901010900014D
:10443000000000000901000900010108010101015B
:10444000090101010109010009010801090101082F
:104450000109010901010A0B0101010A0C0D0C0CF3
:104460000D0D15160101090A020B000000000000E5
:10447000000000000000000000000000000000003C
:104480000000000000000000000000000000164DC9
:10449000151656170B0C0D1516160101010A0B0BFC
:1044A000000000000001000000000000000000000B
:1044B00000000000000000000000000000001616D0
:1044C000171F1FFF1E1E1F1F1FFF0C14151515A5FC
:1044D00001020A0A0A0A00000000000100000000B0
:1044E0000000000100000000000000000000AC150A
:1044F0001F1F1F17ED15271F271F5A141E1E1E1ED4
:10450000020B0B0B0B0B0901010A0A0A0000000049
:104510000000000000000100000001000008161665
:10452000FFF5132F1F1FFFFE035E1E1F6E9B0C5F08
:104530000C0C0C0B15150A0A0A0B0A0B00000109DA
:104540000109000000000000000000000000FF64FE
:104550002E3F7F7FFF5C14262E2FA5530C151414BD
:104560000C0C150C0B0B0B0C0C0C0C0B090A0A1386
:10457000141D0000000009090009000000007F77F9
:10458000FFAD2537377FFFFFFFF61E276EA4AC5225
:104590000B1414141D1D0B0C14151E1E5D1D1E2660
:1045A0002626090912131C1C0000000000002E36EC
:1045B000373F3E36252E2E2D3636253F37362E36C2
:1045C0002F37373737371E1E262F373726262E2F01
:1045D000373F241D2525252E0008010109092E2617
:1045E00026272F6F36362F2F2F37353636362E2F7C
:1045F00037363536352D373737362E2E7F3F773FD6
:1046000077372E2E2E2E2E6E010909090109373714
:10461000BFF66D77773F7FFFFFFF37773777B5A41A
:10462000252E2E37261D2D2525252E6F37372F2693
:1046300025252F2F6F2F2F2F0A0A0A13141CFFA4D2
:10464000253F373FF612777F7F3F12257F77777EB2
:104650002E772F2F37362F2F6F2F262F262E2F6FA7
:104660006F2F262626262E661D1D1D1D15153F7F24
:10467000FFAD1EFF3F3FBFFFFFFF3E3E37B6AC5BC7
:1046800036363F2F1D0C2F372F2F67672F27671EBA
:104690001E1D672F661E666D15141D1D1D6DFE0BFC
:1046A000165D65159B0365145C6D0B65640C0C6DE4
:1046B000266D6465151D6E6C645C1D1D6E75651D33
:1046C0001D1D6D766E1E1516B676776F675E2677A2
:1046D000FF5D1EFF2627FFFFFFFF76266FB5AC5A52
:1046E0006E661E1D14152525151F5F171D15151641
:1046F00016565F1657560E0E1656170E5E55AD021D
:104700001414656D52141D1D1D250B1D1E1D1E65E7
:1047100015155E5E666616561E5E1E5E0E561655B4
:1047200015564E164E0E0E150E560E4E0E551DF704
:10473000F5025EFF25FFFE0B66FF1DAE5B0B1EA59F
:104740001E1414256524165E5E6D6D651616656D66
:1047500065155D656D655E1E1D5E1D1D266E5C0327
:104760000C0C0B039C040C0B0B0253140C0B0B03D3
:10477000245C140C14145D14145D5C14151564642D
:104780001403256D6C54040B76B46516150C4CFFA0
:10479000AD0AF7FF14FFFFFFFF5B0B65A4A45300F6
:1047A0000B0201010101030B020A0A0903020B02B9
:1047B000020A0B0B0B0A0A010B0C0C0B0B0A09016A
:1047C00001000100000100000000010109000000DB
:1047D00009000000000901010900010001090100B0
:1047E000080009010900000001090000000000A5FF
:1047F000FF0A000000ADFF5200000053A4090000B2
:10480000000000000000000000090000000001009E
:104810000100010008000801000000010000000084
:10482000000009FF0100000009FF0009000009A4C1
:104830000900000000000000010001000008000065
:104840000801000108010000000000000000AD00A8
:1048500064FF5200F600A5FF52005B0052A409005D
:104860000000000000000000000000090000090135
:10487000000009000000080100000800010000001D
:1048800000005BFF000000005CFF0001000012A4BC
:104890000008000000000000000000000001080106
:1048A0000009080000080100000108010000530091
:1048B000F7FE00095B00FFFF01014A00646401018B
:1048C00000000000090100090109010000000101C8
:1048D00009010801080100090100010009010A019C
:1048E0000100ADFF0901000052FF00010901005362
:1048F00008010109010001010901090101090A0278
:104900000A0B0101010A030B090A0A030B0B4A53A4
:10491000FFA40001FFFFFF090002B6AD52010A0A21
:104920000101020B0B0B020B0B0C0B0C0B0C0C0CF8
:104930000C0C0C0C0D4D0D4D0C0C4D0C0C0C0902FF
:104940000153FF5B0A0A015CFF5B020A0214A44ADE
:104950000B0B0B0302030C0C0B0B0B0B0C0B030BC5
:104960000C0C0C0C0C0B0B0B0C0C4D0D4D0D01F726
:10497000F601020A01FFFF01020202655B02020A60
:104980000B02020B0B0B0B0B0C0B0B0C0C0D0C0B83
:104990000B0B0B0B0B030B024D0C0C0C0C0B020A3C
:1049A000020A0A02020202020A030A0A0B0A0A0A9D
:1049B0000B1313120A0A1414140B0B0B030B0B0C1E
:1049C000140D0A020B0B0C0D0B0B020A020A0A0B48
:1049D0000C0D55160B0C561616560B0C1516160DFF
:1049E0000B0B0D0D4D0C0B0B0C4C0D0C0C0C0B0B89
:1049F0000B0C4D0D4D0D4D0C0B0C0C0C0D0D00004A
:104A000000000000000000000000000000000000A6
:104A100000000000000000000009FF9C00000009E9
:104A2000F69C0000000000000000000000000000F4
:104A3000010000010000080000000000000000006C
:104A400000010000010000ADED00000000ADA40079
:104A50000000000000000100000000000000000055
:104A60000008010000000000000100000000000834
:104A700000000000000000000001005B00000000DA
:104A8000005B0000000000000000000000000108C2
:104A90000900010000000000080000000000010003
:104AA000000009000000F60900000000AD01000050
:104AB00000000000000000000000000000000900ED
:104AC00000000000000000000000000000000000E6
:104AD000000000000000F65B0052B64AAD5B000A21
:104AE000AD09000000000000000000000000000010
:104AF00000000000010801000000000000000000AC
:104B000000000000000000005C6600000000545D32
:104B10000000000000000000000000000000000095
:104B20000000000000000000000000000000000085
:104B300000000000000100005BA5000000005B5CBD
:104B40000000000000000000000000000000000065
:104B50000000000000000000000000000000000055
:104B60000000000000000000A45B000000005B5398
:104B70000000000000000000000000000000000035
:104B80000000000000000000000000000000000025
:104B90000000000001005C530000000054130000FE
:104BA00000000000000000000000000100000109FA
:104BB0000A09090A000000000000000000000000CF
:104BC000000000010000005B6400000000525B0078
:104BD00000000000000000000000000100010101D1
:104BE000090A0B5B0000001265240000001B766DB3
:104BF0000000005B2E755B5209641B65524A095C1C
:104C0000636D00000000646300000000005A742E11
:104C10006E776F5E6C6D5C1D5F566D6C5B5E5F1ECC
:104C2000756C5C5E5E566CB5645C1E146C6D6C5C81
:104C30005D5364AD6C5B5C12636C635B5B5A16170F
:104C4000570E55655616160D15641E55154D1E2D1D
:104C500054655E15262E515C5E1D2E2F52555D6DDE
:104C60002E26535E2565262E5B5E5D652D66150539
:104C70000D0E55155D054D155D5565150D1D245D14
:104C80002E261E1D655C2626271D1D1D2E2F261E69
:104C90005D262E2F271D5C651E2626151616161658
:104CA0005E256E6E0D1516662F2E4D0D4D16262F98
:104CB00015560D161F261D0F571F67661E0D575FD1
:104CC0006765261516676F655F175F676F65756D9A
:104CD000550E16566F6E651D140C367675745C1580
:104CE0006C6D24631B0A631C64625A00635B0A09CF
:104CF0004900626C5100000062756C510900164E4B
:104D00000D4D0D0D0D15160D0D0D5D1E5E5D0C0B83
:104D100013120A0A0A0A0000000009090009090022
:104D200009090000000000000152090109090C0BEB
:104D30000A0909090C0C140C0B0A0B0B0B0B0A09C2
:104D40000A09010100000009080908000001010822
:104D5000010000080000090912090900090001000A
:104D600000000000090A0A0A090901090A0A0A0AD8
:104D7000000000000000010900000001000900001F
:104D80000008010001000000000000000000000118
:104D900000000900090908000009090909080000C4
:104DA0000000000000000000000100000100000100
:104DB00000000009090000000000010000000000E0
:104DC00001000800000800000100000000000000D1
:104DD00000000000000000000001000000000900C9
:104DE00000000000080100000000000000000800B2
:104DF00000000801000000010008000000000000A1
:104E000000000000000000000000000000000000A2
:104E10000000000001000000000009090000000976
:104E20000901010900000008010900000000080054
:104E3000000000000001000900000100000900005E
:104E400000000000000009000100000001090A1331
:104E50000B14140C09121213141400000000090999
:104E60000000000000000000010001080009090026
:104E700009090100000900000008010901094D0DA0
:104E80000C0C0B0A1555150C0C0B0A0B0B0C0B0B11
:104E900000000000000001000000090909000109EC
:104EA00009090000000000000009090901090A0BB6
:104EB0000C0C0C0C0B0C0C0C0C0C0B0B0B0B0C0C37
:104EC00000000000000100090909000900094A0961
:104ED000004A0000000000000909000900000D0D53
:104EE0004D154D160C0C0D150D150C141515140B38
:104EF00001090109010900000900080000004A0930
:104F00000A090000000000000000000000004D0D34
:104F10000C0B0B0C15140B0B0B0B0B0A09010101ED
:104F20000901010000000009000009090952000000
:104F30004A520000000000000000000000000C0CBD
:104F40000C0C0C140B0C0C0C0C0C000101010902D4
:104F50000000000000000909000952005252000937
:104F60005B000000000000000000000000000000E6
:104F70000000000000000000000000000000000031
:104F80000000000000000000000000010000000020
:104F90000009000000000000000000000000000008
:104FA0000000000000000000000000000000000001
:104FB00000000000000000000000000000000000F1
:104FC00000000000000000000000000001000000E0
:104FD00000000900000000000001000000000000C7
:104FE00000000000000000000000000000000001C0
:104FF00000000000000000000000000000010000B0
:10500000000000010000000000000000000000009F
:105010000000000000000000000000000000000090
:105020000000000000000000000000000000000080
:105030000000000000000000000000000000000070
:105040000000000000000000000000000000000060
:10505000000000010000000012F7520000000000F4
:105060000000000000000000000000000000000040
:105070000000000000000000000000000000000030
:105080000000005BA400000000A4AD0000000000D0
:105090000000000000000900000000000000000007
:1050A00000000000000000010000000000000953A3
:1050B000090000000AAE0900000000010000000025
:1050C00000000000000000000000000000000000E0
:1050D00000000000000000000000000000005CADC7
:1050E000000000005253000000000000000000001B
:1050F00000000000000000000000000000000000B0
:105100000000000000000000005CA5000000005B43
:105110005C0000000000000000000000000009002A
:10512000000008000000000000000000090000006E
:10513000000000520900000000A55B000000000014
:10514000000000000100000000000000000000005E
:105150000009001100090000010900000000010918
:10516000095C00000009095B000000090000000064
:1051700000010000090000000001000000005A5A70
:105180005B5B5A52115A5A5A5B5A095A5A5A5A5226
:105190005A5A63635B525B636362635252525A5959
:1051A0005A630009090909630900000009525C5E9D
:1051B0005D6565655C5E151D155D5C5E5E5655162C
:1051C0005C66651E5E1E5C6665665E5D6D6E66662F
:1051D0006566AD666666656E12145E266E751D1D8B
:1051E000655E174F1D1D165F170F1D1E17175757AA
:1051F00056165F5F1F1F1E5E1E5E5E66665E6666FB
:105200006E6E6D66266E6E6E6E266666666E4F17E5
:105210005F27676D175F1F67266C5F5F676F6D5253
:105220005E666F6D75646666656CB46C6E6D6C6D94
:10523000626275B5B564515A6D63635109096B6358
:1052400064094A0963515A08010951120901010010
:10525000091149090009635A5B52094A6B645B09E9
:1052600000005A524A000000090000004A0A080AD9
:105270000900090000000000000000000900094AC0
:1052800000004A09010900000000000000000009B8
:10529000004A0900125209005200010000000000FB
:1052A00000000000000009090900090009000000D1
:1052B00000000000090900090909000009090000AF
:1052C00000090000000909000009090001000009A7
:1052D00000000000000900000000090000000000BC
:1052E000010900090000000009090001090000008F
:1052F000090001000900000909010901000000007E
:10530000000000000A00000009090B0B0000010961
:10531000000D0A000800000C0D000009000D0D0032
:10532000000000560C0000000A5F020000000000B0
:105330000000000000010000000000090000000063
:105340000000080100000100010009000801000040
:10535000000000000000000B00000000000D000035
:105360000000000000000000010900000000000033
:105370000000010A0100000C0C0B01000D56020098
:1053800000005700000009010B00000009000000A8
:1053900000010009000000000000000900000000FA
:1053A00000000001090000000009005B0009010085
:1053B000005B000000115A5B000009B36B63000042
:1053C00000000900000100000009000009090100B7
:1053D0000000000900001200090909096E645B5A07
:1053E0005A096D6E646363116465645C1B5B09003C
:1053F0000108010909005209000100086C09090AA5
:10540000095B6509540100646D651D0A00636D64E4
:105410005B64125A63635B635A525B5C125B0909FB
:105420000909015200000100090A090909000000E8
:105430000049010009520900095B65645A5A636D0D
:105440006D125A636C6C6409125B6463640A090030
:105450000909090009004A49520000000000000043
:1054600009090000000009130909090000000049AA
:105470000909000000000000521209120900000092
:1054800000000000015200120900000900520A0049
:1054900000000000000001000000000052000009B0
:1054A000090009000012124A000000000009000073
:1054B000000000000909000000005352000A535286
:1054C00000000009091200000000000000000000B8
:1054D00000005200090900000900525B00090000A9
:1054E00000000000005B5B00000000FFFF00000008
:1054F0000052520000000000000000000000000008
:105500000000000000000000000000000000000992
:105510001B0900000024BF5B0000001265120000A0
:10552000000000000000000000000000000000007B
:10553000000000000000000000000000000000006B
:105540000AAF520000000AAD0A000000000000008F
:10555000000000000000000000000000000000004B
:10556000000000000000000000000000000000003B
:105570000000000000010000000000000000010029
:10558000000000000000000000000000000000001B
:10559000000000000000000000000000000109AD54
:1055A00009000000000000000000000000000000F2
:1055B00000000000000000000000000000000000EB
:1055C00000000000010000000000000000000000DA
:1055D00000000000000000000000000000000000CB
:1055E00000000001000000000000000000000000BA
:1055F00000000000000000000000000000000000AB
:10560000000000000000000000000000000000009A
:105610000000000000000100000100000000000088
:105620000000000000000008095A09000001000005
:10563000000000000000000000000000000000006A
:10564000000000000000000000000000000000005A
:10565000000A530900000009AD49000000000000E5
:105660000000010000010800000000000000000030
:10567000000000000000000000125C005D08000A4D
:1056800064005B000000000000000000000001005A
:1056900000000000000000000000000000000052B8
:1056A0000952000000644A6400000000000000008D
:1056B00000000000000000000000000000090000E1
:1056C0000000125200095A5A081109005A5B0009D9
:1056D0005200000008000000000000000000000070
:1056E0000000000000000000000100010900515B03
:1056F000661E6D75595A651D5C7409080A0D5D6555
:105700000000010D550D0000014D0D0D0000000DB4
:105710004E0D0052090C0E4D096409044E0D6E2603
:1057200066656566655D5D5D645D5D5E0E155D0D5E
:105730000D4E0E4E0D4E4E0D0E0E0E0D0D4E4D0E0F
:105740004E0D0D0D0E4D0E0E0D0D4D0E0E4D5B0042
:10575000000000000A00000109000B0000095300CE
:105760000C00000000004D01000000000E0A0000C7
:1057700000004E0C000009000E0D01005309000A44
:1057800000000A09005200000000000000000000B4
:1057900000000000004A0000000A09090909004A47
:1057A00009004A520000000000000000010900004A
:1057B00000000000000000000A09000909000000C4
:1057C000094909000000090000000A090000000062
:1057D0000901004909000000000001000009094A10
:1057E000010009090000094900000000090A000938
:1057F00052090000000909000000014C0000000AE5
:10580000561F00000A571F17000A4F57174F000076
:105810000008000A00000001145700000B16574F43
:10582000530D5F574F02175F174F0B00174F4E0B6B
:1058300000004F0E020000094E0100000109570E42
:10584000000000000F01000000000A00000000003E
:10585000000000000000000100000100080100003D
:105860000000000008010000000000000900000026
:1058700000000956000000000257090000000A5706
:10588000000000000B57000000000C570000000053
:105890004D4F00000009174F0100000B4F4F020051
:1058A000000000000B00000000000A0000000000E3
:1058B0000B00000000090B00000000000B000000BE
:1058C000000003000009595A0B000009ABBD11523A
:1058D00000126364095A0900525C00005B5C1253B9
:1058E0005B6365655309A3F5A55C535151ABA46493
:1058F0005A52ABAB64645A54AB6B63A264165C5CE3
:105900001B1353121C12535D135112545E1E5C5133
:105910000B5E1E551E15541656165656150E0E0DB8
:105920001616160E4E4E0E4E0E4E0D0E4E0E5B12EF
:105930001209525B125251120A0A125C5D54125241
:105940005D5E5E1411511E16161E54145616561620
:105950001F5F0E0E4E0E4E160E4E0D4E0E0E5B536C
:10596000135B5312135A645B53120A125B135B5C92
:1059700011521253535B5D5E5E1411121E1E1E5DAA
:10598000535116561E1E5D134E16165E165E5B6351
:105990006D5200005B6C5A0009645B5B12536DB77B
:1059A00012636465AE6C521B5B65641212121B6C51
:1059B0005A1251125B1B5B5A145A125C6464010A3E
:1059C00009000000ADAD09000000B4640900090140
:1059D000090100005B090100000001001200000045
:1059E00000005B52000000005A0953520000000002
:1059F0000109000000000000010000000000090093
:105A000000000000000000535B4A09000009095B28
:105A1000090000000000000000000000000000007D
:105A20000000000000000000000000000000000076
:105A30000000000000000000000000000000000066
:105A40000000000000000A1200000000BFBF0000BC
:105A5000000000000100000100000000000800003C
:105A6000080100000000000000000000000100002C
:105A700009AD0008000009FF000000000000000060
:105A80000000000000000100000000000000000015
:105A900000000000000000000000000052000000B4
:105AA00000005B0000000000000000080100000092
:105AB00000000000000000000100000000000000E5
:105AC0000A5B090000005BFF0900000001090000FB
:105AD00000000000000000000000000000000000C6
