:100000000C94F8420C9466430C9466430C9466433B
:100010000C9466430C9466430C9466430C946643BC
:100020000C9466430C9466430C9466430C946643AC
:100030000C9466430C943A450C9477450C946643B3
:100040000C9466430C9466430C9466430C9466438C
:100050000C9466430C9466430C9466430C9466437C
:100060000C9466430C9466430C9466430C9466436C
:100070005A5501200101003808000000000000006E
:100080000000000000000000000000000000000070
:100090008100450027FF24FF2A902B1C210C22FB06
:1000A000850084008903888D81096F0244424700DE
:1000B0004501B083B300B10125118A4F8B03CE49AE
:1000C000D149EB4ACE4DC84DDA49DF49E449B74D35
:1000D000E749EA49ED49314A344A374A00408891B4
:1000E000D2E4ADB5B6BEBFFF00020400084A010865
:1000F0004E01085201085601085A0100F206050097
:1001000000FF00020000082D010832010836010836
:100110003B01084001084401084901084D0100F273
:1001200008050000FF00020200082F010831010845
:100130003301083601083801083A01083C0100FC87
:1001400010050000FF00020300073A010019000A31
:10015000DF0009AA0100FF1300FC0006000300F6FF
:100160000400F409050000FF0009AA000AA000022B
:10017000040007360000100106000000FD20050005
:1001800000FF00020300073C000A78000963010732
:100190004A04074D000202010A3C0600F80200F67C
:1001A0000600EC0607480A050000FF0001090007E9
:1001B0004001010C0100FC0100F40100E20805000F
:1001C00000FF00010900074001010C0100FC0100D3
:1001D000F40100E208050000FF00010900074001EA
:1001E000010C0100FC0100F40100E208050000FF21
:1001F00000010900074001010C0100FC0100F401AD
:1002000000E208050000FF00010900074001010CA1
:100210000100FC0100F40100E208050000FF0001FC
:100220000900074001010C0100FC0100F40100E29B
:1002300008050000FF00010900074001010C010052
:10024000FC0100F40100E208050000FF00010900C4
:10025000074001010C0100FC0100F40100E2080567
:100260000000FF00010900074001010C0100FC0132
:1002700000F40100E208050000FF000958000A9B95
:1002800000020400073B0000100006000000F81008
:10029000050000FF0009AA000AB4000204000736A6
:1002A0000000100106000000FD08050000FF000925
:1002B0008C000A5A00020401075A010002000600DD
:1002C0000000FA12050000FF0009B4000A5A0002FB
:1002D0000401075A0000050006000000FA1205009C
:1002E00000FF00017A00073C00000F0100F101004F
:1002F000F803050000FF00010B0007280000EC04D4
:10030000050000FF00010B0007280000EC040500B9
:1003100000FF00020200074C000019000AC7000994
:10032000A00100FF1300FC0006000300F60400F427
:1003300005050000FF000204000750000A2D000917
:10034000970000020100FD0400F90B050000FF000A
:100350000203000750000A780009630107540407EC
:1003600057000202010A3C0200F80000F60300EC0C
:100370000B050000FF0001050007420000E201003C
:10038000F10100F801050000FF0001080007370037
:1003900000E20100F10100F802050000FF00010188
:1003A0000007530000E208050000FF0002050007F7
:1003B00064000A790009580000F60400F105050000
:1003C00000FF000204000766000A4D00094D00000E
:1003D000FB0300EC05050000FF00020300073A01E3
:1003E0000019000ADF0009AA0100FF1300FC000643
:1003F000000300F60400F405050000FF00020400FD
:100400000743000ACB00099E0300FF0300FE030020
:10041000F90300F30B050000FF0002030007500082
:100420000A78000963010754040757000202010A11
:100430003C0200F80000F60300EC0B050000FF0092
:100440000204000743000ACB00099E0300FF0300DB
:10045000FE0300F90300F30B050000FF0002050096
:100460000766000A790009370000F60400EF000271
:100470000305050000FF000204000768000AB4003D
:10048000093C0000070100FB00095A0500F10002C9
:100490000500097805050005FF000112000742006C
:1004A00000E20100F10100F801050000FF00010574
:1004B0000007330000F108050000FF0001090007F4
:1004C000420000E20100F10100F801050000FF0018
:1004D00001160007900000E208050000FF0001017E
:1004E0000007280000F108050000FF0001030007D5
:1004F000280000EC08050000FF00010100073200A1
:1005000000E208050000FF0009D2000A6E000204A4
:100510000007740000100106000000FC2705000021
:10052000FF0009A9000A3E0002000007290000039D
:100530000202010000021000011400006400FF3CF0
:1005400000FE08050000FF00020400075E000A78B4
:10055000000963010754040757000202010A3C0620
:1005600000F80200F604074E0300EC0B050000FF44
:100570000001070007280000E208050000FF000155
:10058000020007280000E20100F101050000FF0061
:10059000010900074001010C0100FC0100F4010009
:1005A000E208050000FF0001050007600000E2010D
:1005B00000F10100F801050000FF00010100074003
:1005C0000000E20000FD2D050000FF000100000713
:1005D000440000EC0100FE0001010A050000FF00DC
:1005E000012C0007600000E20100FC00012710055B
:1005F0000000FF0001420007600000E20100FC0073
:10060000012D10050000FF0001010007900000E22D
:1006100008050000FF00010A0007900000E208053D
:100620000000FF0001010007280000E208050000AB
:10063000FF0001290007280000E208050000FF0074
:1006400001010007280000E208050000FF00020089
:10065000000742000019000AB40009A00100FF05CC
:1006600002020006001000FC0300F60400F4050579
:100670000000FF000204000716000A5A0009650086
:1006800000020400000600FD0307190800F90B052D
:100690000000FF000203000750000A780009630110
:1006A0000754040757000202010A3C1600F8000034
:1006B000F60607500600EC0B050000FF08050000D9
:1006C000FF00020200074C000019000AC70009A041
:1006D0000100FF1300FC0006000300F60400F4050F
:1006E000050000FF0009AA000AB400020400073652
:1006F0000000100106000000FD08050000FF0002D8
:100700000300073C000A7800096301074604074913
:10071000000202010A3C1600F80000F60300EC0B90
:10072000050000FF00020300074C000019000A58F2
:100730000009C80100F90700F60006000400F405EE
:10074000050000FF00020300073C000ADE00094329
:1007500001074A04074D000202010A3C0600F81492
:1007600000F60600EC0607480A050000FF0009AA8B
:10077000000AA00002040007360000100000FD205F
:10078000050000FF0001010007280000F108050036
:1007900000FF0001030007280000EC08050000FF2F
:1007A0000001010007320000E208050000FF00011F
:1007B000010007200000E20000FD2D050000FF0001
:1007C0000000E8000000000000000002010000003E
:1007D00000000000250100000000000000450100AD
:1007E000000000000000680100000000000000821E
:1007F0000100000000010000AB010000000001004A
:1008000000C20100000000010000D901000000004A
:10081000010000F0010000000001000007020000DC
:1008200000000100001E020000000001000035026F
:10083000000000000100004C020000000001000068
:100840006302000000000000007A020000000000C7
:100850000000940200000000000000AE0200000052
:1008600000010000C80200000000010000E20200D8
:10087000000000010000F60200000000010000047A
:100880000300000000000000120300000000000050
:10089000003503000000000000004F0300000000CE
:1008A0000100007503000000000100008903000042
:1008B00000000100009D0300000000000000AB03E9
:1008C00000000000000000C2030000000000000063
:1008D000D90300000000000000FC0300000000003D
:1008E00000001904000000000000003F04000000A8
:1008F000000000005C04000000000000007604001E
:10090000000000010000990400000000010000AD9B
:100910000400000000010000BB0400000000010012
:1009200000CF0400000000000000DD040000000013
:10093000000000DD0400000000000000DD040000F5
:100940000000010000DD0400000000010000EB04D5
:1009500000000000010000F9040000000000000099
:100960000705000000000000002105000000000055
:1009700000004705000000000100007005000000B5
:10098000000100007E05000000000100008F05004E
:10099000000000010000A60500000000010000BAF0
:1009A0000500000000010000CB0500000000010070
:1009B00000DF0500000000010000F305000000005A
:1009C00001000007060000000001000015060000FD
:1009D00000000100002306000000000100003106B5
:1009E000000000000100003F0600000000000000C1
:1009F0004D0600000000000000730600000000002B
:100A00000000930600000000000000BC060000008B
:100A100000000000C10600000000000000E4060025
:100A2000000000000000FE0600000000000000249E
:100A30000700000000000000440700000000000064
:100A4000006D0700000000010000840700000000A6
:100A5000010000920700000000010000A007000054
:100A60000000010000AE070000000000C01600C139
:100A70001700C21800C30000B0077F000B7F00B151
:100A8000077F000B7F00B2077F000B7F0092297F5A
:100A900000B3077F000B7F00931C7F00FF0601530C
:100AA00007922B7F00931B7F07921F7F0093197F74
:100AB00008921F7F0093197F07913A7F003E7F00C5
:100AC000921A7F0093197F0F913A7F003E7F009228
:100AD0001D7F00931A7F0F913A7F003E7F00921E88
:100AE0007F07931A7F0791397F003D7F00921F7F18
:100AF000089049500093197F07904A5000931B7F3C
:100B000008904E5000913A7F003E7F00931B7F0774
:100B10001C7F0F1B7F0E921F7F0093197F08921F6F
:100B20007F0093197F0792227F0093197F08B00BF3
:100B30007C070B780092217F00931A7F07B00B741B
:100B4000080B700092207F07B00B6C00931A7F088F
:100B5000B00B6800921F7F07B00B640093197F07EA
:100B6000B00B7F00904F5000931C7F081C7F071B29
:100B70007F0F1A7F001C7F071A7F08921F7F009348
:100B8000197F07921F7F0093197F07913A7F003EDC
:100B90007F00921A7F0093197F0F913A7F003E7F6A
:100BA00000921D7F00931A7F0FB00B7C00913A7F5B
:100BB000003E7F00921E7F07B00B7800931A7F08DB
:100BC000B00B740091397F003D7F00921F7F07B00A
:100BD0000B700093197F07B00B6C00931B7F08B05C
:100BE0000B6800913A7F003E7F00931B7F07B00B9C
:100BF0006400931C7F08B00B60070B5C00931B7FA5
:100C000007B00B58080B5400921F7F0093197F0701
:100C1000B00B5000921F7F0093197F08B00B4C005F
:100C200092227F0093197F07B00B48070B44009274
:100C3000217F00931A7F08B00B40070B3C009220E5
:100C40007F07B00B3800931A7F08B00B3400921F57
:100C50007F07B00B300093197F08B00B2C00931C5A
:100C60007F07B00B2800931C7F07B00B240092294C
:100C70007F00931B7F08B00B20070B1C0092297F7D
:100C800000931C7F08B00B1800922B7F00931A7FF3
:100C900007B00B7F0090437F00921F7F0093197F66
:100CA00007921F7F0093197F08913A7F003E7F00D3
:100CB000921A7F0093197F0F913A7F003E7F009236
:100CC0001D7F00931A7F0E913A7F003E7F00921E97
:100CD0007F08931A7F0791397F003D7F00921F7F25
:100CE0000793197F0890447F00931B7F07913A7FF9
:100CF000003E7F00931B7F0890477F00931C7F0E70
:100D000090487F00931B7F0F904A7F00921F7F00C7
:100D100093197F08921F7F0093197F0792227F000B
:100D200093197F0F92217F00931A7F0E92207F08E4
:100D3000931A7F07921F7F0893197F07904B7F00BC
:100D4000931C7F071C7F08904D7F00931B7F0F90A3
:100D50004B7F00931C7F071A7F07904A7F00921FEA
:100D60007F0093197F08921F7F0093197F07913AA4
:100D70007F003E7F00921A7F0093197F0F913A7F88
:100D8000003E7F00921D7F00931A7F0F913A7F00F3
:100D90003E7F00921E7F07931A7F0791397F003DA7
:100DA0007F00921F7F0893197F07904B7F00931B52
:100DB0007F08913A7F003E7F00931B7F07904A7F18
:100DC00000931C7F0F90487F00931B7F0E90477FFE
:100DD00000921F7F0093197F08921F7F0093197F55
:100DE0000792227F0093197F0F92217F00931A7F31
:100DF0000F90487F0092207F07931A7F0890477FCB
:100E000000921F7F0793197F071C7F081C7F0790A4
:100E1000447F0092297F00931B7F0F92297F0093CC
:100E20001C7F07922B7F00931A7F0890437F0092CC
:100E30001F7F0093197F07921F7F0093197F0791EF
:100E40003A7F003E7F00921A7F0093197F0F913AFC
:100E50007F003E7F00921D7F00931A7F0F913A7FA3
:100E6000003E7F00921E7F07931A7F0891397F0012
:100E70003D7F00921F7F0793197F0890447F009366
:100E80001B7F07913A7F003E7F00931B7F079047AF
:100E90007F00931C7F0F90487F00931B7F0F904A29
:100EA0007F00921F7F0093197F07921F7F00931985
:100EB0007F0892227F0093197F0E92217F00931A60
:100EC0007F0F92207F08931A7F07921F7F07931945
:100ED0007F08904B7F00931C7F071C7F07904D7FFE
:100EE00000931B7F0F904B7F00931C7F081A7F0796
:100EF000904D7F00921F7F0093197F07921F7F0004
:100F000093197F08913A7F003E7F00921A7F0093E9
:100F1000197F0F904F7F00913A7F003E7F00921D16
:100F20007F00931A7F0E904D7F00913A7F003E7FA5
:100F300000921E7F08931A7F07904B7F0091397FA4
:100F4000003D7F00921F7F0793197F08904A7F0022
:100F5000931B7F07913A7F003E7F00931B7F089091
:100F60004B7F00931C7F0E904A7F00931B7F0F9056
:100F7000487F00921F7F0093197F08921F7F009384
:100F8000197F0790477F0092227F0093197F0F926D
:100F9000217F00931A7F0F90447F0092207F079358
:100FA0001A7F0790437F00921F7F0893197F071CC9
:100FB0007F071C7F0892297F00931B7F0F92297F58
:100FC00000931C7F07922B7F00931A7F0790437F2B
:100FD00000921F7F0093197F0890447F00921F7F2B
:100FE0000093197F0790477F00913A7F003E7F0072
:100FF000921A7F0093197F0F90487F00913A7F00EB
:101000003E7F00921D7F00931A7F0F90477F0091D3
:101010003A7F003E7F00921E7F07931A7F0790441D
:101020007F0091397F003D7F00921F7F0893197FD9
:101030000790437F00931B7F08913A7F003E7F001B
:10104000931B7F071C7F0F90437F00931B7F0790AC
:10105000447F08477F00921F7F0093197F07921FEC
:101060007F0093197F0790487F0092227F00931999
:101070007F0F90477F0092217F00931A7F0F90444B
:101080007F0092207F07931A7F0890437F00921F72
:101090007F0793197F071C7F081C7F071B7F0F1C8E
:1010A0007F071A7F0890437F00921F7F0093197F6C
:1010B0000790447F00921F7F0093197F0790477F1E
:1010C00000913A7F003E7F00921A7F0093197F0FB4
:1010D00090487F00913A7F003E7F00921D7F0093F1
:1010E0001A7F0F90477F00913A7F003E7F00921E4B
:1010F0007F07931A7F0890447F0091397F003D7FDE
:1011000000921F7F0793197F0890437F00931B7FF6
:1011100007913A7F003E7F00931B7F071C7F0F9053
:10112000437F00931B7F0790447F08477F00921FF7
:101130007F0093197F07921F7F0093197F089048C3
:101140007F0092227F0093197F0E90477F009221AB
:101150007F00931A7F0F90447F0092207F08931A9C
:101160007F0790437F00921F7F0793197F081C7FA2
:10117000071C7F0892297F00931B7F0E92297F0016
:10118000931C7F08922B7F00931A7F0792247F0085
:1011900093197F0792247F0093197F0891467F005F
:1011A000437F00921F7F0093197F0791467F004382
:1011B0007F089048600092227F00931A7F07914633
:1011C0007F00437F07904A6000921F7F08931A7F39
:1011D00007904B600091467F00437F0092247F0878
:1011E000247F0093197F0790486000921F7F00932F
:1011F0001B7F0791467F00437F00931B7F08904F22
:10120000600092227F00931C7F0E92247F00931B2C
:101210007F0F904F600092267F0093197F089226DF
:101220007F0093197F07904E600091487F00457FB3
:101230000092217F0093197F0791487F00457F0826
:1012400092247F00931A7F0791487F00457F089082
:101250004A600092217F07931A7F0791487F0045DB
:101260007F0092267F08267F0093197F0792217FB7
:1012700000931C7F0791487F00457F00931C7F08E7
:1012800092247F00931B7F0F92267F00931C7F0781
:101290001A7F0792277F0093197F0892277F009378
:1012A000197F07914A7F00467F0092227F009319A1
:1012B0007F08914A7F00467F079048600092247F14
:1012C00000931A7F07914A7F00467F08904A60008A
:1012D00092227F07931A7F07904B6000914A7F000C
:1012E000467F0092277F08277F0093197F07904849
:1012F000600092227F00931B7F08914A7F00467F07
:1013000000931B7F07904F600092247F00931C7F07
:101310000F92277F00931B7F0F904F600091457FB6
:1013200000417F0092297F0093197F07197F079062
:101330004D600091457F00417F0092297F00931905
:101340007F0F91457F00417F0092297F00931A7F94
:101350000F9051600091457F00417F0092297F07E7
:10136000931A7F0891457F00427F00922A7F07935E
:10137000197F0791457F00427F00922A7F0F914598
:101380007F00427F00922A7F00931A7F0F91457F52
:1013900000427F00922A7F00931A7F071A7F0890ED
:1013A000516000931C7F07904F6000931B7F089053
:1013B0004E6000931B7F07904B6000931C7F07904B
:1013C0004E600092267F00931B7F08904B60009335
:1013D0001B7F07904A6000931C7F07904960009331
:1013E0001B7F08904A6000931B7F071C7F081B7FB0
:1013F000071B7F071C7F081A7F071B7F00FF060162
:10140000450F921F7F071F7F08913A7F003E7F00A4
:10141000921A7F07FF2F0000C01E00C11F00C220CC
:1014200000C30000B0077F00B2077F00077F009273
:10143000246E00B3077F0093246E00B1077F0091F4
:101440004C6E00FF0601530D93266E07266E079221
:10145000246E0093256E00914F6E0E93266E072624
:101460006E00914F6E0792216E0093246E00914C96
:101470006E0E92216E0093276E0091486E0D93259B
:101480006E0E246E07266E0792296E0093246E005E
:1014900091516E0793266E07276E0E92296E009368
:1014A000256E0091546E1493266E0091546E07922F
:1014B0002B6E0093266E0091566E0793266E079250
:1014C0002B6E0093276E0091586E0E93256E0E269C
:1014D0006E07266E0792246E0093266E00914C6E66
:1014E0000E93266E06246E0792246E0093256E00DE
:1014F000914F6E0E93246E07266E00914F6E0792E9
:101500002D6E0093246E00914C6E0E922D6E009302
:10151000266E0091486E0793246E07256E14922D57
:101520006E0093246E0792296E0093246E009151F1
:101530006E0793256E07276E0E92296E0093256E17
:101540000091546E0E93266E0791546E07922B6E87
:101550000093256E0091586E0D922B6E0093276EAE
:101560000091566E1C93256E0792296E0093256E8E
:1015700007904F6E0092246E0093246E00914C6E83
:101580000E904E6E0093266E07266E07904F6E00EB
:1015900092246E0093256E00914F6E0D93266E0778
:1015A000266E00914F6E0792216E0093246E00917B
:1015B0004C6E0E92216E0093276E0091486E0E9332
:1015C000256E0E246E07266E0692296E0093246EF9
:1015D0000091516E0793266E07904D6E0093276E13
:1015E0000E904C6E0092296E0093256E0091546E01
:1015F0000E904D6E0793266E0091546E07904C6EC0
:1016000000922B6E0093266E0091566E0793266E05
:101610000790486E00922B6E0093276E0091586ED3
:101620000D90456E0093256E0E90436E0093266ECE
:1016300007266E0792246E0093266E00914C6E0E64
:1016400093266E07246E0792246E0093256E0091F8
:101650004F6E0E93246E06266E00914F6E07922DEC
:101660006E0093246E00914C6E0E922D6E009326A8
:101670006E0091486E0793246E07256E15922D6EAD
:101680000093246E0792296E0093246E0091516E90
:101690000793256E06276E0E92296E0093256E0025
:1016A00091546E0E90486E0093266E0791546E070B
:1016B00090476E00922B6E0093256E0091586E0E2F
:1016C000904A6E00922B6E0093276E0091566E0E1C
:1016D00090516E0093266E06266E07904F6E009313
:1016E000266E07266E0792246E0093246E00914C9E
:1016F0006E0E93266E07266E0792246E0093256E5B
:1017000000914F6E0E93266E07266E00914F6E0766
:1017100092216E0093246E00914C6E0D92216E000A
:1017200093276E0091486E0E93256E0E246E072649
:101730006E0792296E0093246E0091516E079326D6
:101740006E0790516E0093276E0D90536E00922994
:101750006E0093256E0091546E0E90516E07932685
:101760006E0091546E07904F6E00922B6E00932680
:101770006E0091566E0793266E07904D6E00922B69
:101780006E0093246E00276E0091586E0E904C6E82
:101790000093256E0E904A6E0093266E07266E0605
:1017A000904C6E0092246E0093266E00914C6E0E4B
:1017B00093266E07246E0790486E0092246E009365
:1017C000256E00914F6E0E90436E0093246E072697
:1017D0006E00914F6E07922D6E0093246E00914C17
:1017E0006E0E922D6E0093266E0091486E06932425
:1017F0006E07256E15922D6E0093246E0792296E4A
:101800000093246E0091516E0793256E07276E0E8C
:1018100092296E0093256E0091546E0D90486E00D3
:1018200093266E0791546E0790476E00922B6E00C0
:1018300093256E0091586E0E90486E00922B6E00AC
:1018400093276E0091566E0E904A6E0093256E0E91
:10185000904C6E0093266E07266E0792286E0093BA
:10186000246E00914F6E0D93266E07266E07904FE3
:101870006E0092286E0093256E00914F6E0E932697
:101880006E0792286E0093266E00914F6E07904867
:101890006E0092276E0093246E00914E6E0E92277A
:1018A0006E0093276E00914E6E0E904C6E00932545
:1018B0006E0D92276E0093246E07256E07904D6E75
:1018C0000092266E0093266E00914D6E0E904C6E27
:1018D0000093276E0E904D6E0092266E0093256E3B
:1018E00000914D6E0E904A6E0792266E0093266E02
:1018F00000914D6E06922B6E0093266E00914C6EF9
:101900000793266E0790486E00922B6E0093276E09
:1019100000914C6E0E90476E0093256E0E90486EAF
:1019200000922B6E0093266E07266E0792286E009B
:1019300093246E00914C6E0E93266E07266E0692CF
:10194000286E0093256E00914C6E0E93266E0792C2
:10195000286E0093266E00914C6E0792276E0093BE
:10196000246E0091546E0E92276E0093276E0091A4
:101970004C6E0E93256E07246E0792276E069326F3
:101980006E0792266E0093256E0091586E0E932777
:101990006E0E92266E0093256E0091586E0E932661
:1019A0006E0792266E0091586E0792256E00932561
:1019B0006E00266E00915B6E0D92256E0093276E71
:1019C0000091596E0E93266E07256E07256E072629
:1019D0006E07904F6E0092246E0093246E00914C1F
:1019E0006E0E904E6E0093266E07266E07904F6E19
:1019F0000092246E0093256E00914F6E0D93266E1B
:101A000007266E00914F6E0792216E0093246E00A0
:101A1000914C6E0E92216E0093276E0091486E0ECF
:101A200093256E0E246E07266E0792296E0093246E
:101A30006E0091516E0693266E07904D6E009327AF
:101A40006E0E904C6E0092296E0093256E0091549C
:101A50006E0E904D6E0793266E0091546E07904C5B
:101A60006E00922B6E0093266E0091566E079326A1
:101A70006E0790486E00922B6E0093276E0091586F
:101A80006E0E90456E0093256E0D90436E0093266A
:101A90006E07266E0792246E0093266E00914C6EA0
:101AA0000E93266E07246E0792246E0093256E0017
:101AB000914F6E0E93246E07266E00914F6E069224
:101AC0002D6E0093246E00914C6E0E922D6E00933D
:101AD000266E0091486E0793246E07256E15922D91
:101AE0006E0093246E0792296E0093246E0091512C
:101AF0006E0793256E07276E0D92296E0093256E53
:101B00000091546E0E90486E0093266E0791546EAD
:101B10000790476E00922B6E0093256E0091586ED1
:101B20000E904A6E00922B6E0093276E0091566EB7
:101B30000E90516E0093266E07266E07904F6E0032
:101B400093266E06266E0792246E0093246E0091F3
:101B50004C6E0E93266E07266E0792246E00932518
:101B60006E00914F6E0E93266E07266E00914F6E9B
:101B70000792216E0093246E00914C6E0D92216E9F
:101B80000093276E0091486E0E93256E0E246E070B
:101B9000266E0792296E0093246E0091516E079372
:101BA000266E0790516E0093276E0E90536E009232
:101BB000296E0093256E0091546E0D90516E07931F
:101BC000266E0091546E07904F6E00922B6E00931C
:101BD000266E0091566E0793266E07904D6E00920A
:101BE0002B6E0093276E0091586E0E904C6E0093F2
:101BF000256E0E904A6E0093266E07266E07904C57
:101C00006E0092246E0093266E00914C6E0D93260A
:101C10006E07246E0790486E0092246E0093256E26
:101C200000914F6E0E90436E0093246E07266E0057
:101C3000914F6E07922D6E0093246E00914C6E0EA4
:101C4000922D6E0093266E0091486E0793246E06C7
:101C5000256E15922D6E0093246E0792296E0093C7
:101C6000246E0091516E0793256E07276E0E922900
:101C70006E0093256E0091546E0E90486E00932670
:101C80006E0791546E0690476E00922B6E0093255E
:101C90006E0091586E0E90486E00922B6E00932746
:101CA0006E0091566E0E904A6E0093256E0E904C0B
:101CB0006E0093266E07266E0792286E0093246EA0
:101CC00000914F6E0E93266E06266E07904F6E00A3
:101CD00092286E0093256E00914F6E0E93266E072C
:101CE00092286E0093266E00914F6E0790486E000A
:101CF00092276E0093246E00914E6E0E92276E0016
:101D000093276E00914E6E0E904C6E0093256E0DD3
:101D100092276E0093246E07256E07904D6E0092F9
:101D2000266E0093266E00914D6E0E904C6E0093C1
:101D3000276E0E904D6E0092266E0093256E0091D8
:101D40004D6E0E904A6E0792266E0093266E00919D
:101D50004D6E07922B6E0093266E00914C6E07938A
:101D6000266E0690486E00922B6E0093276E0091AF
:101D70004C6E0E90476E0093256E0E90486E00924A
:101D80002B6E0093266E07266E0792286E00932412
:101D90006E00914C6E0E93266E07266E0792286E8B
:101DA0000093256E00914C6E0D93266E0792286E5F
:101DB0000093266E00914C6E0792276E0093246E5E
:101DC0000091546E0E92276E0093276E00914C6E18
:101DD0000E93256E07246E0792276E0793266E06D4
:101DE00092266E0093256E0091586E0E93276E0E0C
:101DF00092266E0093256E0091586E0E93266E0704
:101E000092266E0091586E0792256E0093256E0003
:101E1000915B6E0E92256E0093276E0091596E0DA8
:101E200093266E07256E07256E07266E07C02100D4
:101E300090486E0092246E0093246E0091486E0EBE
:101E400090486E0092246E0093266E0091486E07B3
:101E500093266E07256E0E266E06266E07246E0EDE
:101E600090486E0092246E0093276E0091486E0E8B
:101E700093256E0E90486E0092246E0093246E009F
:101E800091486E0793266E07246E07266E069048CB
:101E90006E0092226E0093276E0091486E0E93257D
:101EA0006E0E90486E0092226E0091486E07932647
:101EB0006E07266E07266E07276E0E256E0D266EA0
:101EC00007266E0790486E0092206E0093266E00E3
:101ED00091486E0E90486E0092206E0093266E0020
:101EE00091486E0793246E07256E0E246E07266EAA
:101EF00007246E0D90486E0092206E0093266E00AF
:101F000091486E0793246E07256E0E90486E0092DE
:101F10001F6E0091486E0793246E07246E07256E8E
:101F20000790486E00921F6E0093276E0091486ED6
:101F30000D93256E0E90486E00921F6E0093266ED4
:101F40000091486E0E93256E0E92376E0093276EA9
:101F500007923C6E07436E0E93256E07256E069022
:101F6000486E0092246E0093246E0091486E0E908D
:101F7000486E0092246E0093266E0091486E07937F
:101F8000266E0792486E0093256E0E266E07266E0B
:101F90000792486E0093246E0E90486E0092246E55
:101FA0000093276E0091486E0D93256E0792486E40
:101FB0000790486E0092246E0093246E0091486E44
:101FC0000793266E07246E07266E0790486E0092D0
:101FD000226E0093276E0091486E0E92466E00931B
:101FE000256E0E90486E0092226E0091486E069308
:101FF000266E07266E07266E07276E0E256E0E923A
:10200000466E0093266E0792456E0093266E0790EB
:10201000486E0092206E0093266E0091486E0D90DF
:10202000486E0092206E0093266E0091486E0793D2
:10203000246E0792446E0093256E0E246E07266E62
:102040000792446E0093246E0E90486E0092206EAC
:102050000093266E0091486E0793246E07256E0646
:1020600092446E0790486E00921F6E0091486E0772
:1020700093246E07246E07256E0790486E00921F0A
:102080006E0093276E0091486E0E93256E0E904859
:102090006E00921F6E0093266E0091486E0E93257F
:1020A0006E0D92436E0093276E0792446E07446E46
:1020B00007456E07456E0093256E0792466E0093A6
:1020C000256E0790486E0092246E0093246E009156
:1020D000486E0E90486E0092246E0093266E00911A
:1020E000486E0793266E0692486E0093256E0E2664
:1020F0006E07266E0792486E0093246E0E90486E0F
:102100000092246E0093276E0091486E0E93256E08
:102110000792486E0790486E0092246E0093246EDA
:102120000091486E0693266E07246E07266E079070
:10213000486E0092226E0093276E0091486E0E92B8
:10214000466E0093256E0E90486E0092226E0091AE
:10215000486E0793266E07266E07266E07246E00CC
:10216000276E0D256E0E92466E0093266E079245E1
:102170006E0093266E0790486E0092206E009326A4
:102180006E0091486E0E90486E0092206E0093266D
:102190006E0091486E0793246E0792446E0093255B
:1021A0006E0D246E07266E0792446E0093246E0E09
:1021B00090486E0092206E0093266E0091486E0744
:1021C00093246E07256E0792446E0790486E009226
:1021D0001F6E0091486E0793246E07246E07256ECC
:1021E0000690486E00921F6E0093276E0091486E15
:1021F0000E93256E0E90486E00921F6E0093266E11
:102200000091486E0E93256E0E90476E0092436EBD
:102210000093276E0091476E0792446E07446E0646
:10222000456E07456E0093256E0792466E00932516
:102230006E07266E00914C6E00FF06014517FF2FBA
:102240000000C02E00C12F00C23000C30800B0073C
:102250007F00B1077F00B2077F00B3077F00077FD1
:1022600000077F00077F00077F00077F00FF060150
:102270005301B0640000640000640000B164000019
:10228000640000B2640000640000B36400006400F5
:1022900000640000640000640000640004B0647F17
:1022A00000647F00647F00B1647F00647F00B264DB
:1022B0007F00647F00B3647F00647F00647F0064FC
:1022C0007F00647F00647F17914E461C93353F0E5C
:1022D000922A501C2B560F93353F0E922A541C2BDA
:1022E0005B0E93353F0E922A571D2B600E285E0021
:1022F00093353F1C914E461C93353F0E922A501D3C
:102300002B560E93353F0E922A541C2B5B0E9335A1
:102310003F0E922A571D2B600E2F5E0093353F0E05
:10232000922B5E0E914E461C93353F0F9036500017
:10233000922A501C90375600922B560E93353F0E22
:1023400090365400922A541C90375B00922B5B0EFF
:1023500093353F0F90365700922A571C90376000F4
:10236000922B600E90345E0092285E0093353F15EC
:10237000353B03353F02354302914E4600933549C4
:102380001D353F0E90365000922A500E9335460E62
:1023900090375600922B560E93354D0E90365400C2
:1023A000922A540E9335540F90375B00922B5B0E9C
:1023B00090345B0092285B009333500739500790AC
:1023C000365700922A5700933950073850079037F4
:1023D0005700922B570093364607344607903460D7
:1023E0000092286000933450073350003850079013
:1023F0003B5E00922F5E00933450073450079037B5
:102400005E00922B5E0093375007365008911E50A5
:10241000009333581533500734500E9036500092C5
:102420002A50079333500733540E90375600922B9F
:1024300056079333500734500E90365400922A5466
:10244000009333500F33580E90375B00922B5B078D
:102450009333500734500E90365700922A57079303
:1024600033500733540E90376000922B600793333C
:10247000500790345E0092285E0093344607345033
:102480000833500E911E50009333581533500734C3
:10249000500E90365000922A500793335007335411
:1024A0000E90375600922B56079333500734500F37
:1024B00090365400922A54009333500E33580E90A5
:1024C000375B00922B5B079333500734500E9036E6
:1024D0005700922A57079333500733540E903760B2
:1024E00000922B600793335008903B5E00922F5E62
:1024F000009334460734500790375E00922B5E00FD
:1025000093335007345007911E50009333581533BE
:10251000500734500E90365000922A500793335093
:102520000733540F90375600922B560793335007BA
:1025300034500E90365400922A54009333500E3388
:10254000580E90375B00922B5B0793335007345043
:102550000E90365700922A57079333500733540F83
:1025600090376000922B60079333500790345E00E1
:1025700092285E009334460734500733500E911E64
:1025800050009333581533500734500E9036500096
:10259000922A50079333500833540E9037560092C6
:1025A0002B56079333500734500E90365400922A1E
:1025B00054009333500E33580E90375B00922B5BD0
:1025C000079333500790345B0092285B009334509C
:1025D0000739500890365700922A57009339500710
:1025E00038500790375700922B5700933C500734D0
:1025F00046079034600092286000933450073850AA
:1026000007903B5E00922F5E0093345007345007D2
:1026100090375E00922B5E0093375007365007913B
:102620001E5000933A5A153350073B460F903D50C9
:1026300000922A50079333500733540E903B5600B4
:10264000922B56079333500734500E903D5400920E
:102650002A54009333500E33580E903E5B00922B59
:102660005B079333500834500E903D5700922A5721
:10267000079333500733540E903E6000922B60074F
:1026800093335007903B5E0092285E0093344607D8
:10269000345007335007344607911E500093335887
:1026A0001633500734500E903D5000922A50079335
:1026B00033500733540E903E5600922B56079333F7
:1026C000500734500E903D5400922A5400933350DA
:1026D0000E33580F903B5B00922B5B0793335007F0
:1026E00034500E903D5700922A5707933350073BC2
:1026F00050073B4607903E6000922B60009339469E
:102700000737460790405E00922F5E00933B4607D6
:10271000345007903E5E00922B5E00933350073496
:102720005008911E5000933C5A1533500734500EF8
:10273000903D5000922A500793335015903E56001A
:10274000922B56079333500734500E903D5400920D
:102750002A54009333501D903B5B00922B5B0793F0
:1027600033500734500E903D5700922A5707933349
:10277000500734500E903E6000922B600793335008
:1027800007903B5E0092285E009334460834500761
:10279000335007344607911E5000933358003B5086
:1027A0000E903B50079333500734500E903D50002D
:1027B000922A5007933350073354003B500E903BFE
:1027C0005600922B56079333500834500E903D54C8
:1027D00000922A54009333500E3358003B500E9011
:1027E0003E5B00922B5B0793335007903B5B00925C
:1027F000285B0093345007395004393E03903D570D
:1028000000922A570093395007385007903E5700DE
:10281000922B5700933354003C5507344A04343EFE
:1028200003904060009228600093345508385007A8
:1028300090425E00922F5E00933C5A0734520790FC
:10284000435E00922B5E009337500736500790424C
:102850005E0092365400933358003A5A00914E4627
:1028600015923641009333500792426100933450E1
:102870000E902A500092345A073654009333500772
:102880003354003B500892364407903756002B567D
:102890000092344C07364200933350079242560060
:1028A0009334500792364A07902A540092344000DD
:1028B0009333500792365407933358003B50079296
:1028C00036440790375B002B5B0092344B0736424F
:1028D000009333500792435600933450079242506E
:1028E00007902A570092344007365400933350081B
:1028F0003354003B500792364207903760002B60FC
:102900000092344B073640009333500790345E00FA
:10291000285E00924254009334460792435A009333
:10292000345007924054009333500792374A009333
:10293000344607914E460092365B00933358003B75
:10294000500792345407405B0736540093335007C6
:10295000924262009334500E9036500092345408E4
:10296000366700933350073354003B50079236507C
:10297000079037560092345407364000933350077F
:1029800092425400933450079236480790365400D0
:1029900092344000933350079236540793335800D3
:1029A0003B50079236490790375B00923454073604
:1029B000430093335007924363009334500892428C
:1029C0005E079036570092344607365E00933350C8
:1029D0000733540792364900933B4607903760000F
:1029E0009234540093394607923641009337460794
:1029F000903B5E00924260009334460792436C0025
:102A00009334500790375E0092405E009333500736
:102A100092375D0093345007914E46009236540031
:102A2000933C5A159236410093335008924261000C
:102A30009334500E9036500092345A073654009317
:102A40003350073354079236440790375600923478
:102A50004C0736420093335007924256009334504D
:102A60000792364A07903654009234400093335010
:102A70000792365407933358079236440790375BD2
:102A80000092344B0836420093335007924356006D
:102A900093345007924250079036570092344007C3
:102AA0003654009333500733540792364207903719
:102AB000600092344B073640009333500790345EE9
:102AC00000924254009334460792435A0093345084
:102AD00007924054009333500792374A009334468C
:102AE00007914E460092365B009333580892345457
:102AF00007405B07365400933350079242620093BD
:102B000034500E9036500092345407366700933399
:102B1000500733540792365007903756009234547A
:102B200007364000933350079242540093345007C5
:102B30009236480790365400923440009333500741
:102B400092365408933358079236490790375B0002
:102B5000923454073643009333500790345B00920D
:102B60004363009334500792425E00933950033917
:102B70003E049036570092344600933950079236FF
:102B80005E009338500790375700933C50079236B9
:102B9000490093344604343E039034600092345428
:102BA0000093345007923641009333500038500759
:102BB000903B5E0092426000933C5004373E03928B
:102BC000436C0093375004363E0390375E009240CA
:102BD0005E009333500036500892375D00933B50AF
:102BE000079155460092365400933A5A1592364151
:102BF0000093335007924261009334500E92345A3E
:102C000000903D58079236540093335007335407D1
:102C100092364407903B5E0092344C073642009354
:102C2000335007924256009334500792364A089028
:102C30003D5C009234400093335007923654079322
:102C400033580792364407903E640092344B07365F
:102C500042009333500792435600933450079242F8
:102C60005007903D5F009234400736540093335034
:102C70000733540792364207903E610092344B0767
:102C800036400093335008903B60009242540093CA
:102C900034460792435A00933450079240540093AD
:102CA00033500792374A00933446079155460092B5
:102CB000365B00933358003C5A0792345407405B0C
:102CC000073654009333500792426200933B460EFE
:102CD000903D5800923454073667009333500733C1
:102CE000540792365007903E5E00923454083640A6
:102CF0000093335007924254009334500792364861
:102D000007903D5C00923440009333500792365454
:102D1000079333580792364907903B610092345429
:102D200007364300933350079243630093345007B0
:102D300092425E07903D5F0092344607365E0093F4
:102D40003350073B500792364900933B4608903E6C
:102D5000610092345400933946079236410093370C
:102D60004607904060003B600092426000933B4603
:102D70000792436C0093345007903E600092405E8F
:102D8000009333500792375D0093345007915546B6
:102D90000092365400933C5A1592364100933350BA
:102DA00007924261009334500E903D580092345A7D
:102DB0000736540093335008335407923644079033
:102DC0003E5E0092344C07364200933350079242E5
:102DD00056009334500792364A07903D5C00923477
:102DE0004000933350079236540793335807923676
:102DF0004407903B610092344B07364200933350B6
:102E000007924356009334500792425007903D5F1B
:102E100000923440083654009333500733540792DD
:102E2000364207903E610092344B073640009333A0
:102E30005007903B600092425400933446079243FF
:102E40005A009334500792405400933350079237FE
:102E50004A00933446079155460092365B00933AF8
:102E6000640792345407903B580092405B073654F5
:102E7000009333500792426200933B460F903D58B7
:102E80000092345407366700933350073354079247
:102E9000365007903B5E009234540736400093331F
:102EA0005007924254009334500792364807903DA1
:102EB0005C009234400093335007923654079333AA
:102EC000580792364907903E5F00923454073643C4
:102ED0000093335008903B6000924363009334505A
:102EE0000792425E0093395007903D5F009234464E
:102EF000009339500792365E0093385007903E5F3A
:102F000000933C5007923649009334460790406145
:102F10000092345400933850079236410093375052
:102F2000079042600092426000933C460792436CD7
:102F300000933750043748039043620092405E008C
:102F400093375A0792375D009336500790426101DC
:102F5000911E5000933A5A1533500734500E903D4D
:102F60005000922A50079333500733540E903B562B
:102F700000922B56079333500734500E903D540067
:102F8000922A54009333500E33580F903E5B0092B8
:102F90002B5B079333500734500E903D5700922A15
:102FA00057079333500733540E903E6000922B60C6
:102FB0000793335007903B5E0092285E009334469F
:102FC00007345007335007344607914E4600933379
:102FD000581633500734500E903D5000922A500737
:102FE0009333500733540E903E5600922B5607935E
:102FF00033500734500E903D5400922A54009333BE
:10300000500F33580E903B5B00922B5B079333506D
:103010000734500E903D5700922A570793335007BC
:103020003354073B4607903E6000922B6000933973
:10303000460737460790405E00922F5E0093344665
:1030400007345008903E5E00922B5E009333500789
:1030500034500791554600933C5A1533500734506D
:103060000E903D5000922A50079333500733540E70
:10307000903E5600922B56079333500734500F90D2
:103080003D5400922A54009333500E33580E903B17
:103090005B00922B5B079333500734500E903D57E3
:1030A00000922A57079333500733540E903E600026
:1030B000922B600893335007903B5E0092285E008D
:1030C000933446073450073350073446079155462A
:1030D000009333580E903B50079333500734500EF3
:1030E000903D5000922A50079333500733540F906D
:1030F0003B5600922B56079333500734500E903DA9
:103100005400922A54009333500E33580E903E5B75
:1031100000922B5B0793335007903B5B0092285B38
:103120000093345007395004393E03903D570092C4
:103130002A570093395007335000385007903E57B4
:1031400000922B5700933C5008344A03343E0490BD
:103150004060009228600093345507385006343B95
:103160000190425E00922F5E009334500734500766
:1031700090435E00922B5E009337500736500790C5
:10318000425E00911E500092365400933A5A1592B6
:10319000364D0093335007924261009334500E92A3
:1031A000345A083654009333500733540792364D3F
:1031B00007344C07364D0093335007924256009324
:1031C00034500792365407345200933350079236E6
:1031D00054079333580792364D07344B07364D004A
:1031E000933350079243560093345007924250084D
:1031F000344D073654009333510733550792364DFB
:1032000007344B07364D00933351079242540093D5
:1032100034470792435A0093345107924054009325
:1032200033510792374A0093344707911E53009257
:10323000365B0093335A0792345407405B07365489
:103240000093335207924262009334510F923454E8
:1032500007366700933352073356079236500734C8
:103260005407364D0093335307924254009334521F
:103270000792365007344D00933353079236540764
:1032800093335B0792364907345408364D00933325
:103290005307924363009334530792425E073446C8
:1032A00007365E009333540733580792364900932C
:1032B0003B4807923454009339460792364D0093A9
:1032C000374607924260009334480792436C00935C
:1032D00034530792405E009333540792375D009356
:1032E000345307911E560092365400933C640733C2
:1032F0005D0F92364D0093335407904E6600924214
:103300006100933A6E0E92345A0736540093335448
:1033100007911E56009333590792364D0093335D43
:103320000792344C07364D009333540792425600AF
:1033300093345E0792364A07344D00933354079214
:10334000365407911E560093335D0892364D009314
:10335000335D0792344B07364D0093335407904F3B
:10336000660092435600933A6E07904E6300924275
:103370005007344D0736540093335407911E5600BE
:103380009333590792364D0093335D07904C660096
:1033900092344B00933A6107904E620092364D0092
:1033A000933354003C6E0792425400933469079063
:1033B0004F5E0092435A0093346907924054009341
:1033C0003A6007904C5E0092374A00933469089146
:1033D0001E5A0092365B00933C6907923454009366
:1033E000335D07904C630092405B07365400933383
:1033F0005407904E670092426200933A6E0E9234E8
:10340000540736640093335407911E5C009333597C
:10341000079236500093335D0792345407364D00BF
:10342000933354079242540093345E0792364D080A
:10343000344D009333540792365407911E5E009327
:10344000335D079236490093335D07923454073653
:103450004D0093335407904F660092436300933AB4
:103460006E07904E630092425E0093335D07923484
:1034700046009333630792365E0093335407911EE0
:103480006000933359003462079236490093335DEC
:1034900000345807904C660092345400933A610708
:1034A000904E620092364D00933C6E07924260004F
:1034B00093347308904F5E009243680093345E0328
:1034C000345404904C5E0092405E009333540034B8
:1034D000730792375D0093336300347307904E682F
:1034E00000911E5000933A780E92344D07364D00ED
:1034F00093335007924261009334500E92345A072E
:103500003654009333500733540792364D07344CEA
:1035100007364D00933350089242560093345007BB
:1035200092364A07344D0093335007923654079130
:103530001F500792364D07344B07364D00933350DA
:1035400007924356009334500792425007344D0778
:103550003654009333500733540792364D08344B9A
:1035600007364D0093335007924254009334460778
:1035700092435A00933450079240540093335007BB
:1035800092374A00933446079123500092365B00ED
:103590009333580792345407405B073654009333F3
:1035A0005007924262009334500E923454073664AE
:1035B000009333500733540892365007345407367B
:1035C0004D00933350079242540093345007923683
:1035D0004D07344D009333500792365407912650CF
:1035E000009333580792364907345407364D0093F9
:1035F000335007924363009334500792425E07347E
:103600004607365E0093335008335407923649001C
:10361000933B4607923454009339460792364D0047
:1036200093374607924260009334460792436800FE
:103630009334500792405E009333500792375D00F9
:1036400093345007914250009236540093335800FF
:103650003C5A1592364D00933350079242610093C5
:1036600034500F92345A0736540093335007335472
:103670000792364D07344C07364D0093335007926E
:103680004256009334500792364A07344D00933324
:10369000500792365407904351001F5000914351F8
:1036A000009333580792364D07344B07364D00933D
:1036B00033500792435600933450089242500734D7
:1036C0004D073654009333500733540792364D0755
:1036D000344B07364D0093335007924254009334D5
:1036E000460792435A009334500792405400933354
:1036F000500792374A0093344607904253002350B4
:10370000009147530092365B00933358079234542C
:1037100007405B073654009333500892426200938F
:1037200034500E92345407366400933350073354A8
:103730000792365007345407364D009333500792A2
:103740004254009334500792364D07344D00933362
:1037500050079236540790435400265000914A5423
:10376000009333580792364907345408364D009376
:10377000335007904C5400914C5400924363009393
:1037800034500792425E0093395003393E0492341C
:1037900046009339500792365E00933350003850FC
:1037A00007904E5500914E5500933C500792364974
:1037B0000093344A04343E03923454009334550742
:1037C00092364D0093385006343B01904F5500918E
:1037D0004F55009242600093345007924368009323
:1037E00034500792405E009337500792375D009344
:1037F00036500790425600914E5600923654009330
:103800003C5A01901E501592364D0093335007924A
:103810004261009334500E92345A07365400933369
:10382000500733540792364D07344C07364D0093FA
:10383000335007924256009334500792364A073469
:103840004D009333500792365408904358001F5050
:10385000009333580792364D07344B07364D00938B
:103860003350079243560093345007924250073426
:103870004D073654009333500733540792364D07A3
:10388000344B07364D009333500792425400933423
:10389000460792435A0093345007924054009333A2
:1038A000500892374A0093344607904759002350F6
:1038B0000092365B009333580792345407405B07FD
:1038C00036540093335007924262009334500E9264
:1038D00034540736640093335007335407923650FC
:1038E00007345407364D00933350079242540093E7
:1038F00034500892364D07344D00933350079236BA
:103900005407904A5B00265000914F5B0093335858
:103910000792364907345407364D009333500790C9
:103920004E5C00914E5C00924363009334500792CA
:10393000425E0093395004393E0392344600933975
:10394000500792365E009338500790515C009151B9
:103950005C00933C50079236490093344A04343E4D
:1039600003923454009334550792364D00933850E7
:1039700006343B0290535C0091535C00924260001D
:1039800093345007924368009334500792405E008E
:103990009337500792375D0093365007903D5C0097
:1039A000915560009236540093335800901E501584
:1039B00092364D0093335007924261009334500E7B
:1039C00092345A07365400933350073354079236D3
:1039D0004D07344C08364D00933350079242560041
:1039E0009334500792364A07344D00933350079270
:1039F000365407903E5E001F5000933358079236AE
:103A00004D07344B07364D00933350079243560011
:103A10009334500792425007344D07365400933385
:103A2000500733540892364D07344B07364D0093F8
:103A3000335007924254009334460792435A0093FE
:103A4000345007924054009333500792374A009302
:103A50003446079042600023500092365B00933357
:103A6000580792345407405B07365400933350078D
:103A7000924262009334500E92345407366400939D
:103A800033500833540792365007345407364D00EC
:103A900093335007924254009334500792364D07A7
:103AA000344D0093335007923654079043610026FB
:103AB00050009333580792364907345407364D0067
:103AC000933350079053600091536000924363001A
:103AD0009334500792425E0093395004393E03926A
:103AE0003446009339500892365E00933850079060
:103AF00055600091556000933C5007923649009301
:103B0000344A03343E0492345400933455079236B9
:103B10004D0093335006343B01905661009156613D
:103B200000924260009334500792436800933450EF
:103B30000792405E009337500792375D00933650EE
:103B400007903664001E6400911E64009236540093
:103B5000933A781592364D009333500792426100A4
:103B60009334500F92345A0736540093335007332E
:103B7000540792364D07344C07364D0093335007A7
:103B8000924256009334500792364A07344D0093C0
:103B9000335007923654079333580792364B073405
:103BA00047073647009333500892434D00933450F3
:103BB0000792424607344107364500933350073396
:103BC000540792363C073438073638009333500791
:103BD00092423A009334460792433D009334500793
:103BE000924036009333500792372E0093344607A5
:103BF000901E5A00911E5A00923636009333580791
:103C000092343007403208362C00933350079242EA
:103C100031009334500E92342507362B00933350E5
:103C20000733540792361E07341D073619009333A5
:103C300050079242190093345007923615073413F7
:103C400000933350079236130793335816335007B7
:103C5000345007395003393E043950073350003887
:103C600050073C5007344A04343E0334550738505B
:103C700006343B0134500734500737500736503E66
:103C8000FF06014500FF2F0000C03E00C13F00C2FB
:103C90004000C33000B0077F00B1077F00B2077F4C
:103CA00000922E6400B3077F00FF06015310913588
:103CB00064113A64113E64103A6411356411922B18
:103CC0006411913264103764113A64113764103210
:103CD000641192306411913764113A641041641197
:103CE0003A641137641092296411913564113C646F
:103CF000113F641090416400913C6411356411904F
:103D0000466400922E6410913564113A64113E6449
:103D10001190416400913A6410356411904A640036
:103D2000922B6411913264103764113A64119046F9
:103D3000640091376411326410904D6400923064D5
:103D400011913764113A64114164103A6411376477
:103D50001192296410913564113C64113F641190F3
:103D6000416400913C641035641190466400922EC9
:103D70006411913564103A64113E641190416400FD
:103D8000913A6411356410904A6400922B64119149
:103D90003264113764103A641190466400913764BC
:103DA00011326411904D64009230641091376411A7
:103DB0003A64114164103A64113764119229641114
:103DC000913564103C64113F6411904D6400913C46
:103DD0006410356411904F64009227641191376428
:103DE000113A64103764113A6411376411904564D4
:103DF0000092296410913564113964113564109072
:103E00004F640091396411356411904D6400922E15
:103E10006411913564103A64113564113A641035B7
:103E20006411904A6400922B6411913264113A64D7
:103E3000103264113A6411326410904A6400923076
:103E40006411913764113A64113764103A64113780
:103E50006411904A640092296410913064113964AD
:103E600011306411904864009139641030641190ED
:103E7000466400922E6411913564103A64113564E1
:103E8000113A6411356410922E6411913564113A1F
:103E9000641135641090416400913A6411356411E5
:103EA00090466400922E6410913564113A64113E7C
:103EB000641190416400913A6410356411904A6431
:103EC00000922B6411913264103764113A6411909E
:103ED00046640091376411326410904D6400923052
:103EE0006411913764113A64104164113A641137D6
:103EF000641192296410913564113C64113F64107F
:103F000090416400913C64113564119046640092C4
:103F10002E6411913564103A64113E64119041642D
:103F200000913A6411356410904A6400922B641138
:103F3000913264113764103A6411904664009137ED
:103F40006411326411904D640092306410913764B2
:103F5000113A64114164103A641137641192296472
:103F600011913564103C64113F6411904D640091CF
:103F70003C6410356411904F6400922764119137AE
:103F800064113A64103764113A6411376410904533
:103F900064009229641191356411396411356410FB
:103FA000904F640091396411356411904D64009212
:103FB0002E6410913564113A64113564113A64101D
:103FC000356411904A6400922B6411913264113A65
:103FD00064103264113A6411326410904A640092A1
:103FE000306411913764113A64113764103A6411E6
:103FF000376411904A640092296410913064113939
:104000006411306411904864009139641030641177
:1040100090466400922E6411913564103A64113513
:1040200064113A6411356410922E64119135641153
:104030003A641035641190466400913A6411356415
:10404000119046640092276410913764113A64110C
:104050003764103A64113764119045640092276404
:1040600011913764103A64113764119048640091DB
:104070003A641137641090466400922664119135B9
:1040800064113A64103564113A6411356411904139
:10409000640092266410913564113A6411356410FD
:1040A0003A6411356411903F640092306411913785
:1040B00064103A6411376411903E6400913A6410C0
:1040C000376411903F640092296411913064113972
:1040D00064103064119041640091396411306410AF
:1040E000903E6400922E6411913564113A6411354A
:1040F00064103A6411356411922C64119135641086
:104100003864113564119046640091386410356448
:10411000119046640092276411913764113A64103B
:104120003764113A64113764109045640092276433
:1041300011913764113A641137641090486400910A
:104140003A641137641190466400922664109135E8
:1041500064113A641135641190416400913A64101D
:10416000356411904D640092266411913564103AC3
:1041700064113564113A6411356410904B640092F7
:10418000306411913764113A64103764113A641144
:10419000376411904A640092296410913064113997
:1041A00064113064119048640091396410306411D6
:1041B00090466400922E6411913564103A64113572
:1041C00064113A6411356410FF06014500FF2F00A9
:1041D00000C00300C10400C20500C30000B00764B2
:1041E0000007780007640090246400B1076400B2FF
:1041F00007640092306400B3076E06FF06015306A1
:10420000913F640043640D902464009230640D91EA
:104210003F6400436406902464009230640D91432F
:1042200064003F6406902464009230640D913F6402
:104230000043640C902464009230640D901F64006D
:10424000922B640D913A64003E640D901F640092BD
:104250002B640C913A64003E640790206400922C19
:10426000640C913C64003F640790206400922C64CD
:104270000C913F64003C640D90206400922C640D0E
:10428000902764009233640D913F640043640C9066
:104290002464009230640D913F64004364069024CE
:1042A00064009230640D914364003F64069024647E
:1042B000009230640D913F640043640D90246400CB
:1042C0009230640C901F6400922B640D913A64004C
:1042D0003E640D901F6400922B640D913A64003E81
:1042E000640690206400922C640D913C64003F644D
:1042F0000690206400922C640D913F64003C640C95
:1043000090206400922C640D90246400923064002C
:104310009306640D913F640043640D902464009201
:104320003064009306640C913F640043640790245A
:1043300064009230640693066406914364003F640F
:1043400007902464009230640C913F640043640041
:104350009306640D902464009230640D901F6400F5
:10436000922B64009306640C913A64003E640D90B5
:104370001F6400922B64009306640D913A64003E22
:10438000640690206400922C640793066406913CB6
:1043900064003F640690206400922C640D913F6499
:1043A000003C64009306640D90206400922C640C21
:1043B00090276400923364009306640D913F64007B
:1043C00043640D90246400923064009306640D9160
:1043D0003F640043640690246400923064069306B0
:1043E0006407914364003F64069024640092306443
:1043F0000D913F64004364009306640C90246400B4
:104400009230640D904F7F00924F7F0D904B7F0054
:10441000913A64003E6400924B7F19904D7F009169
:104420003A64003E6400924D7F0D90487F009248B0
:104430007F06913C64003F64133F64003C641A9023
:1044400048640092306406904825064B6400913F12
:104450006400436407904824064864009230640670
:1044600090482407526400913F64004364069052D0
:10447000240092306407904F64064F2400914364F7
:10448000003F640690486400923064079048240618
:10449000546400913F6400436406905424075264BE
:1044A000009230640690522406486400922B640700
:1044B00090482406596400913A64003E640690597D
:1044C00024075B6400922B6406905B2406913A6497
:1044D000003E6407922C640D913C64003F64069298
:1044E0002C640D913F64003C640C922C640D904848
:1044F000640092336406904825074B6400913F6442
:104500000043640690482406486400923064079093
:10451000482406526400913F64004364069052248C
:104520000092306407904F64064F2400914364006A
:104530003F64079048640092306406904824065413
:104540006400913F64004364079054240652640061
:104550009230640690522407486400922B640690BF
:10456000482406576400913A64003E64079057243B
:1045700006566400922B640690562407913A640014
:104580003E6406922C640D913C64003F6406922CBC
:10459000640D913F64003C640D922C640C9048645F
:1045A000009230640093066407904825064B64002F
:1045B000913F6400436406904824074864009230A9
:1045C00064009306640690482406526400913F6498
:1045D000004364079052240092306406904F6400B8
:1045E00093066406904F2400914364003F64079053
:1045F0004864009230640690482407546400913F58
:1046000064004364009306640690542406526400D8
:104610009230640790522406486400922B64009301
:1046200006640690482407596400913A64003E6489
:1046300006905924065B6400922B6400930664077D
:10464000905B2406913A64003E6406922C640793C2
:10465000066406913C64003F6406922C640D913F11
:1046600064003C64009306640D922C640D904864D1
:10467000009233640093066406904825064B64005C
:10468000913F6400436407904824064864009230D8
:1046900064009306640690482407526400913F64C6
:1046A000004364069052240092306406904F6400E8
:1046B00093066407904F2400914364003F64069082
:1046C0004864009230640690482407546400913F87
:1046D0006400436400930664069054240792306497
:1046E0000C904F7F00914F7F00924F7F0D904B7F3A
:1046F00000914B7F00924B7F19904D7F00914D7F31
:1047000000924D7F0D90487F0091487F0092487F36
:1047100033904864003C6400923064009306640D5A
:10472000913F6400436406903A64004664063C642A
:1047300000486400923064009306640D913F640069
:10474000436406903A640046640092306407903CEB
:10475000640048640093066406903A64004664006E
:10476000914364003F6406903C64004864009230CA
:10477000640D913F64004364009306640D923064BD
:104780000D2B64009306640C913A64003E640D9214
:104790002B64009306640D913A64003E6406922CEB
:1047A00064069048640093066407903C6400913C62
:1047B00064003F640690546400922C640690486440
:1047C000073C6400913F64003C64009306640C92D3
:1047D0002C640D3364009306640D913F64004364C0
:1047E0000D923064009306640C913F6400436407AB
:1047F00092306406904A6400930664069143640014
:104800003F6407904B64009230640C913F64004316
:1048100064009306640D9230640D2B64009306646B
:104820000D913A64003E640C922B64009306640D73
:10483000913A64003E6406922C6407903F640093B2
:10484000066406913C64003F6406903E6400922C2E
:10485000640D913F64003C64009306640D922C64E7
:104860000C904864003C6400923064009306640D30
:10487000913F6400436407903A64004664063C64D8
:1048800000486400923064009306640D913F640018
:10489000436406903A640046640092306406903C9B
:1048A000640048640093066407903A64004664001C
:1048B000914364003F6406903C6400486400923079
:1048C000640D913F64004364009306640C9230646D
:1048D0000D2B64009306640D913A64003E640D92C2
:1048E0002B64009306640C913A64003E6407922C9A
:1048F00064069048640093066406903C6400913C12
:1049000064003F640790546400922C6406904864ED
:10491000063C6400913F64003C64009306640D9281
:104920002C640D3364009306640D913F640043646E
:104930000C923064009306640D913F64004364065A
:1049400092306407905664009306640691436400B5
:104950003F6406905764009230640D913F640043B9
:1049600064009306640D9230640C2B64009306641B
:104970000D913A64003E640D922B64009306640D21
:10498000913A64003E6406922C640690446400935D
:10499000066407913C64003F640690436400922CD7
:1049A000640D913F64003C64009306640C922C6497
:1049B0000D904A64009232640093066406904A2582
:1049C000074D640091416400456406904A24074AFB
:1049D00064009232640093066406904A240654648C
:1049E00000914164004564079054240092326406AB
:1049F0009051640093066406905124009145640030
:104A0000416407904A640092326406904A24065634
:104A10006400914164004564009306640790562445
:104A20000654640092326406905424074A6400924B
:104A30002D640093066406904A24065B6400913C52
:104A40006400406407905B24065D6400922D64005E
:104A500093066407905D2406913C640040640692CE
:104A60002E640793066406913E6400416406922E0C
:104A7000640D914164003E64009306640D922E64BF
:104A80000C904A64009235640093066407904A25AE
:104A9000064D640091416400456406904A24074A2B
:104AA00064009232640093066406904A24075464BA
:104AB00000914164004564069054240092326406DB
:104AC000905164009306640790512400914564005E
:104AD000416406904A640092326406904A24075664
:104AE0006400914164004564009306640690562476
:104AF0000654640092326407905424064A6400927B
:104B00002D640093066406904A2407596400913C82
:104B1000640040640690592406586400922D640095
:104B20009306640790582406913C64004064079201
:104B30002E640693066406913E6400416407922E3B
:104B4000640C914164003E64009306640D922E64EF
:104B50000D904A640093066406904A25064D640051
:104B600091416400456407904A24064A6400930614
:104B70006406904A24075464009141640045640629
:104B800090542407516400930664069051240091C8
:104B9000456400416406904A64074A24065664004E
:104BA00091416400456400930664069056240754BE
:104BB00064065424064A640093066407904A240657
:104BC0005B6400913C6400406406905B24075D6474
:104BD0000093066406905D2406913C640040640DD9
:104BE00093066407913E64004164134164003E648F
:104BF0000093066419904A640093066406904A255F
:104C0000074D640091416400456406904A24064AB9
:104C1000640093066407904A24065464009141643A
:104C2000004564069054240751640093066406907E
:104C300051240091456400416407904A64064A2467
:104C40000656640091416400456400930664079031
:104C50005624065464065424074A640093066406E6
:104C6000904A240659640093065C0790592406581C
:104C70006400930664069058240793065C0C06644F
:104C800007065C06066407065B06066906066007FB
:104C9000066A06066400FF06014506FF2F0000C0F5
:104CA0004200C14300C24400B0077F00B2077F004A
:104CB000B1077F00FF0601530192375A0091437FED
:104CC0000A90467F0A914A7F0A904B7F00B00B7F83
:104CD0000A91437F0A90467F0A914A7F0A904B7F50
:104CE0000A923A5A0091437F0A90467F0A914A7F7E
:104CF0000A904B7F0A923E5A0091437F0A90467F6A
:104D00000A914A7F0A904B7F0A923D5A0091427F56
:104D10000A90457F0A914A7F0A904B7F0A92365A41
:104D20000091427F0A90457F0A914A7F0A904B7F0B
:104D30000A91427F0A90457F0A914A7F0A904B7FF1
:104D40000A91427F0A90457F0A914A7F0A904B7FE1
:104D50000A92355A0091417F0A90447F0A914A7F16
:104D60000A904B7F0A91417F0A90447F0A914A7FC3
:104D70000A904B7F0A91417F0A90447F0A914A7FB3
:104D80000A904B7F0092385A0A91417F0A90447FE3
:104D90000A923D5A00914A7F0A904B7F0A923C5AF0
:104DA0000091407F0A90437F0A914A7F0A904B7F8F
:104DB0000A92345A0091407F0A90437F0A914A7FB9
:104DC0000A904B7F0A91407F0A90437F0A914A7F65
:104DD0000A904B7F0A91407F0A90437F0A914A7F55
:104DE0000A904B7F0A92335A00913F7F0A90437F8B
:104DF0000092325A0A335A0091487F0A904A7F0A39
:104E0000913F7F0A90437F0A91487F0A904A7F0A28
:104E100092375A00913F7F0A90437F0A91487F0A58
:104E2000904A7F00923F5A0A913F7F0A90437F0A3F
:104E3000923E5A0091487F0A904A7F0A92325A0065
:104E4000913E7F0A90437F0092315A0A325A009174
:104E5000487F0A904A7F0A913E7F0A90437F0A91D9
:104E6000487F0A904A7F0A92375A00913E7F0A9003
:104E7000437F0A91487F0A904A7F00923E5A0A91E6
:104E80003E7F0A90437F0A923D5A0091487F0A90E4
:104E90004A7F0A92325A00913C7F0A90427F0092E8
:104EA000365A0A395A0091457F0A90487F00923657
:104EB0005A0A395A0091427F0A90457F00923C5A23
:104EC0000A395A0091487F0A904B7F00923C5A0A57
:104ED0003F5A0091457F0A90487F00923C5A0A3F12
:104EE0005A00914B7F0A92425A0A455A0A904E7FC5
:104EF0000092425A0A3F5A0A3C5A0A3F5A009151BC
:104F00007F0A923C5A0A395A0A90547F0092365AC4
:104F10000A375A0091437F00FF0601450A90467FF9
:104F20000A914A7F00FF2F002020202020202020EF
:104F30002020202020202020202020202020202071
:104F40002020202020202020202020202020202061
:104F50002020202020202020202020202020202051
:104F60002020202020202020202020202020202041
:104F70002020202020202020202020202020202031
:104F80002020200000FFFF002020000000FFFF0085
:104F90002020FFFF202020202020FFFF2020202095
:104FA0002020000020202020202020202020202041
:104FB00020202020202020202020202020202020F1
:104FC00000FFFF0000FFFF0000FFFF0000FFFF00E9
:104FD00020202020202020202020202020202020D1
:104FE00020202020202020202020202020202020C1
:104FF00020202020202020202020202020202020B1
:1050000000FFFF000020202000FFFF000000202004
:1050100020202020FFFF202020202020FFFF202014
:105020002020202000002020202000002020202000
:105030002020FFFF202020202020FFFF20202020F4
:1050400020200000202020202020000020202020E0
:105050002020FFFF202020202020FFFF20202020D4
:1050600020200000202020202020202000002020C0
:1050700020202020FFFF202020202020FFFF2020B4
:1050800020202020000020202020202000002020A0
:1050900020202020FFFF202020202020FFFF202094
:1050A0002020202000002020202000002020202080
:1050B0002020FFFF202020202020FFFF2020202074
:1050C0002020000000FFFF002020200000FFFF0044
:1050D00020202020202020202020202020202020D0
:1050E0002020202020202020202020200000202000
:1050F00020202020FFFF202020202020FFFF202034
:1051000000FFFF000000202000FFFF000020202003
:10511000202020202020202020202020202020208F
:10512000202020202020202020000000000000005F
:105130000000FFFFFFFFFFFF00FFFF000000FFFF79
:1051400000FF0000FF0000FF00FF0000000000FF64
:1051500000FF0000FF0000FF00FF0000FF0000FF55
:1051600000FFFFFFFFFFFFFF200000000000000026
:105170000000FFFFFFFFFFFF00FF00000000FFFF38
:1051800000FFFFFFFF0000FF00FFFF000000FFFF28
:1051900000FF0000FFFFFFFF00FF0000000000FF16
:1051A00000FFFFFFFFFFFFFF2000000000000000E6
:1051B0000000FFFFFFFFFFFF00FF00000000FFFFF8
:1051C00000FFFFFFFF0000FF00FFFFFF0000FFFFE9
:1051D00000FFFFFFFF0000FF00FF00000000FFFFD7
:1051E00000FFFFFFFFFFFFFF2000000000000000A6
:1051F0000000FFFFFFFFFFFF00FF0000FF0000FFB8
:1052000000FF0000FF0000FF00FF0000000000FFA3
:1052100000FFFFFFFF0000FF00FFFFFFFF0000FF98
:1052200000FFFFFFFFFFFFFF200000000000000065
:105230000000FFFFFFFFFFFF00FF0000000000FF76
:1052400000FF0000FFFFFFFF00FF00000000FFFF66
:1052500000FFFFFFFF0000FF00FF00000000FFFF56
:1052600000FFFFFFFFFFFFFF200000000000000025
:105270000000FFFFFFFFFFFF00FFFF000000FFFF38
:1052800000FF0000FFFFFFFF00FF00000000FFFF26
:1052900000FF0000FF0000FF00FFFF000000FFFF15
:1052A00000FFFFFFFFFFFFFF2000000000000000E5
:1052B0000000FFFFFFFFFFFF00FF0000000000FFF6
:1052C00000FF0000FF0000FF00FFFFFF0000FFFFE6
:1052D00000FFFF0000FFFFFF00FFFF0000FFFFFFD8
:1052E00000FFFFFFFFFFFFFF2000000000000000A5
:1052F0000000FFFFFFFFFFFF00FFFF000000FFFFB8
:1053000000FF0000FF0000FF00FFFF000000FFFFA4
:1053100000FF0000FF0000FF00FFFF000000FFFF94
:1053200000FFFFFFFFFFFFFF200000000000000064
:105330000000FFFFFFFFFFFF00FFFF000000FFFF77
:1053400000FF0000FF0000FF00FFFF00000000FF63
:1053500000FFFFFFFF0000FF00FFFF000000FFFF56
:1053600000FFFFFFFFFFFFFF200000000000000024
:105370000000FFFFFFFFFFFF00FF00FF000000FF36
:1053800000FF00FF00FF00FF00FF00FF00FF00FF25
:1053900000FF00FF00FF00FF00FF00FF000000FF14
:1053A00000FFFFFFFFFFFFFF2000000000000000E4
:1053B0000000FFFFFFFFFFFF00FFFFFFFF0000FFF8
:1053C00000FFFFFFFF0000FF00FFFFFFFF0000FFE7
:1053D00000FF0000FF0000FF00FFFF000000FFFFD4
:1053E00000FFFFFFFFFFFFFF2000000000000000A4
:1053F0000000FFFFFFFFFFFF00FFFF000000FFFFB7
:1054000000FF0000FF0000FF00FF0000FF0000FFA2
:1054100000FF00000000FFFF00FFFF00000000FF92
:1054200000FFFFFFFFFFFFFF200000000000000063
:105430000000FFFFFFFFFFFF00FF0000FF0000FF75
:1054400000FF0000FF0000FF00FF00000000FFFF62
:1054500000FF0000FF0000FF00FF0000FF0000FF52
:1054600000FFFFFFFFFFFFFF200000000000000023
:105470000000FFFFFFFFFFFF00FFFF0E0E0EFFFF0C
:1054800000FF0E0EFF0E0EFF00FF0E0E0E0E0EFFA3
:1054900000FF0E0EFF0E0EFF00FF0E0EFF0E0EFFA2
:1054A00000FFFFFFFFFFFFFF2000000000000000E3
:1054B0000000FFFFFFFFFFFF00FF0E0E0E0EFFFFBD
:1054C00000FFFFFFFF0E0EFF00FFFF0E0E0EFFFF9F
:1054D00000FF0E0EFFFFFFFF00FF0E0E0E0E0EFF71
:1054E00000FFFFFFFFFFFFFF2000000000000000A3
:1054F0000000FFFFFFFFFFFF00FF0E0E0E0EFFFF7D
:1055000000FFFFFFFF0E0EFF00FFFFFF0E0EFFFF6D
:1055100000FFFFFFFF0E0EFF00FF0E0E0E0EFFFF3F
:1055200000FFFFFFFFFFFFFF200000000000000062
:105530000000FFFFFFFFFFFF00FF0E0EFF0E0EFF3C
:1055400000FF0E0EFF0E0EFF00FF0E0E0E0E0EFFE2
:1055500000FFFFFFFF0E0EFF00FFFFFFFF0E0EFF1D
:1055600000FFFFFFFFFFFFFF200000000000000022
:105570000000FFFFFFFFFFFF00FF0E0E0E0E0EFFED
:1055800000FF0E0EFFFFFFFF00FF0E0E0E0EFFFFCF
:1055900000FFFFFFFF0E0EFF00FF0E0E0E0EFFFFBF
:1055A00000FFFFFFFFFFFFFF2000000000000000E2
:1055B0000000FFFFFFFFFFFF00FFFF0E0E0EFFFFCB
:1055C00000FF0E0EFFFFFFFF00FF0E0E0E0EFFFF8F
:1055D00000FF0E0EFF0E0EFF00FFFF0E0E0EFFFF70
:1055E00000FFFFFFFFFFFFFF2000000000000000A2
:1055F0000000FFFFFFFFFFFF00FF0E0E0E0E0EFF6D
:1056000000FF0E0EFF0E0EFF00FFFFFF0E0EFFFF4E
:1056100000FFFF0E0EFFFFFF00FFFF0E0EFFFFFF5C
:1056200000FFFFFFFFFFFFFF200000000000000061
:105630000000FFFFFFFFFFFF00FFFF0E0E0EFFFF4A
:1056400000FF0E0EFF0E0EFF00FFFF0E0E0EFFFFFF
:1056500000FF0E0EFF0E0EFF00FFFF0E0E0EFFFFEF
:1056600000FFFFFFFFFFFFFF200000000000000021
:105670000000FFFFFFFFFFFF00FFFF0E0E0EFFFF0A
:1056800000FF0E0EFF0E0EFF00FFFF0E0E0E0EFFB0
:1056900000FFFFFFFF0E0EFF00FFFF0E0E0EFFFFCD
:1056A00000FFFFFFFFFFFFFF2000000000000000E1
:1056B0000000FFFFFFFFFFFF00FF0EFF0E0E0EFFBB
:1056C00000FF0EFF0EFF0EFF00FF0EFF0EFF0EFF8E
:1056D00000FF0EFF0EFF0EFF00FF0EFF0E0E0EFF6F
:1056E00000FFFFFFFFFFFFFF2000000000000000A1
:1056F0000000FFFFFFFFFFFF00FFFFFFFF0E0EFF99
:1057000000FFFFFFFF0E0EFF00FFFFFFFF0E0EFF6B
:1057100000FF0E0EFF0E0EFF00FFFF0E0E0EFFFF2E
:1057200000FFFFFFFFFFFFFF200000000000000060
:105730000000FFFFFFFFFFFF00FFFF0E0E0EFFFF49
:1057400000FF0E0EFF0E0EFF00FF0E0EFF0E0EFFEF
:1057500000FF0E0E0E0EFFFF00FFFF0E0E0E0EFFDF
:1057600000FFFFFFFFFFFFFF200000000000000020
:105770000000FFFFFFFFFFFF00FF0E0EFF0E0EFFFA
:1057800000FF0E0EFF0E0EFF00FF0E0E0E0EFFFFAF
:1057900000FF0E0EFF0E0EFF00FF0E0EFF0E0EFF9F
:1057A00000FFFFFFFFFFFFFF0000FF0000FF0020E2
:1057B0000000FF0000FF00200000000000FF0020AC
:1057C0000000FF0000FF0020FF000000FFFF00209E
:1057D000FFFFFFFFFF00002000000000000020206E
:1057E00020202020202020200000000000FF00209A
:1057F000FFFFFF0000FF0020FF000000FFFF002070
:105800000000FFFFFFFF0020FF00000000FF00205E
:10581000FFFFFFFFFF00002000000000000020202D
:105820002020202020202020FF00000000FF00205A
:105830000000FFFFFFFF0020FF0000FFFFFF002030
:105840000000FFFFFFFF0020FF00000000FF00201E
:10585000FFFFFFFFFF0000200000000000002020ED
:1058600020202020202020200000FFFFFFFF00201C
:105870000000FFFFFFFF00200000000000FF0020ED
:105880000000FF0000FF00200000FF0000FF0020DC
:10589000FFFFFFFFFF0000200000000000002020AD
:1058A0002020202020202020FF00000000FF0020DA
:1058B0000000FFFFFFFF0020FF00000000FF0020AE
:1058C000FFFFFF0000FF00200000000000FF00209D
:1058D000FFFFFFFFFF00002000000000000020206D
:1058E0002020202020202020FF000000FFFF00209B
:1058F0000000FF0000FF0020FF00000000FF00206C
:10590000FFFFFF0000FF0020FF000000FFFF00205E
:10591000FFFFFFFFFF00002000000000000020202C
:105920002020202020202020FFFF0000FFFF00205B
:10593000FFFF0000FFFF0020FF0000FFFFFF00202F
:105940000000FF0000FF00200000000000FF00201A
:10595000FFFFFFFFFF0000200000000000002020EC
:105960002020202020202020FF000000FFFF00201A
:105970000000FF0000FF0020FF000000FFFF0020EC
:105980000000FF0000FF0020FF000000FFFF0020DC
:10599000FFFFFFFFFF0000200000000000002020AC
:1059A0002020202020202020FF000000FFFF0020DA
:1059B0000000FFFFFFFF002000000000FFFF0020AD
:1059C0000000FF0000FF0020FF000000FFFF00209C
:1059D000FFFFFFFFFF00002000000000000020206C
:1059E0002020202020202020000000FF00FF002099
:1059F00000FF00FF00FF002000FF00FF00FF00206D
:105A000000FF00FF00FF0020000000FF00FF00205B
:105A1000FFFFFFFFFF00002000000000000020202B
:105A20002020202020202020FF000000FFFF002059
:105A30000000FF0000FF00200000FFFFFFFF00202C
:105A40000000FFFFFFFF00200000FFFFFFFF00201E
:105A5000FFFFFFFFFF0000200000000000002020EB
:105A6000202020202020202000000000FFFF002018
:105A7000FF00000000FF00200000FF0000FF0020EA
:105A80000000FF0000FF0020FF000000FFFF0020DB
:105A9000FFFFFFFFFF0000200000000000002020AB
:105AA00020202020202020200000FF0000FF0020D8
:105AB0000000FF0000FF0020FF00000000FF0020AA
:105AC0000000FF0000FF00200000FF0000FF00209A
:105AD000FFFFFFFFFF00002000000000000020206B
