:100000000C94EA360C9489370C9489370C94893710
:100010000C9489370C9489370C9489370C94893760
:100020000C9489370C9489370C9489370C94893750
:100030000C9489370C94B2380C9489370C94893716
:100040000C9489370C9489370C9489370C94893730
:100050000C9489370C9489370C9489370C94893720
:100060000C9489370C9489370C9489370C94893710
:100070000000000000000000000000000000000080
:100080000000000000000000000000000000000070
:100090000000000000000000000000000000000060
:1000A0000000000000000000000000000000000050
:1000B0000000000000000000000000000000000040
:1000C00000000000000000000000000000000049E7
:1000D00000000000004952520000004952531C2504
:1000E000004952522425251B52525C2D2D1C121200
:1000F00000000000000000000000000040494949E5
:1001000000404949525B5B5B4A52525B1C1C131214
:100110005B1C241C12090909241B12090909090A7C
:100120000A0A0A0A0A0A0A130A0A120A0A12130A0D
:1001300000000000000000009252525252525249F8
:1001400013121309001C1B130A1212401B65641CB6
:10015000090A0009241B1C65120000251C1C1C1C1C
:10016000010025241C1C1C1C0024252424241C1CE8
:1001700000000000000000004940000000000000F6
:1001800052494900000000001C5B4A480000000082
:100190001C2552490000000065246449000000004D
:1001A00065256449000000006D2E5C4900000000D8
:1001B0000000000000004052000000000049525CB6
:1001C000000000005352242500000053522525252D
:1001D00000004A5225251B0000005B251300001B70
:1001E000005B53000A1C3737095B1C657F372E2ED6
:1001F000522E2E1C131312002E251B131200001258
:100200001C1C12000012251C120000122E371C1399
:1002100000132E37361C131B37372E2E25131C1CAC
:100220002E2E2E2E1B1C1C1C6E6E6E1C1C1C1C1CD1
:10023000091313121213130013131313131C0009C1
:10024000131313131C0100371313131C13002E2E4A
:100250001B1B1C1C001C772E1B1B2500137F251C41
:100260001C1C010A37241C1C1C130A2E25250900FE
:10027000132E2425252525252E252525252525252F
:1002800025252D2E251B1C1C2E2E251C13251B134E
:10029000251C1C1C1C0109521C1C1300011C5B5C4E
:1002A0000A000165775C1B00016E7F6E521B000027
:1002B0006D1C5249000000001C1353000000000098
:1002C0001C524A00000000005B5B000000000000C0
:1002D0005C000000000000000000000000000000C2
:1002E000000000000000000000000000000000000E
:1002F000135B7F776E6E6E6E136577766E6E6E6EC5
:100300001B65777676766E771B5BBF76B6767676EC
:1003100009136DBFB7B6B765001B125C76BF766D6B
:100320000000121B125B5B5C00000000090A121344
:100330006E77241C1C1C1C1C77251C1C1C1C2425D3
:100340006E1C1C1C2425251B1C1C242525130000A9
:10035000646D6D1B00096EBF6D5B09126EBF6D5B36
:100360005B125B645B121312131B12120901000073
:100370001C242E1C0900096E2524010009767F7FAC
:10038000000012777F7F641264BFBF775B121B0986
:10039000BF6D5B121B09000012131B090000000057
:1003A0000900000000000000000000000000000044
:1003B0007F7F53131300000064121B010000000034
:1003C0001B12000000000000000000000000000000
:1003D000000000000000000000000000000000001D
:1003E000000000000000000000000000000000000D
:1003F0000000000000000000260000002600262665
:100400002F0000002F000000370000003700000020
:10041000FF000000FF000000BF000000BF0000BFA1
:10042000370000370000370000262600000026268F
:1004300000000000000000002626260026262626B2
:1004400000002F002F0000000037000037000000E0
:10045000FF000000FFFFFFFF00000000BF000000E2
:10046000000000003700000026262600262626264B
:1004700000000000000000002600262626260000BE
:1004800000002F0000002F000000370000003700A0
:100490000000FFFFFFFF00000000BF000000BF00E2
:1004A0000000370000003700260026262626000020
:1004B00000000000000000000000262626002600A4
:1004C000002F00002F002F003700000037000037FA
:1004D000FF000000FF000000BF000000BF0000BFE1
:1004E00037000037000037002626260000002600CF
:1004F00000000000000000000000260000000000D6
:1005000000002F0000000000003700000000000085
:10051000FF0000000000000000BF0000000000001D
:10052000000037000000000000002600000000006E
:1005300000000000000000000000000000000000BB
:10054000000000000000000000000000000000E4C7
:1005500000000000099BEDF60000009BA4ADBFBFAA
:1005600000529BA4767F7FB75B9B6D777F766EB7DB
:100570000000000000000000000000005BB6F6F67E
:10058000005BF6FFFFFFFFBFF6FFFFFFFFBFBFAE41
:10059000FFBFFFFFFFB7AD65BFBFFFFFB7B6AD65DC
:1005A000B7BFFFFFBFB7AE6EB7BFFFFFBFB7B7653F
:1005B0000000000000000000F6F6EDEDADA4A49BE5
:1005C000B66D6D5C526E65646565655265766D25C8
:1005D0005C5C52536E24656E6552526E252524254F
:1005E0005B52772D25252524526E6E2D2525252538
:1005F00000000000000000009B4900000000000017
:10060000A49B9200000000002564934900000000B4
:10061000652E9B52000000006D2565520000000011
:100620006D2D6552000000006E2E64520000000027
:10063000000000000000495B00000000004A5B650C
:10064000000000005B9B6D2D0000005B5B2D2E25E4
:100650000000525B2E2E1C0900015B2D1C01091CA1
:10066000005C5B014A65777F4A5B1C6E7F7777761B
:100670009B77776D656E6EA4776E6565655BA4B7D5
:1006800025255C52526DBFBF130949647FBFBFBFB0
:10069000095C7F7FBFBFB7BF7F7F777F7FB7BFBF5B
:1006A00077777F7F6EB7BFBF777F7F6E77BFBFBF24
:1006B000B6FFFFFFBFBFB75BBFFFFFFFBFBFA464B5
:1006C000BFFFFFFFBFADA47FBFFFFFFFBFA4BF7F82
:1006D000FFFFFFBFADBFBFBFFFFFFFB6BFBFBF770D
:1006E000FFFFF7BFBFBF7777FFFFFFBFBFBF6452FA
:1006F0006D7F6E2E2D2D256E7F766E6E6E2E25658E
:10070000777777762E1C25247F776E251C251C1B7A
:10071000776525251C090A5B6E6E1C0949256464F2
:100720005B494A6E7F645C005377BF775B5C000077
:100730006E255B4A000000001C1B5B0000000000EF
:10074000245B5300000000005B5C00000000000020
:100750006400000000000000000000000000000035
:100760000000000000000000000000000000000089
:100770005B5C7FBF777677775C6D7FB777777777CE
:100780005C6D7FBF777777BF5C64BFBFBFBFBF7F44
:100790000A5C6EBFBFBFBF760065646DBFBFBFBFE1
:1007A00000005B6D646DADB600000000125B646D0F
:1007B000777F6E6E77BFBFBF7F766D7677BFBFBF27
:1007C000776D6E767FBFBFBF6D6E767FBFB7ADF6BC
:1007D00076BFBF76A4ADFFFFBFB664ADFFFFFFFFDE
:1007E000B6ADBFFFFFFFFFF6ADB6AD645B520000D4
:1007F000FFFFBFBFAD5B64BFFFFFB6ADADBFFFBFC7
:10080000FFF6FFFFFFFFBF64FFFFFFFFBFB6765B92
:10081000FFFFFFBFBF5B0000FFFFFF5C00000000A9
:10082000A400000000000000000000000000000024
:10083000BFBF645C5C0000006E5C654900000000A6
:100840006D5B0000000000000000000000000000E0
:100850000000000000000000000000000000000098
:100860000000000000000000000000000000000088
:100870000504000102030405060708090A0B0C0D14
:10088000000E0F1011120503001314151617181976
:100890001A1B1C1D1E1F0000020800085504085AE0
:1008A0000000F8000990000A1E32050000FF000059
:1008B00000970800000000D03BDE3BEB3CC540AF9A
:1008C00040E13BF03BFF3B95400D3C1B3C00C00032
:1008D00000B0077F00C00000C10000B1076A00C27D
:1008E0000000B2076C0090476100C20000923B60BC
:1008F00000C100009143610443000090470008924A
:100900003B000690535800914F58049053000091BB
:100910004F000290474D0091434D049047000091D5
:1009200043000990536100914F610490530000917E
:100930004F000890475C0091435C114300009047D2
:100940000001535B00914F5B0590530000914F00F5
:10095000019047480191434800923B5E0490470054
:10096000009143000890536000914F6002923B0059
:1009700002914F00009053000892355F0190455B53
:100980000091415B04904500009141000A923500BE
:100990000490514100914D3D0490510000914D0053
:1009A000039045360091413204904500009141008A
:1009B0000890515B00914D570490510000914D00FB
:1009C0000892355F0090455C0091415C0D923500C6
:1009D000059141000090450001514400914D4000B7
:1009E00092375D0490510000914D00029045310016
:1009F00091412D049045000091410002923700067C
:100A000090515F00914D5B0092395E04905100005F
:100A1000914D0006923900033B5F009047590091C9
:100A20004359049047000091430009923B0006900F
:100A3000533D00914F3D044F000090530002473258
:100A4000009143320443000090470008535700913F
:100A50004F570490530000914F0008923B5E009066
:100A60004759009143590D923B0005904700009172
:100A700043000190534000914F4000923C5E04902F
:100A8000530000914F000290472D0091432D029298
:100A90003C00029047000091430008923E5D0090A8
:100AA000535B00914F5B0490530001914F000592FE
:100AB0003E0003405D0190455E0091415E0490451B
:100AC000000091410005924000093E5D00905141B7
:100AD00000914D3A0490510000914D00019045362F
:100AE0000091412F049045000091410001923E0089
:100AF0000790515B00914D5400923C5D0490510071
:100B000000914D0005923C000490455E00923B5DD3
:100B10000091415E119045000091410001905144C7
:100B200000914D3D01923B000390510000914D001A
:100B30000290453100923C5D0091412A0541000040
:100B400090450008515F00914D58044D00009051B0
:100B50000007923C00013B5C0191435C0090475CC4
:100B60000447000091430004923B000B914F410069
:100B700090533D04914F0000905300029143360082
:100B8000904732049143000090470008914F5B006A
:100B900090535704530000914F0009435900904768
:100BA0005900923B5C0A3B0006395C01914300000E
:100BB00090470001914F440090534004530000912E
:100BC0004F000243310090472D04923900009047B6
:100BD0000000914300084F5F0090535B0192375B28
:100BE0000390530000914F000592370003355B00DE
:100BF00091455B0190485B044800009145000692D6
:100C0000350004904A66009147660092375B069172
:100C1000470000904A00049237000E395B00904C68
:100C2000660091486607904C000091480003923995
:100C3000000F3B5C00904D5B00914A5B04923B00CF
:100C400001914A0000904D00094C6500923C5C0007
:100C500091486507923C000391480000904C000FBA
:100C60004A5B0091475B01923E5C363E0001904A30
:100C7000000191470000FF2F00000208010600015B
:100C800000EC01FF0002010106000100EC01FF0081
:100C9000FF00FF00FF0002010100EC00FF0002085E
:100CA00000084801083401083E01050000FF000269
:100CB000080000EC01083C01084401083C01085010
:100CC00001084601050000FF0002080000E20008DC
:100CD0004805050000FF0002080000F90008542D37
:100CE000050000FF000000790C000000000000007B
:100CF000840C000000000000008F0C0000000000C9
:100D00000000910C00000000000000930C000000A7
:100D100000000000950C000000000000009D0C0089
:100D2000000000000000AE0C00000000000000C841
:100D30000C00000000000000D60C00000000FEFEC9
:100D4000FEFEFE0000FEFEFEFEFE00FFAD01FEFE0A
:100D5000FEFE00FFAD01FEFEFEFE00FFAD00FEFE4A
:100D6000FEFE00FFAD00FEFEFEFE00FFAD00FE0039
:100D700000FE00FFFF0000FFFF0000FFFFFFFEFE80
:100D8000FEFEFEFEFEFEFEFEFEFEFEFEFEFEFEFE83
:100D9000FEFEFEFEFEFEFEFEFEFEFEFEFEFE00006F
:100DA0000000FEFEFEFEFFAD00AD0000FEFEFFAD4A
:100DB00000AD00AD00FEFFFFFFADFFAD00FEFEFE8B
:100DC000FEFEFEFEFEFEFEFEFEFEFEFEFEFEFEFE43
:100DD000FEFEFEFEFEFEFEFEFEFEFEFEFEFEFEFE33
:100DE000FEFEFEFEFEFEFEFEFEFEFEFEFEFEFEFE23
:100DF000FEFEFEFEFEFEFEFEFEFEFEFEFEFEFEFE13
:100E0000FEFEFEFEFEFEFEFEFEFEFEFEFEFEFEFE02
:100E1000FEFEFE0000FEFEFEFEFE000B0B00FEFED0
:100E2000FE006E1E000BFEFEFE0014000B14FEFE04
:100E3000FEFE000B146EFEFEFE000B146E6EFEFE38
:100E40000000FEFEFEFEFE000B0B00FEFEFE000B91
:100E5000146E6E00FEFE0B146E6E1E1E00FE146EEF
:100E60006E1E1E1E1E006E6E1E1E1E1E140B6E1E9D
:100E70001E1E1E14140B1E1E1E1E14140B0BFEFE33
:100E8000FEFEFEFEFEFEFEFEFEFEFEFEFEFEFEFE82
:100E9000FEFEFEFEFEFEFEFEFEFEFEFEFEFEFEFE72
:100EA000FEFEFEFEFEFE00FEFEFEFEFEFEFE00FE5E
:100EB000FEFEFEFEFEFE00FEFEFEFEFEFEFEFEFE50
:100EC000FEFEFEFEFEFEFEFEFEFEFEFEFEFEFEFE42
:100ED000FE0000000000FEFE000B146E1E1EFEFE53
:100EE000000B146E1E1EFEFE000B146E1E1EFEFE78
:100EF000000B146E1E1EFEFE000B146E1E1EFEFE68
:100F0000FEFEFEFEFEFEFEFEFEFEFEFEFEFE0000FD
:100F1000FEFEFEFEFEFE140B00FEFEFEFEFE140BA9
:100F200000FEFEFEFEFE140B00FEFEFEFEFE140B97
:100F300000FEFEFEFEFE140B00FEFEFEFEFE00FFA7
:100F4000FFAD00FFFF00FE00FFFFADFFFF00FEFE54
:100F500000FFFFFFFF00FEFE00FFFFFFFF00FEFEA1
:100F6000FE00FFFFFFFFFEFEFEFE00FFFFFFFEFE96
:100F7000FEFEFE00ADADFEFEFEFEFEFE0000AD007C
:100F8000AD00FFAD00FEAD00AD00FFAD00FEAD0059
:100F9000AD00FFAD00FEAD00AD00FFAD00FEFFFFF8
:100FA000FFFFAD00FEFEFFFFFFADAD00FEFEADADED
:100FB000ADAD00FEFEFE00000000FEFEFEFEFEFEE9
:100FC000000B146E6E1EFE000B146E6E1E1E000BC8
:100FD000146E6E1E1E1E00146E6E1E1E1E1EFE0061
:100FE0006E1E1E1E1E14FEFE001E1E1E1414FEFE8D
:100FF000FE001414140BFEFEFEFE000B0B0B1E1E57
:101000001E14140B0B001E1E14140B0B00FE1E14DA
:10101000140B0B00FEFE14140B0B000000FE140B4F
:101020000B0000000B000B0B0000000B140B0B005F
:10103000FE000B14141400FEFEFE00141E1EFEFE25
:10104000FEFEFEFEFEFEFEFEFEFEFEFEFEFEFEFEC0
:10105000FEFEFEFEFEFEFEFEFEFEFEFEFEFEFEFEB0
:10106000FEFEFEFEFEFE00FEFEFEFEFEFEFE0B008F
:10107000FEFEFEFEFEFE140B00FEFEFEFEFEFE0069
:10108000000B146E1E1E001E000B146E1E1E00149C
:10109000000B146E1E1E000B000B146E1E1EFE00B5
:1010A000000B146E1E1EFEFE000B146E1E1EFEFEB6
:1010B000000B146E1E1EFEFE000B146E1E1E140B83
:1010C000000000000000140B00001E1E1E1E140B6A
:1010D000000014141414140B00000B0B0B0B140B56
:1010E000000000000000140B00FEFEFEFEFE140BCC
:1010F00000FEFEFEFEFE140B00FEFEFEFEFE0000E5
:101100000000000000FE1E1E1E1E1E1E0B001414FA
:10111000141414140B000B0B0B0B0B0B0B00000027
:101120000000000000FEFEFEFEFEFEFEFEFEFEFED5
:10113000FEFEFEFEFEFEFEFEFEFEFEFEFEFEFEFECF
:10114000FEFEFE000000FEFEFEFEFEFEFEFEFEFEB9
:10115000FEFEFEFEFEFEFEFEFEFEFEFEFEFEFEFEAF
:10116000FEFEFEFEFEFEFEFEFEFEFEFEFEFEFEFE9F
:10117000FEFEFEFEFEFEFEFEFEFEFEFEFEFEFEFE8F
:10118000FEFEFE00141EFEFEFEFEFEFE0014FEFE2F
:10119000FEFEFEFEFE00FEFEFEFEFEFEFEFEFEFE6D
:1011A000FEFEFEFEFEFEFEFEFEFEFEFEFEFEFEFE5F
:1011B000FEFEFEFEFEFEFEFEFEFEFEFEFEFE1E1419
:1011C0000B00FEFEFEFE1E1E140B00FEFEFE141E95
:1011D0001E1E0B00FEFE00141E1E140B00FEFE0061
:1011E0001414140B00FEFEFE000B0B00FEFEFEFEB0
:1011F000FE0000FEFEFEFEFEFEFEFEFEFEFEFEFE0B
:10120000000B146E1E1EFEFE000B146E1E1EFEFE54
:10121000FE0000000000FEFEFEFEFEFEFEFEFEFEE4
:10122000FEFEFEFEFEFEFEFEFEFEFEFEFEFEFEFEDE
:10123000FEFEFEFEFEFEFEFEFEFEFEFEFEFE140BAB
:1012400000FEFEFEFEFE140B00FEFEFEFEFE000093
:10125000FEFEFEFEFEFEFEFEFEFEFEFEFEFEFEFEAE
:10126000FEFEFEFEFEFEFEFEFEFEFEFEFEFEFEFE9E
:10127000FEFEFEFEFEFEFEFEFEFEFEFEFEFE030384
:1012800000010208090202020203030304050A0B1B
:101290000C10111203030607020D0E0F1314021B8C
:1012A0001600000000000000000000000000000028
:1012B000000000000000000000000000931E1A1B48
:1012C0001C1D1E1F1A1B1C1D1E1F1A1B1C1D1E1F52
:1012D0001A1B1C1D1E1F94959697989995963397E7
:1012E0009899959633979899959633979899959656
:1012F0003397050600000000000000000000000019
:1013000000000000000000000000000001101100BB
:1013100000000000000000000000000000000000CD
:10132000000000000000000C1E1F00000000000074
:1013300000000000000000000000000000000000AD
:1013400000001A96330000000000000000000000BA
:1013500000000000000000000000000000970506EB
:10136000000000000000000000000000000000007D
:10137000000000000000000001101100000000004B
:10138000000000000000000000000000000000005D
:101390000000000C1E1F0000000000000000000004
:1013A00000000000000000000000000000001A968D
:1013B00033000000000000000000000000000000FA
:1013C000000000000000000000970506000000007B
:1013D000000000000000000000000000000000000D
:1013E00000000000011011000000000000000000DB
:1013F0000000000000000000000000000000000CE1
:101400001E1F00000000000000000000000000009F
:10141000000000000000000000001A9633000000E9
:1014200000000000000000000000000000000000BC
:10143000000000000097050600000000000000000A
:10144000000000000000000000000000000000009C
:10145000011011000000000000000000000000006A
:1014600000000000000000000000000C1E1F000033
:10147000000000000000000000000000000000006C
:101480000000000000001A96330000000000000079
:10149000000000000000000000000000000000004C
:1014A0000097050601020304050601020304050670
:1014B0000102030405060102030405060110110CD4
:1014C0000D0E0F10110C0D0E0F10110C0D0E0F1034
:1014D000110C0D0E0F10110C9A1F1A1B1C1D1E1F34
:1014E0001A1B1C1D1E1F1A1B1C1D1E1F1A1B1C1D38
:1014F0001E1F9B06040102030405060C0D0E0F10AF
:10150000111A1B1C1D1E1F2E2F30313233060401F1
:1015100002030405060C0D0E0F10111A2021221EC5
:101520001F2E343536323306040102030405060C3F
:101530000D0E0F10111A2324251E1F2E3738393295
:101540003306040102030405060C12131410111AC9
:101550002627281E1F3A3B3C3D3233060401020376
:101560000405060C53245410111A6B6C6D1E1F7B5E
:101570007C7D7E7F3306040102030405060C55566C
:101580005710111A6E6F701E1F808182837F330681
:10159000040102030405060C58595A10111A7172FD
:1015A000731E1F84858687883306040102030405A1
:1015B000060C0D0E0F10111A1B1C1D1E1F2E898AE2
:1015C0008B323305020708090A0B1516171819057F
:1015D00002292A2B2C2D3E3F40414207024344451D
:1015E000464748495B5C5D5E5F606109024A4B4C5F
:1015F0004D4E4F50515262636465666768696A0771
:10160000027475767778797A8C8D8E8F90919200AE
:1016100000000000000000000000000000000000CA
:1016200000000000000000000000000000000000BA
:1016300000000000000000000000000000000000AA
:101640000000000000000000000000000000001981
:101650006B19226322226B196B2222622222222220
:1016600022192222226B6B192222196B222B6B1951
:10167000226B196B6B2A6B196A6B6B226B226B6383
:1016800022746B6B222B226B626B6B226B226B6B57
:101690006B2122226A182A6B6B6B222A22196B2A71
:1016A0002A6B222A2A21226B222A212A6B21196BDA
:1016B0006B212122736B2222BD196A226B73226275
:1016C000BD21212A2A6B2A22732A19212A2A732A48
:1016D000736B6B222221222A6B6B216B222A21221F
:1016E0006B6B19226A6B2221226A2219196A2A223B
:1016F00021222222186A6B2B22191922196B2A2205
:101700002A6B2263226B1922226B6B6B21736B2273
:101710002A6B22226B212A22222A6B2B6B2A21215F
:101720002A2A6B6B2A2A22222A742A2B222A222274
:101730002A2A2B6A21216B6B222B73196A19737366
:10174000226A7419222A2A6B6B6B6A6B6B6B2A2ACA
:101750002A216A2A212122192221222A1922192129
:10176000226B2122226B226B22222222216B6A22EF
:101770007421192A222A6B6A6B7319226B2A197336
:101780002B746B6B212A226B626B732A2A2A192A0B
:101790006B2A19196B6B1922226B2219216B226B90
:1017A000197321196A2A2274196A22196B21222AB3
:1017B0006B216B22222A2A2A2A226B2A19226A22C8
:1017C0006B21226A22186A6A6A22222222222109B5
:1017D00009090909090909002727272727272700B9
:1017E000272727272727270027276FAEF6536D00C7
:1017F0002F77FFFFF65BAD0037B6FFFF000000005C
:10180000375BFFFFF6521C003F2D49B6FFFF090969
:10181000090909090909092727272727272727272A
:1018200027272727272727B6AEAD656D651C27FF1D
:10183000FFFFFFFFAD001C005BFFFF0000005B121D
:101840005BFFFF000012FF1B6DFFFF00007FFF0921
:1018500009090909090909272727272727272727EA
:10186000272727272727272FAF132627276FB6B627
:10187000FF5B132F2FFFFFFFFFFF521337FFFFFF09
:10188000ADFFFF091BFFFFFF52F6FFB600FFFF0988
:1018900009090909090909272727272727272727AA
:1018A00027272727272727AEAEA51C26B6AEAEF6DC
:1018B000B6FFFF52FFFFFF5B00ADFFAD0000ADF6CE
:1018C000ADFFFFA40000ADFFFFFF5B00001BAD09F3
:1018D000090909090900002727272727271F0027AB
:1018E00027272727271300A5656D651D271300FFF0
:1018F000FFFF5B00251B00FFAD0000001C1B00FF6D
:10190000AD00001B371B00FFAD00123F3F1B006BFB
:101910006B226B226B6B226222196B2222741919C3
:101920006B732222227421226B6B6B19226A732241
:10193000222A6A222121BC222A2A196B21217422FF
:10194000212A221973226222226A22196A73216BC8
:10195000196B2222226B6A6B6B6B212A22216B226C
:101960006B6B106A22217419626B1162222274213E
:1019700022621922746B746A186B106A6B6B6A6A44
:1019800022621062222222212221192222222222D4
:101990002B6B1974222A73221A6B196B6B212A196B
:1019A000227422222A6A212263742222222A211AE4
:1019B0006B6B222A212A2262226B732A212A2A6A2D
:1019C000222273216B6B2A226A19226A6B2A732ADC
:1019D0006B6B22216A2A6A6B222A226B222A732AC3
:1019E0002A73196B2A2A6B73222A226B2A6B6B7358
:1019F00073212122732A222B6B212A196B6B212A36
:101A00006B196B6A216B2A2A2A2273226A736B2A4A
:101A100022732A2A736B2221226B73226B746B2A26
:101A2000226A2A6B2A73736B2273226B6B2A2A74C5
:101A30002274192A732A2A6B6B7319107C216B1973
:101A40006B6B6B1074222A21227322226B73216B21
:101A5000222A21222222226B22226B196B21216B46
:101A60006B6B7321222A10736B2B732A212A6B2A2A
:101A70007322732A292173216A192A2A7321216B5F
:101A800021732A2A216A192173212A2A212A216BEA
:101A9000196B2222226B6A6B6B6B212A22216B222B
:101AA0006B6B106A22217419626B11622222002171
:101AB000226219220000136A186B1000131D006ABD
:101AC000226200131D001D212200131D1D1DFF2277
:101AD0002B6B1974222A73221A6B196B6B212A192A
:101AE000227422222A6A2100000000000000001354
:101AF00013131313131313001D1D1D1D1D00001DB3
:101B00001D1D1D1D1D1D1DFFFF1D1D1DFFFFFF2A8E
:101B10006B6B22216A2A6A6B222A226B222A732A81
:101B20002A73196B2A2A6B73222A226B2A6B6B0089
:101B300000212122732A221313002A196B6B210022
:101B40001D13006A216B2A1D1D1D13006A736B0093
:101B50003F3F64A4FFFF52003F7FFFFFFFAD000047
:101B6000372DA45B49000000373713000000120036
:101B70002F2F26131C262F002F2F2F2F2F2F2F0014
:101B8000140A0A0A0A0A0A00000000000000000005
:101B90006DFFFF0909FFFF006EFFFF52ADFFFF0061
:101BA0002D5B5200005252252E0000000000002F35
:101BB0002F2E1C1D2E2E252F2F2F2F2F2F2F2F0A8C
:101BC0000A0A0A0A0A0A0A0000000000000000F6D9
:101BD000F6FFFFFFA4FFFF490000A4FFFFFFFF0087
:101BE0000009005B5249520013372E000000002507
:101BF0002F2F2F2E1C25262F2F2F2F2F2F2F2F0A41
:101C00000A0A0A0A0A0A0A0000000000000000A4EA
:101C1000FFFF5B001B366D5B5BFFFF091B3F6D0920
:101C2000005B52090036650000130000002E2525D8
:101C30002E2F1C252E2F2F2F2F2F2F2F2F2F2F0AF8
:101C40000A0A0A0A0A0A0A0000000000000000FF4F
:101C5000F600123F3F1B00FFFF00093F3F1B005BE8
:101C600052000037371B000000001337371B0025D8
:101C70001C252F2F2F1B002F2F2F2F2F2F13000A44
:101C80000A0A0A0A0A0A00000000000000000021F7
:101C90006B21222222222222217321222A2119228F
:101CA0006A226A216B22101973196A19216B626208
:101CB0002274226B186B626B182222626B226222E2
:101CC0006B18192274216A226A6A10197321212261
:101CD000211819226B226A6B221019196B216B19BA
:101CE0006B2219086B212110196B6210226A2122C4
:101CF0002219626B21106A192B6A106A7322222141
:101D000021741810226B2121196B6A0819192122DC
:101D10006A1910626B2A73222A6B10226B217322BC
:101D200021196B226B21736B221962212A2A2A2125
:101D30002A2A196B2A2A212A216A18622A2A2A2287
:101D4000216A1921212A2122212122222121196BF4
:101D50002221732A2A22736B19196B2273212A6B91
:101D600021212A6B2A2A6B7319212A6B2A6B212ABB
:101D70002221212A2173216A6219192A216B216BE0
:101D80007C19212A182173216A222A2122222A6BF6
:101D9000186A732B6B2222736B6A6B217321196B88
:101DA0006A2A6B222274212A216A197421222A2A82
:101DB000212A106B6A182B6A2129196A6B2A2A2A90
:101DC0002173196B216B2A2A186A192A22186B1899
:101DD00073212A2A212A102A6B6A2A2A2173212296
:101DE0006B6A216A216A212A222A6A2A21212A2A47
:101DF0002A2A2A6A2121212A2A2A6B2A2A6A212AA6
:101E00006A2A196B18226A21222A196B21182222A8
:101E1000211819226B226A6B221019196B216B1978
:101E20006B2219086B212110196B6210226A212282
:101E30002219626B21106A192B6A106A7322002121
:101E40002174181000001321196B6A00131D002261
:101E50006A1910626B2A73222A6B10226B2173227B
:101E600021196B226B21736B221962212A2A2A21E4
:101E70002A2A196B2A2A2100000000000000001302
:101E800013131313131313001D1D1D1D1D00006BD1
:101E90002221732A2A22736B19196B2273212A6B50
:101EA00021212A6B2A2A6B7319212A6B2A6B212A7A
:101EB0002221212A2173216A6219192A216B21000A
:101EC0000019212A1821731313002A2122222A2201
:101ED000211819226B22006B221019190000131906
:101EE0006B221900131D0010196B00131D001D2219
:101EF0002200131D1D1DFF192B00131D13FFFF21B1
:101F000021001D1D13FFFF2119001D1D13FFFF00E0
:101F10000000000000000013131313131313130029
:101F20001D1D1D1D1D00001D1D1D1D1D1D1D1DFF39
:101F3000FF1D1D1DFFFFFFFFFFFF1DFFFFFFFFFF39
:101F40000000FF0000FFFFFF0000FF0000FFFF6B2D
:101F50002221732A2A22730000196B2273212A136B
:101F600013002A6B2A2A6B001D13006B2A6B211D9C
:101F70001D1D1300217321FF131D1300216B21FF71
:101F8000131D1D00182173FF131D1D0022222A227C
:101F90002100131D13FFFF6B22001D1D13FFFF19EE
:101FA0006B001D1D13FFFF1000131D1D13FFFF22EB
:101FB00000131D1D1D13FF1900131D1D1D1D000005
:101FC00013131D1D1D1D0000131D1D1D1D1D00FFD4
:101FD000FFFF1DFFFFFFFFFF0000FF0000FFFFFFEF
:101FE0000000FF0000FFFFFFFFFFFFFFFFFFFFFFFD
:101FF0000000000000FFFF00005200000000000091
:10200000520000000000000000000000000000FF7F
:10201000131D13002A2273FF131D1D0073212AFFB5
:10202000131D1D002A2A6BFF131D1D13006B2113A6
:102030001D1D1D130073211D1D1D1D13006B211D72
:102040001D1D1D131300731D1D1D1D1D13002A00D2
:1020500000000000000000001414141414141400F4
:102060001427272727272700142727272727270074
:102070001C2F2F77B6F653001C3777FFFFF65B0057
:102080001C37B6FFFF0000001C3F5BFFFFF652004D
:102090000000000000000014141414141414142779
:1020A0002727272727272727272727272727276D7A
:1020B000B6AEAD656D651CADFFFFFFFFFFAD000067
:1020C000005BFFFF00000024125BFFFF0000120016
:1020D0000000000000000014141414141414142739
:1020E0002727272727272727272727272727272F78
:1020F0002FB713262F2F771CB6FF5B132F37FF5BED
:10210000FFFFFF521B37FFFFFFADFFFF091BFF0063
:1021100000000000000000141414141414141427F8
:10212000272727272727272727272727272727B6B0
:10213000AEAEA51C26B6B6FFF6B6FFFF52FFFFFFF8
:102140005B00ADFFAD0000FFF6ADFFFFA400000097
:1021500000000000000000141414141414140027CC
:10216000272727272727002727272727272700AEC6
:10217000A5656D65252F00FFFFFFFF5B002500AD06
:10218000FFAD0000001C00ADFFAD00001B360018C5
:10219000226B19196A191121181A11080000001967
:1021A000080000000A0A0A00000A0A0A0A090908C7
:1021B00000000A09090000191100000000000021B8
:1021C00022221911080000192222192A192A221183
:1021D00008080800000000000A0A0A0A0A0A000AA1
:1021E0000A0909090000130909000000131D000075
:1021F000000000131D001D000000131D1D1DFF0029
:102200000000131D13FFFF22191108080800000029
:1022100000000000000000000000000000000013AB
:1022200013131313131313001D1D1D1D1D00001D7B
:102230001D1D1D1D1D1D1DFFFF1D1D1DFFFFFFFF82
:10224000FFFF1DFFFFFFFF00000000000000000077
:10225000000000080911190A0A0A0A0A0A0A0A00F3
:102260000009090909090A13130000000000090008
:102270001D1300000000001D1D1D1300000000FFC5
:10228000131D13000000000000000008111962195E
:1022900021216B187C211800000011116B73180AA2
:1022A0000A0A000000111909090A0A0A00000000C0
:1022B00000090000000008000000000008112200D2
:1022C00000091119212A19102A21216A2222186ACB
:1022D000212A216B19192A2221222A2273106A101D
:1022E0002A21212A6A2A182A6B186A2A222A212AD4
:1022F00022106B2A22212A22221022222121212A85
:10230000621919211919196A191922221919181192
:10231000080800131D001D000A00131D1D1DFF0AE3
:102320000A00131D13FFFF0909001D1D13FFFF0005
:1023300000001D1D13FFFF0000131D1D13FFFF00F4
:1023400000131D1D1D13FF22191108080800001D90
:102350001D1D1D1D1D1D1DFFFF1D1D1DFFFFFFFF61
:10236000FFFF1DFFFFFFFFFF0000FF0000FFFFFF5B
:102370000000FF0000FFFFFFFFFFFFFFFFFFFFFF69
:102380000000000000FFFF0000000000000000004F
:102390001D1300080911191D1D1D13000A0A0AFF4B
:1023A000131D130009090AFF131D1D00000009FF7A
:1023B000131D1D00000000FF131D1D13000000135E
:1023C0001D1D1D13000000000000000811196211FE
:1023D00000131D1D13FFFF0000131D1D1D13FF0A19
:1023E00000131D1D1D1D000013131D1D1D1D0000CC
:1023F000131D1D1D1D1D0000131D1D131D131D008C
:10240000131D1D131D1D132219110808080000FFBC
:10241000FFFFFFFFFFFFFFFF0000000000FFFF00C6
:102420000052000000000000520000000000000008
:1024300000000000000000000000000000001D1D62
:1024400000000000001D130000000000000000FF5D
:10245000131D1D13001119131D1D1D13000A0A1D44
:102460001D1D1D1300090A1D1D1D1D131300091D2F
:102470001D1D1D1D130000131D1D1D1D1300001D1E
:102480001D131D1D13000000000000081119621823
:10249000226B19196A191121181A11080000001964
:1024A000080000000A0A0A00000A0A0A0A090908C4
:1024B00000000A09090000191100000000000021B5
:1024C00022221911000000192222192A192A220099
:1024D000131D1D131D131D00131D1D131D1D1300A2
:1024E000131D1D1D001D1D09001D1D1D00000000E8
:1024F000001D1D1D1D000000131D1D1D1D1D0000C4
:102500000000001D1D1D1D221911080808000000F3
:102510000000000000001D1D00000000001D131D34
:102520001D1D131D1D1D1D5252520052525200FFFF
:10253000FFFF00FFFFFF0000FFFF00FFFF00001D87
:102540001D1D1D1D1D1D1D000000000000000013AD
:102550001D131D1D1300191D1D131D1D13000A1D24
:10256000001D1D1D13000A00001D1D1D1300090084
:102570001D1D1D1D0000001D1D1D1D1D1300001D26
:102580001D1D1D0000000000000000081119620060
:10259000243F2D49B6FFFF001C3F3F64A4FFFF000E
:1025A0001C377FFFFFFFAD001C3725A45B490000EF
:1025B0001C2F2F1300000000142F2F2613142600A9
:1025C0001427272727272700000000000000000904
:1025D0001B6DFFFF00007F52006DFFFF0909FF0028
:1025E000006EFFFF52ADFF00002D5B520000520A4B
:1025F000252E00000000002F2F2F26141D26262731
:10260000272727272727270000000000000000FFBA
:10261000FF52F6FFB600FFFFF6F6FFFFFFA4FFFF35
:10262000490000A4FFFFFF52000009005B5249006F
:1026300000132F260000001D1D2F2F2F26141D27ED
:10264000272727272727270000000000000000FF7A
:10265000FFFFFF5B00001BFFA4FFFF5B001B36FFBB
:102660005B5BFFFF091B375209005B5209002E001C
:102670000000130000002E261D2627141D262F27DC
:10268000272727272727270000000000000000AD8C
:10269000FFAD00123F3F006DFFF600123F3F006D9F
:1026A000FFFF0009373700655B5200003737002510
:1026B000000000132F2F002F1D141D2F2F27002780
:1026C0002727272727270000000000000000006BB5
:1026D0006B2122226A182A6B6B6B222A22196B2A21
:1026E000221A11111109096A11000000000000628C
:1026F0000009151F1F1F1F19000A27272727271941
:10270000000A2F2F2F13001900123737371B002A0A
:10271000736B6B222221222A6B6B216B222A2109E7
:102720001119111911111100000000000000001F03
:1027300015140A010B1515272727272727272700F8
:102740001C2F2F2F2F2F2F001337373737373722D4
:102750002A6B22226B212A22222A6B2B6B2A210828
:102760001111111A2A2A220000000000212A221524
:10277000151F1F0011216B272727270A1119631422
:1027800000000008221A081C1212006B2208002AFE
:102790002A216A2A212122192221212219221921E2
:1027A00022621109196B226B19080000086B2219AB
:1027B00009000B1500111908000B2727130008004A
:1027C000132F2F2F2F09001337373737372E002AB3
:1027D0006B2A19196B6B1922226B2219216B226249
:1027E0001111080811111111000000000000000073
:1027F0000B151F1F1F1F1500132727271F27270033
:10280000132F2F2F0A001C001B3737371200001917
:102810006B19226322226B196B221A1A1A222211B7
:102820001109090808192200000000000A00091413
:10283000090B1F1F1F140027271414272727142FE5
:102840002F2F141C2F2F2F2F373737001C37376BA4
:102850006B2122226A182A6B6B6B222A22196B2A9F
:1028600022111111111119110800000000000800B7
:10287000000B1E1F1F15090B1E2727271401112FE0
:102880002F2F260A081A2A372F1B00112A2A736BAA
:102890006B2122226A182A6B6B6B222A22196B2A5F
:1028A0002A6B19111109096B190900000000006257
:1028B000090001141F1F1F110009272727272709B7
:1028C00000262F2F13000000093737370000002A99
:1028D000736B6B222221222A6B6B216B222A21111E
:1028E0001A6B19226A6B1100006222191909001E65
:1028F0000A112219080009270119190800091E00E8
:102900000011080009262F00000000002E372522A4
:102910002A6B22226B212A22222A6B2B6B2A21115D
:102920001A2A6B6B22192100086B2A220800111544
:1029300000112A09000B0027140011000A27132F89
:102940002F1200001D2F2F24373709093737372A58
:102950002A216A2A212122192221222A1922192117
:10296000221A11191111096A19000000000000094A
:10297000090014000A1F1F00000A27130A27271343
:1029800000262F26122F2F37243737371B37372AA9
:102990006B2A19196B6B1922226B2219216B2211D8
:1029A000081111196A2A2200000000196B21221F48
:1029B0001F1F0911222A2A27272701221922221C38
:1029C0000000086A22181137371B08222222111929
:1029D0006B19226322226B196B222262222222228D
:1029E0002211110911111119110000000000000934
:1029F0000001141F1F1F1500001E27271327270083
:102A0000132F2F1C00252F0025373712002E376B70
:102A10006B2122226A182A6B6B2A222A22196B1137
:102A20001111111922111100000000081100001FDE
:102A30001F1F150008001F1E2727270A0013272F16
:102A4000132F2F2500262F37122537372437372A03
:102A5000736B6B222221222A6B6B216B222A2109A4
:102A60001111081111111100000000000000001FD9
:102A70001F1F1F1F1F151F2727272727271D272F2A
:102A80002F2F1C0000252F36373737371B243722CE
:102A90002A6B22226B212A21222A6B2B6B2A2108E6
:102AA0001111111A2A2A2200000000000919221F00
:102AB0001F1F160B00086B271D2727271E00632FDB
:102AC00009001D2F2F0919371C2437373709226BAE
:102AD000196B2222226B006B6B6B212A00001322E0
:102AE0006B6B1000131D0019626B00131D001D217C
:102AF0002200131D1D1DFF6A1800131D13FFFF6A1E
:102B000022001D1D13FFFF2122001D1D13FFFF2AA0
:102B10006B6B22216A2A6A00002A226B222A731315
:102B20001300196B2A2A6B001D13006B2A6B6B1D97
:102B30001D1D1300732A22FF131D13006B6B21FF51
:102B4000131D1D00216B2AFF131D1D006A736B6B83
:102B5000196B2222226B006B6B6B212A000013225F
:102B60006B6B1000131D1D19626B00131D1D1D21C1
:102B70002200131D1D1D1D6A1800131D1D1D006A56
:102B800022001D1D1D00002122001D1D1D1D000015
:102B90000000000000000013131313131313131D80
:102BA0001D1D1D1D1D1D1D1D1D1D1D1D1D1D1D1D55
:102BB0001D1D1D1D1D1D1D1D1D1D1D1D1D1D00007F
:102BC0001D1D1D1D1D00001D1D1D1D1D1D1D002A7F
:102BD0006B6B22216A2A6A00002A226B222A731355
:102BE0001300196B2A2A6B1D1D13006B2A6B6B1DBA
:102BF0001D1D1300732A221D1D1D13006B6B210068
:102C00001D1D1D00216B2A1D1D1D1D006A736B6B90
:102C1000196B2222226BFF6B6B6B212AFFFFEC22C8
:102C20006B6B10FFECE2E219626BFFECE2E2E22177
:102C300022FFECE2E2E2E26A18FFECE2E2E2FF6A83
:102C400022FFE2E2E2FFFF2122FFE2E2E2E2FFFFF7
:102C5000FFFFFFFFFFFFFFECECECECECECECECE239
:102C6000E2E2E2E2E2E2E2E2E2E2E2E2E2E2E2E244
:102C7000E2E2E2E2E2E2E2E2E2E2E2E2E2E2FFFFFA
:102C8000E2E2E2E2E2FFFFE2E2E2E2E2E2E2FF2A85
:102C90006B6B22216A2A6AFFFF2A226B222A73ECBD
:102CA000ECFF196B2A2A6BE2E2ECFF6B2A6B6BE2FA
:102CB000E2E2ECFF732A22E2E2E2ECFF6B6B21FF1F
:102CC000E2E2E2FF216B2AE2E2E2E2FF6A736B1AC0
:102CD00000123F3F3F362E5A00123F3F3F3F3F1901
:102CE00000123F3F3F25371100123737371B1219AB
:102CF000080A2F2F2F13006A080000000009116A2C
:102D00002262106221222221222119222222223F24
:102D10003F3F3F373F3F3F3F3F361B123F3F3F3F25
:102D20003F3709123F3F3F3737372E1237373713B8
:102D30002F2F260A2F2F2F001313000913131311FF
:102D400008116B11080808226A19226A6B2A733F5E
:102D50003F3F001908001B362D2D000900093F1BBD
:102D60000000000009373F2E252525092F37372F72
:102D70002F2F2F272F2F2F130A0A130A13141D0882
:102D8000110809090808082A2A2273226A736B3F6E
:102D90003F3F1B363F3F253F3F2D001B3F3F3F3FFF
:102DA0003F3F3F3F3F3F3F371C1B1B1B2537371D16
:102DB0000009080000272F015A731908000A131090
:102DC0006B6B6B1062080821227322226B73210047
:102DD0001B3F3F3F1200001B123F3F3F12000037D6
:102DE0001B3F3F3F120024372E3737371C2E372F1B
:102DF0002F262F2F2F2F2F0A0A00000A0A09001151
:102E0000116B19111119192173212A2A212A212D37
:102E10003F3F3F12123F3F3F3F3F3F00123F3F3F88
:102E20003F3F1B00123F3F37371C00001237371D52
:102E30000A0811000A2F2F08192A1911000A0A225C
:102E4000212A22195A090922226A22196A73213F6A
:102E50001B082222226B6A3F1B08212A22216B3F7A
:102E60001B08106A22217437250011622222742F58
:102E70001D001922746B740A0911106A6B6B6A11B8
:102E800011621062222222212221192222222200F2
:102E9000123F3F36001B2D110037373712001B1130
:102EA00000132F2F2F2F2F1911000A142727272146
:102EB000221A08000000006A186B10626B6B626ACD
:102EC0002262106222222221222119222222223F62
:102ED0003F2400363F3F2437371B2D373737372FF6
:102EE0002F2F2F2F250000271E1E27270911210015
:102EF00000000000082A2262226B732A212A2A6A13
:102F0000222273216B6B2A226A19226A6B2A732D83
:102F10003F3F361B3F3F3F3737373737373709009B
:102F20000A2F2F2F2F13001A00130A131E09116BDB
:102F30001A0808000011222B6B212A196B6B212A19
:102F40006B196B6A216B2A2A2A2273226A736B3FE0
:102F50003F3F3F3F3F3F3F3737371B37373737120A
:102F60002F1C002E2F2F2F00140908000000131112
:102F70000863192A7319086B6B7319107C216B197C
:102F80006B6B6B1074222A21227322226B73213FF8
:102F90003F1B082222221124000009196B21112F46
:102FA00026130911222A081314270919212A6B084C
:102FB0000000092A292173216A182A2A7321216B0A
:102FC00021732A2A216A192173212A2A212A210000
:102FD0002D3F3F12003F3F0025373724123737007F
:102FE0000A2F2F2F2F2F2F11000A1E2727271322DA
:102FF00019080000000011222A2A196B21217422CD
:10300000212A221973226222226A22196A73213F1D
:103010001200363F3F3F3637000009373737121C62
:10302000091A00132F2500081A620800140111194B
:1030300022621109091A746A186B106A6B6B6A6A4A
:10304000226210622222222122211922222222120D
:103050003F3F3F3F1B243F12373724000024370AED
:103060002F2F2F2613252F00001313142709001AC2
:103070005A09080000091962226B732A212A2A6A58
:10308000222273216B6B2A226A19226A6B2A733FF0
:103090003F3F3F1B09096A371C37371B0022732F3C
:1030A00009252F2F09116B0A0009271E13116B190F
:1030B00019000000112A222B6B212A196B6B212A7F
:1030C0006B196B6A216B2A2A2A2273226A736B227C
:1030D00000131D1D13FFFF6B00131D1D1D13FF1992
:1030E00000131D1D1D1D000013131D1D1D1D0000BF
:1030F000131D1D1D1D1D0000131D1D131D131D007F
:10310000131D1D131D1D1300131D1D1D001D1DFF6F
:10311000FFFFFFFFFFFFFFFF0000000000FFFF00B9
:1031200000520000000000005200000000000000FB
:1031300000000000000000000000000000001D1D55
:1031400000000000001D131D1D1D131D1D1D1DFF72
:10315000131D1D13002273131D1D1D1300212A1D95
:103160001D1D1D13002A6B1D1D1D1D131300211D88
:103170001D1D1D1D130021131D131D1D1300211DD9
:103180001D131D1D1300731D001D1D1D13002A227C
:1031900000131D1D1D1D1D6B00131D1D1D1D1D1963
:1031A00000131D1D1D1D000013131D1D1D1D0000FE
:1031B000131D1D1D1D131D00131D1D1D1D1D1300A1
:1031C000131D1D1D1D1D1D00131D1D1D1D00001D9A
:1031D0001D1D1D1D1D1D1D000052000000001D00B5
:1031E000520000000000000000000000000000008D
:1031F0000000000000001D1D00000000001D131D48
:103200001D1D1D1D1D1D1D00000000000000001DD6
:103210001D1D1D130022731D1D1D1D1300212A1DC0
:103220001D1D1D13002A6B1D1D1D1D1313002113D1
:103230001D1D1D1D1300211D1D1D1D1D1300211D04
:103240001D1D1D1D130073001D1D1D1D13002A22B1
:10325000FFECE2E2E2E2E26BFFECE2E2E2E2E21940
:10326000FFECE2E2E2E2FFFFECECE2E2E2E2FFFF8F
:10327000ECE2E2E2E2ECE2FFECE2E2E2E2E2ECFFCC
:10328000ECE2E2E2E2E2E2FFECE2E2E2E2FFFFE2B3
:10329000E2E2E2E2E2E2E2FFFFADFFFFFFFFE2FF78
:1032A000ADFFFFFFFFFFFFFFFFFFFFFFFFFFFFFF80
:1032B000FFFFFFFFFFFFE2E2FFFFFFFFFFE2ECE2A5
:1032C000E2E2E2E2E2E2E2FFFFFFFFFFFFFFFFE2F6
:1032D000E2E2E2ECFF2273E2E2E2E2ECFF212AE228
:1032E000E2E2E2ECFF2A6BE2E2E2E2ECECFF21EC4C
:1032F000E2E2E2E2ECFF21E2E2E2E2E2ECFF21E2E2
:10330000E2E2E2E2ECFF73FFE2E2E2E2ECFF2A6BD0
:10331000621111226A181A11090000112211080005
:10332000000A0B00110000001E1F1F0B00000B0005
:10333000141F1F1500011F000A272727001C271133
:10334000002F2F2F132F2F1100243737373737191E
:103350006B621A1922192200110900001111080BC1
:1033600000000A0B0000001E00001F1F1F1F1F1F70
:103370000A0A1F1F1F1F1F271D1427272727272F54
:103380002F262F2F2F2F2F37373737371B3737223F
:103390002A6B22226B212A09111A1111111119000D
:1033A000000800000000081F00000B1F1F15001F71
:1033B0000000131F1F1D002700001327271D002FCB
:1033C0001C13252F2F250037373737373725002A8D
:1033D0002A21621A1121221922191100001919211A
:1033E000221900010B08226B1A0800151E001A2171
:1033F00011000B1F1F0B081A00002627271D0009AC
:10340000001C2F2F2F2F0A00093737373737252A6F
:103410006B2A19196B6B1922226211080811116BA2
:10342000190900000000006B08000B1F1F1F151179
:10343000000B1F1F1F1F1F08002627270A0A1D0039
:10344000092F2F2F00000000123737370011001905
:103450006B19226322226B09110909111111110044
:10346000000000000000000B1F1F1F0000151F1FA1
:103470001F1F1F001E1F1F1327272726272727135D
:103480002F2F2F2F2F2F131B373737373712096B5B
:103490006B21222262182A11111109110908190041
:1034A000000000000000000B0B0B1F1F1F1F0B1F55
:1034B000140A1F1F1F1F0A1300092727272709089F
:1034C00009092F2F2F2F002211003737372E001810
:1034D000226B19196A191121181A11080000001914
:1034E000080000000A000000000A0A0A001313087E
:1034F00000000A00131D1D191100000000001D210D
:1035000022221911080000192222192A192A22112F
:10351000001D1D1D00000000001D1D1D1D000000E0
:10352000131D1D1D1D1D00131D1D1D1D1D1D1D1DFC
:103530001D1D1D1D1D1D1D1D1D1D1D1D1D1D1D00D8
:1035400000000000000000221911080808000052C5
:1035500052520052525200FFFFFF00FFFFFF0000D7
:10356000FFFF00FFFF00001D1D1D1D1D1D1D1D1D5A
:103570001D1D1D1D1D1D1D1D1D1D1D1D1D1D1D0098
:10358000000000000000000000000000000000003B
:10359000001D1D1D130019001D1D1D1D000A0A1D03
:1035A0001D1D1D1D1300001D1D1D1D1D1D13131DA3
:1035B0001D1D1D1D1D1D1D1D1D1D1D1D1D1D1D0058
:1035C000000000000000000000000008111962194E
:1035D00021216B187C211800000011116B73180A4F
:1035E0000A0A000000111900000A0A0A0000001D62
:1035F0001300000000000800000000000811220075
:1036000000091119212A19102A21216A22221818C9
:10361000226B19196A191121181A110800000019D2
:10362000080000000A000000000A0A0A001313083C
:1036300000000A00131D1D191100000000000021E8
:1036400022221911080000192222192A192A2211EE
:1036500000131D1D00FFFF0000131D1D005252002E
:10366000131D1D1D00FFFF131D1D1D1D1D00001D31
:103670001D1D1D1D1D1D1D1D1D131D1D1D1D1D00A1
:103680000000000000000022191108080800005284
:10369000FFFF52FFFF52FF525252525252525252A9
:1036A000FFFF52FFFF52FF00000000000000001D5E
:1036B0001D1D1D1D1D1D1D1D1D1D1D1D1D1D1D0057
:1036C000000000000000000000000000000000FFFB
:1036D000001D1D1313001952001D1D13000A0AFFBF
:1036E000001D1D1D130000001D1D1D1D1D13131D9C
:1036F0001D1D1D1D1D1D1D1D1D1D1D131D1D1D0021
:10370000000000000000000000000008111962180D
:10371000226B19196A191121181A110800000019D1
:10372000080000000AFFFF00000A0A0AFFECEC088C
:1037300000000AFFECE2E219110000000000002185
:1037400022221911080000192222192A192A2211ED
:10375000FFECE2E2FF000000FFECE2E2FFADADFFB4
:10376000ECE2E2E2FF0000ECE2E2E2E2E2FFFFE292
:10377000E2E2E2E2E2E2E2E2E2ECE2E2E2E2E20001
:10378000000000000000002219110808080000AD28
:103790000000AD0000AD00ADADADADADADADADADBA
:1037A0000000AD0000AD00FFFFFFFFFFFFFFFFE2E5
:1037B000E2E2E2E2E2E2E2E2E2E2E2E2E2E2E200CB
:1037C00000000000000000000000000000000000F9
:1037D000FFE2E2ECECFF19ADFFE2E2ECFF0A0A00C7
:1037E000FFE2E2E2ECFFFFFFE2E2E2E2E2ECECE227
:1037F000E2E2E2E2E2E2E2E2E2E2E2ECE2E2E20081
:10380000000000000000000000000008111962190B
:1038100021216B187C211800000011116B73180A0C
:103820000A0A0000001119FFFF0A0A0A000000E25C
:10383000ECFF00000000080000000000081122005A
:1038400000091119212A19102A21216A222218118E
:1038500008080800000000000A0A0A0A0A0A0A0A00
:103860000A09090909090909090000000000000006
:103870000000000000000000000000000000000048
:1038800000000000000000221911080808000000D4
:10389000000000000000000A0A0A0A0A0A0A0A09CF
:1038A00009090909090909000000000000000000D9
:1038B0000000000000000000000000000000000008
:1038C00000000000000000000000000000000000F8
:1038D000000000080911190A0A0A0A0A0A0A0A0954
:1038E0000909090909090A0000000000000009008F
:1038F00000000000000000000000000000000000C8
:103900000000000000000000000000081119621A09
:1039100000123F3F3F3F3F6B09003F3F3F3F3F2289
:1039200011002D3F3F3F241919001B37372E00216E
:103930002209002F2F09086A1811001E13091A6A9C
:103940002219000A08222221222111112222223FBB
:103950003F3F3F37003F3F3F3F3F3F24003F3F3621
:103960003F3F3F12003F3F1337372E0000373700ED
:10397000262F1300002E2F000A27010900262719E1
:1039800000130919080000221108226A6B2A733FEC
:103990003F3F3F3F3F2D003F09001B3F3F2D003F72
:1039A00009001B3F3F2D003712001B37372D1C2FFE
:1039B0000A00132F2F252F2713001327272727004F
:1039C000091000000113132A2A227319110800009C
:1039D0002D3F3F1B2E3F3F1B3F3F3F00243F3F37C4
:1039E0003F3F2E1B2D3F3F37373737373737372F7E
:1039F0002F1C0000001C2F2727091108080A271F69
:103A00001D086B1011001300005A22226A190812B7
:103A1000123F3F3F00110024123F3F3F0008003F8C
:103A2000093F3F3F0900003724373737251B2D2F2B
:103A30002F1C2F2F2F2F2F27271327272727271319
:103A40000900091D27271408621908000000001B3F
:103A50003F3F3F3F1200221B3F3F3F3F2D00081BCF
:103A60003F3F3F3F3F1B001B373737373737121376
:103A70002F2F25132F2F2F1327271D001427271330
:103A80001E130B08000B0000000811191A11196B06
:103A90000800363F3F25006B11002D3F3F240911E0
:103AA0001900000000005A0008002D3737121109D4
:103AB0000000252F2F095A1E00001D272701620034
:103AC00008080000000922212221192222222200B6
:103AD000000000002A22730000006B2273212A00DC
:103AE00000212A6B2A2A6B0019212A6B2A6B2100DC
:103AF0002221212A2173216A6219192A216B216B43
:103B00007C19212A182173216A222A2122222A21A2
:103B10006B210000000000222173212200000022FE
:103B20006A226A216B00001973196A19216B0062FD
:103B30002274226B186B006B182222626B226222A5
:103B40006B18192274216A226A6A101973212119CB
:103B5000191021196A2A6A1921191919192A7308C1
:103B60006A18216A18182A1919106B191919216B6A
:103B700010106B6A1022226311116A2222226B221A
:103B800022220822216A7321101010192A2A6B227E
:103B900021216B187C211822211973216B73186A5B
:103BA00018622A2A2A2A22106B6B2B216A2A2119D1
:103BB00022732A212A222A6A1073211922212A22F9
:103BC00019732A21212A19182A21216A2222181858
:103BD000226B19196A212121182222192A6B21220C
:103BE0006A18222A192B2A222221192A19196B2232
:103BF0002A221922212A73196B6A186B2222732137
:103C0000222221222A222A192222192A192A2A2189
:103C100019196B221921102A1819226A10226B6AAD
:103C2000211922221119212173226B19226A1019DC
:103C300021226A73222A221819222119736A6B22FF
:103C4000222A21187321746B222A212222196B2126
:103C50002221222222222A1021192222226B192219
:103C600018191922226A62196B1022226B2A6B1909
:103C700073081A19217322196B6B086B182A6B745D
:103C80001074191929226B742121741073216A6B25
:103C9000186A732B6B2222736B6A6B217321196B69
:103CA0006A2A6B2222742100216A197421222A00B7
:103CB000212A106B6A182B000029196A6B2A2A0026
:103CC0000000196B216B2A000000000022186B21F4
:103CD0006B21222222222222217321222A2119222F
:103CE0006A226A216B22101973196A19216B00620A
:103CF0002274226B186B006B182222626B00002268
:103D00006B181922000000226A6A000000000000FF
:103D100000000000000000000000000000000000A3
:103D20000000000000000000000000000000000093
:103D30000000000000000000000000000000000083
:103D40000000000000000000000000000000000073
:103D500000FFFFFF0000000000FFFFFF0000000069
:103D600000FFFFFF0000000000FFFF000000000058
:103D700000FFFF0000000000000000000000000045
:103D800000FFFF0000000000000000000000000035
:103D900000FF00FF0000000000FF00FF0000000027
:103DA00000FF00FF00000000000000000000000015
:103DB0000000000000000000000000000000000003
:103DC00000000000000000000000000000000000F3
:103DD000FF000000FF0000FFFFFFFFFFFFFF0000EC
:103DE000FF000000FF000000FF000000FF000000D7
:103DF000FF000000FF0000FFFFFFFFFFFFFF0000CC
:103E0000FF000000FF0000000000000000000000B4
:103E10000000FF0000000000FFFFFFFFFFFF00FFAA
:103E20000000FF0000000000FFFFFFFFFF00000098
:103E30000000FF0000FF00FFFFFFFFFFFF0000008A
:103E40000000FF000000000000000000000000FF74
:103E5000FF000000000000FFFF0000FF0000000066
:103E60000000FF000000000000FF00000000000054
:103E7000FF000000000000FF0000FFFF0000000046
:103E80000000FFFF00000000000000000000000034
:103E900000FFFF0000000000FF0000FF0000000026
:103EA000FFFF00FF00000000FFFFFF00000000FF19
:103EB0000000FFFF00FF00FF000000FFFF00000008
:103EC000FFFFFFFF00FF00000000000000000000F7
:103ED000FFFF000000000000FFFF000000000000E6
:103EE00000FF000000000000FF00000000000000D4
:103EF00000000000000000000000000000000000C2
:103F000000000000000000000000000000000000B1
:103F1000000000FFFF0000000000FF0000000000A4
:103F200000FF00000000000000FF00000000000093
:103F300000FF0000000000000000FF000000000083
:103F4000000000FFFF000000000000000000000073
:103F500000FFFF0000000000000000FF0000000064
:103F600000000000FF00000000000000FF00000053
:103F700000000000FF000000000000FF0000000043
:103F800000FFFF0000000000000000000000000033
:103F900000000000000000000000FF000000000022
:103FA000FF00FF00FF00000000FFFFFF0000000017
:103FB000FF00FF00FF0000000000FF000000000005
:103FC00000000000000000000000000000000000F1
:103FD00000000000000000000000FF0000000000E2
:103FE0000000FF0000000000FFFFFFFFFF000000D7
:103FF0000000FF00000000000000FF0000000000C3
:1040000000000000000000000000000000000000B0
:1040100000000000000000000000000000000000A0
:104020000000000000000000000000000000000090
:1040300000FFFF000000000000FFFF000000000084
:10404000FFFF000000000000000000000000000072
:104050000000000000000000000000000000000060
:104060000000000000000000FFFFFFFFFF00000055
:104070000000000000000000000000000000000040
:104080000000000000000000000000000000000030
:104090000000000000000000000000000000000020
:1040A0000000000000000000000000000000000010
:1040B000000000000000000000FFFF000000000002
:1040C00000FFFF00000000000000000000000000F2
:1040D0000000000000FF000000000000FF000000E2
:1040E000000000FF000000000000FF0000000000D2
:1040F00000FF000000000000FF000000000000FFC3
:1041000000000000000000000000000000000000AF
:10411000002F2F2F000000002F00002F2F00002F56
:104120002F0000002F2F002F2F0000002F2F002F17
:104130002F0000002F2F00002F2F00002F00000065
:10414000002F2F2F000000000000000000000000E2
:1041500000002F2F00000000002F2F2F0000000074
:1041600000002F2F0000000000002F2F0000000093
:1041700000002F2F0000000000002F2F0000000083
:104180002F2F2F2F2F2F0000000000000000000015
:104190002F2F2F2F2F00002F2F0000002F2F000078
:1041A0000000002F2F2F0000002F2F2F2F000000C6
:1041B0002F2F2F2F0000002F2F2F00000000002F87
:1041C0002F2F2F2F2F2F00000000000000000000D5
:1041D0002F2F2F2F2F2F00000000002F2F00000067
:1041E00000002F2F00000000002F2F2F2F000000B5
:1041F000000000002F2F002F2F0000002F2F0000A5
:104200002F2F2F2F2F0000000000000000000000C3
:1042100000002F2F2F000000002F2F2F2F00000055
:104220002F2F002F2F00002F2F00002F2F00002FE7
:104230002F2F2F2F2F2F00000000002F2F00000006
:104240000000002F2F000000000000000000002FE1
:104250002F2F2F2F2F00002F2F0000000000002FE6
:104260002F2F2F2F2F000000000000002F2F000005
:10427000000000002F2F002F2F0000002F2F000024
:104280002F2F2F2F2F000000000000000000000043
:10429000002F2F2F2F0000002F2F00000000002FD5
:1042A0002F0000000000002F2F2F2F2F2F00002F96
:1042B0002F0000002F2F002F2F0000002F2F0000B5
:1042C0002F2F2F2F2F000000000000000000002FD4
:1042D0002F2F2F2F2F2F002F2F0000002F2F000008
:1042E0000000002F2F00000000002F2F0000000012
:1042F000002F2F0000000000002F2F000000000002
:10430000002F2F000000000000000000000000004F
:104310002F2F2F2F0000002F2F0000002F00002F25
:104320002F2F00002F0000002F2F2F2F0000002F15
:1043300000002F2F2F2F002F000000002F2F000034
:104340002F2F2F2F2F000000000000000000000082
:104350002F2F2F2F2F00002F2F0000002F2F002F87
:104360002F0000002F2F00002F2F2F2F2F2F0000A6
:10437000000000002F2F00000000002F2F00000081
:104380002F2F2F2F00000000000000000000000071
:10439000000000000000000000FFFF00000000001F
:1043A00000FFFF000000000000000000000000000F
:1043B00000FFFF000000000000FFFF000000000001
:1043C00000000000000000000000000000000000ED
:1043D000000000000000000000FFFF0000000000DF
:1043E00000FFFF00000000000000000000000000CF
:1043F00000FFFF000000000000FFFF0000000000C1
:10440000FFFF0000000000000000000000000000AE
:10441000000000FF000000000000FF00000000009E
:1044200000FF000000000000FF000000000000008E
:1044300000FF0000000000000000FF00000000007E
:10444000000000FF0000000000000000000000006D
:10445000000000000000000000000000000000005C
:10446000FFFFFFFFFF000000000000000000000051
:10447000FFFFFFFFFF000000000000000000000041
:10448000000000000000000000000000000000002C
:1044900000FF0000000000000000FF00000000001E
:1044A000000000FF0000000000000000FF0000000E
:1044B000000000FF000000000000FF0000000000FE
:1044C00000FF0000000000000000000000000000ED
:1044D000FFFFFFFFFF0000FFFFFFFFFFFFFF00FFE9
:1044E000FF000000FFFF0000000000FFFF000000D1
:1044F00000FFFFFF000000000000000000000000BF
:1045000000FFFFFF000000000000000000000000AE
:1045100000FFFFFF00000000FF000000FF0000FFA1
:104520000000FF00FF0000FF00FF00FFFF0000FF92
:104530000000FFFF00000000FF000000000000007E
:1045400000FFFFFFFF00000000000000000000006F
:1045500000FFFFFF00000000FFFF00FFFF0000FF63
:10456000FF000000FFFF00FFFF000000FFFF00FF53
:10457000FFFFFFFFFFFF00FFFF000000FFFF00FF46
:10458000FF000000FFFF000000000000000000FF2F
:10459000FFFFFFFFFF0000FFFF000000FFFF00FF25
:1045A000FF000000FFFF00FFFFFFFFFFFF0000FF15
:1045B000FF000000FFFF00FFFF000000FFFF00FF03
:1045C000FFFFFFFFFF0000000000000000000000F0
:1045D00000FFFFFFFF000000FFFF0000FFFF00FFE4
:1045E000FF000000000000FFFF000000000000FFCF
:1045F000FF00000000000000FFFF0000FFFF0000C0
:1046000000FFFFFFFF00000000000000000000FFAF
:10461000FFFFFFFF000000FFFF0000FFFF0000FFA3
:10462000FF000000FFFF00FFFF000000FFFF00FF92
:10463000FF000000FFFF00FFFF0000FFFF0000FF82
:10464000FFFFFFFF0000000000000000000000FF6F
:10465000FFFFFFFFFFFF00FFFF000000000000FF63
:10466000FF000000000000FFFFFFFFFFFF0000FF52
:10467000FF000000000000FFFF000000000000FF3E
:10468000FFFFFFFFFFFF000000000000000000FF31
:10469000FFFFFFFFFFFF00FFFF000000000000FF23
:1046A000FF000000000000FFFFFFFFFFFF0000FF12
:1046B000FF000000000000FFFF000000000000FFFE
:1046C000FF000000000000000000000000000000EB
:1046D00000FFFFFFFFFF0000FFFF0000000000FFE2
:1046E000FF000000000000FFFF0000FFFFFF00FFD1
:1046F000FF000000FFFF0000FFFF0000FFFF0000C1
:1047000000FFFFFFFFFF000000000000000000FFAF
:10471000FF000000FFFF00FFFF000000FFFF00FFA1
:10472000FF000000FFFF00FFFFFFFFFFFFFF00FF94
:10473000FF000000FFFF00FFFF000000FFFF00FF81
:10474000FF000000FFFF000000000000000000006C
:10475000FFFFFFFFFFFF00000000FFFF0000000061
:104760000000FFFF000000000000FFFF000000004D
:104770000000FFFF000000000000FFFF000000003D
:10478000FFFFFFFFFFFF000000000000000000002F
:104790000000FFFFFFFF0000000000FFFF0000001F
:1047A000000000FFFF000000000000FFFF0000000D
:1047B000000000FFFF0000FF000000FFFF000000FE
:1047C000FFFFFFFF0000000000000000000000FFEE
:1047D000FF000000FFFF00FFFF0000FFFF0000FFE1
:1047E000FF00FFFF000000FFFFFFFF00000000FFD1
:1047F000FFFFFFFF000000FFFF00FFFFFF0000FFC3
:10480000FF0000FFFFFF00000000000000000000AC
:10481000FFFF000000000000FFFF0000000000009C
:10482000FFFF000000000000FFFF0000000000008C
:10483000FFFF000000000000FFFF0000000000007C
:10484000FFFFFFFFFFFF000000000000000000FF6F
:10485000FF000000FFFF00FFFFFF00FFFFFF00FF62
:10486000FFFFFFFFFFFF00FFFFFFFFFFFFFF00FF56
:10487000FF00FF00FFFF00FFFF000000FFFF00FF41
:10488000FF000000FFFF000000000000000000FF2C
:10489000FF000000FFFF00FFFFFF0000FFFF00FF21
:1048A000FFFFFF00FFFF00FFFFFFFFFFFFFF00FF15
:1048B000FF00FFFFFFFF00FFFF0000FFFFFF00FF03
:1048C000FF000000FFFF00000000000000000000EB
:1048D000FFFFFFFFFF0000FFFF000000FFFF00FFE2
:1048E000FF000000FFFF00FFFF000000FFFF00FFD0
:1048F000FF000000FFFF00FFFF000000FFFF0000BF
:10490000FFFFFFFFFF00000000000000000000FFAD
:10491000FFFFFFFFFF0000FFFF000000FFFF00FFA1
:10492000FF000000FFFF00FFFF000000FFFF00FF8F
:10493000FFFFFFFFFF0000FFFF000000000000FF7F
:10494000FF00000000000000000000000000000068
:10495000FFFFFFFFFF0000FFFF000000FFFF00FF61
:10496000FF000000FFFF00FFFF000000FFFF00FF4F
:10497000FF00FFFFFFFF00FFFF0000FFFF00000040
:10498000FFFFFFFF00FF000000000000000000FF2D
:10499000FFFFFFFFFF0000FFFF000000FFFF00FF21
:1049A000FF000000FFFF00FFFF0000FFFFFF00FF10
:1049B000FFFFFFFF000000FFFF00FFFFFF0000FF01
:1049C000FF0000FFFFFF00000000000000000000EB
:1049D000FFFFFFFF000000FFFF0000FFFF0000FFE0
:1049E000FF00000000000000FFFFFFFFFF000000CD
:1049F00000000000FFFF00FFFF000000FFFF0000BD
:104A0000FFFFFFFFFF0000000000000000000000AB
:104A1000FFFFFFFFFFFF00000000FFFF000000009E
:104A20000000FFFF000000000000FFFF000000008A
:104A30000000FFFF000000000000FFFF000000007A
:104A40000000FFFF0000000000000000000000FF69
:104A5000FF000000FFFF00FFFF000000FFFF00FF5E
:104A6000FF000000FFFF00FFFF000000FFFF00FF4E
:104A7000FF000000FFFF00FFFF000000FFFF00003D
:104A8000FFFFFFFFFF00000000000000000000FF2C
:104A9000FF000000FFFF00FFFF000000FFFF00FF1E
:104AA000FF000000FFFF00FFFFFF00FFFFFF00000F
:104AB000FFFFFFFFFF00000000FFFFFF00000000FE
:104AC0000000FF000000000000000000000000FFE8
:104AD000FF000000FFFF00FFFF000000FFFF00FFDE
:104AE000FF00FF00FFFF00FFFFFFFFFFFFFF00FFD2
:104AF000FFFFFFFFFFFF00FFFFFF00FFFFFF00FFC3
:104B0000FF000000FFFF000000000000000000FFA9
:104B1000FF000000FFFF00FFFFFF00FFFFFF00009E
:104B2000FFFFFFFFFF00000000FFFFFF000000008D
:104B3000FFFFFFFFFF0000FFFFFF00FFFFFF00FF81
:104B4000FF000000FFFF0000000000000000000068
:104B5000FFFF0000FFFF0000FFFF0000FFFF00005D
:104B6000FFFF0000FFFF000000FFFFFFFF0000004D
:104B70000000FFFF000000000000FFFF0000000039
:104B80000000FFFF0000000000000000000000FF28
:104B9000FFFFFFFFFFFF0000000000FFFFFF00001E
:104BA0000000FFFFFF00000000FFFFFF000000000B
:104BB000FFFFFF00000000FFFFFF0000000000FFFC
:104BC000FFFFFFFFFFFF00000000000000000000EB
:104BD00000FFFFFFFF00000000FFFF0000000000DB
:104BE00000FFFF000000000000FFFF0000000000C9
:104BF00000FFFF000000000000FFFF0000000000B9
:104C000000FFFFFFFF0000000000000000000000A8
:104C100000FFFFFFFF000000FF00000000FF00FF9B
:104C20000000FFFF0000FFFF00FF00000000FFFF8B
:104C300000FF00000000FFFF0000FFFF0000FF007A
:104C4000FF00000000FF000000FFFFFFFF0000006A
:104C500000FFFFFFFF000000000000FFFF0000005A
:104C6000000000FFFF000000000000FFFF00000048
:104C7000000000FFFF000000000000FFFF00000038
:104C800000FFFFFFFF000000000000000000000028
:104C900000FF000000000000FF00FF00000000FF18
:104CA000000000FF00000000000000000000000005
:104CB00000000000000000000000000000000000F4
:104CC00000000000000000000000000000000000E4
:104CD00000000000000000000000000000000000D4
:104CE00000000000000000000000000000000000C4
:104CF000000000000000000000000000000000FFB5
:104D0000FFFFFFFFFFFF00000000000000000000A9
:104D10000000000000000000000000000000000093
:104D20000000000000000000000000000000000083
:104D30000000000000000000000000000000000073
:104D40000000000000000000000000000000000063
:104D500000000000000000090B0B151F1F0B0009CD
:104D60001F1F1F1F1F1500001E27272727270000B2
:104D700014272727272713000927272727271D0060
:104D8000002F2F2F2F2F2F00001C2F2F2F2F2F0002
:104D90000000000000000000000000000B00000008
:104DA000000000091F1300000000001E271F000064
:104DB000000013272727130000092727272727008C
:104DC000001C2F2F2F2F2F1B0A2F2F2F2F2F2F009D
:104DD00000000000000000000000161F150B0B0073
:104DE00000091F1F1F1F1F00001327272727270049
:104DF000001E2727272727000927272727272713CC
:104E0000132F2F2F2F2F2F2F2E2F2F2F2F2F2F00FE
:104E1000000000000000000B0B0000000000001F5D
:104E20001E0000000000002727272713000000278E
:104E30002727271300000027272727130000002F0C
:104E40002F2F2F130000002F2F2F2F1B00000000EB
:104E50000000000000000000000000000000000052
:104E6000000000000000000113142727270A000A91
:104E7000272727272709000A27272727270900137D
:104E80002F2F2F2F2F0900132F2F2F2F2F00000030
:104E90000000000000000000000000000000000012
:104EA000000000140000000000000A2714000000A9
:104EB00000001D27270900000009272727260000DA
:104EC000001C2F2F2F2F1C00092F2F2F2F2F2F00CB
:104ED00000000000000000000000000000000000D2
:104EE00000000000000000000000000000000000C2
:104EF00000000000000000000000000000001C0096
:104F00000000000000002F090000000000122F0028
:104F10000000000000000000000000000000000091
:104F200000131E1F1F1F13091E2727272727271EB1
:104F30002727272727272727272727272727272FF9
:104F40002F2F2F2F2F2F2F2F2F2F2F1B0009250013
:104F50000000000000000000000000000000000948
:104F6000001F1513130A00270027272727271327B9
:104F7000002727272727132600272727272713253A
:104F8000002F2F2F2F2F131C002F2F2F2F2F2F00ED
:104F90000000000000000000000000000000000011
:104FA000000000000000000000001D1E13010000B2
:104FB000001D2727272727001D27272727271425F8
:104FC0002F2F2F2F2F25002F2F2F2F2F26000000C0
:104FD00000000000000000000000000000000000D1
:104FE00000000000000000000000000000000009B8
:104FF00000000000000000000000000000000000B1
:1050000000000000000000000000000000000000A0
:10501000000000000000000000000000090B00007C
:10502000000000001E1E00000000001427270B00D7
:1050300000000A2727271E00000026272727270011
:10504000001C2F2F2F2F2F00122F2F2F2F2F2F002D
:105050000000000000000000000000000000000050
:105060000000000000000000000000000000000040
:1050700000000000000000130000000000000026F7
:10508000000000000000002F1300000000000000DE
:105090000000000000000B000000000000001F00E6
:1050A0000000000000131F0000000000001E270089
:1050B0000000000009272700000000001427270037
:1050C000000000002F2F2F00000000122F2F2F00B4
:1050D00000000000000000000000000000000013BD
:1050E000000000000000001D00000000000000277C
:1050F0000900000000000927130000000000262F0F
:105100002600000000132F2F2F0A0000002F2F0071
:1051100000000000000000000B0A0000000000007A
:105120001F14000000000014271E000000000027CC
:105130002727090000001E27272713000013272F09
:105140002F2F1D00002F2F2F2F2F2F00122F2F005A
:10515000000000000000000000000000000000004F
:105160000A151F1F1F1E131D27272727272727273D
:105170002727272727272727272727272727272FB7
:105180002F2F2600262F2F2F2F2F12001B2F2F00FF
:10519000000000000000000000000000000000000F
:1051A000000000000000001E0100272727272727F6
:1051B0001E00272727272727271326272727272FBC
:1051C0002F26262F2F2F2F2F2F2F252F2F2F2F003A
:1051D00000000000000000000000000000000000CF
:1051E000000000001F1F1E271D0000002727272783
:1051F0001D000000272727271D0000002727272F35
:10520000250000002F2F2F2F250000002F2F2F000B
:10521000000000000000000000000000000000137B
:1052200013131313000000272727272727270B27EF
:105230002727272727270A27272727272727092F31
:105240002F251D2F2F2F002F2F1B000000000000E7
:105250000012373737373700000037373737370016
:105260000000243F3F3F3F000000123F3F3F3F0010
:105270000000003F3F3F3F000000002D3F3F3F0048
:10528000000000123F3F3F00000000003737372585
:105290002E37373737373737373737373737373F9F
:1052A0003F3F3F3F3F3F3F3F3F3F3F3F3F3F3F3F0E
:1052B0003F3F3F3F3F3F3F3F3F3F3F3F3F3F3F3FFE
:1052C0003F3F3F25243F3F373737370009373737D0
:1052D0003737373737373737373737373737373F56
:1052E0003F3F3F3F3F253F3F3F3F3F3F3F123F3F15
:1052F0003F3F3F3F3F003F3F3F3F3F3F1B003F3F60
:105300003F3F3F3F09003F373737372D00003737E2
:105310003737371B00000037373737373737373FD6
:105320003F3F3F3F3F3F3F3F3F3F3F3F3F3F3F3F8D
:105330003F3F3F3F3F3F3F3F3F3F3F1B0000003F5E
:105340003F3F3F1B000000373737371B0000001B73
:105350003737373737000037373737373700003FB1
:105360003F3F3F3F3F00003F3F3F3F3F3600093F49
:105370003F3F3F3F3600241B3F3F3F3F36093F241E
:105380003F3F3F3F36243F24373737372D373700ED
:1053900024373737373737093737373737373724F1
:1053A0003F3F3F3F373F3F3F3F3F3F2D1B3F3F3F4B
:1053B0003F3F3F1B003F3F3F3F3F3F09001B3F3FF9
:1053C0003F3F2E0000003737373737373737372E14
:1053D00000000000001C37371C000000002D373F84
:1053E0003F12000000363F3F3F360000003F3F3F86
:1053F0003F3F2400003F3F3F3F3F3F12003F3F3FC2
:105400003F3F3F36003F3F37373737371C36373758
:1054100037372F000000003737372D000000003FDE
:105420003F3F24000000003F3F3F1B000000003FC3
:105430003F3F1B000000003F3F3F1B000000003FBC
:105440003F3F1B000000003737371C0000000009F9
:1054500000373737373737000037373737373700B8
:10546000003F3F3F3F3F3F00003F3F3F3F3F3F0048
:1054700000363F3F3F3F3F0000363F3F3F3F3F004A
:1054800000363F3F3F3F3F0000363737373737372B
:105490003737372F09000037373737090000003F0B
:1054A0003F3F120000002D3F3F1B00000000363F31
:1054B000360000000000363F3F2D000000003F3F57
:1054C0003F3F2D00000000373737372E0000000027
:1054D0000000000000000000000000000000003F8D
:1054E0003F3F3F3F3F3F3F3F3F3F3F3F3F3F3F3FCC
:1054F0003F3F3F3F3F3F3F3F3F3F3F3F3F3F3F00FB
:10550000000000000000000000000000000000009B
:105510000000000000000000000000000000003F4C
:105520003F3700000000123F3F3600000000363FCA
:105530003F240000002D3F3F3F1B0000123F3F0073
:1055400000000000373F3F000000002537373700DC
:105550002E37373737373724373737373737373FEF
:105560003F3F3F3F1B3F3F3F3F3F3F3600363F3FC0
:105570003F3F3F1B00243F3F3F3F360000123F3F6D
:105580003F3F2D1B1B1B3F373737373737373737F1
:105590002E00000000000037371B00000000003F15
:1055A0003F360000002D3F3F3F3F1B0000363F3F8E
:1055B0003F3F360000363F3F3F3F3F1B003F3F3FEE
:1055C0003F3F3F3600000037373737371B000000BA
:1055D0000000002537373700000000373737373FE6
:1055E00037001B3F3F3F3F3F3600363F3F3F3F3F87
:1055F00024093F3F3F3F3F3F1B243F3F3F3F3F008A
:1056000000373F3F3F3F3F001237373737372D379F
:105610003724000024373737373700093737373F0B
:105620003F3F122E3F3F3F3F3F3F373F3F3F3F3FD0
:105630003F3F3F3F3F3F3F3F3F3F3F3F3F3F3F3F7A
:105640003F3F3F3F3F3F2E373737373737370937F1
:10565000373737121C373737373737242E37373F2E
:105660003F3F3F37363F3F3F3F3F3F3F3F3F3F3F5B
:105670003F3F3F3F3F3F3F3F3F3F3F3F3F3F3F3742
:105680003F3F3F3F3F3F3F25373737373737373784
:10569000372F000012373737372D00000937373FD3
:1056A0003F240000093F3F3F3F1B0000093F3F3FB1
:1056B0003F1B0000093F3F3F3F1B0000123F3F3FA1
:1056C0003F1B00001B3F3F37371C00001B3737379D
:1056D0003737373737373737373737373737373F52
:1056E0003F3F3F3F3F3F3F3F3F3F363F3F3F3F3FD3
:1056F0003F3F2D3F3F3F3F3F3F3F1B3F3F3F3F3FF0
:105700003F3F1B3F3F3F3F3737371B373737373731
:1057100025000000373737372D0000003737373F77
:10572000240000003F3F3F3F240000003F3F3F3F39
:10573000240000003F3F3F3F240000003F3F3F3F29
:10574000240000003F3F3F37240000003737373741
:10575000371B000000000037371B00000000003F2F
:105760003F3F3F3F2D00003F3F3F3F3F2D00003F69
:105770003F3F3F3F2D00003F3F3F3F3F2D00003F59
:105780003F1B000000000037371B00000000000036
:105790000000000025373700000000001B373700ED
:1057A00000000000002F2F0000000000001D2F004F
:1057B00000000000001327000000000000011E0090
:1057C00000000000000000000000000000000037A2
:1057D0003737120000243737371C00000009372FF5
:1057E0002600000000001C2F09000000000000132C
:1057F00000000000000000000000000000000000A9
:105800000000000000000000000000000000003761
:10581000373737120000373737372F000000372F60
:105820002F2F130000002F272F2F090000002F1308
:10583000271D0000000027001F0B000000000000D3
:10584000130000000000000000000000000000370E
:105850003737371B000000373737371B0000002F62
:105860002F2F2F130000002F2F2F2F1300000027A2
:1058700027272713000000000013130A0000000070
:1058800000000000000000000000000000000024F4
:1058900037373737253737253737373737373725CE
:1058A0002F2F2F2F2F2F2F1D2F2F2F2F2F2F2F1E2B
:1058B0002727272727272713131E272727131500F6
:1058C00000000000000000000000000000000037A1
:1058D0003737373737373737373737373737372F60
:1058E0002F1C00000000002F2F0A000000000027DE
:1058F0002700000000000027140000000000000046
:105900000000000000000000000000000000003760
:105910003737373737373737373737373737370945
:105920002F2F2F2F2F2F2F001C2F2F2F2F2F2F00F8
:1059300009272727272727000014271413130100FE
:105940000000000000000000000000000000003720
:10595000373725000000093737373709091C372F3B
:105960002F2F2F2F2F2F2F2F2F2F2F2F2F2F2F274F
:1059700027272727272727000A152727271E130051
:10598000000000000000000000000000000000090E
:10599000002E373737373725002E373737372E2F3A
:1059A00013262F2F2F2F262F272F2F2F2F2F27274D
:1059B0001D27272727272701001E271D1313130044
:1059C00000000000000000000000000000000037A0
:1059D000373737372E09002537373737372F090044
:1059E000252F2F2F2F2F2F0000262F2F2F2F2F0067
:1059F00000001E27272727000000001E1E1313008B
:105A00000000000000000000000000000000000096
:105A10000000000000000000000000000000000A7C
:105A2000000000000000002F12000000000000270E
:105A3000270A000000000000000000000000000035
:105A40000000000000000000000000000000000056
:105A5000000012373737370000092F373737370044
:105A6000001D2F2F2F2F2F00132F2F2F2F2F2F09F8
:105A7000272727272727270000001313131F1E009F
:105A800000000000000000000000000000000037DF
:105A90003737373737373737373737251B1B1B2F04
:105AA00013000000000000260000000000000013AA
:105AB00000000000000000000000000000000000E6
:105AC000000000000000000000000000000000379F
:105AD000373737372E00002F373737373713001D4A
