:100000000C94A72D0C94132E0C94132E0C94132ED9
:100010000C94132E0C94132E0C94132E0C94132E5C
:100020000C94132E0C94132E0C94132E0C94132E4C
:100030000C94132E0C94712E0C94B12E0C94132E40
:100040000C94132E0C94132E0C94132E0C94132E2C
:100050000C94132E0C94132E0C94132E0C94132E1C
:100060000C94132E0C94132E0C94132E0C94132E0C
:100070005A5501200101003808000000000000006E
:100080000000000000000000000000000000000070
:100090008100450027FF24FF2A902B1C210C22FB06
:1000A000850084008903888D81096F0244424700DE
:1000B0004501B083B300B10125118A4F8B03A831EC
:1000C000AB31B431B931C231CA31CF31D431D7318A
:1000D000E931EC31EF31333228B8199128B8159F46
:1000E00028B8080E191E28B8F9014A9528B809F051
:1000F000F00128B8099428B8199128B8159F28B894
:10010000080E191E28B8F9014A9528B809F0F0011F
:1001100028B8099428B8199128B8159F28B8080E4E
:10012000191E28B8F9014A9528B809F0F00128B835
:10013000099428B8199128B8159F28B8080E191ED7
:1001400028B8F9014A9528B809F0F00128B80994AF
:1001500028B8199128B8159F28B8080E191E28B874
:10016000F9014A9528B809F0F00128B8099428B88F
:10017000199128B8159F28B8080E191E28B8F9013A
:100180004A9528B809F0F00128B8099428B81991BF
:1001900028B8159F28B8080E191E28B8F9014A95E5
:1001A00028B809F0F00128B8099428B8199128B89E
:1001B000159F28B8080E191E28B8F9014A9528B8C5
:1001C00009F0F00128B8099428B8199128B8159FAA
:1001D00038B8080E191E28B8F9014A9528B809F050
:1001E000F00128B8099428B8199138B8159F38B883
:1001F000080E191E38B8F9014A9528B809F0F0011F
:1002000028B8099428B8199138B8159F38B8080E3D
:10021000191E38B8F9014A9528B809F0F00128B834
:10022000099428B8199128B8159F38B8080E191ED6
:1002300028B8F9014A9528B809F0F00128B80994BE
:1002400028B8199128B8159F38B8080E191E28B873
:10025000F9014A9528B809F0F00128B8099428B89E
:10026000199128B8159F28B8080E191E28B8F90149
:100270004A9528B809F0F00128B8099428B81991CE
:1002800028B8159F38B8080E191E28B8F9014A95E4
:1002900028B809F0F00128B8099428B8199128B8AD
:1002A000159F28B8080E191E28B8F9014A9528B8D4
:1002B00009F0F00128B8099438B8199138B8159F99
:1002C00028B8080E191E38B8F9014A9538B809F04F
:1002D000F00128B8099438B8199138B8159F28B892
:1002E000080E191E38B8F9014A9538B809F0F0011E
:1002F00028B8099438B8199128B8159F28B8080E5D
:10030000191E38B8F9014A9528B809F0F00128B843
:10031000099428B8199128B8159F28B8080E191EF5
:1003200028B8F9014A9528B809F0F00128B80994CD
:1003300028B8199128B8159F28B8080E191E28B892
:10034000F9014A9528B809F0F00128B8099428B8AD
:10035000199128B8159F28B8080E191E28B8F90158
:100360004A9528B809F0F00128B8099428B81991DD
:1003700028B8159F28B8080E191E28B8F9014A9503
:1003800028B809F0F00128B8099428B8199128B8BC
:10039000159F28B8080E191E28B8F9014A9528B8E3
:1003A00009F0F00128B8099428B8199128B8159FC8
:1003B00028B8080E191E28B8F9014A9528B809F07E
:1003C000F00128B8099428B8199138B8159F28B8B1
:1003D000080E191E38B8F9014A9528B809F0F0013D
:1003E00028B8099438B8199138B8159F38B8080E4C
:1003F000191E38B8F9014A9538B809F0F00128B843
:10040000099428B8199138B8159F28B8080E191EF4
:1004100038B8F9014A9528B809F0F00128B80994CC
:1004200028B8199138B8159F28B8080E191E38B881
:10043000F9014A9528B809F0F00128B8099438B8AC
:10044000199138B8159F38B8080E191E38B8F90137
:100450004A9538B809F0F00128B8099428B81991DC
:1004600038B8159F28B8080E191E38B8F9014A95F2
:1004700028B809F0F00128B8099428B8199128B8CB
:10048000159F28B8080E191E28B8F9014A9528B8F2
:1004900009F0F00128B8099428B8199138B8159FC7
:1004A00028B8080E191E28B8F9014A9528B809F08D
:1004B000F00128B8099428B8199138B8159F38B8B0
:1004C000080E191E38B8F9014A9528B809F0F0014C
:1004D00028B8099438B8199128B8159F28B8080E7B
:1004E000191E28B8F9014A9528B809F0F00128B872
:1004F000099428B8199138B8159F38B8080E191EF4
:1005000028B8F9014A9528B809F0F00128B80994EB
:1005100028B8199128B8159F28B8080E191E38B8A0
:10052000F9014A9528B809F0F00128B8099438B8BB
:10053000199138B8159F38B8080E191E28B8F90156
:100540004A9528B809F0F00128B8099428B81991FB
:1005500028B8159F38B8080E191E28B8F9014A9511
:1005600028B809F0F00128B8099428B8199128B8DA
:10057000159F28B8080E191E28B8F9014A9528B801
:1005800009F0F00128B8099438B8199138B8159FC6
:1005900028B8080E191E28B8F9014A9538B809F08C
:1005A000F00128B8099438B8199138B8159F28B8BF
:1005B000080E191E28B8F9014A9538B809F0F0015B
:1005C00028B8099428B8199128B8159F28B8080E9A
:1005D000191E38B8F9014A9528B809F0F00128B871
:1005E000099428B8199128B8159F38B8080E191E13
:1005F00028B8F9014A9528B809F0F00128B80994FB
:1006000028B8199138B8159F28B8080E191E28B8AF
:10061000F9014A9528B809F0F00128B8099438B8CA
:10062000199128B8159F28B8080E191E38B8F90175
:100630004A9538B809F0F00128B8099438B81991EA
:1006400028B8159F28B8080E191E38B8F9014A9520
:1006500038B809F0F00128B8099428B8199128B8D9
:10066000159F28B8080E191E28B8F9014A9528B810
:1006700009F0F00128B8099428B8199138B8159FE5
:1006800028B8080E191E28B8F9014A9528B809F0AB
:10069000F00128B8099438B8199128B8159F38B8CE
:1006A000080E191E28B8F9014A9528B809F0F0017A
:1006B00028B8099438B8199128B8159F38B8080E89
:1006C000191E28B8F9014A9528B809F0F00128B890
:1006D000099428B8199138B8159F28B8080E191E22
:1006E00028B8F9014A9528B809F0F00128B809940A
:1006F00038B8199128B8159F38B8080E191E28B8AF
:10070000F9014A9538B809F0F00128B8099438B8C9
:10071000199128B8159F28B8080E191E38B8F90184
:100720004A9528B809F0F00128B8099428B8199119
:1007300038B8159F38B8080E191E28B8F9014A951F
:1007400038B809F0F00128B8099428B8199128B8E8
:10075000159F28B8080E191E28B8F9014A9528B81F
:1007600009F0F00128B8099428B8199138B8159FF4
:1007700038B8080E191E28B8F9014A9528B809F0AA
:10078000F00128B8099428B8199138B8159F38B8DD
:10079000080E191E28B8F9014A9528B809F0F00189
:1007A00028B8099428B8199138B8159F28B8080EA8
:1007B000191E28B8F9014A9528B809F0F00128B89F
:1007C000099428B8199128B8159F28B8080E191E41
:1007D00028B8F9014A9528B809F0F00128B8099419
:1007E00028B8199128B8159F28B8080E191E28B8DE
:1007F000F9014A9528B809F0F00128B8099428B8F9
:10080000199128B8159F28B8080E191E28B8F901A3
:100810004A9528B809F0F00128B8099428B8199128
:1008200028B8159F28B8080E191E28B8F9014A954E
:1008300028B809F0F00128B8099428B8199128B807
:10084000159F28B8080E191E28B8F9014A9528B82E
:1008500009F0F00128B8099428B8199128B8159F13
:1008600038B8080E191E28B8F9014A9528B809F0B9
:10087000F00128B8099428B8199138B8159F28B8FC
:10088000080E191E28B8F9014A9528B809F0F00198
:1008900028B8099428B8199138B8159F28B8080EB7
:1008A000191E28B8F9014A9528B809F0F00128B8AE
:1008B000099428B8199138B8159F28B8080E191E40
:1008C00028B8F9014A9528B809F0F00128B8099428
:1008D00028B8199138B8159F28B8080E191E28B8DD
:1008E000F9014A9528B809F0F00128B8099428B808
:1008F000199138B8159F28B8080E191E28B8F901A3
:100900004A9528B809F0F00128B8099428B8199137
:1009100028B8159F38B8080E191E28B8F9014A954D
:1009200028B809F0F00128B8099428B8199128B816
:10093000159F28B8080E191E28B8F9014A9528B83D
:1009400009F0F00128B8099428B8199138B8159F12
:1009500028B8080E191E28B8F9014A9528B809F0D8
:10096000F00128B8099428B8199128B8159F38B80B
:10097000080E191E28B8F9014A9528B809F0F001A7
:1009800028B8099428B8199128B8159F38B8080EC6
:10099000191E28B8F9014A9528B809F0F00128B8BD
:1009A000099428B8199128B8159F38B8080E191E4F
:1009B00028B8F9014A9528B809F0F00128B8099437
:1009C00028B8199128B8159F38B8080E191E28B8EC
:1009D000F9014A9528B809F0F00128B8099428B817
:1009E000199128B8159F38B8080E191E28B8F901B2
:1009F0004A9528B809F0F00128B8099428B8199147
:100A000038B8159F28B8080E191E28B8F9014A955C
:100A100028B809F0F00128B8099428B8199128B825
:100A2000159F28B8080E191E28B8F9014A9528B84C
:100A300009F0F00128B8099428B8199128B8159F31
:100A400028B8080E191E28B8F9014A9528B809F0E7
:100A5000F00128B8099428B8199138B8159F28B81A
:100A6000080E191E38B8F9014A9528B809F0F001A6
:100A700028B8099428B8199138B8159F38B8080EC5
:100A8000191E38B8F9014A9528B809F0F00128B8BC
:100A9000099438B8199138B8159F38B8080E191E3E
:100AA00038B8F9014A9538B809F0F00128B8099426
:100AB00028B8199138B8159F38B8080E191E38B8DB
:100AC000F9014A9528B809F0F00128B8099428B826
:100AD000199138B8159F28B8080E191E38B8F901B1
:100AE0004A9528B809F0F00128B8099428B8199156
:100AF00028B8159F28B8080E191E28B8F9014A957C
:100B000028B809F0F00128B8099428B8199128B834
:100B1000159F28B8080E191E28B8F9014A9528B85B
:100B200009F0F00128B8099428B8199128B8159F40
:100B300028B8080E191E28B8F9014A9528B809F0F6
:100B4000F00128B8099428B8199128B8159F38B829
:100B5000080E191E28B8F9014A9528B809F0F001C5
:100B600028B8099428B8199128B8159F38B8080EE4
:100B7000191E28B8F9014A9528B809F0F00128B8DB
:100B8000099438B8199138B8159F38B8080E191E4D
:100B900038B8F9014A9538B809F0F00128B8099435
:100BA00028B8199128B8159F38B8080E191E28B80A
:100BB000F9014A9528B809F0F00128B8099428B835
:100BC000199128B8159F38B8080E191E28B8F901D0
:100BD0004A9528B809F0F00128B8099428B8199165
:100BE00028B8159F28B8080E191E28B8F9014A958B
:100BF00028B809F0F00128B8099428B8199128B844
:100C0000159F28B8080E191E28B8F9014A9528B86A
:100C100009F0F00128B8099428B8199128B8159F4F
:100C200028B8080E191E28B8F9014A9528B809F005
:100C3000F00128B8099428B8199128B8159F28B848
:100C4000080E191E28B8F9014A9528B809F0F001D4
:100C500028B8099428B8199128B8159F28B8080E03
:100C6000191E28B8F9014A9528B809F0F00128B8EA
:100C7000099428B8199128B8159F28B8080E191E8C
:100C800028B8F9014A9528B809F0F00128B8099464
:100C900028B8199128B8159F28B8080E191E28B829
:100CA000F9014A9528B809F0F00128B8099428B844
:100CB000199138B8159F38B8080E191E28B8F901CF
:100CC0004A9528B809F0F00128B8099428B8199174
:100CD00038B8159F38B8080E191E28B8F9014A957A
:100CE00028B809F0F00128B8099428B8199138B843
:100CF000159F28B8080E191E28B8F9014A9528B87A
:100D000009F0F00128B8099428B8199128B8159F5E
:100D100028B8080E191E28B8F9014A9528B809F014
:100D2000F00128B8099428B8199128B8159F28B857
:100D3000080E191E28B8F9014A9528B809F0F001E3
:100D400028B8099428B8199128B8159F28B8080E12
:100D5000191E28B8F9014A9528B809F0F00128B8F9
:100D6000099438B8199138B8159F38B8080E191E6B
:100D700038B8F9014A9538B809F0F00128B8099453
:100D800028B8199128B8159F28B8080E191E28B838
:100D9000F9014A9528B809F0F00128B8099428B853
:100DA000199128B8159F28B8080E191E28B8F901FE
:100DB0004A9528B809F0F00128B8099428B8199183
:100DC00028B8159F28B8080E191E28B8F9014A95A9
:100DD00028B809F0F00128B8099428B8199128B862
:100DE000159F28B8080E191E28B8F9014A9528B889
:100DF00009F0F00128B8099428B8199128B8159F6E
:100E000028B8080E191E28B8F9014A9528B809F023
:100E1000F00128B8099428B8199128B8159F28B866
:100E2000080E191E28B8F9014A9528B809F0F001F2
:100E300028B8099428B8199128B8159F28B8080E21
:100E4000191E28B8F9014A9528B809F0F00128B808
:100E5000099428B8199128B8159F28B8080E191EAA
:100E600028B8F9014A9528B809F0F00128B8099482
:100E700028B8199128B8159F28B8080E191E28B847
:100E8000F9014A9528B809F0F00128B8099428B862
:100E9000199138B8159F38B8080E191E28B8F901ED
:100EA0004A9528B809F0F00128B8099428B8199192
:100EB00038B8159F38B8080E191E28B8F9014A9598
:100EC00028B809F0F00128B8099428B8199128B871
:100ED000159F28B8080E191E28B8F9014A9528B898
:100EE00009F0F00128B8099428B8199128B8159F7D
:100EF00028B8080E191E28B8F9014A9528B809F033
:100F0000F00128B8099428B8199128B8159F28B875
:100F1000080E191E28B8F9014A9538B809F0F001F1
:100F200028B8099428B8199128B8159F28B8080E30
:100F3000191E38B8F9014A9528B809F0F00128B807
:100F4000099428B8199128B8159F38B8080E191EA9
:100F500028B8F9014A9528B809F0F00128B8099491
:100F600028B8199138B8159F28B8080E191E28B846
:100F7000F9014A9528B809F0F00128B8099438B861
:100F8000199128B8159F28B8080E191E28B8F9011C
:100F90004A9528B809F0F00128B8099428B81991A1
:100FA00028B8159F28B8080E191E28B8F9014A95C7
:100FB00028B809F0F00128B8099428B8199128B880
:100FC000159F28B8080E191E28B8F9014A9528B8A7
:100FD00009F0F00128B8099428B8199138B8159F7C
:100FE00038B8080E191E38B8F9014A9528B809F022
:100FF000F00128B8099438B8199128B8159F28B875
:10100000080E191E28B8F9014A9538B809F0F00100
:1010100028B8099438B8199128B8159F28B8080E2F
:10102000191E38B8F9014A9538B809F0F00128B806
:10103000099438B8199128B8159F38B8080E191EA8
:1010400028B8F9014A9538B809F0F00128B8099490
:1010500038B8199138B8159F28B8080E191E28B845
:10106000F9014A9538B809F0F00128B8099438B860
:10107000199128B8159F28B8080E191E28B8F9012B
:101080004A9538B809F0F00128B8099428B81991A0
:1010900038B8159F38B8080E191E38B8F9014A95A6
:1010A00028B809F0F00128B8099428B8199128B88F
:1010B000159F28B8080E191E28B8F9014A9528B8B6
:1010C00009F0F00128B8099428B8199128B8159F9B
:1010D00038B8080E191E28B8F9014A9528B809F041
:1010E000F00128B8099428B8199138B8159F38B874
:1010F000080E191E28B8F9014A9528B809F0F00120
:1011000028B8099428B8199128B8159F38B8080E3E
:10111000191E28B8F9014A9528B809F0F00128B835
:10112000099428B8199128B8159F38B8080E191EC7
:1011300028B8F9014A9528B809F0F00128B80994AF
:1011400028B8199128B8159F38B8080E191E28B864
:10115000F9014A9528B809F0F00128B8099428B88F
:10116000199128B8159F38B8080E191E28B8F9012A
:101170004A9528B809F0F00128B8099428B81991BF
:1011800038B8159F38B8080E191E38B8F9014A95B5
:1011900028B809F0F00128B8099428B8199128B89E
:1011A000159F28B8080E191E28B8F9014A9528B8C5
:1011B00009F0F00128B8099428B8199138B8159F9A
:1011C00038B8080E191E38B8F9014A9528B809F040
:1011D000F00128B8099438B8199128B8159F28B893
:1011E000080E191E28B8F9014A9538B809F0F0011F
:1011F00028B8099428B8199128B8159F28B8080E5E
:10120000191E28B8F9014A9538B809F0F00128B834
:10121000099428B8199128B8159F38B8080E191ED6
:1012200038B8F9014A9528B809F0F00128B80994AE
:1012300028B8199138B8159F28B8080E191E28B873
:10124000F9014A9528B809F0F00128B8099438B88E
:10125000199128B8159F28B8080E191E28B8F90149
:101260004A9528B809F0F00128B8099438B81991BE
:1012700038B8159F38B8080E191E38B8F9014A95C4
:1012800038B809F0F00128B8099428B8199128B89D
:10129000159F28B8080E191E28B8F9014A9528B8D4
:1012A00009F0F00128B8099428B8199138B8159FA9
:1012B00038B8080E191E38B8F9014A9528B809F04F
:1012C000F00128B8099438B8199128B8159F28B8A2
:1012D000080E191E28B8F9014A9538B809F0F0012E
:1012E00028B8099428B8199128B8159F28B8080E6D
:1012F000191E28B8F9014A9538B809F0F00128B844
:10130000099428B8199138B8159F38B8080E191ED5
:1013100038B8F9014A9528B809F0F00128B80994BD
:1013200028B8199128B8159F28B8080E191E28B892
:10133000F9014A9538B809F0F00128B8099438B88D
:10134000199128B8159F28B8080E191E28B8F90158
:101350004A9538B809F0F00128B8099428B81991CD
:1013600038B8159F38B8080E191E38B8F9014A95D3
:1013700028B809F0F00128B8099428B8199128B8BC
:10138000159F28B8080E191E28B8F9014A9528B8E3
:1013900009F0F00128B8099428B8199128B8159FC8
:1013A00028B8080E191E38B8F9014A9528B809F06E
:1013B000F00128B8099428B8199128B8159F38B8B1
:1013C000080E191E38B8F9014A9528B809F0F0013D
:1013D00028B8099428B8199138B8159F28B8080E6C
:1013E000191E38B8F9014A9528B809F0F00128B853
:1013F000099438B8199128B8159F28B8080E191EF5
:1014000038B8F9014A9528B809F0F00128B80994CC
:1014100038B8199138B8159F38B8080E191E38B861
:10142000F9014A9538B809F0F00128B8099428B8AC
:10143000199128B8159F28B8080E191E38B8F90157
:101440004A9528B809F0F00128B8099428B81991EC
:1014500028B8159F28B8080E191E38B8F9014A9502
:1014600028B809F0F00128B8099428B8199128B8CB
:10147000159F28B8080E191E28B8F9014A9528B8F2
:1014800009F0F00128B8099438B8199138B8159FB7
:1014900038B8080E191E38B8F9014A9538B809F05D
:1014A000F00128B8099438B8199128B8159F28B8C0
:1014B000080E191E28B8F9014A9528B809F0F0015C
:1014C00028B8099438B8199128B8159F28B8080E7B
:1014D000191E28B8F9014A9528B809F0F00128B872
:1014E000099438B8199138B8159F38B8080E191EE4
:1014F00038B8F9014A9528B809F0F00128B80994DC
:1015000028B8199128B8159F28B8080E191E28B8B0
:10151000F9014A9538B809F0F00128B8099438B8AB
:10152000199128B8159F28B8080E191E28B8F90176
:101530004A9538B809F0F00128B8099428B81991EB
:1015400038B8159F38B8080E191E38B8F9014A95F1
:1015500028B809F0F00128B8099428B8199128B8DA
:10156000159F28B8080E191E28B8F9014A9528B801
:1015700009F0F00128B8099428B8199128B8159FE6
:1015800038B8080E191E38B8F9014A9528B809F07C
:10159000F00128B8099428B8199138B8159F28B8CF
:1015A000080E191E28B8F9014A9528B809F0F0016B
:1015B00028B8099438B8199128B8159F28B8080E8A
:1015C000191E28B8F9014A9528B809F0F00128B881
:1015D000099438B8199138B8159F38B8080E191EF3
:1015E00038B8F9014A9528B809F0F00128B80994EB
:1015F00038B8199128B8159F28B8080E191E28B8B0
:10160000F9014A9538B809F0F00128B8099438B8BA
:10161000199128B8159F28B8080E191E28B8F90185
:101620004A9538B809F0F00128B8099428B81991FA
:1016300038B8159F38B8080E191E38B8F9014A9500
:1016400028B809F0F00128B8099428B8199128B8E9
:10165000159F28B8080E191E28B8F9014A9528B810
:1016600009F0F00128B8099438B8199138B8159FD5
:1016700038B8080E191E38B8F9014A9538B809F07B
:10168000F00128B8099428B8199128B8159F28B8EE
:10169000080E191E28B8F9014A9538B809F0F0016A
:1016A00028B8099428B8199128B8159F28B8080EA9
:1016B000191E38B8F9014A9528B809F0F00128B880
:1016C000099428B8199128B8159F38B8080E191E22
:1016D00028B8F9014A9528B809F0F00128B809940A
:1016E00028B8199138B8159F28B8080E191E28B8BF
:1016F000F9014A9528B809F0F00128B8099428B8EA
:10170000199138B8159F28B8080E191E28B8F90184
:101710004A9528B809F0F00128B8099428B8199119
:1017200038B8159F28B8080E191E28B8F9014A952F
:1017300028B809F0F00128B8099428B8199128B8F8
:10174000159F28B8080E191E28B8F9014A9528B81F
:1017500009F0F00128B8099428B8199138B8159FF4
:1017600038B8080E191E38B8F9014A9528B809F09A
:10177000F00128B8099438B8199128B8159F28B8ED
:10178000080E191E28B8F9014A9538B809F0F00179
:1017900028B8099438B8199128B8159F28B8080EA8
:1017A000191E28B8F9014A9538B809F0F00128B88F
:1017B000099428B8199138B8159F38B8080E191E21
:1017C00038B8F9014A9528B809F0F00128B8099409
:1017D00038B8199128B8159F28B8080E191E28B8CE
:1017E000F9014A9538B809F0F00128B8099438B8D9
:1017F000199128B8159F28B8080E191E28B8F901A4
:101800004A9538B809F0F00128B8099428B8199118
:1018100038B8159F38B8080E191E38B8F9014A951E
:1018200028B809F0F00128B8099428B8199128B807
:10183000159F28B8080E191E28B8F9014A9528B82E
:1018400009F0F00128B8099428B8199138B8159F03
:1018500038B8080E191E38B8F9014A9528B809F0A9
:10186000F00128B8099438B8199128B8159F28B8FC
:10187000080E191E28B8F9014A9538B809F0F00188
:1018800028B8099438B8199128B8159F28B8080EB7
:10189000191E28B8F9014A9538B809F0F00128B89E
:1018A000099428B8199138B8159F38B8080E191E30
:1018B00038B8F9014A9538B809F0F00128B8099408
:1018C00028B8199128B8159F28B8080E191E28B8ED
:1018D000F9014A9538B809F0F00128B8099428B8F8
:1018E000199128B8159F28B8080E191E38B8F901A3
:1018F0004A9528B809F0F00128B8099428B8199138
:1019000038B8159F38B8080E191E28B8F9014A953D
:1019100028B809F0F00128B8099428B8199128B816
:10192000159F28B8080E191E28B8F9014A9528B83D
:1019300009F0F00128B8099428B8199128B8159F22
:1019400028B8080E191E28B8F9014A9528B809F0D8
:10195000F00128B8099428B8199128B8159F28B81B
:10196000080E191E28B8F9014A9528B809F0F001A7
:1019700028B8099428B8199138B8159F38B8080EB6
:10198000191E28B8F9014A9528B809F0F00128B8BD
:10199000099428B8199138B8159F38B8080E191E3F
:1019A00028B8F9014A9528B809F0F00128B8099437
:1019B00028B8199128B8159F28B8080E191E28B8FC
:1019C000F9014A9528B809F0F00128B8099428B817
:1019D000199138B8159F38B8080E191E28B8F901A2
:1019E0004A9528B809F0F00128B8099428B8199147
:1019F00038B8159F38B8080E191E28B8F9014A954D
:101A000028B809F0F00128B8099428B8199128B825
:101A1000159F28B8080E191E28B8F9014A9528B84C
:101A200009F0F00128B8099428B8199128B8159F31
:101A300028B8080E191E28B8F9014A9528B809F0E7
:101A4000F00128B8099428B8199128B8159F28B82A
:101A5000080E191E28B8F9014A9528B809F0F001B6
:101A600028B8099428B8199138B8159F38B8080EC5
:101A7000191E28B8F9014A9528B809F0F00128B8CC
:101A8000099428B8199138B8159F38B8080E191E4E
:101A900028B8F9014A9528B809F0F00128B8099446
:101AA00028B8199128B8159F28B8080E191E28B80B
:101AB000F9014A9528B809F0F00128B8099428B826
:101AC000199138B8159F38B8080E191E28B8F901B1
:101AD0004A9528B809F0F00128B8099428B8199156
:101AE00038B8159F38B8080E191E28B8F9014A955C
:101AF00028B809F0F00128B8099428B8199138B825
:101B0000159F28B8080E191E28B8F9014A9528B85B
:101B100009F0F00128B8099428B8199128B8159F40
:101B200028B8080E191E28B8F9014A9538B809F0E6
:101B3000F00128B8099428B8199128B8159F28B839
:101B4000080E191E38B8F9014A9528B809F0F001B5
:101B500028B8099428B8199128B8159F38B8080EE4
:101B6000191E28B8F9014A9528B809F0F00128B8DB
:101B7000099428B8199138B8159F28B8080E191E6D
:101B800028B8F9014A9528B809F0F00128B8099455
:101B900028B8199128B8159F38B8080E191E28B80A
:101BA000F9014A9528B809F0F00128B8099428B835
:101BB000199128B8159F28B8080E191E38B8F901D0
:101BC0004A9528B809F0F00128B8099428B8199165
:101BD00028B8159F28B8080E191E28B8F9014A958B
:101BE00038B809F0F00128B8099428B8199128B834
:101BF000159F28B8080E191E28B8F9014A9528B86B
:101C000009F0F00128B8099428B8199128B8159F4F
:101C100028B8080E191E28B8F9014A9528B809F005
:101C2000F00128B8099428B8199128B8159F28B848
:101C3000080E191E28B8F9014A9528B809F0F001D4
:101C400028B8099438B8199138B8159F38B8080ED3
:101C5000191E38B8F9014A9538B809F0F00128B8CA
:101C6000099428B8199128B8159F28B8080E191E8C
:101C700028B8F9014A9528B809F0F00128B8099464
:101C800028B8199128B8159F28B8080E191E28B829
:101C9000F9014A9528B809F0F00128B8099438B834
:101CA000199138B8159F38B8080E191E38B8F901BF
:101CB0004A9538B809F0F00128B8099428B8199164
:101CC00028B8159F28B8080E191E28B8F9014A959A
:101CD00028B809F0F00128B8099428B8199128B853
:101CE000159F28B8080E191E28B8F9014A9528B87A
:101CF00009F0F00128B8099428B8199138B8159F4F
:101D000028B8080E191E28B8F9014A9528B809F014
:101D1000F00128B8099428B8199128B8159F38B847
:101D2000080E191E28B8F9014A9528B809F0F001E3
:101D300028B8099428B8199128B8159F28B8080E12
:101D4000191E38B8F9014A9528B809F0F00128B8E9
:101D5000099428B8199128B8159F28B8080E191E9B
:101D600028B8F9014A9538B809F0F00128B8099463
:101D700028B8199128B8159F28B8080E191E38B828
:101D8000F9014A9528B809F0F00128B8099428B853
:101D9000199128B8159F38B8080E191E28B8F901EE
:101DA0004A9528B809F0F00128B8099428B8199183
:101DB00038B8159F28B8080E191E28B8F9014A9599
:101DC00028B809F0F00128B8099428B8199128B862
:101DD000159F28B8080E191E28B8F9014A9528B889
:101DE00009F0F00128B8099428B8199138B8159F5E
:101DF00038B8080E191E38B8F9014A9528B809F004
:101E0000F00128B8099438B8199128B8159F28B856
:101E1000080E191E28B8F9014A9538B809F0F001E2
:101E200028B8099428B8199128B8159F28B8080E21
:101E3000191E28B8F9014A9538B809F0F00128B8F8
:101E4000099428B8199128B8159F38B8080E191E9A
:101E500038B8F9014A9528B809F0F00128B8099472
:101E600028B8199128B8159F38B8080E191E28B837
:101E7000F9014A9528B809F0F00128B8099428B862
:101E8000199128B8159F28B8080E191E28B8F9010D
:101E90004A9528B809F0F00128B8099428B8199192
:101EA00028B8159F38B8080E191E28B8F9014A95A8
:101EB00028B809F0F00128B8099428B8199128B871
:101EC000159F28B8080E191E28B8F9014A9528B898
:101ED00009F0F00128B8099428B8199138B8159F6D
:101EE00038B8080E191E38B8F9014A9528B809F013
:101EF000F00128B8099438B8199128B8159F28B866
:101F0000080E191E28B8F9014A9538B809F0F001F1
:101F100028B8099438B8199128B8159F38B8080E10
:101F2000191E38B8F9014A9538B809F0F00128B8F7
:101F3000099438B8199128B8159F38B8080E191E99
:101F400028B8F9014A9538B809F0F00128B8099481
:101F500038B8199128B8159F38B8080E191E38B826
:101F6000F9014A9538B809F0F00128B8099438B851
:101F7000199128B8159F28B8080E191E28B8F9011C
:101F80004A9528B809F0F00128B8099428B81991A1
:101F900038B8159F38B8080E191E38B8F9014A9597
:101FA00028B809F0F00128B8099428B8199128B880
:101FB000159F28B8080E191E28B8F9014A9528B8A7
:101FC00009F0F00128B8099428B8199138B8159F7C
:101FD00038B8080E191E38B8F9014A9528B809F022
:101FE000F00128B8099438B8199128B8159F28B875
:101FF000080E191E28B8F9014A9538B809F0F00101
:1020000028B8099438B8199128B8159F28B8080E2F
:10201000191E28B8F9014A9538B809F0F00128B816
:10202000099438B8199128B8159F28B8080E191EB8
:1020300028B8F9014A9538B809F0F00128B8099490
:1020400038B8199138B8159F38B8080E191E38B825
:10205000F9014A9538B809F0F00128B8099438B860
:10206000199128B8159F28B8080E191E28B8F9012B
:102070004A9538B809F0F00128B8099438B8199190
:1020800028B8159F28B8080E191E28B8F9014A95D6
:1020900038B809F0F00128B8099428B8199128B87F
:1020A000159F28B8080E191E28B8F9014A9528B8B6
:1020B00009F0F00128B8099438B8199138B8159F7B
:1020C00038B8080E191E38B8F9014A9528B809F031
:1020D000F00128B8099438B8199128B8159F28B884
:1020E000080E191E28B8F9014A9538B809F0F00110
:1020F00028B8099438B8199128B8159F28B8080E3F
:10210000191E28B8F9014A9538B809F0F00128B825
:10211000099438B8199138B8159F38B8080E191EA7
:1021200038B8F9014A9528B809F0F00128B809949F
:1021300038B8199128B8159F28B8080E191E28B864
:10214000F9014A9538B809F0F00128B8099438B86F
:10215000199128B8159F28B8080E191E28B8F9013A
:102160004A9538B809F0F00128B8099438B819919F
:1021700038B8159F38B8080E191E38B8F9014A95B5
:1021800028B809F0F00128B8099428B8199128B89E
:10219000159F28B8080E191E28B8F9014A9528B8C5
:1021A00009F0F00128B8099428B8199138B8159F9A
:1021B00038B8080E191E38B8F9014A9528B809F040
:1021C000F00128B8099438B8199128B8159F28B893
:1021D000080E191E28B8F9014A9538B809F0F0011F
:1021E00028B8099438B8199128B8159F28B8080E4E
:1021F000191E28B8F9014A9528B809F0F00128B845
:10220000099438B8199128B8159F28B8080E191ED6
:1022100028B8F9014A9528B809F0F00128B80994BE
:1022200038B8199128B8159F28B8080E191E28B873
:10223000F9014A9528B809F0F00128B8099438B88E
:10224000199128B8159F28B8080E191E28B8F90149
:102250004A9538B809F0F00128B8099428B81991BE
:1022600038B8159F38B8080E191E38B8F9014A95C4
:1022700028B809F0F00128B8099428B8199128B8AD
:10228000159F28B8080E191E28B8F9014A9528B8D4
:1022900009F0F00128B8099438B8199138B8159F99
:1022A00038B8080E191E38B8F9014A9528B809F04F
:1022B000F00128B8099438B8199128B8159F28B8A2
:1022C000080E191E28B8F9014A9538B809F0F0012E
:1022D00028B8099438B8199128B8159F28B8080E5D
:1022E000191E28B8F9014A9538B809F0F00128B844
:1022F000099438B8199128B8159F28B8080E191EE6
:1023000028B8F9014A9538B809F0F00128B80994BD
:1023100038B8199128B8159F28B8080E191E28B882
:10232000F9014A9538B809F0F00128B8099438B88D
:10233000199128B8159F28B8080E191E28B8F90158
:102340004A9538B809F0F00128B8099438B81991BD
:1023500038B8159F38B8080E191E38B8F9014A95D3
:1023600028B809F0F00128B8099428B8199128B8BC
:10237000159F28B8080E191E28B8F9014A9528B8E3
:1023800009F0F00128B8099438B8199138B8159FA8
:1023900038B8080E191E38B8F9014A9538B809F04E
:1023A000F00128B8099438B8199128B8159F28B8B1
:1023B000080E191E28B8F9014A9528B809F0F0014D
:1023C00028B8099438B8199128B8159F28B8080E6C
:1023D000191E28B8F9014A9528B809F0F00128B863
:1023E000099438B8199138B8159F38B8080E191ED5
:1023F00038B8F9014A9528B809F0F00128B80994CD
:1024000038B8199128B8159F28B8080E191E28B891
:10241000F9014A9528B809F0F00128B8099438B8AC
:10242000199128B8159F28B8080E191E28B8F90167
:102430004A9528B809F0F00128B8099438B81991DC
:1024400038B8159F38B8080E191E38B8F9014A95E2
:1024500038B809F0F00128B8099428B8199128B8BB
:10246000159F28B8080E191E28B8F9014A9528B8F2
:1024700009F0F00128B8099438B8199138B8159FB7
:1024800038B8080E191E38B8F9014A9538B809F05D
:10249000F00128B8099438B8199128B8159F28B8C0
:1024A000080E191E28B8F9014A9528B809F0F0015C
:1024B00028B8099438B8199128B8159F28B8080E7B
:1024C000191E28B8F9014A9528B809F0F00128B872
:1024D000099438B8199138B8159F38B8080E191EE4
:1024E00038B8F9014A9528B809F0F00128B80994DC
:1024F00038B8199128B8159F28B8080E191E28B8A1
:10250000F9014A9528B809F0F00128B8099438B8BB
:10251000199128B8159F28B8080E191E28B8F90176
:102520004A9528B809F0F00128B8099438B81991EB
:1025300028B8159F28B8080E191E28B8F9014A9521
:1025400028B809F0F00128B8099428B8199128B8DA
:10255000159F28B8080E191E28B8F9014A9528B801
:1025600009F0F00128B8099428B8199138B8159FD6
:1025700038B8080E191E38B8F9014A9528B809F07C
:10258000F00128B8099438B8199128B8159F28B8CF
:10259000080E191E28B8F9014A9538B809F0F0015B
:1025A00028B8099438B8199128B8159F28B8080E8A
:1025B000191E28B8F9014A9528B809F0F00128B881
:1025C000099438B8199128B8159F38B8080E191E03
:1025D00038B8F9014A9538B809F0F00128B80994DB
:1025E00038B8199128B8159F28B8080E191E28B8B0
:1025F000F9014A9538B809F0F00128B8099438B8BB
:10260000199128B8159F28B8080E191E28B8F90185
:102610004A9538B809F0F00128B8099428B81991FA
:1026200038B8159F38B8080E191E38B8F9014A9500
:1026300038B809F0F00128B8099428B8199128B8D9
:10264000159F28B8080E191E28B8F9014A9528B810
:1026500009F0F00128B8099438B8199128B8159FE5
:1026600028B8080E191E28B8F9014A9538B809F09B
:10267000F00128B8099438B8199128B8159F28B8DE
:10268000080E191E28B8F9014A9538B809F0F0016A
:1026900028B8099438B8199128B8159F28B8080E99
:1026A000191E28B8F9014A9538B809F0F00128B880
:1026B000099438B8199138B8159F38B8080E191E02
:1026C00038B8F9014A9538B809F0F00128B80994EA
:1026D00038B8199128B8159F28B8080E191E28B8BF
:1026E000F9014A9538B809F0F00128B8099438B8CA
:1026F000199128B8159F28B8080E191E28B8F90195
:102700004A9538B809F0F00128B8099438B81991F9
:1027100028B8159F28B8080E191E28B8F9014A953F
:1027200038B809F0F00128B8099428B8199128B8E8
:10273000159F28B8080E191E28B8F9014A9528B81F
:1027400009F0F00128B8099428B8199138B8159FF4
:1027500038B8080E191E38B8F9014A9528B809F09A
:10276000F00128B8099428B8199128B8159F38B8ED
:10277000080E191E28B8F9014A9528B809F0F00189
:1027800028B8099428B8199128B8159F38B8080EA8
:10279000191E28B8F9014A9528B809F0F00128B89F
:1027A000099428B8199128B8159F38B8080E191E31
:1027B00028B8F9014A9528B809F0F00128B8099419
:1027C00028B8199128B8159F38B8080E191E28B8CE
:1027D000F9014A9528B809F0F00128B8099428B8F9
:1027E000199128B8159F38B8080E191E28B8F90194
:1027F0004A9528B809F0F00128B8099428B8199129
:1028000038B8159F38B8080E191E38B8F9014A951E
:1028100028B809F0F00128B8099428B8199128B807
:10282000159F28B8080E191E28B8F9014A9528B82E
:1028300009F0F00128B8099428B8199128B8159F13
:1028400028B8080E191E28B8F9014A9538B809F0B9
:10285000F00128B8099428B8199128B8159F28B80C
:10286000080E191E28B8F9014A9538B809F0F00188
:1028700028B8099428B8199128B8159F28B8080EC7
:10288000191E28B8F9014A9538B809F0F00128B89E
:10289000099428B8199128B8159F28B8080E191E50
:1028A00028B8F9014A9538B809F0F00128B8099418
:1028B00038B8199128B8159F28B8080E191E28B8DD
:1028C000F9014A9538B809F0F00128B8099438B8E8
:1028D000199128B8159F28B8080E191E28B8F901B3
:1028E0004A9538B809F0F00128B8099428B8199128
:1028F00038B8159F38B8080E191E38B8F9014A952E
:1029000028B809F0F00128B8099428B8199128B816
:10291000159F28B8080E191E28B8F9014A9528B83D
:1029200009F0F00128B8099438B8199128B8159F12
:1029300028B8080E191E28B8F9014A9538B809F0C8
:10294000F00128B8099438B8199128B8159F28B80B
:10295000080E191E38B8F9014A9528B809F0F00197
:1029600028B8099438B8199128B8159F38B8080EB6
:10297000191E28B8F9014A9528B809F0F00128B8BD
:10298000099438B8199138B8159F28B8080E191E3F
:1029900028B8F9014A9528B809F0F00128B8099437
:1029A00038B8199128B8159F38B8080E191E28B8DC
:1029B000F9014A9528B809F0F00128B8099438B807
:1029C000199128B8159F28B8080E191E38B8F901B2
:1029D0004A9528B809F0F00128B8099438B8199137
:1029E00028B8159F28B8080E191E28B8F9014A956D
:1029F00038B809F0F00128B8099428B8199128B816
:102A0000159F28B8080E191E28B8F9014A9528B84C
:102A100009F0F00128B8099438B8199128B8159F21
:102A200028B8080E191E28B8F9014A9528B809F0E7
:102A3000F00128B8099438B8199128B8159F28B81A
:102A4000080E191E28B8F9014A9528B809F0F001B6
:102A500028B8099438B8199128B8159F28B8080ED5
:102A6000191E28B8F9014A9528B809F0F00128B8CC
:102A7000099438B8199128B8159F28B8080E191E5E
:102A800028B8F9014A9528B809F0F00128B8099446
:102A900038B8199128B8159F28B8080E191E28B8FB
:102AA000F9014A9528B809F0F00128B8099438B816
:102AB000199128B8159F28B8080E191E28B8F901D1
:102AC0004A9528B809F0F00128B8099438B8199146
:102AD00038B8159F38B8080E191E38B8F9014A954C
:102AE00038B809F0F00128B8099428B8199128B825
:102AF000159F28B8080E191E28B8F9014A9528B85C
:102B000009F0F00128B8099438B8199128B8159F30
:102B100028B8080E191E28B8F9014A9538B809F0E6
:102B2000F00128B8099438B8199138B8159F28B819
:102B3000080E191E38B8F9014A9538B809F0F001A5
:102B400028B8099438B8199128B8159F38B8080ED4
:102B5000191E28B8F9014A9538B809F0F00128B8CB
:102B6000099438B8199128B8159F28B8080E191E6D
:102B700028B8F9014A9538B809F0F00128B8099445
:102B800038B8199128B8159F28B8080E191E28B80A
:102B9000F9014A9538B809F0F00128B8099438B815
:102BA000199128B8159F28B8080E191E28B8F901E0
:102BB0004A9538B809F0F00128B8099438B8199145
:102BC00028B8159F28B8080E191E28B8F9014A958B
:102BD00038B809F0F00128B8099428B8199128B834
:102BE000159F28B8080E191E28B8F9014A9528B86B
:102BF00009F0F00128B8099438B8199128B8159F40
:102C000028B8080E191E28B8F9014A9538B809F0F5
:102C1000F00128B8099438B8199138B8159F28B828
:102C2000080E191E28B8F9014A9538B809F0F001C4
:102C300028B8099438B8199128B8159F38B8080EE3
:102C4000191E28B8F9014A9538B809F0F00128B8DA
:102C5000099438B8199128B8159F28B8080E191E7C
:102C600038B8F9014A9538B809F0F00128B8099444
:102C700038B8199128B8159F28B8080E191E28B819
:102C8000F9014A9538B809F0F00128B8099438B824
:102C9000199128B8159F28B8080E191E28B8F901EF
:102CA0004A9538B809F0F00128B8099438B8199154
:102CB00028B8159F28B8080E191E28B8F9014A959A
:102CC00038B809F0F00128B8099428B8199128B843
:102CD000159F28B8080E191E28B8F9014A9528B87A
:102CE00009F0F00128B8099428B8199138B8159F4F
:102CF00038B8080E191E38B8F9014A9528B809F0F5
:102D0000F00128B8099438B8199128B8159F28B847
:102D1000080E191E28B8F9014A9538B809F0F001D3
:102D200028B8099438B8199128B8159F28B8080E02
:102D3000191E28B8F9014A9538B809F0F00128B8E9
:102D4000099438B8199128B8159F28B8080E191E8B
:102D500028B8F9014A9538B809F0F00128B8099463
:102D600038B8199128B8159F28B8080E191E28B828
:102D7000F9014A9538B809F0F00128B8099438B833
:102D8000199128B8159F28B8080E191E28B8F901FE
:102D90004A9538B809F0F00128B8099428B8199173
:102DA00038B8159F38B8080E191E38B8F9014A9579
:102DB00028B809F0F00128B8099428B8199128B862
:102DC000159F28B8080E191E28B8F9014A9528B889
:102DD00009F0F00128B8099438B8199138B8159F4E
:102DE00038B8080E191E38B8F9014A9528B809F004
:102DF000F00128B8099438B8199128B8159F28B857
:102E0000080E191E28B8F9014A9538B809F0F001E2
:102E100028B8099438B8199128B8159F28B8080E11
:102E2000191E28B8F9014A9538B809F0F00128B8F8
:102E3000099438B8199138B8159F38B8080E191E7A
:102E400038B8F9014A9528B809F0F00128B8099472
:102E500038B8199128B8159F28B8080E191E28B837
:102E6000F9014A9528B809F0F00128B8099438B852
:102E7000199128B8159F28B8080E191E28B8F9010D
:102E80004A9528B809F0F00128B8099438B8199182
:102E900028B8159F28B8080E191E28B8F9014A95B8
:102EA00028B809F0F00128B8099428B8199128B871
:102EB000159F28B8080E191E28B8F9014A9528B898
:102EC00009F0F00128B8099428B8199138B8159F6D
:102ED00038B8080E191E38B8F9014A9528B809F013
:102EE000F00128B8099438B8199128B8159F28B866
:102EF000080E191E28B8F9014A9538B809F0F001F2
:102F000028B8099438B8199128B8159F28B8080E20
:102F1000191E28B8F9014A9538B809F0F00128B807
:102F2000099438B8199128B8159F28B8080E191EA9
:102F300028B8F9014A9538B809F0F00128B8099481
:102F400038B8199128B8159F38B8080E191E28B836
:102F5000F9014A9538B809F0F00128B8099438B851
:102F6000199128B8159F28B8080E191E38B8F9010C
:102F70004A9528B809F0F00128B8099428B81991A1
:102F800038B8159F38B8080E191E28B8F9014A95A7
:102F900038B809F0F00128B8099428B8199128B870
:102FA000159F28B8080E191E28B8F9014A9528B8A7
:102FB00009F0F00128B8099438B8199138B8159F6C
:102FC00038B8080E191E38B8F9014A9528B809F022
:102FD000F00128B8099438B8199128B8159F28B875
:102FE000080E191E28B8F9014A9538B809F0F00101
:102FF00028B8099438B8199128B8159F28B8080E30
:10300000191E28B8F9014A9538B809F0F00128B816
:10301000099438B8199138B8159F38B8080E191E98
:1030200038B8F9014A9528B809F0F00128B8099490
:1030300038B8199128B8159F28B8080E191E38B845
:10304000F9014A9528B809F0F00128B8099438B870
:10305000199128B8159F28B8080E191E28B8F9012B
:103060004A9538B809F0F00128B8099438B8199190
:1030700028B8159F28B8080E191E28B8F9014A95D6
:1030800038B809F0F00128B8099428B8199128B87F
:10309000159F28B8080E191E28B8F9014A9528B8B6
:1030A00009F0F00128B8099428B8199138B8159F8B
:1030B00038B8080E191E38B8F9014A9528B809F031
:1030C000F00128B8099438B8199128B8159F28B884
:1030D000080E191E28B8F9014A9538B809F0F00110
:1030E00028B8099438B8199128B8159F28B8080E3F
:1030F000191E28B8F9014A9528B809F0F00128B836
:10310000099428B8199138B8159F38B8080E191EB7
:1031100038B8F9014A9528B809F0F00128B809949F
:1031200028B8199128B8159F28B8080E191E28B874
:10313000F9014A9538B809F0F00128B8099438B86F
:10314000199128B8159F28B8080E191E28B8F9013A
:103150004A9538B809F0F00128B8099428B81991AF
:1031600038B8159F38B8080E191E38B8F9014A95B5
:1031700028B809F0F00128B8099428B8199128B89E
:10318000159F28B8080E191E28B8F9014A9528B8C5
:1031900009F0F00128B8099438B8199138B8159F8A
:1031A00038B8080E191E38B8F9014A9538B809F030
:1031B000F00128B8099428B8199128B8159F38B893
:1031C000080E191E28B8F9014A9528B809F0F0012F
:1031D00028B8099428B8199128B8159F38B8080E4E
:1031E000191E28B8F9014A9528B809F0F00128B845
:1031F000099428B8199128B8159F38B8080E191ED7
:1032000028B8F9014A9528B809F0F00128B80994BE
:1032100028B8199128B8159F38B8080E191E28B873
:10322000F9014A9528B809F0F00128B8099428B89E
:10323000199128B8159F38B8080E191E28B8F90139
:103240004A9528B809F0F00128B8099428B81991CE
:1032500028B8159F38B8080E191E28B8F9014A95E4
:1032600028B809F0F00128B8099428B8199128B8AD
:10327000159F28B8080E191E28B8F9014A9528B8D4
:1032800009F0F00128B8099438B8199128B8159FA9
:1032900028B8080E191E28B8F9014A9538B809F05F
:1032A000F00128B8099438B8199128B8159F28B8A2
:1032B000080E191E28B8F9014A9538B809F0F0012E
:1032C00028B8099438B8199128B8159F28B8080E5D
:1032D000191E28B8F9014A9538B809F0F00128B844
:1032E000099438B8199128B8159F28B8080E191EE6
:1032F00028B8F9014A9538B809F0F00128B80994BE
:1033000038B8199128B8159F28B8080E191E28B882
:10331000F9014A9538B809F0F00128B8099438B88D
:10332000199128B8159F28B8080E191E28B8F90158
:103330004A9538B809F0F00128B8099428B81991CD
:1033400038B8159F38B8080E191E38B8F9014A95D3
:1033500028B809F0F00128B8099428B8199128B8BC
:10336000159F28B8080E191E28B8F9014A9528B8E3
:1033700009F0F00128B8099438B8199128B8159FB8
:1033800028B8080E191E28B8F9014A9538B809F06E
:10339000F00128B8099438B8199128B8159F28B8B1
:1033A000080E191E28B8F9014A9538B809F0F0013D
:1033B00028B8099438B8199128B8159F28B8080E6C
:1033C000191E28B8F9014A9538B809F0F00128B853
:1033D000099438B8199128B8159F28B8080E191EF5
:1033E00028B8F9014A9538B809F0F00128B80994CD
:1033F00038B8199128B8159F28B8080E191E28B892
:10340000F9014A9538B809F0F00128B8099428B8AC
:10341000199138B8159F28B8080E191E38B8F90147
:103420004A9528B809F0F00128B8099428B81991EC
:1034300028B8159F38B8080E191E28B8F9014A9502
:1034400028B809F0F00128B8099428B8199128B8CB
:10345000159F28B8080E191E28B8F9014A9528B8F2
:1034600009F0F00128B8099438B8199128B8159FC7
:1034700028B8080E191E28B8F9014A9538B809F07D
:10348000F00128B8099438B8199128B8159F28B8C0
:10349000080E191E28B8F9014A9538B809F0F0014C
:1034A00028B8099438B8199128B8159F38B8080E6B
:1034B000191E28B8F9014A9538B809F0F00128B862
:1034C000099438B8199128B8159F38B8080E191EF4
:1034D00028B8F9014A9538B809F0F00128B80994DC
:1034E00038B8199128B8159F38B8080E191E28B891
:1034F000F9014A9538B809F0F00128B8099438B8AC
:10350000199128B8159F38B8080E191E28B8F90166
:103510004A9538B809F0F00128B8099428B81991EB
:1035200038B8159F28B8080E191E38B8F9014A9501
:1035300028B809F0F00128B8099428B8199128B8DA
:10354000159F28B8080E191E28B8F9014A9528B801
:1035500009F0F00128B8099438B8199128B8159FD6
:1035600028B8080E191E28B8F9014A9538B809F08C
:10357000F00128B8099438B8199128B8159F28B8CF
:10358000080E191E28B8F9014A9538B809F0F0015B
:1035900028B8099428B8199138B8159F28B8080E8A
:1035A000191E38B8F9014A9528B809F0F00128B871
:1035B000099428B8199128B8159F38B8080E191E13
:1035C00028B8F9014A9528B809F0F00128B80994FB
:1035D00028B8199138B8159F28B8080E191E38B8A0
:1035E000F9014A9528B809F0F00128B8099438B8CB
:1035F000199128B8159F28B8080E191E28B8F90186
:103600004A9538B809F0F00128B8099438B81991EA
:1036100028B8159F28B8080E191E28B8F9014A9530
:1036200038B809F0F00128B8099428B8199128B8D9
:10363000159F28B8080E191E28B8F9014A9528B810
:1036400009F0F00128B8099438B8199128B8159FE5
:1036500028B8080E191E28B8F9014A9538B809F09B
:10366000F00128B8099438B8199128B8159F28B8DE
:10367000080E191E28B8F9014A9538B809F0F0016A
:1036800028B8099438B8199128B8159F28B8080E99
:10369000191E28B8F9014A9538B809F0F00128B880
:1036A000099428B8199138B8159F28B8080E191E22
:1036B00038B8F9014A9528B809F0F00128B80994FA
:1036C00028B8199128B8159F38B8080E191E28B8BF
:1036D000F9014A9528B809F0F00128B8099428B8EA
:1036E000199128B8159F38B8080E191E28B8F90185
:1036F0004A9528B809F0F00128B8099428B819911A
:1037000028B8159F38B8080E191E28B8F9014A952F
:1037100028B809F0F00128B8099428B8199128B8F8
:10372000159F28B8080E191E28B8F9014A9528B81F
:1037300009F0F00128B8099438B8199138B8159FE4
:1037400038B8080E191E38B8F9014A9528B809F09A
:10375000F00128B8099428B8199128B8159F28B8FD
:10376000080E191E38B8F9014A9528B809F0F00179
:1037700028B8099428B8199128B8159F38B8080EA8
:10378000191E28B8F9014A9528B809F0F00128B89F
:10379000099428B8199138B8159F28B8080E191E31
:1037A00028B8F9014A9528B809F0F00128B8099419
:1037B00038B8199128B8159F28B8080E191E28B8CE
:1037C000F9014A9528B809F0F00128B8099438B8E9
:1037D000199128B8159F28B8080E191E28B8F901A4
:1037E0004A9528B809F0F00128B8099438B8199119
:1037F00038B8159F38B8080E191E38B8F9014A951F
:1038000028B809F0F00128B8099428B8199128B807
:10381000159F28B8080E191E28B8F9014A9528B82E
:1038200009F0F00128B8099428B8199138B8159F03
:1038300038B8080E191E38B8F9014A9528B809F0A9
:10384000F00128B8099428B8199138B8159F28B8FC
:10385000080E191E28B8F9014A9528B809F0F00198
:1038600028B8099428B8199138B8159F28B8080EB7
:10387000191E28B8F9014A9528B809F0F00128B8AE
:10388000099428B8199138B8159F28B8080E191E40
:1038900028B8F9014A9528B809F0F00128B8099428
:1038A00028B8199138B8159F28B8080E191E28B8DD
:1038B000F9014A9528B809F0F00128B8099428B808
:1038C000199138B8159F28B8080E191E28B8F901A3
:1038D0004A9528B809F0F00128B8099428B8199138
:1038E00038B8159F38B8080E191E38B8F9014A952E
:1038F00028B809F0F00128B8099428B8199128B817
:10390000159F28B8080E191E28B8F9014A9528B83D
:1039100009F0F00128B8099428B8199128B8159F22
:1039200028B8080E191E28B8F9014A9528B809F0D8
:10393000F00128B8099438B8199128B8159F28B80B
:10394000080E191E28B8F9014A9528B809F0F001A7
:1039500028B8099428B8199138B8159F28B8080EC6
:10396000191E28B8F9014A9528B809F0F00128B8BD
:10397000099428B8199128B8159F38B8080E191E4F
:1039800028B8F9014A9528B809F0F00128B8099437
:1039900028B8199128B8159F28B8080E191E38B8EC
:1039A000F9014A9528B809F0F00128B8099428B817
:1039B000199128B8159F28B8080E191E28B8F901C2
:1039C0004A9538B809F0F00128B8099428B8199137
:1039D00028B8159F28B8080E191E28B8F9014A956D
:1039E00028B809F0F00128B8099428B8199128B826
:1039F000159F28B8080E191E28B8F9014A9528B84D
:103A000009F0F00128B8099428B8199138B8159F21
:103A100038B8080E191E38B8F9014A9528B809F0C7
:103A2000F00128B8099428B8199128B8159F28B82A
:103A3000080E191E38B8F9014A9528B809F0F001A6
:103A400028B8099428B8199128B8159F28B8080EE5
:103A5000191E38B8F9014A9528B809F0F00128B8BC
:103A6000099428B8199128B8159F28B8080E191E6E
:103A700038B8F9014A9528B809F0F00128B8099436
:103A800028B8199128B8159F28B8080E191E38B8FB
:103A9000F9014A9528B809F0F00128B8099428B826
:103AA000199128B8159F28B8080E191E38B8F901C1
:103AB0004A9528B809F0F00128B8099428B8199156
:103AC00038B8159F38B8080E191E38B8F9014A954C
:103AD00028B809F0F00128B8099428B8199128B835
:103AE000159F28B8080E191E28B8F9014A9528B85C
:103AF00009F0F00128B8099428B8199128B8159F41
:103B000038B8080E191E28B8F9014A9528B809F0E6
:103B1000F00128B8099428B8199138B8159F28B829
:103B2000080E191E38B8F9014A9528B809F0F001B5
:103B300028B8099438B8199128B8159F28B8080EE4
:103B4000191E28B8F9014A9538B809F0F00128B8CB
:103B5000099428B8199128B8159F28B8080E191E7D
:103B600028B8F9014A9528B809F0F00128B8099455
:103B700028B8199128B8159F28B8080E191E28B81A
:103B8000F9014A9528B809F0F00128B8099428B835
:103B9000199128B8159F28B8080E191E28B8F901E0
:103BA0004A9528B809F0F00128B8099428B8199165
:103BB00028B8159F28B8080E191E28B8F9014A958B
:103BC00028B809F0F00128B8099428B8199128B844
:103BD000159F28B8080E191E28B8F9014A9528B86B
:103BE00009F0F00128B8099428B8199128B8159F50
:103BF00028B8080E191E28B8F9014A9528B809F006
:103C0000F00128B8099428B8199128B8159F28B848
:103C1000080E191E28B8F9014A9528B809F0F001D4
:103C200028B8099428B8199128B8159F28B8080E03
:103C3000191E28B8F9014A9528B809F0F00128B8EA
:103C4000099428B8199128B8159F28B8080E191E8C
:103C500028B8F9014A9528B809F0F00128B8099464
:103C600028B8199128B8159F28B8080E191E28B829
:103C7000F9014A9528B809F0F00128B8099428B844
:103C8000199128B8159F28B8080E191E28B8F901EF
:103C90004A9528B809F0F00128B8099428B8199174
:103CA00028B8159F28B8080E191E28B8F9014A959A
:103CB00028B809F0F00128B8099438B8199138B833
:103CC000159F38B8080E191E38B8F9014A9538B84A
:103CD00009F0F00138B8099428B8199138B8159F3F
:103CE00038B8080E191E28B8F9014A9528B809F005
:103CF000F00128B8099428B8199138B8159F38B838
:103D0000080E191E28B8F9014A9528B809F0F001E3
:103D100028B8099428B8199128B8159F38B8080E02
:103D2000191E28B8F9014A9528B809F0F00128B8F9
:103D3000099428B8199128B8159F28B8080E191E9B
:103D400028B8F9014A9528B809F0F00128B8099473
:103D500028B8199128B8159F28B8080E191E28B838
:103D6000F9014A9528B809F0F00128B8099428B853
:103D7000199128B8159F28B8080E191E28B8F901FE
:103D80004A9528B809F0F00128B8099428B8199183
:103D900028B8159F28B8080E191E28B8F9014A95A9
:103DA00028B809F0F00128B8099428B8199128B862
:103DB000159F28B8080E191E28B8F9014A9528B889
:103DC00009F0F00128B8099428B8199128B8159F6E
:103DD00028B8080E191E28B8F9014A9528B809F024
:103DE000F00128B8099428B8199128B8159F28B867
:103DF000080E191E28B8F9014A9528B809F0F001F3
:103E000028B8099428B8199138B8159F38B8080E01
:103E1000191E38B8F9014A9528B809F0F00128B8F8
:103E2000099428B8199128B8159F28B8080E191EAA
:103E300028B8F9014A9538B809F0F00128B8099472
:103E400028B8199138B8159F38B8080E191E38B817
:103E5000F9014A9538B809F0F00128B8099438B842
:103E6000199128B8159F28B8080E191E28B8F9010D
:103E70004A9538B809F0F00128B8099428B8199182
:103E800038B8159F38B8080E191E38B8F9014A9588
:103E900038B809F0F00128B8099428B8199128B861
:103EA000159F28B8080E191E28B8F9014A9528B898
:103EB00009F0F00128B8099438B8199128B8159F6D
:103EC00028B8080E191E28B8F9014A9528B809F033
:103ED000F00128B8099438B8199128B8159F28B866
:103EE000080E191E28B8F9014A9528B809F0F00102
:103EF00028B8099438B8199138B8159F38B8080E01
:103F0000191E38B8F9014A9528B809F0F00128B807
:103F1000099438B8199128B8159F28B8080E191EA9
:103F200028B8F9014A9538B809F0F00128B8099481
:103F300038B8199128B8159F28B8080E191E28B846
:103F4000F9014A9538B809F0F00128B8099438B851
:103F5000199128B8159F28B8080E191E28B8F9011C
:103F60004A9538B809F0F00128B8099438B8199181
:103F700038B8159F38B8080E191E38B8F9014A9597
:103F800028B809F0F00128B8099428B8199128B880
:103F9000159F28B8080E191E28B8F9014A9528B8A7
:103FA00009F0F00128B8099428B8199128B8159F8C
:103FB00028B8080E191E28B8F9014A9528B809F042
:103FC000F00128B8099428B8199128B8159F28B885
:103FD000080E191E28B8F9014A9528B809F0F00111
:103FE00028B8099428B8199138B8159F38B8080E20
:103FF000191E38B8F9014A9528B809F0F00128B817
:10400000099438B8199128B8159F28B8080E191EB8
:1040100028B8F9014A9538B809F0F00128B8099490
:1040200038B8199128B8159F28B8080E191E28B855
:10403000F9014A9528B809F0F00128B8099438B870
:10404000199128B8159F28B8080E191E28B8F9012B
:104050004A9538B809F0F00128B8099428B81991A0
:1040600038B8159F38B8080E191E38B8F9014A95A6
:1040700028B809F0F00128B8099428B8199128B88F
:10408000159F28B8080E191E28B8F9014A9528B8B6
:1040900009F0F00128B8099428B8199128B8159F9B
:1040A00028B8080E191E28B8F9014A9538B809F041
:1040B000F00128B8099428B8199128B8159F28B894
:1040C000080E191E28B8F9014A9538B809F0F00110
:1040D00028B8099428B8199138B8159F38B8080E2F
:1040E000191E38B8F9014A9538B809F0F00128B816
:1040F000099438B8199128B8159F28B8080E191EC8
:1041000028B8F9014A9538B809F0F00128B809949F
:1041100038B8199128B8159F28B8080E191E28B864
:10412000F9014A9538B809F0F00128B8099438B86F
:10413000199128B8159F28B8080E191E28B8F9013A
:104140004A9538B809F0F00128B8099428B81991AF
:1041500038B8159F38B8080E191E38B8F9014A95B5
:1041600038B809F0F00128B8099428B8199128B88E
:10417000159F28B8080E191E28B8F9014A9528B8C5
:1041800009F0F00128B8099428B8199128B8159FAA
:1041900028B8080E191E28B8F9014A9528B809F060
:1041A000F00128B8099428B8199128B8159F28B8A3
:1041B000080E191E28B8F9014A9528B809F0F0012F
:1041C00028B8099428B8199138B8159F38B8080E3E
:1041D000191E38B8F9014A9528B809F0F00128B835
:1041E000099438B8199128B8159F28B8080E191ED7
:1041F00028B8F9014A9538B809F0F00128B80994AF
:1042000038B8199138B8159F38B8080E191E38B843
:10421000F9014A9528B809F0F00128B8099438B88E
:10422000199128B8159F28B8080E191E28B8F90149
:104230004A9528B809F0F00128B8099428B81991CE
:1042400038B8159F38B8080E191E38B8F9014A95C4
:1042500028B809F0F00128B8099428B8199128B8AD
:10426000159F28B8080E191E28B8F9014A9528B8D4
:1042700009F0F00128B8099428B8199128B8159FB9
:1042800038B8080E191E38B8F9014A9528B809F04F
:10429000F00128B8099428B8199138B8159F28B8A2
:1042A000080E191E28B8F9014A9528B809F0F0013E
:1042B00028B8099428B8199138B8159F28B8080E5D
:1042C000191E28B8F9014A9528B809F0F00128B854
:1042D000099438B8199138B8159F38B8080E191EC6
:1042E00038B8F9014A9528B809F0F00128B80994BE
:1042F00028B8199138B8159F28B8080E191E28B883
:10430000F9014A9528B809F0F00128B8099428B8AD
:10431000199138B8159F28B8080E191E28B8F90148
:104320004A9528B809F0F00128B8099428B81991DD
:1043300038B8159F28B8080E191E28B8F9014A95F3
:1043400028B809F0F00128B8099428B8199128B8BC
:10435000159F28B8080E191E28B8F9014A9528B8E3
:1043600009F0F00128B8099428B8199128B8159FC8
:1043700028B8080E191E28B8F9014A9528B809F07E
:10438000F00128B8099428B8199128B8159F28B8C1
:10439000080E191E28B8F9014A9528B809F0F0014D
:1043A00028B8099428B8199138B8159F38B8080E5C
:1043B000191E38B8F9014A9538B809F0F00128B843
:1043C000099438B8199128B8159F28B8080E191EF5
:1043D00028B8F9014A9538B809F0F00128B80994CD
:1043E00038B8199128B8159F28B8080E191E28B892
:1043F000F9014A9538B809F0F00128B8099428B8AD
:10440000199138B8159F38B8080E191E38B8F90137
:104410004A9538B809F0F00128B8099428B81991DC
:1044200028B8159F28B8080E191E28B8F9014A9512
:1044300038B809F0F00128B8099428B8199138B8AB
:10444000159F38B8080E191E38B8F9014A9528B8D2
:1044500009F0F00128B8099438B8199128B8159FC7
:1044600028B8080E191E28B8F9014A9528B809F08D
:10447000F00128B8099438B8199128B8159F28B8C0
:10448000080E191E28B8F9014A9528B809F0F0015C
:1044900028B8099438B8199138B8159F38B8080E5B
:1044A000191E28B8F9014A9528B809F0F00128B872
:1044B000099438B8199128B8159F28B8080E191E04
:1044C00038B8F9014A9528B809F0F00128B80994DC
:1044D00038B8199128B8159F28B8080E191E38B891
:1044E000F9014A9528B809F0F00128B8099438B8BC
:1044F000199128B8159F28B8080E191E38B8F90167
:104500004A9528B809F0F00128B8099438B81991EB
:1045100028B8159F28B8080E191E38B8F9014A9511
:1045200028B809F0F00128B8099428B8199128B8DA
:10453000159F28B8080E191E28B8F9014A9528B801
:1045400009F0F00128B8099428B8199128B8159FE6
:1045500038B8080E191E28B8F9014A9528B809F08C
:10456000F00128B8099428B8199128B8159F28B8DF
:10457000080E191E28B8F9014A9528B809F0F0016B
:1045800028B8099428B8199128B8159F38B8080E8A
:10459000191E28B8F9014A9528B809F0F00128B881
:1045A000099428B8199128B8159F38B8080E191E13
:1045B00028B8F9014A9528B809F0F00128B80994FB
:1045C00028B8199128B8159F38B8080E191E28B8B0
:1045D000F9014A9528B809F0F00128B8099428B8DB
:1045E000199128B8159F38B8080E191E28B8F90176
:1045F0004A9528B809F0F00128B8099428B819910B
:1046000028B8159F38B8080E191E38B8F9014A9510
:1046100028B809F0F00128B8099428B8199128B8E9
:10462000159F28B8080E191E28B8F9014A9528B810
:1046300009F0F00128B8099428B8199128B8159FF5
:1046400028B8080E191E38B8F9014A9528B809F09B
:10465000F00128B8099428B8199128B8159F28B8EE
:10466000080E191E28B8F9014A9528B809F0F0017A
:1046700028B8099428B8199128B8159F38B8080E99
:10468000191E38B8F9014A9528B809F0F00128B880
:10469000099428B8199128B8159F28B8080E191E32
:1046A00038B8F9014A9528B809F0F00128B80994FA
:1046B00028B8199128B8159F28B8080E191E38B8BF
:1046C000F9014A9528B809F0F00128B8099428B8EA
:1046D000199128B8159F28B8080E191E38B8F90185
:1046E0004A9528B809F0F00128B8099438B819910A
:1046F00028B8159F28B8080E191E38B8F9014A9530
:1047000028B809F0F00128B8099428B8199138B8E8
:10471000159F38B8080E191E28B8F9014A9528B80F
:1047200009F0F00128B8099438B8199128B8159FF4
:1047300028B8080E191E28B8F9014A9528B809F0BA
:10474000F00128B8099438B8199128B8159F28B8ED
:10475000080E191E28B8F9014A9528B809F0F00189
:1047600028B8099438B8199128B8159F28B8080EA8
:10477000191E38B8F9014A9528B809F0F00128B88F
:10478000099438B8199128B8159F38B8080E191E21
:1047900028B8F9014A9528B809F0F00128B8099419
:1047A00038B8199138B8159F28B8080E191E28B8BE
:1047B000F9014A9528B809F0F00128B8099438B8E9
:1047C000199128B8159F38B8080E191E28B8F90194
:1047D0004A9528B809F0F00128B8099438B8199119
:1047E00028B8159F28B8080E191E38B8F9014A953F
:1047F00028B809F0F00128B8099428B8199128B808
:10480000159F28B8080E191E28B8F9014A9528B82E
:1048100009F0F00128B8099428B8199128B8159F13
:1048200038B8080E191E28B8F9014A9528B809F0B9
:10483000F00128B8099428B8199128B8159F38B8FC
:10484000080E191E28B8F9014A9528B809F0F00198
:1048500028B8099428B8199128B8159F38B8080EB7
:10486000191E28B8F9014A9528B809F0F00128B8AE
:10487000099428B8199128B8159F38B8080E191E40
:1048800028B8F9014A9528B809F0F00128B8099428
:1048900028B8199128B8159F38B8080E191E28B8DD
:1048A000F9014A9528B809F0F00128B8099428B808
:1048B000199128B8159F38B8080E191E28B8F901A3
:1048C0004A9528B809F0F00128B8099428B8199138
:1048D00028B8159F38B8080E191E38B8F9014A953E
:1048E00028B809F0F00128B8099428B8199128B817
:1048F000159F28B8080E191E28B8F9014A9528B83E
:1049000009F0F00128B8099428B8199128B8159F22
:1049100028B8080E191E28B8F9014A9528B809F0D8
:10492000F00128B8099428B8199128B8159F28B81B
:10493000080E191E28B8F9014A9528B809F0F001A7
:1049400028B8099438B8199138B8159F28B8080EB6
:10495000191E38B8F9014A9528B809F0F00128B8AD
:10496000099438B8199128B8159F38B8080E191E3F
:1049700028B8F9014A9538B809F0F00128B8099427
:1049800038B8199128B8159F38B8080E191E28B8DC
:10499000F9014A9538B809F0F00128B8099438B8F7
:1049A000199128B8159F28B8080E191E28B8F901C2
:1049B0004A9538B809F0F00128B8099438B8199127
:1049C00028B8159F28B8080E191E28B8F9014A956D
:1049D00038B809F0F00128B8099428B8199128B816
:1049E000159F28B8080E191E28B8F9014A9528B84D
:1049F00009F0F00128B8099428B8199128B8159F32
:104A000028B8080E191E28B8F9014A9528B809F0E7
:104A1000F00128B8099428B8199128B8159F28B82A
:104A2000080E191E28B8F9014A9528B809F0F001B6
:104A300028B8099438B8199138B8159F38B8080EB5
:104A4000191E28B8F9014A9528B809F0F00128B8CC
:104A5000099438B8199128B8159F28B8080E191E5E
:104A600038B8F9014A9528B809F0F00128B8099436
:104A700038B8199128B8159F28B8080E191E38B8EB
:104A8000F9014A9528B809F0F00128B8099438B816
:104A9000199128B8159F28B8080E191E38B8F901C1
:104AA0004A9528B809F0F00128B8099438B8199146
:104AB00028B8159F28B8080E191E38B8F9014A956C
:104AC00028B809F0F00128B8099428B8199128B835
:104AD000159F28B8080E191E28B8F9014A9528B85C
:104AE00009F0F00128B8099428B8199128B8159F41
:104AF00028B8080E191E28B8F9014A9528B809F0F7
:104B0000F00128B8099428B8199128B8159F28B839
:104B1000080E191E28B8F9014A9528B809F0F001C5
:104B200028B8099428B8199138B8159F38B8080ED4
:104B3000191E38B8F9014A9528B809F0F00128B8CB
:104B4000099438B8199128B8159F28B8080E191E6D
:104B500028B8F9014A9538B809F0F00128B8099445
:104B600038B8199128B8159F28B8080E191E28B80A
:104B7000F9014A9538B809F0F00128B8099438B815
:104B8000199128B8159F28B8080E191E28B8F901E0
:104B90004A9538B809F0F00128B8099428B8199155
:104BA00038B8159F38B8080E191E38B8F9014A955B
:104BB00028B809F0F00128B8099428B8199128B844
:104BC000159F28B8080E191E28B8F9014A9528B86B
:104BD00009F0F00128B8099428B8199128B8159F50
:104BE00028B8080E191E28B8F9014A9528B809F006
:104BF000F00128B8099428B8199128B8159F28B849
:104C0000080E191E28B8F9014A9528B809F0F001D4
:104C100028B8099438B8199138B8159F38B8080ED3
:104C2000191E38B8F9014A9528B809F0F00128B8DA
:104C3000099438B8199128B8159F28B8080E191E7C
:104C400028B8F9014A9538B809F0F00128B8099454
:104C500038B8199128B8159F28B8080E191E28B819
:104C6000F9014A9538B809F0F00128B8099438B824
:104C7000199128B8159F28B8080E191E28B8F901EF
:104C80004A9538B809F0F00128B8099438B8199154
:104C900038B8159F38B8080E191E38B8F9014A956A
:104CA00028B809F0F00128B8099438B8199128B843
:104CB000159F28B8080E191E28B8F9014A9528B87A
:104CC00009F0F00128B8099428B8199128B8159F5F
:104CD00028B8080E191E28B8F9014A9528B809F015
:104CE000F00128B8099428B8199128B8159F28B858
:104CF000080E191E28B8F9014A9528B809F0F001E4
:104D000028B8099428B8199138B8159F38B8080EF2
:104D1000191E38B8F9014A9538B809F0F00128B8D9
:104D2000099438B8199128B8159F28B8080E191E8B
:104D300028B8F9014A9538B809F0F00128B8099463
:104D400038B8199128B8159F28B8080E191E28B828
:104D5000F9014A9538B809F0F00128B8099438B833
:104D6000199128B8159F28B8080E191E28B8F901FE
:104D70004A9538B809F0F00128B8099428B8199173
:104D800038B8159F38B8080E191E38B8F9014A9579
:104D900038B809F0F00128B8099428B8199128B852
:104DA000159F28B8080E191E28B8F9014A9538B879
:104DB00009F0F00128B8099428B8199128B8159F6E
:104DC00028B8080E191E28B8F9014A9528B809F024
:104DD000F00128B8099428B8199128B8159F28B867
:104DE000080E191E28B8F9014A9528B809F0F001F3
:104DF00028B8099438B8199128B8159F38B8080E02
:104E0000191E38B8F9014A9528B809F0F00128B8F8
:104E1000099428B8199138B8159F28B8080E191E9A
:104E200028B8F9014A9538B809F0F00128B8099472
:104E300028B8199138B8159F28B8080E191E28B837
:104E4000F9014A9528B809F0F00128B8099428B862
:104E5000199138B8159F28B8080E191E28B8F901FD
:104E60004A9528B809F0F00128B8099438B8199182
:104E700038B8159F38B8080E191E28B8F9014A9598
:104E800028B809F0F00128B8099428B8199128B871
:104E9000159F28B8080E191E28B8F9014A9528B898
:104EA00009F0F00128B8099428B8199128B8159F7D
:104EB00028B8080E191E28B8F9014A9528B809F033
:104EC000F00128B8099428B8199128B8159F28B876
:104ED000080E191E28B8F9014A9528B809F0F00102
:104EE00028B8099428B8199138B8159F38B8080E11
:104EF000191E38B8F9014A9528B809F0F00128B808
:104F0000099438B8199128B8159F28B8080E191EA9
:104F100028B8F9014A9528B809F0F00128B8099491
:104F200028B8199138B8159F38B8080E191E38B826
:104F3000F9014A9528B809F0F00128B8099428B871
:104F4000199128B8159F28B8080E191E28B8F9011C
:104F50004A9538B809F0F00128B8099428B8199191
:104F600038B8159F38B8080E191E38B8F9014A9597
:104F700028B809F0F00128B8099428B8199128B880
:104F8000159F28B8080E191E28B8F9014A9528B8A7
:104F900009F0F00128B8099428B8199128B8159F8C
:104FA00028B8080E191E28B8F9014A9528B809F042
:104FB000F00128B8099428B8199138B8159F28B875
:104FC000080E191E28B8F9014A9528B809F0F00111
:104FD00028B8099438B8199138B8159F38B8080E10
:104FE000191E38B8F9014A9528B809F0F00128B817
:104FF000099428B8199138B8159F28B8080E191EB9
:1050000028B8F9014A9528B809F0F00128B80994A0
:1050100028B8199138B8159F28B8080E191E28B855
:10502000F9014A9528B809F0F00128B8099428B880
:10503000199138B8159F28B8080E191E38B8F9010B
:105040004A9528B809F0F00128B8099428B81991B0
:1050500028B8159F38B8080E191E28B8F9014A95C6
:1050600028B809F0F00128B8099428B8199128B88F
:10507000159F28B8080E191E28B8F9014A9528B8B6
:1050800009F0F00128B8099428B8199128B8159F9B
:1050900028B8080E191E28B8F9014A9528B809F051
:1050A000F00128B8099428B8199128B8159F28B894
:1050B000080E191E28B8F9014A9528B809F0F00120
:1050C00028B8099438B8199128B8159F28B8080E3F
:1050D000191E38B8F9014A9528B809F0F00128B826
:1050E000099438B8199128B8159F28B8080E191EC8
:1050F00038B8F9014A9528B809F0F00128B80994A0
:1051000038B8199128B8159F28B8080E191E38B854
:10511000F9014A9528B809F0F00128B8099438B87F
:10512000199128B8159F38B8080E191E38B8F9011A
:105130004A9528B809F0F00128B8099428B81991BF
:1051400038B8159F28B8080E191E38B8F9014A95C5
:1051500028B809F0F00128B8099428B8199128B89E
:10516000159F28B8080E191E28B8F9014A9528B8C5
:1051700009F0F00128B8099428B8199128B8159FAA
:1051800028B8080E191E28B8F9014A9528B809F060
:10519000F00128B8099428B8199128B8159F28B8A3
:1051A000080E191E28B8F9014A9528B809F0F0012F
:1051B00028B8099438B8199128B8159F28B8080E4E
:1051C000191E28B8F9014A9538B809F0F00128B835
:1051D000099438B8199128B8159F28B8080E191ED7
:1051E00028B8F9014A9538B809F0F00128B80994AF
:1051F00038B8199128B8159F28B8080E191E28B874
:10520000F9014A9538B809F0F00128B8099428B88E
:10521000199138B8159F28B8080E191E38B8F90129
:105220004A9528B809F0F00128B8099428B81991CE
:1052300028B8159F38B8080E191E28B8F9014A95E4
:1052400028B809F0F00128B8099428B8199128B8AD
:10525000159F28B8080E191E28B8F9014A9528B8D4
:1052600009F0F00128B8099428B8199128B8159FB9
:1052700028B8080E191E28B8F9014A9528B809F06F
:10528000F00128B8099428B8199128B8159F28B8B2
:10529000080E191E28B8F9014A9528B809F0F0013E
:1052A00028B8099438B8199128B8159F28B8080E5D
:1052B000191E28B8F9014A9538B809F0F00128B844
:1052C000099438B8199128B8159F28B8080E191EE6
:1052D00028B8F9014A9538B809F0F00128B80994BE
:1052E00038B8199128B8159F38B8080E191E28B873
:1052F000F9014A9538B809F0F00128B8099438B88E
:10530000199138B8159F38B8080E191E38B8F90128
:105310004A9538B809F0F00128B8099428B81991CD
:1053200038B8159F28B8080E191E38B8F9014A95E3
:1053300028B809F0F00128B8099428B8199128B8BC
:10534000159F28B8080E191E28B8F9014A9528B8E3
:1053500009F0F00128B8099428B8199128B8159FC8
:1053600028B8080E191E28B8F9014A9528B809F07E
:10537000F00128B8099428B8199128B8159F28B8C1
:10538000080E191E28B8F9014A9528B809F0F0014D
:1053900028B8099438B8199128B8159F28B8080E6C
:1053A000191E38B8F9014A9528B809F0F00128B853
:1053B000099438B8199128B8159F28B8080E191EF5
:1053C00038B8F9014A9528B809F0F00128B80994CD
:1053D00028B8199138B8159F38B8080E191E28B882
:1053E000F9014A9528B809F0F00128B8099438B8AD
:1053F000199128B8159F28B8080E191E38B8F90158
:105400004A9528B809F0F00128B8099438B81991DC
:1054100028B8159F28B8080E191E38B8F9014A9502
:1054200028B809F0F00128B8099428B8199128B8CB
:10543000159F28B8080E191E28B8F9014A9528B8F2
:1054400009F0F00128B8099428B8199128B8159FD7
:1054500028B8080E191E28B8F9014A9528B809F08D
:10546000F00128B8099428B8199128B8159F28B8D0
:10547000080E191E28B8F9014A9528B809F0F0015C
:1054800028B8099438B8199128B8159F28B8080E7B
:10549000191E38B8F9014A9528B809F0F00128B862
:1054A000099438B8199128B8159F28B8080E191E04
:1054B00038B8F9014A9528B809F0F00128B80994DC
:1054C00038B8199128B8159F28B8080E191E38B891
:1054D000F9014A9528B809F0F00128B8099428B8CC
:1054E000199138B8159F38B8080E191E38B8F90147
:1054F0004A9528B809F0F00128B8099428B81991FC
:1055000028B8159F38B8080E191E28B8F9014A9511
:1055100028B809F0F00128B8099438B8199138B8BA
:10552000159F28B8080E191E28B8F9014A9528B801
:1055300009F0F00128B8099428B8199128B8159FE6
:1055400028B8080E191E28B8F9014A9528B809F09C
:10555000F00128B8099428B8199128B8159F28B8DF
:10556000080E191E28B8F9014A9528B809F0F0016B
:1055700028B8099438B8199138B8159F38B8080E6A
:10558000191E38B8F9014A9528B809F0F00128B871
:10559000099428B8199128B8159F28B8080E191E23
:1055A00038B8F9014A9528B809F0F00128B80994EB
:1055B00028B8199138B8159F38B8080E191E28B8A0
:1055C000F9014A9528B809F0F00128B8099438B8CB
:1055D000199128B8159F28B8080E191E28B8F90186
:1055E0004A9528B809F0F00128B8099438B81991FB
:1055F00038B8159F38B8080E191E38B8F9014A9501
:1056000028B809F0F00128B8099428B8199128B8E9
:10561000159F28B8080E191E28B8F9014A9528B810
:1056200009F0F00128B8099428B8199128B8159FF5
:1056300038B8080E191E38B8F9014A9528B809F08B
:10564000F00128B8099428B8199138B8159F28B8DE
:10565000080E191E28B8F9014A9528B809F0F0017A
:1056600028B8099428B8199138B8159F28B8080E99
:10567000191E28B8F9014A9528B809F0F00128B890
:10568000099438B8199138B8159F28B8080E191E12
:1056900028B8F9014A9528B809F0F00128B809940A
:1056A00028B8199138B8159F28B8080E191E28B8BF
:1056B000F9014A9528B809F0F00128B8099428B8EA
:1056C000199138B8159F28B8080E191E28B8F90185
:1056D0004A9528B809F0F00128B8099428B819911A
:1056E00028B8159F38B8080E191E38B8F9014A9520
:1056F00028B809F0F00128B8099428B8199128B8F9
:10570000159F28B8080E191E28B8F9014A9528B81F
:1057100009F0F00128B8099428B8199128B8159F04
:1057200038B8080E191E28B8F9014A9528B809F0AA
:10573000F00128B8099428B8199128B8159F38B8ED
:10574000080E191E28B8F9014A9528B809F0F00189
:1057500028B8099428B8199128B8159F38B8080EA8
:10576000191E28B8F9014A9528B809F0F00128B89F
:10577000099428B8199128B8159F38B8080E191E31
:1057800028B8F9014A9528B809F0F00128B8099419
:1057900028B8199128B8159F38B8080E191E28B8CE
:1057A000F9014A9528B809F0F00128B8099428B8F9
:1057B000199128B8159F38B8080E191E28B8F90194
:1057C0004A9528B809F0F00128B8099428B8199129
:1057D00028B8159F38B8080E191E28B8F9014A953F
:1057E00028B809F0F00128B8099428B8199128B808
:1057F000159F28B8080E191E28B8F9014A9528B82F
:1058000009F0F00128B8099428B8199138B8159F03
:1058100038B8080E191E28B8F9014A9528B809F0B9
:10582000F00128B8099428B8199128B8159F28B80C
:10583000080E191E38B8F9014A9528B809F0F00188
:1058400028B8099428B8199128B8159F28B8080EC7
:10585000191E38B8F9014A9528B809F0F00128B89E
:10586000099428B8199128B8159F28B8080E191E50
:1058700038B8F9014A9538B809F0F00128B8099408
:1058800028B8199128B8159F28B8080E191E38B8DD
:10589000F9014A9528B809F0F00128B8099428B808
:1058A000199128B8159F28B8080E191E38B8F901A3
:1058B0004A9528B809F0F00128B8099428B8199138
:1058C00038B8159F38B8080E191E28B8F9014A953E
:1058D00028B809F0F00128B8099428B8199128B817
:1058E000159F28B8080E191E28B8F9014A9528B83E
:1058F00009F0F00128B8099428B8199128B8159F23
:1059000028B8080E191E28B8F9014A9528B809F0D8
:10591000F00128B8099428B8199128B8159F38B80B
:10592000080E191E28B8F9014A9538B809F0F00197
:1059300028B8099428B8199138B8159F28B8080EC6
:10594000191E38B8F9014A9528B809F0F00128B8AD
:10595000099428B8199128B8159F28B8080E191E5F
:1059600028B8F9014A9528B809F0F00128B8099437
:1059700028B8199128B8159F28B8080E191E28B8FC
:10598000F9014A9528B809F0F00128B8099428B817
:10599000199128B8159F28B8080E191E28B8F901C2
:1059A0004A9528B809F0F00128B8099428B8199147
:1059B00028B8159F28B8080E191E28B8F9014A956D
:1059C00028B809F0F00128B8099428B8199128B826
:1059D000159F28B8080E191E28B8F9014A9528B84D
:1059E00009F0F00128B809940D090E6015711631FF
:1059F0001A7A1B731C611D771E322163227823647F
:105A000024652534263329202A762B662C742D72A2
:105A10002E35316E326233683467357936363A6DF9
:105A20003B6A3C753D373E38412C426B4369446FBD
:105A300045304639492E4A2F4B6C4C3B4D704E2D0C
:105A40005227545B553D5A0D5B5D5D5C66086931BC
:105A50006B346C377030712E723273357436753822
:105A6000792B7A337B2D7C2A7D3900000D090E7E3F
:105A7000155116211A5A1B531C411D571E40214314
:105A80002258234424452524262329202A562B4600
:105A90002C542D522E25314E32423348344735593D
:105AA000365E3A4D3B4A3C553D263E2A413C424BF0
:105AB0004349444F45294628493E4A3F4B4C4C3ABE
:105AC0004D504E5F5222547B552B5A0D5B7D5D7CB1
:105AD000660869316B346C377030713E72327335E1
