:100000000C94DF0D0C944C0E0C944C0E0C944C0E76
:100010000C944C0E0C944C0E0C944C0E0C944C0EF8
:100020000C94FC100C944C0E0C944C0E0C944C0E36
:100030000C944C0E0C94A90E0C94E90E0C944C0EDE
:100040000C944C0E0C944C0E0C944C0E0C944C0EC8
:100050000C944C0E0C944C0E0C944C0E0C944C0EB8
:100060000C944C0E0C944C0E0C944C0E0C944C0EA8
:100070005A5501200101003808000000000000006E
:100080000000000000000000000000000000000070
:100090008100450027FF24FF2A902B1C210C22FB06
:1000A000850084008903888D81096F0244424700DE
:1000B0004501B083B300B10125118A4F8B03A9110B
:1000C000AC11B511BA11C311CB11D011D511D81182
:1000D000EA11ED11F011341237123A1200408891F2
:1000E000D2E4ADB5B6BEBFFF0000000000000000C6
:1000F0000000000000000000000000000000000000
:1001000000000000000000000000000000000000EF
:1001100000000000000000000000000000000000DF
:1001200000000000000000000000000000000000CF
:100130000000000000000000000000000000FF00C0
:1001400000000000FF0000000000FF0000000000B1
:10015000FF0000000000FF000000000000000000A1
:100160000000FF0000000000000000000000000090
:10017000000000000000000000000000000000FF80
:1001800000FF000000FF00FF000000FF00FF000074
:10019000000000000000000000000000000000005F
:1001A000000000000000000000000000000000004F
:1001B000000000000000000000000000000000003F
:1001C000000000000000000000000000000000002F
:1001D000000000FF00FF0000FFFFFFFFFF0000FF27
:1001E00000FF000000FF00FF0000FFFFFFFFFF0017
:1001F00000FF00FF00000000000000000000000001
:1002000000000000000000000000000000000000EE
:10021000FF00000000FFFFFF0000FF00FF00FF00E5
:10022000FF00FF00000000FFFFFF00000000FF00D4
:10023000FF00FF00FF00FF0000FFFFFF00000000C5
:10024000FF000000000000000000000000000000AF
:10025000000000000000000000000000FFFF0000A0
:10026000FF00FFFF0000FF00000000FF0000000093
:10027000FF00000000FF00000000FF0000FFFF0083
:10028000FF0000FFFF000000000000000000000071
:10029000000000000000000000000000000000005E
:1002A0000000000000FF00000000FF00FF00000051
:1002B000FF00FF00000000FF00000000FF00FF0043
:1002C000FF00FF0000FF000000FFFF00FF00000034
:1002D000000000000000000000000000000000001E
:1002E0000000000000000000FF0000000000FF0010
:1002F00000000000FF0000000000000000000000FF
:1003000000000000000000000000000000000000ED
:1003100000000000000000000000000000000000DD
:1003200000000000000000000000000000000000CD
:1003300000FF00000000FF0000000000FF000000C0
:1003400000FF0000000000FF0000000000FF0000B0
:1003500000000000FF0000000000FF00000000009F
:1003600000FF00000000000000000000000000008E
:1003700000000000000000FF000000000000FF007F
:1003800000000000FF000000000000FF000000006F
:1003900000FF0000000000FF00000000FF00000060
:1003A0000000FF00000000FF00000000000000004F
:1003B000000000000000000000000000000000003D
:1003C000000000000000FF000000FF00FF00FF0031
:1003D00000FFFFFF00000000FF00000000FFFFFF24
:1003E0000000FF00FF00FF000000FF000000000011
:1003F00000000000000000000000000000000000FD
:1004000000000000000000000000000000000000EC
:1004100000000000FF0000000000FF000000FFFFE0
:10042000FFFFFF000000FF0000000000FF000000D1
:1004300000000000000000000000000000000000BC
:1004400000000000000000000000000000000000AC
:10045000000000000000000000000000000000009C
:10046000000000000000000000000000000000008C
:10047000000000FFFF00000000FFFF000000FFFF82
:10048000000000000000000000000000000000006C
:10049000000000000000000000000000000000005C
:1004A0000000000000000000000000000000FFFF4E
:1004B000FFFFFF000000000000000000000000003F
:1004C000000000000000000000000000000000002C
:1004D000000000000000000000000000000000001C
:1004E000000000000000000000000000000000000C
:1004F00000000000000000000000000000000000FC
:10050000000000FFFF00000000FFFF0000000000EF
:1005100000000000000000000000000000000000DB
:1005200000000000000000000000000000000000CB
:10053000FF00000000FF0000000000FF00000000BE
:10054000FF00000000FF0000000000FF00000000AE
:10055000FF0000000000000000000000000000009C
:10056000000000000000000000000000000000008B
:10057000000000000000FFFF000000FF0000FF007F
:1005800000FF0000FF0000FF0000FF0000FF000070
:10059000FF0000FF0000FF000000FFFF0000000060
:1005A000000000000000000000000000000000004B
:1005B0000000000000000000000000000000FF003C
:1005C000000000FFFF0000000000FF00000000002E
:1005D000FF0000000000FF0000000000FF0000001E
:1005E00000FFFFFF0000000000000000000000000E
:1005F00000000000000000000000000000000000FB
:100600000000000000FFFFFF0000FF000000FF00EF
:1006100000000000FF00000000FF00000000FF00DD
:10062000000000FF00000000FFFFFFFFFF000000D0
:1006300000000000000000000000000000000000BA
:10064000000000000000000000000000FFFFFFFFAE
:10065000FF0000000000FF00000000FF000000009D
:10066000FFFF000000000000FF00FF000000FF008F
:1006700000FFFFFF0000000000000000000000007D
:10068000000000000000000000000000000000006A
:1006900000000000000000FF00000000FFFF00005D
:1006A00000FF00FF0000FF0000FF0000FFFFFFFF52
:1006B000FF00000000FF0000000000FF000000003D
:1006C000000000000000000000000000000000002A
:1006D000000000000000000000000000FFFFFFFF1E
:1006E000FF00FF0000000000FFFFFFFF0000000010
:1006F0000000FF0000000000FF00FF000000FF00FE
:1007000000FFFFFF000000000000000000000000EC
:1007100000000000000000000000000000000000D9
:10072000000000000000FFFF000000FF00000000CC
:10073000FF0000000000FFFFFFFF0000FF000000BF
:10074000FF00FF000000FF0000FFFFFF00000000AF
:100750000000000000000000000000000000000099
:10076000000000000000000000000000FFFFFFFF8D
:10077000FF0000000000FF00000000FF000000007C
:1007800000FF00000000FF0000000000FF0000006C
:100790000000FF000000000000000000000000005A
:1007A0000000000000000000000000000000000049
:1007B0000000000000FFFFFF0000FF000000FF003E
:1007C000FF000000FF0000FFFFFF0000FF0000002F
:1007D000FF00FF000000FF0000FFFFFF000000001F
:1007E0000000000000000000000000000000000009
:1007F00000000000000000000000000000FFFFFFFC
:100800000000FF000000FF00FF000000FF0000FFED
:10081000FFFFFF0000000000FF00000000FF0000DD
:1008200000FFFF00000000000000000000000000CA
:1008300000000000000000000000000000000000B8
:1008400000000000000000000000000000000000A8
:1008500000FFFF00000000FFFF000000000000009C
:10086000000000FFFF00000000FFFF00000000008C
:100870000000000000000000000000000000000078
:100880000000000000000000000000000000000068
:10089000000000000000000000FFFF00000000FF5B
:1008A000FF00000000000000000000FFFF0000004B
:1008B00000FFFF000000FFFF00000000000000003C
:1008C0000000000000000000000000000000000028
:1008D00000000000000000000000000000FF000019
:1008E0000000FF00000000FF000000000000FF000B
:1008F0000000000000FF00000000000000000000F9
:1009000000000000000000000000000000000000E7
:1009100000000000000000000000000000000000D7
:100920000000000000000000FFFFFFFFFF000000CC
:1009300000000000FFFFFFFFFF00000000000000BC
:1009400000000000000000000000000000000000A7
:100950000000000000000000000000000000000097
:100960000000000000000000000000FF0000000088
:100970000000FF000000000000FF00000000FF007A
:10098000000000FF00000000000000000000000068
:100990000000000000000000000000000000000057
:1009A00000000000000000000000000000FFFFFF4A
:1009B0000000FF000000FF00000000FF000000003A
:1009C000FF0000000000FF00000000000000000029
:1009D0000000FF0000000000000000000000000018
:1009E0000000000000000000000000000000000007
:1009F0000000000000FFFFFF0000FF000000FF00FC
:100A0000FF00FFFFFF00FF00FF00FF00FF00FFFFF0
:100A1000FF00FF000000000000FFFFFF00000000DB
:100A200000000000000000000000000000000000C6
:100A300000000000000000000000000000FFFFFFB9
:100A40000000FF000000FF00FF000000FF00FFFFAC
:100A5000FFFFFF00FF000000FF00FF000000FF009D
:100A6000FF000000FF000000000000000000000088
:100A70000000000000000000000000000000000076
:100A800000000000FFFFFFFF000000FF0000FF006C
:100A900000FF0000FF0000FFFFFF000000FF00005C
:100AA000FF0000FF0000FF00FFFFFFFF000000004D
:100AB0000000000000000000000000000000000036
:100AC00000000000000000000000000000FFFFFF29
:100AD0000000FF000000FF00FF0000000000FF001A
:100AE00000000000FF0000000000FF000000FF0009
:100AF00000FFFFFF000000000000000000000000F9
:100B000000000000000000000000000000000000E5
:100B100000000000FFFFFFFF000000FF0000FF00DB
:100B200000FF0000FF0000FF0000FF0000FF0000CA
:100B3000FF0000FF0000FF00FFFFFFFF00000000BC
:100B400000000000000000000000000000000000A5
:100B5000000000000000000000000000FFFFFFFF99
:100B6000FF00FF0000000000FF0000000000FFFF8A
:100B7000FFFF0000FF0000000000FF000000000079
:100B8000FFFFFFFFFF00000000000000000000006A
:100B90000000000000000000000000000000000055
:100BA00000000000FFFFFFFFFF00FF00000000004B
:100BB000FF0000000000FFFFFFFF0000FF0000003B
:100BC0000000FF0000000000FF0000000000000027
:100BD0000000000000000000000000000000000015
:100BE00000000000000000000000000000FFFFFF08
:100BF0000000FF000000FF00FF0000000000FF00F9
:100C000000000000FF0000FFFF00FF000000FF00E9
:100C100000FFFFFF000000000000000000000000D7
:100C200000000000000000000000000000000000C4
:100C300000000000FF000000FF00FF000000FF00B8
:100C4000FF000000FF00FFFFFFFFFF00FF000000AC
:100C5000FF00FF000000FF00FF000000FF00000099
:100C60000000000000000000000000000000000084
:100C700000000000000000000000000000FFFFFF77
:100C800000000000FF0000000000FF000000000066
:100C9000FF0000000000FF0000000000FF00000057
:100CA00000FFFFFF00000000000000000000000047
:100CB0000000000000000000000000000000000034
:100CC000000000000000FFFFFF00000000FF000028
:100CD000000000FF0000000000FF0000000000FF17
:100CE0000000FF0000FF000000FFFF000000000008
:100CF00000000000000000000000000000000000F4
:100D0000000000000000000000000000FF000000E4
:100D1000FF00FF0000FF0000FF00FF000000FFFFDA
:100D200000000000FF00FF000000FF0000FF0000C7
:100D3000FF000000FF0000000000000000000000B5
:100D400000000000000000000000000000000000A3
:100D500000000000FF0000000000FF000000000095
:100D6000FF0000000000FF0000000000FF00000086
:100D70000000FF0000000000FFFFFFFFFF00000079
:100D80000000000000000000000000000000000063
:100D9000000000000000000000000000FF00000054
:100DA000FF00FFFF00FFFF00FF00FF00FF00FF004C
:100DB0000000FF00FF000000FF00FF000000FF0038
:100DC000FF000000FF000000000000000000000025
:100DD0000000000000000000000000000000000013
:100DE00000000000FF000000FF00FF000000FF0007
:100DF000FFFF0000FF00FF00FF00FF00FF0000FFFB
:100E0000FF00FF000000FF00FF000000FF000000E7
:100E100000000000000000000000000000000000D2
:100E200000000000000000000000000000FFFFFFC5
:100E30000000FF000000FF00FF000000FF00FF00B7
:100E40000000FF00FF000000FF00FF000000FF00A7
:100E500000FFFFFF00000000000000000000000095
:100E60000000000000000000000000000000000082
:100E700000000000FFFFFFFF0000FF000000FF0078
:100E8000FF000000FF00FFFFFFFF0000FF00000069
:100E90000000FF0000000000FF0000000000000054
:100EA0000000000000000000000000000000000042
:100EB00000000000000000000000000000FFFFFF35
:100EC0000000FF000000FF00FF000000FF00FF0027
:100ED0000000FF00FF00FF00FF00FF0000FF000018
:100EE00000FFFF00FF000000000000000000000005
:100EF00000000000000000000000000000000000F2
:100F000000000000FFFFFFFF0000FF000000FF00E7
:100F1000FF000000FF00FFFFFFFF0000FF00FF00D9
:100F20000000FF0000FF0000FF000000FF000000C5
:100F300000000000000000000000000000000000B1
:100F400000000000000000000000000000FFFFFFA4
:100F50000000FF000000FF00FF000000000000FF95
:100F6000FFFF000000000000FF00FF000000FF0086
:100F700000FFFFFF00000000000000000000000074
:100F80000000000000000000000000000000000061
:100F900000000000FFFFFFFFFF000000FF00000057
:100FA0000000FF0000000000FF0000000000FF0044
:100FB00000000000FF0000000000FF000000000033
:100FC0000000000000000000000000000000000021
:100FD000000000000000000000000000FF00000012
:100FE000FF00FF000000FF00FF000000FF00FF0007
:100FF0000000FF00FF000000FF00FF000000FF00F6
:1010000000FFFFFF000000000000000000000000E3
:1010100000000000000000000000000000000000D0
:1010200000000000FF000000FF00FF000000FF00C4
:10103000FF000000FF00FF000000FF0000FF00FFB6
:10104000000000FF00FF00000000FF0000000000A3
:101050000000000000000000000000000000000090
:10106000000000000000000000000000FF00000081
:10107000FF00FF000000FF00FF000000FF00FF0076
:101080000000FF00FF00FF00FF00FF00FF00FF0067
:1010900000FF00FF00000000000000000000000052
:1010A0000000000000000000000000000000000040
:1010B00000000000FF000000FF00FF000000FF0034
:1010C00000FF00FF00000000FF00000000FF00FF25
:1010D0000000FF000000FF00FF000000FF00000014
:1010E0000000000000000000000000000000000000
:1010F000000000000000000000000000FF000000F1
:10110000FF00FF000000FF0000FF00FF00000000E4
:10111000FF0000000000FF0000000000FF000000D2
:101120000000FF00000000000000000000000000C0
:1011300000000000000000000000000000000000AF
:1011400000000000FFFFFFFFFF0000000000FF00A5
:10115000000000FF00000000FF00000000FF000092
:101160000000FF0000000000FFFFFFFFFF00000085
:10117000000000000000000000000000000000006F
:1011800000000000000000FFFFFF000000FF000063
:10119000000000FF0000000000FF0000000000FF52
:1011A0000000000000FF0000000000FF0000000041
:1011B00000FF0000000000FFFFFF00000000000033
:1011C000000000000000000000000000000000001F
:1011D00000000000FF000000000000FF0000000011
:1011E00000FF000000000000FF000000000000FF02
:1011F0000000000000FF000000000000FF000000F1
:1012000000000000000000000000000000000000DE
:1012100000000000000000FFFFFF0000000000FFD2
:101220000000000000FF0000000000FF00000000C0
:1012300000FF0000000000FF0000000000FF0000B1
:10124000000000FF000000FFFFFF000000000000A2
:10125000000000000000000000000000000000008E
:10126000FF00000000FF00FF0000FF000000FF0083
:10127000000000000000000000000000000000006E
:10128000000000000000000000000000000000005E
:10129000000000000000000000000000000000004E
:1012A000000000000000000000000000000000003E
:1012B000000000000000000000000000000000002E
:1012C000000000000000000000000000000000001E
:1012D000000000000000000000000000FFFFFFFF12
:1012E000FF0000000000000000000000000000FF00
:1012F000000000000000FF000000000000FF0000F0
:1013000000000000000000000000000000000000DD
:1013100000000000000000000000000000000000CD
:1013200000000000000000000000000000000000BD
:1013300000000000000000000000000000000000AD
:10134000000000000000000000FFFFFF00000000A0
:101350000000FF0000FFFFFFFF00FF000000FF0094
:1013600000FFFFFFFF000000000000000000000081
:10137000000000000000000000000000000000006D
:1013800000000000FF0000000000FF00000000005F
:10139000FFFFFFFF0000FF000000FF00FF00000054
:1013A000FF00FF000000FF00FFFFFFFF0000000044
:1013B000000000000000000000000000000000002D
:1013C000000000000000000000000000000000001D
:1013D000000000000000000000FFFFFF0000FF0011
:1013E0000000FF00FF0000000000FF000000FF0001
:1013F00000FFFFFF000000000000000000000000F0
:1014000000000000000000000000000000000000DC
:101410000000000000000000FF0000000000FF00CE
:1014200000FFFFFFFF00FF000000FF00FF000000C3
:10143000FF00FF000000FF0000FFFFFFFF000000B3
:10144000000000000000000000000000000000009C
:10145000000000000000000000000000000000008C
:10146000000000000000000000FFFFFF0000FF0080
:101470000000FF00FFFFFFFF0000FF000000000072
:1014800000FFFFFF0000000000000000000000005F
:10149000000000000000000000000000000000004C
:1014A000000000000000FFFF000000FF0000FF0040
:1014B00000FF00000000FFFFFF00000000FF000031
:1014C000000000FF0000000000FF0000000000001E
:1014D000000000000000000000000000000000000C
:1014E00000000000000000000000000000000000FC
:1014F000000000000000000000FFFFFF0000FF00F0
:101500000000FF00FF000000FF00FF000000FF00E0
:1015100000FFFFFFFF0000000000FF0000FFFFFFD3
:1015200000000000000000000000000000000000BB
:1015300000000000FF0000000000FF0000000000AD
:10154000FFFFFFFF0000FF000000FF00FF000000A2
:10155000FF00FF000000FF00FF000000FF00000090
:10156000000000000000000000000000000000007B
:101570000000000000000000000000000000FF006C
:10158000000000000000000000FFFF00000000005D
:10159000FF0000000000FF0000000000FF0000004E
:1015A00000FFFFFF0000000000000000000000003E
:1015B000000000000000000000000000000000002B
:1015C0000000000000000000FF000000000000001C
:1015D000000000FFFF0000000000FF00000000000E
:1015E000FF0000000000FF0000000000FF0000FFFF
:1015F0000000FF000000FFFF0000000000000000EE
:10160000000000000000000000000000FF000000DB
:101610000000FF0000000000FF000000FF00FF00CE
:1016200000FF0000FFFFFF000000FF0000FF0000C0
:10163000FF000000FF0000000000000000000000AC
:10164000000000000000000000000000000000009A
:101650000000000000FFFF0000000000FF0000008D
:101660000000FF0000000000FF0000000000FF007D
:1016700000000000FF00000000FFFFFF000000006E
:10168000000000000000000000000000000000005A
:10169000000000000000000000000000000000004A
:1016A0000000000000000000FFFF00FF0000FF003E
:1016B000FF00FF00FF00FF00FF00FF00FF00FF0032
:1016C000FF00FF00FF00000000000000000000001D
:1016D000000000000000000000000000000000000A
:1016E00000000000000000000000000000000000FA
:1016F000FF00FFFF0000FFFF0000FF00FF000000F1
:10170000FF00FF000000FF00FF000000FF000000DE
:1017100000000000000000000000000000000000C9
:1017200000000000000000000000000000000000B9
:10173000000000000000000000FFFFFF0000FF00AD
:101740000000FF00FF000000FF00FF000000FF009E
:1017500000FFFFFF0000000000000000000000008C
:101760000000000000000000000000000000000079
:101770000000000000000000000000000000000069
:10178000FFFFFFFF0000FF000000FF00FF00000060
:10179000FF00FF000000FF00FFFFFFFF0000FF0051
:1017A00000000000FF00000000000000000000003A
:1017B0000000000000000000000000000000000029
:1017C000000000000000000000FFFFFFFF00FF001E
:1017D0000000FF00FF000000FF00FF000000FF000E
:1017E00000FFFFFFFF0000000000FF0000000000FE
:1017F000FF000000000000000000000000000000EA
:1018000000000000000000000000000000000000D8
:10181000FF00FFFF0000FFFF0000FF00FF000000CF
:101820000000FF0000000000FF00000000000000BA
:1018300000000000000000000000000000000000A8
:101840000000000000000000000000000000000098
:10185000000000000000000000FFFFFFFF00FF008D
:101860000000000000FFFFFF000000000000FF007C
:10187000FFFFFFFF0000000000000000000000006C
:101880000000000000000000000000000000000058
:10189000000000000000FF0000000000FF0000004A
:1018A000FFFFFFFFFF000000FF0000000000FF003F
:1018B00000000000FF000000000000FFFF0000002B
:1018C0000000000000000000000000000000000018
:1018D0000000000000000000000000000000000008
:1018E0000000000000000000FF000000FF00FF00FB
:1018F0000000FF00FF000000FF00FF0000FFFF00EE
:1019000000FFFF00FF0000000000000000000000DA
:1019100000000000000000000000000000000000C7
:1019200000000000000000000000000000000000B7
:10193000FF000000FF00FF000000FF00FF000000AC
:10194000FF0000FF00FF00000000FF00000000009B
:101950000000000000000000000000000000000087
:101960000000000000000000000000000000000077
:101970000000000000000000FF000000FF00FF006A
:101980000000FF00FF00FF00FF00FF00FF00FF005E
:1019900000FF00FF00000000000000000000000049
:1019A0000000000000000000000000000000000037
:1019B0000000000000000000000000000000000027
:1019C000FF000000FF0000FF00FF00000000FF001C
:1019D000000000FF00FF0000FF000000FF0000000B
:1019E00000000000000000000000000000000000F7
:1019F00000000000000000000000000000000000E7
:101A00000000000000000000FF000000FF00FF00D9
:101A10000000FF00FF000000FF0000FF00FF0000CB
:101A20000000FF00000000FF00000000FF000000B9
:101A300000000000000000000000000000000000A6
:101A40000000000000000000000000000000000096
:101A5000FFFFFFFFFF00000000FF00000000FF008D
:101A6000000000FF00000000FFFFFFFFFF0000007C
:101A70000000000000000000000000000000000066
:101A8000000000000000000000FF00000000FF0058
:101A900000000000FF0000000000FF00000000FF49
:101AA000000000000000FF0000000000FF00000038
:101AB0000000FF000000000000FF00000000000028
:101AC0000000000000000000000000000000000016
:101AD000FF0000000000FF0000000000FF00000009
:101AE0000000FF0000000000FF0000000000FF00F9
:101AF00000000000FF0000000000FF0000000000E8
:101B0000FF000000000000000000000000000000D6
:101B100000000000000000FF000000000000FF00C7
:101B200000000000FF0000000000FF0000000000B7
:101B300000FF00000000FF0000000000FF000000A8
:101B40000000FF00000000FF000000000000000097
:101B50000000000000000000000000000000000085
:101B60000000000000000000000000000000000075
:101B700000FF0000FF00FF00FF00FF00FF0000FF6C
:101B80000000000000000000000000000000000055
:101B90000000000000000000000000000000000045
:101BA00048656C6C6F20576F726C642046726F6D65
:101BB0002054686520557A65626F782100001124F1
:101BC0001FBECFEFD0E1DEBFCDBF19E0A0E0B1E096
:101BD00001C01D92AA38B107E1F70E94DC1014BEC3
:101BE00088E10FB6F89480936000109260000FBEF9
:101BF0000E949311882311F40E947011F894EFEE63
:101C0000F6E080E8819398E0EB3FF907D9F78FEE93
:101C100096E09093FC088093FB081092FD0891E0F9
:101C20009093140990931509909313091092000949
:101C30001092060910920C09109212091092D806FF
:101C40001092DA0682E18093D90688ED8093E0064F
:101C500084E18093DF061092E4061092E30610926E
:101C6000E8061092E7069093FF080E94011C20E905
:101C700030E0F90185919491FC01F07090832E5F22
:101C80003F4F80E02E3B3807A1F778940E94001C5C
:101C90000E94831C0C94F31C0C94000030EE3A95C7
:101CA0000C94520EE1F70C94550EC0E0D1E008ED13
:101CB000A02E662776E036D13BE23A95F1F70E94F6
:101CC000880E31E13A95F1F7AA9489F0C8956395A9
:101CD0006C3029F033E03A95F1F70000ECCF66273D
:101CE000002430E5C30FD01DC8950000E4CF35E0D7
:101CF0003A95F1F70000000015D1E091DA0642E0D4
:101D0000E427E160E093DA06E2E0E093360008952C
:101D1000DE014D915D91679FC001480F591FFA0187
:101D200028E2059108B94D91059108B95D91059199
:101D300008B900C0059108B9480F591F059108B9A5
:101D40000591FA012A9508B961F7C895002708B9E5
:101D500008950F921F92EF93FF93EFB7EF93E091E7
:101D60008400E251F1E0EF1700F0F395FA30D8F378
:101D70000C94BA0EE091D906EA95E093D906F09159
:101D8000D806F0FD57C0EC3098F0F3E0F0938900EE
:101D9000FDE8F0938800E0FB289826F4E1E00E943B
:101DA0007310B9C0E5E1EA95F1F70000289AB3C0D5
:101DB000E63038F100C000C02898E0FBE4E016F4FB
:101DC0000E947310E4E0E0933600E6E0E0936F00D9
:101DD000A2C0EF93EFB7EF93E0918400ED55E130AF
:101DE00000F0E23000F0E33000F0E43000F0E530E5
:101DF00000F0289AE2E0E0936F00EF91EFBFEF91DF
:101E0000189500C0E0FB289826F4E1E00E947310CA
:101E100005C0E5E1EA95F1F70000289AE091D906BE
:101E2000E03009F078C0EDEFE093D906E1E0E0930F
:101E3000D80671C0E7E0E0938900EBE1E093880009
:101E400000C02898E2E000C00E947310FDEF0090EF
:101E5000DF06F019E091D906EF17E0F4FDEF0090EE
:101E6000DF06F0190090E006F019EF1798F0EDE1A9
:101E7000FF2700800F92EA95E1F70FE10A95F1F74D
:101E8000000000000E944E0EE1E0FF270F9001923B
:101E9000EE31E0F3E091D906E03009F03CC02F9339
:101EA0003F934F935F936F937F938F939F93AF93E2
:101EB000BF9378941124EE27E093D806E2E1E093F3
:101EC000D9068091E9069091EA0601968093E90689
:101ED0009093EA06E091DB06F091DC06E115F1054E
:101EE00009F009950E945F110E94021C0E949D0F3B
:101EF0001124E091DD06F091DE06E115F10509F00F
:101F00000995BF91AF919F918F917F916F915F9153
:101F10004F913F912F91EF91EFBFFF91EF911F9064
:101F20000F9018952898E2E000C00E947310E0918D
:101F3000D906EA95E093D9060895E091FF08E0FDFF
:101F40000E9467120090FD08002019F4AFEEB6E081
:101F500002C0A5EFB7E021E002260092FD0822E0D2
:101F60002093FE08E091FF08E0FF08952F923F9232
:101F70004F925F926F927F928F929F92AF92BF9299
:101F8000CF92DF92EF92FF920F931F93CF93DF9345
:101F900050911209609114097091150980911609E8
:101FA00020900109309002094090040950900509E1
:101FB000609003091091000970900709809008094A
:101FC00090900909A0900A09B0900B092091060988
:101FD000C0900D09D0900E09E0901009F090110901
:101FE00000910F0930910C099FEF620C431CF20124
:101FF000449141030008C12DD02D970CA81CF50178
:10200000449142030008C10DD01D0C0DED1CF701D9
:10201000449143030008C10DD01D8A956AF4409194
:102020001309842F8695062E0694062600FA7695C7
:10203000679576F940FF66F940E860FD4FE7450394
:102040000008C10DD01D0024C038D0050CF0CFE72A
:102050000A94C038D0050CF4C0E8C058CD939A95C6
:1020600009F0C3CF4091FE084A954093FE0897E0DF
:1020700009F0BBCF609203094092040990920909CC
:10208000A0920A0900930F09E092100960931409C5
:102090007093150980931609DF91CF911F910F91CD
:1020A000FF90EF90DF90CF90BF90AF909F908F9078
:1020B0007F906F905F904F903F902F900895E091A8
:1020C000FB08F091FC08019100000093B30008E0C8
:1020D000EB3FF0070FEE16E008F0F801E093FB0885
:1020E000F093FC0808950F931F932F93EF93E091C3
:1020F000FB08F091FC0801910093B30008E0EB3F6E
:10210000F0070FEE16E008F0F801E093FB08F093FB
:10211000FC08E8E0EA95F1F7EF912F911F910F91FC
:10212000E0FD289AE0FF01C00895F4E1FA95F1F787
:1021300000C0E1FD289AE1FF00C00895EAEEF2E058
:10214000A0E0B1E06091D4067091D5066D937D93C7
:102150003197E1F7112408959927552728E2220F96
:10216000629F880F080E191EA0E0B1E0A00DB11DFE
:102170006091D4067091D50628E4429F600D711DD0
:102180006D937C93112408958093D4069093D50683
:102190000895F999FECF92BD81BD60BDF894FA9A79
:1021A000F99A78940895F999FECF92BD81BDF8947B
:1021B000F89A80B57894089580E08093D90680934A
:1021C000800081E080938100F894A89580E080935E
:1021D000540098E48091600088618093600090933F
:1021E000600078948091D9068830E0F3089580915A
:1021F000EB069091EC0608950F931F930FB70F9382
:102200000091D90603950093D90600FD08C01091EE
:10221000EB060091840010271093EB0607C0109185
:10222000EC060091840010271093EC0608E400935C
:1022300060000F910FBF1F910F911895129AC895CA
:10224000C895C895C895129820E030E080E090E0ED
:1022500040E03695279596958795C895C895C89579
:10226000C8951398009B3068019B9068139AC89595
:10227000C895C895C8954F5F403159F73093E2062D
:102280002093E1069093E6068093E5068091E106AF
:102290009091E2060F9731F08091E5069091E60665
:1022A0000F9761F428E088E190E00FB6F894A895C4
:1022B000809360000FBE20936000FFCF08951092BE
:1022C0001809009903C081E080931809019905C09D
:1022D000809118098260809318090E941E11089548
:1022E000CF93DF93C0E0D0E0FE01E059FF4FE491CF
:1022F000CE016E2F0E94C9102196C032D105A1F7E0
:10230000C0E2D0E0CE016FEF0E94C910CE0101966D
:102310006FEF0E94C910A09688E0C030D80791F7EF
:10232000DF91CF9108951F9380E090E00E94D31039
:10233000182F81E090E00E94D31090E0382F20E029
:10234000210F311D2A55354509F491E0892F1F9140
:102350000895FC014687089581E091E09093150966
:1023600080931409409313090895862F642F0E94C7
:102370006D150895FC01862F9181490F4183642FCB
:102380000E9456150895FC01862F6181641B6183AC
:102390000E9456150895FC0180818F7580830895F1
:1023A000FC018081806480830895FC014587089545
:1023B000FF920F931F938C01862FF42E642F0E949F
:1023C0005615F801F1828081877F80831F910F91DC
:1023D000FF900895FC0141870895FC01428708950C
:1023E0001F93CF93DF93EC01162F898190E0FC01BE
:1023F000EE0FFF1FE85FF34D25913491E42FFF2787
:10240000E7FDF095E80FF91FEE0FFF1FE85FF34DB2
:102410008591949160912209821B930B70E00E9438
:10242000E01C9B016115710511F421E030E0812F62
:1024300090E0FC01EE0FFF1FE80FF91FEE0FFF1FEA
:10244000E050F74F81819281820F931F92838183A5
:102450003D832C838881886088838981840F8E8363
:10246000DF91CF911F910895409322090895FC01B7
:1024700043830895DC0113968C911397882331F1DF
:102480005596ED91FC915697442371F0242F3327F4
:1024900027FD309520953095C901880F991F820F2F
:1024A000931FE80FF91F08C0339732978491329633
:1024B0008D3011F08F3FC1F75696FC93EE935597F0
:1024C00013968C911397815013968C930895AF9225
:1024D000BF92DF92EF92FF920F931F93CF93DF9300
:1024E000ABE1B9E0C1E0D9E01E968C911E9788233C
:1024F000B9F0282F332727FD30951D968C911D9715
:10250000280F311D2F3F310519F014F02FEF30E067
:10251000C90137FF02C080E090E01D968C931D97A3
:102520008C9183FF26C014964D915C91159728815C
:102530003981240F351F3983288316968C9116977D
:10254000E82FF0E0EE0FFF1FE85FF34D85919491C7
:102550001416150624F42817390730F40AC0452B41
:1025600041F08217930728F0998388838C91877FA5
:102570008C935796269649E0A737B40709F0B4CF55
:102580008091EE06882309F0DEC0F1C0E091800959
:10259000F0918109CF010196909381098093800980
:1025A00044914F3F69F5AC014F5F5F4F50938109F4
:1025B00040938009FC0184918F3219F41092EE0649
:1025C000D0C0863009F0B2C0FA013196CF01019631
:1025D0009093810980938009E491E33529F49093E5
:1025E000830980938209A2C0E53409F09FC08091DD
:1025F000820990918309909381098093800996C004
:1026000047FF02C040937B0920917B09322F3F7026
:1026100047FF08C001969093810980938009019734
:10262000FC014491822F90E0807F9070803B910567
:1026300031F1803C910509F46DC08039910509F0B4
:1026400075C0E0918009F09181093196F09381097C
:10265000E09380093197E491832F90E08C9FD00123
:102660008D9FB00D9C9FB00D1124A55EB64FEE0F4F
:10267000832F1F966C912E2F0E940B1557C0E0914F
:102680008009F09181093196F0938109E0938009E6
:1026900031972491473071F4832F90E08C9FF001A3
:1026A0008D9FF00D9C9FF00D1124E55EF64F220FDB
:1026B00023873CC04B3071F4832F90E08C9FF00156
:1026C0008D9FF00D9C9FF00D1124E55EF64F220FBB
:1026D00022832CC04C3571F4832F90E08C9FF00145
:1026E0008D9FF00D9C9FF00D1124E55EF64F220F9B
:1026F00021871CC04436D1F4832F90E08C9FF001D9
:102700008D9FF00D9C9FF00D1124E55EF64F220F7A
:1027100022870CC0832F90E08C9FF0018D9FF00DDD
:102720009C9FF00D1124E55EF64F478780E899E005
:102730000E948B1490937E0980937D0910927809F2
:102740001092770902C0C7E1D0E02091770930915B
:10275000780980917D0990917E092817390709F43D
:1027600015CF2F5F3F4F3093780920937709CBE146
:10277000D9E000E019E0FF248FEFA82EB12CDC2E69
:10278000ED2E888186FD3DC08D899E89892B09F4B7
:1027900035C09B898A89981768F530C0ED89FE8914
:1027A000CF0101969E8B8D8B24912F3F31F4888130
:1027B0008F7788831E8A1D8A21C001969E8B8D8B00
:1027C0000197FC014491822F90E0880F991F825459
:1027D0009F4FFC01259134918D2D9E2D6F2DF90178
:1027E0000995ED89FE893196FE8BED8B3197E49149
:1027F000EA8B1B8A9B898A89981781F28B898F5F64
:102800008B8B888185FD03C020E030E070C08C890F
:102810008F3F11F08F5F8C8B888187FF02C08FEF15
:1028200001C08B859C85992309F45BC02D852223EB
:1028300009F457C0882309F454C040917C0944230B
:1028400009F44FC0899FC001112480509F4F892FE8
:10285000992730E0B901869F9001879F300D969FA0
:10286000300D112420503F4F232F33278A8190E0D1
:10287000FC012E9FC0012F9F900D3E9F900D1124B3
:1028800080509F4F892F9927242F30E0AC01429F21
:10289000C001439F900D529F900D112480509F4F77
:1028A000292F332789858823F1F0E885F0E0E0506F
:1028B000F24DE491E058E89FC001112480509F4FF1
:1028C000892F9927B501681B790B629FC001639F0F
:1028D000900D729F900D112480509F4F292F332708
:1028E00002C020E030E088859A85890F8887F8014A
:1028F0002083F39467960A5F1F4FF4E0FF1609F0F8
:102900003ECFDF91CF911F910F91FF90EF90DF901D
:10291000BF90AF900895DC01ED91FC911197AF014C
:102920004F5F5F4F11965C934E93E4912E2F30E0F2
:10293000E7FF13C02F7730703695322F2227379557
:102940002795FA014F5F5F4FE4918E2F8F77280F05
:10295000311DE7FDF1CF4D935C93C9010895FF92BE
:102960000F931F93CF93DF93182FF62E87E1189FB5
:10297000E0011124C55ED64F00E0888187FD01E0AB
:102980001B8A1E869FEF9D874C871C8A88818062E8
:10299000877B88831986188629831B829A83133044
:1029A00069F4002309F4F22E81E091E09093150977
:1029B0008093140981E08093130908C0812F622F4E
:1029C0000E945615812F60E00E946D15002311F0C2
:1029D000F88A01C0FF8689E0F89EC0011124E091C9
:1029E0007909F0917A09E80FF91F3396259134910E
:1029F0002115310519F41E8A1D8A07C0F901849139
:102A00008A8B2F5F3F4F3E8B2D8BDF91CF911F9194
:102A10000F91FF9008951F93782F142FA82FB0E0E7
:102A200087E190E0A89FF001A99FF00DB89FF00DFD
:102A30001124E55EF64F3081532F35FF02C037FD7C
:102A400033C02223F9F487E190E0A89FF001A99F09
:102A5000F00DB89FF00D1124E55EF64F86858823B2
:102A600011F456FF148687E190E0A89FF001A99F1A
:102A7000F00DB89FF00D1124E55EF64F80818F7B3D
:102A8000808312C087E190E0A89FF001A99FF00D1C
:102A9000B89FF00D1124E55EF64F3F773083872F06
:102AA000422F212F0E94AF141F9108959927772755
:102AB000833008F00895E8E0FCE2660F771FE60F28
:102AC000F71FA591B491E0E0F9E026E0289FE00D22
:102AD000F11DA183B2831124089599277727E0E09F
:102AE000F9E026E0289FE00DF11D6E3F31F4609182
:102AF00013096E7F609313090BC06F3F31F460912F
:102B000013096E6F6093130903C07EE2760F75831D
:102B100011240895000000000000000000000000E3
:102B200000000000000000000000000000000000A5
:102B30000000000000000000000000000000000095
:102B40000000000000000000000000000000000085
:102B50000000000000000000000000000000000075
:102B60000000000000000000000000000000000065
:102B70000000000000000000000000000000000055
:102B80000000000000000000000000000000000045
:102B90000000000000000000000000000000000035
:102BA0000000000000000000000000000000000025
:102BB0000000000000000000000000000000000015
:102BC0000000000000000000000000000000000005
:102BD00000000000000000000000000000000000F5
:102BE00000000000000000000000000000000000E5
:102BF00000000000000000000000000000000000D5
:102C000080E08093FF080895220024002600280019
:102C10002B002D0030003300360039003D0040000D
:102C2000440048004C00510056005B006000660004
:102C30006C00730079008100880090009900A20068
:102C4000AC00B600C100CC00D800E500F3000101E3
:102C5000100121013201440157016C0181019801E9
:102C6000B001CA01E50102022102410264028802A8
:102C7000AE02D7020303300361039403CB030504C0
:102C800042048304C70410055D05AF05050661060F
:102C9000C206290796070908830805098E09200A34
:102CA000BA0A5D0B0A0CC10C840D510E2B0F1210C9
:102CB00007110A121D1340147415BA16141883193B
:102CC000071BA31C571E24200E22142439267F28FC
:102CD000E82A752D293006330F364539AD3C494079
:102CE0001B442848734CFE50CF55EA5A51600C667D
:102CF0001D6C8B725A79928037885090E598FDA1AF
:102D00009FABD3B5A3C0000000000000000000008E
:102D100000000000000000000000000000000000B3
:102D200000000000000000000000000000000000A3
:102D30000000000000000000000000000000000093
:102D40000000000000000000000000000000000083
:102D50000000000000000000000000000000000073
:102D60000000000000000000000000000000000063
:102D70000000000000000000000000000000000053
:102D80000000000000000000000000000000000043
:102D90000000000000000000000000000000000033
:102DA0000000000000000000000000000000000023
:102DB0000000000000000000000000000000000013
:102DC0000000000000000000000000000000000003
:102DD00000000000000000000000000000000000F3
:102DE00000000000000000000000000000000000E3
:102DF00000000000000000000000000000000000D3
:102E0000000306090C101316191C1F2225282B2E4F
:102E1000313336393C3F414447494C4E5153555864
:102E20005A5C5E60626466686A6B6D6F7071737421
:102E3000757678797A7A7B7C7D7D7E7E7E7F7F7FDA
:102E40007F7F7F7F7E7E7E7D7D7C7B7A7A797876C0
:102E500075747371706F6D6B6A68666462605E5CD6
:102E60005A585553514E4C494744413F3C393633EB
:102E7000312E2B2825221F1C191613100C090603AE
:102E800000FDFAF7F4F0EDEAE7E4E1DEDBD8D5D2B5
:102E9000CFCDCAC7C4C1BFBCB9B7B4B2AFADABA880
:102EA000A6A4A2A09E9C9A9896959391908F8D8CA3
:102EB0008B8A8887868685848383828282818181CA
:102EC0008181818182828283838485868687888AC4
:102ED0008B8C8D8F9091939596989A9C9EA0A2A48E
:102EE000A6A8ABADAFB2B4B7B9BCBFC1C4C7CACD59
:102EF000CFD2D5D8DBDEE1E4E7EAEDF0F4F7FAFD76
:102F0000808182838485868788898A8B8C8D8E8F49
:102F1000909192939495969798999A9B9C9D9E9F39
:102F2000A0A1A2A3A4A5A6A7A8A9AAABACADAEAF29
:102F3000B0B1B2B3B4B5B6B7B8B9BABBBCBDBEBF19
:102F4000C0C1C2C3C4C5C6C7C8C9CACBCCCDCECF09
:102F5000D0D1D2D3D4D5D6D7D8D9DADBDCDDDEDFF9
:102F6000E0E1E2E3E4E5E6E7E8E9EAEBECEDEEEFE9
:102F7000F0F1F2F3F4F5F6F7F8F9FAFBFCFDFEFFD9
:102F8000000102030405060708090A0B0C0D0E0FC9
:102F9000101112131415161718191A1B1C1D1E1FB9
:102FA000202122232425262728292A2B2C2D2E2FA9
:102FB000303132333435363738393A3B3C3D3E3F99
:102FC000404142434445464748494A4B4C4D4E4F89
:102FD000505152535455565758595A5B5C5D5E5F79
:102FE000606162636465666768696A6B6C6D6E6F69
:102FF000707172737475767778797A7B7C7D7E7F59
:1030000000020406080A0C0E10121416181A1C1ED0
:1030100020222426282A2C2E30323436383A3C3EC0
:1030200040424446484A4C4E50525456585A5C5EB0
:1030300060626466686A6C6E70727476787A7C7EA0
:103040007F7D7B79777573716F6D6B696765636180
:103050005F5D5B59575553514F4D4B494745434170
:103060003F3D3B39373533312F2D2B292725232160
:103070001F1D1B19171513110F0D0B090705030150
:10308000FFFDFBF9F7F5F3F1EFEDEBE9E7E5E3E140
:10309000DFDDDBD9D7D5D3D1CFCDCBC9C7C5C3C130
:1030A000BFBDBBB9B7B5B3B1AFADABA9A7A5A3A120
:1030B0009F9D9B99979593918F8D8B898785838110
:1030C00080828486888A8C8E90929496989A9C9E10
:1030D000A0A2A4A6A8AAACAEB0B2B4B6B8BABCBE00
:1030E000C0C2C4C6C8CACCCED0D2D4D6D8DADCDEF0
:1030F000E0E2E4E6E8EAECEEF0F2F4F6F8FAFCFEE0
:103100007F7F7F7F7F7F7F7F7F7F7F7F7F7F7F7FCF
:103110007F7F7F7F7F7F7F7F7F7F7F7F7F7F7F7FBF
:103120007F7F7F7F7F7F7F7F7F7F7F7F7F7F7F7FAF
:103130007F7F7F7F7F7F7F7F7F7F7F7F7F7F7F7F9F
:103400000309131E28313A40464C5054585B5E6104
:10341000636567696B6C6E6F7071727374757677C4
:10342000777879797A7A7B7B7C7C7C7D7D7D7E7EEA
:103430007E7E7F7F7F7F7F7F7F7F7F7F7F7F7F7F9E
:103440007F7F7F7F7F7F7F7F7F7F7F7F7F7E7E7E8F
:103450007E7D7D7D7C7C7C7B7B7A7A7979787777C1
:10346000767574737271706F6E6C6B69676563618A
:103470005E5B5854504C46403A31281E13090300F5
:10348000C6CCD5DBDFE3E5E7E9EAEBECEDEEEFEF09
:10349000F0F0F0F1F1F1F1F2F2F2F2F2F2F2F2F315
:1034A000F3F3F3F3F3F3F3F3F3F3F3F3F3F3F3F3EC
:1034B000F3F3F3F3F3F3F3F3F3F3F3F3F3F3F3F3DC
:1034C000F3F3F3F3F3F3F3F3F3F3F3F3F3F3F3F3CC
:1034D000F3F3F3F3F3F3F3F3F3F3F3F3F3F3F3F3BC
:1034E000F2F2F2F2F2F2F2F2F1F1F1F1F0F0F0EFC9
:1034F000EFEEEDECEBEAE9E7E5E3DFDBD5CCC60088
:1035000000283D42302D2C2B2C2D2E2F30323335E0
:1035100037393B3D3F414345484A4C4E5053555740
:10352000595B5D5F61636567696B6C6E7071737425
:10353000757778797A7B7C7D7D7E7E7F7F7F7F7FCC
:103540007F7F7F7F7F7F7E7E7D7D7C7B7A797877B2
:1035500075747371706E6C6B69676563615F5D5BD9
:1035600059575553504E4C4A484543413F3D3B39CE
:1035700037353332302F2E2D2C2B2C2D30423D2839
:1035800000E9E5FED4D7D7D7D6D4D2D0CECCCAC89E
:10359000C6C3C1BFBDBAB8B6B4B1AFADABA9A7A5DC
:1035A000A3A19F9E9C9A999795949391908F8D8CAF
:1035B0008B8A8988888786858584848483838383AE
:1035C0008383838383848484858586878888898AA6
:1035D0008B8C8D8F909193949597999A9C9E9FA197
:1035E000A3A5A7A9ABADAFB1B4B6B8BABDBFC1C3AF
:1035F000C6C8CACCCED0D2D4D6D7D7D7D4FEE5E968
:10360000F9F8F9F5EBE1DDDEE0E2E4E5E6E5E4E238
:10361000DED9D2CAC1B7ACA299918A868381808053
:103620008182838586888A8C8D8F909293959697D8
:1036300098999A9B9B9C9D9D9D9E9E9E9F9F9F9FC0
:103640009F9F9F9E9E9E9D9D9D9C9B9B9A999897B8
:1036500096959392908F8D8C8A88868583828180BF
:10366000808183868A9199A2ACB7C1CAD2D9DEE2A1
:10367000E4E5E6E5E4E2E0DEDDE1EBF5F9F8F900AA
:103680000708070B151F2322201E1C1B1A1B1C1EBC
:1036900022272E363F49545E676F767A7E7F7F7F82
:1036A0007F7E7D7B7A7876747371706E6D6B6A69DC
:1036B00068676665656464636362626261616161D3
:1036C00061616162626263636364656566676869BC
:1036D0006A6B6D6E7071737476787A7B7D7E7F7F96
:1036E0007F7F7E7A766F675E54493F362E27221E93
:1036F0001C1B1A1B1C1E2022231F150B070807006A
:103700001F313D444E5354565A5F64696E74767946
:103710007C7F7F7F7F7F7F7F7F7F7F7F7F7F7F7FBC
:103720007F7F7F7F7F7F7F7F7F7F7F7F7F7F7F7FA9
:103730007F7F7F7F7F7F7F7F7F7F7F7F7F7F7F7F99
:103740007F7F7F7F7F7F7F7F7F7F7F7F7F7F7F7F89
:103750007F7F7F7F7F7F7F7F7F7F7F7F7F7F7F7F79
:103760007F7F7F7F7F7F7F7F7F7F7F7F7F7F7F7F69
:103770007F7F7F7F7F7F7F7F7F7F7F7C7871684CBB
:103780002C1C120C0A0B0A05FDF3E9DFD4CAC0B7E2
:10379000AEA69E97918B8685828080808080808077
:1037A0008080808080808080808080808080808019
:1037B0008080808080808080808080808080808009
:1037C00080808080808080808080808080808080F9
:1037D00080808080808080808080808080808080E9
:1037E00080808080808080808080808080808080D9
:1037F000808080808087919DACC4CBD4DDF2FAFAC2
:10380000089508950E945F1C0895DF92EF92FF9241
:103810000F931F93CF93DF93E62E8A01D22EEC01F4
:10382000FF240115110511F4FF2051F4C8016AE0CD
:1038300070E00E94CC1C482F405F8C2F6E2D09C079
:10384000DD2021F08C2F6E2D40E103C08C2F6E2DDA
:1038500040E00E94AC10F394219785E0F81639F00F
:10386000C8016AE070E00E94CC1C8B01DACFDF91C6
:10387000CF911F910F91FF90EF90DF900895FF92ED
:103880000F931F93CF93DF938C01F62EEA01FE0175
:1038900044912196442349F0802F0F5F1F4F4F77AB
:1038A00040526F2D0E94AC10F2CFDF91CF911F914B
:1038B0000F91FF90089540520E94AC10089580919E
:1038C00087098823F9F0809188098823C1F48091C1
:1038D00085098093880980918909E82FF0E0E552F5
:1038E000FF4FE491E7B990918609980F9093890969
:1038F000992311F09D3031F4109287090895815079
:10390000809388090895CF93DF9388EE90E00E941A
:10391000C4100E949E10C0E0D0E08C2F6AE00E948C
:10392000C01C492F405DCE0160E070E00E945B1C2E
:103930002196C832D10589F7C0E0D0E08C2F6AE02B
:103940000E94C01C492F405D80E090E0BE010E94B3
:103950005B1C2196C231D10589F786E090E068E0D2
:1039600070E040EA5BE10E943F1C0E94F710AC014E
:103970008AE090E066E070E021E00E94051CFFCF45
:10398000991B79E004C0991F961708F0961B881FB1
:103990007A95C9F780950895AA1BBB1B51E107C012
:1039A000AA1FBB1FA617B70710F0A61BB70B881FCF
:1039B000991F5A95A9F780959095BC01CD0108955E
:1039C00097FB092E07260AD077FD04D0E5DF06D045
:1039D00000201AF4709561957F4F0895F6F7909541
:0A39E00081959F4F0895F894FFCFE2
:00000001FF
