:100000000C94C9550C9433560C9433560C943356B7
:100010000C9433560C9433560C9433560C9433563C
:100020000C9433560C9433560C9433560C9433562C
:100030000C9433560C94E7560C9427570C94335673
:100040000C9433560C9433560C9433560C9433560C
:100050000C9433560C9433560C9433560C943356FC
:100060000C9433560C9433560C9433560C943356EC
:100070005A5501200101003808000000000000006E
:100080000000000000000000000000000000000070
:100090008100450027FF24FF2A902B1C210C22FB06
:1000A000850084008903888D81096F0244424700DE
:1000B0004501B083B300B10125118A4F8B03A260C3
:1000C000A560806489618161AE60B360B86072616F
:1000D000BB60BE60C160056100520952525252526B
:1000E00052525252070504030503030209525252A9
:1000F0000952525252525252050505040505030297
:100100000952095252520952095209520603050571
:100110000303030302090900000907070606060591
:1001200005035209060405050405050209520707DF
:1001300007050505060552520505030304040302DD
:1001400009520706060606060605520906050303B8
:1001500004050504020952000052070605030503C1
:1001600005030909060404050403030209520704F0
:1001700005030503050409520505040503030402EC
:100180000952060505040505050309520602030286
:1001900002030302020909000052060503050305D4
:1001A00003030909060505040505030209090605F7
:1001B00004050403030309520505050405050402AB
:1001C00009090604030304030303090906050503DB
:1001D0000405030502095200005206050505040541
:1001E00004030909050403040403020209090605BE
:1001F000050505050303095205040403040303026E
:100200000952060405050504050309520605030500
:100210000303030302090900005206060403040352
:1002200002020952050304030304030209520603F0
:10023000040302020303095205060505050503022E
:100240000909060504030405030309520503050310
:10025000030504030209090000520604050403050E
:1002600003020952050504050303030209520605AA
:1002700005040504030309520505030304030402EE
:1002800009090603030403030403095205040304D4
:1002900005030404020909000052060504050504CB
:1002A00003020952050303030404040209090603B7
:1002B00003020203020309090505050403040302FE
:1002C0000952060505030505030309520503040346
:1002D0000304030302095200005206060305030348
:1002E000020209520504050403030302095206052C
:1002F000030503050303095205060405040503026B
:100300000952060504030403040309520505030307
:100310000505040302095200005206040503040403
:10032000030209090504040405050402090906037A
:10033000040304030203090905050303030303027D
:100340000909050304050305040309520503030510
:1003500003030303020952000052060604050503C5
:1003600004020909050503040403030209520505F3
:10037000050505050303090905020202020202023E
:1003800009090504030304030303095205060503D1
:100390000505030502095200005206050302030287
:1003A00003020909050304030304020209520504B8
:1003B0000503040203030909520909090909090986
:1003C000090905050505050505020952050302028F
:1003D0000203020202095200005205030302020254
:1003E00002020909050505050505040209090505B7
:1003F0000405030504030952095252525252525243
:1004000052090503030403030402095B0505030500
:10041000030205050209520000525209090909099F
:10042000090909090504050403050302090905046E
:10043000040403030303095252095209525252524F
:1004400052520505040305050402095B0503030474
:1004500003040303020952000052525252525252F4
:1004600009090952050503030303030209090505E8
:10047000040405050403095B0606060606060405D2
:100480005252050302040203040209520505040343
:1004900003050503020909000052525252525252FA
:1004A000525252090502020202020202090905061D
:1004B000050503040303095B0605030304030303A3
:1004C000090905040505040505020952050303048D
:1004D000050303040209520000520707060605053A
:1004E000040352525209090909090909095205046C
:1004F000040304030303095206030505030505036A
:10050000090905050403050304020952050504034E
:100510000304040302095200000907050504050647
:1005200004030952525252090952525252520505BD
:100530000304030404020952060503050503050329
:100540000909050303040303030209090502020262
:1005500002020202020952000052060404050404C9
:100560000303095252525252525252520952050436
:1005700005050305030209520603040303020203EF
:100580000952050505040505040209525209090925
:100590000909090909095200005206050405050563
:1005A000030209520707060606060505525205050D
:1005B00003030504030209520605050405040503A7
:1005C0000952050302040202030209525252525216
:1005D0005252525252525200005206040504040371
:1005E0000202095207030503030505030952050426
:1005F000050403030302095206050305030503036B
:1006000009520505040204040202095252525252D0
:10061000525252525252520000520605040504052D
:1006200004020952060503050502030309520505E4
:10063000040505050302095206030503020303032B
:1006400009520504040305030302095207060606BE
:100650000606060605525200005206040303040370
:10066000030209520606050405050403095205059F
:1006700003040403040209520505040504040503E8
:100680000952050504050205050209520705030381
:10069000050202050209520000520605050505057E
:1006A00003020909060303040303020309090503FE
:1006B00004030304030209520504030304040303AF
:1006C0000952050303020403020209090605050392
:1006D0000205050202095200005206030504030345
:1006E0000402090906050504050503030952050569
:1006F00005030503040209090505050504050502AE
:100700000952050505040504050209090605030348
:100710000305030302095200005206050305040500
:100720000302090906030504030404030909050675
:100730000305030303020909050504040404030275
:10074000095205030302030303020909060505050F
:1007500005030505020952000052060404030303C1
:1007600002020952060404030403030309520503A9
:1007700005030205030209520503040503050502EA
:100780000952050505040504040209520603030382
:10079000030503030209520000520605050505047E
:1007A00003020952060505040504040309090502AC
:1007B0000202020202020909050503020403020201
:1007C000090905050303050303020952060503038E
:1007D0000503030502095200005206040503040440
:1007E00004020952060403040302030309525209D6
:1007F0000909090909090909050404050504040290
:10080000090905030504050405020952060202034D
:100810000203030202095200005206050304030307
:10082000030209520604050303040303095252524A
:1008300052525252090952520503040203020302A2
:10084000090905030304030303020952060503050E
:1008500005040404020952000052060304030403C1
:10086000040209090606030505030403095252524E
:10087000525B5252525252520505050405030502BD
:100880000952050504030305050209520603040283
:100890000302020302095200005206050505030582
:1008A00003020909060403040303020309520707AC
:1008B0000606060606055252050504040404040251
:1008C0000952050202020202020209090505030596
:1008D0000403040502095200005206030303040343
:1008E0000202095206050403040503030952070521
:1008F0000505030605030952050303050303030267
:1009000009520909090909090909095205030502DA
:100910000302030302095200005206050504030402
:100920000402095206040505050404020909060328
:100930000403050303030952050505040405040225
:100940000952525252090909095252520505040529
:1009500005050405020952000052060604030503BA
:1009600003020952050303040303030209520606A6
:1009700005050305040309520505030304040302E6
:10098000095209525252525252520952050303055A
:1009900003030203020909000052060503030303CF
:1009A0000302095205040503040204020952060564
:1009B00003030403030309090503040403030402F6
:1009C0000909070706060606060552090505040378
:1009D0000405050302095200005205030202020247
:1009E0000202095205050303030303020952060527
:1009F000050504050403095205050505040505025E
:100A000009520705040405050303095205040405FA
:100A1000030303050209520000525209090909099A
:100A2000090909520504050305050402090906041C
:100A3000030303040203095205030303050303022E
:100A40000909060505050303050309520505030306
:100A500003030303020952000052095252520909CA
:100A60000909525205050304030303020909060597
:100A700004050405030309520505050503050302E2
:100A80000952060303030503030309520503030583
:100A900005030503020952000052520952525252F4
:100AA0005252520905040504050404020909060509
:100AB00003030404030309520502020202020202B4
:100AC0000909060504030405040309520505040386
:100AD000030304050209090000520706060605057E
:100AE000050409520505050504020402095206041D
:100AF00004040303030309525209090909090909F6
:100B00000952060303040303030309520503030404
:100B10000504030302090900005207050503030445
:100B200003030952050304020204020209520605E6
:100B300004050505030309095252525252525252FA
:100B40005252060503050503050309520505040273
:100B500004030504020952000052070605050505B5
:100B6000030309520506030405050402095206049D
:100B700003030303030309525252525B5B52525266
:100B80005252060202030202020309520502020443
:100B900002020203020909000052070503030303CE
:100BA0000203095205030503030303020952050565
:100BB00005050405040309090606060606060605DA
:100BC00052520605040205050303095205050504F2
:100BD0000304050402090900005207060304050482
:100BE000030309520506040505040302095205031F
:100BF0000303030203030952070505050305050363
:100C00000952060302050302050309520503030303
:100C100004030203020952000052070505050405FA
:100C200003030952050405030305040209520503E1
:100C30000405040304030952060302030503020327
:100C40000909050504030405030209520503050308
:100C500003030404020952000052070504030303BE
:100C60000203095B050403050403020209090505E3
:100C700005040503020209520605050505050503DD
:100C8000095205020302030202020952050202028E
:100C9000020202020209520000520706030505047F
:100CA0000403095B050504030304030209090504A1
:100CB00003030302050209520603030303050303AA
:100CC00009520505050403040402095252090909E1
:100CD000090909090909090000520703040303036C
:100CE000020309520506050505050402095205031C
:100CF000050504050202095206050505050305035D
:100D00000952050402050202030209520952525215
:100D10005252090952095200005207060505030400
:100D200003030952050403050303030209520504E2
:100D30000303030203020952060504040305050325
:100D40000952050205020405040209525252525288
:100D500052525252525252000052060303030503EC
:100D6000020309520506050305050402095205059B
:100D700005030405050209520603030505040403DF
:100D8000525B050403050303030209520706060626
:100D9000060606060552520000090606040505056A
:100DA0000402095205050303030303020952050364
:100DB00003050302020209090605050405040503EB
:100DC000095205040503050405020952060503033B
:100DD0000503030302095200000906050504030484
:100DE000020209520502020202020202095205042D
:100DF0000504050503020952060304050303040361
:100E00000952050303030303030209520603050500
:100E10000305050302090900000906060505050585
:100E2000030209525209090909090909095205056C
:100E30000403040204020952060405050305050320
:100E400009520505040504050502095206040203BA
:100E500002040202020952000052060404030403C1
:100E600002020909525252520909525252520504C1
:100E700005040505020209520503030305030303E4
:100E800009520504030304030302090906050503C7
:100E90000505030502095200005206050505050572
:100EA000040209525209525252525209520905047F
:100EB000030403050502095205050405030505039E
:100EC00009090503050504030502090906020305CE
:100ED000040302020209520000520605030405033E
:100EE00003020952070706060605050552520505C5
:100EF0000505050402020952050304030503030363
:100F00000952050504030405030209090505050541
:100F100003050505020952000052060304030304F9
:100F20000202090907060503050305030952050323
:100F30000405030305020909050504040404040368
:100F40000952050303050303040209090503030409
:100F500003040303020952000052060605050505B5
:100F600003020952060303050305030209090504E8
:100F700003030402020209520504030404040303E8
:100F800009520504040303040302090905050403C7
:100F9000050305050209520000520504020302037D
:100FA0000402095206050505050503030952050556
:100FB000050505030502095205050405040504029B
:100FC0000952050305040504050209090503050482
:100FD0000303030302090900005205060505050580
:100FE0000302095206040405030202020952050223
:100FF0000302030403030952050303040403030269
:1010000009520504030304030302095205050303FF
:1010100005020205020952000052050503030403FC
:1010200004020952060503030505030209520505DA
:101030000303030303020952050504030304050225
:101040000909050504050503050209520503050301
:1010500003050303020952000052050303020202C2
:10106000020209520604050504030403095205029D
:1010700002020202020209520503040503050502E9
:101080000952050202020202020209520505040386
:10109000030305050209520000095209090909095B
:1010A0000909090906050403030403020952520948
:1010B00009090909090909090505030304030302CC
:1010C0000909520909090909090909520503020414
:1010D0000505020302095200005252A4F6ADADAD5F
:1010E000A4A45B5200000952A4F6ADADADADA4A41A
:1010F000A4A45B5200525B5B5B5B5B5B5B5B5B5B1B
:101100005B5B5B5B5B525252525252525252525292
:101110005252525252525200005252A4F6ADA4AD55
:10112000ADA45B5200090952A4F6A4A4A4A4ADA4E2
:10113000A4AD5252005BA4ADF6F6F6F6F6F6F6F65E
:10114000F6F6F6F6ADF6AD5B0952525BADADADAD60
:10115000ADADADA409525200005252A4F6ADA4A404
:10116000ADA45B5200000909A4F6A4A4A4AD5BA43D
:10117000ADA45B52005BADF6ADADADADADADADAD0B
:10118000ADADADADADA4AD5B005252ADF6F6F6F629
:10119000F6F6A45B00095200005252A4F6ADA4ADCD
:1011A000A4A45B5200090909A4F6ADA4ADA45B5B3D
:1011B000ADA45209005BF6F6ADA4A4ADA4ADA4A401
:1011C000ADA4ADA4ADA4AD5B005252ADF6ADADADD6
:1011D000ADAD5B0900095200005252A4ADA4ADA40C
:1011E000A45B525200000909A4F6A4ADA4ADA4A4C6
:1011F000A4AD5B0900A4F6F6ADA4ADA4ADA4ADA466
:10120000ADA4ADADA4ADA452000952ADF6ADADA4F0
:10121000ADA4520900095200005252A4ADADA4A4DD
:101220005B52520009000909A4F6ADA4ADA4A4AD17
:10123000A4A4520900A4F6ADA4ADA4A4ADA4ADA489
:10124000A4ADA4A4ADA4A452520052ADF6A4ADAD79
:10125000ADAD5B0900005200005252A4A45B5B528A
:101260005252090000090909A4ADADA4ADA4ADA472
:10127000A45B520000A4F6ADADA4ADA4A4ADA4AD92
:10128000A4A4ADADA45B5252520052A4F6ADAD5B26
:10129000A45B520900095200005252A4A45B5B52A5
:1012A0005252090009000909A4AD5B5B5B5B5B5B03
:1012B0005252090009A4F6ADA4ADADA4ADA4ADA4ED
:1012C000ADADA4ADA45B5252520009A4F6F6AD5BDD
:1012D000AD5B5B09000052000052520000000000AC
:1012E0000000000000090900A45B5B5B52525252EF
:1012F0005209090000A4F6A4ADA45BADA4AD5BAD9A
:10130000A4A4ADA4A45B52525200005BADF6A4AD00
:10131000A4A45209000052000052525252525209E3
:101320000009000909090909000909090909090948
:101330000909090052A4ADADA4ADADA4ADA4ADA4FE
:10134000AD5B52525252000000090052ADF6ADA4FE
:10135000A4AD5B090009520000525252525252523F
:101360005252520952525252000000000000000036
:101370000000000052525B095B5B525252525252C3
:10138000525200000000000909090952ADF6ADA44F
:10139000A4A45B090000520000F6F6F6F6FFFFFF7A
:1013A000F6ADA45B52525252525252525252090955
:1013B00009090909520000000000000000000000B7
:1013C000000000090909090909095252A4ADF65B98
:1013D000A4AD52090000520000F6F6F6F6ADF6F69E
:1013E000ADFFF6F6F6ADA45B52525252525252A4E1
:1013F000F6F6F6F6F6F6F6FFFFFFF6F6F6ADA45BA8
:101400005252520952525209520909095BADF6ADC6
:10141000ADAD5B090009090000F6F6F6ADA4ADA478
:10142000ADADA4ADF6F6F6F6F6A45B52525252F606
:10143000F6A4ADA4ADADADA4A4A4ADADF6F6F6F69C
:10144000FFFFFFFFF6F6ADA45B09090952ADF6A454
:10145000A4A452090000090000F6F6ADADADA4A4A5
:10146000A4A4ADA4A4A4ADA4ADADA4A45B0052F605
:10147000ADA4ADADA45BADA4ADA4AD5BA45BA4ADC8
:10148000A4ADA4A4ADA4ADA45B09000052ADF6AD1B
:10149000A4A45B090000090000F6ADF6A4ADADA45C
:1014A000ADADA4A4A4ADA4ADA4A4ADA4520909F605
:1014B000A4A4ADA4A4A4A4ADA4A4ADA4A4AD5BA411
:1014C000A4A4A4ADADA4A4AD5209000052ADF6A4ED
:1014D000AD5B5B090009090000F6F6ADADADA4AD4A
:1014E000A4A4A45BA4A4ADA4A4ADA45B520000F684
:1014F000A4ADA4ADADA45B5BADADA45BADA4ADAD3F
:10150000A4A4AD5BA4ADA4A45B09000909ADF6AD2C
:101510005BAD52090000090000F6F6F6A4ADADADD2
:10152000ADA45B5BA45BA4A4A4A4AD5B520900F6CC
:10153000A4ADADADA4ADA4A4ADA4A4ADA4A4ADA42C
:10154000A45BA4A4ADA4ADA45B09000009ADF6A4FE
:101550005B5B5B090009090000F6F6F6ADA4A4A4E4
:10156000A4A4A45BA4A4A4ADA45BAD5B520000AD95
:10157000ADA4A4A4ADA4ADADA4ADA4ADA4A4A4A4F5
:10158000ADA4A4A4A4ADA4A45209000009ADF6AD75
:10159000A4A452090000090000F6F6ADADADA4A464
:1015A000A4A4A4ADA4AD5BA4A4A4A45B520000AD0C
:1015B000A4A4AD5B5BA4A4A4ADA4ADA4A4ADA4AD50
:1015C000A4ADA4ADA4A4A45B5B09000909A4F6AD75
:1015D000AD5B5B090000090000F6F6F6ADA4A45B64
:1015E000A4A4ADA4A4A4A4AD5BA4AD52520000A4D5
:1015F000A4AD5252525B5B5B5B5B5B52525B5B5BCD
:101600005B5B5B5B525B5B5B5209000009A4F6A469
:101610005BA452090009090000F6F6F6ADADA4A4DA
:10162000A4A4A4A4ADA45BA4A4A45B525200005241
:1016300009000000000909525252525252525252AD
:1016400052525252525252525209000009A4F6AD5F
:10165000A4A45B090000090000F6ADADA4A4A4A4F5
:10166000A4A4ADA45BA4A4ADA4ADA45B090000092F
:101670005252525209000000000000000000000019
:1016800000000909090909090909000909A4F6A4C2
:10169000A4AD5B090000090000F6F6ADADADA4AD48
:1016A000A4ADA45BA4A4ADA4A4A45B52000000520A
:1016B0005252525252525252090009000000000088
:1016C000000000000000000000000000095BF6AD13
:1016D000A4A452090009090000F6F6F6ADADADA4C8
:1016E000ADA4ADA4ADA4A4ADA45B525B0000525B5D
:1016F0005BA4A4A4A4A4A45B5252525252090900B0
:10170000090000000000000000000009095BF6ADC0
:10171000ADAD5B090000090000F6F6A45B5BA452C6
:101720005B525B5BA45B52525BA45B520000525B5A
:10173000F6F6FFFFFFFFF6F6F6ADA45B52525252EB
:10174000520909000000000000000000095BF6AD2E
:10175000A4A452090000090000F6A45252525252A9
:10176000525B525B5252525B525B5252000052AD7E
:10177000FFF6ADA4A4ADADF6F6FFFFF6ADA4525250
:10178000525B5B5B5B5B520009000909095BADF6CC
:10179000ADAD5B0900090900000000000000000079
:1017A000000009090909095252525200000052ADC5
:1017B000F6A4A4ADA4A4A4ADADADADADF6ADA409A1
:1017C000525BF6F6F6ADF6ADADA4A452525BADF6A3
:1017D000A4A452090000090000090909090909091E
:1017E000000000000000000000000000000052ADFA
:1017F000F6ADADA4ADA4A4A4ADADADADADADA400AA
:10180000095BADF6F6F6F6F6F6F6A4525252ADF6D0
:10181000ADAD5B090000090000A4A4ADA452525272
:10182000520909090900090000000000000052F6F1
:10183000F6A4A4A4A4A4ADA4A4A4A4A4A4A45209FA
:10184000095BF6FFADADADF6F6AD5B095252ADF6F4
:10185000ADAD52090009090000ADF6F6ADAD5B5221
:10186000525252520909095252525209000952F673
:10187000ADAD5BADA45BA45BA4A4AD5BAD5B52005E
:10188000095BADFFF6A4A4ADA4AD5B090952ADF6AA
:10189000ADA45B090000090000ADADADA4A4A4A4F3
:1018A000520909525BADADADADADADA4A409A4F62E
:1018B000ADA4ADA45BA4ADA4ADA4A4A4A45B52004C
:1018C000095BF6FFADA4A4ADA4A45B000952ADADC5
:1018D0005B5B52090000090000F6A4A4A4ADA4AD0E
:1018E0005B090052ADADF6FFFFF6F6A45B52A4F61D
:1018F000F6A4ADA4A45B5B5BA45BA4A4AD520900F9
:10190000095BADFFF6A4A4A4ADA45B090952A4A48D
:101910005B5252090009090000F6ADADA4ADADADB2
:1019200009090052ADF6ADADA4ADAD5B0909A4F651
:10193000ADADA45B5BA45B5BADA4A4A4A45200000A
:10194000525BF6FFADA4ADA4A4AD5B00090952093A
:10195000000009090000090000F6A4A4ADA4A4A495
:101960000909005BF6F6ADA4A4ADA4A40900ADF688
:10197000F6A4A4A4A4ADA4AD5B5BA4A4AD520009DD
:10198000525BF6F6F6A4A4A4ADA45B090952525228
:10199000090900000009090000F6A4ADADA4ADA43A
:1019A0000909005BF6ADA4A4ADA45B5B0900ADF62C
:1019B000ADADA4ADA45B5BA45B5BADA4A452000081
:1019C000525BADF6ADA4A4A4A4AD5B0009095252CC
:1019D000525209000000090000F6A4A4ADA4ADA471
:1019E000090900A4FFA4A4ADADA45B090000A4F6FE
:1019F000F6A4ADA4A4A4A4ADA4ADA4A4A409000914
:101A0000095BF6FFADADA45BA45BAD5200090952C2
:101A1000525252525209090000F6A4ADADA4A4A43A
:101A2000090900ADF6ADA4A4A4AD5B090000A4F6BD
:101A3000ADA4A4A4ADA4ADA4ADA4ADA45B09000065
:101A4000525BADFFF6A4A4A4ADA4A45B520009525E
:101A5000ADF6F6AD0952520000ADA4A4A4ADADADF3
:101A6000090000A4F6A4A4ADADA45B090000A4F68F
:101A7000F6A4ADA4A4ADA4A45B5B5252520900002D
:101A8000525BF6F6ADADADA4A4A4AD5B520909520C
:101A9000F6ADADAD5252520000F6A4ADA45B5B5B57
:101AA000090909ADF6ADA4A4A4AD520900095BA4CF
:101AB0005B5B52525252525252525209090900096A
:101AC000525BADFFADADA4AD5BA4AD5B52000909A7
:101AD000F6ADADAD0909520000ADADA45B520909E8
:101AE000090000ADA4A4A4ADA4A452090000525B57
:101AF00052525252525209090909000000000000D6
:101B000052A4F6FFF6A4A4A45B5BA4A4520909099D
:101B1000A4F6ADAD5209520000A452525252090926
:101B2000000009A45B5B52525252520900000000AF
:101B30000000000000000000000009000909090978
:101B400052A4ADFFADA4A4A4A4A4A45B52000909AF
:101B50005BF6ADA45B0009000052090909090909F7
:101B60000000005B5209090909090909000909096E
:101B70000909090909090909095209525209525268
:101B800052A4F6FFADA4ADA4A4A45B5B5209090066
:101B900052F6AD52520009000000000000000000A3
:101BA00009525209000000000000000000005B5BC9
:101BB000A4A4A4A4A4A4A4A4A4A4A4A45B52525224
:101BC00052A4F6FFADADADADA4A4A45B52000909CB
:101BD00052F6ADA45B000900005209090909090980
:101BE00009525252520909090909095252A4ADF683
:101BF000F6FFFFFFFFFFF6F6F6F6F6F6AD095252D6
:101C000052ADF6F6ADADA4A4AD5BA45B52090909D3
:101C100052ADADA45B00090000525BA4A4A4A4A42F
:101C20005B525252520900525BADF6F6F6F6F6F6EA
:101C3000ADADADA4ADA4A4ADA4ADA4A45B095252B6
:101C40005BADFFF6A4ADA45BA4ADA45B520000099C
:101C50005252525B520009000052A4F6F6F6F6F614
:101C6000F6F6F6ADA4090052ADF6F6ADADADADA4F5
:101C7000A4A4ADADADADA4A4ADADA4AD5209525276
:101C80005BADFFF6A4A4A4A4ADA45B5B520900095C
:101C900052525252520909000052A4F6F6ADADADAF
:101CA000F6F6ADA45B090952F6F6ADA4ADADA4AD50
:101CB000A4ADA4A4A4ADADA4A4A4AD5209095252EC
:101CC0005BF6FFF6A45BA4A4A4A4A45B52000909DC
:101CD00052525BADF65252000052A4F6ADADA4AD27
:101CE000A4A4A45B5B090052F6ADA4A4A4A45B5B0E
:101CF0005B5252525252525252525252090952524D
:101D00005BADFFADA4A4A4ADA45BA45B5209000924
:101D100052ADF6ADA45252000052A4F6F6A4ADA402
:101D2000ADA4AD5B5209005252000000000000005B
:101D300000000000000000000000000009525252A4
:101D40005BF6FFADADA4A4A4ADA4AD5B5200090940
:101D500052F6A4A4A45200000052A4F6ADADA4A46F
:101D6000A4A4A45B52090900525252525252525238
:101D700052525252525252525252525209005252DE
:101D80005BADFFADA4AD5BA4A4A4A45B52000009AD
:101D900009F6ADADA45200000052A4F6F6A4A45B6F
:101DA000A4A4AD5252090052525BA4A4A4A4A4A4BA
:101DB0005B5200090952ADF6F6F6F6F6AD5B00523D
:101DC0005BF6FFF6ADADA4ADA4A4AD5B520009096E
:101DD00052F6ADA4AD52000000525BADF6ADA4AD1D
:101DE000A4A4A45B520900525BF6F6F6F6F6F6AD33
:101DF000F6A409000909F6A4A4ADADADAD52005298
:101E00005BADFFADA4A4A4A45BA4A45B5200000935
:101E100052F6A4ADAD52000000525BADF6ADA4A4E5
:101E20005BA4A45252090952A4F6F6ADADA4ADAD1F
:101E3000A45B09000952F6A4A4ADA4A4A4520052C4
:101E40005BADFFADA4A4A45BA4ADA45B52000909E3
:101E500052F6ADADA452000000525BADF6A4A45BF7
:101E6000A4A4A45209090052A4F6ADADA4ADA4A443
:101E7000AD5252000952ADADADA4ADADAD520009A9
:101E80005BF6FFADA4ADA45BA4A4AD5B520000095A
:101E900009F6A4ADA4520000005252A4F6A4ADA4C9
:101EA000A4A45B5209000952A4F6ADA4A4A4A4A45E
:101EB000A45252000952A4F6ADA4ADA4A452000944
:101EC0005BADFFF6ADA4ADA4A45BA45B5200090911
:101ED00052F6ADA4AD520000005252A4F6A4A4AD37
:101EE000ADA45B5209000952A4F6ADADA4ADA4ADFA
:101EF000A4525200095252F6A4ADA4ADA452000956
:101F00005BF6F6ADA4ADA45BADA4A45B52000009E2
:101F100052F6A4ADA4520000005252A4F6ADA4A4FF
:101F2000A4AD5B5209000952A4F6ADA4A4A4A4A4D4
:101F3000A4525200095252F6A4ADA4A4AD52000915
:101F40005BADF6ADADADADA4A4A4A45B5200090990
:101F500009F6ADA4A4520000005252A4F6A4A4AD08
:101F6000A4A4525209000952A4F6ADADA4ADA4AD8B
:101F7000A45B5200005252F6ADA4ADA4A4520009D5
:101F80005BF6F6F6A4A4A4A45BA4A45B520000092B
:101F900052ADA4ADAD520000005252A4F6ADA4ADB6
:101FA0005BAD525200000952A4F6ADA4A4A4A4A4AF
:101FB000A45B5200095252F6A4ADA4ADA45200098C
:101FC0005BADF6ADADA4ADA4A45BA45B5200090962
:101FD00052A4ADA4A4520000005252A4F6A4ADA491
:101FE000ADAD5B5209000952A4F6ADA45BA45B5BE6
:101FF000AD5B5200005252F6A4A4ADA4AD5200094C
:102000005BF6A45B5B5B5B5B5B5B5B5B5200090944
:10201000525BF6ADA4520000005252A4F6ADA45B90
:10202000ADA4525200000952A4F6ADA4A4A45B5B77
:10203000A45B5209000952A4A45252525252000900
:102040005B5B5B5252525252525252520000095242
:102050005252A45252520000005252A4F6A4A4AD0F
:102060005BAD5B5209000952A4F6ADA4A4A4A4A4DC
:10207000ADA4520900095209090909090909000911
:102080000909000009000900000000000909525276
:102090005252000000000000005252A4F6A4A4A472
:1020A000A4A4525200000909A4F6ADA4A4A4A4A4B7
:1020B000A4A452520009525252525252090909091B
:1020C00052525252090909090909090909095252CA
:1020D000525252525252520000520952375D5252DD
:1020E0005252525207050403050303020952525289
:1020F0000952525252525252050505040505030277
:102100000952095252520952095209520603050551
:1021100003030303020909000009073F36240A05E7
:1021200005035209060405050405050209520707BF
:1021300007050505060552520505030304040302BD
:102140000952070606060606060552090605030398
:102150000405050402095200005207062412050373
:1021600005030909060404050403030209520704D0
:1021700005030503050409520505040503030402CC
:102180000952060505040505050309520602030266
:10219000020303020209090000520605AD5B5BA4BD
:1021A000ADADF6F6ADADADADADADADADADADF6F63B
:1021B000F6ADADADADA4ADADADADADADADADADAD0F
:1021C000F6F6F6ADADADADADADADADADAD5B02020C
:1021D000020503050209520000520605AD5B5B5B78
:1021E0005BA4ADADF6F6F6ADADADADADADADF6F60D
:1021F000F6ADADADADA4ADADADADADADADADADADCF
:10220000F6F6F6ADADADADADADADADADADAD5B0220
:10221000020303030209090000520606AD5B5B0FCF
:10222000050202520203050404030303030303042B
:10223000040303030302020303030303030303046E
:102240000405040404040303030303035BADAD525C
:10225000020204030209090000520604AD5B5B059B
:10226000F6A4A45B5BA4ADADF6F6F6F6ADADF6F65E
:10227000F6ADADADADA4ADADADADADADADADADAD4E
:10228000F6F6F6ADADADADADADADA45B035BAD5B4C
:10229000020304040209090000520605AD5BA40212
:1022A000A4F6ADA4A4A4A4A4ADADF6F6F6F6ADF6DE
:1022B000A4A442424242425BA4ADADADADADADADD2
:1022C000F6F6F6ADADADADADADADADAD5B03ADAD5F
:1022D000520203030209520000520606AD5BA4023B
:1022E0005BA4F6ADADA4A4A4A4ADAD5B4243434250
:1022F0005BA44242424242425BADA442425BA4AD77
:10230000F6F6F6ADADADADADADADADADA403A4ADDE
:102310005B0202030209520000520604AD5BA452A4
:10232000025BA4F6ADADA4A4A4A4A44242424343DC
:10233000425B52424242424242A4A4424242425B77
:10234000ADADADADADADADADADADADADAD035BADB9
:10235000AD0202030209520000520606AD5BA4035F
:102360005BA45BA4F6AD5B4242525B5B42424242DD
:1023700043525B424242424242A45B424242424298
:102380005BADADADADADADADADADADADAD5B03ADCB
:10239000AD0202050209520000520605AD5BA4031E
:1023A000ADA45B5BA45B4343424252525242424261
:1023B00042425B424242424242A442424242424282
:1023C00042A4ADADADADADADADADADADADA403AD64
:1023D000AD5202020209520000520503AD5BA40394
:1023E000F6ADA45B5B4243434342425252424242F7
:1023F00042425B424242424242A442424242424242
:1024000042A4ADADADADADADADADADADADAD03A423
:10241000AD5B02020209520000525209AD5BA403F7
:10242000F6ADA4A45B5B5243434342525242424244
:1024300042425B4242424242525B4242424242423A
:1024400042A4AD5B15ADA41513ADADADADAD035B51
:10245000ADAD02020209090000525252AD5BA40365
:10246000F6A45242525B5B4243434342520942420A
:1024700042425B42424242425B424242424242420A
:102480005BA4A415155B15135BADADADADAD5B03E2
:10249000ADAD52020209090000525252AD5BA403D5
:1024A000F65B424242525B524343434352524242E2
:1024B00042425242424242425B4242424242425BBA
:1024C0004242A415155B1513A4ADADADADADA4038B
:1024D000A4AD5B020209090000520707AD5BA4032B
:1024E000ADAD5B424242525B4243434343524242A0
:1024F00042425242424242524242424242425B4283
:102500004242425B151315A4ADADADADADADAD030B
:102510005BADAD020209090000090705AD5BA4032C
:10252000ADF6AD42424242525242434343524242CE
:10253000424252424242425B42424242425B424239
:10254000424242AD151515151515A4ADADADAD5BE7
:1025500003ADAD020209090000520604AD5BA403FD
:10256000ADF6F65B4242420952424242435B42426E
:102570004242094242424242424242425B4242425B
:10258000424242AD15151515131315ADADADADA4F1
:1025900003A4AD520909090000520605AD5BA4036E
:1025A000ADADF6AD42424242094243844242848488
:1025B00043424242424252424242425B42424242D1
:1025C0004242A4AD15151513ADADADADADADADAD7C
:1025D000035BAD5B0909090000520604AD5BA4036F
:1025E000ADADF6F65B424242424242428442424232
:1025F000424342424242424242425B4242424242A1
:1026000042A4ADAD151515ADADAD425BADADADADF3
:102610005B03ADAD0909090000520605AD5BA403DB
:10262000ADADF6F6AD42844342424242424242429E
:102630004242424242424242425B42424242424261
:10264000A4ADAD5B151315A4AD5B4252ADADADAD00
:10265000A403A4AD5209090000520604AD5BA40313
:10266000ADADADF6AD4242424242424242424242EA
:1026700042428442424242425B4242424242A4427D
:102680004284AD1515131513AD5242425BADADAD8D
:10269000AD035BAD5B09090000520605AD5BA40309
:1026A000ADADADF6AD5B4242424242424242424291
:1026B0004242428442424252424242425BA442422D
:1026C00042425B42135B15155B42424252ADADADD7
:1026D000AD5B03ADAD09090000520603AD5BA40379
:1026E000ADADADF6ADA442424242A44242424242A6
:1026F00042424243424252424242425BA44242422E
:102700004242424213ADADAD5242424242ADADAD46
:10271000ADA403ADAD09090000520605AD5BA403ED
:10272000ADADADF6ADAD5B4242A442424242424243
:102730004242424242424242424242425B42424260
:102740004242424242ADAD5B4242424242ADADAD39
:10275000ADAD03A4AD52090000520604AD5BA40365
:10276000ADADADADADADA44252AD5B4242424242D1
:1027700042424242424242424242425B4242424220
:102780004242424242ADAD42424242425BADADADF9
:10279000ADAD035BAD5B090000520605AD5BA40364
:1027A000ADADADADADADADADADADADAD5B424242EC
:1027B00042424242424242424242424242424242F9
:1027C000424242425BAD42424242425BADADADADA0
:1027D000ADAD5B03ADAD090000520604AD5BA403D3
:1027E000ADADAD42425BADADAD5B42AD5B42424291
:1027F000525B5B525B525B52424242424242424215
:1028000042424242AD424242424242AD5B425BAD35
:10281000ADADA403A4AD090000520605AD5BA40351
:10282000ADADAD5B4242424242424242424242422E
:10283000524384438443525B4242424242424242B8
:10284000425B42424242424242425B424242425B1D
:10285000ADADAD035BAD520000520603AD5BA4030A
:10286000ADADAD52424242424242424242424242F7
:102870005B8443434384435B52424242424242426E
:102880004242424242424242424242424242424228
:102890005BADAD5B03AD5B0000520605AD5BA40311
:1028A000ADADAD42424242424242424242424242C7
:1028B0005B434343435252525B4242424242424292
:1028C00042424242424242424242424242424242E8
:1028D000425BADA403ADAD0000520603AD5BA403A3
:1028E000ADADAD4242424242424242424242424287
:1028F0005B434343434343525B4242424242424270
:1029000042424242424242424242424242424242A7
:10291000425BADA403ADAD0000520605AD5BA40360
:10292000ADADAD425B42424242424242424242422D
:102930005B8443434384435B5242424242424242AD
:102940004242424242424242424242424242424267
:102950005BADAD5B03AD5B0000520606AD5BA4034F
:10296000ADADAD4242424242424242424242424206
:10297000524384438443525B424242424242424277
:10298000425B42424242424242425B424242425BDC
:10299000ADADAD035BAD520000520605AD5BA403C7
:1029A000ADADAD151515A4ADAD5B42AD5B42424278
:1029B000525B5B525B525B52424242424242424253
:1029C00042424242AD424242424242AD5B425BAD74
:1029D000ADADA403A4AD090000520503AD5BA40393
:1029E000ADADAD1E15A4ADADADADADAD5B424242DA
:1029F00042424242424242424242424242424242B7
:102A0000424242425BAD42424242425BADADADAD5D
:102A1000ADAD5B03ADAD090000525209AD5BA4033F
:102A2000ADADAD1F1EADA44252AD5B42424242422B
:102A300042424242424242424242425B424242425D
:102A40004242424242ADAD42424242425BADADAD36
:102A5000ADAD035BAD5B090000520952AD5BA40351
:102A6000ADADADAD27AD5B4342A4424242424242CE
:102A70004242424242424242424242425B4242421D
:102A80004242424242ADAD5B4242424242ADADADF6
:102A9000ADAD03A4AD52090000525209AD5BA403D1
:102AA000ADADADADADA443434242A4424242424229
:102AB00042424243424252424242425BA44242426A
:102AC0004242424213ADADAD5242424242ADADAD83
:102AD000ADA403ADAD09090000520706AD5BA40328
:102AE000ADADADADAD5B4342424242424242424295
:102AF0004242428442424252424242425BA44242E9
:102B000042425B42135B15155B42424252ADADAD92
:102B1000AD5B03AD5B09090000520705AD5BA40383
:102B2000ADADADADAD43424242424242424242426D
:102B300042428442424242425B4242424242A442B8
:102B40004284AD1515131513AD5242425BADADADC8
:102B5000AD035BAD5209090000520706AD5BA4034B
:102B6000ADADADF6A44384434242424242424242AA
:102B70004242424242424242425B4242424242421C
:102B8000A4ADAD5B151315A4AD5B4252ADADADADBB
:102B9000A403A4AD0209090000520705AD5BA4031C
:102BA000ADADADF65B4242424242424243424242F6
:102BB000428442424242424242425B42424242429A
:102BC00042A4ADAD151515ADADAD425BADADADAD2E
:102BD0005B03ADAD0209090000520706AD5BA4031B
:102BE000ADADF6A44342424209424243424284848C
:102BF00084424242424252424242425B424242424A
:102C00004242A4AD15151513ADADADADADADADAD35
:102C1000035BAD5B0209090000520705AD5BA4032D
:102C2000ADADF65B424242095242424242524242FA
:102C30004242524242424242424242425B4242424B
:102C4000424242AD15151515131315ADADADADA42A
:102C500003A4AD520209090000520705AD5BA403AD
:102C6000ADADA4434242425252424242435B4242D1
:102C7000424252424242425B42424242425B4242F2
:102C8000424242AD151515151515A4ADADADAD5BA0
:102C900003ADAD020209090000520706AD5BA403B3
:102CA000ADA45B424242525B4242424343A4424291
:102CB00042425242424242524242424242425B42BB
:102CC0004242425B151315A4ADADADADADADAD0344
:102CD0005BADAD090909090000520703AD5BA40310
:102CE000F643434242525B5242424343525B4242AA
:102CF00042425242424242425B4242424242425B72
:102D00004242A415155B1513A4ADADADADADA40342
:102D1000A4AD5B090909090000520706AD5BA403D5
:102D2000F65B4242525B524242434343A452424208
:102D300042420942424242425B4242424242424293
:102D40005BA4A415155B15135BADADADADAD5B0319
:102D5000ADAD52090909090000520603AD5BA40597
:102D6000F6F6A4A4A45B4343434343525B4242426E
:102D70004242524242424242525B424242424242FA
:102D800042A4AD5B15ADA41513ADADADADAD035B08
:102D9000ADAD02020209090000090606AD5BA405FB
:102DA000F6ADADA4A44243434343435B5B4242427E
:102DB000424252424242424242A442424242424281
:102DC00042A4ADADF6ADADADADADADADADAD03A411
:102DD000AD5B02020209520000090605AD5BA407C3
:102DE000F6ADADA4A45B43434343525B524242421F
:102DF000424252424242424242A442424242424241
:102E000042A4ADADF6ADADADADADADADADA403ADD0
:102E1000AD5202020209520000090606AD5BA4078A
:102E20005BADA4A4ADAD5B4343525B524242424210
:102E300042525B424242424242A45B4242424242CE
:102E40005BADADF6F6F6ADADADADADADADA403ADDC
:102E5000AD0202020209520000520604AD5BA45BFF
:102E600002ADA4ADF6F6ADA4A4A45B524242424228
:102E7000425B52424243434342A4A4424242425B29
:102E8000ADADADF6F6F6ADADADADADADAD03A4AD4A
:102E90005B0202050209520000520605AD5BA40266
:102EA0005B5BADF6F6ADA4A45B5BA45B4242424221
:102EB0005BA44343434343425BADA442425BA4ADA6
:102EC000ADADADF6F6F6ADADADADADADA403A4AD13
:102ED000520202020209520000520605AD5BA40232
:102EE0005BADF6F6ADA45B5BA4A4A4A4A4ADADA4B5
:102EF000A4A443434343425BA4ADA4A4A4A4ADADA6
:102F0000ADADF6F6F6F6F6ADADADADAD5B03ADAD80
:102F1000020202050209520000520603AD5B5B0289
:102F2000A4F65B5B5B5BA4A4A4A4ADADADADADADFD
:102F3000ADADF6F6F6F6ADADADADA4A4A4A4ADADC1
:102F4000ADADF6F6F6F6F6ADADADA45B035BAD5BED
:102F5000020203030209520000520606AD5B5B5BEE
:102F60000F050252020203030303030303030303D7
:102F7000030404040404030303030202020303031F
:102F80000303040404040403030303035BA4AD521A
:102F9000020205050209520000520504AD5B5BF612
:102FA0005B5B5BA4A4ADADADADADADADADADADAD59
:102FB000ADADF6F6F6F6ADADADADA4A4A4A4ADAD41
:102FC000ADADF6F6F6F6F6ADADADADADADAD5B02C1
:102FD000020303030209090000520506AD5B5B5BB7
:102FE0005B5BA4ADADADADADADADADADADADADADBE
:102FF000ADADF6F6F6F6ADADADADA4A4A4A4ADAD01
:10300000ADADF6F6F6F6F6ADADADADADAD5B02022B
:10301000020202050209520000520505361B020297
:103020000202090902020202020202020909020264
:103030000202020202020909020202020202020262
:103040000909020202020202020209090202020244
:1030500003050303020952000052053F36675D0273
:103060000202090902020202020202020909020224
:103070000202020202020909020202020202020222
:103080000909020202020202020209090202020303
:103090000303050502095200000952091B12090920
:1030A00009090909060504030304030209090909BA
:1030B00009090909090909090505030304030302AC
:1030C0000909090909090909090909090503020486
:1030D0000505020302095200C7C7C7C7C7C7C7C74C
:1030E000C7C7C7C7C7C7C7C7C7C7C7C7C7C7C7C770
:1030F000C7C7C7C7C7C7C7C7C7C7C7C7C7C7C7C760
:10310000C7C7C7C7C7C7C7C7C7C7C7C7C7C7C7C74F
:10311000C7C7C7C7C7C7C7C7C7C7C7C7C7C7C7C73F
:1040D000C7C7C7C7C7C7C7C70000000000000000A8
:1040E00000000000000000000000000000000000D0
:1040F0003F3F3F3F3F3F3F3F3F3F3F3F3F3F3F3FD0
:104100003F3F3F3F3F3F3F3F0000000000000000B7
:10411000000000000000000000000000000000009F
:104120003F3F3F3F3F3F3F3F3F3F3F3F3F3F3F3F9F
:104130003F3F3F3F3F3F3F3F000000000000000087
:10414000000000000000000000000000000000006F
:10415000203F3F3F3F3F3F3F3F3F3F3F3F3F3F3F8E
:104160003F3F3F3F3F3F3F3F000000000000000057
:104170000000000000000000000000000000000A35
:10418000203F3F3F3F3F3F3F3F3F3F3F3F3F3F3F5E
:104190003F3F3F3F3F3F3F3F000000000000000027
:1041A00000000000000000000000000000000010FF
:1041B00020303F3F3F3F3F3F3F3F3F3F3F3F3F3F3D
:1041C0003F3F3F3F3F3F3F3F0000000000000000F7
:1041D00000000000000000000000000000000613C6
:1041E000202C3F3F3F3F3F3F3F3F3F3F3F3F3F3F11
:1041F0003F3F3F3F3F3F3F3F0000000000000000C7
:1042000000000000000000000000000000000A158F
:10421000202A353F3F3F3F3F3F3F3F3F3F3F3F3FEC
:104220003F3F3F3F3F3F3F3F000000000000000096
:1042300000000000000000000000000000040D1657
:104240002029323F3F3F3F3F3F3F3F3F3F3F3F3FC0
:104250003F3F3F3F3F3F3F3F000000000000000066
:10426000000000000000000000000000000810181E
:10427000202830383F3F3F3F3F3F3F3F3F3F3F3F9A
:104280003F3F3F3F3F3F3F3F000000000000000036
:10429000000000000000000000000000030A1118E8
:1042A00020272E353F3F3F3F3F3F3F3F3F3F3F3F70
:1042B0003F3F3F3F3F3F3F3F000000000000000006
:1042C000000000000000000000000000060C1319B0
:1042D00020262C33393F3F3F3F3F3F3F3F3F3F3F4B
:1042E0003F3F3F3F3F3F3F3F0000000000000000D6
:1042F000000000000000000000000002080E141A78
:1043000020252B31373F3F3F3F3F3F3F3F3F3F3F20
:104310003F3F3F3F3F3F3F3F0000000000000000A5
:104320000000000000000000000000050A10151A3F
:1043300020252A30353A3F3F3F3F3F3F3F3F3F3FF9
:104340003F3F3F3F3F3F3F3F000000000000000075
:104350000000000000000000000002070C11161B06
:104360002024292E33383F3F3F3F3F3F3F3F3F3FD1
:104370003F3F3F3F3F3F3F3F000000000000000045
:104380000000000000000000000004090D12161BD0
:104390002024292D32363B3F3F3F3F3F3F3F3F3FA9
:1043A0003F3F3F3F3F3F3F3F000000000000000015
:1043B00000000000000000000002060A0E13171B98
:1043C0002024282C3135393F3F3F3F3F3F3F3F3F7F
:1043D0003F3F3F3F3F3F3F3F0000000000000000E5
:1043E00000000000000000000004080C1014181C5D
:1043F0002024282C3034383C3F3F3F3F3F3F3F3F55
:104400003F3F3F3F3F3F3F3F0000000000000000B4
:1044100000000000000000000105090D1014181C28
:104420002023272B2F32363A3F3F3F3F3F3F3F3F2E
:104430003F3F3F3F3F3F3F3F000000000000000084
:10444000000000000000000003070A0E1115181CF0
:104450002023272A2E3135383C3F3F3F3F3F3F3F07
:104460003F3F3F3F3F3F3F3F000000000000000054
:10447000000000000000000105080B0F1215191CB8
:104480002023262A2D3034373A3F3F3F3F3F3F3FDE
:104490003F3F3F3F3F3F3F3F000000000000000024
:1044A000000000000000000306090C101316191C80
:1044B000202326292C303336393C3F3F3F3F3F3FB6
:1044C0003F3F3F3F3F3F3F3F0000000000000000F4
:1044D0000000000000000104070A0D101316191C4B
:1044E000202326292C2F3235383B3F3F3F3F3F3F8B
:1044F0003F3F3F3F3F3F3F3F0000000000000000C4
:104500000000000000000205080B0E1114171A1D10
:10451000202225282B2E3134373A3D3F3F3F3F3F65
:104520003F3F3F3F3F3F3F3F000000000000000093
:104530000000000000010406090C0F1214171A1DD8
:10454000202225282B2D303336393B3F3F3F3F3F3C
:104550003F3F3F3F3F3F3F3F000000000000000063
:1045600000000000000205080A0D101215181A1D9F
:10457000202225282A2D303235383A3D3F3F3F3F13
:104580003F3F3F3F3F3F3F3F000000000000000033
:1045900000000000010306080B0E101315181A1D69
:1045A000202225272A2C2F313437393C3F3F3F3FEB
:1045B0003F3F3F3F3F3F3F3F000000000000000003
:1045C00000000000020407090C0E111316181B1D31
:1045D00020222427292C2E313336383B3D3F3F3FC4
:1045E0003F3F3F3F3F3F3F3F0000000000000000D3
:1045F000000000010305080A0D0F111416181B1DF9
:1046000020222427292B2E303235373A3C3F3F3F9A
:104610003F3F3F3F3F3F3F3F0000000000000000A2
:10462000000000020406090B0D10121416191B1DC0
:1046300020222426292B2D30323436393B3D3F3F72
:104640003F3F3F3F3F3F3F3F000000000000000072
:10465000000001030507090C0E10121417191B1D89
:1046600020222426282B2D2F313336383A3C3F3F49
:104670003F3F3F3F3F3F3F3F000000000000000042
:104680000000020406080A0C0E11131517191B1D51
:1046900020222426282A2C2E31333537393B3D3F22
:1046A0003F3F3F3F3F3F3F3F000000000000000012
:1046B0000001030507090B0D0F11131517191B1D19
:1046C00020222426282A2C2E30323436383A3C3FF9
:1046D0003F3F3F3F3F3F3F3F0000000000000000E2
:1046E00000020406080A0C0E10121416181A1C1EDA
:1046F00020222426282A2C2E30323436383A3C3ECA
:104700003F3F3F3F3F3F3F3F0000000000000000B1
:1047100000020406080A0C0E10121416181A1C1EA9
:104720002021232527292B2D2F31333537393B3DA8
:104730003F3F3F3F3F3F3F3F000000000000000081
:1047400001030507090B0D0F10121416181A1C1E71
:104750002021232527292B2D2F30323436383A3C7F
:104760003E3F3F3F3F3F3F3F000000000000000052
:10477000020406080A0B0D0F11131516181A1C1E39
:104780002021232527292A2C2E3032343537393B56
:104790003D3F3F3F3F3F3F3F000000000000000122
:1047A000030507080A0C0E1011131517181A1C1E02
:1047B0002021232527282A2C2E3031333537383A2B
:1047C0003C3E3F3F3F3F3F3F0000000000000002F3
:1047D000040607090B0C0E1012131517191A1C1ECC
:1047E0002021232526282A2C2D2F31333436383901
:1047F0003B3D3F3F3F3F3F3F0000000000000103C3
:104800000506080A0B0D0F1012141517191A1C1E95
:104810002021232526282A2B2D2F303234353739D5
:104820003A3C3E3F3F3F3F3F000000000000020493
:104830000507090A0C0D0F1112141617191B1C1E5F
:10484000202123242628292B2D2E303233353638AB
:104850003A3B3D3F3F3F3F3F000000000001030463
:104860000608090B0C0E101113141618191B1C1E28
:10487000202123242628292B2C2E3031333436387E
:10488000393B3C3E3F3F3F3F000000000002030534
:1048900007080A0B0D0E101113151618191B1C1EF4
:1048A000202123242627292A2C2E2F313234353754
:1048B000383A3C3D3F3F3F3F000000000103040603
:1048C00007090A0C0D0F101213151618191B1C1EC0
:1048D000202123242627292A2C2D2F303233353628
:1048E00038393B3C3E3F3F3F0000000002030506D5
:1048F00008090B0C0E0F1112141517181A1B1D1E88
:10490000202122242527282A2B2D2E3031333436FE
:1049100037393A3C3D3F3F3F0000000102040507A4
:10492000080A0B0D0E101112141517181A1B1D1E54
:10493000202122242527282A2B2D2E3031323435D0
:1049400037383A3B3D3E3F3F000000020304060774
:10495000090A0C0D0E101113141617181A1B1D1E20
:1049600020212224252728292B2C2E2F31323335A4
:104970003638393B3C3D3F3F000001020405060844
:10498000090B0C0D0F101213141617191A1B1D1EEC
:1049900020212224252628292B2C2D2F3032333478
:1049A0003637393A3B3D3E3F000002030406070814
:1049B0000A0B0C0E0F111213151617191A1B1D1EB8
:1049C00020212224252628292A2C2D2E303133344B
:1049D000353738393B3C3D3F0001020405060809E4
:1049E0000A0C0D0E10111214151618191A1C1D1E82
:1049F00020212224252628292A2C2D2E303132341C
:104A0000353638393A3C3D3F0001030405070809B3
:104A10000B0C0D0F10111214151618191A1C1D1E4F
:104A200020212223252627292A2B2D2E2F303233F1
:104A3000343637383A3B3C3F010203050607080A83
:104A40000B0C0E0F10111314151718191A1C1D1E1C
:104A500020212223252627282A2B2C2E2F303133C4
:104A600034353738393A3C3F010304050608090A52
:104A70000B0D0E0F10121314151718191A1C1D1EEA
:104A800020212223252627282A2B2C2D2F30313296
:104A900034353637393A3B3F020304060708090B21
:104AA0000C0D0E1011121314161718191B1C1D1EB5
:104AB0002021222324262728292B2C2D2E30313269
:104AC0003334363738393B3F0304050607090A0BF0
:104AD0000C0D0F1011121315161718191B1C1D1E83
:104AE0002021222324262728292A2C2D2E2F30323C
:104AF0003334353638393A3F0304050708090A0BC1
:104B00000D0E0F10111214151617181A1B1C1D1E4E
:104B10002021222324252728292A2B2D2E2F30310E
:104B20003234353637383A3F0405060708090B0C8E
:104B30000D0E0F10121314151617191A1B1C1D1E1B
:104B40002021222324252628292A2B2C2D2F3031E1
:104B5000323334363738393F04050608090A0B0C5E
:104B60000D0E1011121314151618191A1B1C1D1EE8
:104B70002021222324252628292A2B2C2D2E3031B2
:104B8000323334353638393F05060708090A0B0C2D
:104B90000E0F1011121314151718191A1B1C1D1EB5
:104BA0002021222324252627282A2B2C2D2E2F3086
:104BB000313334353637383F05060708090B0C0DFD
:104BC0000E0F1011121314161718191A1B1C1D1E84
:104BD000202122232425262728292B2C2D2E2F3057
:104BE000313233343637383F050708090A0B0C0DCC
:104BF0000E0F1011121415161718191A1B1C1D1E52
:104C0000202122232425262728292A2B2D2E2F3028
:104C1000313233343536373F060708090A0B0C0D9D
:104C20000E101112131415161718191A1B1C1D1E1D
:104C3000202122232425262728292A2B2C2D2E30FB
:104C4000313233343536373F060708090B0C0D0E69
:104C50000F101112131415161718191A1B1C1D1EEC
:104C6000202122232425262728292A2B2C2D2E2FCC
:104C7000303132333436373F0708090A0B0C0D0E3A
:104C80000F101112131415161718191A1B1C1D1EBC
:104C9000202122232425262728292A2B2C2D2E2F9C
:104CA000303132333435363F0708090A0B0C0D0E0C
:104CB0000F101112131415161718191A1B1C1D1E8C
:104CC000202122232425262728292A2B2C2D2E2F6C
:104CD000303132333435363F08090A0B0C0D0E0FD4
:104CE000101112131415161718191A1B1C1D1E1F4C
:104CF000202122232425262728292A2B2C2D2E2F3C
:104D0000303132333435363F08090A0B0C0D0E0FA3
:104D1000101112131415161718191A1B1C1D1E1F1B
:104D200020202122232425262728292A2B2C2D2E1A
:104D30002F3031323334353F08090A0B0C0D0E0F7A
:104D4000101112131415161718191A1B1C1D1E1FEB
:104D500020202122232425262728292A2B2C2D2EEA
:104D60002F3031323334353F090A0A0B0C0D0E0F48
:104D7000101112131415161718191A1B1C1D1E1FBB
:104D800020202122232425262728292A2B2C2D2EBA
:104D90002F3031323334353F090A0B0C0D0E0F1012
:104DA000101112131415161718191A1B1C1D1E1F8B
:104DB00020202122232425262728292A2B2C2D2E8A
:104DC0002F3030313233343F090A0B0C0D0E0F10E7
:104DD000111213131415161718191A1B1C1D1E1F58
:104DE00020202122232425262728292A2B2C2C2D5C
:104DF0002E2F30313233343F0A0A0B0C0D0E0F10B8
:104E0000111213141515161718191A1B1C1D1E1F25
:104E100020202122232425262728292A2A2B2C2D2D
:104E20002E2F30313233343F0A0B0C0D0D0E0F1084
:104E3000111213141516161718191A1B1C1D1E1FF4
:104E40002020212223242526272829292A2B2C2DFE
:104E50002E2F30313232333F0A0B0C0D0E0F101053
:104E6000111213141516171818191A1B1C1D1E1FC2
:104E70002020212223242526272828292A2B2C2DCF
:104E80002E2F30303132333F0A0B0C0D0E0F101124
:104E9000111213141516171818191A1B1C1D1E1F92
:104EA0002020212223242526272728292A2B2C2DA0
:104EB0002E2E2F303132333F0B0C0C0D0E0F1011F4
:104EC000121313141516171819191A1B1C1D1E1F5F
:104ED0002020212223242526262728292A2B2C2C72
:104EE0002D2E2F303132333F0B0C0D0E0E0F1011C3
:104EF0001213141415161718191A1A1B1C1D1E1F2D
:104F00002020212223242525262728292A2B2B2C43
:104F10002D2E2F303131323F0B0C0D0E0F10101192
:104F20001213141515161718191A1A1B1C1D1E1FFB
:104F30002020212223242525262728292A2A2B2C14
:104F40002D2E2F303031323F0C0C0D0E0F10111161
:104F50001213141516161718191A1B1B1C1D1E1FC9
:104F6000202021222324242526272829292A2B2CE6
:104F70002D2E2E2F3031323F0C0D0D0E0F10111231
:104F80001213141516161718191A1B1B1C1D1E1F99
:104F9000202021222324242526272829292A2B2CB6
:104FA0002D2D2E2F3031323F0C0D0E0E0F10111201
:104FB0001313141516171718191A1B1B1C1D1E1F67
:104FC000202021222324242526272828292A2B2C87
:104FD0002C2D2E2F3031313F0C0D0E0F10101112D1
:104FE0001314141516171818191A1B1C1C1D1E1F34
:104FF000202021222324242526272828292A2B2C57
:105000002C2D2E2F3030313F0D0D0E0F10101112A0
:105010001314141516171818191A1B1C1C1D1E1F03
:10502000202021222323242526272728292A2B2B29
:105030002C2D2E2F2F30313F0D0E0E0F101111126F
:105040001314151516171818191A1B1C1C1D1E1FD2
:10505000202021222323242526272728292A2A2BFA
:105060002C2D2E2E2F30313F0D0E0F0F101112123E
:105070001314151516171819191A1B1C1C1D1E1FA1
:10508000202021222323242526262728292A2A2BCB
:105090002C2D2D2E2F30303F0D0E0F10101112130E
:1050A0001314151616171819191A1B1C1C1D1E1F70
:1050B00020202122232324252626272829292A2B9C
:1050C0002C2C2D2E2F30303F0D0E0F1010111213DF
:1050D0001314151616171819191A1B1C1C1D1E1F40
:1050E00020202122232324252626272829292A2B6C
:1050F0002C2C2D2E2F2F303F0E0E0F1011111213AE
:1051000014141516171718191A1A1B1C1D1D1E1F0B
:1051100020202122222324252526272828292A2B3E
:105120002B2C2D2E2E2F303F0E0F0F10111212137D
:1051300014141516171718191A1A1B1C1D1D1E1FDB
:1051400020202122222324252526272828292A2B0E
:105150002B2C2D2D2E2F303F0E0F1010111212134D
:1051600014151516171818191A1A1B1C1D1D1E1FA9
:1051700020202122222324252526272828292A2ADF
:105180002B2C2D2D2E2F303F0E0F1010111213131C
:1051900014151516171818191A1A1B1C1D1D1E1F79
:1051A00020202122222324252526272728292A2AB0
:1051B0002B2C2C2D2E2F2F3F0E0F101111121313ED
:1051C00014151616171818191A1B1B1C1D1D1E1F47
:1051D0002020212222232424252627272829292A82
:1051E0002B2C2C2D2E2E2F3F0F0F101111121314BC
:1051F00014151616171818191A1B1B1C1D1D1E1F17
:105200002020212222232424252627272829292A51
:105210002B2B2C2D2E2E2F3F0F101011121213148A
:1052200014151616171819191A1B1B1C1D1D1E1FE5
:105230002020212222232424252626272829292A22
:105240002B2B2C2D2D2E2F3F0F101011121213145B
:1052500014151617171819191A1B1B1C1D1D1E1FB4
:105260002020212222232424252626272828292AF3
:105270002B2B2C2D2D2E2F3F0F1011111213131429
:1052800015151617171819191A1B1B1C1D1D1E1F83
:105290002020212222232424252626272828292AC3
:1052A0002A2B2C2C2D2E2E3F0F10111112131314FC
:1052B00015151617171819191A1B1B1C1D1D1E1F53
:1052C0002020212222232424252626272828292A93
:1052D0002A2B2C2C2D2E2E3F1010111212131414C9
:1052E000151616171818191A1A1B1C1C1D1E1E1F1E
:1052F0002020212222232424252626272828292A63
:105300002A2B2C2C2D2E2E3F101011121213141498
:10531000151616171818191A1A1B1C1C1D1E1E1FED
:105320002020212122232324252526272728292937
:105330002A2B2B2C2D2D2E3F10101112121314146A
:10534000151616171818191A1A1B1C1C1D1E1E1FBD
:105350002020212122232324252526272728292907
:105360002A2B2B2C2D2D2E3F101111121313141537
:10537000151616171818191A1A1B1C1C1D1E1E1F8D
:1053800020202121222323242525262727282929D7
:105390002A2A2B2C2C2D2E3F101111121313141509
:1053A000151617171818191A1A1B1C1C1D1E1E1F5C
:1053B00020202121222323242525262727282829A8
:1053C0002A2A2B2C2C2D2E3F1011121213131415D8
:1053D000151617171819191A1A1B1C1C1D1E1E1F2B
:1053E0002020212122232324252526262728282979
:1053F0002A2A2B2C2C2D2D3F1011121213141415A8
:10540000151617171819191A1A1B1C1C1D1E1E1FFA
:105410002020212122232324252526262728282948
:105420002A2A2B2B2C2D2D3F111112121314141577
:10543000161617171819191A1B1B1C1C1D1E1E1FC8
:105440002020212122232324242526262728282919
:10545000292A2B2B2C2D2D3F111112131314141547
:10546000161617181819191A1B1B1C1C1D1E1E1F97
:1054700020202121222323242425262627282829E9
:10548000292A2B2B2C2C2D3F111112131314151517
:10549000161617181819191A1B1B1C1C1D1E1E1F67
:1054A00020202121222323242425262627272829BA
:1054B000292A2A2B2C2C2D3F1112121313141515E7
:1054C000161617181819191A1B1B1C1C1D1E1E1F37
:1054D000202021212223232424252626272728298A
:1054E000292A2A2B2C2C2D3F1112121314141515B6
:1054F0001617171818191A1A1B1B1C1D1D1E1E1F04
:10550000202021212222232424252526272728285C
:10551000292A2A2B2B2C2D3F111212131414151586
:105520001617171818191A1A1B1B1C1D1D1E1E1FD3
:10553000202021212222232424252526272728282C
:10554000292A2A2B2B2C2D3F111213131414151654
:105550001617171818191A1A1B1B1C1D1D1E1E1FA3
:1055600020202121222223242425252627272828FC
:1055700029292A2B2B2C2C3F121213131414151625
:105580001617171819191A1A1B1B1C1D1D1E1E1F72
:1055900020202121222223242425252626272828CD
:1055A00029292A2B2B2C2C3F1212131314151516F4
:1055B0001617171819191A1A1B1B1C1D1D1E1E1F42
:1055C000202021212222232424252526262728289D
:1055D00029292A2A2B2C2C3F1212131414151516C4
:1055E0001617181819191A1A1B1C1C1D1D1E1E1F10
:1055F000202021212222232424252526262728286D
:1056000029292A2A2B2C2C3F121213141415151693
:105610001617181819191A1A1B1C1C1D1D1E1E1FDF
:10562000202021212222232324252526262727283E
:1056300029292A2A2B2B2C3F121313141415151663
:105640001717181819191A1A1B1C1C1D1D1E1E1FAE
:10565000202021212222232324252526262727280E
:1056600028292A2A2B2B2C3F121313141415151634
:105670001717181819191A1A1B1C1C1D1D1E1E1F7E
:1056800020202121222223232425252626272728DE
:1056900028292A2A2B2B2C3F121313141415161603
:1056A0001717181819191A1B1B1C1C1D1D1E1E1F4D
:1056B00020202121222223232424252626272728AF
:1056C0002829292A2B2B2C3F1213131415151616D3
:1056D0001717181819191A1B1B1C1C1D1D1E1E1F1D
:1056E000202021212222232324242526262727287F
:1056F0002829292A2A2B2C3F1213141415151616A3
:1057000017171818191A1A1B1B1C1C1D1D1E1E1FEB
:10571000202021212222232324242525262727284F
:105720002829292A2A2B2B3F131314141515161672
:1057300017171819191A1A1B1B1C1C1D1D1E1E1FBA
:105740002020212122222323242425252626272820
:105750002829292A2A2B2B3F131314141515161642
:1057600017181819191A1A1B1B1C1C1D1D1E1E1F89
:1057700020202121222223232424252526262728F0
:105780002829292A2A2B2B3F131314141515161711
:1057900017181819191A1A1B1B1C1C1D1D1E1E1F59
:1057A00020202121222223232424252526262727C1
:1057B0002828292A2A2B2B3F1313141415161617E1
:1057C00017181819191A1A1B1B1C1C1D1D1E1E1F29
:1057D0002020212122222323242425252626272791
:1057E000282829292A2B2B3F1314141515161617B0
:1057F00017181819191A1A1B1B1C1C1D1D1E1E1FF9
:105800002020212122222323242425252626272760
:10581000282829292A2A2B3F131414151516161780
:1058200017181819191A1A1B1B1C1C1D1D1E1E1FC8
:105830002020212122222323242425252626272730
:10584000282829292A2A2B3F131414151516161750
:1058500017181819191A1A1B1B1C1C1D1D1E1E1F98
:105860002020212122222323242425252626272700
:10587000282829292A2A2B3F131414151516161720
:1058800017181819191A1A1B1B1C1C1D1D1E1E1F68
:1058900020202121222223232424252526262727D0
:1058A000282829292A2A2B3F1314141515161617F0
:1058B00017181819191A1A1B1B1C1C1D1D1E1E1F38
:1058C00020202121222223232424252526262727A0
:1058D000282829292A2A2B3F1414151516161717BC
:1058E000181819191A1A1B1B1C1C1D1D1E1E1F1F00
:1058F0002020212122222323242425252626272770
:10590000282829292A2A2B3F14141515161617178B
:10591000181819191A1A1B1B1C1C1D1D1E1E1F1FCF
:105920002020202121222223232424252526262746
:1059300027282829292A2A3F14141515161617175F
:10594000181819191A1A1B1B1C1C1D1D1E1E1F1F9F
:105950002020202121222223232424252526262716
:1059600027282829292A2A3F14141515161617172F
:10597000181819191A1A1B1B1C1C1D1D1E1E1F1F6F
:1059800020202021212222232324242525262627E6
:1059900027282829292A2A3F1414151516161717FF
:1059A000181819191A1A1B1B1C1C1D1D1E1E1F1F3F
:1059B00020202021212222232324242525262627B6
:1059C00027282829292A2A3F1414151516161717CF
:1059D000181819191A1A1B1B1C1C1D1D1E1E1F1F0F
:1059E0002020202121222223232424252526262786
:1059F00027282829292A2A3F14151515161617179E
:105A0000181819191A1A1B1B1C1C1D1D1E1E1F1FDE
:105A10002020202121222223232424252526262755
:105A200027282829292A2A3F14151516161617176C
:105A3000181819191A1A1B1B1C1C1D1D1E1E1F1FAE
:105A40002020202121222223232424252526262725
:105A50002728282929292A3F14151516161717183B
:105A6000181819191A1A1B1B1C1C1D1D1E1E1F1F7E
:105A700020202021212222232324242525262627F5
:105A80002728282829292A3F14151516161717180C
:105A9000181819191A1A1B1B1C1C1D1D1E1E1F1F4E
:105AA00020202021212222232324242525262627C5
:105AB0002727282829292A3F1415151616171718DD
:105AC000181919191A1A1B1B1C1C1D1D1E1E1F1F1D
:105AD0002020202121222223232424252526262696
:105AE0002727282829292A3F1415151616171718AD
:105AF0001819191A1A1A1B1B1C1C1D1D1E1E1F1FEC
:105B00002020202121222223232424252525262666
:105B10002727282829292A3F15151516161717187B
:105B20001819191A1A1A1B1B1C1C1D1D1E1E1F1FBB
:105B30002020202121222223232424252525262636
:105B40002727282829292A3F15151616161717184A
:105B50001819191A1A1B1B1B1C1C1D1D1E1E1F1F8A
:105B60002020202121222223232424242525262607
:105B7000272728282929293F15151616161717181B
:105B80001819191A1A1B1B1B1C1C1D1D1E1E1F1F5A
:105B900020202021212222232324242425252626D7
:105BA000272728282929293F1515161617171718EA
:105BB0001819191A1A1B1B1B1C1C1D1D1E1E1F1F2A
:105BC00020202021212222232324242425252626A7
:105BD000272728282829293F1515161617171818BA
:105BE0001819191A1A1B1B1C1C1C1D1D1E1E1F1FF9
:105BF0002020202121222223232424242525262677
:105C0000272728282829293F151516161717181889
:105C10001819191A1A1B1B1C1C1C1D1D1E1E1F1FC8
:105C20002020202121222223232324242525262647
:105C3000272727282829293F15151616171718185A
:105C40001819191A1A1B1B1C1C1C1D1D1E1E1F1F98
:105C50002020202121222223232324242525262617
:105C6000272727282829293F15151616171718182A
:105C70001919191A1A1B1B1C1C1C1D1D1E1E1F1F67
:105C800020202021212222232323242425252626E7
:105C9000262727282829293F1516161617171818FA
:105CA0001919191A1A1B1B1C1C1C1D1D1E1E1F1F37
:105CB00020202021212222232323242425252626B7
:105CC000262727282829293F1516161617171818CA
:105CD0001919191A1A1B1B1C1C1C1D1D1E1E1F1F07
:105CE0002020202121222223232324242525262687
:105CF000262727282829293F151616171717181899
:105D000019191A1A1A1B1B1C1C1D1D1D1E1E1F1FD4
:105D10002020202121222222232324242525252658
:105D2000262727282828293F151616171717181869
:105D300019191A1A1A1B1B1C1C1D1D1D1E1E1F1FA4
:105D40002020202121222222232324242525252628
:105D5000262727282828293F151616171718181838
:105D600019191A1A1A1B1B1C1C1D1D1D1E1E1F1F74
:105D700020202021212222222323242425252526F8
:105D8000262727282828293F151616171718181808
:105D900019191A1A1A1B1B1C1C1D1D1D1E1E1F1F44
:105DA00020202021212222222323242425252526C8
:105DB000262727272828293F1616161717181818D8
:105DC00019191A1A1B1B1B1C1C1D1D1D1E1E1F1F13
:105DD0002020202121222222232324242425252699
:105DE000262727272828293F1616161717181818A8
:105DF00019191A1A1B1B1B1C1C1D1D1D1E1E1F1FE3
:105E00002020202121222222232324242425252668
:105E1000262727272828293F161616171718181976
:105E200019191A1A1B1B1B1C1C1D1D1D1E1E1F1FB2
:105E30002020202121222222232324242425252638
:105E4000262627272828293F161617171718181946
:105E500019191A1A1B1B1B1C1C1D1D1D1E1E1F1F82
:105E60002020202121222222232324242425252608
:105E7000262627272828283F161617171718181917
:105E800019191A1A1B1B1B1C1C1D1D1D1E1E1F1F52
:105E900020202021212222222323242424252526D8
:105EA000262627272828283F1616171717181819E7
:105EB00019191A1A1B1B1B1C1C1D1D1D1E1E1F1F22
:105EC00020202021212222222323242424252526A8
:105ED000262627272828283F1616171718181819B6
:105EE000191A1A1A1B1B1C1C1C1D1D1E1E1E1F1FEF
:105EF0002020202121222222232324242425252678
:105F0000262627272828283F161617171818181985
:105F1000191A1A1A1B1B1C1C1C1D1D1E1E1E1F1FBE
:105F2000202020212121222223232324242525254A
:105F3000262627272728283F161617171818181956
:105F4000191A1A1A1B1B1C1C1C1D1D1E1E1E1F1F8E
:105F5000202020212121222223232324242525251A
:105F6000262627272728283F161617171818181926
:105F7000191A1A1A1B1B1C1C1C1D1D1E1E1E1F1F5E
:105F800020202021212122222323232424252525EA
:105F9000262627272728283F1617171718181819F5
:105FA000191A1A1A1B1B1C1C1C1D1D1E1E1E1F1F2E
:105FB00020202021212122222323232424252525BA
:105FC000262627272728283F1617171718181919C4
:105FD000191A1A1A1B1B1C1C1C1D1D1E1E1E1F1FFE
:105FE000202020212121222223232324242525258A
:105FF000262626272728283F161717171818191995
:10600000191A1A1A1B1B1C1C1C1D1D1E1E1E1F1FCD
:106010002020202121212222232323242425252559
:10602000262626272728283F161717171818191964
:10603000191A1A1B1B1B1C1C1C1D1D1E1E1E1F1F9C
:10604000202020212121222223232324242425252A
:10605000262626272728283F161717181818191933
:10606000191A1A1B1B1B1C1C1C1D1D1E1E1E1F1F6C
:1060700020202021212122222323232424242525FA
:10608000262626272728283F161717181818191903
:10609000191A1A1B1B1B1C1C1C1D1D1E1E1E1F1F3C
:1060A00020202021212122222323232424242525CA
:1060B000262626272727283F1617171818181919D4
:1060C000191A1A1B1B1B1C1C1C1D1D1E1E1E1F1F0C
:1060D000202020212121222223232324242425259A
:1060E000262626272727283F1717171818181919A3
:1060F0001A1A1A1B1B1B1C1C1D1D1D1E1E1E1F1FDA
:10610000202020212121222222232324242425256A
:10611000252626272727283F171717181818191973
:106120001A1A1A1B1B1B1C1C1D1D1D1E1E1E1F1FA9
:10613000202020212121222222232324242425253A
:10614000252626272727283F171717181818191943
:106150001A1A1A1B1B1B1C1C1D1D1D1E1E1E1F1F79
:10616000202020212121222222232324242425250A
:10617000252626272727283F171717181819191912
:106180001A1A1A1B1B1B1C1C1D1D1D1E1E1E1F1F49
:1061900020202021212122222223232424242525DA
:1061A000252626262727283F1717171818191919E3
:1061B0001A1A1A1B1B1B1C1C1D1D1D1E1E1E1F1F19
:1061C00020202021212122222223232424242525AA
:1061D000252626262727283F1717181818191919B2
:1061E0001A1A1A1B1B1C1C1C1D1D1D1E1E1E1F1FE8
:1061F000202020212121222222232324242425257A
:10620000252626262727283F171718181819191981
:106210001A1A1A1B1B1C1C1C1D1D1D1E1E1E1F1FB7
:10622000202020212121222222232323242425254A
:10623000252626262727273F171718181819191952
:106240001A1A1A1B1B1C1C1C1D1D1D1E1E1E1F1F87
:10625000202020212121222222232323242425251A
:10626000252626262727273F171718181819191922
:106270001A1A1A1B1B1C1C1C1D1D1D1E1E1E1F1F57
:1062800020202021212122222223232324242525EA
:10629000252626262727273F1717181818191919F2
:1062A0001A1A1B1B1B1C1C1C1D1D1D1E1E1E1F1F26
:1062B00020202021212122222223232324242425BB
:1062C000252626262727273F1717181818191919C2
:1062D0001A1A1B1B1B1C1C1C1D1D1D1E1E1E1F1FF6
:1062E000202020212121222222232323242424258B
:1062F000252626262727273F171718181819191A91
:106300001A1A1B1B1B1C1C1C1D1D1D1E1E1E1F1FC5
:10631000202020212121222222232323242424255A
:10632000252526262727273F171718181919191A60
:106330001A1A1B1B1B1C1C1C1D1D1D1E1E1E1F1F95
:10634000202020212121222222232323242424252A
:10635000252526262627273F171818181919191A30
:106360001A1A1B1B1B1C1C1C1D1D1D1E1E1E1F1F65
:1063700020202021212122222223232324242425FA
:10638000252526262627273F171818181919191A00
:106390001A1A1B1B1B1C1C1C1D1D1D1E1E1E1F1F35
:1063A00020202021212122222223232324242425CA
:1063B000252526262627273F171818181919191AD0
:1063C0001A1A1B1B1B1C1C1C1D1D1D1E1E1E1F1F05
:1063D000202020212121222222232323242424259A
:1063E000252526262627273F171818181919191AA0
:1063F0001A1A1B1B1B1C1C1C1D1D1D1E1E1E1F1FD5
:106400002020202121212222222323232424242569
:10641000252526262627273F171818181919191A6F
:106420001A1A1B1B1B1C1C1C1D1D1D1E1E1E1F1FA4
:106430002020202121212222222323232424242539
:10644000252526262627273F171818181919191A3F
:106450001A1A1B1B1B1C1C1C1D1D1D1E1E1E1F1F74
:106460002020202121212222222323232424242509
:10647000252526262627273F171818181919191A0F
:106480001A1A1B1B1B1C1C1C1D1D1D1E1E1E1F1F44
:1064900020202021212122222223232324242425D9
:1064A000252526262627273F171818181919191ADF
:1064B0001A1A1B1B1B1C1C1C1D1D1D1E1E1E1F1F14
:1064C00020202021212122222223232324242425A9
:1064D000252526262627273F1818181919191A1AAC
:1064E0001A1B1B1B1C1C1C1D1D1D1E1E1E1F1F1FDF
:1064F0002020202121212222222323232424242579
:10650000252526262627273F1818181919191A1A7B
:106510001A1B1B1B1C1C1C1D1D1D1E1E1E1F1F1FAE
:10652000202020202121212222222323232424244D
:10653000252525262626273F1818181919191A1A4D
:106540001A1B1B1B1C1C1C1D1D1D1E1E1E1F1F1F7E
:10655000202020202121212222222323232424241D
:10656000252525262626273F1818181919191A1A1D
:106570001A1B1B1B1C1C1C1D1D1D1E1E1E1F1F1F4E
:1065800020202020212121222222232323242424ED
:10659000252525262626273F1818181919191A1AED
:1065A0001A1B1B1B1C1C1C1D1D1D1E1E1E1F1F1F1E
:1065B00020202020212121222222232323242424BD
:1065C000252525262626273F1818181919191A1ABD
:1065D0001A1B1B1B1C1C1C1D1D1D1E1E1E1F1F1FEE
:1065E000202020202121212222222323232424248D
:1065F000252525262626273F1818181919191A1A8D
:106600001A1B1B1B1C1C1C1D1D1D1E1E1E1F1F1FBD
:10661000202020202121212222222323232424245C
:10662000252525262626273F1818181919191A1A5C
:106630001A1B1B1B1C1C1C1D1D1D1E1E1E1F1F1F8D
:10664000202020202121212222222323232424242C
:10665000252525262626273F1818181919191A1A2C
:106660001A1B1B1B1C1C1C1D1D1D1E1E1E1F1F1F5D
:1066700020202020212121222222232323242424FC
:10668000252525262626273F1818181919191A1AFC
:106690001A1B1B1B1C1C1C1D1D1D1E1E1E1F1F1F2D
:1066A00020202020212121222222232323242424CC
:1066B000252525262626273F1818191919191A1ACB
:1066C0001A1B1B1B1C1C1C1D1D1D1E1E1E1F1F1FFD
:1066D000202020202121212222222323232424249C
:1066E000252525262626263F18181919191A1A1A9B
:1066F0001A1B1B1B1C1C1C1D1D1D1E1E1E1F1F1FCD
:10670000202020202121212222222323232424246B
:10671000252525252626263F18181919191A1A1A6B
:106720001A1B1B1B1C1C1C1D1D1D1E1E1E1F1F1F9C
:10673000202020202121212222222323232424243B
:10674000252525252626263F18181919191A1A1A3B
:106750001B1B1B1B1C1C1C1D1D1D1E1E1E1F1F1F6B
:10676000202020202121212222222323232424240B
:10677000242525252626263F18181919191A1A1A0C
:106780001B1B1B1B1C1C1C1D1D1D1E1E1E1F1F1F3B
:1067900020202020212121222222232323242424DB
:1067A000242525252626263F18181919191A1A1ADC
:1067B0001B1B1B1B1C1C1C1D1D1D1E1E1E1F1F1F0B
:1067C00020202020212121222222232323242424AB
:1067D000242525252626263F18181919191A1A1AAC
:1067E0001B1B1B1C1C1C1C1D1D1D1E1E1E1F1F1FDA
:1067F000202020202121212222222323232424247B
:10680000242525252626263F18181919191A1A1A7B
:106810001B1B1B1C1C1C1C1D1D1D1E1E1E1F1F1FA9
:10682000202020202121212222222323232324244B
:10683000242525252626263F18181919191A1A1A4B
:106840001B1B1B1C1C1C1C1D1D1D1E1E1E1F1F1F79
:10685000202020202121212222222323232324241B
:10686000242525252626263F18191919191A1A1A1A
:106870001B1B1B1C1C1C1C1D1D1D1E1E1E1F1F1F49
:1068800020202020212121222222232323232424EB
:10689000242525252626263F18191919191A1A1AEA
:1068A0001B1B1B1C1C1C1C1D1D1D1E1E1E1F1F1F19
:1068B00020202020212121222222232323232424BB
:1068C000242525252626263F18191919191A1A1ABA
:1068D0001B1B1B1C1C1C1C1D1D1D1E1E1E1F1F1FE9
:1068E000202020202121212222222323232324248B
:1068F000242525252626263F181919191A1A1A1A89
:106900001B1B1B1C1C1C1D1D1D1D1E1E1E1F1F1FB7
:10691000202020202121212222222223232324245B
:10692000242525252526263F181919191A1A1A1A59
:106930001B1B1B1C1C1C1D1D1D1D1E1E1E1F1F1F87
:10694000202020202121212222222223232324242B
:10695000242525252526263F181919191A1A1A1A29
:106960001B1B1B1C1C1C1D1D1D1D1E1E1E1F1F1F57
:1069700020202020212121222222222323232424FB
:10698000242525252526263F181919191A1A1A1AF9
:106990001B1B1B1C1C1C1D1D1D1D1E1E1E1F1F1F27
:1069A00020202020212121222222222323232424CB
:1069B000242525252526263F181919191A1A1A1BC8
:1069C0001B1B1B1C1C1C1D1D1D1D1E1E1E1F1F1FF7
:1069D000202020202121212222222223232324249B
:1069E000242425252526263F181919191A1A1A1B99
:1069F0001B1B1B1C1C1C1D1D1D1D1E1E1E1F1F1FC7
:106A0000202020202121212222222223232324246A
:106A1000242425252526263F191919191A1A1A1B67
:106A20001B1B1B1C1C1C1D1D1D1D1E1E1E1F1F1F96
:106A3000202020202121212222222223232324243A
:106A4000242425252526263F191919191A1A1A1B37
:106A50001B1B1B1C1C1C1D1D1D1D1E1E1E1F1F1F66
:106A6000202020202121212222222223232324240A
:106A7000242425252526263F191919191A1A1A1B07
:106A80001B1B1B1C1C1C1D1D1D1D1E1E1E1F1F1F36
