:100000000C9432500C949E500C949E500C949E5024
:100010000C949E500C949E500C949E500C949E50A8
:100020000C949E500C949E500C949E500C949E5098
:100030000C949E500C9474520C94B4520C949E5098
:100040000C949E500C949E500C949E500C949E5078
:100050000C949E500C949E500C949E500C949E5068
:100060000C949E500C949E500C949E500C949E5058
:100070005A5501200101003808000000000000006E
:100080000000000000000000000000000000000070
:100090008100450027FF24FF2A902B1C210C22FB06
:1000A000850084008903888D81096F0244424700DE
:1000B0004501B083B300B10125118A4F8B0302556E
:1000C00005550E5513551C55245529552E5531559A
:1000D0004355465549558D5500408891D2E4ADB5FC
:1000E000B6BEBFFF011B2E2E2E39606B2E2E39603F
:1000F0006B2E2E39606B2E2E39606B2E2E39606B75
:100100002E1C0127282828292A2B2C282828282893
:1001100028282828282828292A2B2C2828282D0870
:10012000042F303132333435363A3B3C3D3E3F408C
:10013000414748494A4B4C4D4E53545556575859D0
:100140005A080461626364656667686C6D6E6F70FF
:100150007172737475767778797A7B7C7D7E7F8017
:1001600081828308048485868788898A8B8C8D8E1A
:100170008F909192939495969798999A9B9C9D9E17
:100180009FA0A1A2A30804A4A5A6A7A8A9AAABAC56
:10019000ADAEAFB0B1B2B3B4B5B6B7B8B9BABBBC17
:1001A000BDBEBFC0C1C2C3020117180201010202D5
:1001B00001030402010506020107080201090A02FF
:1001C000010B0C02010D0E02010F100201111202AF
:1001D000011314020115160201011902011A1B0272
:1001E000011C1D02011E1F02012002020103210247
:1001F00001222302011C1D02012425020126040103
:100200000537424F5B6901053843005C6A010539D7
:1002100044505D6B01053945515E6B01053946520D
:100220005F6B000000000000000000000000000004
:1002300000000000000000000000000000000000BE
:1002400000000000000000000000000000000000AE
:10025000000000000000000000000000000000009E
:100260000000372F2F2F2F2F2F2F37372F2F2F2FE4
:100270002F2F3737372F2F2F2F2F37373737373746
:1002800037373737372E2E2E2E2E37372E2E2E2E4F
:100290002E2E372E2E2E2E2E2E2E00000000000089
:1002A00000002F2F2F2F2F2F25002F2F2F2F2F25FF
:1002B00025002F2F2F2F25252500373737252525DA
:1002C00025002E2E2E2E252525002E2E2E2E2E25D7
:1002D00025002E2E2E2E2E2E2500000000000000C0
:1002E0000000EDEDEDEDEDEDEDEDEDEDEDEDEDED18
:1002F000EDEDEDEDEDEDEDEDEDEDEDEDEDEDEDED2E
:10030000EDEDEDEDEDA4A4A4A4A4EDEDA4A4A4A4AE
:10031000A4A4EDA4A4A4A4A4A4A40000000000002C
:100320000000EDEDEDEDEDED9B00EDEDEDEDED9B68
:100330009B00EDEDEDED9B9B9B00EDEDED9B9B9B05
:100340009B00A4A4A4A49B9B9B00A4A4A4A4A49BE2
:100350009B00A4A4A4A4A4A49B000000000000008F
:100360000000EDEDEDEDEDEDEDEDEDFFEDEDEDED85
:100370009BEDEDEDFFEDED9B9BEDEDEDEDFF9B9B23
:100380009BEDEDEDEDA4A49B9BEDEDEDA4A4A4A449
:100390009BEDEDEDEDEDEDEDEDED0000000000006D
:1003A0000000EDEDEDEDEDEDED00FFEDEDEDED9B84
:1003B000ED00EDFFEDED9B9BED00EDEDFF9B9B9BBD
:1003C000ED00EDEDA4A49B9BED00EDA4A4A4A49BE3
:1003D000ED00EDEDEDEDEDEDED00000000000000B5
:1003E0000000FFFFFFFFFFFFFFFFFFFFFFFFFFFF1B
:1003F000FFFFFFFFFFFFFFFFFFFFFFFFFFFFFFFF0D
:10040000FFFFFFFFFFFFFFFFFFFFFFFFFFFFFFFFFC
:10041000FFFFFFADADADADADADAD00000000000024
:100420000000FFFFFFFFFFFFA400FFFFFFFFFFFF34
:10043000A400FFFFFFFFFFFFA400FFFFFFFFFFFF80
:10044000A400FFFFFFFFFFFFA400FFFFFFFFFFFF70
:10045000A400ADADADADADADA40000000000000046
:10046000000027272727272727272727272727276A
:10047000272727272727272727272727272727270C
:1004800027272727272727272727272727272727FC
:100490002727271F1F1F1F1F1F1F0000000000000E
:1004A0000000272727272727160027272727272762
:1004B000160027272727272716002727272727273C
:1004C000160027272727272716002727272727272C
:1004D00016001F1F1F1F1F1F160000000000000036
:1004E0000000F8F8F8F8F8F8F8F8F8F8F8F8F8F87C
:1004F000F8F8F8F8F8F8F8F8F8F8F8F8F8F8F8F87C
:10050000F8F8F8F8F8F8F8F8F8F8F8F8F8F8F8F86B
:10051000F8F8F8A8A8A8A8A8A8A80000000000005B
:100520000000F8F8F8F8F8F8A000F8F8F8F8F8F88B
:10053000A000F8F8F8F8F8F8A000F8F8F8F8F8F8DB
:10054000A000F8F8F8F8F8F8A000F8F8F8F8F8F8CB
:10055000A000A8A8A8A8A8A8A0000000000000006B
:10056000000038383838383838383838383838387B
:1005700038383838383838383838383838383838FB
:1005800038383838383838383838383838383838EB
:10059000383838282828282828280000000000009B
:1005A000000038383838383820003838383838388B
:1005B000200038383838383820003838383838385B
:1005C000200038383838383820003838383838384B
:1005D00020002828282828282000000000000000EB
:1005E00000000707070707070707070707070707A9
:1005F000070707070707070707070707070707078B
:10060000070707070707070707070707070707077A
:1006100007070705050505050505000000000000A2
:100620000000070707070707040007070707070772
:10063000040007070707070704000707070707075E
:10064000040007070707070704000707070707074E
:100650000400050505050505040000000000000074
:100660000000E0E0E0E0E0E0E0E0E0E0E0E0E0E04A
:10067000E0E0E0E0E0E0E0E0E0E0E0E0E0E0E0E07A
:10068000E0E0E0E0E0E0E0E0E0E0E0E0E0E0E0E06A
:10069000E0E0E0D8D8D8D8D8D8D8000000000000D2
:1006A0000000E0E0E0E0E0E09800E0E0E0E0E0E032
:1006B0009800E0E0E0E0E0E09800E0E0E0E0E0E08A
:1006C0009800E0E0E0E0E0E09800E0E0E0E0E0E07A
:1006D0009800D8D8D8D8D8D89800000000000000DA
:1006E0000000D7D7D7D7D7D7D7D7D7D7D7D7D7D748
:1006F000D7D7D7D7D7D7D7D7D7D7D7D7D7D7D7D78A
:10070000D7D7D7D7D7D7D7D7D7D7D7D7D7D7D7D779
:10071000D7D7D7969696969696960000000000003A
:100720000000D7D7D7D7D7D79500D7D7D7D7D7D720
:100730009500D7D7D7D7D7D79500D7D7D7D7D7D77B
:100740009500D7D7D7D7D7D79500D7D7D7D7D7D76B
:1007500095009696969696969500000000000000EB
:1007600000003F3F3F3F3F3F3F3F3F3F3F3F3F3F17
:100770003F3F3F3F3F3F3F3F3F3F3F3F3F3F3F3F89
:100780003F3F3F3F3F3F3F3F3F3F3F3F3F3F3F3F79
:100790003F3F3F2D2D2D2D2D2D2D00000000000061
:1007A00000003F3F3F3F3F3F24003F3F3F3F3F3F31
:1007B00024003F3F3F3F3F3F24003F3F3F3F3F3FFD
:1007C00024003F3F3F3F3F3F24003F3F3F3F3F3FED
:1007D00024002D2D2D2D2D2D2400000000000000C3
:1007E000000000000000000000000017171700A420
:1007F000A4A400FFFFFF00FFFFFFFF17171700A4CF
:10080000A4A40017171700A4A4A4001717170052D8
:100810005252000000000000000000000000000034
:1008200000000000000000000000A4A4A4001717AE
:100830001700FFFFFF00FFFF1700A4A4A400171775
:1008400017FFA4A4A400171717005252520017173D
:100850001700000000000000000000000000000081
:1008600000002F2F2F2F2F2FFF002F2F2F2F2FFF85
:10087000FF002F2F2F2FFFFFFF00373737FFFFFF1E
:10088000FF002E2E2E2EFFFFFF002E2E2E2E2EFFCF
:10089000FF00FFFFFFFFFFFFFF0000000000000060
:1008A0000000372F2F2F2F2F2F2F37372F2F2F2F9E
:1008B0002F2F3737372F2F2F2F2F37373737FFFF70
:1008C000FFFF373737FFFFFFFFFF3737FFFFFFFF20
:1008D000FFFF37FFFFFFFFFFFFFF000000000000EA
:1008E00000002F2F2F2F2F2FFF002F2F2F2F2FFF05
:1008F000FF002F2F2F2FFFFFFF00FFFFFFFFFFFF46
:10090000FF00FFFFFFFFFFFFFF00FFFFFFFFFFFFF5
:10091000FF00FFFFFFFFFFFFFF00000000000000DF
:100920000000FFFFFFFFFFFFFFFFFFFFFFFFFFFFD5
:10093000FFFFFFFFFFFFFFFFFFFFFFFFFFFFFFFFC7
:10094000FFFFFFFFFFFFFFFFFFFFFFFFFFFFFFFFB7
:10095000FFFFFFFFFFFFFFFFFFFF000000000000A1
:100960000000FFFFFFFFFFFFFF00FFFFFFFFFFFF94
:10097000FF00FFFFFFFFFFFFFF00FFFFFFFFFFFF85
:10098000FF00FFFFFFFFFFFFFF00FFFFFFFFFFFF75
:10099000FF00FFFFFFFFFFFFFF000000000000005F
:1009A0000000FFFFFFFFFFFFFFFFFFFFFFFFFFFF55
:1009B000FFFFFFFFFFFFFFFFFFFFFFFFFFFFFFFF47
:1009C000FFFFFFFFFF2E2E2E2E2EFFFF2E2E2E2E90
:1009D0002E2EFF2E2E2E2E2E2E2E0000000000007A
:1009E0000000FFFFFFFFFFFF2500FFFFFFFFFF25C8
:1009F0002500FFFFFFFF25252500FFFFFF252525FB
:100A000025002E2E2E2E252525002E2E2E2E2E258F
:100A100025002E2E2E2E2E2E250000000000000078
:100A20000000FF2F2F2F2F2F2F2FFFFF2F2F2F2FC4
:100A30002F2FFFFFFF2F2F2F2F2FFFFFFFFF373706
:100A40003737FFFFFF2E2E2E2E2EFFFF2E2E2E2E9F
:100A50002E2EFF2E2E2E2E2E2E2E000000000000F9
:100A60000000EDEDEDEDEDEDFF00EDEDEDEDEDFF59
:100A7000FF00EDEDEDEDFFFFFF00EDEDEDFFFFFF02
:100A8000FF00A4A4A4A4FFFFFF00A4A4A4A4A4FFA7
:100A9000FF00FFFFFFFFFFFFFF000000000000005E
:100AA0000000EDEDEDEDEDEDEDEDEDEDEDEDEDED50
:100AB000EDEDEDEDEDEDEDEDEDEDEDEDEDEDFFFF42
:100AC000FFFFEDEDEDFFFFFFFFFFEDEDFFFFFFFF90
:100AD000FFFFEDFFFFFFFFFFFFFF00000000000032
:100AE0000000EDEDEDEDEDEDFF00EDEDEDEDEDFFD9
:100AF000FF00EDEDEDEDFFFFFF00FFFFFFFFFFFF4C
:100B0000FF00FFFFFFFFFFFFFF00FFFFFFFFFFFFF3
:100B1000FF00FFFFFFFFFFFFFF00000000000000DD
:100B20000000FFFFFFFFFFFFFFFFFFFFFFFFFFFFD3
:100B3000FFFFFFFFFFFFFFFFFFFFFFFFFFFFFFFFC5
:100B4000FFFFFFFFFFA4A4A4A4A4FFFFA4A4A4A4E8
:100B5000A4A4FFA4A4A4A4A4A4A4000000000000D2
:100B60000000FFFFFFFFFFFF9B00FFFFFFFFFF9B5A
:100B70009B00FFFFFFFF9B9B9B00FFFFFF9B9B9B3F
:100B80009B00A4A4A4A49B9B9B00A4A4A4A4A49B9A
:100B90009B00A4A4A4A4A4A49B0000000000000047
:100BA0000000FFEDEDEDEDEDEDEDFFFFEDEDEDED19
:100BB000EDEDFFFFFFEDEDEDEDEDFFFFFFFFEDEDE7
:100BC000EDEDFFFFFFA4A4A4A4A4FFFFA4A4A4A48C
:100BD000A4A4FFA4A4A4A4A4A4A400000000000052
:100BE0000000000000000000000000005BA4A4A4BE
:100BF000A4A4005BA4A4FFFFFFFF00A4A4FFADA476
:100C0000A4A400A4FFADA45B5B5B00A4FFAD5B5B91
:100C10005B5200A4FFAD5B5B525B00A4FFA45B5280
:100C20005B000000000000000000A4A4A4A4A4A491
:100C3000A4A4FFFFFFFFFFFFFFFFA4A4A4A4A4A49C
:100C4000A4A45B5B5B5B5B5B5B5B52525252525298
:100C500052525B5B5B5B5B5B5B5B00000000000018
:100C6000000000525B5B5B525B5B52A4A45BA45B25
:100C7000A4A452ADFFA4FFA4FFFF52ADAD5BAD5BDA
:100C8000ADAD525B5B5B5B5B5B5B525B5B5B5B5B22
:100C90005B52005B5B525B525B0000005B52525246
:100CA00052005B5B5B5B5B5B5B5BA4A4A4A4A4A442
:100CB000A4A4FFFFFFFFFFFFFFFFADADADADADADE6
:100CC000ADAD5B5B5B5B5B5B5B5B52525B5B5252F4
:100CD000525B5B005B5B005B005B52005252005258
:100CE00000525B5B5B5B5B5B5B5BA4A4A4A4A4A402
:100CF000A4A4FFFFFFFFFFFFFFFFADADADADADADA6
:100D0000ADAD5B5B5B5B5B5B5B5B5B5252525B5BAA
:100D100052525B005B005B5B005B52005200525220
:100D200000525B5B525B5B5B5200A4A45BA45BA4C0
:100D3000A452FFFFA4FFA4FFAD52ADAD5BAD5BAD10
:100D4000AD525B5B5B5B5B5B5B52525B5B5B5B5BBC
:100D50005B52005B525B525B5B0000525252525B33
:100D600000000000000000000000A45B5B5B52007C
:100D70000000FFFFA45B5B520000ADADFFA45B521F
:100D80005B00A4ADFFA45B525B005BADFFA45B52B4
:100D90005B0052A4FFA45B525B0000A4FFA45B5263
:100DA0005B0000A4FFA45B525B0000A4FFA45B52A5
:100DB0005B0000A4FFA45B525B0000A4FFA45B5295
:100DC0005B0000A4FFA45B525B0000A4FFA45B5285
:100DD0005B0000A4FFA45B525B0000A4FFA45B5275
:100DE0005B004040404040408040408080808080A8
:100DF00080404040404040408040408040000040B3
:100E000080804040408080408040404040404040A2
:100E100080408080808080808040404040404040D2
:100E20004040804000408040004080404040804042
:100E300040804040404040404040808080808080F2
:100E40008080404040404040404040400040804022
:100E500000408040404080404080804040404040D2
:100E60004040408040404040804040804080808002
:100E700080404080404040408040808040000040B2
:100E800080404040404040408040804040404040A2
:100E90008040808080808080804040404040404052
:100EA00040408040404040404040804040404040C2
:100EB000408080404080A8804000804040404040CA
:100EC0004040804080408040808080404040804062
:100ED0004040804040408040008080404040804012
:100EE0004000000000000000400000404040404042
:100EF0004000000000000000400000400000000032
:100F00004040000000000000400000000000000021
:100F100040004040404040404000000000000000D1
:100F200000004000000040000000400000004000C1
:100F300000400000000000000000404040404040F1
:100F400040400000000000000000000000004000E1
:100F50000000400000004000004040000000000091
:100F60000000004000000000400000400040404001
:100F70004000004000000000400040400000000031
:100F800040000000000000004000400000000000A1
:100F90004000404040404040400000000000000051
:100FA00000004000000000000000400000000000C1
:100FB00000004000004050400000400000000000E1
:100FC0000000400040004000404040000000400061
:100FD0000000400000004000000040000000400011
:100FE000000000A4FFA45B525B0000A4FFA45B52BE
:100FF0005B0000A4FFA45B525B0000A4FFA45B5253
:101000005B0000A4FFA45B525B005252525252524A
:101010005252A4FFFFADA45B525BA4FFFFADA45BE3
:10102000525B00A4FFA45B525B0000A4FFA45B52D0
:101030005B005252525252525252A4FFFFADA45B77
:10104000525BA4FFFFADA45B525B52A4A452525268
:101050005252A4FFFFADA45B525B5BA4A45B525B46
:10106000525B5252525252525252A4FFFFADA45BF5
:10107000525BA4FFFFADA45B525B52A4A452525238
:101080005252A4FFFFADA45B525B5BA4A45B525B16
:10109000525BA4FFFFADA45B525BA4FFFFADA45B5A
:1010A000525B404040404040404080808080808093
:1010B0008080404040404040404080808080808030
:1010C00080804040404040404040408040404000A0
:1010D0008040404040404040404040808080808090
:1010E000808080404040408040408080804040A8D8
:1010F00040804040404040804040808080404040B0
:1011000040804040804040404040404080408040DF
:10111000404040404040404040408080808080804F
:1011200080804040404040404040808080808080BF
:1011300080804040404040404040408080808080EF
:10114000804040404040404040400040404040409F
:10115000404040404040808040408080808040A8A7
:1011600040404040404040404040808080808080FF
:10117000808040404040404040408040804080402F
:10118000808080404040804040408040804080409F
:10119000404080408040804040408040004080404F
:1011A000404000000000000000004040404040403F
:1011B000404000000000000000004040404040402F
:1011C000404000000000000000000040000000005F
:1011D00000000000000000000000004040404040CF
:1011E00040404000000000400000404040000050EF
:1011F00000400000000000400000404040000000AF
:1012000000400000400000000000000040004000DE
:10121000000000000000000000004040404040404E
:1012200040400000000000000000404040404040BE
:1012300040400000000000000000004040404040EE
:10124000400000000000000000000000000000005E
:1012500000000000000040400000404040400050BE
:1012600000000000000000000000404040404040FE
:10127000404000000000000000004000400040002E
:10128000404040000000400000004000400040009E
:10129000000040004000400000004000000040000E
:1012A000000052A4A45252525252A4FFFFADA45BBC
:1012B000525B5BA4A45B525B525BA4FFFFADA45BDB
:1012C000525BA4FFFFADA45B525BA4FFFFADA45B28
:1012D000525BA4FFFFADA45B525BA4FFFFADA45B18
:1012E000525BA4FFFFADA45B525BA4FFFFADA45B08
:1012F000525BA4FFFFADA45B525BA4FFFFADA45BF8
:10130000525BA4FFFFADA45B525B5BFF5B5B525B78
:1013100052525BFF5B00525B52005B5B5B005252C0
:101320005200A4FFFFADA45B525BA4FFFFADA45B22
:10133000525BA4FFFFADA45B525B5BFF5B5B525B48
:1013400052525BFF5B00525B52005B5B5B00525290
:1013500052000000000000FF000000000000FFF845
:101360000000A4FFFFADA45B525BA4FFFFADA45B34
:10137000525BA4FFFFADA45B525B5BFF5B5B525B08
:1013800052525BFF5B00525B52005B5B5BFF525251
:1013900052000000FFF8000000000000FF00000005
:1013A0000000A4FFFFADA45B525BA4FFFFADA45BF4
:1013B000525BA4FFFFADA45B525B5BFF5B5B525BC8
:1013C00052525BFF5B00525B52005B5B5B00525210
:1013D0005200000000F8000000000000FF00F800CC
:1013E000000040804040404040404080408080803D
:1013F00080404080400000008040408040404040AD
:1014000040404080808080808080408040404040DC
:10141000404040804080808080004080400000004C
:1014200000004040404040404040804040408040BC
:1014300040808040000000000000404040404040AC
:10144000404080808080808080804040404040409C
:10145000404080404040804040808040404080404C
:1014600040404040404040804040408040804040BC
:1014700040404080404040408040404040404040EC
:10148000404080808080808080804040404040405C
:10149000404040804080808080004080404040400C
:1014A000400080404040804080408040404080403C
:1014B000A840804040408040804080408040804044
:1014C000404080404040804040404040004080409C
:1014D0008040800040408040A840800040408040E4
:1014E00080400040000000000000004000000000BC
:1014F000000000400000000000000040000000006C
:1015000000000040404040404040004000000000DB
:10151000000000400000000000000040000000004B
:10152000000000000000000000004000000040003B
:10153000004040000000000000000000000000002B
:10154000000040404040404040400000000000009B
:10155000000040000000400000404000000040004B
:1015600000000000000000400000004000400000BB
:1015700000000040000000004000000000000000EB
:10158000000040404040404040400000000000005B
:1015900000000040004040404000004000000000CB
:1015A00000004000000040004000400000004000FB
:1015B000500040000000400040004000400040005B
:1015C000000040000000400000000000000040005B
:1015D00040000000000040005000000000004000FB
:1015E00040005BFF5B5B525B52525BFF5B00525BF8
:1015F00052005B5B5B005252520000000000000092
:1016000000000000000000000000000000000000DA
:101610000000000000000000000000005B5B5B00B9
:10162000005B000000FFF80000000000FFF8000071
:1016300000000000FF00000000000000F8FF0000B4
:101640000000000000F8FF00000000000000F8FFAC
:1016500000000000000000FF000000000000FFF894
:1016600000000000F8FF00000000000000F8FF008C
:10167000000000000000F8FF00000000000000FF74
:10168000000000000000FFF80000000000FFF8006C
:1016900000000000FFF8000000000000FF00000054
:1016A00000000000FF0000F80000000000FF00F84C
:1016B000000000000000FF000000000000F800FF34
:1016C00000000000F80000FF00000000F800FF002C
:1016D0000000000000F8000000000000FF00F8001B
:1016E00000004080404040404040808040808080FA
:1016F000808040404040404040408080808080402A
:101700008080408040404040804040804040404099
:1017100080404080400000408040408040808040C9
:101720008040804040408040404080808080808079
:1017300080804040404040404040808080808080A9
:101740008080404040404040404080404040804099
:101750004040804040408040000080404040804009
:101760004040408040000000000040804040404039
:101770004040408040404040404040804080808029
:101780008080408040404040404040804040404059
:1017900080404080400040408040408040400040C9
:1017A0004040800000408040404080808040804039
:1017B0004080404040408040404080808080808029
:1017C0008080404040404040404040408040800059
:1017D0004040804080404040404080404080808089
:1017E0008080004000000000000040400040404079
:1017F0004040000000000000000040404040400029
:101800004040004000000000400000400000000098
:1018100040000040000000004000004000000000C8
:101820004000400000004000000040404040404078
:1018300040400000000000000000404040404040A8
:101840004040000000000000000040000000400098
:101850000000400000004000000040000000400088
:1018600000000040000000000000004000000000F8
:101870000000004000000000000000400040404028
:101880004040004000000000000000400000000058
:101890004000004000000000400000400000000048
:1018A00000000000000040000000000000004000B8
:1018B0000040000000004000000040404040404028
:1018C0004040000000000000000000004000000058
:1018D0000000400040000000000040000040404088
:1018E000404000005BAD5B00005B5B5B5BAD5B5B46
:1018F0005B5BA4FFFFADA45B525BA4FFFFADA45BE9
:10190000525BA4FFFFADA45B525B5BA4A45B52528D
:101910005252A4FFFFADA4525B5B5252525252523C
:101920005252000000000000000000000000000013
:10193000000000005B5B5B00005B00005BAD5B00D8
:10194000005B5B5B5BAD5B5B5B5BA4FFFFADA45BC4
:10195000525BA4FFFFADA45B525BA4FFFFADA45B91
:10196000525B000000FFF80000000000FFF80000DC
:1019700000000000FF00000000000000F8FF000071
:10198000000000005B5B5B00005B00005BAD5B0088
:10199000005B5B5B5BAD5B5B5B5BA4FFFFADA45B74
:1019A000525B0000F8FF00000000000000F8FF009C
:1019B000000000000000F8FF00000000000000FF31
:1019C000000000005B5B5BF8005B00005BAD5B0050
:1019D000005B5B5B5BAD5B5B5B5BA4FFFFADA45B34
:1019E000525B0000FF0000F80000000000FF00F85C
:1019F000000000000000FF000000000000F800FFF1
:101A0000000000005B5B5BFF005B00005BAD5B0008
:101A1000005B5B5B5BAD5B5B5B5BA4FFFFADA45BF3
:101A2000525BA4FFFFADA45B525BA4FFFFADA45BC0
:101A3000525BA4FFFFADA45B525B5BFF5B5B525B41
:101A400052525BFF5BAD525B525B5B5B5BAD5252D4
:101A5000525BA4FFFFADA45B525BA4FFFFADA45B90
:101A6000525B181828202018282818182820182811
:101A7000202018282018282020281828201828205E
:101A8000282018282018282018182018282018186E
:101A9000282820182820182820201828201818283E
:101AA0002018282828181820202820202028281826
:101AB000202028181820202818202028281828201E
:101AC0002018182020201828201828182820182826
:101AD000202020182820182820201818282018181E
:101AE0001818282818182820202020202018202006
:101AF000181820202018181828181828202018280E
:101B000020201818282018181820181828201828FD
:101B100028201818282018202020182820201818DD
:101B200018282028282018181818202020201818D5
:101B300028281820202020202020181818282018B5
:101B40001818282818282018282820201828201895
:101B5000282018181828202018202828181828208D
:101B60002018080818101008181808081810081865
:101B7000101008181008181010180818100818105D
:101B8000181008181008181008081008181008086D
:101B9000181810081810081810100818100808183D
:101BA0001008181818080810101810101018180825
:101BB000101018080810101808101018180818101D
:101BC0001008081010100818100818081810081825
:101BD000101010081810081810100808181008081D
:101BE0000808181808081810101010101008101005
:101BF000080810101008080818080818101008180D
:101C000010100808181008080810080818100818FC
:101C100018100808181008101010081810100808DC
:101C200008181018181008080808101010100808D4
:101C300018180810101010101010080808181008B4
:101C40000808181808181008181810100818100894
:101C5000181008080818101008101818080818108C
:101C60001008A4FFFFADA45B525BA4FFFFADA45B13
:101C7000525B525252525252525200A4FFA45B5233
:101C80005B0000A4FFA45B525B0000A4FFA45B52B6
:101C90005B0000A4FFA45B525B0000A4FFA45B52A6
:101CA0005B005BA4A45B52525252A4FFFFADA4524E
:101CB0005B5B5252525252525252A4FFFFADA45B90
:101CC000525BA4FFFFADA45B525B52525252525280
:101CD000525200A4FFA45B525B0000A4FFA45B521D
:101CE0005B00A4FFFFADA45B525BA4FFFFADA45B50
:101CF000525B5BA4A45B52525252A4FFFFADA452AC
:101D00005B5B5252525252525252A4FFFFADA45B3F
:101D1000525BA4FFFFADA45B525B5252525252522F
:101D2000525218282020201818281828201818186F
:101D300018282018182820201828201818282020B3
:101D400018181828201828181828282020181828AB
:101D50002820202018282820202020182820202073
:101D6000181820181818282818282020182820208B
:101D700018282020182020181818181818181818B3
:101D80002828282828282818202020202020202023
:101D9000182018181818202018182828281818187B
:101DA000282828282818282828202020201818200B
:101DB000201818202028281818282018202020183B
:101DC0002820202018181828201820201828281823
:101DD00028281818282020182820281820201828FB
:101DE00020202020281828202018182020201828FB
:101DF0002020281820201828202020182018181803
:101E000028201818182828281818181818282020EA
:101E100018282018181820201828201828282818D2
:101E200018180818101010080818081810080808C2
:101E300008181008081810100818100808181010B2
:101E400008080818100818080818181010080818AA
:101E50001810101008181810101010081810101072
:101E6000080810080808181808181010081810108A
:101E700008181010081010080808080808080808B2
:101E80001818181818181808101010101010101022
:101E9000081008080808101008081818180808087A
:101EA000181818181808181818101010100808100A
:101EB000100808101018180808181008101010083A
:101EC0001810101008080818100810100818180822
:101ED00018180808181010081810180810100818FA
:101EE00010101010180818101008081010100818FA
:101EF0001010180810100818101010081008080802
:101F000018100808081818180808080808181010E9
:101F100008181008080810100818100818181808D1
:101F200008081818282020182828182820201828E1
:101F300020201820201828202018181818282020C1
:101F40001818181828202018282828182820182899
:101F50002020201818181828202018282828182889
:101F600020182020202018282020181818181818A9
:101F70001828282828282828181828202020202039
:101F80002018182820201820201820182820181879
:101F90001828182820182828182818282018282039
:101FA0001818202018201828202020201818282051
:101FB0002018282018282020201828201828202021
:101FC0001828181828201818282028282020201819
:101FD0002820202020202018282018181820201819
:101FE00028201818282020182828282018202018F1
:101FF00028202820182018282020202018182818E9
:1020000020202020182820201818202018282020E0
:1020100018282018282020182820181828201818D8
:102020002820080818101008181808181010081888
:1020300010100810100818101008080808181010C0
:102040000808080818101008181818081810081898
:102050001010100808080818101008181818081888
:1020600010081010101008181010080808080808A8
:102070000818181818181818080818101010101038
:102080001008081810100810100810081810080878
:102090000818081810081818081808181008181038
:1020A0000808101008100818101010100808181050
:1020B0001008181008181010100818100818101020
:1020C0000818080818100808181018181010100818
:1020D0001810101010101008181008080810100818
:1020E00018100808181010081818181008101008F0
:1020F00018101810081008181010101008081808E8
:1021000010101010081810100808101008181010DF
:1021100008181008181010081810080818100808D7
:1021200018102820202018282018181818282020D7
:10213000201818282818182820201828202828189F
:1021400028201818182020181818182828181818C7
:102150002828282020182828202028201828202057
:10216000181818282018282018181828201828208F
:102170002828181818282020202020202020201867
:10218000182828282818182828202020202818282F
:10219000201820202020282818181818182020205F
:1021A0002818181818282018282028281828201837
:1021B000282020202018282818182020201828201F
:1021C0002018281818282020201828201818202027
:1021D0001818282020201818181818182020182837
:1021E0002828181828202018181818182820181817
:1021F0001818182820202020201828201818182007
:1022000020202820181818182820182020181828EE
:1022100020201818202828202018281828202020BE
:1022200018181810101008181008080808181010AE
:10223000100808181808081810100818101818089E
:1022400018100808081010080808081818080808C6
:102250001818181010081818101018100818101056
:10226000080808181008181008080818100818108E
:102270001818080808181010101010101010100866
:10228000081818181808081818101010101808182E
:10229000100810101010181808080808081010105E
:1022A0001808080808181008181018180818100836
:1022B000181010101008181808081010100818101E
:1022C0001008180808181010100818100808101026
:1022D0000808181010100808080808081010081836
:1022E0001818080818101008080808081810080816
:1022F0000808081810101010100818100808081006
:1023000010101810080808081810081010080818ED
:1023100010100808101818101008180818101010BD
:10232000080800004000000040000000409090902D
:10233000909040404090000040400000009000001D
:1023400000004040409000004040000040900000ED
:1023500040009090909090909090000000000000BD
:1023600040000000000000000000909090909090CD
:10237000909040404040404040400000000000003D
:10238000000040404040404040400000000000004D
:1023900000009090909090909090000000000000BD
:1023A000900000400040000040009090909090907D
:1023B000900040400040404090400000000000007D
:1023C000900040404040404090400000000000002D
:1023D000900090909090909090000000009000905D
:1023E000000040000000404040009090909090908D
:1023F00090909040404040404090909090909090BD
:1024000090904040009040404040004000900000CC
:10241000000000400090909090900040000000006C
:1024200040000000000000000000000000404040AC
:10243000404000000040000000000000004000009C
:10244000000000000040000000000000004000000C
:10245000000040404040404040400000000000007C
:1024600000000000000000000000404040404040EC
:1024700040400000000000000000000000000000DC
:10248000000000000000000000000000000000004C
:10249000000040404040404040400000000000003C
:1024A000400000000000000000004040404040406C
:1024B000400000000000000040000000000000009C
:1024C000400000000000000040000000000000008C
:1024D000400040404040404040000000004000407C
:1024E000000000000000000000004040404040406C
:1024F000404040000000000000404040404040405C
:1025000040400000004000000000000000400000CB
:10251000000000000040404040400000000000007B
:1025200000009090909090909090404040404040AB
:10253000404000000000000000004040404040409B
:1025400040400000000000000000909090900000CB
:10255000000000000090000000000000009000005B
:10256000000090000000000090009040409090908B
:1025700090409000009000000000904040900000CB
:1025800090009000009000009040900000900000AB
:1025900040009000009090909090900000400000CB
:1025A000400000000090009000904040409040901B
:1025B000409000409090009040900040009000902B
:1025C00040904040009000904090000000900090AB
:1025D000409090909090909040000040000000004B
:1025E00040009090909090909090404000000000AB
:1025F00040404000000000000000400040404040DB
:10260000404040004000000000009090909090906A
:10261000909040004000000000004000400000009A
:1026200000004040404040404040000000000000AA
:10263000000000000000000000000000000000009A
:10264000000000000000000000004040404000008A
:1026500000000000004000000000000000400000FA
:1026600000004000000000004000400000404040EA
:10267000400040000040000000004000004000001A
:1026800040004000004000004000400000400000CA
:10269000000040000040404040404000000000007A
:1026A00000000000004000400040000000400040EA
:1026B000004000004040004000400000004000405A
:1026C000004000000040004000400000004000408A
:1026D000004040404040404000000000000000003A
:1026E00000004040404040404040000000000000EA
:1026F00000000000000000000000000000000000DA
:102700000000000000000000000040404040404049
:102710004040000000000000000000000000000039
:102720000000404040904040400000000090000009
:102730004000000000900000400040404090000039
:102740004000000040900000400000004090000069
:102750004000000040900000400000004090909039
:1027600090909000009090909090900000900000C9
:102770004040900000900090909090000090009059
:102780004040900000900090400090000090009029
:102790009090900000900000400090000090909079
:1027A0009090909090909090909040404040404009
:1027B0004040900000000000000090404040404039
:1027C00040409000000000000000904040400000A9
:1027D00000004000004000000000900000400000A9
:1027E0000000909090909090909040000000000029
:1027F0000090000000000000009040404040404039
:102800004090000000000000009000000000000068
:1028100000900000000000000090009090900000E8
:102820000090000000400000000000000040000098
:102830000000000000400000000000000040000018
:102840000000000000400000000000000040000008
:102850000000000000400000000000000040404078
:1028600040404000004040404040400000400000E8
:102870000000400000400040404040000040004058
:1028800000004000004000400000400000400040C8
:102890004040400000400000000040000040404038
:1028A00040404040404040404040000000000000A8
:1028B0000000400000000000000040000000000098
:1028C0000000400000000000000040000000000088
:1028D00000000000000000000000400000000000B8
:1028E00000004040404040404040000000000000E8
:1028F0000040000000000000004000000000000058
:102900000040000000000000004000000000000047
:102910000040000000000000004000404040000077
:1029200000400000400000004000000040000000A7
:102930004000000040909090909000004090000077
:102940000000400040900000000040004090000067
:1029500040404000409000004000000040909090B7
:102960009090000000400000400000000040000087
:1029700040009090909090909040000000000000E7
:1029800090000000000000009000404040404040A7
:102990009040000000000000900090909090909077
:1029A00090009040404000000000900000000000B7
:1029B00000909040404000000090900000400000D7
:1029C00000909000009000900000904000900090D7
:1029D0000000904000400000000090909090909087
:1029E0009090900000009000009000000000009087
:1029F00000900000000040904090000000400090D7
:102A00000090900040009000009000909090000096
:102A100000900000400000000090909090909090F6
:102A20009090000000000000000000000000000086
:102A30000000000000404040404000000040000016
:102A40000000000000400000000000000040000006
:102A50000000000000400000000000000040404076
:102A600040400000000000000000000000000000E6
:102A70000000404040404040400000000000000096
:102A800040000000000000004000000000000000C6
:102A90004000000000000000400040404040404036
:102AA0004000400000000000000040000000000066
:102AB0000040400000000000004040000000000016
:102AC0000040400000400040000040000040004046
:102AD0000000400000000000000040404040404036
:102AE0004040400000004000004000000000004066
:102AF00000400000000000400040000000000040D6
:102B00000040400000004000004000404040000005
:102B100000400000000000000040404040404040B5
:102B200040405B5B5B5B5B5B5B5B0606065B0606D4
:102B30005B06065B065B5B5B5B5B065B060606068D
:102B40000606065B065B5B5B5B5B0606065B5B5B28
:102B50005B5B5B5B5B5B5B5B5B5B0606065B5B5BC4
:102B60005B5B5B5B5B5B5B5B5B5B065B06065B5BB4
:102B70005B5B5B5B5B5B5B5B5B5B060606060606A3
:102B80005B5B5B5B5B5B5B065B5B5B5B5B5B5B5BEA
:102B9000065B5B5B0606065B065B5B5B065B065BD8
:102BA0005B065B5B5B0606065B5B5B065B5B5B5B1E
:102BB0005B065B5B5B5B5B5B5B5B065B5B5B5B5B0F
:102BC0005B5B065B5B5B5B5B5B5B5B5B5B5B5B5BAA
:102BD0005B5B5B065B5B5B5B5B065B5B5B060606EE
:102BE0005B5B5B5B5B5B5B5B5B5B5B5B5B5B5B5B35
:102BF0005B5B5B5B5B5B5B5B5B5B065B5B06060679
:102C00005B5B065B5B065B065B5B5B5B065B5B06BD
:102C10005B5B5B5B065B065B5B5B5B065B5B065B58
:102C2000065B52525252525252520404045204044D
:102C300052040452045252525252045204040404E4
:102C40000404045204525252525204040452525286
:102C5000525252525252525252520404045252523E
:102C6000525252525252525252520452040452522E
:102C70005252525252525252525204040404040408
:102C80005252525252525204525252525252525272
:102C90000452525204040452045252520452045236
:102CA000520452525204040452525204525252528A
:102CB0005204525252525252525204525252525290
:102CC0005252045252525252525252525252525232
:102CD000525252045252525252045252520404045A
:102CE00052525252525252525252525252525252C4
:102CF00052525252525252525252045252040404EC
:102D00005252045252045204525252520452520429
:102D100052525252045204525252520452520452CB
:102D20000452065B065B5B5B5B5B065B065B5B5BA7
:102D30005B5B065B065B5B5B5B5B0606065B5B5B8C
:102D40005B5B5B5B5B5B5B5B5B5B0606065B5B5BD2
:102D50005B5B5B5B5B5B5B5B5B5B060606060606C1
:102D600006065B5B065B5B065B5B5B5B065B5B5B5C
:102D7000065B5B5B065B5B5B5B065B5B065B5B5BF7
:102D80005B5B5B5B065B5B5B5B5B5B5B065B5B5B3D
:102D90005B5B5B5B065B5B5B5B5B0606065B5B5BD7
:102DA0005B5B06065B5B5B5B5B065B5B065B060671
:102DB000065B065B5B5B065B5B5B5B06065B0606B6
:102DC00006065B5B065B5B5B5B5B5B5B065B060651
:102DD000065B5B5B065B065B065B5B5B065B065B41
:102DE0000606065B5B065B5B065B5B5B065B5B0686
:102DF000065B06065B5B065B065B5B5B5B5B065B21
:102E0000065B5B5B065B065B065B0606065B065BBA
:102E1000065B065B065B065B065B065B0606065BFF
:102E2000065B0452045252525252045204525252FD
:102E300052520452045252525252040404525252F8
:102E4000525252525252525252520404045252524C
:102E50005252525252525252525204040404040426
:102E600004045252045252045252525204525252C8
:102E7000045252520452525252045252045252526A
:102E800052525252045252525252525204525252BE
:102E9000525252520452525252520404045252524A
:102EA00052520404525252525204525204520404D6
:102EB0000452045252520452525252040452040414
:102EC00004045252045252525252525204520404B6
:102ED00004525252045204520452525204520452A6
:102EE00004040452520452520452525204525204E4
:102EF0000452040452520452045252525252045286
:102F00000452525204520452045204040452045211
:102F1000045204520452045204520452040404524F
:102F20000452065B5B5B5B5B5B5B065B5B5B5B5BFB
:102F30005B5B065B5B5B5B5B5B5B065B5B5B5B5B8B
:102F40005B5B065B5B5B5B5B5B5B065B5B5B5B5B7B
:102F50005B5B065B5B5B5B5B5B5B065B5B5B5B5B6B
:102F60005B5B5B5B5B5B5B5B5B5B06060606065B5A
:102F70005B5B065B5B5B065B5B5B06060606065BF4
:102F80005B5B5B5B065B065B5B5B5B5B065B065BE5
:102F90005B5B5B5B065B065B5B5B5B5B065B065BD5
:102FA0005B5B5B5B5B5B065B5B5B5B5B060606061A
:102FB000065B5B5B065B5B5B065B5B5B06060606B4
:102FC000065B5B5B065B5B5B5B5B5B5B060606064F
:102FD000065B5B5B065B5B5B5B5B5B5B065B5B5B40
:102FE0005B5B5B5B5B5B5B5B065B5B5B5B5B5B5B86
:102FF000065B5B5B5B5B5B5B065B5B5B5B5B5B5BCB
:10300000065B065B5B5B5B5B065B065B5B5B5B5B64
:10301000065B060606060606065B5B5B5B5B5B5BA8
:10302000065B04525252525252520452525252525F
:10303000525204525252525252520452525252520C
:1030400052520452525252525252045252525252FC
:1030500052520452525252525252045252525252EC
:1030600052525252525252525252040404040452C6
:103070005252045252520452525204040404045252
:103080005252525204520452525252520452045258
:103090005252525204520452525252520452045248
:1030A0005252525252520452525252520404040486
:1030B0000452525204525252045252520404040412
:1030C00004525252045252525252525204040404B4
:1030D00004525252045252525252525204525252BA
:1030E000525252525252525204525252525252520E
:1030F000045252525252525204525252525252524C
:1031000004520452525252520452045252525252D7
:1031100004520404040404040452525252525252FF
:103120000452065B5B5B5B5B5B5B065B5B5B5B5BF9
:103130005B5B065B5B5B5B5B5B5B065B5B5B5B5B89
:103140005B5B065B5B5B5B5B5B5B065B5B5B5B5B79
:103150005B5B065B5B5B5B5B5B5B06060606060612
:1031600006065B5B065B065B5B5B5B5B065B060602
:1031700006065B5B065B5B5B5B5B5B5B065B06069D
:103180005B065B5B065B065B5B065B5B065B0606E2
:103190005B065B5B065B5B5B5B5B0606065B5B5B28
:1031A0005B5B5B5B065B5B5B5B5B0606065B5B5BC3
:1031B0005B5B5B5B5B5B5B5B5B5B5B065B5B5B5BB4
:1031C0005B5B06065B5B5B5B5B5B5B065B5B5B5B4E
:1031D0005B5B5B5B5B5B5B5B5B5B5B5B5B5B5B5B3F
:1031E0005B5B5B5B5B5B5B5B065B5B5B5B5B5B5B84
:1031F000065B060606060606065B5B5B5B5B5B5BC7
:10320000065B5B5B5B5B5B5B065B060606060606B6
:10321000065B5B5B5B5B5B5B5B5B5B5B5B5B5B5B53
:103220005B5B045252525252525204525252525208
:10323000525204525252525252520452525252520A
:1032400052520452525252525252045252525252FA
:103250005252045252525252525204040404040470
:103260000404525204520452525252520452040460
:103270000404525204525252525252520452040402
:103280005204525204520452520452520452040440
:103290005204525204525252525204040452525294
:1032A0005252525204525252525204040452525236
:1032B000525252525252525252525204525252523C
:1032C00052520404525252525252520452525252C8
:1032D00052525252525252525252525252525252CE
:1032E000525252525252525204525252525252520C
:1032F000045204040404040404525252525252521E
:10330000045252525252525204520404040404040D
:1033100004525252525252525252525252525252DB
:1033200052520000000000000000000000000000F9
:10333000000000000000000000000000000000008D
:10334000000000000000000000000000000000007D
:10335000000000000000000000000000000000006D
:1033600000000000FFFFFF00000000FF0000FFFF63
:103370000000FFFF000000FFFF00FFFF000000FF54
:10338000FF00FFFF000000FFFF0000FFFF0000FF45
:1033900000000000FFFFFF00000000000000000030
:1033A0000000000000FFFF0000000000FFFFFF0022
:1033B0000000000000FFFF000000000000FFFF0011
:1033C0000000000000FFFF000000000000FFFF0001
:1033D000000000FFFFFFFFFFFF00000000000000F3
:1033E000000000FFFFFFFFFF0000FFFF000000FFE5
:1033F000FF0000000000FFFFFF000000FFFFFFFFD5
:10340000000000FFFFFFFF000000FFFFFF000000C3
:103410000000FFFFFFFFFFFFFF00000000000000B3
:10342000000000FFFFFFFFFFFF0000000000FFFFA4
:103430000000000000FFFF0000000000FFFFFFFF92
:1034400000000000000000FFFF00FFFF000000FF81
:10345000FF0000FFFFFFFFFF000000000000000072
:103460000000000000FFFFFF00000000FFFFFFFF63
:10347000000000FFFF00FFFF0000FFFF0000FFFF54
:103480000000FFFFFFFFFFFFFF0000000000FFFF45
:10349000000000000000FFFF00000000000000002E
:1034A0000000FFFFFFFFFFFF0000FFFF0000000024
:1034B0000000FFFFFFFFFFFF00000000000000FF13
:1034C000FF000000000000FFFF00FFFF000000FF02
:1034D000FF0000FFFFFFFFFF0000000000000000F2
:1034E00000000000FFFFFFFF000000FFFF000000E2
:1034F0000000FFFF000000000000FFFFFFFFFFFFD4
:103500000000FFFF000000FFFF00FFFF000000FFC2
:10351000FF0000FFFFFFFFFF0000000000000000B1
:103520000000FFFFFFFFFFFFFF00FFFF000000FFA5
:10353000FF0000000000FFFF0000000000FFFF0090
:1035400000000000FFFF000000000000FFFF00007F
:1035500000000000FFFF000000000000000000006D
:10356000000000FFFFFFFF000000FFFF000000FF62
:103570000000FFFFFF0000FF000000FFFFFFFF0053
:103580000000FF0000FFFFFFFF00FF00000000FF42
:10359000FF0000FFFFFFFFFF000000000000000031
:1035A000000000FFFFFFFFFF0000FFFF000000FF23
:1035B000FF00FFFF000000FFFF0000FFFFFFFFFF15
:1035C000FF000000000000FFFF0000000000FFFF00
:1035D000000000FFFFFFFF000000000000000000EF
:1035E00000000000FFFFFF00000000FFFF00FFFFE2
:1035F0000000FFFF000000FFFF00FFFF000000FFD2
:10360000FF00FFFFFFFFFFFFFF00FFFF000000FFC5
:10361000FF00FFFF000000FFFF00000000000000AF
:103620000000FFFFFFFFFFFF0000FFFF000000FFA3
:10363000FF00FFFF000000FFFF00FFFFFFFFFFFF95
:103640000000FFFF000000FFFF00FFFF000000FF81
:10365000FF00FFFFFFFFFFFF000000000000000071
:1036600000000000FFFFFFFF000000FFFF0000FF61
:10367000FF00FFFF000000000000FFFF000000004F
:103680000000FFFF00000000000000FFFF0000FF3F
:10369000FF000000FFFFFFFF00000000000000002F
:1036A0000000FFFFFFFFFF000000FFFF0000FFFF23
:1036B0000000FFFF000000FFFF00FFFF000000FF11
:1036C000FF00FFFF000000FFFF00FFFF0000FFFF03
:1036D0000000FFFFFFFFFF000000000000000000EF
:1036E0000000FFFFFFFFFFFFFF00FFFF00000000E3
:1036F0000000FFFF000000000000FFFFFFFFFFFFD2
:103700000000FFFF000000000000FFFF00000000BD
:103710000000FFFFFFFFFFFFFF00000000000000B0
:103720000000FFFFFFFFFFFFFF00FFFF00000000A2
:103730000000FFFF000000000000FFFFFFFFFFFF91
:103740000000FFFF000000000000FFFF000000007D
:103750000000FFFF0000000000000000000000006B
:1037600000000000FFFFFFFFFF0000FFFF00000060
:103770000000FFFF000000000000FFFF0000FFFF4F
:10378000FF00FFFF000000FFFF0000FFFF0000FF41
:10379000FF000000FFFFFFFFFF000000000000002F
:1037A0000000FFFF000000FFFF00FFFF000000FF20
:1037B000FF00FFFF000000FFFF00FFFFFFFFFFFF14
:1037C000FF00FFFF000000FFFF00FFFF000000FF01
:1037D000FF00FFFF000000FFFF00000000000000EE
:1037E0000000FFFFFFFFFFFF00000000FFFF0000E1
:1037F00000000000FFFF000000000000FFFF0000CD
:1038000000000000FFFF000000000000FFFF0000BC
:103810000000FFFFFFFFFFFF0000000000000000AE
:1038200000000000000000FFFF000000000000FF9B
:10383000FF000000000000FFFF000000000000FF8C
:10384000FF000000000000FFFF00FFFF000000FF7E
:10385000FF0000FFFFFFFFFF00000000000000006E
:103860000000FFFF000000FFFF00FFFF0000FFFF60
:103870000000FFFF00FFFF000000FFFFFFFF000050
:103880000000FFFFFFFFFF000000FFFF00FFFFFF42
:103890000000FFFF0000FFFFFF000000000000002D
:1038A0000000FFFF000000000000FFFF000000001C
:1038B0000000FFFF000000000000FFFF000000000C
:1038C0000000FFFF000000000000FFFF00000000FC
:1038D0000000FFFFFFFFFFFFFF00000000000000EF
:1038E0000000FFFF000000FFFF00FFFFFF00FFFFE1
:1038F000FF00FFFFFFFFFFFFFF00FFFFFFFFFFFFD6
:10390000FF00FFFF00FF00FFFF00FFFF000000FFC0
:10391000FF00FFFF000000FFFF00000000000000AC
:103920000000FFFF000000FFFF00FFFFFF0000FF9F
:10393000FF00FFFFFFFF00FFFF00FFFFFFFFFFFF94
:10394000FF00FFFF00FFFFFFFF00FFFF0000FFFF82
:10395000FF00FFFF000000FFFF000000000000006C
:10396000000000FFFFFFFFFF0000FFFF000000FF5F
:10397000FF00FFFF000000FFFF00FFFF000000FF4F
:10398000FF00FFFF000000FFFF00FFFF000000FF3F
:10399000FF0000FFFFFFFFFF00000000000000002D
:1039A0000000FFFFFFFFFFFF0000FFFF000000FF20
:1039B000FF00FFFF000000FFFF00FFFF000000FF0F
:1039C000FF00FFFFFFFFFFFF0000FFFF0000000000
:1039D0000000FFFF000000000000000000000000E9
:1039E00000000000FFFF00FFFF000000FFFF00FFDE
:1039F000FF000000FF0000FF0000000000000000CA
:103A000000000000000000000000000000000000B6
:103A100000000000000000000000000000000000A6
:103A20000000FFFFFFFFFFFF0000FFFF000000FF9F
:103A3000FF00FFFF000000FFFF00FFFF0000FFFF8F
:103A4000FF00FFFFFFFFFF000000FFFF00FFFFFF81
:103A50000000FFFF0000FFFFFF000000000000006B
:103A6000000000FFFFFFFF000000FFFF0000FFFF5E
:103A70000000FFFF00000000000000FFFFFFFFFF4D
:103A800000000000000000FFFF00FFFF000000FF3B
:103A9000FF0000FFFFFFFFFF00000000000000002C
:103AA0000000FFFFFFFFFFFF00000000FFFF00001E
:103AB00000000000FFFF000000000000FFFF00000A
:103AC00000000000FFFF000000000000FFFF0000FA
:103AD00000000000FFFF00000000000000000000E8
:103AE0000000FFFF000000FFFF00FFFF000000FFDD
:103AF000FF00FFFF000000FFFF00FFFF000000FFCE
:103B0000FF00FFFF000000FFFF00FFFF000000FFBD
:103B1000FF0000FFFFFFFFFF0000000000000000AB
:103B20000000FFFF000000FFFF00FFFF000000FF9C
:103B3000FF00FFFF000000FFFF00FFFFFF00FFFF8F
:103B4000FF0000FFFFFFFFFF00000000FFFFFF007E
:103B50000000000000FF0000000000000000000066
:103B60000000FFFF000000FFFF00FFFF000000FF5C
:103B7000FF00FFFF00FF00FFFF00FFFFFFFFFFFF51
:103B8000FF00FFFFFFFFFFFFFF00FFFFFF00FFFF42
:103B9000FF00FFFF000000FFFF000000000000002A
:103BA0000000FFFF000000FFFF00FFFF000000FF1C
:103BB000FF0000FFFF00FFFF00000000FFFFFF000D
:103BC000000000FFFF00FFFF0000FFFF000000FFFC
:103BD000FF00FFFF000000FFFF00000000000000EA
:103BE0000000FFFF0000FFFF0000FFFF0000FFFFDD
:103BF0000000FFFF0000FFFF000000FFFFFFFF00CD
:103C000000000000FFFF000000000000FFFF0000B8
:103C100000000000FFFF00000000000000000000A6
:103C20000000FFFFFFFFFFFFFF0000000000FFFF9D
:103C3000FF00000000FFFFFF00000000FFFFFF008B
:103C4000000000FFFFFF00000000FFFFFF0000007A
:103C50000000FFFFFFFFFFFFFF000000000000006B
:103C600000000000FFFFFFFF000000FF0000000059
:103C7000FF00FF0000FFFF0000FFFF00FF0000004B
:103C800000FFFF00FF00000000FFFF0000FFFF003B
:103C900000FF00FF00000000FF000000FFFFFFFF2B
:103CA0000000000000000000000000000000000014
:103CB0000000000000000000000000000000000004
:103CC000000000000000FFFF000000000000FFFFF8
:103CD0000000000000FFFF000000000000000000E6
:103CE00000000000000000000000000000000000D4
:103CF00000000000000000000000000000000000C4
:103D000000000000000000000000000000FFFF00B5
:103D10000000000000FFFF000000000000000000A5
:103D20000000000000000000000000000000000093
:103D30000000000000000000000000000000000083
:103D40000000000000000000000000000000000073
:103D50000000000000000000000000000000000063
:103D60000000000000000000000000000000000053
:103D70000000000000000000000000000000000043
:103D800000000000005800000000000000000000DB
:103D90000000000000000000000000000000000023
:103DA0000000000000000000000000000000000013
:103DB000000000E80000000000000000000000001B
:103DC00000000000000000000000000000000000F3
:103DD00000000000000000000000000000000000E3
:103DE00000000000000000000000000000000000D3
:103DF00000000000000000000000000000000000C3
:103E000000000000000000000000000000000000B2
:103E10000000000000000000000000000000000C96
:103E20001F1700000000000000000000000000005C
:103E30000000000000000000000000000000000082
:103E4000000000000000000B1F17000000000D5EC6
:103E5000E0E000000A170C01000017175690170049
:103E60000000000000000000000000000000000052
:103E7000000000000052F6F652005AF6B6ADADF65C
:103E8000A4005EF5B5B5ADADA4005C1717175EAC28
:103E90000800D8D8D8981717171700000117909066
:103EA000D0540000000000000000000000000000EE
:103EB0000000000000000000000000000000000002
:103EC00000000000000000000000000000000016DC
:103ED0001F17171717171792909017171790909092
:103EE00090900000000000000000000000000000B2
:103EF00000000000000000000000000000000000C2
:103F00000000000000000000000017171717171727
:103F1000171790909090909090909890909090908B
:103F200090900000000000171717000000171F9066
:103F300090900000179A90808098000C999090982B
:103F400090800154909090909090179090909090C5
:103F500090909017171753909090909090901517FD
:103F60001717171F0100000000009888171F000096
:103F70000000909880001F01000080909080001544
:103F8000000090804000400B0A009090988800004C
:103F90001500909098888000150090909888800077
:103FA0000A0C0000000000000000000000000000FB
:103FB000000000000000021F00000000000B1F9026
:103FC0001F0100000D5E9090901F00175C90909074
:103FD0009090179A9090909090900D9098909090CB
:103FE000909000000000165CE0D80000000B0B0071
:103FF00000000000000A0B0000900000000A0B0007
:1040000000900200000A0B0000001F0B0B170000BD
:104010000000905D0D000000000090905B17008094
:10402000D808D89890905401000048989898880D26
:10403000000098909880885B010E989088889890EE
:10404000175398909090901791904898909117904E
:1040500090900090521790888080000C1F90909054
:104060009090000B1F90988088980C5E989080909C
:1040700098905D88808090989080909090908080BB
:10408000809090909090909090549090909080908C
:104090009090909890809090909080804117171702
:1040A000171790909017919090908090990C80980D
:1040B000909890991700888080805B1700489890AE
:1040C000909017171748D8909888909090171717C6
:1040D0005390909090909090551717919080909059
:1040E00090909890808090989880989090988080F8
:1040F00080909890909090909090909090909090C8
:10410000809080809098908090909090808080980F
:104110009090171790909090808090901717175359
:104120009098889890909090909198908090989086
:1041300090909080909080909090909888809890A7
:10414000909090909090909090909090909880887F
:1041500098909098988088985217808080909817AF
:1041600016901790988880400A0B90171F888040FF
:104170000A0C909092178040150090909090171F15
:104180000100909090909053170090909090909094
:10419000911F17179190909090D090901717171625
:1041A00090900000000000000000000000000000EF
:1041B00000000000000000000000000000000000FF
:1041C000000000000000000000000D0000000000E2
:1041D00000005C17000000000000D0921F0C0000DF
:1041E00000000000000000000000000000000000CF
:1041F00000000000000000000000000000000000BF
:1042000000000000000000000000000000000000AE
:104210000000000000ADF6AD0000ADF6B6ADADF6A5
:10422000520000000000000000000000000000003C
:10423000000000000000000000000000000000007E
:10424000000000000000000000000000000000006E
:1042500000000000000D1F1F17000000175BD8D8DA
:104260009917000000000000000C00000000000092
:10427000000C000000000000010C00000000000025
:10428000010C0000000000000D0100000000000013
:104290000D010000000000020B00171F0A000B1F99
:1042A000D89802004898909090900A000048989002
:1042B0009090000000000098909000000000000026
:1042C00090900000000000000017000000000000B7
:1042D000179900000000021F989898D8E05B17D843
:1042E0009898909090911788904090905317171736
:1042F000801790151ED898171717175CD89898989C
:1043000098D89AD8989898989098909098989098CB
:10431000989898989090989898989898989898982D
:1043200098900E5D9090909090905B90808088988F
:1043300091175390909888431FD85D1716D0541743
:10434000999898D89A1F4B88A09898D85B438088F2
:10435000A098989855808090989898A055809890AB
:104360009090541717D8989898985CD898989898DF
:1043700098989090909898989898989898989090E5
:1043800090989898989898989890989898989898BD
:1043900098989898989898989898989898989890A5
:1043A0009090D8171754909090809898980C1F92DE
:1043B00080909898E05000175C909898E05000002A
:1043C0001516909098804000000B98900080808097
:1043D00000009098884080804000909090404080FD
:1043E000800090909090905517179090909090909A
:1043F00090909090909090988880808090909880F5
:1044000088989A908080808898901598909090983D
:104410008880024B9090909090980A4B909090904A
:1044200080901790901717909090901717919090F8
:104430009880989090909090909090909090909874
:1044400088809090909098888098809090988088AC
:104450009890908080808898988098909090909084
:1044600090909888809890521717808898909080A4
:104470004C80909890808053428090909090905D76
:10448000808090909090179198889888421F909083
:104490009098804C1FD090909098990D0000480003
:1044A00098801790D05C0E0000A417171717171FDD
:1044B000F5B680174A80421FF5AD8080174C8055B5
:1044C000B5AD808080150D55B6AD88808080431FC6
:1044D000F5A4888880808055A4A488989080805511
:1044E000A4ADA4B6ADADADAD5200ADA4B6AD5B52BA
:1044F0000000ADADA4A45B000000ADAD49A409006F
:104500000000A4A4A40000000000A4A4A4000000D3
:104510000000A4A40000000000005B0000000000F8
:10452000000000000000000000000000000000008B
:104530000001000000000000021F00000000000C4D
:104540001F90000000000E5DD898000000179BD857
:1045500098980000171F175DD898001F0000000BE7
:104560001F1700179AD8989898981798989898981D
:104570009898D8989898989098909098989098989B
:1045800090909890909898909090989898909898EB
:10459000909090989098908098901790A08888809C
:1045A000909098D8540D5ED898989098915CD8982F
:1045B00098989088889098989898909090909098D3
:1045C000981790909090909917989090909053177A
:1045D000D8989090905516E0B6F79090165DD8A3B5
:1045E000000098D85D16D8989898D8175CD89898F5
:1045F0009890175A98909890989899989898909819
:10460000989090909098989890989898989090906A
:1046100098985B00000000E09890AD090000000051
:10462000000098989890989890989890909898985A
:10463000989890989898909090989898989898981A
:104640009890989898909898989898989098989802
:104650009098909098989890989898E090909098CA
:104660009898D85C429098909090D85C42889090AE
:10467000908898544A9090908888989855909090F7
:10468000909098985B53909090909898D816179027
:1046900090909898989898171753989898989898F1
:1046A000D855889090909090909090909080809025
:1046B0009090989090888890909090909088889012
:1046C000909090909080809090909090909090900A
:1046D0009090909090909017171717171717179999
:1046E000D89890909080008080009090988840802A
:1046F000804B90909088171F171F9090901799D813
:1047000098D890911798989898981717D898909843
:104710009898989890909898909098989898909049
:104720009898158088989080909842808080809892
:10473000989016808090908080809917171792909B
:104740009090989898D816171716989898989898BF
:10475000D89A98989898989898989898989898909F
:104760009098908090909090988080909090908079
:1047700080929890909090909815908080989080DA
:10478000530B90988880805C170017171790155569
:10479000D09098D8801753909090988017929090CE
:1047A00090904C010000000000800C000000000010
:1047B0000088000000000000005000000000000021
:1047C00000000000000000000000000000000000E9
:1047D0000000900000000000000090980000000021
:1047E0000000909890808056AD5298908080805EB6
:1047F000510090808080800D000080808080801536
:10480000000080808080801500008080808080157E
:104810000000808080808015000080408080800DB6
:1048200000A40000000000000000000000000000E4
:104830000000000000000000000000000000000078
:1048400000000000000000000000000000ADF6AD18
:104850000000ADF6B6ADADF65200A4B6ADADADAD4F
:104860005200000000000000000A000000000000EC
:104870000B170000000000000B0200000000000009
:104880000B02000000000000031300000000000005
:1048900052F600000000005BF6AD00000000ADFF26
:1048A000F6AD1F0000000000000000000000000046
:1048B00000000000ADF6F65B000000B6B6B6A4AD91
:1048C000F6F6F6ADADA4ADADB6ADADADA4ADADF6FD
:1048D000A400ADA4ADADF65B00A4A4ADADF652004E
:1048E00000000055808880888090000B928088802E
:1048F00098900000158888989117F600025B9890B0
:10490000420C000000158880820CAD0000014C8034
:10491000820C000000014C801500000000014C805A
:10492000150090175BD8E2090C1717999898E213B5
:10493000171798D89898E2131717000090E0E0A294
:104940000C17000000000009FEF600000000000047
:104950000000000000000000000000000000000057
:10496000000052AC0000000000005FAD52000000EB
:1049700000005FF5520000000000AE0900000000DA
:104980000000000000000000000000000000000027
:104990000000000000000000000000000000000017
:1049A000000000000008E098909000000000000067
:1049B000009800000000000000000000000000005F
:1049C00000000000000000000000000000000000E7
:1049D00000000000000000000000000000000000D7
:1049E0000000989898909898989898909898989887
:1049F0009898000000D890909898000049FFB60061
:104A0000909000005B0000AD0100005B080D1752A4
:104A1000A400005A53171767AD49005A13171767B8
:104A2000AD49989898989898989898989898989840
:104A30009090989098989898989890989898989816
:104A4000989800489890989898980000809098902E
:104A50009098000080808088A098000080808080EE
:104A600080809898989898989898989898909898FE
:104A700090909090909898989898989898989898DE
:104A800098989098989898989898989898989898AE
:104A90009090909098989890985B9898909090D8D3
:104AA0005D16989898989098A0909898989098A04B
:104AB000904290909098A088441F989898A0800E5B
:104AC0001D9090981717175390909A179898989848
:104AD000989817D8989898989898D8989898989857
:104AE000989041179880889890901F90909880880F
:104AF00090809090909098888098909090909090CE
:104B000098809088809080908090989888809080FD
:104B100090909090989080909090989088809888AD
:104B20009090809090000000000098888098480045
:104B300000008880989098500000889890909098F5
:104B400090009890909098904000909090988880D5
:104B5000400090909888808040009098808080806D
:104B6000400080408080805EB6B6800040808089B2
:104B7000B6AD800040808089B6AD80000080808026
:104B80009BB68000008088809CAD8000008088807B
:104B900080A480000040908080AD80000040408074
:104BA0008040ADA4B6AD5B520000ADADA4A45B00E7
:104BB0000000ADAD49A409000000A4A4A4000000B9
:104BC0000000A4A4A40000000000A4A400000000B1
:104BD00000005B000000000000000000000000007A
:104BE00000000000000000000009000000000000BC
:104BF000000000000000000040800000000000AC49
:104C0000909800000049ADB6B689000051ADB6AD30
:104C1000B6A4009A6617A3B5ADA5485F171717A4E9
:104C2000A4ADF6B6F6090000A400000000005B5B2E
:104C300052000000005BB6B65B00880009F6AD527A
:104C40005BF6904000A44900A4A4804000005BF6FD
:104C50005B00894009F6AD525200890000A4520061
:104C60000000000000014C801500000000014C8095
:104C70001500F60000014C4A0B00A40000014C8A0C
:104C80000B00000000014C8A0B00000000014C8A60
:104C90000B00000000014C0C0000000000014C0C57
:104CA0000000000000000000000000000000000004
:104CB00000000000000000000000000000000000F4
:104CC000000000000000000000E000000000000004
:104CD00000000000000000000000000000000000D4
:104CE000000000000048E09898E0000050E098982C
:104CF00098980090E0989098989898E09890989854
:104D00009898E0989898989890900090E098989843
:104D100098980000000000E0989800000000000053
:104D2000000008000000000000009898E0980000D3
:104D30000000989898989898E0009898989890987B
:104D4000989898989890989898A0909090989898FB
:104D5000A080989898989898808098E098A09880DB
:104D6000809800009A0D17AD0000000049FFF60082
:104D700000000000000000000000E09000000000C3
:104D8000000088800000000000008040000000005B
:104D90000000985000000000000088400000000063
:104DA00000000000808080804050000080808040B3
:104DB000009800008080400090E0004080400008A3
:104DC0009890004040000098D8D80000000000985B
:104DD000E05D000000000000160C0000000000175D
:104DE0000B00A0989898D8175CD89898909817526C
:104DF000909098909817999898989899179898984B
:104E000098989B17171799D898980E000000171FAD
:104E10001755000000000000000B0000000000001B
:104E20000000989898909898909098989098909062
:104E3000909090909890909090909898909898904A
:104E40009090989098809090909098988088809872
:104E50009090928088888088989015888880909813
:104E60009890889088988890889890988890908852
:104E70009890909098808898908090909890808852
:104E8000809090909840008098889090804000801A
:104E90004080908080400080408080808040008002
:104EA00040809080808080804000808890808080DA
:104EB0004000909080808088984048408080889012
:104EC000804040408090888080404080504080807A
:104ED0008040409880008080804098808040808022
:104EE0008040800000004000804080000000808002
:104EF000808080000000408040008000000040155D
:104F00000000800000408015000080004080801577
:104F10000000808080808015000080808080801567
:104F20000000520C1717175DAC00520D1F17175DCC
:104F3000000052001717175E0000495103171F5158
:104F40000000009B5208A4000000000052A40000D2
:104F5000000000000000000040800000000000ACE5
:104F60009098000000000000000000000000000019
:104F7000000000000000000049AD0000000000003B
:104F80000000000000000000A400000000005B5BC7
:104F900052004000005BB6B65B00880009F6AD52D7
:104FA0005BF6000000014C0C0000AD0000014C0C51
:104FB0000000000000001F010000000000001F01B1
:104FC0000000000000001F000000000000001F1F84
:104FD0001700F60000014C80801FA40000014C80E7
:104FE000170C00000000000000980000000000986E
:104FF000E098000000000000009800000000000899
:10500000E00000000000000000E0000000000000E0
:1050100000401F1F0A00000000400000161F16007D
:105020000040E04800000000000098A0E0400000C0
:105030000000E08880400090D89000408040000050
:105040000048004080400000000000408000000058
:1050500000000040800000000000004080000000D0
:105060000098000000008090A048000000008088A8
:1050700080900000000080808040D8D85000808060
:1050800080800000404040808080000040404080A0
:105090008080000040404080808090004040408000
:1050A0008080804000000000000040000000000000
:1050B0000000400000000000000080000000000030
:1050C0000000800000000000000040000000000020
:1050D0000000400000000000000040000000000050
:1050E000000000000000000D000000000000000DA6
:1050F000005B00000000000CA3F60000000000AD03
:10510000B6AD00000000B6B6ADA4000009FFF6F68B
:10511000A4AD000000000000A4F6000000000000A4
:10512000000052F6F6F600000000F6ADADA4ADF6B4
:10513000FFA4ADADA4ADADF65200ADA4ADADF6008B
:10514000525BA4ADADF6005B5200B6B6AD000000F8
:105150000000F6AD000052520000000000A4520909
:105160000000025380909898888000159890988845
:10517000808000015C988080808000000C818080AD
:10518000808000000C818080808000000C81808005
:10519000889800000C818088988000000C8190988D
:1051A00080908080804000804898808080904888EF
:1051B000908080809890000080808098908000404F
:1051C0008080988880800040808088808080004037
:1051D0008080808080800040808088808080004047
:1051E000808080808040808080408080804080807F
:1051F00040408080804080404040808080408040AF
:10520000800080808040804A1F1F808080404D1633
:105210000000808080160D0000008080170B0000C9
:105220000000808080801F0200008080811F0000BD
:105230000000804A1F00000000004C170000000022
:1052400000000D0000000000000000000000000051
:10525000000000000000000000000000000000004E
:10526000000000000049ADB6B689000051ADB6ADF2
:10527000B6A4009A6617A3B5ADA5485F171717A483
:10528000A4AD520C1717175DAC00520D1F17175D18
:10529000000052001717175E0000495103171F51F5
:1052A0000000904000A44900A4A4804000005BF6E8
:1052B0005B00894009F6AD525200890000A45200FB
:1052C0000000000000000000000000000000001FBF
:1052D0001F1F000000000000000000000000000090
:1052E0000000000000014C170A00000000001F0130
:1052F00000000000011F00000000000B170000006C
:10530000000015160000000000000C000000000066
:10531000000000000000000000000000000000008D
:1053200000000040800000000000008040000000FD
:10533000000000000000000000000000000000006D
:10534000000000000000000000000000000000005D
:10535000000000000000000000000000000000004D
:10536000000040404080408080804040408080007D
:1053700000804040408080808000004040808080ED
:1053800000000000808080008015000080400080C8
:10539000000100004000800000000000408000008C
:1053A00000004000000000000000000000000000BD
:1053B00000000000000000000000000000000000ED
:1053C000000000000000000000001F1F1600000089
:1053D000005B00000A1F1F1F525100000000000068
:1053E0005E5200000000008080000000005BA3907F
:1053F000904000005BADB6A4888800A4B5B5ADB6FA
:105400008980AC175DACB6A4A4801F17175DA3A458
:10541000A44017171717A45B00001717171F520097
:1054200000000000ADF6AD005BA400A4F6A409B630
:10543000B65B0009A40000AD5200000000F6AD0903
:10544000000000A4F6A4524900000009AD000000CD
:10545000000000000000000000000000000000004C
:105460005B5B00000C899080984000000C414098E4
:10547000404000000C414040404000000C41404092
:10548000404000000C414040408000000C41404042
:10549000804000000C414080400000000C41400072
:1054A00040808080808000408080808080800040BC
:1054B00080818080800000404A1F80800040404CF6
:1054C000170080008080561500000080808040001A
:1054D0000000808080170B00000080801F02000009
:1054E0000000801F0100000000001F0000000000FD
:1054F00000000000000000000000000000000000AC
:10550000000000000000000000000000000000009B
:10551000000000000000000000000000000000008B
:105520000000009B5208A4000000000052A40000EC
:10553000000000000000000000000000000000006B
:10554000000000000000000000000000000000005B
:10555000000000000000000000000000000000004B
:1055600000000000000000004949000000000000A9
:10557000005A0000000000000000000000000000D1
:10558000000000000000000000000000000000001B
:10559000000000000000000000000000000000000B
:1055A00000000B1F171F5A0000000017175D0000B6
:1055B0000000AD00A3520000000000AC4900000054
:1055C000000000000000008080000000005BA3904D
:1055D000904000005BADB6A4888800A4B5B5ADB618
:1055E00089800000000000A45200000000000000BC
:1055F00000000000000052520000000000A4520908
:1056000000000009ADF6AD005BA400A4F6A409B645
:10561000B65B0009A40000AD5200000000F6AD0921
:10562000000000000C410080808000000C81808020
:10563000804A00000C8180804C1700000C8180168D
:10564000154000000C80174C808000000C1F428029
:10565000408000000C814040800000160C0040405B
:105660008040811F0000000000001F0000000000BB
:10567000000000000000000000008040000000006A
:10568000000080400000000000004000000000001A
:10569000000000800000000000008080400000004A
:1056A00000000000000000000000000000000000FA
:1056B000005B0000000000004952000000000000F4
:1056C00049520000000000004949000000000000AD
:1056D000005A000000000000000000000000000070
:1056E0000000AC175DACB6A4A4801F17175DA3A47F
:1056F000A44017171717A45B00001717171F5200B5
:1057000000000B1F171F5A0000000017175D000054
:105710000000AD00A3520000000000A449000000FA
:10572000000000A4F6A4524900000009AD000000EA
:10573000001F00000000171F1F00000000000000F5
:105740000000000000000000000000000000000059
:105750000000000000000000000000000000000049
:105760000000170A00004040808001000000404017
:1057700080800000000000404080000000000040E9
:105780004080000000000000408000000000000099
:105790004080000000000000000000000000000049
:1057A0000000808040000000000080808000000039
:1057B0000000808080000000000080804000000029
:1057C00000008040000000000000400000000000D9
:1057D00000000000000000000000000000000000C9
:1057E00000000E0A00010200000304050607080974
:1057F0000000000000000A0B0C0D0E0F1011121318
:1058000000001415161718191A1B1C1D1E1F002046
:105810002122232425262728292A2B2C2D2E2F3000
:105820003132333435363738393A3B3C3D3E3F40F0
:10583000414243444546470048494A4B4C4D4E4F30
:105840005051525354005556570058595A5B5C5D9D
:105850005E5F00006000000000006162636465003C
:105860000000000000000000666768696A00000030
:10587000FEFFFFFFFEFEFEFEFFA8F8F8FFFEFEFEA5
:10588000FFA8F8F8FFFEFEFEFFA8A8A8FF0000FE94
:10589000FEFFFFFF00000000FEFEFE000000000013
:1058A000FEFEFE0000000000FEFEFEFE000000FE08
:1058B0003FFEFEFEFEFEFE3FFFFEFEFEFEFEFEFF84
:1058C0003FFEFEFEFEFEFE3FFFFEFEFEFEFEFEFF74
:1058D0003FFEFEFEFEFEFE3FFFFEFEFEFEFEFEFF64
:1058E0003FFEFEFEFEFEFE3FFFFEFEFEFEFEFEFF54
:1058F00000000000000000000000000000000000A8
:105900000000000000000000000000000000000097
:105910000000000000000000000000000000000087
:105920000000000000000000000000000000000077
:10593000FE2D3FFEFEFEFEFE2D3F3F3FFEFEFEFE25
:105940002D3F3F3F2DFEFEFE2D3F3F3F2DFEFEFE35
:105950002D3F3F3F2DFEFEFEFE2D3F2DFEFEFEFEA7
:10596000FEFEFEFEFEFEFEFEFEFEFEFEFEFEFEFE57
:10597000FE2D3FFEFEFEFEFE2D3F3F3FFEFEFEFEE5
:105980002D3F3F3FFEFEFEFEFE2D3F2DFEFEFEFEA6
:10599000FEFEFEFEFEFEFEFEFEFEFEFEFEFEFEFE27
:1059A000FEFEFEFEFEFEFEFEFEFEFEFEFEFEFEFE17
:1059B000FEFEFFFFFFFEFEFEFEFFFEFEFFFFFEFE01
:1059C000FFFFFEFEFEFFFFFEFFFFFEFEFEFFFFFEEF
:1059D000FFFFFEFEFEFFFFFEFEFFFFFEFEFFFEFEE0
:1059E000FEFEFFFFFFFEFEFEFEFEFEFEFEFEFEFED4
:1059F000FEFEFEFFFFFEFEFEFEFEFFFFFFFEFEFEC2
:105A0000FEFEFEFFFFFEFEFEFEFEFEFFFFFEFEFEB2
:105A1000FEFEFEFFFFFEFEFEFEFEFEFFFFFEFEFEA2
:105A2000FEFFFFFFFFFFFFFEFEFEFEFEFEFEFEFE90
:105A3000FEFFFFFFFFFFFEFEFFFFFEFEFEFFFFFE7D
:105A4000FEFEFEFEFFFFFFFEFEFEFFFFFFFFFEFE6F
:105A5000FEFFFFFFFFFEFEFEFFFFFFFEFEFEFEFE5F
:105A6000FFFFFFFFFFFFFFFEFEFEFEFEFEFEFEFE4F
:105A7000FEFFFFFFFFFFFFFEFEFEFEFEFFFFFEFE3E
:105A8000FEFEFEFFFFFEFEFEFEFEFFFFFFFFFEFE30
:105A9000FEFEFEFEFEFFFFFEFFFFFEFEFEFFFFFE20
:105AA000FEFFFFFFFFFFFEFEFEFEFEFEFEFEFEFE11
:105AB000FEFEFEFFFFFFFEFEFEFEFFFFFFFFFEFEFF
:105AC000FEFFFFFEFFFFFEFEFFFFFEFEFFFFFEFEEE
:105AD000FFFFFFFFFFFFFFFEFEFEFEFEFFFFFEFEDD
