:100000000C94C32C0C943B2D0C943B2D0C943B2D49
:100010000C943B2D0C943B2D0C943B2D0C943B2DC0
:100020000C943B2D0C943B2D0C943B2D0C943B2DB0
:100030000C943B2D0C94992D0C94D92D0C943B2DA4
:100040000C943B2D0C943B2D0C943B2D0C943B2D90
:100050000C943B2D0C943B2D0C943B2D0C943B2D80
:100060000C943B2D0C943B2D0C943B2D0C943B2D70
:100070005A5501200101003808000000000000006E
:100080000000000000000000000000000000000070
:100090008100450027FF24FF2A902B1C210C22FB06
:1000A000C110C206C438850084008903888D810987
:1000B0006F02444247004501B083B300B1012511EE
:1000C0008A4F8B03D430D730D830DD30E630EE3075
:1000D000F330F830FB300D3110311331573100401F
:1000E0008891D2E4ADB5B6BEBFFF00B0075A00B1EB
:1000F000076500C20000B2076500C30100B30750E6
:1001000001C200009230760CC3010293247610C124
:10011000000291377620370004387622C000029022
:100120003F76812692300007913800079324000023
:1001300092307612903F0000932476129136761F0B
:10014000360005377624903E768122923000129355
:100150002400009137000092307612903E00009308
:100160002476129136761F360005377624903D7638
:1001700081229230001293240000913700009230C7
:100180007612903D0000932476129135761F35004B
:1001900005377624903C7681223C00099230000994
:1001A00093240000903F7B0092307B1293247B1FAE
:1001B000903F00053E7B0E3E00043C7B0E3C00045D
:1001C0003E7B0E3E00043F7B0E3F0004437B0F93BB
:1001D000240003904300009230000090467B009280
:1001E0003E7B09932B7B2D90460000457B0F4500FD
:1001F00003437B11430001457B0E450004467B0D04
:100200009137000290460002923E0000904A7B0522
:10021000913E76003E760C932B0001904A00004DF3
:100220005C00923A7B09932E766A913E00093E006B
:1002300009904D0009932E0005923A000090417BF1
:10024000009139760092327B0993267B28904100F9
:1002500005407B0F4000033E7B0D3E0005407B0DBB
:10026000400005417B0F410003457B0C93260001B4
:100270009232000290450003487B0092407B099334
:100280002D7B2B90480002477B0E470004457B0FD7
:10029000450003477B0E470004487B0E480004914D
:1002A000390000904C7B0992400009904C0000936B
:1002B0002D000090436A00913C760092307B1293AF
:1002C000247B6C9043000492300005913C0009931C
:1002D00024000092307912932479129137791F37D4
:1002E0000005387924903F7981259230000F9324BE
:1002F00000009138000092307912903F0000932462
:1003000079129136791F360004377924903E79812D
:10031000279230000D91370000923079019324002C
:1003200011903E0000932479129136792036000412
:10033000377924903D7981269230000C9324000275
:100340009137000092307912903D00009324791289
:1003500091357920350004377924903C79813093A8
:100360002400049230000091370000903C0000FF10
:100370002F00000203000700000940000A1E0100D0
:10038000140500000106000100FB01FF000700004A
:100390000940000A1E0100140500000106000100CA
:1003A000FB01FF0000007203000000000200718CDE
:1003B000030000000128001C0000000000000000F5
:1003C000000000000000000000000000000000002D
:1003D00000010002000300040005000600070008F9
:1003E0000009000A000B000C000D000E000E000EAC
:1003F000000F0010000000000000000000000000DE
:1004000000000000000000000000000000000000EC
:1004100000000000000000000000000000000000DC
:100420000011000000000000000000000012001396
:100430000014001500160017001800190000000035
:100440000000001A00000000000000000000000092
:10045000000000000000000000000000000000009C
:10046000000000000000000000000000000000008C
:10047000001B001C001D001E001F00200021002288
:100480000023002400250026002700280000002962
:10049000002A001A00000000000000000000000018
:1004A000000000000000000000000000000000004C
:1004B00000000000000000000000002B002C002DB8
:1004C000002E002F003000310032003300340035A0
:1004D0000036003700380039003A003B003C003D50
:1004E000003E003F0000000000000000000000008F
:1004F00000000000000000000000000000000000FC
:1005000000000000000000400041004200430044A1
:1005100000450046004700480049004A004B004C97
:10052000004D004C004E004C004F00500051005256
:100530000053005400000000000000000000000014
:1005400000000000000000000000000000000000AB
:10055000000000000000005500330056005700580E
:100560000059005A005B005C005D005E005F0060A7
:100570000061004C004C004C0062006300640065A8
:100580000066001A000000000000000000000000EB
:10059000000000000000000000000000000000005B
:1005A000000000000000006700680069006A006B3E
:1005B000006C006D0033006E006F007000710072FF
:1005C000007300740075004C0076007700780079A5
:1005D000007A007B00000000000000000000000026
:1005E000000000000000000000000000000000000B
:1005F0000000000000000000007C007D007E007F05
:1006000000800081008200830084008500860087CE
:1006100000880089008A008B008C008D008E008F7E
:1006200000900091000000000000000000000000A9
:1006300000000000000000000000000000000000BA
:1006400000000000000000000000000000000000AA
:10065000000000000000000000000000000000009A
:10066000000000000000000000000000000000008A
:10067000000000000000000000000000000000007A
:10068000000000000000000000000000000000006A
:10069000000000000000000000000000000000005A
:1006A000000000000000000000000000000000004A
:1006B00000920093009400950096009700000000BF
:1006C000000000000000000000000000000000002A
:1006D000000000000000000000000000000000001A
:1006E000000000000000000000000000000000000A
:1006F000000000980099009A009B009C009D009EBD
:10070000009F00A000A100A200A300A400A500A6D5
:1007100000A700A80000000000000000000000008A
:1007200000000000000000000000000000000000C9
:1007300000000000000000000000000000000000B9
:10074000000000A900AA00AB00AC00AD00AE00AFF5
:1007500000B000B100B200B300B400B500B600B7FD
:1007600000B800B900000000000000000000000018
:100770000000000000000000000000000000000079
:100780000000000000000000000000000000000069
:100790000000000000000000000000000000000059
:1007A000000000BA00BB00BC000000000000000018
:1007B0000000000000000000000000000000000039
:1007C0000000000000000000000000000000000029
:1007D0000000000000000000000000000000000019
:1007E0000000000000000000000000000000000009
:1007F00000000000000000000000000000000000F9
:1008000000000000000000000000000000000000E8
:1008100000000000000000000000000000000000D8
:1008200000000000000000000000000000000000C8
:1008300000000000000000000000000000000000B8
:1008400000000000000000000000000000000000A8
:100850000000000000000000000000000000000098
:100860000000000000000000000000000000000088
:100870000000000000000000000000000000000078
:10088000000000BD00BE00BF00C000C100C200C328
:1008900000C4000000C500C600C700C800C900CAE7
:1008A00000CB00000000000000000000000000007D
:1008B0000000000000000000000000000000000038
:1008C0000000000000000000000000000000000028
:1008D0000000000000000000000000000000000018
:1008E0000000000000000000000000000000000008
:1008F00000000000000000000000000000000000F8
:1009000000000000000000000000000000000000E7
:1009100000000000000000000000000000000000D7
:1009200000000000000000000000000000000000C7
:1009300000000000000000000000000000000000B7
:1009400000000000000000000000000000000000A7
:100950000000000000000000000000000000000097
:100960000000000000000000000000000000000087
:100970000000000000000000000000000000000077
:100980000000000000000000000000000000000067
:100990000000000000000000000000000000000057
:1009A0000000000000000000000000000000000047
:1009B0000000000000000000000000000000000037
:1009C0000000000000000000000000000000000027
:1009D0000000000000000000000000000000000017
:1009E0000000000000000000000000000000000007
:1009F00000000000000000000000000000000000F7
:100A000000000000000000000000000000000000E6
:100A100000000000000000000000000000000000D6
:100A200000000000000000000000000000000000C6
:100A300000000000000000000000000000000000B6
:100A400000000000000000000000000000000000A6
:100A50000000000000000000000000000000000096
:100A60000000000000000000000000000000000086
:100A70000000000000000000000000000000000076
:100A80000000000000000000000000000000000066
:100A90000000000000000000000000CC00CD00CEEF
:100AA00000CF00D000D100D200D3000000D400D588
:100AB00000D600D700D800D900DA00DB00DC00DD6A
:100AC00000DE00DF00E000E100E200E300E400E51A
:100AD000000000E600E700E800E900EA00EB00ECB7
:100AE00000ED00EE00EF000000000000000000003C
:100AF00000000000000000000000000000000000F6
:100B000000000000000000000000000000000000E5
:100B100000000000000000000000000000000000D5
:100B200000000000000000000000000000000000C5
:100B300000000000000000000000000000000000B5
:100B400000000000000000000000000000000000A5
:100B50000000000000000000000000000000000095
:100B60000000000000000000000000000000000085
:100B70000000000000000000000000000000000075
:100B80000000000000000000000000000000000065
:100B90000000000000000000000000000000000055
:100BA0000000000000000000000000000000000045
:100BB0000000000000000000000000000000000035
:100BC0000000000000000000000000000000000025
:100BD0000000000000000000000000000000000015
:100BE0000000000000000000000000000000000005
:100BF00000000000000000000000000000000000F5
:100C000000000000000000000000000000000000E4
:100C100000000000000000000000000000000000D4
:100C200000000000000000000000000000000000C4
:100C300000000000000000000000000000000000B4
:100C400000000000000000000000000000000000A4
:100C50000000000000000000000000000000000094
:100C60000000000000000000000000000000000084
:100C70000000000000000000000000000000000074
:100C80000000000000000000000000000000000064
:100C90000000000000000000000000000000000054
:100CA0000000000000000000000000000000000044
:100CB00000000000000000000000000000000A0C1E
:100CC0000C0000000B0D0C0000000B0C00000000DD
:100CD0000B0C000000000B0B0000000000000000E7
:100CE0000000000000000000000000140C14140CB0
:100CF000140B0B0B0B0B0B0000000000000000009E
:100D000000000000000000000000000000000000E3
:100D100000000000000000000000000C0C0C0C0C97
:100D20000C0B0B0B0B0B0C00000000000000000074
:100D300000000000000000000000000000000000B3
:100D400000000000000000000000000C0C14140C57
:100D50000C0B0B0B0B0B0B00000000000000000045
:100D60000000000000000000000000000000000083
:100D700000000000000000000000000C0C0C0C142F
:100D8000140B0C0B0B0B0B0000000000000000000C
:100D90000000000000000000000000000000000053
:100DA00000000000000000000000000C0C14140CF7
:100DB0000C0B0B0C0C0C0C000000000000000000E1
:100DC0000000000000000000000000000000000023
:100DD00000000000000000000000000C140C0C0CCF
:100DE000140C0C0C0C141400000000000000000097
:100DF00000000000020E0D0D0E00000000000000BB
:100E0000000000000000000000000014140C0C0C96
:100E10000C140C0D0D0D0C00000000000000000073
:100E20000000000C0201020D0E0000000000000096
:100E300000000000000000000000000C0C0C141466
:100E40001414141514141400000000000000000015
:100E5000000000050D02010000000000000000007D
:100E6000000000000000000000000014141414141E
:100E700014141415151515000000000000000000E2
:100E80000000000000000000000000000000000062
:100E900000000000000000000000001414141414EE
:100EA00014141414141414000000000000000000B6
:100EB0000000000000000000000000000000000032
:100EC00000000000000000000000001414141414BE
:100ED0001414141514151500000000000000000083
:100EE0000000000000000000000000000000000002
:100EF000000000000000000000000014141414148E
:100F00001415141414151500000000000000000052
:100F100000000000000000000000000000000000D1
:100F2000000000000000000000000014141414145D
:100F3000141515151515150000000000000000001F
:100F400000000000000000000000000000000000A1
:100F50000000000000000000000000141414140C35
:100F60000C151515151515000000000000000000F7
:100F70000000000000000000000000000000000071
:100F800000000000000000000000000C0C140B002A
:100F9000001555151600000000000D0000000000AF
:100FA0000C00000000000D00000000000B0B000012
:100FB00000000B0B000000000B0B000000000B0BEF
:100FC000000000000B0B000000000B0B00000000F5
:100FD0000B0B000000000B0B0000010F0F0F0F00A8
:100FE000010F0F0E0F00010F0F0F0F00000D0F0F5D
:100FF0000F0000010D0E0E0000030E0E0D00000D7F
:101000000F0F0E00000D0F0F0F0F0F0E0E0F0F0F13
:101010000F0F0F0F0F0F0F0F0F0F0F0F0F0E0E16DB
:101020000F0F0F0F0200020E0F0F0100000E0F0F27
:101030000200010F0F0E0100010F0F0F0E0C000F29
:101040000F0E0E0E0D0F0F0E0E0E0F0F0F0F0F0EB9
:101050000F0E0F0F0F0E0C0E0F0F0F0F0E0E0F0FA8
:101060000F0F0F0E0F0F0F0F0F00000000000000FA
:1010700000000000000300000000000D0000000060
:10108000000B0001020D0E0E0D0E0F0F0F0F0F0FB4
:101090000F0F0F0F0F0F0F0F0F00000000000000C9
:1010A0000000000000000000000000000000000040
:1010B000000E0E0E0E03000F0F0F0F0F0E0F0F0F6F
:1010C0000F0F0F0E0E0F0F0F0F000000000000009B
:1010D0000000000000000000000000000000000010
:1010E000000000000000010C0000010C0E0F0C02BB
:1010F0000E0F0F0F0F0F0F0F0F000000000000006A
:1011000000000000000000000000000000000000DF
:10111000000C0E0E0D0D0C0F0F0F0E0E0E0F0F0FFD
:101120000E0E0E0F0F0F0E0F0F000000000000003C
:1011300000000000000000000000000000000000AF
:10114000000201000000000E0E0D0100000E0F0F46
:101150000E01000F0F0F0F01000000000C00000037
:1011600000000C00000000000C00000000000C005B
:10117000000000000C00000000000C000000000057
:101180000C00000000000C00000000000B0B000031
:1011900000000B0B000000000B0B000000000B0B0D
:1011A000000000000B0B000000000B0B0000000013
:1011B0000B0B000000000C0B000000000000000002
:1011C000000000000000000000000000010001031A
:1011D00004020F0E0E0F0F020F0F0F0F0F010F0F54
:1011E0000F0F0F010F0F0F0F0F0000000000000086
:1011F0000000000000000000000000040D0D0D03C1
:10120000020F0F0F0F0F0E0F0F0F0F0F0F0F0F0FFC
:101210000F0F0F0F0F0F0F0F0F0000000000000047
:1012200000000000000000000000000203030104B1
:10123000040F0F0F040F0F0F0F0F0E0F0F0F0F0FD5
:101240000F0F0F0F0F0F0F0F0F0000000000000017
:10125000000000000000000000000003040403017F
:10126000000F0F0F0F0E0D0F0F0F0F0F0E0F0F0FA1
:101270000F0F0F0F0F0F0F0F0F00000000000000E7
:10128000000000000000000000000000000000005E
:10129000000201000000000E0E0D0300000F0F0FF2
:1012A0000F0B000F0F0F0F0E0200000D0F0F0F009E
:1012B000000D0F0F0F00000D0F0F0F00000D0F0F8F
:1012C0000F00000C0F0F0F00000D0F0F0F00000D8F
:1012D0000F0F0F00000D0F0F0F0F0F0F0100010F69
:1012E0000F0E0100000F0F0E0100000F0F0F010085
:1012F000000F0F0E0100000F0F0C0000000F0F0C6D
:101300000000000F0F0F0200020E0F0F0F0F0F0E45
:101310000F0F0F0F0F0E0F0F0F0E0F0E0F0F0F0FE0
:101320000F0E0F0F0F0F0F0E0F0F0F0F0F0E0F0FD0
:101330000F0F0F0F0F0F0F0F0F0F0F0F0F0F0F0FBD
:10134000161616160E0E02000102040D0102040EFE
:101350000E0D0C0E0F0F0F0F0F0F0F0F0F0F0F0FA4
:101360000F0F0F0F0F0F0F0F0E03010E0F0F0F02B6
:10137000010D0F0F0F050E0F0F0F0F0F0F0F0F0F98
:101380000F0F0F0F0F0F0F0E0E0F0F0F0F0C020E80
:101390000F0F0F02000D0F0F0F0F0F0F0F0F0F0F7B
:1013A0000F0F0F0F0F0F0F0F0F0F0F0F0F0E170F46
:1013B0000F0F0F030C160F0F0F0C00090C0F0F0E61
:1013C0000404040F0F0F0F0F0F0F0F04010C0F0F6A
:1013D0000F04000B160F0F0F0E0C0C0F0F0F0F0F3B
:1013E0000F0F0F0F0F0F0F0E0E160F0F0F050D0C17
:1013F0000B0D0F0F0F03000A0E0F0F0F0F0100163A
:10140000161E0B00000201000000000E0401000087
:10141000000F0F0F0200000F0E0F0C00000F0F0E39
:101420000D00000F0F0F160B000000000000000061
:1014300000000000000000000000000000000000AC
:10144000000000000000000000000000000000009C
:101450000000000000010A0C0C0000000000000069
:10146000000000000000000000000000000000007C
:101470000000000000000000000001000001030E59
:101480000E000016160F0F01000000000000000003
:10149000000000000000000000000000000000004C
:1014A000000000000000000000000000000000003C
:1014B00000010200000000020E0000000000000019
:1014C000000000000000000000000000000000001C
:1014D0000000000000020C000000010D0F0B0C0DBD
:1014E0000D0E0F0F0F0F0F0F0F0000000000000078
:1014F00000000000000000000000000100000000EB
:10150000000D00000000000F01000000000F0C00A3
:101510000000000F0E00000000000000140B00008F
:101520000000140B000000000B0B000000000C0B6F
:10153000000000000C0B000000000B0B000000007E
:101540000B0B000000000B0B00020F0F0F0F0F0121
:101550000F0F0F0F0F010E0F0F0F0F020F0F0F0FB7
:101560000F010F0F0F0F0F000E0F0F0E0E000E0FBB
:101570000F0E04000E0F0F0E0E0F0F0F0F0F0F0F99
:101580000F0F0F0F0F0F0F0F0F0F0F0F0F0F0F0F6B
:101590000F0F0F0F0F0F0F0F0F0F0F0F0F0D0E0F5E
:1015A0000F0F0E0E0F0F0F0F0E0F0F0F0F0F0F0F4E
:1015B0000F0F0F0F0F0F0F0F0F0F0F0E0D0C030D4F
:1015C0000F0E01000000020E0100000000020000EA
:1015D0000000000300000000000F0F0F0F0F0F0F9F
:1015E0000F0F0F0F0F0F0F0F0F0F0F0F0F0F0F0F0B
:1015F0000F0F0F0F0F0F0F0E0F0F0F0F0F0D0F0FFE
:101600000F0F0F0C0F0F0F0F0F0F0F0F0F0F0E0FEE
:101610000F0F0F0F0F0F0F0F0F0F0F0F0F0F0F0FDA
:101620000F0F0F0F0F0F0F0F0F0F0F0F0F0F0F0FCA
:101630000F0F0F0F0F0F0F0F0F01010E0F0F0F03E3
:10164000030F0F0F0F0D040F0F0F0F0E0D0F0F0FC6
:101650000F0E0D0F0E0F0F0E01010201020E000002
:101660000000030C0000000D0F0F0F0F0E0C0E0FEB
:101670000F0F0F0F0F0F0F0F0F0F0F0F0F0F0F0F7A
:101680000F0F0F0E0E0D0E030B0C0D0D0E0D0E0F8A
:101690000F0F0F0F0F0F0F0F0F0F0F0F0F0F0F0F5A
:1016A0000F0F0F0F0F0F0F0F0F0F0F0F0F0F0F0E4B
:1016B000030F0F0E0D02000F0F0E0E0C0C0F0F0F6D
:1016C0000F0F0F0F0F0F0F0F0F0F0F0F0F0F0F0F2A
:1016D0000F0F0F0F0F0F0F0F0F0F0F0C170F0F0F15
:1016E0000F000A0D16160D0B03020201000F0F0E5C
:1016F0000E03010F0F0F0F0F0E0D0D0F0F0F0F0F1A
:101700000F0F0F0E0E0F0F0E0F0F0D0F16170F0FDF
:101710000F0C010A0C0D0D0000000000000000007D
:101720000000000200000000000F0F0F0F0F0F0E4F
:101730000F0F0F0F0F030E0F0F0F0F0E170F0E0EC1
:10174000170C0C0D02010A00000001020300010C3D
:101750000E0F0F010D0F0F0F0F0F0F0D02040F0FC4
:101760000F0F0E0F0F0F0F0F0F0F0F0F0F0E0F0F8B
:101770000F0D0E0D0C0E0E040D0D050E0D0F0F0F9F
:101780000F0F0F0F0F0F0F0F0F0F0E0E0D01000F8A
:101790000F0F0D00000F0F0F0C00000F170E0100B0
:1017A000000D0B010000000D0B0B0200000F0F0FCE
:1017B0000F0E0D0F0F0F0F0F0F00000000000000A5
:1017C0000000000000000000000000000000000019
:1017D0000000000000000000000000000102000006
:1017E0000C0E0E0F0D040E0F0F030D030E0E040E44
:1017F0000F0E0F0F0F0D0F0F0F0F0F0D0F0F0F0FFE
:101800000F0D0F0F0F0E0F0E0F0F0F0E0F0F0F0FED
:101810000F0F0F0F0F0F0F0F0F040E0F0F0D000EF6
:101820000F0F0F0E010F0F0F0F0B000F0F0F0F02F7
:10183000000F0F0F0F03000F0F0F0F0D010F0F0FF2
:101840000F0F0E0F0F0F0F0F0F0000000C00000006
:1018500000000C00000000000C00000000000C0064
:10186000000000000D00000000000C00000D020050
:101870000C00000F0D010D00000000000000000032
:101880000000000000000000000000000000000058
:101890000000000002020200000D0F0E0E00020FF9
:1018A0000F0F0F000C0F0F0F0F00000000000000C3
:1018B0000000000000000000000000000001010026
:1018C00000020C0D0300000E0F0F0D01000F0F0F93
:1018D0000E03000F0F0F0F0E0B00000000010E0093
:1018E000000000000D00000000010D0000000002DB
:1018F0000E000000000B0E000000000C0F000000A6
:10190000010C0F00000000030F0F0F0F0F0F0F0F40
:101910000F0F0F0F0F0F0F0F0F0F0F0F0F0F0F0FD7
:101920000E0F0F0F0F0F0F0F0F0F0F0F0F0F0F0FC8
:101930000F0F0F0F0F0F0F0F0F0F0F010000000FF2
:101940000F0C0000000F0F0D0000000F0F0D010025
:10195000000F0F0E0200000F0F0E0300000F0F0FFD
:101960000400000F0F0F00010C0000000B0B000023
:1019700000000B0B000000000C0B000000000B0B24
:10198000000000000B0B000000000B0B000000012A
:101990000201000C0C0E0E0B00000E0F0F0F0E00BC
:1019A0000E0F0F0F0E000E0F0F0F0F000E0F0F0F69
:1019B0000F000E0F0F0F0F000E0F0F0F0F000E0F67
:1019C0000F0F0F000E0F0F0F0F0E0F0F0F0F0F0E39
:1019D0000F0F0F0F0F0F0F0F0F0F0F0F0F0F0F0F17
:1019E0000F0F0F0F0F0F0F0F0F0F0F0F0F0F0F0F07
:1019F0000F0F0F0F0F0F0F0F0F0E00000000000F43
:101A000001000000030F0D02030D0F0F0F0F0F0F4A
:101A10000F0F0F0F0F0F0F0F0F0F0F0F0F0F0F0FD6
:101A20000F0F0F0F0F0F0F0F0F0D0F0F0F0F0F0FC8
:101A30000F0F0F0F0F0F0F0F0F0F0F0F0F0F0F0FB6
:101A40000F0F0F0F0F0F0F0F0F0F0F0F0F0F0F0FA6
:101A50000F0F0F0F0F0F0F0F0F0F0F0F0F0F0E0F97
:101A60000F0F0F0F020F0F0F0F0F020F0F0F0F0EA1
:101A7000000F0F0F1601000F0E0B0000000F0E02DB
:101A80000000000F0F0F0E0200010000030F0F00F7
:101A900000010D0F0F00000D0F0F0F00020F0F0FB1
:101AA0000F000C0F0F0F0F000D0F0F0F0F000C0F7B
:101AB0000F0F0F00030F0F0F0F0F0F0F0F0F0F0F51
:101AC0000F0F0F0F0F0F0F0F0F0F0F0F0F0F0F0F26
:101AD0000F0F0F0F0F0F0F0F0F0F0F0F0F0F0F0F16
:101AE0000F0F0F0F0F0F0F0F0F0F0F0F0F0F0F0F06
:101AF0000F0F0F0F0F0F0F0F0F0F0F0F0F0F0F0FF6
:101B00000F0F0C0A0D0F0F0D0000000E0F0200004A
:101B1000000C0F010000000C0F0D020000000D0D65
:101B20000E0100030F0F0F0D020E0F0F0F0F0E0F00
:101B30000F0F0F0F0F0F0F0F0F0F0F0F0F0F0F0FB5
:101B40000E0F0F0F0F0F0F0F0F0F0F0F0F0F0F0FA6
:101B50000F0F0F0F0F0F0F0F0F0F0F0F0F0F0F0F95
:101B60000F0F0F0F0D0B150F0F0D0000010F0F02C0
:101B70000000000F0F020000000F0F0F0F0F0F0FDC
:101B80000F0F0F0F0F0F0F0F0F0F0F0F0F0F0F0F65
:101B90000F170F0F0F0F0F0D0F0F0F0F0F030F0F5B
:101BA0000F0F0F030F0F0F0F0F0F0F0F0F0F0F0F51
:101BB0000F0F0F0F0F0F0F0F0F0F0F0F0F0F0F0F35
:101BC0000F0F0F0F0F0F0F0F0E0E0F0F0D0F0F0F29
:101BD0000F0F0D0F0F0F0F0F0D0F0F0F0F0F0F0F19
:101BE0000F0F0F0F0F0F0F0F0F0F0F0F0F0F0F0F05
:101BF0000F0F0F0F0F0F0F0E0F0F0F0F0F0D0F0FF8
:101C00000F0F0F0D0F0F0F0F0F0F0F0F0F0F0F0FE6
:101C10000F0F0F0F0F0F0F0F0F0F0F0F0F0F0F0FD4
:101C20000F0F0F0F0F0E0E0F0F0F0F0D010F0F0FD6
:101C30000F0E010F0F0F0F0E010F0D010D00000F02
:101C40000D010D00000F0D010D00000F0D010C0026
:101C5000000E0C010C00000000000C000000000051
:101C60000D00000000000C0000000B0F0F0F0F0014
:101C7000010F0F0F0F00000E0F0F0F00000B0F0FC3
:101C80000F0000010F0F0F0000000E0F0F000000EB
:101C90000C0F0F000000010F0F02000000020E0CDD
:101CA000010000010C0D01000000030F0A000000FC
:101CB000010F0C010000010F0E020000000F170BB6
:101CC0000000000F0F0D0100000F0F0F0F0F0F0F7F
:101CD0000F0F0F0F0F0F0F0F0F0F0F0E0F0F0F0F15
:101CE0000F0C0F0F0F0F0F020F0F0F0F0F010D0F24
:101CF0000F0F0F000B0F0F0F0F0F0F0E000C0F0F1A
:101D00000F0E000D0F0F0F0F000C0F0F0E0F0D0217
:101D10000E0F0E0F0F000D0F0F0F0F0B0C0F0F0FED
:101D20000F0E010F0F0F0F0F0D0F0F0F0F0E020FE2
:101D30000F0F0F0F0E0F0F0F0F0F0F0F0F0F0F0FB4
:101D40000F0F0F0F0F0F0F0F0F0F0F0F0E0D0E0EA8
:101D50000D0C01020000010100000E0F0F0F0F0219
:101D6000000F0F0F0F0C010D0F0F0F0E010C0F0FB7
:101D70000F0E010D0F0F0F030B0F0F0F0F000E0FA4
:101D80000F0F0F010E0F0F0F0F0F0F0F0F0F0F0F72
:101D90000F0F0F0F0F0F0F0F0F0F0F0F0F0F0F0F53
:101DA0000F0F0F0F0F0F0F0F0F0F0F0F0F0F0F0F43
:101DB0000F0F0F0F0F0F0F0F0E0F0F0F0F0F0F0F34
:101DC0000F0F0F0F0F0F0C02020D0F0F010000007D
:101DD0000C0E00000000010E0000000000160000C4
:101DE0000000000C00000000000F0F0F0F0F0F0F7E
:101DF0000F0F0F0F0F0F0F0F0F0F0F0F0F0F0F0FF3
:101E00000F0E0F170F0F0F0D0F0F0F0F0F0C0F0FE0
:101E10000F0F0F030F0F0F0F0F0F0F0F0F0F030FEA
:101E20000F0F0F0F0E0F0F0F0F0F170F0F0F0F0FBB
:101E30000F0F0F0F0F0F0F0F0F0F0F0F0F0F0F0FB2
:101E40000F0F0F0F0F0F0F0F0F000E0F0F0F0F02BF
:101E50000E0F0F0F0F0D0E0F0F0F0F0F0E0F0F0F97
:101E60000F0F0F0F0F0F0F0F0F0F0F0F0F0F0F0F82
:101E70000F0F0F0F0F0F0F0F0F0F0F0F0F0F0E0F73
:101E80000F0F0F0F0F0F0F0F0F0F0F0F0F0F0F0F62
:101E90000F0F0F0F0F0F170F0F0F0F0F170F0F0F42
:101EA0000F0F170F0F0F0F0F1701000000030F0286
:101EB000000000020F020000000B0F0A0000000BE0
:101EC0000F0A0000000B0F020000000B0F020000C1
:101ED000000B0F010000000B0F0F0F010000000F9F
:101EE0000F020000000F0F0A0000000F0F0B000090
:101EF000000F170B0000000E0F0B0000000E170C58
:101F00000000000F0F0C000000030F0F0F0F0F0356
:101F10000F0F0F0F0F020F0F0F0F0F020F0F0F0FEB
:101F20000F020F0F0F0F0F020F0F0F0F0F010F0FE9
:101F30000F0F0F010F0F0F0F0F0F0F0F0F0F0C0FC2
:101F40000F0F0F0F030F0F0F0F0F0D0F0F0F0F0FAF
:101F50000C0F0F0F0F0F0D0F0E0F0F0F0E0F0E0F99
:101F60000F0F0E0F0F0F0F0F0E0D0F0F0F0F0F0D87
:101F70000F0F0F0F0F0D0F0F0F0F0F0C170F0F0F6E
:101F80000F0D0F0F0F0F0F0D0F0F0F0F0F0D0F0F67
:101F90000F0F0F0D0F0F0F0F0F0F0F0F0F0E010F62
:101FA0000F0F0F0E010F0F0F0F0E010F0F0F0F0E60
:101FB000010F0F0F0F0E010F0F0F0F0E010F0F0F5D
:101FC0000F0F020F0F0F0F0F02000000000E0F0087
:101FD0000000000B0F00000000010F0000000000D7
:101FE0000E00000000000B000000000001000000D7
:101FF0000000000000000000000F0F0F0F0F0F0F78
:102000000F0F0F0F0F0F0F0F0F0F0F0F0F0F0F0FE0
:102010000F0F0F0F0F0F0F0F0F0F0F0F0F0E0F0FD1
:102020000F0F0F0B0F0F0F0F0F0E0E0E0300000FF1
:102030000F0F0D00000F0F0F0E02000F0F0F0E03FA
:10204000000F0F0F170E000F0F0F0F0F0C0F0F0FBA
:102050000F0F0F0F0F0F0F0F0F00020F0F0F0F00BB
:10206000010D0F0F0F00000B0F0F0F0000030F0FDC
:102070000F00000C0F0F0F02020E0F0F0F0F0F0FAC
:102080000F0F0F0F0F0F0F0F0F0F0F0F0F0F0F0F60
:102090000F0F0F0F0F0F0F0F0F0E0E0F0F0F0E0E54
:1020A0000E0F0F0F0F0F0F0F0F0F0F0F0F0F0F0F41
:1020B0000F0F160F0F0F0F0D010E0200140B000E65
:1020C00002005C0B00170200140B001702000B0B40
:1020D000000E0100130B000D00000C0B00010000AE
:1020E000140B000000000C0B00000E0F0F0F0F016F
:1020F0000F0F0F0F0F0C0F0F0F0F0F0E0F0F0F0FF4
:102100000F0E0F0E0F0F0F0D0E0E0E0F0F0D0E0EEA
:102110000E0F0F0D0F0F0F0F0F0100000000000337
:1021200000000000020E0302020C0E0F0F0E0F0F34
:102130000F0F0F0F0F0F0F0F0F0F0F0F0F0F0F0FAF
:102140000F0F0F0F0F0F0F0F0F0D0F0F0F0F0F0FA1
:102150000F0F0F0F0F0F0F0F0F0F0F0F0F0F0F0F8F
:102160000F0F0F0F0F0F0F0E0E0F0F0F0F0F0E0F82
:102170000F0F0F0F0F0F0F0F0F0F0F0F0F0F0F0F6F
:10218000170F0F0F0F0F170F0F0F0F0F0F0F0F0F4F
:102190000F0F0F0F0F0F0F0F0F0F0F0F0D0F0F0F51
:1021A0000F17020F0F0F0F0D000F0F0F0F0F0F0F55
:1021B0000F0F0F0F0F0F0F0F170F0F0F0F0F0F0F27
:1021C0000F0F0F0F0F0F0F030C0F0F0F0F00010E4C
:1021D000170F0F000001170F0F0F0F0F0F0F170F23
:1021E0000F0F0F0F170F0F0F0F0F0F0F0F0F0F0FF7
:1021F0000F0F0F0F0F0F0F0F0F0F0F0F0F0F0F0FEF
:102200000F0F0F0F0F0F0F0F0F020000000C0F0228
:102210000000000C0F020000000C0F0C0000000D6D
:102220000F0E0C020C0F0F0F0F0E170F0F0F0F0FCB
:102230000F0F170F0F0F0F0F0E0F0F0F0F0F0F0FA7
:102240000F0F0F0F0F0F0F0F0F0F0F0F0F0F0F0F9E
:102250000F0F0F0F0F0F0F0F0F0F0F0F0F170F0F86
:102260000F0F0F0E0F0F0F0F0F0F0F0F0F0F0F0F7F
:102270000F0F0F0F0F0F0F0F0F0F0F0F0F0F0F0F6E
:102280000F0F0F170E0F0F0F0F1702030F0F0F1661
:1022900000010F0F0E020001160F0F0C0000000FBF
:1022A0000F0D0000000F0F0D0000000F0F0E0000BB
:1022B000000F0F0F0B00020F0F0F0F0E0F0F0F0F5E
:1022C0000F0F0F0F0F0F0F0F0F020F0F0F0F0F0139
:1022D000170F0F0F0F020F0F0F0F0F030F0F0F0F1F
:1022E0000F0E0F0F0F0F0F0F0F0F0F0F0F0F0F0FFF
:1022F0000F0F0F0F0F0F0F0F0F0F0F0F0F0F0E0FEF
:102300000F0F0F0F0E0F0F0F0F0F0E0F0F0F0F0FDF
:102310000D0F0F0E0F0F030F0E0D0E16020F0F0FE6
:102320000F0E000F0F0F0F0B000E0F0F0F0F0F0EE2
:102330000F0F0F0F0F0D0F0F0F0F0F0C0F0F0F0FB2
:102340000F0B160F0F0F0F0A0C0F0F0F0F000D0FB3
:102350000F0F0F00160F0F0F0F0F0F0F0F0E020FA3
:102360000F0F0F0F030F0F0F0F0F030F0F0F0F0E96
:10237000020F0F0F0F0F0D0F0F0F0F0F0F0F0F0F7C
:102380000F0F0F0F0F0F0F0F0F0000000C000000BA
:1023900000000C00000000000C00000000000C0019
:1023A000000C02000C00000F0E020D00000F0E01C9
:1023B0000D00000E0C010C0000010F0F0F0F0F009D
:1023C0000C0E0F0F0F00010B0F0F0F000001170F66
:1023D0000F000000020D0E00000000010A000000C6
:1023E0000000000000000000000F0F0F0F0F0F0F84
:1023F0000F0F0F0F0F0F0F0F0F0F0F0F0F0F0F0FED
:102400000F0F0F0F0F0E0E0B0C0B0B0B020000002B
:102410000000000000000000000F0F0F0F0F0F0F53
:102420000F0F0F0F0F0F0F0F0F0F0F0F0E0D0D0DC3
:102430000C0C0B0201000001000000000000000075
:102440000000000000000000000F0F0E0C01000F44
:102450000E0B0100000E0C01000000020000000045
:10246000000000000000000000000000000000006C
:102470000000000000000000000000000B0B000046
:102480000000130B000000000B0B000000000B0B02
:10249000000000000B0B000000000B150D000000F9
:1024A000090A0B0000000000000D0F0F0F0F0F0DA9
:1024B0000F0F0F0F0F0D0E0E0E0E0E00010001017B
:1024C000010000000000000D0D0D0D0D0D0B0B0B9C
:1024D0000B0B0B0000000000000F0F0F0F0F0F0F72
:1024E0000F0F0F0F0F0E0E0E0E0E0E010101010148
:1024F000010000000000000D0D0D0D0D0D0B0B0B6C
:102500000B0B0B0000000000000F0F0F0F0F0F0F41
:102510000F0F0F0F0F0E0E0E0E0E0E010101000118
:10252000010000000000000D0D0D0D0D0D0B0B0B3B
:102530000B0B0B0000000000000F0F0F0F0F0F0F11
:102540000F0F0F0F0F0E0E0E0E0E0D0101010000EA
:10255000000000000000000D0D0D0D0D0D0B0B0B0C
:102560000B0B0A0000000000000F0F170C00000EFC
:102570000D0B000000010000000000000000000042
:10258000000000000000000D0D0D0D0D0D0A0A0BDE
:102590000B0A0A0000000000000000000C0F0F00F2
:1025A0000000000B0E000000000001000000000011
:1025B000000000000000000D0D0D0D0D0D0B0B0BAC
:1025C0000A0A0B0000000000000F0F0F0E0D0E0F87
:1025D0000F0E0101030C0E0200000D0000010000AF
:1025E0000B0000000000000D0D0C0D0D0D0B0B0B72
:1025F0000B0B0A0000000000000F0F0E0F0F0D0D57
:102600000E0F0F0F0E0F0F0F0F0F160D0D0D0D0CE0
:102610000101010101010015151415550C545D5CF3
:102620005C655C0000000000000D170F0F0F0F0D20
:1026300017170F0D160D0E0E0C010A0100000000F9
:102640000000000000000014140C0C0C0C5C655C15
:10265000130A0B0000000000000E010000000A0B2E
:10266000000000000000000000000000000000006A
:10267000000000000000000C0C0B0B0C0C0B0B0BF3
:102680000A0B0B000000000000170F0F0F0F0F0BBD
:10269000160F0F0F0F000A0C0E0F0F0000000001A5
:1026A0000B0000000000000C0C0C0C0C0C0B135C5D
:1026B0000B0B0B0000000000000F0F0F0F0F0F0F90
:1026C0000F0F0F0F0F0F0F0F0F170F0C0B0B0B0B25
:1026D0000D0000000000000C0C0C0C0C0C0B140B7B
:1026E0000B0B0B0000000000000F0F0F0F0F0F0F60
:1026F0000F0F0F0F0F0F0F0F0E0D0B0E0E0D0C0106
:10270000000201010100000C0C0C0D0D0D0B0B0B58
:102710000B0B140000000000000F0F0F0B00000E49
:102720000C0A000000020000000000000000000091
:10273000000000000000000D0C0C0C0C0C5C0B0BDE
:10274000141413000000000000000C170F0F0F00FE
:102750000016170F0F00000114160F0000000009EB
:102760000C0000000000000C0C0C0C0C0C5C141392
:102770000B13130000000000000F0F0F0F0F0F0FBF
:102780000F0F0F170E0F0F0F0E160C0E0E0E0C0B59
:10279000010101010201000C0C0C0D0D0C13130BB7
:1027A0000B13140000000000000D01010D00000DCE
:1027B0000D010D00000D0C010D00000A0B010D00B4
:1027C000000000010D00000C141415000013541C2F
:1027D00013000000000000000000000000000000E6
:1027E00000000000000000000000000000000000E9
:1027F00000000000000000000000000000000000D9
:10280000000000000000000E0E00000000000000AC
:1028100000000000000000000000000000000000B8
:1028200000000000000000000000000E0E000E0E70
:102830000E00000E0000000000000000000000007C
:1028400000000000000000000000000E0E0000006C
:10285000000E0E000000000E0E0E0E00000E0E0008
:10286000000E0E0E0E000000000000000000000030
:102870000000000000000000000000000000000058
:10288000000000000000000000000000000E00003A
:10289000000000000E0E0E5B0000000000000000B3
:1028A0000000000000000000000000000000000028
:1028B0000000000000000000000000000000000018
:1028C00000000000000000005A00000000000000AE
:1028D00000000000000000000000000000000000F8
:1028E0000000000000000000000000005B0000008D
:1028F00000005A5A5B5B00005B0000000000000013
:1029000000000000000000000000000000005B6309
:1029100063000000525A5A00006351525200005B9B
:1029200009525200005B51515100000000000000AC
:1029300000000000000000000000005B000000003C
:10294000005A5B5A5A5B5B525152525152115252C9
:102950005263640A5112125163000000000000002B
:102960000000000000000000000000000063000004
:10297000005A5AA300000052525A5B5B5B636363C8
:10298000515252A3A35B510909000000000000004E
:102990000000000000000000000000000000000037
:1029A00000000000000000635B63635B5A51514903
:1029B0004911490901080801080000000000000051
:1029C0000000000000000000000000000000000007
:1029D000000000000000005A5B5B525A5A1249493D
:1029E0001152114109094909490000000000000085
:1029F00000000000000000000000000000000000D7
:102A00000000000000005B5A525A5A5A5A115209EB
:102A1000525209490951090949000000000000000B
:102A20000000000000000000000000000000635BE8
:102A30005A635B5B5A5B5A525A5A5A520E52515160
:102A400052520E110E0E0E0E0E0000000E0000006F
:102A5000000E00000000000E0000005A0E5A5B5AE3
:102A60005A5A0E525A5A5A0E5A5A5B5A5A0E521201
:102A70005252520E0E0E0E0E0E000000000000000C
:102A800000000000000000000000005B5B5A5A5A82
:102A90005A5A5A5A5A5B5A5B5B52525B5A515252BB
:102AA0005252520E0E0E0E0E0E0E0E000951510E07
:102AB0000E000052520E0E5B5152520E0E515A5AD7
:102AC0005A0E0E525B5B5B0E0E5A5B5A5A0E0E523A
:102AD0005252520E0E0E0E0E0E521152520E52093C
:102AE0005A5252120E52635B5B520E5A525A5A5B42
:102AF0005A5A5B5B5B5A5B5B5A5B5B5A5B525A523E
:102B0000525A520E0E0E0E0E0E525252525A525A25
:102B10001212521252645A5A5A525A0E5A5A5B5A46
:102B20005A0E5A5A5B5A5B5A0E0E5A5B5B5A0E0E7D
:102B30005A525A0E0E0E0E0E0E5251525A5A5A52E6
:102B400011525252525A095111115A5A5A535A5A41
:102B50005B5B5A5B5B5BA35B5A5B5A5A635A525A84
:102B60005252520E52521111525A5B5B0000005BDE
:102B70005A5A0000005B5B5B00000063A3A3635B29
:102B8000635B5B5B5AA35B5B62625B5B635A525243
:102B90005A525A5251515252510000000000000046
:102BA0000000000000000000000000635B635B5A4F
:102BB0005A5B9A635B5A5A635B639B63635A525ACC
:102BC000525A5A5152521252520000000000000054
:102BD0000000000000000000000000635B63630071
:102BE000009B639B9B6300635B6363A363525A5ABE
:102BF0005A5B5A5A5252525A5A00000000000000C2
:102C000000000000000000000000000000000000C4
:102C1000000000000000005B5B000000005B5B0048
:102C20000000005252000000000000634912120030
:102C3000635B51525200005B525A5A000000000080
:102C40000000000000000000000000000000000084
:102C5000000000000000000000510951510A5152CB
:102C600011525251525B5A5B5B5A5B0000000000EC
:102C70000000000000000000000000000000000054
:102C8000000000000000000000525252525B5B1234
:102C9000125A00000063635B0000000000000000A7
:102CA0000000000000000000000000000000000024
:102CB0000000000000000000005A5B5151090000B4
:102CC000000000005B0000000000000000000000A9
:102CD00000000000000000000000000000000000F4
:102CE0000000000000000000000800000009005A79
:102CF0005A5A5209490000005B5A5A00000000006D
:102D000000000000000000000000000000000000C3
:102D10000000000000000000000009000909094946
:102D200009490909485A521149490900000000009F
:102D30006300000000000000000000000000000030
:102D400000000000000000000001080849090E0909
:102D5000494908090E4909090949095B5A5A5A5251
:102D60005A00000000000000000000000000000009
:102D70000000000000000000000E49090949490E4A
:102D80000949095151090E490909095A0E5A5A5A55
:102D90005A00000E00000000000E000000000000BD
:102DA0000E0000000000000E0E0949090951090932
:102DB00011494909514909525209525A5A5A5A5A03
:102DC0005A000000000000000000000000000000A9
:102DD0000000000E00000000000E0E095109090E4F
:102DE0000E510952520E0E510A51510E0E5A5B5A93
:102DF0005A0E0E000000000E0E000000000E0E0025
:102E00000000000E0E000000005109494911090997
:102E10005211114A511149525209515B5B5A5A5B86
:102E20005B00000000000E00000000000E0000002B
:102E3000000E00000E0E0E0000110E0E11091149B9
:102E40000E0E4951490E0909510A510E5B5B5B5A3E
:102E50005B00000000000000000000000000000017
:102E6000000000000000000000110951090951494B
:102E7000094911114A5112510A0A515B5A5A5A5AB8
:102E800052000000000000000000000000000000F0
:102E900000000000000000000009111109110909DB
:102EA0004949514A510951510909495B5A5A5A5BDA
:102EB0005A000000000000000000000000000000B8
:102EC00000000000000000000009114911494951AB
:102ED0000951095151491249094A4A5A525A5A52FA
:102EE0005200000000000000000000000000000090
:102EF00000000000000000000011491111525209A9
:102F00004909090909114909094909521252525A34
:102F100000000000000000000000000000000000B1
:102F20000000000000000000005252000000005BA2
:102F30005B00000000000000000000000000000036
:102F40000000000000000000000000000000000081
:102F5000000000000000000000000E0E0E00000047
:102F60000000000E0E000000000000000000000045
:102F70000000000000000000000000000000000051
:102F80000000000000000000000E0E00000E0E0EFB
:102F90000E0E0E00000E0E000000000E0E000000CF
:102FA000000E0E0000000000000000000000000005
:102FB0000000000000000000000E00000000000003
:102FC0000000000000000000000000000000000001
:102FD00000000000000000000000000000000000F1
:102FE00000000000000000000000010105010100D8
:102FF000010505050500050105010100050505059B
:103000000500050105010100010505050500010197
:103010000501010001010101010101FFFFFFFF01A5
:1030200001FFFF00000501FFFF00000505FFFFFF96
:10303000FF0501FFFF00000101FFFF00000101FF8C
:10304000FF0000010100000000FFFF0000FFFF0083
:1030500000FF00FFFF0000FF00FFFFFFFF0000FF79
:10306000FF00000000FFFF00000000FFFF00000065
:1030700000FFFF000000000000FFFFFFFF00000056
:10308000000000FF0000000000FF00FFFFFFFF0046
:10309000000000FFFF000000000000FF0000000033
:1030A00000FF00000000000000FFFFFFFFFFFFFF28
:1030B0000000000000FF0000000000FFFFFFFFFF16
:1030C00000FF0000000000FF0000000000FFFFFF05
:1030D000FFFFFF000000000000FF0000FFFFFF00F7
:1030E00000FF0000000000FF000000000000FFFFE4
:1030F000FF0000000000000000FF000000FF0000D3
:10310000FFFFFF000000000000FF00000000FF00C4
:10311000FFFF00FF0000000000FF00FF00000000B4
:10312000FF00FFFF00000000FFFF00FF00FF0000A6
:103130000000FF000000000000FFFFFF0000000093
:103140000000FF0000000000000000FFFFFF000083
:1031500000000000FF0000000000FF0000FFFFFF74
:10316000000000000000000000000000FFFFFF0062
:1031700000FF0000000000FF000000000000FFFF53
:10318000FF0000000000000000FF00000000000041
:10319000FFFFFF000000000000FF000000FFFF0035
:1031A000FF00000000000000000000FF0000000021
:1031B0000000FF0000000000FF00000000FF000012
:1031C000000000000000000000FFFFFFFF0000FF04
:1031D00000000000FFFF00000000FFFF00000000F3
:1031E000FFFF00000000FFFF00000000FFFF0000E5
:1031F0000000FF00000000000000FFFFFFFF00FFD5
:1032000000000000FFFF00000000FFFF00000000C2
:10321000FFFFFFFFFFFFFFFF00000000FFFF0000B8
:103220000000FF00000000000000FFFFFFFFFF00A4
:10323000FFFF00000000FFFF00000000FFFFFFFF96
:10324000FF00FFFF0000FF00FFFF00000000FFFF86
:10325000000000000000000000FF0000FFFFFF0072
:10326000FF0000000000FF00000000FF0000000061
:1032700000FF000000000000FF0000000000FF0051
:10328000000000000000000000FFFFFFFF0000FF43
:103290000000000000FF0000000000FF0000000030
:1032A00000FF0000000000FF0000000000FF000021
:1032B0000000000000000000000000FFFFFF000011
:1032C000FF000000FFFF00FFFFFF00FF00FFFF0007
:1032D00000FF00FFFFFF0000FF000000FF0000FFF5
:1032E000FFFF0000000000000000000000000000E0
:1032F0000000000000FFFF00000000FFFF000000D2
:1033000000FFFF00000000000000000000000000BF
:1033100000000000000000000000000000002F007E
:103320000000002F0000000000000000000000006E
:103330000000000000002F000000002F000000002F
:10334000002F2F0000000000002F2F2F0000000092
:1033500000002F002F0000002F002F2F2F2F000024
:103360002F00000000002F00000000002F2F2F2F43
:103370002F0000000000000000002F2F2F2F002F33
:10338000000000002F2F00002F2F2F2F002F0000F4
:103390002F2F2F0000002F2F000000002F002F2FB5
:1033A0002F2F00000000000000000000002F000090
:1033B00000002F2F00000000002F00000000002F51
:1033C00000000000002F00000000002F000000009F
:1033D0002F2F2F000000000000000000002F2F0002
:1033E00000002F0000000000000000000000002F7F
:1033F0002F0000000000000000002F00002F000040
:10340000002F2F0000000000002F2F000000000000
:10341000002F2F000000002F2F00002F2F00000092
:103420000000002F2F000000002F2F00002F2F0082
:1034300000000000000000000000FFFFFFFFFF0091
:10344000FF0000000000FF0000000000FF0000007F
:103450000000FF0000000000FF0000000000FFFF70
:10346000FFFFFF00000000000000000000FFFFFF62
:103470000000FF0000FF0000FF0000FF0000FF0051
:1034800000FF0000FF0000FF0000FF000000000040
:1034900000FFFF000000000000FFFF000000FF0031
:1034A00000FF0000FF0000FF0000FF0000FF000021
:1034B000FF0000FF0000FF0000FF0000FFFFFF0013
:1034C0000000FF00000000000000000000FF00FFFF
:1034D0000000FFFF0000FFFF00FF0000000000FFF2
:1034E0000000000000FF0000000000FF00000000DE
:1034F00000FF000000000000000000FFFFFFFF00D1
:103500000000FF0000000000FF0000000000FF00BE
:1035100000000000FF0000000000FF00000000FFAE
:10352000FFFFFF0000000000000000FFFF000000A0
:1035300000FFFFFF000000FFFF00FF0000FFFF0093
:10354000000000FFFF00000000FFFF00000000FF80
:10355000FF00000000000000000000FF000000006D
:1035600000FF0000000000FF000000FFFFFF000060
:10357000000000FF0000000000FF0000000000FF4E
:10358000000000000000000000FFFFFFFF0000003F
:10359000FF0000000000FF0000000000FF0000002E
:1035A0000000FF0000000000FF00000000FFFFFF20
:1035B000FF0000000000000000FF00000000FFFF0F
:1035C000000000FF00FF0000FF0000FFFFFF000001
:1035D00000FF0000FF0000FF000000FF00FF0000F0
:1035E0000000FF000000000000FF000000000000DD
:1035F00000000000000000000000000000000000CB
:1036000000000000000000000000000000FF0000BB
:103610000000000000000000000000000000FF00AB
:1036200000000000FF0000000000FF00000000009C
:10363000000000000000000000000000000000008A
:10364000000000000000000000FFFF00000000FF7D
:10365000FF00000000FF000000000000000000006C
:10366000000000000000000000000000000000005A
:10367000000000000000000000FF00000000FFFF4D
:10368000000000FF00FF00FFFF0000FFFF00000040
:1036900000FF00FFFF0000FF000000FF00FF000030
:1036A0000000FF000000000000000000FFFFFF001E
:1036B000000000FFFF00000000FFFF00000000FF0F
:1036C000FF00000000FFFF00000000FFFF000000FF
:1036D000FFFFFF000000000000FF000000FF0000EF
:1036E000000000FF0000000000FF0000000000FFDD
:1036F0000000000000FF0000000000FF00FF0000CD
:1037000000FFFF00000000000000000000000000BB
:1037100000000000FF0000000000FF0000000000AB
:10372000FF0000000000FF0000000000FFFFFFFF9F
:10373000FF000000000000000000FFFFFFFF00FF8F
:1037400000000000FFFF00000000FFFF000000007D
:10375000FFFF00000000FFFF00000000FF00FFFF70
:10376000FFFF00000000000000000000FFFF00005D
:103770000000FFFF00000000FF000000000000004C
:103780000000000000000000000000000000000039
:103790000000000000000000000000000000FF002A
:1037A00000000000FF0000000000FF00000000001B
:1037B000FF0000000000FF0000000000FF0000000C
:1037C0000000FF00000000000000000000FFFF00FC
:1037D0000000FF00000000FF000000FFFF000000ED
:1037E000000000FF000000000000FF0000000000DB
:1037F00000FFFF00000000000000FFFFFFFFFF00D0
:10380000FF0000000000FF0000000000FFFFFFFFBE
:10381000FF00FF000000FF00FF0000000000FF00AD
:1038200000000000000000000000000000FFFFFF9B
:1038300000000000FFFF00000000FF00000000008B
:10384000FF0000000000FFFF00000000FFFF00007D
:1038500000FFFF000000000000FFFF00000000FF6D
:1038600000000000FFFF00000000FFFF000000005C
:1038700000FF0000000000FF00000000FFFFFF004D
:10388000000000000000000000FFFFFFFF0000003C
:10389000000000FF00000000000000FFFFFFFF002D
:1038A0000000000000FF0000000000FF00FFFFFF1D
:1038B000FF000000000000000000FFFFFFFFFF000E
:1038C0000000FF0000000000FF0000000000FF00FB
:1038D00000000000FF0000000000FF0000000000EA
:1038E000FF0000000000000000FF00FFFFFFFF00DE
:1038F00000FFFF00000000FFFF00000000FFFFFFCF
:10390000FF0000FFFF00000000FFFF00000000FFBD
:10391000FFFFFF000000000000FFFFFF00FFFF00AF
:10392000000000FFFF00000000FFFFFFFF0000FF9E
:10393000FF00000000FFFF00000000FFFFFFFFFF8F
:1039400000FFFF00000000000000000000FF00FF7B
:10395000000000FF0000FF0000FF000000FFFFFF6D
:103960000000000000FF0000000000FF0000000059
:1039700000FF000000000000000000000000000048
:103980000000000000000000000000000000000037
:103990000000000000000000000000000000000027
:1039A0000000000000000000000000FF0000000018
:1039B000FFFFFF000000FFFFFF00000000FF00000E
:1039C000000000FF0000000000000000000000FFF9
:1039D000000000000000000000FFFF00FFFF00FFEC
:1039E000FF00FFFF00FF0000FF00000000000000DC
:1039F00000000000000000000000000000000000C7
:103A000000000000000000000000000000000000B6
:103A1000FF00FF0000FFFFFFFFFF0000FF00FF00AF
:103A20000000FF00FF0000FFFFFFFFFF0000FF009E
:103A3000FF000000000000000000FF000000000088
:103A4000FFFFFF0000FF000000000000FFFF00007C
:103A500000000000FF0000FFFFFF0000000000FF6B
:103A6000000000000000000000FFFF0000FF00FF5A
:103A7000FF0000FF00000000FF00000000FF00004A
:103A80000000FF00000000FF0000FFFF00FF00003B
:103A9000FFFF0000000000000000FF00000000FF2A
:103AA00000FF000000FF00FF00000000FF0000001A
:103AB00000FF00FF00FF00FF0000FF000000FFFF0D
:103AC00000FF0000000000000000FFFF00000000F9
:103AD000FFFF00000000FF000000000000000000E9
:103AE00000000000000000000000000000000000D6
:103AF0000000000000000000000000FF00000000C7
:103B0000FF0000000000FF0000000000FF000000B8
:103B10000000FF0000000000FF000000000000FFA8
:103B200000000000000000000000FF000000000096
:103B300000FF0000000000FF0000000000FF000088
:103B4000000000FF0000000000FF00000000FF0078
:103B50000000000000000000000000000000000065
:103B6000FF00FF000000FFFFFF0000FFFFFFFFFF5F
:103B70000000FFFFFF000000FF00FF00000000004A
:103B80000000000000000000000000000000000035
:103B900000FF0000000000FF000000FFFFFFFFFF2C
:103BA000000000FF0000000000FF00000000000017
:103BB0000000000000000000000000000000000005
:103BC00000000000000000000000000000000000F5
:103BD0000000000000000000FFFF00000000FFFFE9
:103BE00000000000FF0000000000000000000000D6
:103BF0000000000000000000000000FFFFFFFFFFCA
:103C000000000000000000000000000000000000B4
:103C100000000000000000000000000000000000A4
:103C20000000000000000000000000000000000094
:103C30000000000000000000FFFF00000000FFFF88
:103C40000000000000000000000000000000000074
:103C5000000000FF00000000FF00000000FF000067
:103C60000000FF00000000FF000000000000000056
:103C7000000000000000000000002F2F2F00002F88
:103C80000000002F002F00002F2F002F002F002FEB
:103C9000002F2F00002F002F0000002F00002F2FDB
:103CA0002F000000000000000000002F00000000B6
:103CB0002F2F00000000002F00000000002F000048
:103CC0000000002F00000000002F000000002F2F38
:103CD0002F0000000000000000002F2F2F00002FF9
:103CE0000000002F00000000002F0000002F2F0018
:103CF00000002F000000002F00000000002F2F2FD9
:103D00002F2F00000000000000002F2F2F00002F99
:103D10000000002F00000000002F00002F2F2F00B8
:103D200000000000002F002F0000002F00002F2FA8
:103D30002F00000000000000000000002F00000025
:103D4000002F2F0000002F002F00002F00002F0059
:103D5000002F2F2F2F2F000000002F000000000049
:103D60002F00000000000000002F2F2F2F2F002F0A
:103D700000000000002F00000000002F2F2F2F0058
:103D800000000000002F002F0000002F00002F2F48
:103D90002F000000000000000000002F2F00000096
:103DA0002F000000002F00000000002F2F2F2F00F9
:103DB000002F0000002F002F0000002F00002F2FE9
:103DC0002F00000000000000002F2F2F2F2F0000D9
:103DD0000000002F000000002F000000002F000056
:103DE00000002F00000000002F00000000002F0046
:103DF000000000000000000000002F2F2F00002F07
:103E00000000002F002F0000002F00002F2F2F0098
:103E1000002F0000002F002F0000002F00002F2F88
:103E20002F0000000000000000002F2F2F00002FA7
:103E30000000002F002F0000002F00002F2F2F2F39
:103E400000000000002F000000002F0000002F2FB6
:103E50000000000000000000000000000000000062
:103E6000000000000000FFFF00000000FFFF000056
:103E70000000000000000000FFFF00000000FFFF46
:103E80000000000000000000000000000000000032
:103E9000000000000000FFFF00000000FFFF000026
:103EA0000000000000000000FFFF00000000FFFF16
:103EB00000000000FF0000000000000000FF000004
:103EC0000000FF00000000FF00000000FF000000F5
:103ED000000000FF000000000000FF0000000000E4
:103EE00000FF0000000000000000000000000000D3
:103EF0000000000000FFFFFFFFFF000000000000C7
:103F000000000000000000FFFFFFFFFF00000000B6
:103F100000000000000000000000FF0000000000A2
:103F200000FF000000000000FF000000000000FF94
:103F300000000000FF00000000FF00000000FF0084
:103F400000000000000000000000FFFFFF0000FF75
:103F5000000000FF0000000000FF000000FFFF0065
:103F6000000000FF0000000000000000000000FF53
:103F700000000000000000000000FFFFFF0000FF45
:103F8000000000FF00FF00FFFFFF00FF00FF00FF39
:103F900000FF00FFFFFF00FF000000000000FFFF28
:103FA000FF000000000000000000FFFFFF0000FF16
:103FB000000000FF00FF000000FF00FF000000FF06
:103FC00000FFFFFFFFFF00FF000000FF00FF0000F9
:103FD00000FF00000000000000FFFFFFFF0000FFE7
:103FE000000000FF00FF000000FF00FFFFFFFF00D8
:103FF00000FF000000FF00FF000000FF00FFFFFFC8
:10400000FF000000000000000000FFFFFF0000FFB5
:10401000000000FF00FF0000000000FF00000000A3
:1040200000FF0000000000FF000000FF0000FFFF95
:10403000FF0000000000000000FFFFFFFF0000FF86
:10404000000000FF00FF000000FF00FF000000FF75
:1040500000FF000000FF00FF000000FF00FFFFFF67
:10406000FF0000000000000000FFFFFFFFFF00FF57
:104070000000000000FF0000000000FFFFFFFF0045
:1040800000FF0000000000FF0000000000FFFFFF35
:10409000FFFF00000000000000FFFFFFFFFF00FF28
:1040A0000000000000FF0000000000FFFFFFFF0015
:1040B00000FF0000000000FF0000000000FF000003
:1040C00000000000000000000000FFFFFF0000FFF4
:1040D000000000FF00FF0000000000FF00FFFFFFE6
:1040E00000FF000000FF00FF000000FF0000FFFFD6
:1040F000FFFF00000000000000FF000000FF00FFC5
:10410000000000FF00FF000000FF00FFFFFFFFFFB7
:1041100000FF000000FF00FF000000FF00FF0000A4
:1041200000FF0000000000000000FFFFFF00000093
:1041300000FF0000000000FF0000000000FF000082
:10414000000000FF0000000000FF00000000FFFF73
:10415000FF000000000000000000000000FF000061
:10416000000000FF0000000000FF0000000000FF52
:1041700000FF000000FF00FF000000FF0000FFFF45
:10418000FF0000000000000000FF000000FF00FF33
:104190000000FF0000FF00FF000000FFFF00000024
:1041A00000FF00FF000000FF0000FF0000FF000014
:1041B00000FF00000000000000FF0000000000FF02
:1041C0000000000000FF0000000000FF00000000F1
:1041D00000FF0000000000FF0000000000FFFFFFE4
:1041E000FFFF00000000000000FF000000FF00FFD4
:1041F000FF00FFFF00FF00FF00FF00FF000000FFC7
:1042000000FF000000FF00FF000000FF00FF0000B3
:1042100000FF00000000000000FF000000FF00FFA2
:10422000FF0000FF00FF00FF00FF00FF0000FFFF96
:1042300000FF000000FF00FF000000FF00FF000083
:1042400000FF0000000000000000FFFFFF0000FF73
:10425000000000FF00FF000000FF00FF000000FF63
:1042600000FF000000FF00FF000000FF0000FFFF54
:10427000FF0000000000000000FFFFFFFF0000FF44
:10428000000000FF00FF000000FF00FFFFFFFF0035
:1042900000FF0000000000FF0000000000FF000021
:1042A00000000000000000000000FFFFFF0000FF12
:1042B000000000FF00FF000000FF00FF000000FF03
:1042C00000FF00FF00FF00FF0000FF000000FFFFF5
:1042D00000FF00000000000000FFFFFFFF0000FFE4
:1042E000000000FF00FF000000FF00FFFFFFFF00D5
:1042F00000FF0000FF0000FF000000FF00FF0000C3
:1043000000FF0000000000000000FFFFFF0000FFB2
:10431000000000FF00FF000000000000FFFFFF00A2
:104320000000000000FF00FF000000FF0000FFFF92
:10433000FF0000000000000000FFFFFFFFFF000083
:1043400000FF0000000000FF0000000000FF000070
:10435000000000FF0000000000FF0000000000FF60
:10436000000000000000000000FF000000FF00FF50
:10437000000000FF00FF000000FF00FF000000FF42
:1043800000FF000000FF00FF000000FF0000FFFF33
:10439000FF0000000000000000FF000000FF00FF21
:1043A000000000FF00FF000000FF00FF000000FF12
:1043B00000FF000000FF0000FF00FF00000000FF02
:1043C000000000000000000000FF000000FF00FFF0
:1043D000000000FF00FF00FF00FF00FF00FF00FFE4
:1043E00000FF00FF00FF00FF00FF00FF0000FF00D4
:1043F000FF0000000000000000FF000000FF00FFC1
:10440000000000FF0000FF00FF00000000FF0000B0
:104410000000FF00FF0000FF000000FF00FF0000A1
:1044200000FF00000000000000FF000000FF00FF90
:10443000000000FF00FF000000FF0000FF00FF0081
:10444000000000FF0000000000FF0000000000FF6F
:10445000000000000000000000FFFFFFFF00000060
:104460000000FF00000000FF00000000FF0000004F
:1044700000FF0000000000FF0000000000FFFFFF41
:10448000FF00000000000000000000FFFF0000002F
:10449000FF0000000000FF00000000FFFF00000020
:1044A0000000FF0000000000FF000000000000FF0F
:1044B000FF00000000000000000000FFFF000000FF
:1044C000FF0000FF00FF00FFFF00FFFF00FF0000F4
:1044D000FFFF00FFFF00FF00FF0000FF000000FFE4
:1044E000FF000000000000000000FFFF00000000CF
:1044F0000000FF0000000000FF0000000000FFFFC0
:1045000000000000FF0000000000FF000000FFFFAF
:10451000000000000000000000000000000000009B
:10452000000000000000000000000000000000008B
:10453000000000000000000000000000000000007B
:10454000000000000000000000000000000000006B
:10455000000000000000000000000000000000005B
:1045600000000000B6B6B6000000B6000000000073
:10457000B60000000000B6000000000000000000CF
:10458000000000000000000000000000000000002B
:1045900000B6B6B6B6B6B6000000000000000000D7
:1045A000000000000000000000000000000000000B
:1045B00000000000000000000000000000000000FB
:1045C00000B6B6B6B6B6B6000000B60000000000F1
:1045D000B60000000000B60000000000000000006F
:1045E00000000000000000000000000000000000CB
:1045F00000B6B6B6B60000000000B600000000002D
:10460000B60000000000B60000000000B600000088
:104610000000B60000000000B60000000000B60078
:1046200000000000B6B6B6000000B60000000000B2
:10463000B60000000000B60000000000B600000058
:104640000000B60000000000B60000000000B60048
:1046500000000000B60000000000B60000000000EE
:10466000B60000000000B60000000000B600000028
:104670000000B60000000000B60000000000B60018
:1046800000B6B6B6B6B6B6000000B6000000000030
:10469000B60000000000B60000000000B6000000F8
:1046A0000000B60000000000B60000000000B600E8
:1046B00000B6B6B6B60000000000B600000000006C
:1046C000B60000000000B60000000000B6000000C8
:1046D0000000B60000000000B60000000000B600B8
:1046E00000000000B6B6B6000000000000000000A8
:1046F000000000000000000000000000B600000004
:104700000000B60000000000B60000000000B60087
:1047100000B6B6B6B6B6B600000000000000000055
:10472000000000000000000000000000B6000000D3
:104730000000B60000000000B60000000000B60057
:1047400000B6B6B6B6000000000000000000000091
:104750000000000000000000000000000000000059
:104760000000000000000000000000000000000049
:104770000000000000000000000000000000000039
:10478000000000631919191000000000000000006B
:104790000000000000000000000000000000000019
:1047A000000000000000000000000000007B3A3A1A
:1047B0003A210063191919100000000000000000E0
:1047C00000000000000000000000000000000000E9
:1047D000000000000000006319191910007B3A3A2C
:1047E0003A210063191919100000000000000000B0
:1047F00000000000000000000000000000000000B9
:10480000007B3A3A3A21006319191910007B3A3AB1
:104810003A2100631919191000000000000000007F
:1048200000000000000000000000006319191910CA
:10483000007B3A3A3A21006319191910007B3A3A81
:104840003A2100631919191000000000000000004F
:1048500000000000007B3A3A3A2100631919191050
:10486000007B3A3A3A21006319191910007B3A3A51
:104870003A210063191919100000000000000063BC
:1048800019191910007B3A3A3A21006319191910C5
:10489000007B3A3A3A21006319191910007B3A3A21
:1048A0003A21006319191910007B3A3A3A21006342
:1048B00019191910007B3A3A3A2100631919191095
:1048C000007B3A3A3A21006319191910007B3A3AF1
:1048D0003A210063191919100000000000000000BF
:1048E00000000000000000000000000000000000C8
:1048F00000000000000000000000000000000000B8
:104900000000006F272727140000000000000000AF
:104910000000000000000000000000000000000097
:1049200000000000000000000000000000773737A2
:10493000371C006F2727271400000000000000002C
:104940000000000000000000000000000000000067
:10495000000000000000006F27272714007737377A
:10496000371C006F272727140000000000000000FC
:104970000000000000000000000000000000000037
:1049800000773737371C006F272727140077373712
:10499000371C006F272727140000000000000000CC
:1049A00000000000000000000000005504040402A4
:1049B00000773737371C006F2727271400773737E2
:1049C000371C006F2727271400000000000000009C
:1049D0000000000000570707070400550404040204
:1049E00000773737371C006F2727271400773737B2
:1049F000371C006F27272714000000000000005517
:104A000004040402005707070704005504040402C5
:104A100000773737371C006F272727140077373781
:104A2000371C006F27272714005707070704005576
:104A30000404040200570707070400550404040295
:104A400000773737371C006F272727140077373751
:104A5000371C006F2727271400FFFF00000000FF0E
:104A6000F57F000000FFECF57F00007FECFFD97FB1
:104A7000007FECD9D924007FECD92400007FEC24FE
:104A800000000024240000000000000000000000DE
:104A9000525252525200525252525200525252529A
:104AA000520052525200000052525200090052521B
:104AB00052000A0052525200120000000000005240
:104AC00052525252525252525252525252525252C6
:104AD000520000000000001B1B1B0900001B1B1BD9
:104AE0000900001C1C1C0A0000000000000000520D
:104AF0005252525252525252525252525252525296
:104B00005200000000000000000000001300000040
:104B100000001B00000000001B000000000000520D
:104B20005252525252525252525252525252525265
:104B3000520000000000001B1B1300091B1B1B1B65
:104B4000000A1B1C1C1B00121C000000000000526D
:104B50005B525B5B5B5B52525B9B5B525B5B5B5B89
:104B60005B0000000000001B1B1B1B1B1B1B1B1BF7
:104B70001B1B1B1C1C1C1C1C1C0000000000005BE1
:104B80009B64A4A4A49B645BA464A45B9BA4A4A452
:104B9000A40000000000001B1B1B1B1B1B1B1B1B7E
:104BA0001B1B1B1C1C1C1C1C1C000000000000A468
:104BB000ADADADADADADA4ADADADADA4ADADADEDF7
:104BC000AD0000000000001B13010000001B0900E5
:104BD000000000090000000000000000000000AD1F
:104BE000ADB6ADB6F6ADF6ADEDF6ADEDADB6B6AD76
:104BF000F600000000000000121B1B1B1B00121B14
:104C00001B1B1B00121C1C1C1C000000000000B61B
:104C1000F6B6F6B6F6F6B6F6B6F6F6B6F6B6F6F6B4
:104C2000BF0000000000001B1B1B1B1B1B1B1B1BD2
:104C30001B1B1B1C1C1C1C1C1C000000000000F685
:104C4000F6FFF6FFF6B6FFB6FFB6FFF6F6FFF6FF85
:104C5000F60000000000001B00091212121B0009E0
:104C60001A1A1A1C0011636363000000000000FFA1
:104C7000FFFFFFFFFFFFFFF6FFFFFFFFF6FFFFFF56
:104C8000FF0000000000001212121212121A1A1A6B
:104C90001A1A1A636363636363000000000000FF75
:104CA000FFFFFFFFFFFFFFFFFFFFFFFFFFFFFFFF14
:104CB000FF000000000000080000000000090000E4
:104CC000000000090000000000000000000000FFDC
:104CD000FFFFFFFFFFFFFFFFFFFFFFFFFFFFFFFFE4
:104CE000FF000000000000001212121100001A1A4A
:104CF0001A1200006363635B00000000000000FF05
:104D0000FFFFFFFFFFFFFFFFFFF6FFFFFFF6FFFFC5
:104D1000BF000000000000000000000000000000D4
:104D2000000000000000000000000000000000FF84
:104D3000FFF6FFF6F6F6F6FFB6F6BFFFBFF6FFF694
:104D4000F6000000000000091212120900091A1AE8
:104D50001A0900116363631100000000000000F6EF
:104D6000F6B6F6B6F6F6B6F6B6F6B6B6F6F6B6F6A3
:104D7000AD000000000000091212121211091A1AE7
:104D80001A1A1A116363636363000000000000B61F
:104D9000EDB6ADADADEDB6ADB6EDADB6EDB6EDADD6
:104DA000AD0000000000000000000000000900004D
:104DB000000000630900000000000000000000ADDA
:104DC000ADADADADA4ADADADADA4A4ADADADA4AD37
:104DD000A4000000000000111212120009121A1A99
:104DE0001A00095B6363630011000000000000A467
:104DF000A4A4649B5BA464649B5B5B64A49B649BB2
:104E00005B0000000000001212121212121A1A1A8D
:104E10001A1A1A6363636363630000000000005B97
:104E20005B525B52529B5B5B5B52525B5B525252DA
:104E3000520000000000001212121212121A1A1A66
:104E40001A1A1A6363636363630000000000005270
:104E500052525252525252521252525252125252B2
:104E6000520000000000001212110009121A1A125A
:104E700000091A63635B0011630000000000005228
:104E80005252525252125252125252525252525282
:104E9000520000000000001212090000001A1A0956
:104EA00000000063631100000000000000000052D9
:104EB0005252525252125252125252525252525252
:104EC000520000000000000000000011120000006D
:104ED00000121A000000005B630000000000005296
:104EE0005252525252125252125252525252525222
:104EF000120000005252521212001252521A1A009C
:104F00005252526363005252120052525200120027
:104F1000525252001200525252001B005252520082
:104F20001B00525252005B00525252005B00525220
:104F300052005B00525252001B2424241200002D08
:104F40002D2D1200003636361B00003F3F3F1B0060
:104F500000BFBFBF5B0000FFFFFF5B00007F7F7FE4
:104F60001B00003F3F3F1B000000000000001C0032
:104F7000000000002400000000002E0000000000DF
:104F8000360000000000B60000000000F60000003F
:104F900000007600000000003624241C0000002DD4
:104FA0002D2400000036362E0000003F3F36000062
:104FB00000BFBFB6000000FFFFF60000007F7F7655
:104FC0000000003F3F36000000000000000000002D
:104FD00000000000000000000000120000000009B6
:104FE0003F00000000B6BF000000ADFFFF00005B07
:104FF0007F7F7F00123F3F3F2D001B242424121B84
:105000002D2D2D1B003636362D00003F3F3F090069
:1050100000BFBF09000000FF5B000000006400004B
:105020000000000000000000000000000000000080
:1050300000000000000000000000000000001B3F16
:105040003F0000005BBFBF0000005BFFFF000000EF
:105050005B7F7F0000001B3F3F00132424240900D6
:105060001B2D2D2D090024363636093F3F3F3F3F8B
:105070003FBFBFBFBFBFBFFFFFFFFFFFFF7F1B00E3
:105080000000003F1B0000000000000000000000C6
:1050900000000000000000000000003F3F09000089
:1050A00000BFBF09000000FFFF0900000000000072
:1050B0000000000000000000000000526C6C6C005A
:1050C00000526D6D6D00005AB5B5B500005BB6B607
:1050D000B600005BFFFFFF000000000000000000C2
:1050E000000000000000000000120000000000525C
:1050F0000000000000B5B5B5B5B5B5B6B6B6B6B6E4
:10510000B6FFFFFFFFFFFF000000000000000000EF
:10511000000000000000000000000000000000008F
:105120000000000000B5B5B5B5B5ADB6B6B6B6B6BB
:10513000ADFFFFFFFFFFF60000B6FFFFB60000ADBA
:10514000B6B6AD0000ADB5B5AD006C6C6C640000DA
:105150006D6D6D6C0000B5B5B5AD0000B6B6B6AD01
:105160000000FFFFFFFFFF00FFFFFFFFFF00B6B6DD
:10517000B6B6B6000000000000000000000000000D
:10518000000000000000000000000000000000001F
:1051900000FFFFFFFFFFFFFFFFFFFFFFFFB6B6B6F9
:1051A000B6B6B651B5B5B55B00126C6C6C12005258
:1051B0006D6D6D520052B5B5B5520052B6B6B652CD
:1051C00000FFFFFFFF5B00FFFFFFFF5B00B6B6B60F
:1051D000B65A00000000000000526C6C6C6C6C52FF
:1051E0006D6D6D6C6D5AB5B5B552AD5BB6B6B65258
:1051F000525BFFFFFF52005BFFFFFF52005BB6B642
:10520000B652005BB5B5B551006C63000000006D8F
:105210006D52000000B5B5AD090000B6B6B6AC00E1
:1052200000ADFFFFFF5B0009F6FFFFF600005AB676
:10523000B6B664000064B5B5B5646C6C6C00006C07
:105240006D6D6D0000ADB5B5B50000ADB6B6B6007C
:1052500000F6FFFFFF0000B6FFFFFF0000ADB6B68F
:10526000B60000B5B5B5B5000000000000005A005A
:10527000000000005B00000000005B000000000078
:10528000630000000000A40000000000A400000073
:105290000000640000000000636C6C6C0900006D8D
:1052A0006D6D090000B5B5B5090000B6B6B60900C8
:1052B00000FFFFFF090000FFFFFF090000B6B6B6C0
:1052C000090000B5B5B509000000000000526C00EF
:1052D000000000526D000000005AB5000000005BA5
:1052E000B6000000005BFF000000005BFF00000054
:1052F000005BB6000000005BB56C6C120000006D36
:105300006D52000000B5B552000000B6B6B6B6B694
:10531000B6FFFFFFFFFFFFFFFFFFFFFFFFB6B65A1D
:10532000000000B5B55200000000000000646C00F1
:105330000000006C6D00000000ADB5B6B6B6B6B6A4
:10534000B6FFFFFFFFFFFFFFFFFFFFFFFF000000B3
:1053500000B6B600000000B5B56C6C005252526D3C
:105360006D00125252B5B500525252B6B6005252AA
:1053700012FFFF00525252FFFF00125252B6B60007
:10538000525252B5B50052521200525252001300FE
:105390005252520012005252520012005252520007
:1053A0000A005252520000005252525252005252BF
:1053B0005252520052521252522E2E2E12000025DC
:1053C00025252525252424242424241C1C1C1C1CC0
:1053D0001C000000000000525252525252525252CF
:1053E00052525252525252525200000000002D2589
:1053F00025252525252424242424241C1C1C1C1C90
:105400001C0000000000005252525252525252529E
:105410005252525252525252522E2E2D00000025FC
:10542000252400000024241C0000131C1C1C001256
:105430001C0000000000005252525252525252526E
:10544000525252525252525253092D2E2E2D001C9E
:1054500025252525252424242424241C1C1C1C1C2F
:105460001C00000000000052535A5B5B5B5A525B09
:10547000535B9B525B525B9B5B000000000000256E
:1054800025252525252424242424241C1C1C1C1CFF
:105490001C0000000000005B9B64A4A4A45BA45B50
:1054A000A464A45B5BA4A4A4A4000000132E2E2576
:1054B0002400122525241C001224241C1C000A1C74
:1054C0001C000000000000A4ADADADADADADA4ADBD
:1054D000ADADADA4ADADADEDAD2E1200000000251B
:1054E00025252525252424242424241C1C1C1C1C9F
:1054F0001C000000000000ADADB6ADB6F6ADF6ADD7
:10550000EEF6ADEDADB6B5AEF6000000000000253C
:1055100025252525252424242424241C1C1C1C1C6E
:105520001C000000000000B6F6B6F6B6F6F6B6F6B9
:10553000B6F6FEB6F6B6F6F6B70000000000002498
:1055400000526C6C6C1C00526C6C6C1C00115B5B30
:105550005B000000000000F6F6FFF6FFFEB6FFB6A7
:10556000F7BEF7F6F6FFFEF7FE0000000000006C45
:105570006C6C6C6C6C6C6C6C6C6C6C5B5B5B5B5BC0
:105580005B000000000000FFFFFFFFFFFFFFF7FED2
:10559000FFFFFFFFFEFFF7FFFF00006CB5B56C6C6F
:1055A0006C6C6C6C6C6C6C6C6C6C645B5B5B5B5B98
:1055B0005A000000000000FFFFFFFFFFFFFFFFFF9A
:1055C000FFFFFFFFFFFFFFFFFF00000000000000E4
:1055D00000000000000000000000000000000000CB
:1055E00000000000000000FFFFFFFFFFFFFFFFFFC4
:1055F000FFFFFFFFFFFFFFFFFF09B5B5B55A000929
:105600006C6C6C5200096C6C6C5200095B5B5B113A
:1056100000000000000000FFFFFFFFFFFFFFFFFF93
:10562000FFF6FFFFFFFEF7FFFF0000000000000095
:10563000000000000000000000000000000000006A
:1056400000000000000000FFFFF6FFF6F6F6F6BFD0
:10565000F6B6FFBFFFF6FFF6F65AB5B5B50900522C
:105660006C6C6C0900526C6C6C0900115B5B5B0923
:1056700000000000000000F6B6F6F6B6F6B6F6B684
:10568000F6B6F6F6B6F6B6F6AD000009ADB5B5005D
:105690000000526C6C000000005B6C000000000019
:1056A0005A000000000000B6EDB6ADADADADB6EDF0
:1056B000B6EDADF6ADB6ADADADB5B5B5B500006CFA
:1056C0006C6C6C00006C6C6C6C00005B5B5B5B007A
:1056D00000000000000000ADADADADADA4ADADADBE
:1056E000ADA4A4ADADADA4ADA400000000005B006E
:1056F000000000005B00000000005A0000000000F5
:1057000012000000000000A4A4A4649B5BA46464D5
:105710009B5B5B64A49B649B5BB5B5B50900006CA7
:105720006C6C0900006C6C6C0900005B5B5B00003A
:10573000000000000000005B5B5A5B52529B5B5B09
:105740005352525B5B52525A52000000005AB5004D
:10575000000000526C00000000526C0000000011BC
:105760005B000000000000525252525252525252FC
:10577000525252521252125252B5B5520000006C9F
:105780006C520000006C6C120000005B5B090000B2
:105790000000000000000052525252525212525267
:1057A00012525252525252525200000000B5B500ED
:1057B0000000006C6C000000006C6C000000005BDE
:1057C0005B000000000000525252525252125252DC
:1057D000125252525252525252B5B5005252526C5B
:1057E0006C001252526C6C005252525B5B0052526F
:1057F000120000005252525252521252521252523F
:105800005252525252114A5212180003001D001EE9
:10581000001F002000210022002300240025002674
:10582000002700280029002A002B002C002D002E24
:10583000002F0030003100320033003400350036D4
:10584000003700380039003A003B003C003D003E84
:10585000003F004000410042004300440045004634
:10586000004700480049004A004B004C004D004EE4
:10587000004F005000510052005300540055005694
:10588000005700580059005A005B005C005D005E44
:10589000005F00600061006200630064003230302D
:1058A000382D3230313120555A4500485454503A41
:1058B0002F2F5757572E42454C4F4749432E434FA2
:1058C0004D2F555A45424F58005445545249532084
:1058D00031005445545249532032004E455720530D
:1058E00055504552204D4152494F2042524F532E60
:1058F0000047484F5354202620474F424C494E53AF
:1059000000564F4C554D453A00504C4159494E4771
:105910003A005052494F524954593A004E4F54455B
:105920003A00574156453A0050415443483A0053D3
:10593000545245414D20504F533A00454E56205643
:105940004F4C3A00454E5620535445503A004D496D
:10595000444920494E20454E41424C45440043486D
:10596000350043483400434833004348320043483D
:1059700031005452454D4F4C4F204C564C3A005339
:105980004C4944453A0011241FBECFEFD0E1DEBFA1
:10599000CDBF14BE88E10FB6F894809360001092DA
:1059A00060000FBE11E0A0E0B1E0E8E6FCE702C055
:1059B00005900D92A030B107D9F71CE0A0E0B1E04E
:1059C00001C01D92AB3FB107E1F70E9491308823DF
:1059D00011F40E946E30F894EEEDF9E080E88193C6
:1059E0009BE0EA3EF907D9F78EED99E09093EB0B37
:1059F0008093EA0B1092EC0B10928D0C10920C0C11
:105A00001092EF0B1092F50B1092FB0B1092010C01
:105A10001092C4091092C60982E18093C50980EEF4
:105A20008093CE098093CC0984E18093CD09809343
:105A3000CB091092D2091092D1091092D609109276
:105A4000D50981E08093EE0B0E94813D20E930E092
:105A5000F90185919491FC01F07090832E5F3F4F86
:105A600080E0243C3807A1F778940E94803D0E9492
:105A7000F63D0C94323E0C94000030EE3A950C94B6
:105A8000412DE1F70C94442DC0E0D1E000EEA02EB2
:105A9000662776E036D13BE23A95F1F70E94782D01
:105AA00031E13A95F1F7AA9489F0C8956395683089
:105AB00029F033E03A95F1F70000ECCF6627002497
:105AC00030E5C30FD01DC8950000E4CF35E03A950E
:105AD000F1F70000000015D1E091C60942E0E4278B
