:100000000C946D4E0C94CF4E0C94CF4E0C94CF4E5E
:100010000C94CF4E0C94CF4E0C94CF4E0C94CF4EEC
:100020000C94CF4E0C94CF4E0C94CF4E0C94CF4EDC
:100030000C94CF4E0C94A4500C94E1500C94CF4EE1
:100040000C94CF4E0C94CF4E0C94CF4E0C94CF4EBC
:100050000C94CF4E0C94CF4E0C94CF4E0C94CF4EAC
:100060000C94CF4E0C94CF4E0C94CF4E0C94CF4E9C
:100070005A5501200101003808000000000000006E
:100080000000000000000000000000000000000070
:100090008100450027FF24FF2A902B1C210C22FB06
:1000A000850084008903888D81096F0244424700DE
:1000B0004501B083B300B10125118A4F8B03C753AB
:1000C000CA530758C154BB54D353D853DD53AA5411
:1000D000E053E353E6532A5400408891D2E4ADB58F
:1000E000B6BEBFFFD0D0D0D0D0D0D0D0D0D0D0D01E
:1000F000D0D0D0D0D0D0D0D0D0D0D0D0D0D0D0D000
:10010000D0D0D0D0D0D0D0D0D0D0D0D0D0D0D0D0EF
:10011000D0D0D0D0D0D0D0D0D0D0D0D0D0D0D0D0DF
:10012000D0D0D0D0D0D0D0D0D0D0D0D0D0D0D0D0CF
:10013000D0D0D0D0D0D0D0D0D0D0D0D0D00000002F
:1001400000000000D000002A2A2A2A2A00002A2AB9
:100150002A2A2A2A00002A2A2A2A2A2A00002A2AA7
:100160002A2A2A2AD0D0D0D0D0D0D0D0D0D0D0D027
:10017000D0D0D0D00000000000000000000000003F
:10018000000000002A2A2A2A2A2A2A2A2A2A2A2A77
:100190002A2A2A2A2A2A2A2A2A2A2A2A2A2A2A2ABF
:1001A0002A2A2A2AD0D0D0D0D0D0D0D0D0D0000087
:1001B0000000000000000000002020202A2A2A2A37
:1001C0002A2A2A2A2A2A2A2A2A2A2A2A2A2A2A2A8F
:1001D0002A2A2A2A2A2A2A2A2A2A2A2A2A2A2A2A7F
:1001E0002A2A2A2AD0D0D0D0D0D0D0D0000000D017
:1001F000D0D0D0D000000000D0D0D0D02A20200015
:1002000000D0D0D02A2A20200000D0D02A2A2A20AC
:10021000000000D02A2A2A2A2A0000D02A2A2A2AC4
:100220002A2A0000D0D0D0D0D0D0D0D00000D0D05A
:10023000D0D0D0D0000000D0D0D0D0D0200000004E
:10024000D0D0D0D02A20200000D0D0D02A2A202000
:100250000000D0D02A2A2A20000000D02A2A2A2AE8
:100260002A0000D00000002A2A2A2A2A0000002A98
:100270002A2A2A2A0000002A2A2A2A2A0000002ADA
:100280002A2A2A2A0000002A2A2A2A2A0000002ACA
:100290002A2A2A2A0000002A2A2A2A2A0000002ABA
:1002A0002A2A2A2A2A2A2A2A2A2A2A2A2A2A2A2AAE
:1002B0002A2A2A2A2A2A2A2A2A2A2A2A2A2A2A2A9E
:1002C0002A2A2A2A2A2A2A2A2A2A2A2A2A2A2A2A8E
:1002D0002A2A2A2A2A2A2A2A2A2A00002A2A2A2AD2
:1002E0002A2A00002A2A2A2A2A2A2A2A2A2A2A2AC2
:1002F0002A2A2A2A2A2A2A2A2A2A2A2A2A2A2A2A5E
:100300002A2A2A2A2A2A2A2A2A2A2A2A2A2A0000A1
:1003100000000000000000000000000000000000DD
:10032000000000002A2A2A2A2A2A00002A2A2A2A29
:100330002A2A00002A2A2A2A2A2A00002A2A2A2AC5
:100340002A2A00002A2A2A2A2A2A0000000000005D
:100350000000D0D00000000000D0D0D0D0D0D0D04D
:10036000D0D0D0D02A2A2A2A2A2A00002A2A2A2AA9
:100370002A2A00002A2A2A2A2A2A00002A2A2A2A85
:100380002A2A00002A2A2A2A2A2A00002A2A2A2A75
:100390002A2A00002A2A2A2A2A2A00002A2A2A2A65
:1003A0002A2A00002A2A2A2A2A2A00002A2A2A2A55
:1003B0002A2A00002A2A2A2A2A2A00D02A2A2A2A75
:1003C0002A2A00002A2A2A2A2A2A00002A2A2A2A35
:1003D0002A2A2A2A2A2A2A2A2A2A2A2A2A2A2A2A7D
:1003E0002A2A2A2AD0D0D0D0D0D0D0D0D0D0D0D0A5
:1003F000D0D0D0D0D0D0D0D0D0D0D0D0000000003D
:100400000000D0D000000000000000002A2A2A2AA4
:100410002A2A2A2A2A2A2A2A2A2A2A2A2A2A2A2A3C
:100420002A2A2A2AD0D0D0D0D0D0D0D0D0D0D0D064
:10043000D0D0D0D0D0D0D0D0D0D0D0D0D0D0D0D0BC
:10044000D0D0D0D00000D0D0D0D0D0D00000D0D0EC
:10045000D0D0D0D00000D0D0D0D0D0D00000D0D0DC
:10046000D0D0D0D0002A2A2A2A0000D0002A2A2A56
:100470000000D0D0002A2A0000D0D0D0002A2A00C4
:10048000D0D0D0D02A2A00D0D0D0D0D02A00D0D0FE
:10049000D0D0D0D000D0D0D0D0D0D0D000D0D0D0FC
:1004A000D0D0D0D02A2A2A2A2A2A00002A2A2A2A68
:1004B0002A2A00D02A2A2A2A2A2A00D02A2A2A2AA4
:1004C0002A2A00D02A2A2A2A2A2A00D02A2A2A2A94
:1004D0002A2A00D02A2A2A2A2A2A00D02A2A2A2A84
:1004E0002A2A00D0D0D0D0D0D0D0D0D0D0D0D0D028
:1004F000D0D0D000D0D0D0D0D0D0D000D0D0D0D09C
:10050000D0D0D000D0D0D0D0D0D0D000D0D0D0D08B
:10051000D0D0D000D0D0D0D0D0D0D000D0D0D0D07B
:10052000D0D0D0002A2A2A2A2A2A00002A2A2A2AB7
:100530002A2A2A002A2A2A2A2A2A2A002A2A2A2A6F
:100540002A2A2A002A2A2A2A2A2A2A002A2A2A2A5F
:100550002A2A2A002A2A2A2A2A2A2A002A2A2A2A4F
:100560002A2A2A000000002A2A2A2A2A0000002A11
:100570002A2A2A2A0000002A2A2A2A2AD000002A07
:100580002A2A2A2AD000002A2A2A2A2AD000002A27
:100590002A2A2A2AD000002A2A2A2A2AD000002A17
:1005A0002A2A2A2A2A2A2A2A2A2A2A2A2A2A2A2AAB
:1005B0002A2A2A2A2A2A2A2A2A2A2A2A2A2A2A2A9B
:1005C0002A2A2A2A2A2A2A2A2A2A2A2A2A2A2A2A8B
:1005D0002A2A2A2A2A2A2A2A2A2A2A2A2A2A2A2A7B
:1005E0002A2A2A2A00D0D0D0D0D0D0D000D0D0D043
:1005F000D0D0D0D000D0D0D0D0D0D0D000D0D0D09B
:10060000D0D0D0D00000D0D0D0D0D0D00000D0D02A
:10061000D0D0D0D00000D0D0D0D0D0D000D0D0D04A
:10062000D0D0D0D000D0D0D0D0D0D0D000D0D0D06A
:10063000D0D0D0D000D0D0D0D0D0D0D00000D0D02A
:10064000D0D0D0D00000D0D0D0D0D0D02A00D0D0C0
:10065000D0D0D0D02A2A00D0D0D0D0D02A2A0000A2
:10066000D0D0D0D00000002A2A2A2A2A0000002A4E
:100670002A2A2A2AD000002A2A2A2A2AD000002A36
:100680002A2A2A2AD000002A2A2A2A2AD000002A26
:100690002A2A2A2AD000002A2A2A2A2AD000002A16
:1006A0002A2A2A2A2A2A2A2A2A2A00D02A2A2A2A2E
:1006B0002A2A00D02A2A2A2A2A2A00D02A2A2A2AA2
:1006C0002A2A00D02A2A2A2A2A2A00D02A2A2A2A92
:1006D0002A2A00D02A2A2A2A2A2A00D02A2A2A2A82
:1006E0002A2A00D0D0D0D0D0D0D0D000D0D0D0D0F6
:1006F000D0D0D000D0D0D0D0D0D0D000D0D0D0D09A
:10070000D0D0D000D0D0D0D0D0D0D000D0D0D0D089
:10071000D0D0D000D0D0D0D0D0D0D000D0D0D0D079
:10072000D0D0D0002A2A2A2A2A2A2A002A2A2A2A8B
:100730002A2A2A002A2A2A2A2A2A2A002A2A2A2A6D
:100740002A2A2A002A2A2A2A2A2A2A002A2A2A2A5D
:100750002A2A2A002A2A2A2A2A2A2A002A2A2A2A4D
:100760002A2A2A00D0D0D0D0D0D0D0D0D0D0D0D04B
:10077000D0D0D0D0D0D0D00000000000D0000000F9
:1007800000002020D0002A2A2A2A2A2AD0002A2A39
:100790002A2A2A2AD0002A2A2A2A2A2AD000002AEB
:1007A0002A2A2A2AD0D0D0D0D0D0D0D0000000D051
:1007B000D0D0D0D000000000D0D0D0D02020000079
:1007C00000D0D0D02A2A20200000D0D02A2A2A20E7
:1007D000200000D02A2A2A2A200000002A2A2A2AB9
:1007E0002A2A0000D000002A2A2A2A2AD000002A19
:1007F0002A2A2A2AD000002A2A2A2A2AD000002AB5
:100800002A2A2A2AD000002A2A2A2A2AD000002AA4
:100810002A2A2A2AD000002A2A2A2A2AD000002A94
:100820002A2A2A2A2A2A2A2A2A2A2A002A2A2A2A52
:100830002A2A00002A2A2A2A2A2A00002A2A2A2AC0
:100840002A2A00002A2A2A2A2A2A00002A2A2A2AB0
:100850002A2A00002A2A2A2A2A2A00002A2A2A2AA0
:100860002A2A2A000000000000000000000000000A
:100870000000000000000000000000D0D0D0D0D068
:10088000D0D0D0D0D0D0D0D0D0D0D0D0D0D0D0D068
:10089000D0D0D0D0D0D0D0D0D0D0D0D0D0D0D0D058
:1008A000D0D0D0D000D0D0D0D0D0D0D0D0D0D0D018
:1008B000D0D0D0D0D0D0D0D0D0D0D0D0D0D0D0D038
:1008C000D0D0D0D0D0D0D0D0D0D0D0D0D0D0D0D028
:1008D000D0D0D0D0D0D0D0D0D0D0D0D0D0D0D0D018
:1008E000D0D0D0D02A2A2A2A2A2A2A2A2A2A2A2AD0
:1008F0002A2A2A2A2A2A2A2A2A2A2A2A2A2A2A2A58
:100900002A2A2A2A2A2A2A2A2A2A2A2A2A2A2A2A47
:100910002A2A2A2A002A2A2A2A2A2A2A002A2A2A8B
:100920002A2A2A2A2A2A0000D0D0D0D02A2A2A000D
:1009300000D0D0D02A2A2A2A00D0D0D02A2A2A2A87
:100940000000D0D02A2A2A2A2A0000D02A2A2A2ABD
:100950002A0000D02A2A2A2A2A0000D02A2A2A2A53
:100960002A2A00D0D0D0D00000000000D0D0D0D0B3
:10097000D0D0D000D0D0D0D0D0D0D000D0D0D0D017
:10098000D0D0D000D0D0D0D0D0D0D000D0D0D0D007
:10099000D0D0D000D0D0D0D0D0D0D000D0D0D0D0F7
:1009A000D0D0D000002A2A2A2A2A2A2A00002A2A5D
:1009B0002A2A2A2A00002A2A2A2A2A2A0000002A69
:1009C0002A2A2A2AD000002A2A2A2A2AD00000000D
:1009D0002A2A2A2AD00000002A2A2A2AD0D0000057
:1009E0002A2A2A2A2A2A2A2A2A2A00002A2A2A2ABB
:1009F0002A2A00002A2A2A2A2A0000D02A2A2A2A59
:100A0000000000D02A2A2A2A00D0D0D02A2A2A0080
:100A100000D0D0D02A2A0000D0D0D0D02A2A00007E
:100A2000D0D0D0D02A2A2A2A2A2A2A002A2A2A2AB8
:100A30002A2A2A002A2A2A2A2A2A2A002A2A2A2A6A
:100A40002A2A2A2A2A2A2A2A2A2A2A2A2A2A2A2A06
:100A50002A2A2A2A2A2A2A2A2A2A2A2A2A2A2A2AF6
:100A60002A2A2A2AD0D0D0D0D0D0D000D0D000008E
:100A70000000000000000000002020202A2A2A2A6E
:100A80002A2A2A2A2A2A2A2A2A2A2A2A2A2A2A2AC6
:100A90002A2A2A2A2A2A2A2A2A2A2A2A2A2A2A2AB6
:100AA0002A2A2A2AD000002A2A2A2A2AD000002A02
:100AB0002A2A2A2AD000002A2A2A2A2AD000002AF2
:100AC0002A2A2A2AD000002A2A2A2A2A0000002AB2
:100AD0002A2A2A2A0000002A000000000000000044
:100AE000000000002A2A2A2A2A2A2A2A2A2A2A2A0E
:100AF0002A2A2A2A2A2A2A2A2A2A2A2A2A2A2A2A56
:100B00002A2A2A2A2A2A2A2A2A2A2A2A2A2A2A006F
:100B100000000000000000000000000000000000D5
:100B20000000000000D0D0D0D0D0D0D000D0D0D0A5
:100B3000D0D0D0D000D0D0D0D0D0D0D000D0D0D055
:100B4000D0D0D0D00000D0D0D0D0D0D00000D0D0E5
:100B5000D0D0D0D000D0D0D0D0D0D0D0D0D0D0D065
:100B6000D0D0D0D000D000002A2A2A2A00D0D0002D
:100B7000002A2A2A00D0D00000002A2A00D0D00063
:100B800000002A2A0000D0D000002A000000D0D0A7
:100B90000000000000D0D0D0D0D0D0D0D0D0D0D065
:100BA000D0D0D0D02A0000D0D0D0D0D00000D0D02B
:100BB000D0D0D0D00000D0D0D0D0D0D000D0D0D0A5
:100BC000D0D0D0D000D0D0D0D0D0D0D0D0D0D0D0F5
:100BD000D0D0D0D0D0D0D0D0D0D0D0D0D0D0D0D015
:100BE000D0D0D0D02A2A2A2A2A2A00002A2A2A2A21
:100BF0002A0000002A2A2A2A2A0000D02A2A2A208B
:100C0000000000D02A2A20200000D0D02A20200076
:100C100000D0D0D020000000D0D0D0D0000000D034
:100C2000D0D0D0D02A2A2A2A2A2A0000002A2A2A0A
:100C30002A2A2A00002A2A2A2A2A2A00002A2A2ABC
:100C40002A2A2A002A2A2A2A2A2A2A002A2A2A2A58
:100C50002A2A2A002A2A2A2A2A2A2A002A2A2A2A48
:100C60002A2A2A000000002A2A2A2A2A0000002A0A
:100C70002A2A2A2A0000002A2A2A2A2A0000002AD0
:100C80002A2A2A2A0000002A2A2A2A2A0000002AC0
:100C90002A2A2A2A0000002A2A2A2A2A00002A2A86
:100CA0002A2A2A2A2A2A2A2A2A2A00D02A2A2A2A28
:100CB0002A2A00D02A2A2A2A2A2A2A002A2A2A2A42
:100CC0002A2A2A2A2A2A2A2A2A2A2A2A2A2A2A2A84
:100CD0002A2A2A2A2A2A2A2A2A2A2A2A2A2A2A2A74
:100CE0002A2A2A2A0000000000000000000000005C
:100CF000000000000000000000000000D0D0D0D0B4
:100D0000D0D0D000D0D0D0D0D0D0D000D0D0D0D083
:100D1000D0D0D000D0D0D0D0D0D0D000D0D0D0D073
:100D2000D0D0D000D0D0D0D000000000D0D0D0D0D3
:100D3000D0D0D0D0D0D0D0D0D0D0D0D0D0D0D0D0B3
:100D4000D0D0D0D0D0D0D0D0D0D0D0D0D0D0D0D0A3
:100D5000D0D0D0D0D0D0D0D0D0D0D0D0D0D0D0D093
:100D6000D0D0D0D00000000000000000D0D0D0D003
:100D7000D0D0D0D0D0D0D0D0D0D0D0D0D0D0D0D073
:100D8000D0D0D0D0D0D0D0D0D0D0D0D0D0D0D0D063
:100D9000D0D0D0D0D0D0D0D0D0D0D0D0D0D0D0D053
:100DA000D0D0D0D00000000000000000D0D0D0D0C3
:100DB000D0D0D000D0D0D0D0D0D0D000D0D0D0D0D3
:100DC000D0D0D000D0D0D0D0D0D0D000D0D0D0D0C3
:100DD000D0D0D000D0D0D0D0D0D0D000D0D0D0D0B3
:100DE000D0D0D0002A2A2A2A2A2A2A002A2A2A2AC5
:100DF0002A2A2A002A2A2A2A2A2A2A002A2A2A2AA7
:100E00002A2A2A002A2A2A2A2A0000002A2A2A2AEA
:100E10002A0000002A2A2A2A2A00A4002A2A2A2A8A
:100E20002A00F65BD0D0D0D0D0D0D0D0D0D0D0D087
:100E3000D0D0D0D0D0D0D0D0D0D0D0D0D0D0D0D0B2
:100E4000D0D0D0D0D0D0D0D0D0D0D0D0D0D0D0D0A2
:100E5000D0D0D0D000D0D0D0D0D0D0D000D0D0D032
:100E6000D0D0D0D0D0D0D0D0D0D0D0D0D0D0D0D082
:100E7000D0D0D0D0D0D0D0D0D0000000D0D0D000B2
:100E800000002A2AD0D00000002A2A2AD000002AF6
:100E90002A2A2A2A00002A2A2A2A2A2A002A2A2A30
:100EA0002A2A2A2AD000002A2A2A2A2AD000002AFE
:100EB0002A2A2A2AD000002A2A2A2A2AD000002AEE
:100EC0002A2A2A2AD000002A2A2A2A2AD000002ADE
:100ED0002A2A0009D000002A2A000000D000002A97
:100EE0000000FFFF2A2A2A2A2A00ADFF2A2A2A2ADE
:100EF0002A005BFF2A2A2A2A2A0000F62A2A2A2AFE
:100F00002A5B005B2A2A2A2A2A2A00002A2A2A2A5D
:100F10002A2A00000000000000000000520000002B
:100F2000000000000000D0D0D0D0D0D00000D0D041
:100F3000D0D0D0D00000D0D0D0D0D0D05B0000D066
:100F4000D0D0D0D0AD0000D0D0D0D052FF0000D053
:100F5000D0D0D000AD0000D0D0D00000000000D034
:100F6000D00900A4D0D0D0D0D0D0D0D0D0D0D0D044
:100F7000D0D0D0D0D0D0D0D0D0D0D0D0D0090000D8
:100F800000D0D0D0000000090900D0D00009F6FF41
:100F9000FF09D0D05BFFFFFFF652D0D0FFFF5B0907
:100FA0000900D0D02A2A2A2A2A2A2A2A2A2A2A2AA0
:100FB0002A2A2A2A2A2A2A2A2A2A2A2A2A2A2A2A91
:100FC0002A2A2A2A2A2A2A2A2A2A2A2A0000000029
:100FD000000000000000000000000000D0D0D0D0D1
:100FE000D0D0D0D000D0D0D0D0D0D00000D0D0D071
:100FF000D0D0D00000D0D0D0D0D0D00000D0D0D031
:10100000D0D0D0000000D0D0D0D0D0000000D0D0C0
:10101000D0D0D0D000D0D0D0D0D0D0D0D0D0D0D0A0
:10102000D0D0D0D0D000002A0000FFFFD0000000B8
:1010300000FF52FFD000000000FF00FFD0000000C2
:1010400000FF0000D000000000FFFF0000000000D3
:1010500000FFFF090000000000FFFFFF000000008C
:101060000000FFFFFF000000FFFFFF00FF0000FF88
:10107000FFFFFFFFFF00FFFFFFFFFFFFFF00FFFF7E
:1010800000000009FF00FF00FFFFFFFF000000FF5E
:10109000FFFFFFFF0009FFFFFFFFFFFFFF09FFFF4B
:1010A000FFFFFFFF000000D0520000F6000000D05C
:1010B0000000090000000000000000AD000000007A
:1010C0000000A4FF0000000000ADFFFF00000000D2
:1010D0000009A4FF00000000000000000000000064
:1010E000000000005B005BADFF09D0D009ADFFFF41
:1010F000AD00D0D0FFFFFFF60000D0D0FFFFFF090A
:1011000000D0D0D0FFFF0000D0D0D0D0AD0909D0A2
:10111000D0D0D0D00009D0D0D0D0D0D0D0D0D0D066
:10112000D0D0D0D0D0D0D0D000000000D0D0D0D0FF
:10113000D0000000D0D0D0D0D0D00000D0D0D0D0BF
:10114000D0D0D0D0D0D0D0D0D0D0D0D0D0D0D0D09F
:10115000D0D0D0D0D0D0D0D0D0D0D0D0D0D000002F
:101160000000D0D0000000FFFFFFFFFF00000000E4
:10117000FFFFFF0000000000000000000900000069
:1011800000000000D000000000000000D00009D0E6
:10119000000000D0D000D0D00009D0D000D0D009BD
:1011A00009D0D0D0000000000000000000000000C6
:1011B000000000000000000000000000000000002F
:1011C000000000000000000000000000000000001F
:1011D000000000000000000000000000000000000F
:1011E000000000D0D0D0D0D0D0D0D0D0D0D0D0D06F
:1011F000D0D0D0D0D0D0D0D0D0D0D0D0D0D0D0D0EF
:10120000D0D0D000D0D0D0D0D0090000D0D0D0D015
:1012100000000000D0D0D00000000000D0D00900B5
:1012200000000000D0D0D0D0D0D0D0D0D0D000009E
:1012300000000000090000000000000000000000A5
:10124000000000000000000000000000000000009E
:1012500000000909000009FFFFFFFFFF00FFFFFF7B
:10126000FFFFFFFFD0D0D0D0D0D0D0D000000009F9
:10127000D0D0D0D000000000000009D00000000055
:101280000000000000000000000000000900000055
:1012900000000000FFFFFF5B00000000FFFFFFFFFA
:1012A000FF520000D0D0D0D0D0D0D0D0D0D0D0D02D
:1012B000D0D0D0D0D0D0D0D0D0D0D0D0D0D0D0D02E
:1012C000D0D0D0D00000D0D0D0D0D0D0000000D02E
:1012D000D0D0D0D000000000D0D0D0D0000000008E
:1012E00000D0D0D0D0D0D0D0D0D0D0D0D0D0D0D0CE
:1012F000D0D0D0D0D0D0D0D0D0D0D0D0D0D0D0D0EE
:10130000D0D0D0D0D0D0D0D0D0D00000D0D0D0D07D
:1013100000000000D0D0D00000000000D0D00000BD
:1013200000000000D0D0D0D0D0D0D0D0D0D0D0D0FD
:10133000D0D0D0D0D0D0D0D0D0D0D0D000000000ED
:10134000000000000000000000000000000000009D
:10135000000000000000000000000000000009FF85
:10136000FFFFFFFFD0D0D0D0D0D0D0D0D0D0D0D0C1
:10137000D0D0D0D0D0D0D0D0D0D0D0D00009D0D004
:10138000D0D0D0D0000000D0D0D0D0D0000000000D
:1013900000D0D0D0000000000000D0D00900000034
:1013A000000000D0D0D0D0D0D0D0D0D0D0D0D0D0AD
:1013B000D0D0D0D0D0D0D0D0D0D0D0D0D0D0D0D02D
:1013C000D0D0D0D0D0D0D0D0D0D0D0D0D0D0D000ED
:1013D0000000D0D0D0D0D000000000D0D0D0D000BD
:1013E000000000D0D00000000000D0D0D0000000ED
:1013F00000005200D0D0D0D0D0D00000D0D0D0D07B
:10140000D0D00000D0D0D0D0D0D00000D0D0D0D01C
:10141000D0D00000D0D0D0D0D0D00000D0D0D0D00C
:10142000D0D0000000D0D000D0D0D0D000D000006C
:10143000D0D0D0D0000000D0D0D0D0000000D0D08C
:10144000D0D0D0000009D0D0D0D0D00000D0D0D0A3
:10145000D0D0D00000D0D0D0D0D0D000D0D0D0D0FC
:10146000D0D0D00000000000000000D0000000003C
:10147000000000D00000D0D000D0D000D000D0D0EC
:1014800000D0D000D000D0D00000D000D000D0D00C
:10149000D000D0D0D00000D0D000D0D0D0D000D05C
:1014A000D000D0D0D0D0D0D0D0D0D0D0D0D0D0D00C
:1014B000D0D0D0D0D0D0D0D0D0D0D0D0D0D0D0D02C
:1014C000D0D0D0D000D0D0D0D0D0D0D00000D0D08C
:1014D000D0D0D0D0D00000D0D0D0D0D0D00000001C
:1014E000D0D0D0D0D0D0D0D0D0D0D0D0D0D0D0D0FC
:1014F000D0D0D0D0D0D0D0D0D0D0D0D0D0D0D0D0EC
:10150000D0D0D000D0D0D0D0D0D0D000D0D0D0D07B
:10151000D0D00000D0D0D0D0D0D00000D0D0D0D00B
:10152000D0000000D0D00000000000FFD00000007C
:101530000000FFFF0000000000FFFFFF00000000B0
:10154000FFFFFFFF000000FFFFFFFFFF000009FF9C
:10155000FFFFFFFF0000FFFFFFFFFFFF00FFFFFF98
:10156000FFFFFFFFFFFFFFFFFFFFFFFFFFFFFFFF8B
:10157000FFFFFFFFFFFFFFFFFFFFFFFFFFFFFFFF7B
:10158000FFFFFFFFFFFFFFFFFFFFFFFFFFFFFFFF6B
:10159000FFFFFFFFFFFFFFFFFFFFFFFFFFFFFF005A
:1015A00000000000FFFFFFFFFFFFFF09FFFFFFFF3D
:1015B000FFFFFFFFFFFFFFFFFFFFFFFFFFFFFFFF3B
:1015C000FFFFFFFFFFFFFFFFFFFFFFFFFFFFFFFF2B
:1015D000FFFFFFFFFFFFFFFFFFFFFFFFFFFFFFFF1B
:1015E000FFFFFFFF000000000000D0D0000000005F
:1015F000000000D0FF5B000000000000FFFFFF00C4
:1016000000000000FFFFFF0900000000FFFFFFFFD8
:1016100052000000FFFFFFFFFF5B0000FFFFFFFF26
:10162000FFFF5200D000000000000000000000009A
:10163000000009FF000000000000FFFF00000000A4
:1016400000FFFFFF00000000FFFFFFFF000000FFA2
:10165000FFFFFFFF000052FFFFFFFFFF0000FFFF43
:10166000FFFFFFFF09FFFFFFFFFFFFFFFFFFFFFF80
:10167000FFFFFFFFFFFFFFFFFFFFFFFFFFFFFFFF7A
:10168000FFFFFFFFFFFFFFFFFFFFFFFFFF00000067
:10169000FFFFFFFF0000000000FFFFFF0000000051
:1016A00000FFFFFFFFFFFF0000000000FFFFFFFF44
:1016B00000000000FFFFFFFFFF090000FFFFFFFF2A
:1016C000FFFF0900FFFFFFFFFFFFFF00FFFFFFFF1E
:1016D000FFFFFF00FFFFFFFFFFFFFFFFFFFFFFFF19
:1016E000FFFFFFFFD0D0D0D0D0D0D0D000D0D0D00E
:1016F000D0D0D0D00000D0D0D0D0D0D00000D0D02A
:10170000D0D0D0D00000D0D0D0D0D0D0000009D0E0
:10171000D0D0D0D0000000D0D0D0D0D0FF0000D0AA
:10172000D0D0D0D0D0D0D0D0D0D0D0D0D0D0D0D0B9
:10173000D0D0D0D0D0D0D0D0D0D0D0D0D0D0D0D0A9
:10174000D0D0D0D0D0D0D0D0D0D0D0D0D0D0D0D099
:10175000D0D0D0D0D0D0D0D0D0D0D0D0D0D0D0D089
:10176000D0D00000D0D0D000000000D0D0D0D0D059
:10177000000000D0D0D0D0D0D0D0D000D0D0D0D0A9
:10178000D0D0D000D0D0D0D0D0D0D000D0D0D0D0F9
:10179000D0D0D000D0D0D0D0D0D0D00000D0D0D0B9
:1017A000D0D0D000D0D0D0D0D00000D0D0D0D0D0A9
:1017B000D000D0D0D0D0D0D0D000D0D0D0D0D0D0C9
:1017C000D000D0D0D0D0D0D00900D0D0D0D0D0D080
:1017D00000D0D0D000D0D00000D0D0D00000000089
:1017E00000D0D000D0D0D0D0D0D00000D0D0D0D039
:1017F000D0D00000D0D0D0D0D0D0D0D0D0D0D0D089
:10180000D0D0D0D0D0D000D0D0D0D0D0D000000018
:10181000D0D0D0D000ADFFAD00D0D0D009A45B09AE
:1018200009D0D0D0D0D000D0D0D000D0D0D000D0EF
:10183000D0D00000D00000D0D0D00000D00000D028
:10184000D0D0D000D00000D0D0D0D000D0D0D0D0D8
:10185000D0D0D0D0D0D0D0D0D0D0D0D0D0D0D0D088
:10186000D0D0D0D0D0D00000D0D0D0D0D0D0D0D018
:10187000D0D0D0D000D0D0D0D0D0D0D000D0D0D008
:10188000D0D0D0D000D0D0D0D0D0D0D0D0D0D0D028
:10189000D0D0D0D0D0D0D0D0D0D0D0D0D0D0D0D048
:1018A000D0D0D0D0D0D0D0D0D0000000D0D0D0D0A8
:1018B000D0000000D0D0D0D0D0000000D0D0D0D008
:1018C000000000FFD0D0D0D0000000FFD0D0D00961
:1018D000000000FFD0D0D0000000FFFFD0D0D0002B
:1018E0000000FFFFFFFFFFFFFFFFFFFFFFFFFFFF06
:1018F000FFFFFFFFFFFFFFFFFFFFFFFFFFFFFFFFF8
:10190000FFFFFFFFFFFFFFFFFFFFFFFFFFFFFFFFE7
:10191000FFFFFFFFFFFFFFFFFFFFFFFFFFFFFFFFD7
:10192000FFFFFFFFFFFF000000000000FFFF0000BF
:1019300000000000FFFF000000000000FFFF0000AB
:1019400000000000FFFF000000000000FFFF00009B
:1019500000000000FFFF000000000000FFFF00008B
:101960000000000000FFFFFFFFFFFFFF00FFFFFF81
:10197000FFFFFFFF00FFFFFFFFFFFFFF00FFFFFF75
:10198000FFFFFFFF00FFFFFFFFFFFFFF00FFFFFF65
:10199000FFFFFFFF00FFFFFFFFFFFFFF00FFFFFF55
:1019A000FFFFFFFFFFFFFFFFFFFFFF00FFFFFFFF46
:1019B000FFFFFF00FFFFFFFFFFFFFFFFFFFFFFFF36
:1019C000FFFFFFFFFFFFFFFFFFFFFFFFFFFFFFFF27
:1019D000FFFFFFFFFFFFFFFFFFFFFFFFFFFFFFFF17
:1019E000FFFFFFFF0000FFFFFFFFFFFF0000FFFF03
:1019F000FFFFFFFF0000FFFFFFFFFFFF000009FFE9
:101A0000FFFFFFFF520000FFFFFFFFFFFF0000FF8F
:101A1000FFFFFFFFFF0000FFFFFFFFFFFF0000FFD2
:101A2000FFFFFFFF0000000000FFFFFF00000000BD
:101A300000FFFFFF0000000009FFFFFF090000009A
:101A4000FFFFFFFFFFFFFFFFFFFFFFFFFFFFFFFFA6
:101A5000FFFFFFFFFFFFFFFFFFFFFFFFFFFFFFFF96
:101A6000FFFFFFFFFFFFFFFFFFFFFFFFFFFFFFFF86
:101A7000FFFFFFFFFFFFFFFFFFFFFFFFFFFFFFFF76
:101A8000FFFFFFFFFFFFFFFFFFFFFFFFFFFFFFFF66
:101A9000FFFFFFFFFFFFFFFFFFFFFFFFFFFFFFFF56
:101AA00000000000FF0000D0D0D0D0D0FFFF000029
:101AB000D0D0D0D0FFFF0000D0D0D0D0FFFF0000AA
:101AC000D0D0D0D0FFFF0000D0D0D0D0FFFF00009A
:101AD000D0D0D0D0FFFF0000D0D0D0D00000000088
:101AE00000000000D0D0D0D0D0000000D0D0D0D0A6
:101AF000D0005BFFD0D0D0D0D00052FFD0D0D0D01B
:101B0000D0000052D0D0D0D0D0D0D000D0D0D0D0C3
:101B1000D0D0D0D000000000000000000000000085
:101B200000000000000000D0D0D0D0000009090063
:101B3000D0D00900AD005B0000000000FFF609FFF7
:101B40000900000000525BA4F6090000000000003C
:101B5000090000000000000000000000000000007C
:101B60000000000000000000D0D0000000000000D5
:101B7000D0D00009000000000000ADFF0000000010
:101B80000000FFFF0000000000005B0000000000FC
:101B90000000000000000000000000000000000045
:101BA0000000000009520900D0D0D0D0ADAD000037
:101BB000D0D0D0D0FF0000D0D0D0D0D05200D0D0E4
:101BC000D0D0D0D0000000000000000000000000D5
:101BD0000000000000000000000000000000000005
:101BE00000000000D0D0D0D0D0D0D0D0D0D0D0D035
:101BF000D0D0D0D0D0D0D0D0D0D0D0D0D0D0D0D0E5
:101C0000D0D0D0D0000000D0D0D0D0D00000000084
:101C100000D0D0D0000000000000D0D000000000B4
:101C2000000000D0D0D0D0000000FFFFD0D0D00006
:101C30000000FFFFD0D0D00000FFFFFFD0D0D000C9
:101C400000FFFFFFD0D0D00000FFFFFFD0D0D000BA
:101C500000FFFFFFD0D0D00000FFFFFFD0D0D000AA
:101C600000FFFFFFFFFFFF0900000009FFFFFFFF6C
:101C7000FFFFFFFFFFFFFFFFFFFFFFFFFFFFFFFF74
:101C8000FFFFFFFFFFFFFFFFFFFFFFFFFFFFFFFF64
:101C9000FFFFFFFFFFFFFFFFFFFFFFFFFFFFFFFF54
:101CA000FFFFFFFFFF0900FFFFFFFFFFFFFF00FF38
:101CB000FFFFFFFFFFFF00FFFFFFFF00FFFF00FF31
:101CC000FF000000FFFF000000000000FFFF000019
:101CD00000000810FF00001018182020FF0000204E
:101CE00020202020FFFFFFFFFFFF0000FFFF00007C
:101CF00000000000000000000000000000000000E4
:101D000000000008000008101018202010202020DB
:101D10002020201020202020080000002010080093
:101D200000000000000000000000000000000000B3
:101D3000000000000000000000000808101010184B
:101D400018181008202018080000000008000000E3
:101D50000000000000000000000000000000000083
:101D600000102A2A0000000000000000000000000F
:101D7000000000000800000000000000000000005B
:101D80000000000000000000000008100000000833
:101D9000112A2A2A102A2A2A2A2A2A2A2A2A2A2AD6
:101DA0002A2A2A2A0000000000000000000000008B
:101DB000000000000000000000000000000008100B
:101DC000192A2A2A2A2A2A2A2A2A2A2A2A2A2A2A84
:101DD0002A2A2A2A2A2A2A2A2A2A2A2A2A2A2A2A63
:101DE0002A2A2A2A0000000000000000000000004B
:101DF0000810112A10112A2A2A2A2A2A2A2A2A2ACB
:101E00002A2A2A2A2A2A2A2A2A2A2A2A2A2A2A2A32
:101E10002A2A2A2A2A2A2A2A2A2A2A2A2A2A2A2A22
:101E20002A2A2A2A00081010112A2A2A2A2A2A2AAB
:101E30002A2A2A2A2A2A2A2A2A2A2A2A2A2A2A2A02
:101E40002A2A2A2A2A2A2A2A2A2A2A2A2A2A2A2AF2
:101E50002A2A2A2A2A2A2A2A2A2A2A2A2A2A2A2AE2
:101E60002A2A2A2A2A2A2A2A2A2A2A2A2A2A2A2AD2
:101E70002A2A2A2A2A2A2A2A2A2A2A2A2A2A2A2AC2
:101E80002A2A2A2A2A2A2A2A2A2A2A2A2A2A2A2AB2
:101E90002A2A2A2A2A2A2A2A2A2A2A2A2A2A2A2AA2
:101EA0002A2A2A2A08000000000000D02A2A00005E
:101EB000000000D02A2A2A00000000D02A2A1000A0
:101EC000000000D02A2A0000000000D02A2A0000CA
:101ED000000000D02A110000000000D02A080000F5
:101EE000000000D0D0D0D0D0D0D0D0D0D0D0D0D062
:101EF000D0D0D0D0D0D0D0D0D0D0D0D0D0D0D0D0E2
:101F0000D0D0D0D0D0D0D0D0D0D0D000D0D0D0D0A1
:101F1000D0D00000D0D0D0D000000000D0D0D00071
:101F200000000000D0D0D00000FFFFFFD0D0D000D4
:101F300000FFFFFFD0D0D00000FFFFFFD0D0D000C7
:101F400000FFFFFF000000000000FFFF0000000096
:101F50000000FFFF00000000000000FF0000000084
:101F6000000000FFFFFFFFFFFFFFFFFFFFFFFFFF7E
:101F7000FFFFFFFFFFFFFFFFFFFFFFFFFFFFFFFF71
:101F8000FFFFFFFFFFFFFFFFFFFFFF00FFFFFFFF60
:101F9000FFFF0800FFFFFFFFFF000000FFFFFFFF44
:101FA00000000000FF00082020201008FF0010188B
:101FB0001000000000000000000000000000000011
:101FC0000000000000000000000000080000000009
:101FD000002A2A2A0000102A2A2A2A2A082A2A2A1B
:101FE0002A2A2A2A00000000000000000000000049
:101FF0000000000800000000082A2A2A00082A2AF7
:102000002A2A2A2A2A2A2A2A2A2A2A2A2A2A2A2A30
:102010002A2A2A2A2A2A2A2A2A2A2A2A2A2A2A2A20
:102020002A2A2A2A0000082A2A2A2A2A2A2A2A2A86
:102030002A2A2A2A2A2A2A2A2A2A2A2A2A2A2A2A00
:102040002A2A2A2A2A2A2A2A2A2A2A2A2A2A2A2AF0
:102050002A2A2A2A2A2A2A2A2A2A2A2A2A2A2A2AE0
:102060002A2A2A2A2A2A2A2A2A2A2A2A2A2A2A2AD0
:102070002A2A2A2A2A2A2A2A2A2A2A2A2A2A2A2AC0
:102080002A2A2A2A2A2A2A2A2A2A2A2A2A2A2A2AB0
:102090002A2A2A192A2A2A2A2A2A2A002A2A2A2ADB
:1020A0002A2A11002A0000000000D0D02A000000D7
:1020B0000000D0D0000000000000D0D000000000E0
:1020C00000D0D0D00000000000D0D0D00000000030
:1020D000D0D0D0D000000000D0D0D0D0000000D0B0
:1020E000D0D0D0D0D0D0000000000000D0D0000070
:1020F00000000000D0D0000000000008D0D0000098
:1021000000000820D0D0000000002020D0D0000027
:1021100000002020D0D0000000002020D0D00000FF
:102120000000202000000000000000FF0020200030
:10213000000000002020202000000000202020209F
:102140000800000020202020200000002020202067
:10215000200000002020202020200000202020201F
:1021600020200800FFFFFFFFFFFFFFFFFFFFFFFF33
:10217000FFFFFFFFFFFFFFFFFFFFFFFFFFFFFFFF6F
:10218000FFFFFFFF00FFFFFFFFFFFFFF00FFFFFF5D
:10219000FFFFFFFF0000FFFFFFFFFFFF000000FF4A
:1021A000FFFFFFFFFFFFFFFFFFFFFFFFFFFFFFFF3F
:1021B000FFFFFFFFFFFFFFFFFFFFFFFFFFFFFFFF2F
:1021C000FFFFFFFFFFFFFFFFFFFFFFFFFFFFFFFF1F
:1021D000FFFFFFFFFFFFFFFFFFFFFF09FFFFFFFF05
:1021E000FFFF0000FFFFFFFFFFFFFFFFFFFFFFFFFD
:1021F000FFFFFFFFFFFFFFFFFFFFFFFFFFFFFFFFEF
:10220000FFFF0000FFFFFFFF00082A2AFF00000079
:102210002A2A2A2A0000112A2A2A2A2A002A2A2AB5
:102220002A2A2A2AFFFFFF000000082AFF090008C7
:102230002A2A2A2A00002A2A2A2A2A2A2A2A2A2A52
:102240002A2A2A2A2A2A2A2A2A2A2A2A2A2A2A2AEE
:102250002A2A2A2A2A2A2A2A2A2A2A2A2A2A2A2ADE
:102260002A2A2A2A2A2A2A2A2A2A00002A2A2A2A22
:102270002A0800002A2A2A2A110000002A2A2A2ACB
:10228000000000002A2A2A2A000000002A2A2A0820
:10229000000000002A2A1100000000002A19000096
:1022A00000000000000000D0D0D0D0D0000000D04E
:1022B000D0D0D0D0000000D0D0D0D0D00000D0D02E
:1022C000D0D0D0D000D0D0D0D0D0D0D000D0D0D0AE
:1022D000D0D0D0D0D0D0D0D0D0D0D0D0D0D0D0D0FE
:1022E000D0D0D0D0D0D0000000002020D0D000002E
:1022F00000002020D0D0000000000020D0D000003E
:1023000000000020D0D0000000000008D0D0000065
:1023100000000000D0D0000000000000D0D0D000AD
:10232000000000002020202020202000202020204D
:10233000202020202020202020202020202020209D
:10234000202020202020202020202020202020208D
:10235000202020202020202020202020002020209D
:1023600020202020000000FFFFFFFFFF00000000F2
:10237000FFFFFFFF00000000000000002000000041
:1023800000000000202000000000001120200000BC
:102390000000102A20000000102A2A2A0000002035
:1023A000202A2A2AFFFFFFFF0000082AFFFF000063
:1023B000002A2A2A0000082A2A2A2A2A00102A2A61
:1023C0002A2A2A2A2A2A2A2A2A2A2A2A2A2A2A2A6D
:1023D0002A2A2A2A2A2A2A2A2A2A2A2A2A2A2A2A5D
:1023E0002A2A2A2A2A2A2A2A2A2A2A2A2A2A2A2A4D
:1023F0002A2A2A2A2A2A2A2A2A2A2A222A2A2A2A45
:102400002A2A22002A2A2A2A2A2A00002A2A2A2AB2
:102410002A1900002A2A2A2A110000002A2A2A1032
:10242000000000002A000000000000D02200000090
:10243000000000D0000000000000D0D0000000002C
:1024400000D0D0D000000000D0D0D0D000000000DC
:10245000D0D0D0D0000000D0D0D0D0D00000D0D08C
:10246000D0D0D0D0D0D0D00000000000D0D0D0004C
:1024700000000000D0D0D0D000000000D0D0D0D0DC
:1024800000000000D0D0D0D000000000D0D0D0D0CC
:10249000D0000000D0D0D0D0D0000000D0D0D0D01C
:1024A000D0D000000020202020202020002020204C
:1024B000202020000020202020200020002020209C
:1024C0002010202000082020202020200000202094
:1024D00020202020000008202020202000000020B4
:1024E00020202020000820202A2A2A2A2020202AF2
:1024F0002A2A2A2A2020202A2A2A2A2A2020202A78
:102500002A2A2A2A2020202A2A2A2A2A2020202A67
:102510002A2A2A2A2020202A2A2A2A2A2020202A57
:102520002A2A2A2A2A2A2A2A2A2A2A2A2A2A2A2A0B
:102530002A2A2A2A2A2A2A2A2A2A2A2A2A2A2A2AFB
:102540002A2A2A002A2A2A2A2A2A11002A2A2A2A58
:10255000190000002A2A2A08000000002A2A100078
:10256000000000002A2A0800000000002A190000CC
:102570000000000010000000000000D0000000007B
:102580000000D0D00000000000D0D0D0000000003B
:10259000D0D0D0D0000000D0D0D0D0D00000D0D04B
:1025A000D0D0D0D000D0D0D0D0D0D0D0D0D0D0D0FB
:1025B000D0D0D0D0D0D0D0D0D0D0D0D0D0D0D0D01B
:1025C000D0D0D0D0D0D0D0D0D0D0D0D0D0D0D0D00B
:1025D000D0D0D0D0D0D0D0D0D0D0D0D0D0D0D0D0FB
:1025E000D0D0D0D0D0D0D0D0D0D00000D0D0D0D08B
:1025F000D0D00000D0D0D0D0D0D00000D0D0D0D01B
:10260000D0D0D000D0D0D0D0D0D0D000D0D0D0D06A
:10261000D0D0D0D0D0D0D0D0D0D0D0D0D0D0D0D0BA
:10262000D0D0D0D0000000082020202000000000E2
:10263000202020200000000020202020000000009A
:1026400020202020000000000020202000000000AA
:1026500000102020D000000000002020D00000004A
:10266000000000202020202A2A2A2A2A2020202A8E
:102670002A2A2A2A202020202A2A2A2A202020200A
:102680002A2A2A2A20202020212A2A2A2020202003
:10269000202A2A2A2020202020202A2A2020202008
:1026A0002020212A2A2A2A2A2A2A2A2A2A2A2A2AA7
:1026B0002A2A2A2A2A2A2A2A2A2A2A082A2A2A2A9C
:1026C0002A2A00002A2A2A2A100000002A2A2A1967
:1026D000000000002A2A0800000000002A00000074
:1026E000000000002A0000000000000000000000C0
:1026F0000000000000000000000000D0000000000A
:102700000000D0D000000000D0D0D0D0000000D019
:10271000D0D0D0D000D0D0D0D0D0D0D0D0D0D0D089
:10272000D0D0D0D0D000000000000008D0D00000F1
:1027300000000000D0D0D00000000000D0D0D000B9
:1027400000000000D0D0D0D000000000D0D0D000D9
:1027500000000000D0D0000000000000D000000009
:1027600000000008202020202020202A20202020D7
:102770002020202A002020202020202000000820C7
:102780002020202000000020202020200000000029
:102790000020202000000000000020200000000099
:1027A000000000202A2A2A2A2A2A2A2A2A2A2A2A11
:1027B0002A2A2A2A2A2A2A2A2A2A2A2A202A2A2A83
:1027C0002A2A2A2A20202A2A2A2A2A2A20202A2A91
:1027D0002A2A2A2A202020202A2A2A2A20202020A9
:1027E000202A2A2A2A2A2A2A2A2A2A2A2A2A2A2A53
:1027F0002A2A2A2A2A2A2A2A2A2A2A2A2A2A2A2A39
:102800002A2A2A2A2A2A2A2A2A2A2A192A2A2A2A39
:102810002A2A10002A2A2A2A000000002A2A080050
:10282000000000002A2A2A2A2A2A2A192A2A2A2AC1
:102830002A2A08002A2A2A2A110000002A2A080027
:102840000000000000000000000000000000000088
:102850000000000000000000000000000000082050
:102860002000000000000000000000D00000000078
:1028700000D0D0D000000000D0D0D0D00000D0D008
:10288000D0D0D0D000D0D0D0D0D0D0D000D0D0D0E8
:10289000D0D0D0D000D0D0D0D0D0D0D000D0D0D0D8
:1028A000D0D0D0D0D0D0D0D0D0D0D0D0D0D0D0D028
:1028B000D0D0D000D0D0D0D0D0D00000D0D0D0D088
:1028C000D0D00000D0D0D0D0D0000000D0D0D0D018
:1028D00000000000D0D0D00000000000D0D00800E0
:1028E00000000000000000000000082000000000C0
:1028F0000010202000000000202020200000000008
:10290000202020200000002020202020000008207F
:10291000202020200008202020202020002020200F
:1029200020202020000000000000000020080000FF
:1029300000000000202020000000000020202020B7
:10294000080000002020202020201000202020202F
:102950002020202020202020202020202020202077
:1029600020202020001020202020202A00000010FD
:102970002020202000000000000020200000000097
:10298000000000000000000000000000200800001F
:10299000000000002020202020080000202020200F
:1029A000202020202A2A2A2A2A2A2A2A202A2A2AB9
:1029B0002A2A2A2A20182A2A2A2A2A2A0000000833
:1029C00010102A2A00000000000000000000000093
:1029D00000000000000000000000000020080000CF
:1029E000000000002A2A2A2A2A2A2A2A2A2A2A2AEF
:1029F0002A2A2A2A2A2A2A2A2A2A2A2A2A2A2A2A37
:102A00002A2A2A2A000808102A2A2A2A0000000056
:102A100000000000000000000000000000000000B6
:102A2000000000002A2A2A2A2A2A2A2A2A2A2A2AAE
:102A30002A2A2A2A2A2A2A2A2A2A2A2A2A2A2A2AF6
:102A40002A11080008080000000000000000000033
:102A50000000000000000000000000000000000076
:102A6000000000082A2A2A2A2A2A2A112A2A2A2A7F
:102A7000100000002A100800000000000000000004
:102A80000000000000000000000000000000000046
:102A900000102020000008202020202020202020BE
:102AA00020202020000000000000000000000000A6
:102AB0000000002000000000082020200000082066
:102AC0002020202020202020202020202020202006
:102AD00020202020202020202020202020202020F6
:102AE0002020202000082020200800002020202076
:102AF000200800002020202020200000202020206E
:102B00002020000020202020202000002020202045
:102B10002020000020202020202000002020202035
:102B20002020000000D0D0D0D0D0D0D000D0D0D045
:102B3000D0D0D0D000D0D0D0D0D0D0D000D0D0D035
:102B4000D0D0D0D000D0D0D0D0D0D0D00000D0D0F5
:102B5000D0D0D0D00000D0D0D0D0D0D00000D0D0B5
:102B6000D0D0D0D01E1A00000000000102030400E3
:102B70000102030400010203050001020304000036
:102B8000000000000000000000060708090006071A
:102B9000080A000607080A000607080900000000E6
:102BA00000000000000000060B0C0D00060B0C0ED0
:102BB00000060F101100060F0000000000000000CA
:102BC0000000000000121313140012131315001656
:102BD0001718190016171A1B00000000000000004B
:102BE0000000001C1D1E1F001C1D2021001C1D18A4
:102BF00019001C1D22190000000000000000000048
:102C0000001C190000001C192324001C2526190093
:102C10001C2526190000000000000000000000270D
:102C20002829000027282A2B002728082C002728DD
:102C3000082C000000000000000000010203040056
:102C40000102030400010203050001020304000164
:102C50000203040000000000000607080900060740
:102C60000809000607080A000607080900270708E0
:102C700009000000000000060B0C0D00060B0C0DF7
:102C800000060B0C2D002E0F000000001C19000088
:102C9000000000000012131314001213131400128A
:102CA00013131900232F030400001C190000000057
:102CB0000000001C1D1E1F001C1D1E1F001C1D30BF
:102CC00019003132331900001C34350000000000B7
:102CD000001C190000001C193604001C19181900EA
:102CE0003602261900003738393A00000000002764
:102CF0002829000027283B090027283C090027280D
:102D0000080900003D3E3F400000000000000000B8
:102D100000000000000000000000000000000000B3
:102D200000004142430000000000000000000000DD
:102D30000000000000004445464748494A00004B57
:102D40004C4D4E4F0000000000000000000000004D
:102D5000000000505152535455565758595A5B5C15
:102D60005D5E0000000000000000000000000000A8
:102D7000005F606162636465666768696A6B6C00C6
:102D80000000000000000000000000000000006DD6
:102D9000606E60606F70717273747576770000009A
:102DA0000000000000000000000000007879606072
:102DB000607A7B7C7D767676767E7F0000000000F0
:102DC00000000000000000000000808182838485F4
:102DD00076767676767676868700000000000000AC
:102DE000000000000000000088898A8B76767676E5
:102DF000767676768C8D00000000000000000000E2
:102E00000000000000008E8F9076767676767676DB
:102E10007691929300000000000000000000000086
:102E2000000000009495967676767676767697987A
:102E300093000000000000000000000000000000FF
:102E4000000000999A9B767676769C9D9E00000005
:102E50000000000000000000000000000000000072
:102E60009FA0A1A2A3A4A5A6A7A8A9000000000056
:102E70000000313131213121213131212131312104
:102E80003131312131313121213121313131312182
:102E90003121213131312131313121313121213182
:102EA0003131312121312131312131313131212172
:102EB0002131313131213121213131212131313162
:102EC0003131312131313131213121313131313122
:102ED0003121213131313131313121313131313112
:102EE0003131313131313131312131313131212102
:102EF0002131312121312131313131312131312122
:102F00002131312121313131213121312131313111
:102F100031213131312131313121313131212131F1
:102F20003121213131213121213131212121313111
:102F300031313121213121313131313121313121D1
:102F400021313121213131312131213121313121E1
:102F50003121313131003131212131313121002113
:102F60002121213131212100002131212121212163
:102F700021213131312121212131312121313121D1
:102F800000313121313131210031213121313121E3
:102F90000021212131312121212121213121210033
:102FA00021210021210000212121310000212121A6
:102FB0002131210021002100212121210021002196
:102FC0000021210021002121212121212121210075
:102FD0002121212121002121212121212121212102
:102FE00021212121212121212121212121212121D1
:102FF0002121313131312121313131313100213142
:1030000031313131310031313100003100003131A5
:1030100031002100213131312100002100313121E5
:103020000021210021000000210021210021002198
:103030000021213121313131313100213131313122
:103040002131213131313131313100313131002102
:1030500031310021210021313131210000210031A5
:103060003131002100000000310021002121000049
:1030700021003131313121213131313131EA2131F8
:103080003131313131EA313131EAEA31EAEA313193
:1030900031EAEAEAEAEA313131EAEAEAEAEA3131E6
:1030A00031EAEAEAEAEAEA31EAEAEAEAEAEAEAEAF2
:1030B000EAEA3131313121213131313131002131EF
:1030C000313131313100313131EA003100003131FB
:1030D00031EA21002131313121EA00210031312151
:1030E000002121002100000021EA212100210021EE
:1030F0000021212121212121212121002121212102
:103100002121002121210021212100212100212133
:103110002121210000210021212100212121002144
:103120002100002121000021210021000021210097
:103130000021212121212121212121000000212103
:1031400021212100212121002121210021002121F3
:1031500021212100212100212121212100212121C2
:103160000021210021002121002121212121000015
:103170000021EAEAEAEAEAEAEAEAEAEAEAEAEAEA62
:10318000EAEAEAEAEAEAEAEAEAEAEAEAEAEAEAEA9F
:10319000EAEAEAEAEAEAEAEAEAEAEAEAEAEAEAEA8F
:1031A000EAEAEAEAEAEAEAEAEAEAEAEAEAEAEAEA7F
:1031B000EAEA2121213131313131EA213131313114
:1031C00000312131313131002131EA3131310021F9
:1031D0003131EA21210021313131EAEAEA21EA31B3
:1031E0003131EAEAEAEAEAEA31EAEAEAEAEAEAEA6A
:1031F00021EA312131312131310031213131213187
:103200003100003131212131EA2131EA31313121DE
:10321000EAEA31EA21313121EAEAEAEAEA3131EA3D
:10322000EAEAEAEAEAEA31EAEAEAEAEAEAEAEAEAB7
:10323000EAEAEA21212121212121EA2121EA212191
:103240002100EA2121EA21212121EA21EAEA2121A2
:1032500021EAEAEAEAEA212121EAEAEAEAEA212184
:1032600021EAEAEAEAEAEA21EAEAEAEAEAEAEAEA50
:10327000EAEA212100212121000021212100212130
:103280002100EA21210021212100EA212121002120
:103290002100EA212100210000212100002121211B
:1032A000212121212121212121212121212121210E
:1032B00021212121212121212121212121212121FE
:1032C00021212121212121212121212121212121EE
:1032D00021212121212121212121212121212121DE
:1032E00021212121212121212121212121212121CE
:1032F0002121212100212121000021212100212142
:103300002100002121002121210000212121002173
:103310002100002121002100002121000021212184
:10332000212121212121212121212121212121218D
:10333000212131213131213131003121313121310E
:103340003100003131212131002131003131312171
:103350000000310021313121002100000031310015
:103360002100002100003100002121002100000087
:103370002100EA21212121212121EA2121EA212103
:1033800021EAEA2121EA21212121EA21EAEA212177
:1033900021EAEAEAEAEA212121EAEAEAEAEA212143
:1033A00021EAEAEAEAEAEA21EAEAEAEAEAEAEAEA0F
:1033B000EAEA3131313121213131313131002131EC
:1033C000313131313100313131EA003100003131F8
:1033D00031EA21002131313121EA0021003131214E
:1033E000002121002100000021EA212100210021EB
:1033F000EA21212100212121EAEA212121002121A4
:1034000021EA00212100212121EA0021212100219E
:1034100021EA002121002100002121000021212199
:10342000212121212121212121212121212121218C
:103430002121EAEAEA33EAEAEAEAEAEAEA21EAEAFE
:10344000EAEAEAEA0A0A0AEAEAEAEA0A5C5C5C0AE6
:10345000EAEA0A5C5C130A130AEA0A5C0A13131309
:103460000AEA0A5C130A13130AEA0A5C13131353D9
:103470000AEA2121212121212121210021212121AB
:103480002121EA21212100212121EA2121002121DC
:1034900021212100002100212121EA2121210021D7
:1034A0002100EA212100002121002100002121002A
:1034B00000210A5C131313130AEA0A5C130A13139C
:1034C0000AEA0A0A1313130A0AEA0A5C131313130B
:1034D0000AEA0A5C131313130AEA0A5C130A1313A9
:1034E0000AEA0A5C13130A130AEA0A0A13131313EB
:1034F0000AEA0A5C131313130AEA0A5C130A131389
:103500000AEA0A5C1313130A0AEA0A5C1313130A81
:103510000AEA0A0A13130A0A0AEAEA0A0A0A0A0A59
:10352000EAEAEAEA0A0A0AEAEAEAEAEAEA10EAEA75
:10353000EAEAEAEAEA21EAEAEAEAEAEAEA21EAEA7D
:10354000EAEAEAEAEA21EAEAEAEAEAEAEA21EAEA6D
:10355000EAEAEAEAEA21EAEAEAEAEAEAEA21EAEA5D
:10356000EAEAEAEAEA21EAEAEAEAEAEAEA21EAEA4D
:10357000EAEAEAEAEAEAEAEAEAEAEAEAEAEAEAEAAB
:10358000EAEAEAEAEAEAEA20EAEAEAEAEAEA2020F9
:10359000EAEA2020EAEA20EAEA20EAEA20EA20EA47
:1035A000EA20EAEA20EAEAEA20EAEAEAEA20EA206D
:1035B00020EAEAEAEA21EAEAEAEAEAEAEA21EAEAC7
:1035C000EAEAEAEAEA21EAEAEAEAEAEAEA2120EAB7
:1035D000EAEA72EAEA2120EAEAEA2072722120EAA3
:1035E000EAEAEA202021EA20EAEAEAEA2021EA20BF
:1035F000EAEAEAEAEAEAEAEAEAEAEAEAEAEAEAEA2B
:10360000EAEAEAEAEAEAEAEAEAEAEAEAEAEAEAEA1A
:10361000EAEAEAEA2020EAEA2020EA2020EAEAEAC6
:10362000EAEAEA20EAEAEAEAEAEA2020EAEAEAEA58
:10363000EAEAEAEAEAEAEAEAEAEAEAEAEAEAEAEAEA
:10364000EAEAEAEAEA20EAEAEAEAEAEAEAEA20EA6E
:10365000EAEA72EAEAEA20EAEAEA207272EA20EA90
:10366000EAEAEA202072EA20EAEAEAEA2072EA209C
:10367000EAEAEAEAEA20EA20EAEAEAEAEA20EA20D2
:10368000EAEAEAEAEA20EAEAEAEAEAEAEAEA20EA2E
:10369000EAEA72EAEAEA20EAEAEA207272EA20EA50
:1036A000EAEAEA202072EA20EAEAEAEA2072EA205C
:1036B000EAEAEAEA20207220EAEAEAEAEA2072204C
:1036C000EAEA72EAEA202072EAEA2072EA2020722C
:1036D000EA202072EA2020727220207220202072BC
:1036E000722020EA722020207220EAEA7220202034
:1036F000722020EAEAEAEA2072EA20EAEAEAEAEA42
:10370000207220EA20727220EA20EA207220EAEA7F
:10371000EA20EA7220EAEAEA7220207220EAEA72DB
:1037200020202020EA207272202020722020722087
:103730002020EAEA20217220EAEAEAEAEA2172205D
:10374000EAEA72EAEA212072EAEA2072EA212072A9
:10375000EA202072EA212072722020722021207239
:10376000722020EA722120207220EAEA72212020B1
:103770007220EAEA20207220EAEAEAEAEA207220CD
:10378000EAEA2828202020207272282072727220F3
:103790007220207272207220722020722072722099
:1037A00072202020727220202020207220202020D1
:1037B0007220EAEAEA20EA20EAEAEAEAEA20EA20D3
:1037C000EAEA202020202020EA722872722072204B
:1037D00020202072282820722020207228202020DB
:1037E0007220722020202820727272282072722883
:1037F0002072EA20722020207272EA2020202020ED
:103800007272EAEA202020207272EA20727272201C
:103810007220207272207220722020722072722018
:103820007220202072722020202020722020202050
:10383000722020202020722020EA202020722020C8
:1038400020EA202020202020EA72EA7272207220D2
:10385000202020722828207220202072282020205A
:103860007220722020202820727272282072722802
:103870002072EA20722020207272EA20202020206C
:103880007272EAEA2020202072722820727272205E
:103890007220207272207220722020722072722098
:1038A00072202020727220202020207220202020D0
:1038B000722020202020722020EA20202072202048
:1038C00020EA202020202020EA7228727220722014
:1038D00020202072282820722020207228202020DA
:1038E0007220722020202820727272282072722882
:1038F0002072EAEA20207220EAEAEAEAEA2072204C
:10390000EAEAEAEA202020207272EA20727272202B
:103910007220207272207220722020722072722017
:10392000722020207272202020202072202020204F
:103930007220EAEAEA20EA20EAEAEAEAEA20EA2051
:10394000EAEA20EA20727220EA20EA207220EAEAFB
:10395000EA2028722028EAEA7220207220282872A1
:103960002020202028207272202020722020722007
:103970002020EAEAEAEAEAEAEAEAEAEAEAEAEAEA3B
:10398000EAEAEAEAEA20EAEAEAEAEAEAEAEA20EA2B
:10399000EAEA72EAEAEA20EAEAEA207272EA20EA4D
:1039A000EAEA28202072EA20EAEA28282072282061
:1039B000EAEAEAEAEA20EA20EAEAEAEAEA20EA208F
:1039C000EAEA20EA20727220EA20EA207220EAEA7B
:1039D000EA20EA7220EAEAEA7220207220EAEA7219
:1039E00020202020EA2072722020207220207220C5
:1039F000202020202020722020EA20202072202059
:103A000020EA202020202020EA72EA727220722010
:103A100020202072EAEA207220202072EA20202052
:103A2000722072202020EA20727272EA207272EAFA
:103A3000207220202020722020EA202020722020C6
:103A400020EA202020202020EA72EA7272207220D0
:103A500020202072EAEA20722020207228202020D4
:103A60007220722020202820727272282072722800
:103A70002072EAEAEA20EA20EAEAEAEAEA20EA2010
:103A8000EAEA202020202020EA72EA7272207220C6
:103A900020202072EAEA207220202072EA202020D2
:103AA00072207220202028207272722820727228C0
:103AB00020727220202072202028722020202020B6
:103AC0002028727220722020282820722020722044
:103AD0002820207220207220202020207220207296
:103AE00020202020722020722020282072202020D8
:103AF0007220202020202020202020202020202074
:103B000020722020722020207272202072202072C9
:103B10007220202072202072722020727220727215
:103B200072202072722072722020207220727272B3
:103B30002072202072202820207228722020282025
:103B400020202020207272202820202020727272D3
:103B50002020207220722020722020722072727227
:103B60002072207220202072727272202020722017
:103B700020207220202020202020202020202072A1
:103B8000202020202020207220202020202072723F
:103B9000202020202020727220202072207220728B
:103BA0007220727220727220722072202020727233
:103BB0002020282820207220EAEA282828207220A5
:103BC00028EA7228282020722828207228202072B3
:103BD000282020722820207272202072202020723B
:103BE0007220202872202020722028287220202075
:103BF000722020EAEAEAEA2072EA20EAEAEAEAEA3D
:103C0000207220EA20727220EA2028207220EAEA3C
:103C1000EA20287220EAEAEA72202072202828721C
:103C20002020202028207272202020722020722044
:103C3000202020202020722020EA20202072202016
:103C400020EA202020727220EA2020202072727246
:103C50002020207220722020722020722072727226
:103C60002072207220202072727272202020722016
:103C7000202020207220EA202072EA722020EA20F0
:103C80002020202020727220EA20202020727272D0
:103C900020202072207220207220207220727272E6
:103CA00020722072202020727272722020207220D6
:103CB000202072202020722020EA72202020202044
:103CC00020EA727220722020EAEA207220207220FC
:103CD000EA202072202072202020202072202072D2
:103CE00020202020722020722020EA207220202014
:103CF000722020EAEAEAEA2072EA20EAEAEAEAEA3C
:103D0000207220EA20727220EA20EA207220EAEA79
:103D1000EA20EA7220EAEAEA7220207220EAEA72D5
:103D20002020202028207272202020722020722043
:103D30002020EAEA20217220EAEAEAEAEA21722057
:103D4000EAEA72EAEA212072EAEA2072EA212072A3
:103D5000EA202072EA212072722020722021207233
:103D600072202028722120207220282872212020F1
:103D70007220202020207220202820202072202045
:103D80002028202020727220282020202072727289
:103D900020202072207220207220207220727272E5
:103DA00020722072202020727272722020207220D5
:103DB0002020727220727272207272202072722021
:103DC00020727220727272207272722072722020BF
:103DD000727220727272202072722072727220725D
:103DE00072207272722020727220727220207220F1
:103DF0007220282020202020202020202020202069
:103E000020722020722020207272202072202072C6
:103E10007220202072202072722020727220727212
:103E200072202072722072722020207220727272B0
:103E30002072207272207220727220202020202096
:103E400072722072727272202072207272722072EC
:103E500020722020727272207220722020207272D2
:103E600072202072202020202072207220207220B8
:103E70007220207272202072727220207272722060
:103E800072722020207272207272202020207272A2
:103E90002072207272207272207220727220207240
:103EA0002020207272722072722020727220207282
:103EB00072202072207220207220722072722020C4
:103EC000101072207272101010D072207220101018
:103ED000D0D02072201010D0D0D020722010D0D09E
:103EE000D0D0202010D0D0D0D0D0722010D0D0D0C0
:103EF000D0D01020727220722020102072722020E8
:103F000020721010722010102072D0107210101039
:103F10002072D010721010D01072D0D01010D0D0EB
:103F20001072D0D010D0D0D01072D0D0D0D0D0D08D
:103F3000D0107220202020722010722010202072B9
:103F4000201072101010207210102010101010721B
:103F50001010201010D0107210D01010D0D0D0102F
:103F600010D010D0D0D0D010D0D010D0D0D0D0D051
:103F7000D0D07220727220202072722072722020A3
:103F800020727220722010102072207220101010E7
:103F900020722072201010D0107220201010D0D06B
:103FA0001072722010D0D0D010721010D0D0D0D09B
:103FB000D010207272727220201020727272202033
:103FC00010102072727220201010207272727220F3
:103FD00010102072727220201010202072202020D9
:103FE00010D010207272201010D01010101010106D
:103FF000D0D02072202072207220101020207272E7
:104000002072D010101072722072D0D01010207256
:104010002072D0D0D01010207220D0D0D0D010205C
:104020007220D0D0D0D0D0102020D0D0D0D0D0107E
:1040300020727272722020727220727220727272FA
:104040002020727220727220202072207272202032
:104050002020722072722072722020207220207222
:10406000722020727220727272202072722020726E
:104070007220D0D0D0D0D0D0D0D0D0D0D0D0D0D04E
:10408000D0D0D0D0D0D0D0D0D0D0D0D0D0D0D0D030
:10409000D0D0D0D0D0D0D0D0D0D0D0D0D0D0D0D020
:1040A000D0D0D0D0D0D0D0D0D0D0D0D0D0D0D0D010
:1040B000D0D01010202072722072D01010107272A6
:1040C0002072D0D0101020722072D0D0D0101020CA
:1040D0007220D0D0D0D010207220D0D0D0D0D0102C
:1040E0002020D0D0D0D0D0102072D0D0D0D0D0D0FE
:1040F0001010D0D0D0D0D0D01010D0D0D0D0D0D0C0
:10410000D0D0D0D0D0D0D0D0D0D0D0D0D0D0D0D0AF
:10411000D0D0D0D0D0D0D0D0D0D0D0D0D0D0D0D09F
:10412000D0D0D0D0D0D0D0D0D0D0D0D0D0D0D0D08F
:10413000D0D0102020727272722010102020727263
:104140007220101020207272722010102072727271
:1041500072201010202072727220D0102020207245
:104160002020D010102072722010D0D0101010100B
:10417000101072722072727220727220207272207D
:1041800020727220727272207272722072722020FB
:104190007272207272722020727220727272207299
:1041A000722072727220207272202072202072207F
:1041B0007220D0D0D0D0D0D0D0D0D0D0D0D0D0D00D
:1041C000D0D0D0D0D0D0D0D0D0D0D0D0D0D0D0D0EF
:1041D000D0D0D0D0D0D0D0D0D072D0D0D0D07272F9
:1041E0007220D0D0727220202020727220202020D5
:1041F0002020D0D0D0D0D0D0D0D0D0D0D0D0D0D01F
:10420000D0D0D0D0D0D0D0D0D0D0D0D0D0727272C8
:104210007272727272202020202020202020202004
:10422000202020202020202020202020202020208E
:104230002020D0D0D0D0D0D0D0D0D0D0D0D0D0D0DE
:10424000D0D0D072727272727272722020202020CE
:10425000202020202020202020202020202020205E
:10426000202020202020202020202020202020204E
:104270002020D0D0D0D0D0D0D0D0D0D0D0D0D0D09E
:10428000D0D0727272727272729020202020202020
:1042900020722020202020202020202020202020CC
:1042A000202020202020202020202020202020200E
:1042B0002020D0D0D0D0D0D0D0D0D0D0D0D0D0D05E
:1042C000D0D0D0D0D0D0D0D0D0D072727272727222
:1042D00072D020202020202020722020202020208A
:1042E00020202020202020202020202020202020CE
:1042F0002020D0D0D0D0D0D0D0D0D0D0D0D0D0D01E
:10430000D0D0D0D0D0D0D0D0D0D0D0D0D0D0D0D0AD
:10431000D0D07272D0D0D0D0D0D02020727272D0D3
:10432000D0D0202020202072727220202020202037
:104330002090D0D0D0D0D0D0D0D0D0D0D0D0D0D06D
:10434000D0D0D0D0D0D0D0D0D0D0D0D0D0D0D0D06D
:10435000D0D0D0D0D0D0D0D0D0D0D0D0D0D0D0D05D
:10436000D0D0D0D0D0D0D0D0D0D0727272D0D0D067
:10437000D0D0D0D0D0D0D0D0D0D0D0D0D0D0D0D03D
:10438000D0D0D0D0D0D0D0D0D0D0D0D0D0D0D0D02D
:10439000D0D0D0D0D0D0D0D0D0D0D0D0D0D0D0D01D
:1043A000D0D0D0D0D0D0D0D0D072D0D0D0D0D072C9
:1043B0007220D0D0D0D0D0D0D0D0D0D0D0D0D0D00B
:1043C000D0D0D0D0D0D0D0D0D072D0D0D0D0727207
:1043D0007220D0D0727220202020D0722020202085
:1043E000202072202020202020202020202020207B
:1043F0002020D0D0D0D0D0D0D0D0D0D07272727295
:104400007272727220202020202020202020202064
:10441000202020202020202020202020202020209C
:10442000202020202020202020202020202020208C
:104430002020D0D0D0D0D0D0D09072727272727250
:1044400072722020202020202020202020202020C8
:10445000202020202020202020202020202020205C
:10446000202020202020202020202020202020204C
:1044700020207272727272727272202020202020AC
:10448000202020202020202020202020202020202C
:10449000202020202020202020202020202020201C
:1044A000202020202020202020202020202020200C
:1044B0002020727272727272D0D0202020202020B0
:1044C0007272202020202020202020202020202048
:1044D00020202020202020202020202020202020DC
:1044E00020202020202020202020202020202020CC
:1044F0002020D0D0D0D0D0D0D0D072727272727250
:104500007272202020202020202020202020202007
:10451000202020202020202020202020202020209B
:10452000202020202020202020202020202020208B
:104530002020D0D0D0D0D0D0D0D0727272D0D0D0F5
:10454000D0D02020207272D0D0D020202020207205
:1045500072D0202020202020207220202020202007
:10456000202020202020202020202020202020204B
:104570002020D0D0D0D0D0D0D0D0D0D0D0D0D0D09B
:10458000D0D0D0D0D0D0D0D0D0D0D0D0D0D0D0D02B
:10459000D0D072D0D0D0D0D0D0D02072D0D0D0D087
:1045A000D0D020207272D0D0D0D02020202072D045
:1045B000D0D01020722020202072102072202010D5
:1045C0002072101072201010107210107210101043
:1045D0001020D0107210D0101020D01010D0D0D0D9
:1045E0001010D0D010D0D0D0D010D0D0D0D0D0D0CB
:1045F000D0107220202072722072722020207272DD
:104600002072722010102072207272201010102060
:1046100072207210D010102072207210D0D01010A2
:1046200020207210D0D0D010207210D0D0D0D0D096
:104630001010D0D0D0D0D0D0D0D0D0D0D0D0D0D0FA
:10464000D0D0D0D0D0D0D0D0D0D0D0D0D0D0D0D06A
:10465000D0D0D0D0D0D0D0D0D0D0D0D0D0D0D0D05A
:10466000D072D0D0D0D0D0D07220D0D0D0D0D07214
:104670002020D0D0D0D0D0D07272D0D0D072727270
:104680002020D0D0722020202020D0722020202076
:1046900020207220202020202020202020202020C8
:1046A000202020202020202020202020202020200A
:1046B00020202020202020202020202020202020FA
:1046C00020202020202020202020202020202020EA
:1046D00020202020202020202020202020202020DA
:1046E00020202020202020202020202020202020CA
:1046F00020202020202020202020202020202020BA
:1047000020202020202020202020202020202020A9
:104710002020202020202020202020202020202099
:104720002020202020202020202020201020202099
:104730002020202020202020202020202020202079
:104740002020202020202020202020202020202069
:104750002020202020202020202020202020202059
:104760002020201020202020202020101020202079
:104770002020202020202020202020202020202039
:104780002020202020202020202020202020202029
:104790002020202020202020202020202020202019
:1047A0002020201020202020202020102020202029
:1047B00020202020207272D0D0D0202020202072F3
:1047C000D0D0202020202020202020202020202089
:1047D00020202020202020202020202020202020D9
:1047E00020202020202020202020202020202020C9
:1047F0002020D0D0D0D0D0D0D0D0D0D0D0D0D0D019
:10480000D0D07272D0D0D0D0D0D0202072D0D0D022
:10481000D0D02020207272D0D0D020202020207232
:10482000D0D020202020202072D020202020202026
:104830002072D0D0D0D0D0D0D0D0D0D0D0D0D0D086
:10484000D0D0D0D0D0D0D0D0D0D0D0D0D0D0D0D068
:10485000D0D0D0D0D0D0D0D0D0D0D0D0D0D0D0D058
:10486000D0D0D0D0D0D0D0D0D0D072D0D0D0D0D0A6
:10487000D0D0D0D0D0D0D0D0D0D0D0D0D0D0D0D038
:10488000D0D0D0D0D0D0D0D0D0D0D0D0D0D0D0D028
:10489000D0D0D0D0D0D0D0D07272D0D0D0D0D07232
:1048A0002020D0D0D0D072202020D0D0D0D0101056
:1048B0001020D0D0D0D072202020D0D072722020F2
:1048C0002020D07220202020202072202020202094
:1048D00020202020202020202020202020202020D8
:1048E00020202020202020202020202020202020C8
:1048F00020202020202020202020202020202020B8
:1049000020202020202020202020202020202010B7
:1049100020202020202020102020102020202010C7
:1049200020201020202020102020102020202010C7
:104930002020202020202020202020202020202077
:104940002020202020202020202020202020201077
:104950002020202020201010202020202020102087
:104960002020202020201020202020202020102067
:104970002020202020202020202020202020202037
:104980002020202020202020202020202020202027
:104990002020202020201020202020202010102047
:1049A0002020201010202020202010102020202047
:1049B0002020202020202072D0D020202020202045
:1049C00072D0202020202020207220202020202093
:1049D00020202020202020202020202020202020D7
:1049E00020202020202020202020202020202020C7
:1049F0002020D0D0D0D0D0D0D0D0D0D0D0D0D0D017
:104A0000D0D0D0D0D0D0D0D0D0D072D0D0D0D0D004
:104A1000D0D02072D0D0D0D0D0D0202072D0D0D062
:104A2000D0D02020D072D0D0D0D020202072D0D0B2
:104A3000D0D0D0D0D0D072202020D0D0D0722020A2
:104A40002020D0D0D07220202020D0D07220202052
:104A50002020D0D0722020202020D07220202020A2
:104A60002020D072202020202020D0722020202042
:104A70002020202010102020202020202020101076
:104A80002020202020202010102020202020202046
:104A90002010202020202020202020202020202026
:104AA0002020202020202020202020202020202006
:104AB00020202020202020202020202020202020F6
:104AC00020202020202020202020202020202020E6
:104AD0002020101020202020202020201020202006
:104AE00020202020101020202020202020201020F6
:104AF00020202020102020202020202010202020D6
:104B000020202020102020202020202010202020C5
:104B100020202020101020202020202020102020C5
:104B200020202020201020202020202020201020A5
:104B300020202010202020201020201020202020A5
:104B400010202010202020201020201020202010B5
:104B500010202010202020102020201020202010A5
:104B60002020102020201010202010202020102095
:104B70002020202020202020202020202020202035
:104B80002020202020202020202020202020202025
:104B90002020202020202020202020202020202015
:104BA0002020202020202020202020202020202005
:104BB0002010202020202020202020202020202005
:104BC00020202020202020202020202020202020E5
:104BD00020202020202020202020202020202020D5
:104BE000201020202010101010D0101010D0D0D085
:104BF000D0D0202020202020202020202020202055
:104C000020202020202020202020202020202010B4
:104C100010102020101010D0D0D01010D0D0D0D034
:104C2000D0D0D0D0D0D0D0D0D0D0D0D0D0D0D0D084
:104C3000D0D02072D0D0D0D0D0D0202072D0D0D040
:104C4000D0D0101010D0D0D0D0D0D0D0D0D0D0D0A4
:104C5000D0D0D0D0D0D0D0D0D0D0D0D0D0D0D0D054
:104C6000D0D0D0D0D0D0D0D0D0D0D0D0D0D0D0D044
:104C7000D0D0D0D0D0D0D0D0D010D0D0D0D0D0D0F4
:104C8000D0D0D0D0D0D0D0D0D0D0D0D0D0D0D0D024
:104C9000D0D0D0D0D0D0D0D0D0D0D0D0D0D0D0D014
:104CA000D0D0D0D0D0D0D0D0D0D0D0D0D0D0D0D004
:104CB000D0721010202020202020D0D010101020E2
:104CC0002020D0D0D0D0D0101010D0D0D0D0D0D084
:104CD000D0D0D0D0D0D0D0D0D0D0D0D0D0D0D0D0D4
:104CE000D0D0D0D0D0D0D0D0D0D0727272727272F8
:104CF0007272202020202020202020202020202010
:104D000020202020202020202020101010102020E3
:104D10002020D0D0D0D010101010D0D0D0D0D0D0F3
:104D2000D0D0D0D0D0D0D0D0D0D0727272727272B7
:104D300072722020202020202020202020202020CF
:104D40002020202020202020202020202020202063
:104D50002020202020202020202010101020202083
:104D60002020D0D0D0101010102072727272727287
:104D700072721010202020102020201020202010DF
:104D80002020201020202010202020101020202063
:104D90001020202010202020102020201020202053
:104DA00010202020101020201020727210102020BF
:104DB0001020202020201020202020202010102033
:104DC0002020202020102020202020202010202003
:104DD00020202020102020202020202010202020F3
:104DE00020202020102020202020101020202020F3
:104DF00010102020202020202010202020202010F3
:104E000010202020202010202020202020101020E2
:104E100020202020102020202020201020202020B2
:104E20002020102020202020202020202020202092
:104E30002010202020202020202020202020202082
:104E40002020202020202020202020202020202062
:104E50002020202020202020202020202020202052
:104E600020202020202020202020101010101010A2
:104E70001010202020202020202020202020202052
:104E80002020202020202020202020202020202022
:104E90002020202020202020202020202020202012
:104EA0002020202020202020202010101010101062
:104EB00010202020202072D0D0D02020202072D09E
:104EC000D0D0202020202072D0D02020202020727E
:104ED000D0D0202020202072D0D0202020202020C0
:104EE00072D020202020202010D020202020202020
:104EF00010D07220202020202020102020202020D0
:104F000020201020202020202020102020202020C1
:104F100020201020202020202020102020202020B1
:104F200020201020202020202020102020202020A1
:104F30002020202020202020202020202020202071
:104F400020202020202020202020101010101010C1
:104F50001010202020202020202020202020202071
:104F60002020202020202020202020202020202041
:104F70002020202020202010202020202020202041
:104F80001020202020202020101020202020202051
:104F90002010101010101010202020202020201091
:104FA0001010202020202020201020202020101051
:104FB0001020202020201020202020202020102021
:104FC0002020202020202010202010202020201011
:104FD0001020201010202020101020101010101071
:104FE0001020101010202020201020202020202011
:104FF0001010102020201020202010202010102021
:1050000020201020201020201010102020101072BE
:10501000727210101010102020202020202020104C
:105020001020202020101020101020102020101000
:10503000202020202020101010D010101010D0D0D0
:10504000D0D0D0D0D0D0D0D0D0D072727272727294
:1050500072722020202020202020202020202020AC
:105060002020102020202020202010101020202080
:105070002020D0D0D0D0D0D0D0D0D0D0D0D0D0D090
:10508000D0D0D0D0D0D0D0D0D0D072727272727254
:10509000727220202020202020202020202020206C
:1050A0002020202020202020202020202020202000
:1050B0002020D0D0D0D0D0D0D0D0D0D0D0D0D0D050
:1050C000D0D0D0D0D0D0D0D0D0D0D0D0D0D0D0D0E0
:1050D000D0D0727272727272D0D020202020202024
:1050E00010D020202020202010D020202020201090
:1050F000D0D0D072727272727220102020202020C4
:1051000020201020202020202020D010202020200F
:105110002020D010202020202020D010202020204F
:105120002020D0D0102020202020D0D010202020DF
:10513000202020202020202020202020202020206F
:10514000202020202020202020202020202020205F
:10515000202020202020202020202020202020204F
:10516000202020202020202020102020202020105F
:10517000101020202020202020202020202020204F
:10518000202020202020202010102020202010105F
:10519000102020201010102020201010102020207F
:1051A000202010202020202020102020202020201F
:1051B000201020201010101010101010202020207F
:1051C000202010201010202020102010102020104F
:1051D000201020102020102020201020202010201F
:1051E00020201020202010202020202020201020EF
:1051F000202010202020101020201010101010103F
:1052000020102020202010101010102020202020FE
:1052100020201020202020202020201020202020AE
:10522000202020102020202020202020102020209E
:1052300020202010101010101020101020202020EE
:10524000202020202020202020201010102020208E
:10525000202020202010101020202020202020207E
:10526000101020202020202020202020202020205E
:10527000202020202020202020202020202020202E
:10528000202020202020202020202020202020201E
:10529000202020202020202020201020202020201E
:1052A000202010102020202020202010101020204E
:1052B000202020202020202010D02020202020204E
:1052C00010D020202020202010D02020202020209E
:1052D00010D020202020202010D02020202020109E
:1052E000D0D0202020202010D0D02020202020101E
:1052F000D0D0D010202020202020D010202020200E
:105300002020D010202020202020D0D010202020AD
:105310002020D0D010D020202020D0D0D01020208D
:105320002020D0D0D0D010202020D0D0D0D0D0106D
:10533000202020202020202020202020202020206D
:1053400010102020202020101020202020101010CD
:10535000202020201010202020202020202020206D
:10536000202020202020202020202020202020203D
:10537000202020101010202020201020202020206D
:10538000202020202020202020202020202020201D
:10539000202020202020202020202020202020200D
:1053A00020202020202020202020202020202020FD
:1053B000202020202020202010202020202020100D
:1053C00020202020202020102020202020201020FD
:1053D00020202020202010202020202020101020FD
:1053E00020202020201020202020202010102020ED
:1053F00020202020102020102020202010202020DD
:1054000010202020102020201010202010202020EC
:1054100020102020102020202010202010202020CC
:10542000202020202010202020202020201020209C
:1054300020202020101010202020202020201010BC
:10544000102020202020202010102020202020208C
:10545000201010202020202020201020202020207C
:10546000202010102020202020202010102020207C
:10547000202020202020202020202020202020202C
:10548000202020202020202020201010202020203C
:10549000202020101020202020202020102020203C
:1054A000202020201010202020202020202020201C
:1054B0002020202020202010D0D0202020202010AC
:1054C000D0D02020202010D0D0D02020202010D0DC
:1054D000D0D02020202010D0D0D02020202010D0CC
:1054E000D0D020202010D0D0D0D020202010D0D05C
:1054F000D0D0D0D0102020202020D0D010202020AC
:105500002020D0D0D01020202020D0D0D01020209B
:105510002020D0D0D0D010202020D0D0D0D010202B
:105520002020D0D0D0D0D0102020D0D0D0D0D0D0FB
:1055300010202020202010102020202020201020AB
:10554000202020202010102020202020202020207B
:10555000202020202020202020202020202020204B
:10556000202020202020202020202020202020203B
:10557000202020202020202010102020202020204B
:10558000102020202020201010202020202010106B
:10559000202020202020102020202020202020201B
:1055A00020202020202020202020202020202020FB
:1055B000202020202020102020202020202010200B
:1055C00020202020201020202020202020102020FB
:1055D00020202020201020202020202020102020EB
:1055E00020202020201020202020202020202020CB
:1055F00020202020102020202020202010102020DB
:1056000020202020201020202020202020101020CA
:1056100020202020202010202020202020201020AA
:10562000202020202020101020202020202020209A
:10563000202020202010102020202020202020208A
:10564000202020202020202020202020202020205A
:10565000202020202020202020202020202020204A
:10566000202020202020202020202020202020203A
:10567000202020202020202020202020202020202A
:10568000202020202020202020202020202020201A
:10569000202020202020202020202020202020200A
:1056A000201020202020202010102020202020103A
:1056B000D0D02020202010D0D0D02020202010D0EA
:1056C000D0D020202010D0D0D0D0202010D0D0D0CA
:1056D000D0D0D010D0D0D0D0D0D010D0D0D0D0D04A
:1056E000D0D0D0D0D0D0D0D0D0D0D0D0D0D0D0D0BA
:1056F000D0D0D0D0D0D0D0D01010D0D0D0D0D0D02A
:10570000D010D0D0D0D0D0D0D0D0D0D0D0D0D0D059
:10571000D0D0D0D0D0D0D0D0D0D0D0D0D0D0D0D089
:10572000D0D0D0D0D0D0D0D0D0D0D0D0D0D0D0D079
:10573000D0D0202020202020202010202020202019
:105740002020D010202020202020D0D01010202079
:105750002020D0D0D0D010202020D0D0D0D0D01039
:105760001020D0D0D0D0D0D0D010D0D0D0D0D0D069
:10577000D0D02020202020202020202020202020C9
:105780002020202020202020202020202020202019
:105790002020202020202020202020202020202009
:1057A00020201010202020202020D0D010102020D9
:1057B0002020202010202020202020201020202009
:1057C00020202010102020202020202020202020F9
:1057D00020202020202020202020202020202020C9
:1057E00020202020202020202020202020202020B9
:1057F00020202020201020202020202020102020C9
:1058000020202020201020202020202020202020A8
:105810002020202020202020202020202020202088
:105820002020202020202020202020202020202078
:105830002020202010202020202020202020202078
:105840002020202020202020202020202020202058
:105850002020202020202020202020202020202048
:105860002020202020202020202020202020202038
:105870002020202020202020202020202020202028
:105880002020202020202020202020202020202018
:105890002020202020202020201020202020202018
:1058A00010D0202020202010D0D02020202010D068
:1058B000D0D0202010D0D0D0D0D0202010D0D0D028
:1058C000D0D02010D0D0D0D0D0D010D0D0D0D0D008
:1058D000D0D0D0D0D0D0D0D0D0D0D0D0D0D0D0D0C8
:1058E000D0D0D0D0D0D0D0D0D0D0D0D0D0D0D0D0B8
:1058F000D0D0D0D0D0D0D0D0D010D0D0D0D0D0D068
:10590000D0D0D0D0D0D0D0D0D0D0D0D0D0D0D0D097
:10591000D0D0D0D0D0D0D0D0D0D0D0D0D0D0D0D087
:10592000D0D0D0D0D0D0D0D0D0D0D0D0D0D0D0D077
:10593000D0D0202020202020202010202020202017
:1059400020201020202020202020D01020202020C7
:105950002020D0D0102020202020D0D0D010102007
:105960002020D0D0D0D0D0101020D0D0D0D0D0D0C7
:10597000D010202020202020202020202020202087
:105980002020202020202020202020202020202017
:105990002020202020202020202020202020202007
:1059A0002020202020202020202010202020202007
:1059B00020202020202020202020202020202020E7
:1059C00020202020202020202020202020202020D7
:1059D00020202020202020202020202020202020C7
:1059E000201020202020101010D010101010D0D027
:1059F000D0D0202020202020202020202020202047
:105A000020202020202020202020202020202010A6
:105A100010102020201010D0D0D0101010D0D0D0D6
:105A2000D0D0D0D0D0D0D0D0D0D0D0D0D0D0D0D076
:105A3000D0D02020201010D0D0D0202010D0D0D016
:105A4000D0D01010D0D0D0D0D0D0D0D0D0D0D0D0D6
:105A5000D0D0D0D0D0D0D0D0D0D0D0D0D0D0D0D046
:105A6000D0D0D0D0D0D0D0D0D0D0D0D0D0D0D0D036
:105A7000D0D0D0D0D0D010101010D0D0D0D0D0D026
:105A8000D0D0D0D0D0D0D0D0D0D0D0D0D0D0D0D016
:105A9000D0D0D0D0D0D0D0D0D0D0D0D0D0D0D0D006
:105AA000D0D0D0D0D0D0D0D0D0D0D0D0D0D0D0D0F6
:105AB000D0D02020202020202020101010202020B6
:105AC0002020D0D0D01010101020D0D0D0D0D0D0E6
:105AD000D010D0D0D0D0D0D0D0D0D0D0D0D0D0D086
