:100000000C9453310C94F7310C94F7310C94F73174
:100010000C94F7310C94F7310C94F7310C94F731C0
:100020000C94F7310C94F7310C94F7310C94F731B0
:100030000C94F7310C9490350C94F7310C94F73103
:100040000C94F7310C94F7310C94F7310C94F73190
:100050000C94F7310C94F7310C94F7310C94F73180
:100060000C94F7310C94F7310C94F7310C94F73170
:100070005A5501200101003808000000000000006E
:100080000000000000000000000000000000000070
:1000900041384F38EB38A13C8B3C523861387038CE
:1000A000713C7E388C3800020800085504085A005C
:1000B00000F8000990000A1E32050000FF00000051
:1000C000A60000000000000000000000000000008A
:1000D0000000000000000000000000000000000020
:1000E0000000000000000000000000000000000010
:1000F0000000000000000000000000000000000000
:1001000000000000000000000000000000000000EF
:1001100000000000000000000000000000000000DF
:100120000000000000490000000000495252000099
:10013000004952531C25004952522425251B525276
:100140005C2D2D1C121200000000000000000000B9
:1001500000004049494900404949525B5B5B4A52B3
:10016000525B1C1C13125B1C241C12090909241B62
:1001700012090909090A0A0A0A0A0A0A0A130A0AD2
:10018000120A0A12130A0000000000000000925236
:1001900052525252524913121309001C1B130A12D5
:1001A00012401B65641C090A0009241B1C6512000F
:1001B00000251C1C1C1C010025241C1C1C1C0024CC
:1001C000252424241C1C00000000000000004940DD
:1001D00000000000000052494900000000001C5BC4
:1001E0004A48000000001C25524900000000652418
:1001F00064490000000065256449000000006D2E80
:100200005C490000000000000000000040520000B7
:1002100000000049525C00000000535224250000F9
:1002200000535225252500004A5225251B000000B9
:100230005B251300001B005B53000A1C3737095B6A
:100240001C657F372E2E522E2E1C131312002E25C6
:100250001B13120000121C1C12000012251C12009D
:1002600000122E371C1300132E37361C131B373782
:100270002E2E25131C1C2E2E2E2E1B1C1C1C6E6EAF
:100280006E1C1C1C1C1C09131312121313001313D5
:100290001313131C0009131313131C01003713133A
:1002A000131C13002E2E1B1B1C1C001C772E1B1B4B
:1002B0002500137F251C1C1C010A37241C1C1C1341
:1002C0000A2E25250900132E2425252525252E2532
:1002D00025252525252525252D2E251B1C1C2E2EC7
:1002E000251C13251B13251C1C1C1C0109521C1C3E
:1002F0001300011C5B5C0A000165775C1B00016E4A
:100300007F6E521B00006D1C5249000000001C1340
:100310005300000000001C524A00000000005B5B1C
:100320000000000000005C00000000000000000071
:1003300000000000000000000000000000000000BD
:10034000000000000000135B7F776E6E6E6E136519
:1003500077766E6E6E6E1B65777676766E771B5B44
:10036000BF76B676767609136DBFB7B6B765001B54
:10037000125C76BF766D0000121B125B5B5C0000A6
:100380000000090A12136E77241C1C1C1C1C772504
:100390001C1C1C1C24256E1C1C1C2425251B1C1C21
:1003A000242525130000646D6D1B00096EBF6D5B75
:1003B00009126EBF6D5B5B125B645B121312131B41
:1003C0001212090100001C242E1C0900096E2524AC
:1003D000010009767F7F000012777F7F641264BF7F
:1003E000BF775B121B09BF6D5B121B090000121364
:1003F0001B090000000009000000000000000000D0
:100400000000000000007F7F5313130000006412FF
:100410001B01000000001B12000000000000000093
:1004200000000000000000000000000000000000CC
:1004300000000000000000000000000000000000BC
:100440000000000000000000000000000000260086
:100450000000260026262F0000002F000000370095
:10046000000037000000FF000000FF000000BF0098
:100470000000BF0000BF3700003700003700002633
:1004800026000000262600000000000000002626AE
:1004900026002626262600002F002F000000003709
:1004A000000037000000FF000000FFFFFFFF00001A
:1004B0000000BF00000000000000370000002626FA
:1004C0002600262626260000000000000000260048
:1004D00026262626000000002F0000002F00000026
:1004E0003700000037000000FFFFFFFF00000000A2
:1004F000BF000000BF0000003700000037002600EA
:100500002626262600000000000000000000000053
:10051000262626002600002F00002F002F0037007F
:10052000000037000037FF000000FF000000BF00A0
:100530000000BF0000BF370000370000370026264C
:10054000260000002600000000000000000000005F
:1005500026000000000000002F000000000000370F
:10056000000000000000FF0000000000000000BFCD
:100570000000000000000000370000000000000044
:100580002600000000000000000000000000000045
:10059000000000000000000000000000000000005B
:1005A0000000000000E400000000099BEDF60000E0
:1005B000009BA4ADBFBF00529BA4767F7FB75B9B1F
:1005C0006D777F766EB7000000000000000000002D
:1005D00000005BB6F6F6005BF6FFFFFFFFBFF6FF1D
:1005E000FFFFFFBFBFAEFFBFFFFFFFB7AD65BFBFE0
:1005F000FFFFB7B6AD65B7BFFFFFBFB7AE6EB7BF02
:10060000FFFFBFB7B7650000000000000000F6F66E
:10061000EDEDADA4A49BB66D6D5C526E6564656531
:10062000655265766D255C5C52536E24656E65522D
:10063000526E252524255B52772D25252524526EC3
:100640006E2D2525252500000000000000009B4997
:10065000000000000000A49B920000000000256440
:10066000934900000000652E9B52000000006D259C
:100670006552000000006D2D6552000000006E2ED6
:10068000645200000000000000000000495B000010
:100690000000004A5B65000000005B9B6D2D0000C0
:1006A000005B5B2D2E250000525B2E2E1C090001E5
:1006B0005B2D1C01091C005C5B014A65777F4A5B6E
:1006C0001C6E7F7777769B77776D656E6EA4776EFD
:1006D0006565655BA4B725255C52526DBFBF1309E4
:1006E00049647FBFBFBF095C7F7FBFBFB7BF7F7F4C
:1006F000777F7FB7BFBF77777F7F6EB7BFBF777FCB
:100700007F6E77BFBFBFB6FFFFFFBFBFB75BBFFF47
:10071000FFFFBFBFA464BFFFFFFFBFADA47FBFFF4C
:10072000FFFFBFA4BF7FFFFFFFBFADBFBFBFFFFF86
:10073000FFB6BFBFBF77FFFFF7BFBFBF7777FFFF32
:10074000FFBFBFBF64526D7F6E2E2D2D256E7F764D
:100750006E6E6E2E2565777777762E1C25247F7733
:100760006E251C251C1B776525251C090A5B6E6EF2
:100770001C09492564645B494A6E7F645C005377B9
:10078000BF775B5C00006E255B4A000000001C1B0D
:100790005B0000000000245B5300000000005B5C75
:1007A00000000000000064000000000000000000E5
:1007B0000000000000000000000000000000000039
:1007C0000000000000005B5C7FBF777677775C6D90
:1007D0007FB7777777775C6D7FBF777777BF5C641C
:1007E000BFBFBFBFBF7F0A5C6EBFBFBFBF76006524
:1007F000646DBFBFBFBF00005B6D646DADB6000030
:100800000000125B646D777F6E6E77BFBFBF7F762F
:100810006D7677BFBFBF776D6E767FBFBFBF6D6EE2
:10082000767FBFB7ADF676BFBF76A4ADFFFFBFB68C
:1008300064ADFFFFFFFFB6ADBFFFFFFFFFF6ADB634
:10084000AD645B520000FFFFBFBFAD5B64BFFFFF45
:10085000B6ADADBFFFBFFFF6FFFFFFFFBF64FFFFF9
:10086000FFFFBFB6765BFFFFFFBFBF5B0000FFFF70
:10087000FF5C00000000A400000000000000000079
:10088000000000000000BFBF645C5C0000006E5C04
:100890006549000000006D5B0000000000000000E2
:1008A0000000000000000000000000000000000048
:1008B0000000000000000000000000000000000038
:1008C0000000000000000504000102030405060703
:1008D00008090A0B0C0D000E0F101112050300136E
:1008E0001415161718191A1B1C1D1E1F000040880E
:1008F00091D2E4ADB5B6BEBFFF341A0000000000CF
:1009000000000000000000000000000000000000E7
:1009100000000000000000000000000000000000D7
:1009200000000000000000000000000000000000C7
:1009300000000000000000000000000000000000B7
:100CB0000000000001020304050607080900000007
:100CC0000000000000000000000000000000000024
:100CD0000000000000000000000000000000000014
:100CE00000000000000000000A0B0C0D0E0F101198
:100CF00012000000000000000000000000000000E2
:100D000000000000000000000000000000000000E3
:100D10000000000000000000000000001314151681
:100D20001718191A00000000000000000000000061
:100D300000000000000000000000000000000000B3
:100D400000000000000000000000000000000000A3
:100D500000000000001B1C0000000000000000005C
:100D60000000000000000000000000000000000083
:100D70000000000000000000000000000000000073
:100D80000000001D1E1F00000000200000000000E9
:100D90000000000000000000000000000000000053
:100DA00000002122230000242526272829000000F6
:100DB00000002A2B2C2D002E2F303100003233342E
:100DC00000353600000000000000000000000000B8
:100DD000000000002A3738393A3B3C3D3E3F404155
:100DE0004243444544464748494A4B004C4D4E0017
:100DF0004F505152535455565756575657454456CF
:100E000057565756575657564758595A5B5C5D5E6A
:100E10005F606162636465666768696A6B6C6D6E6A
:100E20006F70716F72737475767778797A797B7970
:100E30007A7C7D797A797A797A797A797E6A7F8013
:100E40008182831C04848585858585858585858546
:100E50008585858585858585858585858585858641
:100E6000879394959697929292929292929292925E
:100E70009292929292929292949899979AA3A4A500
:100E8000A6A7929292929292929292929292929219
:100E900092929292A4A8A9A7AAB5B6B7B8B6B6B6C8
:100EA000B6B6B6B6B6B6B6B6B6B9BABABABABABAC7
:100EB000BABBBCBABD0A0288898A8B8C8D8E8F9092
:100EC000919B9C9D9E9F9EA0A1A0A20A01ABACAD50
:100ED000AEAFB0B1B2B3B4D8D8D8D8D8D8D8D8D8A3
:100EE000D8D8D8D8D8D8D8D8D8D8D8D8D8D8D8D882
:100EF000D8D8D8D8D8D8D8D8D8D8D8D8D8D8D8D872
:100F0000D8D8D8D8D8D8D8D8D8D8D8D8D8D8D8D861
:100F1000D8D8D8D8D8D8D8D8D8D8D8D8D8D8D8D851
:100F2000D8D8D8D8D8D8D8D8D8D8D8D8D8D8D8D841
:100F3000D8D8D8D8D8D877D8D8D8D8D82E2E2ED890
:100F4000D8D82E2E2E2E25D8D82E2E2E2E2E77D82F
:100F5000D8252E2E2E2E2ED8D8D8D8D8D8D8D8D816
:100F6000D8D8D8D8D8D8D8D8D8D8D8D8D8D8D87762
:100F700077B7777777772E2E252525252E2E2525D1
:100F8000252E2E2E2E7777777777B7B7B7772E2E39
:100F90002E2E2E2525252ED8D8D8D8D8D8D8D8D892
:100FA000D8D8D8D8D8D8D8D8D8D8D8D823231AD8E9
:100FB000D8D82323231A1A2E2E231A13231A0A777A
:100FC000772513131A01092E2E2E2514140A132E19
:100FD0002E2E25251D1D14D8D8D8D823231A1AD86B
:100FE000D82323231A1A1A1A231A14231A0A231A83
:100FF0001A1A121A0A0A23231A0A23231A1A121C6B
:101000002323231A1A1A1A231A00231A00231A1D3B
:1010100009091A00000A1A12D8D8D8D8D8D8D81A6C
:101020001A12D8D8D8D8D81A231A121A12D8D81AFD
:10103000231A1A1A1A1A1213231A09231A00551AF4
:101040001201000A5F0A4B001A1201014B00000056
:1010500023231A1A230000D8D8D8D8D8D8D8D8D85B
:10106000D8D8D8D8D8D8D8D8D8D8D8D8D8D8D8D800
:10107000D8D8D8D8D8D8D84B4BD8D8D8D8D8D8FFE3
:10108000A75F4B00554B4B5F0A005F0A4BFFA74B16
:1010900000004B00005F0AD8D8D8D8D8D8D8D8D804
:1010A000D8D8D8D8D8D8D8D8D8D8D8D8D8D8D8D8C0
:1010B000D8D8D8D8D82323D823231A1A231A1423EC
:1010C000231A1A1A1A1A125F4B000A231A0A23004B
:1010D0000000001C232323D8D8D8D8D8D8D8D8D8F3
:1010E000D8D8D8D8D8D8D823231A1A12D8D8D823E1
:1010F0001A1A1A1A1A12D8231A0A231A231A121A97
:101100000A0A231A231A1A231A1A12554B4B091AC0
:101110001A5F0A4BFFA75FD8D8D8D8D8D8D8D8D864
:10112000D8D8D8D8D8D8D8D8D8D8D8D8D8D8D8D83F
:10113000D8D8D8D8D8D8D81A12D8D8D8D8D8D81A71
:101140001AD8D8D8D8D8D8231AD8D8D8D8D8D84BDD
:1011500000D8D8D8D8D8D8D8D82525251D1D25D829
:10116000D8252525252525D8D825252525251DD86B
:10117000D825252525251DD8D825252525251DD863
:10118000D81D252525251DD8D81C1D25251D1DD874
:10119000D81C1C1D1D1D1C77B7B77777B7B7771DF7
:1011A0001D1D1D1D1D1D1C1C1C1C1C1C1C1C141C81
:1011B0001C1C1C1C1C1C141C1C1C1C1C1C1C141C7F
:1011C0001C1C1C1C1C772E1C1C1C1C1C1C25251CE0
:1011D0001C1C1C1C141C252E251C1425252525141F
:1011E0001313131313252513131313777777B713DB
:1011F000132E2E2E2E25252E2E2E2E2525252E2E57
:101200002E2E2E777777772E2E2E2E2E2E2E2E25E3
:10121000251D1D2577B7B71D1D1313010A0A2325A8
:101220001D1C141413231A777777772E1C1413259B
:10123000252E2E252E2E252E2E2E7777777725B745
:10124000B7B7772E2E2E2E2E2525252E2E2E2E7735
:1012500077B7B7772E251C23231A1A1A1A1A1213D6
:10126000231A0A231A0A23131A01091C23232314FD
:10127000140A13231A0023251D1D141D09091A25FC
:101280002525251D1D1313251C2525251D1C14147E
:101290001313251D1D1C1C1A00002300004B0023E6
:1012A0001A1A1213231A001A1AD8D8D81201001ABF
:1012B00000231A001A120100000A1A000900000196
:1012C0000A0A1400091301141314141C0913131C23
:1012D0001C141C14141313001A0000231A002300FA
:1012E0001A001A1209091A0A1A00011D1D13130106
:1012F000130001251D1C1413131301251D1C1C01B3
:101300001313131D1C1C1C131313001C1C1C1C1377
:101310000A091C1C1C1C1C1A004B00005F0A000060
:10132000000A00004B0000010A0A14000900001422
:101330001314141C0913131C1C141C1C1413131C4D
:101340001C1C14141413131C1414141413130A1453
:101350001313130A090A010000D8D8D8D8D8D81313
:1013600000D8D8D8D8D8D80113D8D8D8D8D8D81336
:1013700013D8D8D8D8D8D8130AD8D8D8D8D8D80A13
:1013800009D8D8D8D8D8D80101D8D8D8D8D8D80131
:10139000D8D8D8D8D8D8D8D8D8D81C1C1C1C1CD879
:1013A000D8D8D8D81C1C1CD8D8D8D8D8D8D813D8B6
:1013B000D8D8D8D8D8D8D8D8D8D8D8D8D8D8D8D8AD
:1013C000D8D8D8D8D8D8D8D8D8D8D8D8D8D8D8D89D
:1013D000D8D8D8D8D8D8D81C1C1C1414141C1D1C40
:1013E0001C141313130A1C1313130A0A0A0A1CD819
:1013F000D8D80000000000D8D8D8D8D8000000D82D
:10140000D8D8D8D8D8D8D8D8D8D8D8D8D8D8D8D85C
:10141000D8D8D8D8D8D8D825252525251D1D1D1DB7
:101420002525251D1C1C1C1C1D1D1D1C1C1C1C1CDD
:101430001C1C1C1C1C1C1C00001C1C1C1C1C14D870
:10144000D8D8D8D8D8D8D8D8D8D8D8D8D8D8D8D81C
:10145000D8D8D8D8D8D8D81D1D1D1D1C1413131CBE
:101460001C1C1C141313131C1C14141413130A1423
:1014700014141413130A011313130A090A0101D8CF
:10148000D8D8D8D8D8D8D8D8D8D8D8D8D8D8D8D8DC
:10149000D8D8D8D8D8D8D81301001D1D1C1C1C0AB8
:1014A000091C1C1C1C1C1C0901001C1C1C1C1C01F4
:1014B000000000001313130000000000000000D81B
:1014C000D8D8D8D8525252D8D8D8D8D8D8D809D8FD
:1014D000D8D8D8D8D8D8D81C1C1C14141413131C52
:1014E0001414141413130A141313130A090A0113FE
:1014F0000A0A0A0A014848004848484848484849F2
:10150000494949090009094909094949000000D820
:10151000D8D8D8904848480A09010000131313018D
:101520000100000000000001000000004848484899
:101530004848484848484848484848484848485221
:101540005248484848489000004848484890D800C9
:101550000048484890D8D8480A0A0A0A01D8D8480A
:1015600048489090D8D8D8484890D8D8D8D8D848A3
:1015700090D8D8D8D8D8D890D8D8D8D8D8D8D8D87B
:10158000D8D8D8D8D8D8D8D8D8D8D8D8D8D8D8D8DB
:10159000D8D8D8D8D8D8D8D8D8D8D8D8D89090D85B
:1015A000D8D8D8D8D8D890D8D8D8D8D8D8D8D8D803
:1015B000D8D8D8D8D8D8D8D8D8D8D8D8D8D8D8D8AB
:1015C000D8D8D8D8D8D8D8D8D8D8D8D8D8D8D8D89B
:1015D000D8D8D8D8D8D8D85048484890D8D8D89053
:1015E00050484890D8D8D890904848D8D8D8D89063
:1015F000905090D8D8D8D890905090D8D8D8D8D8E3
:101600009050D8D8D8D8D8D89090D8D8D8D8D8D8BA
:101610009090D8D8D8D8D8D8D8D8D8D8D8D8D8D8DA
:10162000D8D8D8D8D8D8D8D8D8D8D8D8D8D8D8D83A
:10163000D8D8D8D8D8D8D8D8D8D8D8D8D8D8D8D82A
:10164000D8D8D8D8D8D8D8D8D8D8D8D8D8D8D8D81A
:10165000D8D8D8D8D8D86CD8D8D8D8D8D8D815D839
:10166000D8D8D8D8D8150BD8D8D8D8D8150BD8D81A
:10167000D8D8D8D8150AD8D8D8D8D8150B0AD8D8D9
:101680006C23D8150AD8D86C121202150AD8D81AA9
:101690006C1A12150AD8D80B0212126CD8D8D8D8E6
:1016A000121A6C1A6CD8D8D81212122323D8D8D890
:1016B000D8D8D81A23D8D8D8D8D8D812D8D8D8D8E3
:1016C000D8D8D8D8D8D8D8D8D8D8D8D8D8D8D8D89A
:1016D000D8D8D8D8D8D8D8D89090D8D8D8D8D8D81A
:1016E000D890D8D8D8D8D8D8D8D8D8D8D8D8D8D8C2
:1016F000D89090D8D8D8D8D8D89090D8D8D8D8D88A
:10170000D8909090D8D8D8D8D890905090D8D8D891
:10171000D890909090D8D8D8D8D8D8D8D8D8D8D869
:10172000D8D8D8D8D8D8D8D8D8D8D8D8D8D8D8D839
:10173000D8D8D8D8D8D8D8D8D8D8D8D8D8D8D8D829
:10174000D8D8D8D8D8D8D8D8D8D8D8D8D8D8D8D819
:10175000D8D823D8D8D8D8D8D8D8D8D8D8D8D8D8BE
:10176000D8D8D8D8D8D8D8D8D8D8D8D8D8D8D8D8F9
:10177000D8D8D8D8D8D8D8D8D8D823D8D8D8D8D89E
:10178000D8D8D823D8D823D8D8D8D823D823D8D8AD
:10179000D8D8231A232323D8D8D8D8D8D8D8D8D85B
:1017A000D8D8D8D8D8D8D8D8D8D8D8D8D8D8D8D8B9
:1017B000D8D8D8D8D8D8D8D8D8D8D8D8D8D8D8D8A9
:1017C000D8D8D8D8D8D8D8D8D8D8D8D8D8D8D8234E
:1017D00023D8D8D8D8D8D8D8D8D8D8D8D8D8D8D83E
:1017E000D8D8D8D8D8D8D8D8D8D8D8D8D8D8D8D879
:1017F000D8D8D8D8D8D8D8D8D8D8D8D8D8D8D8D869
:10180000D8D8D8D8D8D8D8D8D8D8D8D8D8D823D80D
:10181000D8D82B6C6C2B2BD8D8D8D8D8D8D8D8D827
:10182000D8D8D8D8D8D8D8D8D8D8D8D8D8D8D8D838
:10183000D8D8D8D8D8D8D8D823D8D8D8D8D8D8D8DD
:10184000D823D8D8D8D8D82B2323232323D8D823B8
:10185000231A2323232323D8D8D8D8D8D8D8D8D804
:10186000D8D8D8D8D8D8D8D8D8D8D8D8D8D8D8D8F8
:10187000D8D8D8D8D8D8D8D8D8D8D8D8D8D8D8D8E8
:10188000D823D8D8D8D8D81A1AD823D8D8232B12E6
:10189000122B236C2B2B23D8D8D8D8D8D8D8D8D86B
:1018A000D8D8D8D8D8D8D8D8D8D8D8D8D8D8D8D8B8
:1018B000D8D823D8D8D8D8D8D823D8D8D8D82BD8BF
:1018C000D823D8D823756C23231A23231A23232340
:1018D0001A23232323231AD8D8D823D8D8D8D8D842
:1018E000D8D8D823D8D823D8D8D8D823D823D8D84C
:1018F000D8D8231A2323236C6C2B2B231A1A232BBF
:101900002323231A1A1A1A231A231A1A1A1A1A1A0A
:101910002B1A1211231A11D8D8D8D8D8D8D8D8D879
:10192000D8D8D8D8D8D8D8D8D8D8D8D8D8D8D823EC
:1019300023D8D8D8D8D8D8232323231A1AD8D81AEA
:101940001A1A1A1212121112121212111109091175
:101950001A1A0911092B6CD8D8D8D8D8D8D8D8D801
:10196000D8D8D8D8D8D8D8D8D8D8D8D8D8D8D8D8F7
:10197000D8D8D8D8D8D8D8D8D8D8D8D8D8D8D8D8E7
:10198000D8D8D8D8D8D8D8D8D8D8D8D8D8D823D88C
:10199000D8D8D8D8D86C1AD8D8D8D8D8D8D8D8D8F1
:1019A000D8D8D8D8D8D8D8D8D8D8D8D8D823D8D86C
:1019B000D8D8D8D8D8D823D8D8D8D8D8232B23D873
:1019C0002B6C6C2B2B231A756C2B2323231A1A23B5
:1019D00023231A231A1A1AD8D8D8D8D8D8D8D8D89E
:1019E000D8D8D8D8D8D8D8D8D8D8D8D8D8D8D8D877
:1019F000D8D8D823D8D8D823232323D8D8D8D823A5
:101A000023232323231A1A1A1A231A1A1A12121A10
:101A10001A1A1212121111D8D8D8D8D8D8D8D8D8A2
:101A2000D8D8D8D8D8D8D8D8D8D8D8D8D8D8D8D836
:101A3000D8D8D8D8D8D8D8D8D8D8D8D8D8D8D8D826
:101A4000D8D8D8D8D8D8D81211D8D8D8D8D8D80972
:101A500009D8D8D8D8D8D8D8D8D8D8D8D8D823D88A
:101A6000D8D8D8D8D8D823D8D8D8D8D8D8D8D8D8AB
:101A7000D8D8D8D8D8D8D8D8D8D8D8D8D8D8D8D8E6
:101A8000D8D8D8D8D8D8D8D8D8D8D8D8D8D8D8D8D6
:101A9000D8D8D8D8D8D8D823121212150AD8D81A1C
:101AA000D8D8D8150B0AD812D8D8D815140AD8D82F
:101AB000D8D8D815150AD8D8D8D8D815150B0AD81B
:101AC000D8D8D8D815140AD8D8D8D8D815150AD83F
:101AD000D8D8D8D815150BD8D8D8D8D8D8D8D8D8D9
:101AE000D8D8D8D8D8D8D8D8D8D8D8D8D8D8D8D876
:101AF000D8D8D8D8D8D8D8D8D8D8D8D8D8D8D8D866
:101B0000D8D8D8D8D8D8D8D8D8D8D8D8D8D8D80A23
:101B1000D8D8D8D8D8D8D8D8D8D8D8D8D8D8D8D845
:101B2000D8D8D8D8D8D8D8D8D8D8D8D8D8D8D8D835
:101B3000D8D8D8D8D8D8D8D8D8D8D8D8D8D8D815E8
:101B4000D8D8D8D8D8D8D81514D8D8D8D8D8D8D89C
:101B500015D8D8D8D8D8D8D8D8D8D8D8D8D8D8D8C8
:101B6000D8D8D8D8D8D8D8D8D8D8D8D8D8D8D8D8F5
:101B7000D8D8D8D8D8D8D8D8D8D8D8D8D8D8D8D8E5
:101B8000D8D8D8D8D8D8D8D8D8D8D8D8D8D890D81D
:101B9000D8D8D8D8D8D890D8909090905090D8D8FD
:101BA00090909090905090D890909090909050D825
:101BB0009090909090905090909090909090909065
:101BC0009090909090909090909090909090909015
:101BD00090909090909050D8D8D8D8D8D8D8D8D8BD
:101BE000D8D8D8D8D8D8D890D8D8D8D8D8D8D85045
:101BF00090D8D8D8D8D8D8504890D8D8D8D8D85095
:101C0000484890D8D8D8D8504848489090D8D8500C
:101C100048484848489090D8D8D8D8D8D8D8D8D8A4
:101C2000D8D8D8D8D8D8D8D8D8D8D8D8D8D8D8D834
:101C3000D8D8D8D8D8D8D8D8D8232B232323236CC6
:101C40002B2B23232323232323231A1A1A1A1A1A8A
:101C5000231A1A1A1A1A06D8D8D8D8D8D8D8D8D841
:101C6000D8D8D8D8D8D8D8D8D8D8D8D8D8D8D8D8F4
:101C7000D81A1AD8D8D8D823D8D8D8D8D8D8D823CA
:101C800023231AD8D8D8D81A1A1A12D8D8D8D804D0
:101C9000041211D8D8D8D8D8D8D8D8D8D8D8D8D825
:101CA000D8D8D8D8D8D8D8D8D8D8D8D8D8D8D8D8B4
:101CB000D8D8D8D8D8D823D8D8D82B6C6C2B2B759B
:101CC0006C2B2323231A1A2323231A231A1A1A6C80
:101CD0001A1A0604041123D8D823D8D8D8D82BD858
:101CE000D823D8D823756C23231A23231A2323231C
:101CF0001A23232323231A1A1A1A1A1A1A1A121A1F
:101D00001A1A1212121211231A11111A1A09111287
:101D1000092309092323756C6C2B2B231A1A232BF7
:101D20002323231A1A1A1A231A231A1A1A1A1A1AE6
:101D30002B1A1211231A1112121111231209231135
:101D4000090909232B23232B6C6C2B2B2323236CB6
:101D50002B2323231A1A1AD8D81A1A232323231120
:101D60001212121A1A1A1A09091111121212126CED
:101D70002B0911091A1A112B6C7523092309092340
:101D800023231A6C2323231A1A1A2323232323120F
:101D900012120404061A1A231A1A232B2B6C6C1A1B
:101DA0001A1A1A2323232B1A1A1A1A1A231A23115E
:101DB0001A2311121A2B1A2309122311111212239A
:101DC000232B23090909112323232B2B6C6C2B1A9A
:101DD0001A1A2323232B6C2BD8D8D8D823D8D86C05
:101DE0007523D8D823D8D823231A23231A23231AB8
:101DF00023232323231A23121A1A1A1A1A1A1A111E
:101E0000121212121A1A1A11091A1A11111A23751A
:101E1000232309092309126C1A2323231A231A1ACC
:101E2000236C1A1A2B1A12022B1A122B1A121102D5
:101E300012000023120011150B010B1200000215F5
:101E400015140B14010A021515151514150B0B901A
:101E50001415141414140B0703043F27070401047A
:101E6000010007030001012300000401002B0023EF
:101E700009001A00001A02120000120900000209EB
:101E8000000002090001000B0002020B0001020B1E
:101E90000B0A0B0B0B010223756C1A2323231A0068
:101EA0002323231A231A1A006C1A1A2B1A12112B25
:101EB0001A122B1A12112312000023120011230BE5
:101EC000010B120000021202140B14010A02091580
:101ED000151514150B0B0B1A1A1A1A1A1A1A121AAC
:101EE0001A1A1212121211231A11111A1A091112A6
:101EF0000923090923237509001A09006C1A230014
:101F00000012092B1A236C000002091A022B1A0076
:101F100002020B00021200121211112312092311E6
:101F2000090909232B23232B6C6C2B2B2323236CD4
:101F30002B2323231A1A1A23231A231A1A1A1A1ABA
:101F40001A2B1A1211231A122B1A1211231209001A
:101F5000231200112309000909230923756C2B237F
:101F600023236C1A23232323232323231A1A1A1A25
:101F70001A0604041212120703043F27070401047F
:101F8000010007030001012300000401001A001AE8
:101F900009000000000000090909ECECEBEBE2018C
:101FA000000009EBE2E2E201000000D9D9D9D90032
:101FB0000000D9D9D9D9D9000000E2D9D9D9D9009E
:101FC0000202D9D9D9D9D900020AD9D9D9D9D90A7D
:101FD000020AD9D9D9D9D9E2E2EBEBECECECF6E282
:101FE000EBEBECF5F5FFF5D9D9D9D9D9D9F5ECD981
:101FF000D9D9D9D9D9F5ECD9D9D9D9D9D9ECEBD9FD
:10200000D9E2D9D9D9ECE2D9D9D9E2D9D9EBE2D9F7
:10201000D9D9D9D9D9EBEBD9FFECECECEBEBE2FF5A
:10202000F6F6F5EBE2E2E2F6F5E2D9D9D9D9D9F63E
:10203000E2EBD9D9D9D9D9F5D9D9E2D9D9D9D9ECBD
:10204000D9D9D9D9D9D9D9EBD9D9D9D9D9D9D9EBDC
:10205000E2D9D9D9D9D9D9D9FFECECECEBEBE2FF35
:10206000F6F6F5EBE2E2E2F6F5E2D9D9E1E2E2F6E4
:10207000E2EBD9E1E2E2E2F5D9D9EBE2E2E2E2EC2D
:10208000D9D9E2E2E2E2E2EBD9E1E2E2E2E2E2EB3A
:10209000E1E2E2E2E2E2E2E2E2EBEBEC2B1A23E243
:1020A000EBEBECF51A022BE2E2E2E2E2E20212E2F0
:1020B000E2E2E2E2E2150BE2E2EBE2E2E21515E235
:1020C000E2E2EBE2E21515E2E2E2E2E2E21515E21B
:1020D000E2E2E2E2E215156C1A1A2B1A1211231A27
:1020E000122B1A12112312000023120011230901CE
:1020F0000B120000021200140B14010A0209001551
:102100001514150B0B0B0015151515140B0B0B15D2
:10211000151515140B0B0B1A11111A1A09110909AF
:102120002309092309091A001A0900001A090000E5
:102130001209000000000000020900000001020274
:10214000020B0001011DFF0A0B0B0B0102665B0B6A
:102150000B0B0B0B02150B0000D8D8D8D8D8D80021
:1021600000D8D8D8D8D8D80000D8D8D8D8D8D80B44
:10217000026666666666661D142666666666665B49
:1021800015141D15151D1500151515151414140B12
:102190000B0B0B0B0B0B0BD8D8D8D8D8D8D8D8D85A
:1021A000D8D8D8D8D8D8D8D8D8D8D8D8D8D8D86621
:1021B000666666666601D8662666661D0B01D815DA
:1021C0001515FF5B0201D81414145B000201D80B33
:1021D0000B0B02020201D8D8D8D8D8D8D81515D8F8
:1021E000D8D8D8D8D81515D8D8D8D8D8D8D815D8B8
:1021F000D8D8D8D8D8D815D8D8D8D8D8D8D8D8D822
:10220000D8D8D8D8D8D8D8D8D8D8D8D8D8D8D8D84E
:10221000D8D8D8D8D8D8D80B0AD8D8D8D8D8D8159C
:102220000B0AD8D8D8D8D815140BD8D8D8D8D815E0
:10223000150B0AD8D8D8D81515150BD8D8D8D81555
:1022400015150B0AD8D8D81515150B0AD8D8D815D6
:1022500015150B0AD8D80BD815D8D8D8D8D8D8D8AF
:10226000150BD8236CD8D8D8150B0212126CD8D8FD
:10227000150A121A6C1A6C150B0A12121223231566
:102280000BD8D8D8D81A230B0BD8D8D8D812D80A3C
:102290000AD8D8D8D8D8D8D8D8D8D8D8D8D8D8D88C
:1022A000D8D8D8D8D8D8D8D8D8D8D8D8D8D8D8D8AE
:1022B000D8D8D8D8D8D823D8D8D8D8D8232323D872
:1022C000D8D85B5BA4A4A4D8D8A4A4A4A4A4A4D85C
:1022D000A4A45BA4A4A4A4D8D8D8D8D8D89090D8C3
:1022E000D8D8D8D8909090D8D8D8D890909090231B
:1022F0001A1A12909090901A1A1A1A1A129023A46D
:10230000A4A4A4A4A4ADADA4A4A4A4A4ADADADAD57
:10231000ADADADADADAD5B9090909090ADADAD90ED
:102320009090ADAD5B5B5B9090AD5B5BA4A4A49023
:1023300090A4A4A4A4A4A4231AA4A4A4A4A4A4AD73
:102340005B5BA4A4A45B5BAD5B5B5B5B5BA4A45B1E
:102350005BA4A4A4A4A4A4ADADADADADAD48485B51
:10236000A4A4A4A4A4ADADA4A4A4A4A4A4A4A4A41B
:10237000A4A4A4A4A4A4A4A4A4A4A4ADADADA4A402
:10238000A4ADADADA4A4A4A4A4ADADAD5B5BA4A469
:10239000A4554B4BAD5B5B9090D8D8D8D8D8D848D3
:1023A00048909090D8D8D8ADA448ADADADADADAD06
:1023B000ADAD5B5B5B5BA4AD5B5BA4A4A4A4A4A478
:1023C000A4A4A4A4A4A4A4A4A4A4A4A4A4A4A45B16
:1023D000A4A4A4ADADADAD2B1A1211230703041AAA
:1023E0001211231204010012001123090000000041
:1023F0000002120000120901ADADADADADADADAD45
:102400005B5B5B5BA4A4A45BA4A4A4A4A4A4A4A4F9
:10241000A4A4A4A4A4A4A43F270704010000A40723
:102420000300010100A4A40401000900005BA40052
:10243000000000005B5B5BADAD0002005B5B5BA47A
:10244000A4ADAD0A5B5B5BA4A4A4A4AD5B5B5BA481
:10245000A4A4A4AD5B5B5BD8EBECECECEBEBEBFF8B
:10246000F6F6F5EBE2E2E2F6F5E2E2E2E2E2E2F6CD
:10247000EBEBE2E2E2E2E2F5EBE2E2E2E2E2E2EC04
:10248000EBE2E2EBE2E2E2EBEBE2E2E2E2E2E2EBFF
:10249000E2E2E2E2E2E2E2EBEBEBEBECECECECE2D0
:1024A000EBEBECF5F5F5FFE2E2E2E1D9D9D9F5EB9A
:1024B000E2E2D9D9D9D9F5E2EBE1D9D9D9D9ECE21F
:1024C000E2E2D9D9D9D9ECE2E2D9E2D9D9D9EBE221
:1024D000E2D9D9D9D9D9EB1A0703043F2707040059
:1024E00004010007030001010B00000401000014B7
:1024F0000B14010A000000151514150B0B0B001529
:10250000151515140B0B0B15151515140B0B0B15B9
:10251000151515140B0B0B09001A09006C1A230072
:102520000012092B1A236C000002091A022B1A0050
:1025300002020B000212000B0A0B0B0B010B010B2A
:102540000B0B0B0B0B02140B0B0B0B0B0B14150BC8
:102550000B0B0B0B0A140B23231A231A1A1A1A1A21
:102560001A2B1A1211231A122B1A121123120900F4
:10257000231200112309000B120000021200000BAD
:1025800014010A020900001414150B0B0B000214AD
:1025900014140B0B0B0B0A010407273F040307015C
:1025A00001000307000104001A00010400002300D9
:1025B0000000000000091A000000000000091200DD
:1025C00000020001000902000A020201000B020AD7
:1025D0000A0A02010B0B0B1A1A1A1A231A23231ABE
:1025E0002311121A2B1A1A09122311121A2B120074
:1025F00009231100122300000012020000120B0038
:102600000009020A01140B02000B0B0B1514140A2B
:102610000B0B0B0B141414231A6C00091A00096C11
:10262000231A2B091200001A2B021A0902000000BB
:102630001202000B020200010B010B0B0B0A0B1420
:10264000020B0B0B0B0B0B15140B0B0B0B0B0B0BD0
:10265000140A0B0B0B0B0BD8140B1414140B0BD804
:10266000900B0B14140B0BD8D890020A0B0B0BD841
:10267000D8D89050020202D8D8D8D8D8905000D8D4
:10268000D8D8D8D8D8D8D8D8D8D8D8D8D8D8D8D8CA
:10269000D8D8D8D8D8D8D80B0B0B0B0B0B0B020BF8
:1026A0000B0B0B0B0B0B0A0B0B0B0B0B0B0A010B86
:1026B0000B0B0B0B0A0100000A0A0A020201009030
:1026C00050020202020000D8D8D8D8D8905000D8C2
:1026D000D8D8D8D8D8D8D81415141515140B0B146D
:1026E0000B141414140B0B010B0B14140B0B0B0019
:1026F00000020A0B0B0B0B000000000202020B0091
:10270000000000000000000000000000505048D809
:10271000D8D898509050500B0A0B0B0B010B010BA3
:102720000B0B0B0B0B02140B0B0B0B0B0B14150BE6
:102730000B0B0B0B0A140B0B0B0B0B0A01000B0AF8
:102740000A0A020201000000020202020000004820
:10275000000000000000000B120000021200000B3D
:1027600014010A020900001414150B0B0B000214CB
:1027700014140B0B0B0B0A0B14140B0B0B0B0B028F
:102780000A0B0B0B0B0B0B00000202020B0B0B00D6
:1027900000000000000A0A12090000000000000208
:1027A00009000100020000020B000102020A000BF6
:1027B0000B0B01020A0A0A0B0B0B0B020202020BA3
:1027C0000B0B0A010101000B0B0A01000000000ABB
:1027D000020201000000000A0A0AD9D9D9D9D90A8F
:1027E0000A0AD9D9D9D9D90A0A0AEBD9D9D9D90A21
:1027F0000A0AD9E2D9D9D90A0A0AD9D9E2D9D90A11
:102800000A0AD9D9D9D9D90A0A0AE2E2E2E2D90AEE
:102810000A0AEBEBEBE2E2D9D9D9D9D9D9EBEBD95A
:10282000D9D9D9D9D9EBEBD9E2D9D9D9D9E2EBD9D0
:10283000D9D9D9D9D9EBECD9D9D9E2D9D9EBECD9B5
:10284000D9D9D9E2D9ECF5D9D9D9E2E2EBECF6E263
:10285000D9D9D9EBECFFA4EBE2D9D9D9D9D9D9EBA5
:10286000E2D9D9D9D9D9D9EBE2D9EBD9D9D9D9E299
:10287000E2D9ADE2ADADADE2E2AD5B5BE25BA4EB14
:10288000EB5BA4A4A4D9A4E2F5EBE2E2E2E2D9FF77
:10289000ECECEBEBEBE2E2D9D9D9D9D9D9EBEBD916
:1028A000D9D9D9D9D9EBEBD9E2D9D9D9D9E2EBAD7C
:1028B000ADD9ADD9D9EBECA4A4A4E2ADADEBECA4B9
:1028C000A4A4A4E2A4ECF5D9D9D9E2E2EBECF6E2B7
:1028D000D9D9D9EBECFF5BEBE2E2E2E2E2E2E2EB38
:1028E000E2E2E2E2E2E2E2EBE2E2E2E2E2E2E2E2BF
:1028F000E2E2E2E2E2E2E2E2E2E2D9EBE2D9D9EBC1
:10290000EBD9D9D9EBD95BE2F5EBE2E2E2E2D9FF10
:10291000ECECEBEBEBE2E2E2E2E2E2E2E21515E202
:10292000E2E2E2E2E21515E2EBE2E2E2E20B15E2BC
:10293000E2EBE2E2E20B0BD9D9D9ECD9E202155B6A
:10294000A4A4ADE2D91515D9D9D9E2E2EB1515E267
:10295000D9D9D9EBEC151515151515140B0B0B154D
:10296000151515140B0B0B15151515140B0B0B1555
:10297000151515140B0B0B15151515140B0B0B1545
:10298000151515140B0B0B15151515140B0B0B1535
:10299000151515140B0B0B0B0B0B0B0B0A660A0B07
:1029A0000B0B0B0B0A66150B0B0B0B0B0A66150BAF
:1029B0000B0B0B0B0A66150B0B0B0B0B0A66150B9F
:1029C0000B0B0B0B0A66150B0B0B0B0B0AB76F0BE4
:1029D0000B0B0B0B0A66FF0A010101020B020A1521
:1029E0000B010A66151515150B01261515150B1586
:1029F0000A661515150B0115261515150B020A1576
:102A00001515150B020B146E6E6666666666265B00
:102A1000151514232B23230A010200000001D80BF3
:102A2000011D0B0A0001D8020A150A0A0001D80B81
:102A3000141402020001D8020A150A0A0001D80B78
:102A4000011D0B0A00016C1D150B14230A012B2319
:102A50000A236C5B020123D8D8D8D8D8D8D8D8D8C4
:102A6000D8D8D8D8D8D8D8D8D8D8D8D8D8D8D8D8E6
:102A7000D8D8D8D8D8D8D8D8D8232B232323236C78
:102A80002B2B23232323232323231A1A1A1A1A1A3C
:102A9000231A1A1A1A1A12D8D8D8D8D8D8D8D8D8E7
:102AA000D8D8D8D8D8D8D8D8D8D8D8D8D8D8D8D8A6
:102AB000D8D8D8D8D8D8D8D8D8D8D82B6C6C2BD8C8
:102AC000D823756C2B2323D86C1A2323231A232392
:102AD0002323231A1A2B1A151515140B0B0B0A1581
:102AE0001515150B0A0A0A151515150B0A0A0A15EC
:102AF000151515140B0A0115151515150B0A0115D9
:102B0000151515140B0A01151515150B0A0A0115D3
:102B10001515140B0A0A010AD8D8D8D8D8D8D80164
:102B2000D8D8D8D8D8D8D801D8D8D8D8D8D8D801D3
:102B3000231A1AD8D8D8D81A1A12121211D8D812A1
:102B4000121111090909D81A091109000000090117
:102B500009091A00232B23D8A4A45B5B5B5BA4A404
:102B6000A45B5B5B5B5B5BA4A45B5B5B5B5B5BA491
:102B70005B5B5B5B5B5B5B5B5B5B5B5B5B5B5B5BA5
:102B80005B5B5B5B5B5B525B5B5B5B5B5B5B525BA7
:102B90005B5B5B5B5B5B52A45B5B5B5B5B52A45B05
:102BA0005252525252A4A4525252525252A4A452BD
:102BB00052525252A4A45B5252525252A4A45B529B
:102BC00052525252A45B5B52525252525B5B5B5266
:102BD000525252525B5B5BA4A4A4A4A4A4A4A45B21
:102BE000A4A4A4A4ADADAD5B5B5B5BA4A45B5B5B89
:102BF0005B5B5B5B5B52525B5B5B5B5B5252525B52
:102C00005B5B5B5B5252525B5B5B5B5B5252525B4A
:102C10005B5B5B525252525F0A4BFFA75F4B004B0C
:102C200000005F0A0000005B00004B0000490052FA
:102C30005252520000494952525252524949495245
:102C400052525252494949525252524949494952A3
:102C5000525252494949495B5B5B5B5B5B5B5B0082
:102C60005B5B5B52525252005B5B5B525252524969
:102C70005B5B5B52525252495B5B5B525252524910
:102C8000495B5B5252525249495B5B525252524924
:102C9000495B5B52525252A4A4A4A4A4A4A4A4A429
:102CA000A4ADADADADADAD5B5B5B5B5B5B5B5B5B3F
:102CB0005B5B5B5B5B5B5B5B5B5B5B5B5B5B5B5B64
:102CC0005B5252525252525B5B5252525252525BC0
:102CD00052525252525252ADADADAD5B5B5B5BADE9
:102CE000AD5B5B495B5B5B5B5249494949495B5B57
:102CF000524949494949495B524949494949495217
:102D000052494949095252525249490909005252FD
:102D100049000009000052EBE2E2E2E2E2E2E2EB0B
:102D2000E2EBE2E2E2E2E2EBE2E2EBE2E2E2E2EB5F
:102D3000E2E2E2E2E2E2E2EBE2E2E2E2E2E2E2EB61
:102D4000EBE2E2E2E2D9E2EBA4EBE2E2E2E2E1A4CE
:102D5000A4A4EBEBEBE2E2E2E1D9D9D9D9D9EBEBD0
:102D6000D9D9D9D9D9D9EBE2E2D9D9D9D9D9E2E19E
:102D7000D9D9D9D9D9D9EBD9D9D9E2D9D9EBECD983
:102D8000D9D9D9E2D9ECF5D9D9D9E2E2EBA4A4E2B8
:102D9000E2E2E2EBA4A4D8E2E1D9D9D9D9D9EBEBAC
:102DA000D9D9D9D9D9D9EBE2E2D9D9D9D9D9E2E15E
:102DB000D9D9D9D9D9D9EBD9D9D9E2D9D9EBECD943
:102DC000D9D9D9E2D9ECF5D9D9D9E2E2EBECA4E230
:102DD000E2E2E2EBA4A4D8EBE2D9D9D9D9D9D9EB74
:102DE000E2D9D9D9D9D9D9EBE2D9EBD9D9D9D9E214
:102DF000E2D9ADE2ADADADE2E2AD5B5BE25BA4EB8F
:102E0000EB5BA4A4A4D9A4E2A4EBE2E2E2E2D9A49D
:102E1000A4A4EBEBEBE2E2D9D9D9D9D9D9EBEBD920
:102E2000D9D9D9D9D9EBEBD9E2D9D9D9D9E2EBADF6
:102E3000ADD9ADD9D9EBECA4A4A4E2ADADEBECA433
:102E4000A4A4A4E2A4ECF5D9D9D9E2E2EBECA4E283
:102E5000D9D9D9EBA4A45BE2E2E2E2E2E21515E201
:102E6000E2E2E2E2E21515E2EBE2E2E2E20B15E277
:102E7000E2EBE2E2E20B0BD9D9D9ECD9E202155B25
:102E8000A4A4ADE2D91515D9D9D9E2E2EB1515E222
:102E9000D9D9D9EBA415150B0B0B0B151515150B63
:102EA0000B0B0B151515150B0B0B0B151515150B22
:102EB0000B0B0B151515150B0B0B0B151515150B12
:102EC0000B0B0B151515150B0B0B0B151515150B02
:102ED0000B0B0B151515151515140B0B0B0B0B15F3
:102EE00015140B0B0B0B0B1515140B0B0B0B0B15F8
:102EF00015140B0B0B0B0B1515140B0B0B0B0B15E8
:102F000015140B0B0B0B0B1515140B0B0B0B0B15D7
:102F100015140B0B0B0B0B0A0A0A0A0A0B0B0B0AF4
:102F20000A0A0A0A0B0B0B0A0A0A0A0A0B0B0B0AFB
:102F30000A0A0A0A0B0B0B0A0A0A0A0A0B0B0B0AEB
:102F40000A0A0A0A0B0B0B0A0A0A0A0A0B0B0B07DE
:102F50000A0A0A0A0B0B0B0B0B0B0B0B1415150BA8
:102F60000B0B0B0B1415150B0B0B0B0B1415150B77
:102F70000B0B0B0B1415150B0B0B0B0B1415150B67
:102F80000B0B0B0B1415150B0B0B0B0B1415150B57
:102F90000B0B0B0B141515151515150B0B0B0B1532
:102FA0001515150B0B0B0B151515150B0B0B0B1521
:102FB0001515150B0B0B0B151515150B0B0B0B1511
:102FC0001515150B0B0B0B151515150B0B0B0B1501
:102FD0001515150B0B0B0B005BFFF6F6F6F6F6FF5F
:102FE000FFFFFFF6F6F6F6F6FFFFFFFFFFF6F6F639
:102FF000F6F6FFFFADA4A4F6F6F6ADA4A4A4A4F6DD
:10300000F6F6A4A4A4A4A4F6F6F6A4A4A4A4A4F694
:10301000F6F6A4A4A4A4A4F6F6F6F6F6F6F6F6F6EA
:10302000F6F6F6F6F6F6F6F6F6F6F6F6F6F6F6A492
:10303000A4A4A4A4A4A4A4A4A4A4A4A4A4A4A4A450
:10304000A4A4A4A4A4A4A4A4A4A4A4A4A4A4A4A440
:10305000A4A4A4A4A4A4A4F6F6F6F6F65B0000F6D5
:10306000F6F6F6F6F6F6F6F6F6F6F6F6F6F6F6A452
:10307000ADF6F6F6F6F6F6A4A4A4A4A4A4A4A4A41B
:10308000A4A4A4A4A4A4A4A4A4A4A4A4A4A4A4A400
:10309000A4A4A4A4A4A4A40000000000000000F6BE
:1030A000F6F6F6F6AD0000F6F6F6F6ADA45B00F621
:1030B000F6ADADA45B4900A4A4A4A45B494900A457
:1030C000A4A4A449494900A4A4A4A449494900A42A
:1030D000A4A4A449494900A4A4A4A4A4A4A4A4A465
:1030E000A4A4A4A4A4A4A4A4A4A4A4A4A4A4A4A4A0
:1030F000A4A4A4A4A4A4A4A40000000000A4A40068
:10310000A4A4A4A40000A400A4A4A400A400A40057
:10311000A4A400A4A400A4A4A4A4A4A4A4A4A4A4B7
:10312000A4A4A4A4A4A4A4A4A4A4A4A4A4A4A4A45F
:10313000A4A4A4A4A4A4A4A4A4A400A4A4A4A4A4F3
:10314000A40000A4A4A4A4A4A4A400A4A4A4A4A42B
:10315000A4A400A4A4A4A4A4A4A4A4A4A4A4A4A4D3
:10316000A4A4A4A4A4A4A4A4A4A4A4A4A4A4A4A41F
:10317000A4A4A4A4A4A4A4A40000000000A4A400E7
:10318000A4A4A4A4A400A4A4A4A4A4A4A400A4A447
:10319000A4A4000000A4A4A4A4A4A4A4A4A4A4A4DB
:1031A000A4A4A4A4A4A4A4A4A4A4A4A4A4A4A4A4DF
:1031B000A4A4A4A4A4A4A400000000000000A4A44B
:1031C000A4A4A4A400A4A4A4A4A40000A4A4A4A4AB
:1031D000A4A4A4A400A4A4A4A4A4A4A4A4A4A4A453
:1031E000A4A4A4A4A4A4A4A4A4A4A4A4A4A4A4A49F
:1031F000A4A4A4A4A4A4A4A4A4A4A40000A4A4A4D7
:10320000A4A400A400A4A4A4A400A4A400A4A4A40E
:1032100000A4A4A400A4A4A4A4A4A4A4A4A4A4A4B6
:10322000A4A4A4A4A4A4A4A4A4A4A4A4A4A4A4A45E
:10323000A4A4A4A4A4A4A4000000000000A4A400CA
:10324000A4A4A4A4A4A4A4000000000000A4A4A416
:10325000A4A4A4A4A400A4A4A4A4A4A4A4A4A4A4D2
:10326000A4A4A4A4A4A4A4A4A4A4A4A4A4A4A4A41E
:10327000A4A4A4A4A4A4A4A40000000000A4A400E6
:10328000A4A4A4A4A4A4A400A4A4A4A4A4A4A40046
:103290000000000000A4A4A4A4A4A4A4A4A4A4A422
:1032A000A4A4A4A4A4A4A4A4A4A4A4A4A4A4A4A4DE
:1032B000A4A4A4A4A4A4A400000000000000A400EE
:1032C000A4A4A4A4A400A4A4A4A4A4A400A4A4A406
:1032D000A4A4A400A4A4A4A4A4A4A4A4A4A4A4A452
:1032E000A4A4A4A4A4A4A4A4A4A4A4A4A4A4A4A49E
:1032F000A4A4A4A4A4A4A4A40000000000A4A40066
:10330000A4A4A4A4A400A400A4A4A4A4A400A4A469
:103310000000000000A4A4A4A4A4A4A4A4A4A4A4A1
:10332000A4A4A4A4A4A4A4A4A4A4A4A4A4A4A4A45D
:10333000A4A4A4A4A4A4A4A40000000000A4A40025
:10334000A4A4A4A4A400A400A4A4A4A4A400A4A429
:10335000000000000000A4A4A4A4A4A4A4A4A4A405
:10336000A4A4A4A4A4A4A4A4A4A4A4A4A4A4A4A41D
:10337000A4A4A4A4A4A4A4A4A4A4A4A4A4A4A4A40D
:10338000A4A4A4A4A4A4A4A4A4A4A4A4A4A4A4A4FD
:10339000A4A4A4A4A4A4A4F6F6F6A4A4A4A4A4F6A5
:1033A000F6F6A4A4A4A4A4F6F6F6A4A4A4A4A4F6F1
:1033B000F6F6A4A4A4A4A4F6F6F6A4A4A4A4A4F6E1
:1033C000F6F6A4A4A4A4A4F6F6F6A4A4A4A4A4F6D1
:1033D000F6F6ADA4A4A4A4A4A4A4A4A4A4A4A4A400
:1033E000A4A4A4A4A4A4A4A4A4A4A4A4A4A45BA4E6
:1033F000A4A4A45B000000A4A4A45B000090D8A433
:10340000A4A4000090D8D8A4A4A40090D8D8D8A48C
:10341000A4A45BD8A45BD8A4A4A4A4A4A4A4A4A496
:10342000A4A4A45B000000000000005B5BADD8001A
:1034300090D85BF6F6F6B6D8D8D85B5B5BADF6D81D
:10344000D8D8D8D8D8D85BD8D8D8D8D8D85BADD821
:10345000D8D8D8D85B5BADA4A4A4A4A4A4A4A40089
:1034600000000000000000D8D8D8ADF6B6D890D83B
:10347000D8ADADADF6F6D8F6D8A4A4D8D8D8D8B67D
:10348000D85B5BD8D8D8D8ADADF6F6A4D8D8D8FFDD
:1034900009FF09F6ADD8D8A4A4A4A4A4A4A4A400A8
:1034A0005BA4A45B005BA400005B5B0000D8A4D815
:1034B00090000090D8D8A4D8D8D8D8D8D8D8A4D834
:1034C000D8D8D8D8D8A4A4D8D8D8D8D8D8A4A4D84C
:1034D000D8D8D8D8A4A4A4A4A4A4A4A4A4A4A4A4DC
:1034E000A4A4A45B00000000000000131365D80032
:1034F00090D813AEAEAEAED8D8D8131314656ED82C
:10350000D8D8D8D8D8D813D8D8D8D8D8D81365D838
:10351000D8D8D8D8131465A4A4A4A4A4A4A4A4009F
:1035200000000000000000D8D8D865AEAED890D812
:10353000D86565656EAED8AED81C1DD8D8D8D8AEC3
:10354000D85313D8D8D8D866656EAE1DD8D8D8BF92
:1035500009FF09AE65D8D8A4A4A4A449494900A488
:10356000A4A4A449494900A4A4A4A449494900A485
:10357000A4A4A449494900A4A4A4A449494900A475
:10358000A4A4A449494900A4A4A4A449494900A465
:10359000A4A4A44949520000A400A4A4A400A40027
:1035A00000A4A4A4A400A4A40000000000A4A4A457
:1035B000A4A4A4A4A4A4A4A4A4A4A4A4A4A4A4A4CB
:1035C000A4A4A4A4A4A4A4A4A4A4A4A4A4A4A4A4BB
:1035D000A4A4A4A4A4A4A4A4A4A400A4A4A4A4A44F
:1035E000A4A400A4A4A4A4A40000000000A4A4A473
:1035F000A4A4A4A4A4A4A4A4A4A4A4A4A4A4A4A48B
:10360000A4A4A4A4A4A4A4A4A4A4A4A4A4A4A4A47A
:10361000A4A4A4A4A4A4A4A40000A4A4A4A4A40056
:10362000A4A4A4A4A4A4A400000000000000A4A4D6
:10363000A4A4A4A4A4A4A4A4A4A4A4A4A4A4A4A44A
:10364000A4A4A4A4A4A4A4A4A4A4A4A4A4A4A4A43A
:10365000A4A4A4A4A4A4A4A4A4A4A4A4A400A40072
:10366000A4A4A4A4A400A4A40000000000A4A4A4F2
:10367000A4A4A4A4A4A4A4A4A4A4A4A4A4A4A4A40A
:10368000A4A4A4A4A4A4A4A4A4A4A4A4A4A4A4A4FA
:10369000A4A4A4A4A4A4A400A4A4A4A400A4A400D6
:1036A000000000000000A4A4A4A4A4A400A4A4A456
:1036B000A4A4A4A4A4A4A4A4A4A4A4A4A4A4A4A4CA
:1036C000A4A4A4A4A4A4A4A4A4A4A4A4A4A4A4A4BA
:1036D000A4A4A4A4A4A4A400A4A4A4A4A400A40096
:1036E000A4A4A4A4A400A4A40000000000A4A4A472
:1036F000A4A4A4A4A4A4A4A4A4A4A4A4A4A4A4A48A
:10370000A4A4A4A4A4A4A4A4A4A4A4A4A4A4A4A479
:10371000A4A4A4A4A4A4A4A4A4A400A4A4A4A4A40D
:10372000A4A400A4A4A4A4A4A4A400A4A4A4A4A4A1
:10373000A4A4A4A4A4A4A4A4A4A4A4A4A4A4A4A449
:10374000A4A4A4A4A4A4A4A4A4A4A4A4A4A4A4A439
:10375000A4A4A4A4A4A4A4A4A4A4A4A4A400A4A4CD
:10376000A4A4A4A4A400A4A40000000000A4A4A4F1
:10377000A4A4A4A4A4A4A4A4A4A4A4A4A4A4A4A409
:10378000A4A4A4A4A4A4A4A4A4A4A4A4A4A4A4A4F9
:10379000A4A4A4A4A4A4A4F6F6F6F6A4A4A4A4AD98
:1037A000F6F6F6A4A4A4A400F6F6F6A4A4A4A40035
:1037B000F6F6F6A4A4A4A4ADF6F6F6A4A4A4A4FF79
:1037C000FFF6F6A4A4A4A4FFFFFFF6A4A4A4A4F605
:1037D000FFFFFFA4A4A4A4A4A4A4A4A45B0000A429
:1037E000A4A4A45B000090A4A4A4A4A4A4D8D8A4D6
:1037F000A4A4A4A4A4A4A4A4A4A4A4A4A4A4A4A489
:10380000A4A4A4A4A4A4A4A4A4A4A4A4A4A4A4A478
:10381000A4A4A4A4A4A4A40090D8D8D85BADF6D83E
:10382000D8D8D8D852A4A4D8D8D8D8D8525BB6D82B
:10383000D8D8D8D8D8525B5B90D8ADA45B5252A4EC
:1038400000A4F652A4ADFF5B00D85B52ADFFFF00B1
:1038500000231A525BA4ADFF49FF09FFF6D8D8AD8B
:10386000B6FFFFF6ADA4D8FFFFF69FFFFFADD8F679
:10387000B65BADFFADD8D85B5BFFFF23D8D8D8AD22
:10388000A4FFFF1A1AD8D8A4B6A41A1A1A1AD8096B
:10389000ADA4A4A41A1A1AD8D8D8D8D8A45BA4D88E
:1038A000D8D8D85B005BA4D8D8D8D8000090A4D8CA
:1038B000D8D8D890D8D8A4D8D8D8D8D8D8A4A4D86C
:1038C000D8D8D8D8A4A4A4D8D8D8A4A4A4A4A4D818
:1038D000A4A4A4A4A4A4A40090D8D8D81365AED856
:1038E000D8D8D8D80A5C1DD8D8D8D8D80A14AED819
:1038F000D8D8D8D8D80A135B90D8655C130A0AA424
:10390000001CAE0A1D65FF5B00D8130A65FFBF00EF
:1039100000231A0A131C65FF01BF01BFAED8D8658A
:10392000AEFFFFAE651CD8BFBFAE9FBFFF65D8AE70
:10393000AE1365B765D8D81313FFFF23D8D8D86561
:103940001DFFFF1A1AD8D85CAE1C1A1A1A1AD80111
:10395000655D1C5C1A1A1AA4A4A4A452525252A463
:10396000A4A44949490049A4A4A44949490049A437
:10397000A4A44949490049A4A4A44949490049A427
:10398000A4A44952525249A4A4A45252494949A458
:10399000A4A45B49494949A40000000000A4A40074
:1039A000A4A4A4A40000A400A4A4A400A400A400AF
:1039B000A4A400A4A400A400A400A4A4A400A4009F
:1039C00000A4A4A4A400A4A40000000000A4A4A433
:1039D000A4A4A4A4A4A4A4A4A4A400A4A4A4A4A44B
:1039E000A40000A4A4A4A4A4A4A400A4A4A4A4A483
:1039F000A4A400A4A4A4A4A4A4A400A4A4A4A4A4CF
:103A0000A4A400A4A4A4A4A40000000000A4A4A44E
:103A1000A4A4A4A4A4A4A4A40000000000A4A4003E
:103A2000A4A4A4A4A400A4A4A4A4A4A4A400A4A49E
:103A3000A4A4000000A4A4A40000A4A4A4A4A4001E
:103A4000A4A4A4A4A4A4A400000000000000A4A4B2
:103A5000A4A4A4A4A4A4A400000000000000A4A4A2
:103A6000A4A4A4A400A4A4A4A4A40000A4A4A4A402
:103A7000A4A4A4A400A4A4A4A4A4A4A4A400A400F2
:103A8000A4A4A4A4A400A4A40000000000A4A4A4CE
:103A9000A4A4A4A4A4A4A4A4A4A4A40000A4A4A42E
:103AA000A4A400A400A4A4A4A400A4A400A4A4A466
:103AB00000A4A4A400A4A400A4A4A4A400A4A400FA
:103AC000000000000000A4A4A4A4A4A400A4A4A432
:103AD000A4A4A4A4A4A4A4000000000000A4A40022
:103AE000A4A4A4A4A4A4A4000000000000A4A4A46E
:103AF000A4A4A4A4A400A4A4A4A4A4A4A400A40072
:103B0000A4A4A4A4A400A4A40000000000A4A4A44D
:103B1000A4A4A4A4A4A4A4A40000000000A4A4003D
:103B2000A4A4A4A4A4A4A400A4A4A4A4A4A4A4009D
:103B30000000000000A4A400A4A4A4A4A400A40065
:103B4000A4A4A4A4A400A4A40000000000A4A4A40D
:103B5000A4A4A4A4A4A4A400000000000000A40045
:103B6000A4A4A4A4A400A4A4A4A4A4A400A4A4A45D
:103B7000A4A4A400A4A4A4A4A4A400A4A4A4A4A44D
:103B8000A4A400A4A4A4A4A4A4A400A4A4A4A4A43D
:103B9000A4A4A4A4A4A4A4A40000000000A4A400BD
:103BA000A4A4A4A4A400A400A4A4A4A4A400A4A4C1
:103BB0000000000000A4A400A4A4A4A4A400A400E5
:103BC000A4A4A4A4A400A4A40000000000A4A4A48D
:103BD000A4A4A4A4A4A4A4A40000000000A4A4007D
:103BE000A4A4A4A4A400A400A4A4A4A4A400A4A481
:103BF000000000000000A4A4A4A4A4A4A400A4A401
:103C0000A4A4A4A4A400A4A40000000000A4A4A44C
:103C1000A4A4A4A4A4A4A4F6F6FFADA4A4A4A4F60A
:103C2000F6F6A4A4A4A4A4F6F6F6A4A4A4A4A4F668
:103C3000F6F6A4A4A4A4A4F6F6F6A4A4A4A4A4F658
:103C4000F6ADA45B494949ADADA45B494949495B1F
:103C5000A45B4949494949A4A4A4A4A4A4A4A4A434
:103C6000A4A4A4A4A4A4A4A4A4A4A4A4A4A4A4A414
:103C7000A4A4A4A4A4A4A4A4A4A4A4A4A4A4A4495F
:103C800049494949494949494949494949494949A4
:103C90004949494949494900231A5BF6FF5BFF5BE3
:103CA000231A1A1A1A1A1AA4A41A1A1A1A1A1AA4CD
:103CB000A4A4A41A1A1A1AA4A4A4A4A4A4A4A44947
:103CC0004949494949494949494949494949494964
:103CD000494949494949495BFF64ADFFA41A1A1A89
:103CE0001A1A1A1A1A1A1A1A1A1A1A1A1A1AA41AAA
:103CF0001A1A1A1AA4A4A4A4A4A4A4A4A4A4A44907
:103D00004949494949494949494949494949494923
:103D100049494949494949A4A4A4A4A4A4A4A4A4E0
:103D2000A4A4A4A4A4A4A4A4A4A4A4A4A4A4A4A453
:103D3000A4A4A4A4A4A4A4A4A4A4A4A4A4A4A4499E
:103D40004949494949525B494949494952524949B6
:103D500049494952525249A4A4A4A4A4A4A4A4A485
:103D6000A4A4A4A4A4A4A4A4A4A4A4A4A4A4A4A413
:103D7000A4A4A4A4A4A4A4A4A4A4A4A4A4A4A4A403
:103D8000A4A4A4A4A4A4A449494949494949494926
:103D90004949494949494900231A13AEF713FF5BC2
:103DA000231A1A1A1A1A1AA4A41A1A1A1A1A1AA4CC
:103DB000A4A4A41A1A1A1AA4A4A4A4A4A4A4A4A4EB
:103DC000A4A4A4A4A4A4A4494949494949494949E6
:103DD0004949494949494913BF1465FF1C1A1A1A30
:103DE0001A1A1A1A1A1A1A1A1A1A1A1A1A1AA41AA9
:103DF0001A1A1A1AA4A4A4A4A4A4A4A4A4A4A4A4AB
:103E0000A4A4A4A4A4A4A4494949494949494949A5
:103E100049494949494949A4A4A4A449494949A44B
:103E2000A4A4A449494949A4A4A4A449494949A42A
:103E3000A4A45B49494949A4A4A40000494949A450
:103E4000A45B000000490049494900000000004906
:103E50004949490000000002020001121302020257
:103E600003141502020405161702020607181902A8
:103E70000208091A1B02020A0B1C1D02020C0D1E6D
:103E80001F02020E0F121302021011202102022241
:103E9000233334020224253536020226273738021E
:103EA000022829393A02022A2B3B3C02022C2D3DE2
:103EB0003E02022E2F3F40020222303334020231F2
:103EC000324142010143010144010145010146FE25
:103ED000FE5B5BADFEFEFEFE5BF6F6F6B6FEFEFE9C
:103EE0005B5B5BADF6F6FEFEFEFEFEFE5BB6FEFE27
:103EF000FEFEFE5BADADADFEFEFE5B5BADFF09FE03
:103F0000FEFE5BADF6FF49FEFEFE52A4A4ADB6FE7A
:103F1000ADF6B6FEFEFEFEADADADF6F6FEFEFEA4BF
:103F2000A4FEFEFEFEFEFE5B5BFEFEFEFEFEFEF659
:103F3000F6A4FEFEFEFEFEFF09F6ADFEFEFEFEFF4F
:103F400009FFF6FEFEFEFEFFFFF6ADA4FEFEFEFE3E
:103F5000FEFEFE5B5BADF6FEFEFE5BF6F6B6F6FE23
:103F6000FEFE5B5B5B005BFEFEFEFEFEFE5BADFEEF
:103F7000FEFEFEFE5B9BADFEFEFEFEFE5BADF6FEB4
:103F8000FEFEFEFE52A4A4FEFEFEFEFEFE5BB6FE9C
:103F9000FEADADF6B6FEFEB6FEA4A4ADF6F6FEF698
:103FA000FE5B5BFEFEFEFEADADF6F6A4FEFEFEFF82
:103FB00009FF09B6ADFEFEFF49FF49FFF6FEFEAD63
:103FC000B6FFFFB6ADA4FEFFFFF69FFFFFADFEFEFE
:103FD000FEFE5B5BADFEFEFEFE5BF6F6F6B6FEFE9B
:103FE000FE5B5B5BADF6F6FEFEFEFEFEFE5BB6FE26
:103FF000FEFEFEFE5BADADFEFEFEFE5B5BADFFFEBC
:10400000FEFEFE5BADF6FFFEFEFEFE52A4A4ADFE7C
:10401000FEADF6B6FEFEFEFEADADADF6ADFEFEFEAD
:10402000A4A4FEFEFEFEFEFE5B5BFEFEFEFEFEADFB
:10403000F6F6A4FEFEFEFE09FF09F6ADFEFEFE4901
:10404000FF09FFF6FEFEFEB6FFFFF6ADA4FEFEFE84
:10405000FEFEFE5B5BFEFEFEFEFEFE5BF6ADFEFEC2
:10406000FEFEFEFE5BB6F6FEFEFEFEFEFEFEB6FEAB
:10407000FEFEFEFEFEFE5BFEFEFEFEFEFE5BADFEF7
:10408000FEFEFEFE5B5BADFEFEFEFEFE5BADF6FEE3
:10409000FEFEFEADADFEFEFEFEFEADADF6FEFEFE8C
:1040A000FEADADFEFEFEFEF6FEA4A4FEFEFEFEF696
:1040B000FE5B5BFEFEFEFEADADF6F6A4FEFEFEFF71
:1040C00009FF09B6ADFEFEFF49FF09FFF6FEFEFE41
:1040D000FE5BF6B6F6FEFEFE5BF6B6F6B6F6FEFE46
:1040E000FEB6F6FEFEADADFEFEFEFEFE5BADADFE27
:1040F000FEFEFE5B5BADFFFEFEFEFE5BADF6ADFEC3
:10410000FEFEFE52A4F6FFFEFEFEFE525BADADFECD
:10411000FEFEADF6FEFEFEFEFEADADADF6FEFEAD64
:10412000B6F6FEFEB6F6FE09F609A4FEFEFEFE4950
:10413000FF09F6B6FEFEFEADFFFFADFFF6FEFEFF89
:10414000FF9FFFF6B6FEFEADADFFFFADFEFEFEFE2D
:10415000FEFEFE5B5BADFEFEFEFE5BF6F6F6B6FE19
:10416000FEFE5B5B5BADF6FEFEFEFEFEFEFE5BFE54
:10417000FEFEFEFEFE5BADFEFEFEFEFE5B5BADFEEA
:10418000FEFEFEFE5BADF6FEFEFEFEFE52A4A4FEAB
:10419000FEFEADF6B6FEFEFEFEADADADF6F6FEF6EB
:1041A000FEA4A4FEFEFEFEB6FE5B5BFEFEFEFEADC2
:1041B000ADF6F6A4FEFEFEFF09FF09F6ADFEFEFF1A
:1041C00049FF09FFF6FEFEADB6FFFFF6ADA4FEFE09
:1041D000FEFEFEFEFEF6B6FEFEFEFEFEFE5BF6FEFA
:1041E000FEFEFEFEFEFE5BFEFEFEFEFEFEFEFEFE92
:1041F000FEFEFEFEFEFEFEFEFEFEFEFEFEFE5BFE82
:10420000FEFEFEFEFE5B5BFEFEFEFEFEFE5BADF610
:10421000FEFEFEFEF6B6FEB6F6FEF6B6F6F6FEB606
:10422000F6FEB6F6FEFEFEF6F6FEADADFEFEFEAD09
:10423000B6FE5B5BFEFEFEADADADF6F6FEFEFEAD80
:10424000FFFFFFFFF6FEFEF6FF09FF09FFF6FEFE89
:10425000FE5B5BADFEFEFEFE5BF6F6F6B6FEFEFE18
:104260005B5B5BADF6F6FEFEFEFEFEFE5BB6FEFEA3
:10427000FEFEFE5BADADADFEFEFE5B5BADFFF6FE92
:10428000FEFE5BADF6FFF6FEFEFE52A4A4ADB6FE4A
:10429000ADF6B6FEFEFEFEADADADF6F6FEFEFEA43C
:1042A000A4FEFEFEFEFEFE5B5BFEFEFEFEFEFEF6D6
:1042B000F6A4FEFEFEFEFEFFF6F6ADFEFEFEFEFFDF
:1042C000F6FFF6FEFEFEFEFFFFF6ADA4FEFEFEFECE
:1042D000FEFEFEFEFEFEF6FEFEFEFEF6FEFEB6FE56
:1042E0005BFEFEFEF6FEFE5BF6F6ADFEFEFEFE5B40
:1042F0005BADADF6B6ADFEFEFEFE5B5BADADF6FEB4
:10430000FEFE5BADF6B6F6FEA4A452A4F6A409FE2A
:10431000FEFEFEFEFEFEFEFEFEF6FEFEFEFEFEFEC5
:10432000F6FEFEFEFEFEFEFEFEFEFEF6B6F65BFEB0
:104330005BADADADAD5B5BF6F6ADA4FEFEFEFEB6CD
:10434000B6ADF6FEFEFEFEFF49A4ADFEFEFEFEFE8D
:10435000FEFE525BB6FFFFFEFEFEFE525BF6B6FEB1
:10436000ADA45B52525B5BA4F652A4ADFFADA4FEBC
:104370005B52ADFFFFA4B6FEFE525BA4AD09ADFEDD
:104380005BF6FF5BFF5BFFFEFEFEFEFEFEFEFEF643
:104390009FFFFFADFEFEFE5BADFFADFEFEFEFEFF2E
:1043A000FFFEFEFEFEFEFEFFFFFEFEFEFEFEFEA484
:1043B000FEFEFEFEFEFEFEA4A4A4FEFEFEFEFE64C5
:1043C000ADFFA4FEFEFEFEFEFEFEFEFEFEFEFEFEB7
:1043D000FEFEFEA45B525BFEFEA4B652A45B5BFE37
:1043E000FEFEA452ADF6F6FEFEFEFEADADA4FFFE4F
:1043F000FE525BF6ADA45BFE5BF6FF5BFEFEA4FE29
:10440000FEFEFEFEFEFEFEFEFEFEFEFEFEFEFEF6D4
:10441000B65BADFFADFEFE5B9BFFFFFEFEFEFEF654
:104420005BFFFFFEFEFEFE5B5BFF5BFEFEFEFEFF34
:10443000A45BFFA4FEFEFEA4A4F6FEFEFEFEFEFEAE
:10444000FEFEFEFEFEFEFEFEFEFEFEFEFEFEFEFE8C
:10445000FEFEFE525BB6FFFEFEFEFEFE525BF6FE69
:10446000FEA4A4FE52525BFEA4F65B5B5BAD5BFE5A
:10447000FE5B52ADF6FFADFEFE5252A4B6FFF6A4AF
:10448000F6B6A4FEA4A45BFE5B5BFEFEFEFEFEFF92
:10449000F69FFFFFADFEFEB65BADFFADFEFEFE5B21
:1044A000FFFFFEFEFEFEFEFEFFFFFEFEFEFEFE5BCB
:1044B000FEFEFEFEFEFEFEA4F6A4FEFEFEFEFEB620
:1044C000A4B6A4FEFEFEFEFEFEFEFEFEFEFEFEFE08
:1044D000FEFEFEFE52A4A4FEFEFEFEFE525BB6FEF3
:1044E000FEFEADA45B529BFEFEA4F652A45B5BFEF7
:1044F000FEFE5B52ADF6F6FEFEFE525BB6ADADFEC5
:10450000FEA4F6FF5BFEADFEFEFEFEFEFEFEFEAD71
:10451000B6FFFFF6ADA4FEFFFFF69FFFFFADFEB6B0
:10452000F65BADFFADFEFE5B5BFFFFFEFEFEFEF643
:104530005BFFFFFEFEFEFEFFF65BFEFEFEFEFEAD37
:10454000FFA45BA4FEFEFEFEA4FFA4FFA4FEFEFEED
:10455000FEFEFE5B5B5BADFEFEA4F65BA4ADFFFE64
:10456000FEFEA45BF6FFFFFEFEFEFEF6AD64A4FEBB
:10457000FEFFF664A4F6A4FEFFF6A4A4B6A4FEFE15
:10458000FEFEFEFEFEFEFEFEFEFEFEFEFEFEFE5BEE
:104590005BFFFFFEFEFEFEAD5BFFFFFEFEFEFEF6D6
:1045A000F6ADF6FEFEFEFEA4FEFEFEFEFEFEFEFEE6
:1045B000FEFEFEFEFEFEFEFEFEFEFEFEFEFEFEFE1B
:1045C000FEFEFEFEFEFEFEFEFEFEFEFEFEFEFEFE0B
:1045D000FEFEFEFE525BB6FEFEFEFEFEFE525BFEE1
:1045E000FEA4F65B5B5BADFEFEFE5B52ADF6FFFE2E
:1045F000FEF6ADA4F6ADFFF6B6F6A4B6F6A464FEDC
:10460000FEFEFEFEFEFEFEFEFEFEFEFEFEFEFEFFC9
:10461000FFF69FFFFFADFEF6B65BADFFADFEFE5BA6
:104620005BFFFFFEFEFEFEAD5BFFFFFEFEFEFEF645
:10463000A4F6FEFEFEFEFEF6B6A4B6FEFEFEFEFEEE
:10464000FEFEFEFEFEFEFEFEFEFEFEFEFEFEFEFE8A
:10465000FEFEFEF6FF52A4ADFFFFFEFEFF525BFE24
:10466000ADFFFFFEA45252FEFEA4A45BAD5B52FE62
:10467000FEFEFF5BFFADADFEFEFEFE5BADFFADFEE1
:10468000FEFEFEFE5B5BA4FEFEFEFEFEFEFEFEB632
:10469000FF49FF09FFFFFEF6B6F6FFFFADADFEF6E0
:1046A000FFFFF69FFFF6AD5BF6B6ADADADADFEAD6F
:1046B000ADFEFFFFFEFEFE5B5BADFFFFFEFEFEFFFD
:1046C000AD5BA4FEFEFEFEA4FFFEA4FFFEFEFEA464
:1046D000B6A4525BB6FFFFFEA45264525BF6B6FE70
:1046E000FE52ADFFFFA45BFEFE525BA4ADFEA4F63E
:1046F000FFAD5B5B5BFF5BFEFEFEFEFEFEFEFEFEB5
:10470000FEFEFEFEFEFEFEFEFEFEFEFEFEFEFEF6D1
:104710009FFFFFADFEFEFE5BADADADA4FEFEFEFF56
:10472000FFFEFEFEFEFEFEFFFFA4A4A4FEFEFEA40E
:10473000FFADADFFA4FEFEFEFEFEFEFEFEFEFEFE93
:10474000FEFEFEFEFEFEFEFEFEFEFEFEFEFEFEFE89
:10475000FEFE131365FEFEFEFE13AEAEAEAEFEFE13
:10476000FE131314656EAEFEFEFEFEFEFE13AEFEDD
:10477000FEFEFEFE136566FEFEFEFE131465BFFE22
:10478000FEFEFE1365AEFFFEFEFEFE0A5C1D65FE2C
:10479000FE65AEAEFEFEFEFE6565656EAEFEFEFE1D
:1047A0001C1DFEFEFEFEFEFE5313FEFEFEFEFE651B
:1047B0006EAE1DFEFEFEFE09FF09AE65FEFEFE01A9
:1047C000BF01BFAEFEFEFEAEFFFFAE651CFEFEFEED
:1047D000FEFEFE131365AEFEFEFE13AEAE6EAEFE23
:1047E000FEFE1314130013FEFEFEFEFEFE1366FE15
:1047F000FEFEFEFE131365FEFEFEFEFE1366AEFE1B
:10480000FEFEFEFE0A1C1CFEFEFEFEFEFE13AEFEBB
:10481000FE6565AEAEFEFEAEFE1C1D656EAEFEAE66
:10482000FE5313FEFEFEFE65656EAE5CFEFEFEBF31
:1048300009FF096E65FEFEFF01BF01FFAEFEFE65CA
:10484000AEFFFF6E651CFEFFBF6E9FBFFF65FEFEE5
:10485000FEFEFE131365FEFEFEFE13AEAEAEAEFE12
:10486000FEFE131314656EFEFEFEFEFEFEFE13FE3C
:10487000FEFEFEFEFE1365FEFEFEFEFE131465FE4A
:10488000FEFEFEFE1365AEFEFEFEFEFE0A5C1DFE93
:10489000FEFE65AEAEFEFEFEFE6565656E65FEAEB5
:1048A000FE1C1DFEFEFEFEAEFE5313FEFEFEFE6669
:1048B000656EAE1DFEFEFEBF09FF09AE65FEFEFF82
:1048C00001BF01BFAEFEFE65AEFFFFAE651CFEFE82
:1048D000FE1313FEFEFEFEFEFE13AE65FEFEFEFEA2
:1048E000FEFE13AEAEFEFEFEFEFEFEFEAE6EFEFE53
:1048F000FEFEFEFE13AEFEFEFEFEFE13666565FEC8
:10490000FEFE131365FF09FEFEFE1366AEBF01FE39
:10491000FE6565FEFEFEFEFE6565AEFEFEFEFE6504
:1049200065FEFEFEFEFEFE1D1CFEFEFEFEFEFE53AE
:1049300013FEFEFEFEFEFE6EAE1CFEFEFEFEFEFF43
:1049400009AE65FEFEFEFEBF01BFAEFEFEFEFEFE30
:10495000FE13AEAEAEFEFEFE13AEAE6E6EAEFEFE4D
:10496000FEAE6EFEFE6565FEFEFEFEFE136566FE95
:10497000FEFEFE131465FFFEFEFEFE1365AE65FE31
:10498000FEFEFE0A5D6EBFFEFEFEFE0A136565FEBC
:10499000FEFE65AEFEFEFEFEFE656565AEFEFE65D4
:1049A000AE6EFEFE6EAEFE09AE091DFEFEFEFE01FF
:1049B000BF09AEAEFEFEFE65FFF765BFAEFEFEFFB1
:1049C000B79FBFAEAEFEFE6565FFBF65FEFEFEFE95
:1049D000FEFEFE131365FEFEFEFE13AEAEAEAEFE91
:1049E000FEFE131413656EFEFEFEFEFEFEFE13FEBB
:1049F000FEFEFEFEFE1366FEFEFEFEFE131365FEC9
:104A0000FEFEFEFE1366AEFEFEFEFEFE0A5C1DFE10
:104A1000FEFE65AEAEFEFEFEFE6565656EAEFEAEEA
:104A2000FE1C1DFEFEFEFEAEFE1353FEFEFEFE65E8
:104A300065AEAE1CFEFEFEBF09BF09AE65FEFEFF01
:104A400001FF01BFAEFEFE65AEBFFFAE651CFEFE00
:104A5000FEFEFEFEFEAEAEFEFEFEFEFEFE136EFE91
:104A6000FEFEFEFEFEFE13FEFEFEFEFEFEFEFEFE51
:104A7000FEFEFEFEFEFEFEFEFEFEFEFEFEFE13FE41
:104A8000FEFEFEFEFE1313FEFEFEFEFEFE1366AEEF
:104A9000FEFEFEFEAEAEFE6EAEFEAEAEAE6EFEAE86
:104AA000B6FE6EAEFEFEFEAE6EFE6565FEFEFE65F9
:104AB000AEFE1413FEFEFE666565AEAEFEFEFE653E
:104AC000BFFFBFBFAEFEFEAEFF01FF01BFAEFEFEE9
:104AD000FE65AEAEFEFEFEFE6565656EAEFEFEFEDA
:104AE0001C1DFEFEFEFEFEFE5313FEFEFEFEFE65D8
:104AF0006EAE1DFEFEFEFEF6FFF6AE65FEFEFEF697
:104B0000BFF6BFAEFEFEFEAEFFFFAE651CFEFEFEB4
:104B1000FEFEFEFEFEFEAEFEFEFEFEAEFEFEAEFEA5
:104B200013FEFEFEAEFEFE13AEAE65FEFEFEFE13EF
:104B3000146565AEAE65FEFEFEFE131465656EFE81
:104B4000FEFE1365AE6EAEFE1C5D0A1DAE1D09FEB7
:104B5000FEFEFEFEFEFEFEFEFEAEFEFEFEFEFEFEC5
:104B6000AEFEFEFEFEFEFEFEFEFEFEAEAEAE13FE90
:104B700013656565651313AEAE651DFEFEFEFEAEE4
:104B80006E65AEFEFEFEFEBF091D65FEFEFEFEFE6C
:104B9000FEFEFE0A14AEBFFEFEFEFEFE0A13AEFED1
:104BA000FE655C130A0A13FE1CAE0A1D65FF65FE56
:104BB000FE130A65FFBF5CFEFEFE0A131C6501FEC4
:104BC000FE13AEF713FF13FEFEFEFEFEFEFEFEBF5B
:104BD000AE9FBFFF65FEFEAE1365B765FEFEFE131A
:104BE000FFFFFEFEFEFEFE1DFFFFFEFEFEFEFEAE12
:104BF0001CFEFEFEFEFEFE655D1C5CFEFEFEFEBFB4
:104C00001465FF1CFEFEFEFEFEFEFEFEFEFEFEFE28
:104C1000FEFEFE1C530A14FEFE1CAE0A1D1313FEFC
:104C2000FEFE1D0A65AEAEFEFEFEFE65651DBFFE04
:104C3000FE0A13AE655C13FE13AEFF13FEFE1CFEF0
:104C4000FEFEFEFEFEFEFEFEFEFEFEFEFEFEFEAED4
:104C5000AE1365FF65FEFE1313FFFFFEFEFEFEAE04
:104C600013FFFFFEFEFEFE1413FF13FEFEFEFEFF0B
:104C70001C13FF1CFEFEFE551CAEFEFEFEFEFEFEDD
:104C8000FEFEFEFEFEFEFEFEFEFEFEFEFEFEFEFE44
:104C9000FEFEFEFE0A14AEFEFEFEFEFEFE0A13FE41
:104CA000FEFE5C1CFE0A0AFEFE1CAE14531365FEDB
:104CB000FEFE130A65AEFFFEFEFE0A0A1DAEBFFE33
:104CC0001CAEAE5CFE1D1CFEFE1314FEFEFEFEBFFF
:104CD000BFAE9FBFFF65FEAEAE1365B765FEFE13A8
:104CE00013FFFFFEFEFEFE14FEFFFFFEFEFEFE654E
:104CF00013FEFEFEFEFEFEAE1DAE1CFEFEFEFE130D
:104D0000AE1DAE1CFEFEFEFEFEFEFEFEFEFEFEFE26
:104D1000FEFE0A1C1C65AEFEFEFE0A13AEFFBFFEC1
:104D2000651C540A14AEAE1CAE0A1C53131313FEBA
:104D3000140A656EAEAE13FE0A13AE6665BFAE1CF6
:104D4000AEFF13FE6565FFFEFEFEFEFEFEFE1CFFCF
:104D5000FFAE651CFEFEFE6E9FFFBF65FEFEFE13EE
:104D600065BF65FEFEFEFEFFFFFEFEFEFEFEFEFFD1
:104D7000FFFEFEFEFEFEFE13FEFEFEFEFEFEFE1D1E
:104D8000135CFEFEFEFEFEFE1DFE1CFEFEFEFEFE93
:104D9000FEFEFE13141365FEFE1CAE135C65FFFEE3
:104DA000FEFE1D13AEBFF7FEFEFEFEAE651C1DFE31
:104DB000FEFFAE1C1DAE1CFEBFAE1C1DAE1CFEFEDB
:104DC000FEFEFEFEFEFEFEFEFEFEFEFEFEFEFE14ED
:104DD00013FFFFFEFEFEFE6513FFFFFEFEFEFE6EEE
:104DE000AE65AEFEFEFEFE5CFEFEFEFEFEFEFEFEBE
:104DF000FEFEFEFEFEFEFEFEFEFEFEFEFEFEFEFED3
:104E0000FEFEFEFEFEFEFEFEFEFEFEFEFEFEFEFEC2
:104E1000FEFEFEFE0A13AEFEFEFEFEFEFE0A13FEC0
:104E2000FE1CAE13131465FEFEFE130A65AEFFFEF4
:104E3000FEAE651DAE65BFAEAEAE1DAEAE1D1CFEB8
:104E4000FEFEFEFEFEFEFEFEFEFEFEFEFEFEFEFF81
:104E5000BFAE9FBFFF65FE6EAE1365F765FEFE1326
:104E600013FFFFFEFEFEFE6514FFFFFEFEFEFEAE1C
:104E70001CAEFEFEFEFEFEAEAE1CAEFEFEFEFEFE56
:104E8000FEFEFEFEFEFEFEFEFEFEFEFEFEFEFEFE42
:104E9000FEFEFEAEFF0A1C65BFFFFEFEBF0A53FE0C
:104EA00065B7FFFE5C0A0AFEFE1C1C13661312FEA9
:104EB000FEFEF713FF6565FEFEFEFE1365BF65FE91
:104EC000FEFEFEFE13135DFEFEFEFEFEFEFEFEAEC9
:104ED000B709BF09FFBFFE6EAEAEFFF76565FEAE58
:104EE000BFBFAE9FBFAE6514AEAE65656565FE65BE
:104EF00065FEFFFFFEFEFE141365FFFFFEFEFEFED5
:104F000065131DFEFEFEFE1CFEFE5CBFFEFEFE1CCB
:104F1000AE1C0A136EFFFFFE1D0A5D0A13AE6EFE85
:104F2000FE0A65FFFF1C13FEFE0A131C65FE5DAE44
:104F3000FF65531413FF13FEFEFEFEFEFEFEFEFE93
:104F4000FEFEFEFEFEFEFEFEFEFEFEFEFEFEFEAED1
:104F50009FB7FF65FEFEFE136565651CFEFEFEFF46
:104F6000FFFEFEFEFEFEFEFFFF1C5D1CFEFEFE1CA5
:104F7000FF6565FF1CFEFEFEFEFEFEFEFEFEFEFE63
:104F8000FEFEFEFEFEFEFEFEFEFEFEFEFEFEFEFE41
:104F9000FEFEFEFEFEFEFEFEFEFEFEFEFEFEFEFE31
:104FA000FEFEFEFEFEFEFEFEFEFEFEFEFEFEFEFE21
:104FB000FEFEFEFFFEFEFEFEFE5F075FFEFEFEFE45
:104FC000FEFE5F07FEFEFEFEFEFEFEFEFEFEFEFE97
:104FD000FEFEFEFEFEFEFEFEFEFEFEFEFEFEFEFEF1
:104FE000FEFE5FFFFEFEFEFEFE070707FEFEFEFE64
:104FF000FE075FFEFEFEFEFEFEFEFEFEFEFEFEFE67
:10500000FEFEFEFEFEFEFEFEFEFEFEFEFEFEFEFEC0
:10501000FEFEFEFEFEFEFEFEFEFEFEFEFEFEFEFEB0
:10502000FEFEFEFEFEFEFEFEFEFEFEFEFEFEFEFEA0
:10503000FEFEFEFEFEFEFEFEFE07FEFEFEFEFEFE87
:10504000FEFEFEFEFEFEFEFEFEFEFEFEFEFEFEFE80
:10505000FEFEFEFEFEFEFEFEFEFEFEFEFEFEFEFE70
:10506000FE07FEFEFEFEFEFEFEFEFEFEFEFEFEFE57
:10507000FEFEFEFEFEFEFEFEFEFEFEFEFEFEFEFE50
:10508000FEFEFEFEFEFEFEFEFEFEFEFEFEFEFEFE40
:10509000FEFEFEFEFEFEFEFEFEFEFEFEFEFEFEFE30
:1050A000FEFEFEFEFEFEFEFEFEFEFEFEFEFEFEFE20
:1050B000FEFEFEFEFEFEFEFEFEFEFEFEFEFEFEFE10
:1050C000FEFEFEFEFEFEFEFEFEFEFEFEFEFEFE00FE
:1050D000000F000200000832010302010302010375
:1050E00002010302010302010302010302010302A0
:1050F00001030201030201030201050000FFFFFE9C
:105100000000FF01FEFFFF0000FFFFFFFF00FDFFAB
:10511000FEFFFFFFFE00FFFFFFFE00FF00FEFE00A0
:10512000FF00FEFE00FEFFFF0001FF00FFFFFFFF8C
:1051300000FFFDFFFF01FFFEFFFFFEFF0000FF007D
:1051400000010100FFFE00FFFF00FFFEFEFD00FF6B
:10515000FFFEFFFFFFFEFE010000FF00FE0000005B
:10516000FF00FE00FE00FFFFFDFFFFFFFDFEFEFE55
:10517000FF00FF00FF0000FF01000100FFFFFEFF36
:10518000FE00FDFEFDFFFDFFFFFEFEFE00FF010134
:1051900000010001000101FF00FF00FFFCFEFDFD1A
:1051A000FCFDFCFDFDFDFEFEFFFF0101030102020F
:1051B00003040302FF00FFFEFEFDFBFAFAFBFAFB0D
:1051C000FBFCFBFDFE0204030405060507060705BC
:1051D0000201FFFEFAF9F6F5F5F2F3F5F5F8FBFE3C
:1051E00003060A0A0B0D0A0C0D0D0A080402FCF84E
:1051F000F3EEEAE7E8E7EBF1F9FE030B0E12121209
:105200001110100E0E0A0601FBF4F1EAEAE8E6E9D5
:10521000ECF3F6FE040A0C1011101110100D0B091E
:105220000502FCF7F0EBE6E5E5E9ECF3F8FF050B2A
:105230000F1113121212100F0C090400F8F3EBE512
:10524000E1E1E1E7EDF6FF060D1115151514141354
:10525000110C0A0500F9F0E9E3DEDEDFE5EDF5000B
:10526000070F15151717151513110F0A05FEF9F17C
:10527000E9E1DBDCDEE5EDF8010A0F15181816167A
:105280001414110E0805FEF4EBE2DDD9DBDEE6F0C6
:10529000FD050F1517171A18171612110D0800F52E
:1052A000EEE4DDD8D7DBE3EDFB040E14191A1B196D
:1052B000181616130D0701F9EDE4D9D4D4DAE0ED90
:1052C000F9050F171A1A1B1A181916120F0802F7E8
:1052D000EBDDD6D0D1D8E1EEFC0911191B1D1C1B4A
:1052E0001A1718141108FFF2E5D8CECCCFDBE7F47B
:1052F000020E161C1D1E1A1C1A1918141005F9EAA4
:10530000DDD0CBCBD3E0EEFC0C141A1C1D1B1B1AFA
:105310001C1A171109FDEEDCD0C8C9D0DCEEFD0B5C
:10532000151B1A1C1B1B1A1C1B1A150BFCEBD9CBCB
:10533000C3C9D0E0F1010F151B1A1B191A1A1C1B47
:105340001A150AF9E5D4C6C3CAD6E9FA08151B1B13
:105350001916161619191D1C1104EED8CAC3C5D189
:10536000E3F609141B1B1917131315171B1A17093A
:10537000F4DFCEC3C5CFE0F606151C1B1913110FC1
:105380001115181A1708F3DDC9C1C5D1E5FC0C18B1
:105390001D1C171410101214181B1403EDD7C7C0CE
:1053A000C9D8EE03131C1B1814100E0E13171C196A
:1053B0000EF9E0CEC1C4D1E7FD10191C18120C0A79
:1053C0000B0E14181A1507F2DDD0C9CDDDEE02114F
:1053D0001918140C0805080D1116161003EFDAD170
:1053E000CDD4E6F80C181B1B130B0404080A131782
:1053F000140AF7DCCCC4CBDEF60D1D251F170B01FC
:10540000FF000711171A0EF9DEC7BECADFF310231B
:105410002824180D0101030C10140E02F2E2D7D457
:10542000DAE5F4FF09141515140E0A0C0E151A1DF1
:1054300014F9D8B9AFCAE2E80A2A2D261505F8F9F9
:10544000FE0913161304F7E9E3E3E7EAF1F6FC04B7
:105450000B10110E090C111921271AFDD7B6ADCE6C
:10546000E5F31830302208F7EDEFF80A14170F01B2
:10547000F4E5E1E5EAF4FC050B10120A02FBFC0678
:1054800014212818F8D3BAB7D1F7192D2F2512FEF9
:10549000F5EEF4FE08121408FEEBD8D4DBEB011392
:1054A0001C211A0902F9FB040E181B12F0CFBAB81E
:1054B000D0F3152A31271909FBF6FB07111C180632
:1054C000F1D4C1C6D7F10A1A1C1C14070301061730
:1054D00021262306D7B0A9CBE201222C281304F8F9
:1054E000EEF30515242A1E04E1BEBCCFEA081B1BFF
:1054F000180DFFF8F90417272C250BD9B5B0CBEC04
:105500001226271E0FFDF3E9F00619252B15F5D0FD
:10551000BBC6E30219201A1305F7EDF20620302F5F
:105520001EEFB9A3C0E004262D271C05F2E6E5FA1C
:105530001A2B301FFBCDB5C1DEFD151C211E0DFB46
:10554000E9EA052432331DF0BAA9BFE0011B242982
:105550001F07EDDCE40B2A383017EDC1B4C8E200B8
:105560001721261B00E4DCED1636392D13E3BBB5FD
:10557000C7E3041C282D1AF4DBD5F4203332250DA3
:10558000DFC1C1D1EE0B1D272006EBDBE3082B2E7C
:105590002A1CFCD2BFCAE0FF161D2113F7E2DEF27F
:1055A0001B2E2A1F0FEAC4C7D8F41420201800E3CA
:1055B000D9E406292E2316FCCFC1D3ED0F23211CDD
:1055C00009EAD9DDF61F2E251703DABFCCE605233D
:1055D000272116F9E0DCF01229231706E2C1C6DE06
:1055E000F91B26221A00E6E1F0132D2D1C09E6C353
:1055F000C0D8F213221E12FCE1DEF0173433220E63
:10560000ECC1C4E0FB18241B0BF3D7D4E9103131F3
:10561000230FEEC5C8E502202A200EF3D6D2E80CEF
:105620002C2B1B0AE6BEC4E60324312814F5D3D480
:10563000EE13302D1E06DDB6C3E60625302511ED2E
:10564000CDD4F61D34302105D6B5C9EA0B262D235D
:105650000AE3C9D8FC202F2B1EFFD0BBD7F7132697
:10566000291D02DACCE006222A2617F2C6C3E2FF81
:105670001B282717F7D0D0EB0F2524220EE6C5D024
:10568000EE081C242112EDCFDBF9161A171502DBE8
:10569000CEEA01131C1D1603E2D6EF0D19110D04FD
:1056A000EAD1DDFC131D1E170AF1D9E2041B190D06
:1056B00006F2D4CDE9091C231B11FDE4DBF215230E
:1056C000170CFDE0C8D7F91724231806EAD5E4081B
:1056D00025221407ECCCC6E80B23262011F6DAD7D6
:1056E000F41A26180EFDDBC8DAFD17251E1302E694
:1056F000D8EA0D221C0F01E5CDD5F413232218079B
:10570000EDDAE20221201105EED0CBE90A21281DB5
:105710000BF5DDDEF81A271407F5D7C7DF011E2ABF
:105720001F11FCE2D9F0122B1D0BFDDDC5D1F717BF
:105730002C271602E8D4E2092A291807E9C7C2E58E
:105740000B282C1E08EDD2D6F8202D2011FAD3C339
:10575000DA011F2E2312F7D7D1EC13261B0DFFDD24
:10576000C5D8FF1F31291801E2D1E60A251E0DFD1B
:10577000E0C1CEF5182D2C1D07E9D6E60926231227
:1057800003E7C2C4EC0D282D200CECD1DD01262A44
:105790001909F0C7C0E509242F2410F1D1D4F71D51
:1057A000271D11F9CFC0DE051F292415FBD7D4F41E
:1057B0001721180EF9D6C3DD061E2A2315FBDDD5E9
:1057C000F41925180CF9D2C0DD0820282315FDDCBA
:1057D000D4F21928190DFCD4BBDA05202C2514FDB0
:1057E000DDD3F017281A0FFED7BBD2011E2C2919C2
:1057F000FCDBCFEC15281C12FFD9BCD5011C2A28D4
:105800001D00DBCFEB13261C0EFFDABDD2001D2BD3
:10581000291C02DFD0EA13282011FFD9B8D0FC1BC5
:105820002B2C1F02DDCCE71026201304DDB9CBFBA7
:10583000182B2D2105E1CDE50D271F1605DFB9C970
:10584000F914262E240BE3CEE50A231B160CE6BD25
:10585000C8F6102128240DEAD1E3091E1B140AE919
:10586000C1CCF7111F27200CE9D4E3081F1B120934
:10587000E8C0CBFA152327210AE7D2E508201C123D
:1058800006EABFC5F714242C240EE9D0E007221F36
:105890001407EBBEC2F212202A2412EFD1DF062039
:1058A00022160BEEC0BCEF11212A2613EDCFD90230
:1058B00020241810F1C3BBEA0F1F2A2A15F1CDD5F9
:1058C000FD1D251910F7C5B7E80D202B2A17F6D1B5
:1058D000D6F91B241B10F6C5B6E20A1E2E2E1DF7A4
:1058E000D0D2F41A271E14FBC9B1DE071C2B2C20C2
:1058F000FED5D1F315261F17FFCEB1D9061A282BD6
:1059000020FDD6D1F216221E16FFD0B4DA061A27D1
:105910002E1FFDD4D0F214241F15FECFB3DA071AC0
:105920002B2F1FFDD4D0F316272013FDC9B0DA09A1
:105930001B2B2E1FFBD2CEF519271F16FDC8B0DA80
:10594000071B2D2E1EFBCFCFF317272118FDC8B143
:10595000DF091C2C301DF8CED1F618251E14F9C70E
:10596000B3E20B1A2C2E1CF8CFD5F817211D12F517
:10597000C0BBEC0D1B2B2918F2D0DB011B201C0F28
:10598000ECBDBDF10F1E2A2915ECCDDE051C201B38
:105990000FEAB9C3F413212B2611E6CDE2071D1F30
:1059A000170CE3B9C9FC142329250EE3D0E80B1C1E
:1059B0001C1408DFB8D2021422282107DFD2F1110B
:1059C0001F1A1402D4B5D90518252A2102D8D4F5F6
:1059D00015211A13FFCDB5DC081B27281BFCD4D8D2
:1059E000FC18241B10F6C7B9E70C1C272817F3D1A5
:1059F000D9FF1B221B12F3C0BAEB111E292615EE8C
:105A0000CDDE001B1F1B14F1BBC1F310212A28128D
:105A1000E9CBE1031B1E170DEAB8C5F712212B27AE
:105A20000FE6CEE60A1D1D140DE3B6CBFD13232AA7
:105A3000230DE1CFEB0D201D1208DDB4CF0217249A
:105A4000282008DFD0EF10221B1408D8B4D6041881
:105A500023281D03D9D3F2131E1A1303D3B5DE076F
:105A60001A26271EFDD7D6F9171F1612FFCEB6E04D
:105A70000A1D24261AF9D2DBFD19221710FBC9B919
:105A8000E80D1D232519F4D2DC011A20140CF9C5E8
:105A9000BDEC121E232213F1D0E0041C1F110CF4E4
:105AA000C4C1F3141F241F10EBD3E3081F1D100AF9
:105AB000EBBEC6FA182425200CE6CFE70D221C10F9
:105AC00008E8BAC9FD1924221E0BE3D2ED10221AF0
:105AD0000E06E1BAD0051C24231C06DDD1F21523E5
:105AE000180A03DCB6D6092126221B00D8D1F517E7
:105AF00024170900D4B7DD0D22262218FCD5D6F9CB
:105B00001D251309FDCEB6E31124252117F9D3D79E
:105B1000FE1F25130AF7C7B8E81526272314EFCE72
:105B2000DB022123150AF2BFBBEE1827282111EA58
:105B3000CDDD052324130BEDBCBFF6192928200E5B
:105B4000E7C8E10A241F1208E4B5C3FC1C29282178
:105B50000CE1C9E81126211006E1B3C9FF1D2A296D
:105B60002209DACBE91227211204D9B2CF01202A67
:105B70002A1E03D6CBEF16291D1102D5B0D406215B
:105B800029281F01D5CDF017281D1000CFB2D70945
:105B9000232A281DFFD2D0F319271D1000CDB2DA19
:105BA0000A222A271DFBD1CFF41A281C10FECAB4E2
:105BB000DD0B212A291DF9CFD1F419261D11FDC9AC
:105BC000B3DD0B212B291DFAD1D1F518261D13FBAE
:105BD000CBB2DD0A202B2A1DF9D1D2F317282013CE
:105BE000FDCBB3DB081E2B2C1DFCD2D2F1162520D9
:105BF00015FDCDB4DB041C292C20FED5D2EE1227D6
:105C0000211401D2B5D7041B282A1D00D7D0ED0FCF
:105C100027201201D4B7D7021A2B2A1F02D9D1EAA2
:105C20000F27221301D6B8D70018282C1F05DBD167
:105C3000E90C26211303DCB8D3FC1727291E07E142
:105C4000D2E80925211204DBBAD2FB1727281E0847
:105C5000E1D2E70924221205E0BDD1FA1528281F58
:105C600008E4D2E60825211104E1BECFF814262667
:105C70001E0BE5D4E40524211106E2BDCFF715255E
:105C8000261F0CE7D4E30721201205E4C0CDF7144A
:105C900026241E0BE8D5E506221D1005E6C2D0F825
:105CA0001425241E0DEBD7E508221D0D05E5C3D4F0
:105CB000F91621211B0AE6D8EA0922190A04E2C1D1
:105CC000D4FE17231F1B08E7D7EB0D21190B00DFAC
:105CD000C4D8011A22201706E4DAEE0F251509FEB2
:105CE000DCC0DE061D231C1703E1DAF315211107C2
:105CF000FAD6C4E4081D221C14FDDFDEFA172010BA
:105D000006F7CFC6EC0D20221C14F7DBE1001C1AAD
:105D10000B05F0C8CDF615201F190CEDDAE90A20A5
:105D2000160701E4C3D70119231D1706E6DAF1149B
:105D3000231105FDDAC2E3081F241B12FDDEDEFD80
:105D40001C1E0A05F7CCC8F0122322190FF2DAE55F
:105D50000720190603EAC4D2FD19251D1606E7D847
:105D6000EF15221205FDDAC3DF0A1F231A15FDDC29
:105D7000DCFB1D210905F6CEC6F0132324180FF213
:105D8000D7E30A22180703E6C4D4FD1B271F160613
:105D9000E2D5F116220E06FCD6C4E30A22271C1215
:105DA000F8D8DDFF1E1D0D05F1CACDF31325241A09
:105DB0000CEDD5E70A1F140A02E2C3DBFF18242109
:105DC0001903E1DAF5151D0E09FBD3CBED081D22F1
:105DD0001E13F7DCE1021A140A06EACCD7FA1221E4
:105DE000201C09E8DDEE0E180B0A01DACCE90519D2
:105DF0001E1E16FDE1E3FB1610080AF0D0D7F70EC1
:105E00001A1B1B0FF0DFF00915080805E1CDE904A6
:105E100014191A1A02E4E5FD130D0306F6D4D8F995
:105E20000E16171911F5E2F20B14030302E4D0E980
:105E3000061216161705E7E6001508FE04F5D5DC70
:105E4000FB0F1814150EF4E6F6101501FDFEE1D453
