:100000000C94E02F0C9470300C9470300C94703081
:100010000C9470300C9470300C9470300C947030E0
:100020000C9470300C9470300C9470300C947030D0
:100030000C9470300C948F320C9470300C9470309F
:100040000C9470300C9470300C9470300C947030B0
:100050000C9470300C9470300C9470300C947030A0
:100060000C9470300C9470300C9470300C94703090
:100070007C388A386E390D3DF93C8D389C38AB3868
:10008000E13CB938C73800408891D2E4ADB5B6BE7E
:10009000BFFFFE01AC5FFF8A77DC0F01495F5B4960
:1000A00077520F017B5F7B61B7730F010CFF0F0B62
:1000B000AF17DB0000000000000000010C0F270E4E
:1000C0002F014992A3EDFF1E2F665D0E5358434545
:1000D0004D56004D45474120424F4D42455200424A
:1000E0004154544C453347414D4500555A45424FC4
:1000F00058334C495645004C4F43414C00555A45E6
:100100004E4554004E4554574F524B004F505449A2
:100110004F4E53004C454520574542455220323002
:10012000313100434F4E4E454354494E4700434FF3
:100130004E4E454354204641494C454400474554A2
:1001400054494E47204C4953540050494E47004EA5
:100150004F2047414D455320464F554E4400454D95
:10016000505459004241434B0051554954005245A7
:10017000465245534800424154544C452020534573
:100180005455500047414D4520545950450053495E
:100190004E474C45005445414D004D4154434800A5
:1001A000424C4F434B0054494D4500435055004D80
:1001B000414E0047484F5354004F4E20004F464693
:1001C00000315020003250200033502000345020A5
:1001D000004D415000384CC6C6C664380018381867
:1001E0001818187E007CC60E3C78E0FE007E0C18C5
:1001F0003C06C67C001C3C6CCCFE0C0C00FCC0FC1D
:100200000606C67C00386CC6C6FEC6C600FCC6C65E
:10021000FCC6C6FC003C66C0C0C0663C00F8CCC64C
:10022000C6C6CCF800FEC0C0FCC0C0FE00FEC0C008
:10023000FCC0C0C0003E60C0CEC6663C00C6C6C69C
:10024000FEC6C6C6007E18181818187E001E0C0CB4
:100250000C0C8C7800C6CCD8F0F8DCCE0060606066
:100260006060607E00C6EEFEFED6C6C600C6E6F63C
:10027000FEDECEC6007CC6C6C6C6C67C00FCC6C6B0
:10028000C6FCC0C0007CC6C6C6DECC7A00FCC6C6B2
:10029000CEF8DCCE0078CCC07C06C67C00FC3030CA
:1002A0003030303000C6C6C6C6C6C67C00C6C6C61C
:1002B000EE7C381000C6C6D6FEFEEEC600C6EE7C4A
:1002C000387CEEC6006666663C18181800FE0E1CE8
:1002D0003870E0FE002E2E2E2E2E372E2E2E2E2E95
:1002E0002E2E2E2E2E2E25372E252E372E2E2E2E2E
:1002F0002E2E2E2E2E2E2E2E2E372E2E2E37252E15
:100300002E2E2E2E252E2E2E2E2E2E372E2E2E3704
:100310002E2E252E2E372E2E2E372E2E2E2E2E2EF4
:100320002E2E2E2E37252E372E2E252E2E2E2E2EED
:10033000252E2E372E372E2E2E2E2E2E2E2E2E2ED4
:100340002E372E2E2E2E2E2E2E2E2E372E2E2E25C4
:100350002E372E2E2E2E2E2E2E2E372E2E252E2EB4
:10036000372E2E2E2E2E2E2E2E252E2E37372E3792
:100370002E2E372E2E2E2E2E2E2E2E2E2E2E2E2E94
:10038000372E2E252E2E372E2E2E372E2E2E2E2584
:10039000372E2E2E37372E2E2E2E2E2E372E2E3750
:1003A0002E2E2E2E2E2E2E2E2E2E372E252E252E76
:1003B0002E2E2E2E2E372E372E2E252E2E2E2E2E54
:1003C000372E2E2E372E2E2E2E2E2E2E2E2E2E3732
:1003D0002E2E372E2E0000000000000000002626E2
:1003E0002626262626002600000000000000260003
:1003F0002626262600001D0026262626000026008A
:100400002626262600001D00262626260000260079
:100410001D1D1D1D0000000000372E2E2E26262635
:1004200026002E2E370000002626002E2EFF002646
:10043000002626002EFF00261D00262600FF00268F
:100440001D00262600FF00261D0026260000001D98
:1004500000262600000026000000000000002626DE
:1004600026262626260000000000000000000A0ABA
:100470000A0A0A0A0A0014140A140A141400141DA1
:100480001414141D1400141D141D141D1400000058
:1004900000000000000000002626000A0026262694
:1004A00026000A0A00000000000A0A14000A0A0ACC
:1004B000000A0A14000A140A00140A002E14141464
:1004C0000014002E371D1D1400002E2E2E000000DB
:1004D000002E372E2E0505050505050505052F2FD0
:1004E0002F2F2F2F2F052F050505050505052F0596
:1004F0002F2F2F2F050527052F2F2F2F05052F0510
:100500002F2F2F2F050527052F2F2F2F05052F05FF
:10051000272727272705050505372E2E2E2F2F2FB6
:100520002F052E2E370505052F2F052E2E3F0505ED
:10053000052F2F052E3F052F05052F2F053F052FD2
:1005400027052F2F053F052F27052F2F05052727C7
:10055000052F2F0505052F050505050505052F2F79
:100560002F2F2F2F2F0505050505050505050D0D59
:100570000D0D0D0D0D0516160D160D16160516276B
:10058000161616271605162716271627160505050B
:1005900005050505050505052F2F050D052F2F2F31
:1005A0002F050D0D05050505050D0D16050D0D0D88
:1005B000050D0D16050D160D05160D052E16161634
:1005C0000516052E3727271605052E2E2E0505059F
:1005D000052E372E2E2E052E052E05052E2E2F2EFE
:1005E0002F2E2F2F2E052F3705050505052E2F053C
:1005F0002F2F2F2F050527052F2F2F2F05052F050F
:100600002F2F2F2F050527052F2F2F2F05052F05FE
:10061000272727272705052E05372E2E2E2F2F2E8D
:100620002F2E2E2E372505372F2E052E2E2E050583
:10063000052E2F372E3F052F27052E2F2E3F052F56
:1006400027052E2F2E3F052F27052F2F050527279E
:10065000052F2F0505052F050505050505052F2F78
:100660002F2F2F2F2F0505050505050505050D0D58
:100670000D0D0D0D0D0516270D160D161605162759
:10068000161616271605162716271627160505050A
:1006900005050505050505052F2F050D052F2F2F30
:1006A0002F050D0D05050505050D0D16050D0D0D87
:1006B000050D0D16050D160D05160D052E16271622
:1006C0000516052E3727271605052E2E2E0505059E
:1006D000052E372E2E2E2E2E2E2E372E2E2E2E2E51
:1006E0002E2E2E2E2E2E25372E252E372E2E2E2E2A
:1006F0002E2E2E2E2E2E2E2E2E372E3F2E0525055B
:100700002E2F0505252E272E2E2E2E2F052E2F05BA
:10071000272E27272E372E2E2E372E2E2E2E2E2EFC
:100720002E2E2E2E37252E372E2E252E2E2E2E2EE9
:10073000252E2E372E373F2E2E2E2E2E2E2E2E05E8
:1007400027052E2E2E2E2E272E052F3705052E2778
:1007500005372F0505052F2E0505050505052F2F46
:100760002F2E2F2F2F0505050505050505050D273E
:100770000D0D0D0D0D0516270D160D161605162758
:100780001616162716051627162716271605050509
:1007900005050505050505052F2E050D052F2F2F30
:1007A0002F050D1605050505050D0D16050D0D0D7D
:1007B000050D0D16050D160D05160D052E16271621
:1007C0000516052E3727271605052E2E2E0505059D
:1007D000052E372E2E2E2E2E2E2E372E2E2E2E2E50
:1007E0002E2E2E2E2E2E25372E252E372E372E2E20
:1007F0002E2E2E2E2E2E2E2E2E372E2E2E37252E10
:100800002E2E2E2E252E2E2E2E2E2E372E2E2E37FF
:100810002E2E252E2E372E2E2E372E2E2E2E2E2EEF
:100820002E2E2E2E37252E372E2E252E2E2E2E2EE8
:10083000252E2E3737372E2E2E2E2E2E2E2E2E2EC6
:100840002E372E2E2E2E2E2E2E2E2E372E2E2E25BF
:100850002E372E2E2E052E2E2E05372E05252F2E29
:10086000372E2E2E2E2E2E050525050537050D3784
:100870000D2E370D2E2E162E0D162E16160516279A
:100880001616162716051627162716271605050508
:100890000505050505372E052E2E2E2E372E2F3752
:1008A0002E2E2E2E05052E052E0D3716050D0D0D9F
:1008B000050D2E16050D163705160D052E161616E6
:1008C0000516052E3727271605052E2E2E0505059C
:1008D000052E372E2E2E2E2E2E2E372E2E2E2E2E4F
:1008E0002E2E2E2E2E2E25372E252E372E372E2E1F
:1008F0002E2E2E2E2E2E2E2E2E372E2E2E37252E0F
:100900002E2E2E2E252E2E2E2E2E2E372E2E2E37FE
:10091000372E252E2E372E2E2E372E2E2E2E2E2EE5
:100920002E2E2E2E37252E372E2E252E2E2E2E2EE7
:10093000252E2E3737372E2E2E2E2E2E2E2E2E2EC5
:100940002E37372E2E2E2E2E2E2E2E372E2E2E25B5
:100950002E372E2E2E2E2E2E2E2E372E2E252E2EAE
:10096000372E2E2E2E2E2E2E2E252E2E37372E378C
:100970002E2E372E2E2E2E2E2E2E2E162E052E27D6
:10098000372E2E25162E372E1627162E16052E0537
:1009900037052E0505372E2E2E2E2E2E372E2E37CE
:1009A0002E2E2E2E2E2E2E2E2E2E372E252E252E70
:1009B0002E2E2E16050D2E37052E25052E2E16163B
:1009C000052E052E37272E162E2E2E2E2E2E050501
:1009D0002E2E372E2E0909090909090909091B09B3
:1009E00065651B656509651B09091B1B1B09651BE3
:1009F0001B1B09096509651B651B651309091B1B81
:100A0000651B65130909651B651B65090909651BDC
:100A10001B1B650913090909090909090965651BF2
:100A200065650909091B1B1B0909091B09650909DA
:100A30000909091B0909091B091B091B0909091BCC
:100A4000091B09090909091B091B091B0913091BB2
:100A50000909091B0909651B651B091313091B1BE0
:100A6000651B09090909651B650909131309651B3C
:100A700009130913130965090909090909091B095A
:100A80001313131309090909131313130909090986
:100A90000909090909131309091B091B090909098E
:100AA000091B0909091313090964091B091313090F
:100AB0001309091B090909090909091B091313135A
:100AC0001309091309131313130913090909090950
:100AD00009090909092E2E2E2E0F1F37372E2E2E0B
:100AE0000F0F1F37372E250F2E0F1F1F372E2E2EBD
:100AF0000F0F1F37372E0F2E0F0F1F1F3737252EC3
:100B00000F0F0F1F372E2E2E2E0F0F1F372E2E0FCB
:100B10002E0F0F1F37371F0F0F372E2E2E37370F81
:100B20002E2E2E2E3737370F2E0F252E2E37370F1E
:100B30000F2E2E372E371F0F2E0F2E2E2E1F1F0F6C
:100B40002E372E2E2E371F0F2E0F2E372E371F0F1C
:100B50002E372E2E2E2E2E2E2E0F1F1F37252E2EE9
:100B6000370F1F37372E2E0F2E0F1F3737372E37E1
:100B70002E0F1F37372E2E2E2E0F0F1F372E0F2E14
:100B8000372E0F1F372E372E2E2E0F1F372E2E25C6
:100B9000370F1F1F37371F0F2E2E2E2E37371F0FE1
:100BA0002E2E2E2E2E370F0F2E2E372E25370F2EB0
:100BB0002E2E2E2E2E370F372E0F252E2E370F0FBF
:100BC000372E2E2E37371F0F2E2E2E2E2E371F0F7D
:100BD0002E2E372E2E2E2E2E2E2E372E2E2E2E2E23
:100BE0002E2E2E2E2E2E25372E252E372E2E2E2E25
:100BF0000F2E2E0F2E0F2E0F0F0F0F0F0F0F0F0F89
:100C00000F1F1F1F0F1F1F1F1F1F371F1F37371FCC
:100C1000373737371F372E2E2E372E2E2E2E2E2ECD
:100C20002E2E2E2E37252E372E2E252E2E2E2E0F03
:100C3000252E2E372E370F2E2E0F2E2E0F0F0F0F85
:100C40000F0F0F0F0F1F1F1F1F1F1F0F0F1F1F370C
:100C50003737371F1F3737373737373737371F1F84
:100C60001F3737371F1F1F1F1F1F1F1F1F0F0F0F7C
:100C70000F0F0F0F0F0F2E2E2E0F0F2E2E2E2E0FAB
:100C8000372E2E250F2E372E2E2E372E2E2E2E259A
:100C9000372E2E2E371F3737373737371F1F1F1F77
:100CA0001F1F1F1F0F0F0F0F0F0F0F0F0F0F0F2EF5
:100CB0000F0F0F2E2E372E372E2E252E2E2E2E2EA8
:100CC000372E2E2E372E2E2E2E2E2E2E2E2E2E3729
:100CD0002E2E372E2E2E2E2E0F0F1F37372E0F2E85
:100CE0002E0F1F37372E25370F0F1F37372E2E0F9A
:100CF0000F1F1F37370F0F0F1F1F37371F0F0F1F04
:100D00001F37371F1F37371F1F371F1F373737371B
:100D100037371F373737371F0F0F2E2E2E37371F16
:100D20000F0F2E0F373737371F0F252E0F37373757
:100D30001F0F0F372E1F3737371F1F0F0F1F1F377C
:100D400037371F1F1F37373737371F1F1FBF37373B
:100D50003737373737373737371F3737BF373737B3
:100D6000371F3737BF1F371F37371F37370F0F1F53
:100D70001F1F3737372E0F0F0F1F1F37372E2E2EFF
:100D80000F1F1F1F1F2E372E2E0F1F37372E0F2519
:100D9000370F1F3737BFBF37371F373737BFBF371B
:100DA000371F373737BF3737371F371F1F373737AB
:100DB0001F1F1F1F1F37371F1F1F0F0F0F37371F13
:100DC0001F0F0F0F3737371F0F0F2E2E2E37371FDE
:100DD0000F2E370F2E2E2E2E2E2E372E2E2E2E2E5F
:100DE0002E2E2E2E0F2E25372E252E372E2E2E2E42
:100DF0002E2E2E0F0F2E2E2E2E370F0F1F37252E95
:100E00002E2E2E0F1F2E2E2E2E2E2E1F1F2E2E3745
:100E10000F2E0F1F37372E2E2E372E2E2E2E0F2E43
:100E20002E2E2E2E37252E372E2E252E2E1F0F0F2F
:100E3000252E2E372E1F1F0F0F2E0F2E2E37370F5A
:100E40000F372E2E2E37371F0F2E2E372E37371FE8
:100E50000F372E2E2E2E2E2E2E2E0F1F37252E2EF6
:100E6000372E0F1F372E2E2E2E250F0F1F372E3702
:100E70002E2E370F1F2E2E2E2E0F2E0F372E2E2EEC
:100E8000372E0F0F372E372E0F2E0F1F372E2E25F2
:100E9000372E0F1F1F37371F0F2E2E0F3737370FE5
:100EA0000F0F2E2E2E1F370F0F0F372E2537370F10
:100EB0000F2E2E2E2E37370F0F2E250F2E37371FC2
:100EC0000F2E2E2E371F371F0F2E0F2E2E37371FA8
:100ED0000F2E372E2E2E2E0F2E0F1F37372E2E2E83
:100EE0000F0F1F37372E25372E0F1F37372E2E0F98
:100EF0002E0F1F37372E2E2E2E0F1F1F3737252E62
:100F00002E0F0F1F372E2E2E0F0F0F1F372E2E379F
:100F10002E0F1F1F371F0F2E2E372E2E2E1F0F0F97
:100F20002E2E2E2E371F0F372E2E252E2E1F0F2E34
:100F3000252E2E372E1F0F2E0F2E2E2E2E1F0F0F6B
:100F40002E372E2E2E1F0F2E2E2E2E372E1F0F2514
:100F50002E372E2E2E2E2E2E2E0F1F3737252E2ECD
:100F6000370F0F1F372E2E0F2E250F1F1F372E372F
:100F70002E2E0F0F0F2E2E2E2E2E2E2E2E2E2E2EEE
:100F8000372E2E250F2E372E2E2E370F2E2E2E25B6
:100F9000372E2E2E37371F0F2E2E2E2E371F1F0FB8
:100FA0002E0F2E2E2E1F0F0F2E2E372E250F0F2E0B
:100FB0002E2E2E2E2E372E372E2E252E2E2E2E0F67
:100FC000372E2E2E372E2E2E2E2E2E2E2E2E2E3726
:100FD0002E2E372E2E2E2E2E2E2E372E2E2E2E2E1F
:100FE0002E2E2E2E2E2E25372E252E372E2E2E2E21
:100FF0002E2E2E2E2E2E2E2E2E370F2E2E37252E27
:101000002E2E2E0F0F2E2E2E2E0F0F0F1F2E2E37A1
:101010002E0F1F1F37372E2E2E372E2E2E2E2E2E12
:101020002E2E2E2E37252E372E2E252E2E0F2E0F1E
:10103000252E0F372E0F0F2E2E0F2E0F2E0F0F0FC8
:101040000F0F0F0F0F1F1F1F0F0F0F1F1F373737E8
:101050001F1F1F1F1F2E2E2E0F0F1F3737252E2E3F
:10106000370F1F1F372E2E2E2E0F0F1F1F372E3715
:101070000F2E0F0F0F2E2E2E2E2E2E0F2E2E2E2E2B
:10108000372E2E252E2E372E2E2E372E2E2E2E2577
:10109000372E2E2E373737373737373737373737FB
:1010A0001F1F1F1F1F0F1F1F0F0F0F0F0F0F0F0FE0
:1010B0002E2E0F2E0F0F2E372E2E250F2E2E2E2ECC
:1010C000372E2E2E372E2E2E2E2E2E2E2E2E2E3725
:1010D0002E2E372E2E2E2E2E2E2E372E2E2E2E2E1E
:1010E0002E2E2E2E2E2E25372E250F372E0F2E2E5E
:1010F0000F2E2E2E2E2E2E0F0F0F0F0F0F0F0F0F46
:101100001F1F1F1F1F0F1F1F1F1F3737371F373787
:101110003737373737372E2E2E372E2E2E2E2E2EB0
:101120002E2E2E2E37252E372E2E252E2E2E0F2EFE
:10113000252E2E372E0F0F2E2E2E2E2E2E0F0F0F6A
:101140002E372E2E2E371F1F0F2E2E372E37371FDE
:101150000F372E2E2E373737373737371F1F1F1FC2
:101160000F0F1F1F0F0F0F0F0F0F0F0F0F0F0F0F6F
:101170002E0F372E2E2E2E0F2E2E2E0F2E2E2E2EE3
:10118000372E2E252E2E372E2E2E372E2E2E2E2576
:10119000372E2E2E371F1F0F0F2E2E2E370F0F0F0D
:1011A0002E2E2E2E2E0F2E2E2E2E372E252E252E87
:1011B0002E2E2E2E2E372E372E2E252E2E2E2E2E46
:1011C000372E2E2E372E2E2E2E2E2E2E2E2E2E3724
:1011D0002E2E372E2E2E2E2E0F1F1F37BF2E2E0FE8
:1011E0000F0F1F37372E0F370F0F1F1F372E2E0FE2
:1011F0000F0F1F37BF0F2E0F0F0F1F37BF37250FD2
:101200000F0F1F37BF2E2E2E0F0F3737BF2E0F3762
:101210000F1F373737BF371F1F0F0F2E2E373737A8
:101220001F0F2E2E37BF37371F0F250F2EBF373713
:101230001F0F0F372EBF371F1F0F2E0F2E371F1FE9
:101240001F0F2E2E2E37371F1F0F2E0F2EBF373793
:101250001F0F2E2E2E2E2E2E0F0F1F1FBF252E2EB0
:101260000F0F1F37BF2E0F2E0F0F1F37BF372E3711
:101270002E0F3737BF2E2E2E0F0F3737BF2E2E2EA5
:10128000370F3737BF2E372E2E0F1F37372E2E250D
:101290000F0F1F371FBF37371F0F2E2E37BF3737A0
:1012A0001F0F2E2E2EBF371F1F0F372E25BF371FA4
:1012B0000F2E2E2E2EBF371F0F2E252E2E37371F07
:1012C0001F2E2E2E373737371F0F2E2E2EBF3737B4
:1012D0001F0F372E2E2E2E2E2E2E372E2E2E2E2E4A
:1012E0000F2E2E0F2E0F250F0F0F0F0F0F0F0F0F9B
:1012F0000F1F1F0F0F1F1F0F0F1F1F1F1F371F1F36
:101300001F1F37371F3737373737373737BFBF37A5
:1013100037BFBFBFBF372E2E2E372E2E2E2E2E2E8E
:101320002E2E2E2E37252E0F2E2E250F2E2E0F2E43
:10133000250F2E370F0F0F0F0F0F0F0F1F1F1F1F20
:101340001F1F373737371F1F373737BFBF3737377D
:10135000BFBFBFBFBFBF3737BFBFBFBF37371F37E5
:1013600037373737371F1F1F37373737371F1F1F9D
:101370001F1F0F0F0F0F0F0F0F0F0F0F0F0F2E2E1F
:101380000F0F0F252E2E370F2E2E372E0F2E2E2518
:10139000372E2E2E37373737BFBFBFBF37371F37F0
:1013A00037BFBF37371F1F1F37373737370F1F1F5D
:1013B0001F1F1F1F0F0F0F372E0F0F0F2E2E2E2E3A
:1013C000372E2E2E372E2E2E2E0F2E2E2E2E2E3741
:1013D0002E2E372E2E2E2E2E0F0F1F37BF2E0F0F15
:1013E0000F1F1F37BF2E0F0F1F1F1F37370F0F1F66
:1013F0001F373737370F1F1F1F3737BFBF373737F5
:101400001F373737BF373737373737BFBFBFBFBF54
:101410003737BFBF37BFBF371F0F0F2E2EBFBF37A6
:101420001F0F0F0F373737371F0F0F0F0F37373794
:101430001F1F0F0F0FBFBF37371F1F1F1FBFBF3724
:1014400037371F1F37BFBFBF37371F3737BFBFBF44
:1014500037373737BFBFBF373737BFBF3737373774
:101460003737BFBF371F1F37373737BFBF1F1F1F64
:101470001F373737BF0F0F1F1F373737372E0F0F65
:101480001F1F3737372E370F0F1F3737BF0F2E2548
:101490000F1F1F37BF37BFBF37373737BF37BFBF04
:1014A00037BF373737BFBFBF37BF37371FBFBF372C
:1014B000BF37371F1F37373737371F1F0F373737BC
:1014C000371F1F0F0FBF371F1F1F0F0F2EBF371FD5
:1014D0001F0F0F2E0F2E2E2E2E2E372E2E2E2E2E8F
:1014E0002E2E2E2E2E2E25372E252E0F2E2E2E2E44
:1014F0002E2E2E2E2E2E2E2E2E370F0F1F37252E50
:101500000F2E0F1F1F2E2E2E2E0F0F1F372E2E3792
:101510002E0F1F1F37372E2E2E372E2E2E2E2E2E0D
:101520002E2E2E2E37250F372E2E252E2E2E2E2EFA
:10153000252E2E372E1F0F0F2E2E2E2E2E1F1F0F55
:101540000F372E0F2E37371F0F0F2E372EBF371F97
:101550001F0F2E2E2E2E2E0F2E0F0F1F37252E2E45
:10156000370F0F1F372E2E2E2E0F0F1F1F372E3720
:101570002E2E0F1F1F2E2E2E0F2E0F1F372E2E2E0C
:10158000370F0F1F372E370F2E0F0F1F372E2E2519
:10159000370F0F1F1FBFBF1F1F0F2E2E0F37371FF5
:1015A0001F0F0F2E2E1FBF371F0F0F2E2537BF37D0
:1015B0001F0F2E2E2EBFBF371F0F252E0FBF371F19
:1015C0001F0F2E2E371F371F0F0F2E0F2E373737B7
:1015D0000F0F372E2E2E0F2E0F0F1F1FBF2E2E0F69
:1015E0000F1F1F37BF2E25370F1F3737BF2E0F2E68
:1015F0000F1F3737BF2E2E2E0F1F3737BF37252E21
:101600000F1F1F37BF2E2E0F0F1F1F1F372E2E37F6
:101610000F0F1F1F3737371F0F372E2E2E37371F4D
:101620000F0F2E2E37371F1F0F2E252E2E371F1F61
:101630000F2E2E372E1F1F1F0F2E0F2E2E371F1F60
:101640000F0F2E2E2E37371F0F2E2E372E37371F08
:101650000F372E2E2E2E2E2E0F0F1F3737252E2E04
:10166000370F1F1F372E0F2E2E0F0F1F1F372E372E
:101670002E2E0F0F0F2E2E2E2E0F2E2E2E2E2E2E06
:10168000372E2E250F2E372E2E2E370F2E2E2E25AF
:10169000372E2E2E37BF371F0F0F2E2E37371F1F17
:1016A0000F0F2E0F2E1F1F0F0F2E372E250F0F0F70
:1016B0002E0F2E2E2E372E372E2E252E2E2E2E0F7F
:1016C000372E2E2E372E2E2E2E2E2E2E2E2E2E371F
:1016D0002E2E372E2E2E2E2E2E2E372E2E2E2E2E18
:1016E0002E2E2E2E2E2E25372E252E372E2E2E2E1A
:1016F0002E2E2E0F2E2E2E2E2E372E0F0F37252E5E
:101700000F2E0F0F0F2E2E2E2E0F0F1F1F2E2E37C8
:101710002E0F1F1F37372E2E2E372E2E2E2E2E2E0B
:101720002E2E2E2E370F2E372E2E252E2E2E2E0F0E
:101730000F2E0F370F0F0F0F0F0F0F0F0F1F1F1F42
:101740001F1F1F1F1F3737371F1F373737373737D1
:10175000BFBFBF37372E2E2E2E0F1F3737252E2E09
:101760000F0F1F37372E2E2E2E0F1F3737372E37DE
:101770002E0F0F1F372E2E2E0F2E0F0F1F2E2E2E39
:10178000372E2E0F0F2E372E2E2E0F2E2E2E2E25CD
:10179000372E2E2E37BFBFBF3737BFBF3737BFBF3C
:1017A00037373737373737BF37371F1F1F371F1FB9
:1017B0001F1F0F0F0F0F0F0F0F0F0F0F0F0F0F2EFA
:1017C000370F2E0F372E2E0F2E2E0F2E2E2E2E379A
:1017D0002E2E372E2E2E2E2E2E2E372E2E0F2E2E36
:1017E0002E2E0F2E2E2E25370F252E372E0F0F0FB4
:1017F0000F0F0F0F0F0F1F1F1F1F1F0F0F1F373749
:1018000037371F1F1F3737373737373737BF373728
:10181000BFBFBFBF37372E2E2E372E2E2E2E0F2EA8
:101820002E2E2E2E370F2E370F2E252E2E0F0F0F6A
:10183000252E2E372E1F0F0F0F2E2E2E2E371F1F49
:101840000F372E2E2E37371F0F2E2E372E37371FDE
:101850000F372E2E2EBF1F373737373737371F3703
:101860003737371F1F1F1F1F1F1F1F1F0F0F1F0F70
:101870000F0F0F0F0F0F0F0F2E0F2E2E2E2E2E0FBE
:10188000372E2E0F2E2E372E2E2E372E2E2E2E2585
:10189000372E2E2E371F1F0F0F2E2E2E371F0F0FF6
:1018A0002E2E2E2E2E0F0F2E0F2E372E250F252EDD
:1018B0002E2E2E2E2E0F2E372E2E252E2E2E2E2E67
:1018C000372E2E2E372E2E2E2E2E2E2E2E2E2E371D
:1018D0002E2E372E2E2E2E0F1F1F1F37BF2E2E0FF0
:1018E0001F1F3737FF2E250F1F37BFBFFF2E2E0FAD
:1018F0001F37BFFFFF2E2E0F1F37BFBFBF0F250F94
:101900001F37BFBFBF2E2E0F1F37371F372E2E3763
:101910000F1F1F3737FFFFBF371F0F0F2EFFFFBFF0
:10192000371F0F0F37FFFFBF370F0F0F2EFFFF3788
:10193000371F0F0F2EBF37371F1F0F2E2E3737378A
:101940001F1F0F2E0FBFBFBF371F0F372EBFFFBF89
:10195000371F0F2E2E2E2E2E0F0F3737BF252E0F8F
:101960000F0F37BFBF2E2E0F0F1FBFFFFF372E37B2
:101970000F1FBFFFFF2E2E0F0F1FBFBFBF2E2E2E1C
:101980000F1F3737372E0F2E0F1F37BFBF2E2E25B5
:101990000F1F3737BFFFFFBF370F2E2E37FFFFBF99
:1019A000370F0F2E2EFFBFBF370F0F2E25FFBF376C
:1019B000370F2E2E2EBF37371F0F252E2E37371FEE
:1019C0001F0F0F2E37BF3737370F2E2E2EBFBF37C3
:1019D000370F372E2E2E0F2E2E0F372E2E2E0F0FA7
:1019E0000F2E2E0F2E0F0F1F1F0F0F0F0F0F0F1F7A
:1019F0001F1F1F1F1F1F1F373737371F1F37BFBF3F
:101A0000BFBFBF3737BFBFBFFFFFFFBF37FFFFFFFE
:101A1000FFFFFFFFFF372E2E2E372E2E2E2E2E2EBF
:101A20002E2E0F2E370F2E0F0F0F252E0F0F0F0FED
:101A30000F0F0F0F0F1F1F1F1F1F1F1F1F1F3737D6
:101A400037BFBFBFBF37BFBFFFFFFFBFBFFFFFFF36
:101A5000FFFFFFFFBFFFFFFFFFFFFFFFBFBFBFBFD6
:101A6000FFFFFFFF373737BFBFBFBF3737371F37DE
:101A70003737371F1F1F1F1F1F1F1F0F0F0F0F0F7E
:101A80000F0F0F0F0F0F0F2E0F2E0F0F2E2E0F25D4
:101A9000372E2E2E37FFFFFFFFFFFFFFBFBFBFFF19
:101AA000FFFFBFBFBF37BFBFBFBFBFBF373737376E
:101AB000373737371F0F0F0F0F0F0F0F0F2E2E0F48
:101AC000372E2E0F370F2E2E2E0F2E2E0F2E2E3797
:101AD0002E2E372E2E2E2E0F1F37BFBFBF2E0F0FCD
:101AE0001F37BFBFBF0F0F1F3737BFBF371F1F378E
:101AF00037BFBFBFBF1F3737BFBFFFFFFF1F37371E
:101B0000BFFFFFFFFF37BF37BFFFFFFFFFBFFFBFB5
:101B1000BFFFBFFFFFBFBF37371F0F0F2EBF3737C6
:101B2000371F0F0F0F373737371F1F0F0FBFBFBFBD
:101B300037371F1F1FFFBFBFBF3737371FFFFFBF1D
:101B4000BFBF373737FFFFFFFFBFBF37BFFFFFFF05
:101B5000FFBFBF37BFFFFFBFBFFFBFBFFFFFBFBF9D
:101B6000BFBFFFBFBFBFBFBF37BFFFFFFF373737A5
:101B700037BFBFBFFF1F37373737BFBFBF0F0F1F7D
:101B800037373737BF2E0F0F1F373737372E2E0F08
:101B90001F1F1F1FBFFFFFFFFFBFBFBFFFBFFFFF15
:101BA000FFBFBFBFBFFFFFBFBFBFBFBFBFFFFFBF05
:101BB000BF37373737BFBFBF37371F1F1FBFBF37CD
:101BC00037371F0F0F37BFBF37371F0F0FBFFFBF8D
:101BD00037371F0F2E2E0F2E2E2E372E2E2E2E2E57
:101BE0000F2E2E0F2E2E25372E0F0F0F0F2E2E0FEE
:101BF0000F0F1F1F372E2E2E0F1F1F3737370F2E99
:101C00000F1F3737BF2E2E2E0F1F37BFFF2E2E0F61
:101C10000F1F37FFFF372E2E2E370F2E2E2E2E0F93
:101C20002E2E2E2E370F0F0F2E0F252E0F1F371F84
:101C30000F2E2E372E3737370F0F2E0F2EBFBF37F1
:101C40001F0F0F2E2EFFBF371F0F0F372EFFFF372F
:101C5000371F0F0F2E2E2E0F0F0F1FBFFF252E2EFB
:101C60000F1F37BFFF2E2E0F0F1F3737BF372E0F17
:101C70000F1F1F1F372E2E2E0F1F1F37FF2E2E2E2A
:101C80000F1F37BFFF2E370F0F1F37BFFF2E2E2519
:101C90000F1F37BFBFFFFFBF371F0F2E37FFFFBF1D
:101CA000371F0F0F2EBFBFBF371F0F0F25BFBFBF7F
:101CB000371F0F2E2EFFFFBF371F0F2E0FFFFFBF47
:101CC0001F1F0F2E37FFBF371F1F0F2E2E37371F37
:101CD0001F1F0F2E0F2E2E0F1F1F1F37FF2E0F0F30
:101CE0001F1F37BFFF2E250F1F3737BFFF2E2E0FA9
:101CF0001F3737BFFF2E2E0F1F1F3737BF37250F58
:101D00000F1F3737372E2E0F0F1F1F1F1F2E2E3777
:101D10000F1F1F3737FFBF371F0F0F2E2EFFFF3745
:101D20001F0F2E2E37FFFF371F0F252E2EFFBF1F31
:101D30001F0F2E372EBFBF1F0F0F2E2E2EBFBF1F00
:101D40000F0F2E2E2EFFBF371F0F2E372EFF3737C8
:101D50001F0F2E2E2E2E2E2E0F1F37BFFF250F2EBC
:101D60000F1F37BFFF2E2E2E0F0F1F37BF372E37F7
:101D70002E0F1F1F372E2E0F2E2E0F0F1F2E2E2E23
:101D8000372E2E0F0F2E372E0F2E372E2E2E2E25BE
:101D9000372E2E2E37FFBF371F0F0F2E0FBFBF3727
:101DA0001F0F2E2E2EBF37371F0F372E2537371F09
:101DB0000F0F0F2E2E1F1F1F0F2E252E2E0F0F0F52
:101DC000370F0F2E372E2E2E2E2E2E2E2E2E0F3775
:101DD0002E2E372E2E2E2E2E2E0F372E2E2E2E2E30
:101DE0002E2E2E2E0F2E25372E0F2E0F0F2E2E0FAE
:101DF0002E0F0F0F0F2E2E2E0F0F1F1F370F250F19
:101E00001F1F3737BF2E0F0F1F3737BFFF2E0F0F84
:101E10001F37BFFFFF372E2E2E372E2E2E2E2E2EA3
:101E20000F2E2E2E0F250F372E0F250F2E0F0F0FD3
:101E30000F0F0F0F0F0F1F1F1F1F1F1F1F373737CA
:101E40001F37373737BF37BFBFBFBFBF37FFBFFFF2
:101E5000FFFFFFBFBF0F0F0F1F37BFFFFF250F0F84
:101E60001F3737BFBF2E0F0F1F1F37371F372E37B4
:101E70000F1F1F1F1F2E2E0F2E0F0F0F0F2E2E2E78
:101E8000370F2E250F2E372E2E2E0F2E2E2E2E25CF
:101E9000372E2E2E37BFBFBFFFFFFFBFBFBF37BFDD
:101EA000BFBFBF37BF3737373737373737373737A2
:101EB000371F1F1F371F1F1F0F0F0F1F1F0F0F0F62
:101EC0000F0F0F0F0F2E2E2E2E2E2E0F2E2E0F3702
:101ED0002E2E0F2E2E2E2E2E2E2E372E2E2E2E0F57
:101EE0002E2E0F2E2E0F0F0F0F0F0F0F0F1F1F1F56
:101EF0001F1F1F1F0F37371F1F1F37373737373742
:101F0000BFBFFFBF3737BFBFBFBFFFFF37BFBFFF79
:101F1000FFBFFFFFBF372E2E2E372E2E2E2E0F2E59
:101F20000F2E2E2E370F0F0F2E2E252E2E1F1F0F8A
:101F30000F2E2E372E371F1F0F0F2E2E2E3737370F
:101F40001F0F2E0F2EBFBF37371F0F372EFFBFBFFC
:101F5000371F0F2E2E37BFFFFFBFBFBFBF37BFFFDB
:101F6000FFBF37373737373737371F1F371F1F1F29
:101F70001F0F0F1F1F0F0F0F0F0F0F0F0F2E0F2E03
:101F80000F2E0F252E2E372E2E2E370F2E2E2E25CE
:101F9000372E2E2E37FFFFBF371F0F2E37BFBF370D
:101FA000371F0F2E2E3737371F1F0F2E25371F1FB6
:101FB0001F0F2E2E2E0F0F0F0F0F250F2E0F0F0F8F
:101FC000372E2E2E372E0F2E2E2E2E2E2E2E2E0F5D
:101FD0002E2E372E2E2E2E2E2E2E372E2E2E2E2E0F
:101FE0002E2E2E2E2E2E25372E252E01012E2E2E74
:101FF0002E010149492E2E2E019292920137250180
:1020000092A3ED01A32E2E0192EDFF01ED2E0149C9
:1020100092EDA301A3372E2E2E371E2E2E2E2E2EFE
:102020002E1E2F1E37012E372E1E2F1E2E010101B0
:1020300001661E372EA3A301665D012E2EFF0166E9
:102040005D012E2E2EEDED0101012E372EEDA3A305
:102050009201012E2E2E0149929292920125014960
:1020600049929292492E01494949494949372E01DD
:1020700049494949492E2E0149494949492E2E2E9F
:1020800001494949492E372E2E010149492E2E2555
:10209000372E2E0101A3A3920149012E3701010120
:1020A0004949012E2E4949494949012E25494949A5
:1020B00049012E2E2E4949494901252E2E494949CB
:1020C000012E2E2E374901012E2E2E2E2E012E37B7
:1020D0002E2E372E2E2E2E2E2E2E372E2E2E2E2E0E
:1020E0002E2E2E01012E25372E010149492E2E2E8E
:1020F00001499292492E2E0149A3EDA301372501F2
:10210000A3FFFFED012E0192A3FFFFA3012E019279
:1021100092A3A39292372E2E2E372E0E2E01012E31
:102120002E2E0E1E0E49010101010E2F0E01A3A33A
:1021300001665D0E2EA3FF01665D012E2EEDEDED15
:102140000101012E2EA3EDA3A39201012E01A3A351
:10215000920149012E2E01499292929292250149B3
:1021600049929292492E01494949494949372E01DC
:1021700049494949492E2E0149494949492E2E2E9E
:1021800001494949492E372E2E010149492E2E2554
:10219000372E2E01014901010149490137494949B9
:1021A000494949012E49494949494901254949496E
:1021B0004949012E2E4949494949012E2E4949498B
:1021C00049012E2E37494901012E2E2E2E010137AD
:1021D0002E2E372E2E2E2E2E2E2E0101012E2E2E9D
:1021E00001014992922E250149A3EDA3922E0149A6
:1021F000A3FFFFED922E0192A3FFFFA3920149924C
:10220000A3EDED929201929292A3A39292019292E7
:1022100092929292920101012E372E011E4949019C
:10222000010101662F9201A3A301665D0101A3FFD5
:1022300001665D012E01EDEDED0101012E01A3ED21
:10224000A3A39201019201A3A39201490192490122
:1022500001014949010149929292929292014949A0
:10226000929292924901494949494949493701495C
:1022700049494949492E014949494949492E2E01AF
:1022800049494949492E372E01014949492E2E25F0
:10229000372E0101014949494949494901494949FB
:1022A000494949490149494949494949014949492E
:1022B000494949012E494949494949012E49494954
:1022C0004949012E3749494901012E2E2E010101AC
:1022D0002E2E372E2E0707070707070707076969FE
:1022E000696969000307696969696900A307696920
:1022F000696900373707696969696900D8076969D9
:10230000696900373707696900000000D80769006C
:1023100011ECFFFFEC070707070707070703030395
:102320000303006907FFECA3D8110069071F0FA37F
:10233000D811006907D8D8A3D8110069071F0FA3C7
:10234000D811006907D8D8A3D811006907ECECA30D
:10235000D811006907070011ECFFECECEC0700D87E
:10236000EC0000A3A3070011003737001107690034
:10237000375A1137000769003711111F00076969C3
:1023800000371F0069076969690000696907070765
:102390000707070707ECA3D8D8D8110007D8D8003B
:1023A0000011110007110037370011000700375ADC
:1023B0001137000007003711111F00690769003746
:1023C0001F006969076969000069696907070707EC
:1023D00007070707070707070707070707076969C9
:1023E0006969696903076969696969031F07696937
:1023F0006903031F37076969031FFFFF3707690375
:102400001FFFFF3737076903FF3700FF3707031F39
:10241000373700FF3707070707070707076969030B
:10242000696903690703033703031F03070337378A
:1024300003371F030737373737371F0307FF373790
:1024400037371F030700FF3737371F030700FF37F2
:1024500037371F0307070337373700FF37070337BF
:1024600037FF37373707031F370300000007031F05
:102470003737030F0F0769031F37370303076969EE
:1024800003033737370769696969030303070707D8
:10249000070707070700FF3737371F0307373737A7
:1024A00037371F0307000037371F036907001F373F
:1024B000371F0369071F37371F03696907371F0372
:1024C0000369696907030369696969690707070798
:1024D00007070707070707070707070707076969C8
:1024E00069690000000769690000001111076900AF
:1024F00000115A5A0007690011ECFFA300070011F0
:102500005AFFECA30007005AA3ECA35A1107005A84
:102510005AA35A5A5A070707070707070700000078
:102520006900006907005A1100FF0F0007A3FF00B0
:10253000FFA3006907FFEC000000006907A3A35A8E
:102540001111000007005A111100000007110000CE
:10255000000000000707005A5A5A5A5A5A07001139
:102560005A5A5A5A5A070000115A5A5A1107690002
:10257000001111111107690000001111110769699B
:10258000000000000007696969690000000707078B
:1025900007070707075A1111110000000711111151
:1025A00000000000071111110000000007111100C8
:1025B000000000690700000000000069070000003B
:1025C0000000696907000000696969690707070772
:1025D0000707070707070707070707070707690030
:1025E0000000006900070000FFA30000FF0700A330
:1025F000ECA35A000007005AA35A5A0037070000FC
:102600005A5A000037076900000000371F07691F8A
:1026100037373703000007070707070707FF006979
:102620006969696907006969696969690769691F91
:1026300069696969076937696969696907371F697C
:102640001F37690007373737376900AE0700031FA8
:102650006900AEFF0707696937370303FF071F37B4
:102660003737000F370769693737000F0F076937AA
:10267000371F37000F071F1F69693769000769692E
:1026800069691F696907696969696969690707078C
:102690000707070707370F0000AEFFFF0737370FA1
:1026A00000FFFFFF0737371F0F5AFFA3070F1F1F3A
:1026B0000F03A300070F0F0F1F0F00690700030F81
:1026C0000F03006907690000000069690707070731
:1026D00007070707070606060606060606066969CF
:1026E0006969691111066969691111ECFF06696967
:1026F00011A3FFFFFF066911A3FFFFFFFF0669009B
:10270000A30000ECFF0600A300000000FF0600A3EA
:1027100000000F00FF0606060606060606111169F0
:102720006969696906FFEC111169696906FFFFFFB4
:10273000A311696906FFFFFFFFA3116906FFEC0003
:1027400000A3006906FF00000000A30006FF000FC1
:102750000000A300060600A3110000AEA30600A31C
:10276000FFFFFFFF0006690000ECFFA30006696998
:1027700000FFFFFFFF06696900FF00FF00066969AF
:1027800000A300A300066969000000000006060619
:102790000606060606A3AE000011A3000600FFFF12
:1027A000FFFFA3000600A3FFEC00006906FFFFFF88
:1027B000FF0069690600FF00FF0069690600A300C9
:1027C000A3006969060000000000696906060606A4
:1027D00006060606062E2E2E2E2E0A0A0A2E2E2E4D
:1027E0000A0A0A0A0A2E250A0A0A0A25252E0A0AB0
:1027F0000A252525252E0A0A2525251C1C0A0A0A34
:1028000025251C1C1C0A0A25251C1C1C130A0A252C
:10281000251C1C13130A0A0A2E372E2E2E0A0A0A0A
:102820000A0A2E2E3725250A0A0A0A2E2E252525C4
:10283000250A0A0A2E1C1C2525250A0A2E1C1C1CEA
:1028400025250A0A0A131C1C1C25250A0A13131C19
:102850001C25250A0A0A0A25251C1C13130A0A2509
:10286000251C1C1C130A0A0A25251C1C1C370A0AD5
:102870002525251C1C2E0A0A0A252525252E2E0A6B
:102880000A0A0A25252E372E0A0A0A0A0A2E2E259A
:10289000372E0A0A0A13131C1C25250A0A131C1CAE
:1028A0001C25250A0A1C1C1C2525250A0A1C1C257A
:1028B00025250A0A2E252525250A0A0A2E25250A58
:1028C0000A0A0A2E370A0A0A0A0A2E2E2E0A0A0AAB
:1028D0002E2E372E2E2E2E2E2E2E1313132E2E2E60
:1028E00013131313132E25131313130A0A2E131382
:1028F000130A0A0A0A2E13130A0A0A2525131313A8
:102900000A0A25252513130A0A2525251C13130A4F
:102910000A25251C1C1313132E372E2E2E131313CA
:1029200013132E2E370A0A131313132E2E0A0A0A14
:102930000A1313132E25250A0A0A13132E252525FB
:102940000A0A1313131C2525250A0A13131C1C2518
:10295000250A0A131313130A0A25251C1C13130A2C
:102960000A2525251C1313130A0A252525371313B9
:102970000A0A0A25252E1313130A0A0A0A2E2E13F1
:102980001313130A0A2E372E13131313132E2E2587
:10299000372E1313131C1C25250A0A13131C252577
:1029A000250A0A13132525250A0A0A131325250AC1
:1029B0000A0A13132E0A0A0A0A1313132E0A0A13F9
:1029C0001313132E3713131313132E2E2E13131347
:1029D0002E2E372E2E2E2E2E2E2E1C1C1C2E2E2E44
:1029E0001C1C1C1C1C2E251C1C1C1C13132E1C1C0C
:1029F0001C131313132E1C1C1313130A0A1C1C1C68
:102A000013130A0A0A1C1C13130A0A0A251C1C1396
:102A1000130A0A25251C1C1C2E372E2E2E1C1C1CAE
:102A20001C1C2E2E3713131C1C1C1C2E2E131313B0
:102A3000131C1C1C2E0A0A1313131C1C2E0A0A0A30
:102A400013131C1C1C250A0A0A13131C1C25250A17
:102A50000A13131C1C1C1C13130A0A25251C1C1307
:102A6000130A0A0A251C1C1C13130A0A0A371C1C09
:102A70001313130A0A2E1C1C1C131313132E2E1CC3
:102A80001C1C1C13132E372E1C1C1C1C1C2E2E252C
:102A9000372E1C1C1C25250A0A13131C1C250A0A88
:102AA0000A13131C1C0A0A0A1313131C1C0A0A1308
:102AB00013131C1C2E131313131C1C1C2E13131C7A
:102AC0001C1C1C2E371C1C1C1C1C2E2E2E1C1C1CE3
:102AD0002E2E372E2E2E2E2E2E2E2525252E2E2E28
:102AE00025252525252E25252525251C1C2E252596
:102AF000251C1C1C1C2E25251C1C1C1313252525E0
:102B00001C1C13131325251C1C1313130A25251C29
:102B10001C13130A0A2525252E372E2E2E25252592
:102B200025252E2E371C1C252525252E2E1C1C1C4C
:102B30001C2525252E13131C1C1C25252E131313B1
:102B40001C1C2525250A1313131C1C25250A0A13F2
:102B5000131C1C252525251C1C13130A0A25251CBE
:102B60001C1313130A2525251C1C131313372525A5
:102B70001C1C1C13132E2525251C1C1C1C2E2E254D
:102B80002525251C1C2E372E25252525252E2E25D1
:102B9000372E2525250A0A13131C1C25250A131375
:102BA000131C1C25251313131C1C1C252513131C77
:102BB0001C1C25252E1C1C1C1C2525252E1C1C25FB
:102BC0002525252E3725252525252E2E2E2525257F
:102BD0002E2E372E2E2E2E2E2E1B0909092E2E1BA1
:102BE0001B656565652E1B6465656565652E1B65E2
:102BF0006465656565096565646565656409656540
:102C00006564656564096565656465656409656530
:102C10006565646564090909090909090965646547
:102C20006565656565656465656565656564656556
:102C30006565656565656565656565656565656544
:102C40006565656565656565656565656565656534
:102C50006565656565090909090909090965656504
:102C60006565656565656565656565656565656514
:102C70006565656565656565656565656565656504
:102C800065656565656565656565656565656565F4
:102C900065656565650909090909090909656565C4
:102CA00065656564656565656565656465656565D6
:102CB00065656565646565656565656565656565C5
:102CC00065656565656565656565656565656565B4
:102CD00065656565650909091B372E2E2E656565D5
:102CE000651B1B2E376565656565641B2E6565650F
:102CF0006564651B2E646565656465650964656565
:102D00006465656509646565646565650964656430
:102D10006565656509096565656564646509656579
:102D20006565646565096564646465656509646510
:102D300065656565650965656565656565096565FB
:102D400065656565650965656565656565096565EB
:102D50006565656565656565656565656565656523
:102D60006565656565656565656565656565656513
:102D70006565656565656565656565656565656503
:102D800065656565656565656565656565656565F3
:102D900065656565656565656565656565656565E3
:102DA00065656565656565656565656565656565D3
:102DB00065656565656565646565656564656564C6
:102DC00065656564656565656465656465656565B6
:102DD00064656465656465656565656565646565A7
:102DE0006565656565646565656565656564656595
:102DF0006565656565656565656565656565656583
:102E00006565656565656565656565656565656572
:102E100065656565656564646565656509656564C1
:102E2000656565650965656564646465096565650D
:102E300065656564096565656565656509656565FB
:102E400065656565096565656565656509656565EA
:102E50006565656509096565656565656509656536
:102E600065656565650965656565656565091B6514
:102E7000656565656509641B656565656509641B50
:102E800065656565650964641B65656565096464F8
:102E9000641B1B6565656565656565656565656577
:102EA00065656565656565656465656565656565D3
:102EB00064656565656565646465656565656564C6
:102EC00064646565656564646464646565656464BB
:102ED00064646464656565656564656565656565A7
:102EE0006564646565656565656565646565656595
:102EF0006565656564656565656565656465656584
:102F00006565656565656565656565656565656571
:102F10006565656565656565656565656565656561
:102F20006565656565656565656565656565656551
:102F30006565656565656565656565656564656542
:102F40006565656565646565656565656564656533
:102F50006565656565656565656565656565656521
:102F60006565656565656565656465656565656512
:102F70006564656565656565656464656565656504
:102F800064646465656565646464646465656464FB
:102F90006464646465656565656565650965656541
:102FA0006565656509656565656565650965656589
:102FB0006565651B0965656565651B64096565650E
:102FC00065651B6409656565651B64640965651B4A
:102FD0001B646464090964646464640909096464C1
:102FE00064641364640964646413646464096464F9
:102FF000136464646409641364646464640964133A
:103000006464646464091364646464646409646487
:103010006464646464091B1B1B1B1B090964641B37
:103020001B1B1B64646464641B1B646464646464CD
:103030006464646464646464646464646464646450
:103040006464646464646464646464646464646440
:10305000646464646413130909130909096464133B
:10306000646464646464641364646464096464131D
:103070006464640964646413646464096464646417
:1030800013646464096464646413646464646464FD
:1030900064641364640909091309091313646464FB
:1030A0006464646464096464646464646464096496
:1030B0006464646464640964646464646409646486
:1030C00064646464646464646464646464646464C0
:1030D000646464646409091B1B1B1B1B0964641B77
:1030E0001B1B1B64646464641B1B6464646464640D
:1030F0006464646464646464646464646464646490
:10310000646464646464646464646464646464647F
:1031100064646464640909646464646409646413D1
:103120006464646409646464136464640964646466
:1031300064136464096464646464136409646464A7
:103140006464136409646464646464130964646497
:10315000646464640913646464646464641364642C
:1031600064646464641364646464646464096464CB
:103170006464646464131364646464646413641353
:1031800064646464641364641364646464096464FC
:1031900013646464640909090909096464640964BD
:1031A0006464640909640964646464090964640901
:1031B00064646464096464640909646464646464E0
:1031C000646409096409096464646464096409093C
:1031D000090964646464646464641364640909646C
:1031E0006464641364090909096464131309646459
:1031F000096464131B6464640964131B1B646464C2
:103200000964131B1B09090909131B1B1B64646454
:1032100064131B1B1B64646464646464646464649A
:1032200064646409096464646409090909136464D1
:10323000640964640913646464096464641B13644A
:1032400064096464641B136464090909091B13138A
:103250006464646464646409090909090909096406
:1032600064646409640909646464640964096464E5
:1032700064640964646464640909646464640909D5
:10328000646464646409646464646409096464640F
:1032900009090909646464646464646413646464AB
:1032A0006464646413646464646464641364646480
:1032B00064646464096464646464641313646464CB
:1032C0006464136413646464641364641364646402
:1032D0006413646409096464136464646409646461
:1032E00013646464640964131B1364646409131B2A
:1032F0001B13646464091B1B1B1B1364642E091BD2
:103300001B1B1364642E091B1B1B136464252509F6
:1033100009090909096409646464090909640964FB
:103320006464091309646409646409130964640921
:1033300064640913136464090964091313646464FD
:103340000964091313646464090909131309090959
:103350000909090909090909090909090964640927
:103360000964640909646409096464090909640950
:10337000130964090909640913096409091309098E
:103380001313091309131313131313130909090949
:103390000909090909090909090909090909096442
:1033A00064090964640909646409096464090964B5
:1033B000091309640909096409130964090913094E
:1033C0001313090913091313131313131309090909
:1033D00009090909090909096464640964091309E7
:1033E0006464640964091309646409646413130957
:1033F0006464096464131309640909646413130998
:10340000640964646413130909096464640909099B
:1034100009090909096464646413646409646464DF
:103420006413646409646464131B1364096464644E
:10343000131B1B13096464131B1B1B1B09646413FC
:103440001B1B1B092E6464131B1B1B092E09090976
:103450000909092525090909090909646464093765
:103460003737370909640937373737090964640979
:103470003737373709646464090937373764646458
:1034800064640909370909646464646409640909A6
:1034900009096464646464646464136464090964A9
:1034A00064646413640909090964641313093737F0
:1034B000096464131B3737370964131B1B3737370D
:1034C0000964131B1B09090909131B1B1B64646492
:1034D00064131B1B1B6464646464646464646464D8
:1034E000646464090964646464090909091364640F
:1034F000640937370913646464093737371B136469
:1035000064093737371B136464090909091B13134E
:103510006464646464646409090909090909093770
:1035200037373709640909373737370964093737B7
:103530003737096464373737090964646437090920
:10354000646464646409646464646409096464644C
:10355000090909096400011E1EFE00040404040494
:1035600004040404040400FE001C041C041C041CC9
:10357000041C041C041C00040404040404040404C7
:10358000040404040404041C041C041C041C041C83
:10359000041C041C040404040404040404040404BB
:1035A00004040404041C041C041C041C041C041C4B
:1035B000041C0404040404040404040404040404B3
:1035C0000404041C041C041C041C041C041C041C13
:1035D00004040404040404040404040404040404AB
:1035E000001C041C041C041C041C041C041C00FE01
:1035F00000040404040404040404040400FE040499
:10360000181804100410000102020304050607083C
:1036100006090A0B0C0D0E0F1011121314151617B4
:1036200018191A1B1C1D1E1F2021222324250000EF
:10363000000000000000000000000000000000008A
:1036400000000001010101010001015B5B5B015B06
:10365000015BFFFFFFFF01FF5BFFFFFFFFFF01FFBC
:103660005BFFFF015BFF01FFFFFFFFFF01FF0000AA
:103670000000000000000000000000000000010148
:10368000010101010100FFFFFFFFFF5B5B0101FF83
:10369000FFFFFFFF5B015B01010101010100FF0171
:1036A0005B5B01000000FF01FFFF0100000001FF64
:1036B000FF010101015B01FF5BFF5B5B5B01015BE4
:1036C00001015BFFFF5B010100000101010100003E
:1036D00000000000000000000000000000000000EA
:1036E0000000000000000000000000000000FF01DA
:1036F000010101000000015BFFFF0100000001016A
:103700000101010000005BFFFF010000000001015A
:1037100001000000000000000000000000000000A8
:103720000000000000000000000000000000001089
:10373000502040414141000010212122414300001E
:103740000112542421230001051414141211000144
:10375000021464145474000112642454747400013B
:1037600012641414141400113234141414140001CB
:103770000303010517170000010101113535000091
:10378000001011163131000010514142111100108A
:103790005148434328210011214343434341001032
:1037A000214141414141001020404141414100102F
:1037B0002020404040400111512020204040010481
:1037C0001221212020200204041455212020040469
:1037D0000414141511100404041464125170040428
:1037E000146414527170040414641412111004044B
:1037F00014841212111004040212121551700202E4
:103800000212323110500202128531308010010153
:103810001131313030100715118631308010070713
:1038200015168681101001010108181110100101F0
:1038300001080811100007070501113030100505B7
:10384000010111303010010103181110102001087E
:1038500013234821204001115141414141400111B0
:103860002141414140400111214140404040001070
:103870002040404040400010204040404040011166
:103880005120404040400404122121202020040403
:1038900004145721202004040404141511100404F6
:1038A000041464125170040404141412717004049A
:1038B00004143432111004041484323281100404CC
:1038C000123232353110020212323531301002021A
:1038D000153131303010011111813130801007075E
:1038E00011163130101007070106161110100101D2
:1038F00001080811101001010111112140400707B2
:10390000155141404040051551484140404001118A
:1039100028484141404001112141818181800111AC
:1039200021816111606001112181601060600011CE
:1039300032381651767600001112181858780000A7
:103940000001126212120000001111211111000079
:103950001081363185170010113632358717000077
:103960001116111111160001030311111116000097
:1039700000000000010110101000000101014020B2
:1039800020111102040440404145541404044041F4
:1039900045444454140440414244442414044041E6
:1039A000424444241404808182848428180860617D
:1039B000621468861106606165146886110660608D
:1039C00061126816010680808081150808081010B1
:1039D000101111010101705010611601050770707E
:1039E000511662150707601011323111010660107F
:1039F000113831110106707051181101050750502E
:103A000010111303010510103188130308011080F1
:103A100031338313030110111118131318011010FF
:103A200011111818010110101010010101010000FE
:103A30000000000101000000000001080801101052
:103A40001000010101014040201111020404404016
:103A50004145741404044041454424541404404135
:103A60004244442414044041424444241404404148
:103A70004244442414048081828484841808606150
:103A80006564148816016060616214180601606044
:103A9000308115080801101010101101010170107B
:103AA0008031861105077010303131110707601021
:103AB0008031831301066010111813130801707010
:103AC000511313030301505011831303030110100A
:103AD000818313130301101111181313180110100F
:103AE0001111131301011010101001010101101028
:103AF0001000000101014041211011050202414363
:103B000048412512040441484145425214044041B1
:103B10004142422414044040818282841404408043
:103B20006112626414044080611262621404408075
:103B30006115626214044040808185821204202055
:103B4000202051110502101010101000010110600A
:103B500010701000010510601070701001051060E9
:103B60001010601001011030301060100101103091
:103B7000301050100105101010501000000160109E
:103B80001010000000012010101010010101303051
:103B90003081111111083030313111111113101011
:103BA000101111111101101010101001010100006D
:103BB000000000000000101011010001010140414F
:103BC00023181105020240414841251204044040D7
:103BD00041454252140440404142422414044040B2
:103BE00041228284140440808182626414048060D3
:103BF0001162626414048060116562621404806062
:103C000010618582140420808080511105021010FB
:103C1000101010010101106010501000010510106B
:103C200060601011010510101010313811011010D2
:103C300010103138110150707050101111051050D2
:103C40005010818116061010108188861601801090
:103C5000108183131303301011111113131310105B
:103C600010111111110110101010100101010000AC
:103C70000000000000000000010100000000101121
:103C800013080101010140212811050202044040EE
:103C900041251204040440414542521404044041A9
:103CA00042428414040440414282141404044081BA
:103CB00082621414040480616262141404081061A6
:103CC000656284140806106061851204080610807D
:103CD000805115020806801010101111050850506F
:103CE0006011313111015050111838311501501047
:103CF000116818111101101010611181811170707B
:103D00005151118181155051581388868615101113
:103D100018138388110110111118131318011010B2
:103D20001111111101011010101001010101000009
:103D300000000000000010101101000101014041CD
:103D40002318110502024041484821120404404052
:103D50004141425214044040418522241404404011
:103D600081628284140440408162126414044040E1
:103D70008162126214044040816512621404404062
:103D8000408185821204202020205111050210104C
:103D9000101010010101606010701000010160102E
:103DA00050707010110610101010601113031010D5
:103DB0001010601103035070505010110101505049
:103DC0006010808118088010106030311808801051
:103DD0008031318111081010313181111111101011
:103DE000101111111101101010101001010100002B
:103DF00000000000000000000101000000001011A0
:103E00001308010101014021581801050204404036
:103E10004121120204044040412252140404404152
:103E200085822214040440418262821404044041C9
:103E3000826212140404404182621214040440415C
:103E400041821212040440404125821202022020C5
:103E500020511115120210101010118181116010E3
:103E6000701011818616105070711313110110100B
:103E70001061131301011010106111111101707004
:103E800050511888811550506061883831151010D4
:103E90001181313888111011113131811101101047
:103EA0001111111101011010101001010101103048
:103EB0003010601161611030301181828484108073
:103EC00081152424444400112564141414140001A1
:103ED00012246414547400010214285878780001E4
:103EE0000208161116660001010816111666000078
:103EF0001010011517170010301010214547001140
:103F0000115041464141010353414641414101188D
:103F10002343414141410011284348418181001020
:103F200021484881611100101011118161110111A6
:103F300081308010601004143231311080800414FC
:103F40008432851120200404141422651110040405
:103F500004041222611008080808081851700606A7
:103F600006060116111006060606011611100606B1
:103F70000606011671710808080808185151020256
:103F8000121202116811011131311162211007174B
:103F900035818211101007171785818010100116C6
:103FA000161181801010010616111110101007074C
:103FB000070501000000071715010911111015353B
:103FC000811611234341118111514343484101118D
:103FD00051484348414001112148484141400111A5
:103FE0002141414140400111214110101080001039
:103FF0002010803080100111211030303010041456
:104000005211813080100404142215611020040420
:10401000041412652110040404040212611008083B
:104020000808081851500601060606161111060167
:104030000606061611110601060616165151080845
:104040000818383811510202021232311160010190
:104050000111818110100507171581818010051548
:104060001717118080100101161611101010010190
:104070000606010100100707070111181130050796
:104080000112212313810505152142482811011130
:1040900051414848414001112141484141400111ED
:1040A0002141414140400111214140404040000137
:1040B000020218587878000102081611567600009E
:1040C00001081661161600000011132116160000D3
:1040D0001081313181110010113631358717000000
:1040E0001116111111160000000111111116000016
:1040F000000111165557000001183132115500000A
:104100001188383188110000113838383811000012
:1041100011813838811100111111818111110000B4
:1041200011111111111100000000111111110001E4
:104130000202081818180001021816264646000048
:10414000115846414646001050414346464600102D
:10415000204141414141001021468185878700105F
:104160002186611161660010208161116166001174
:1041700055886611666600001122888888881000BC
:10418000001155222244801010111111111180606C
:104190006061261155771010111651557777000080
:1041A00001161111116600000011111111660000B5
:1041B000000000101010000000101020404000010E
:1041C00011514040404001135348414040400113C9
:1041D0002848464040400011212181808080001005
:1041E000108060106060103030106010606001035B
:1041F0000801060106160108080108081838000120
:1042000006010502128400010606011111110000C9
:10421000011612214547000010214545474700106F
:104220005041414141460010204141414146000179
:10423000126414545474000112388818587800011C
:104240001238361116660001153886111656000010
:104250001118168186160010108138388818000051
:10426000101011111111000000011211151510305C
:1042700030106011616110303011818284841080AF
:104280008112242424240011226414141414000123
:104290001224641454740001021428587878000120
:1042A00002081611166600010108161116660000B4
:1042B00000000105070700000000010105070000DC
:1042C0000001080601010000010803161811000092
:1042D00001181318181100001118181818110000EF
:1042E000001118181110000000000111101000102A
:1042F0002040105111510010101141424343104011
:1043000061421323232310616263131313131041BB
:104310006243132353530011121324141454000145
:104320001214111511550001121425515555000094
:104330000101011215150001061616213235000182
:104340001424363131320011243436313231001028
:1043500021344446414100112144145611510010AA
:104360002141511151510010204051511151000172
:104370001121140404040114161461111101011611
:1043800046162111421201144661121421440011F3
:1043900041426461101100101142414010100000B0
:1043A0001112111010100000010214111010104011
:1043B0001020100101011010201101020303001050
:1043C00021420404040410214214010501051021B6
:1043D00012140501050510212241010101011020DF
:1043E0001111010202021021441102020401010212
:1043F00002040000000000010401000000000101AF
:104400000204010100000104010204020100010490
:10441000040102120401000104041142120200000E
:104420000101011101010000000001010101104022
:10443000100000000000001000000000000000015B
:104440000000000000000104010000000000000165
:1044500000000010000000000000104010000000EC
:10446000000000100000000100000000000000003B
:10447000000000700000000000007080700010005C
:104480000000708071011010101091710202404004
:104490001091A3130301601091A31405010450505F
:1044A0001113150601055041423315140104404112
:1044B00032132313030110111222231303022021AC
:1044C0002222221202022020212212020202202095
:1044D00021221202020220202011020202022010D8
:1044E00010000101020210000000000001010000A4
:1044F00000000000B0001010000000B071B12010EA
:10450000101011B182B21040401192A3B30240606A
:104510001192A41504015050511416160501405172
:10452000434436161401104143331424130320115D
:1045300012132323130320212222232313022021D9
:1045400022222222120220202122221202022020D4
:104550002122221202022020202112020202202007
:1045600010100101020210100000000001011010E3
:1045700010000001117120201011111293833010CE
:1045800041421495A4131041621496A615031051CC
:104590005354161614031142534445351313311363
:1045A00043433414231331231313132323132122DE
:1045B00023232323231321222223232323122122F3
:1045C0002222222222122021222222221202202111
:1045D0002222222212022020212222120202202044
:1045E0002011110202021010100000010101000050
:1045F00000000000010100000000000001010000B7
:1046000000000000010100000000000001010000A6
:104610000000000001010000000000000101000096
:104620000000000001010000000000000101000086
:104630000001010101010000000101010101000070
:104640000001010101010000000101010101000060
:104650000001010101010000000101010101000050
:10466000000101010101000000010101010101013E
:10467000010101010101010101010101010101012A
:10468000010101010101010101010101010101011A
:10469000010101010101010101010101010101010A
:1046A00001010101010101010101010101010000FC
:1046B000010102020103040506070800090A0B0CA8
:1046C0000D0E0003040506070800000001010202A8
:1046D00001040306050807020A090C0B0E0D02046B
:1046E0000306050807020F0F101011110112131411
:1046F0001516170018191A1B1C1D00121314151675
:1047000017000F0F101011110113121514171602B4
:1047100019181B1A1D1C02131215141716021F1E3E
:104720002120232202252427262928022B2A2D2C6A
:104730002F2E02252427262928021F1E212023226E
:104740000231303332353402373639383B3A0231B0
:104750003033323534021E1F202122230024252627
:10476000272829002A2B2C2D2E2F00242526272808
:1047700029001E1F2021222300303132333435001E
:10478000363738393A3B00303132333435003C3C2F
:104790003D3D3E3E013F404142434400454647487F
:1047A000494A003F4041424344003C3C3D3D3E3E7F
:1047B00001403F4241444302464548474A4902407E
:1047C0003F4241444302575758585959015A5A5B7E
:1047D0005B5C5C014B4B4C4C4D4D014B4B4C4C4E80
:1047E0004D014B4B4C4C4F4D014B4B50504D4D01DF
:1047F000515152524D4D01515153534D4D0155554B
:1048000056564D4D015E5E5F5F60600161616262A0
:104810006363016464656566660167676868696902
:1048200001FFFF6A6B6C6D00FFFF6E6F707100FF20
:10483000FF7273747500FFFFFFFF5D5D01000000F4
:10484000000000000100010001010101010101005F
:104850000001000100000001010000000000010152
:104860000100000001000000000000000101010142
:10487000010001000102010000012A2A2B2B2A2A33
:104880002C2C2A2A2B2B2A2A2C2C2A2A2B2B2A2A7C
:104890002C2C2A2A2D2D2A2A2D2D2A2A2D2A2D2A62
:1048A0002A2E2E2F302F302F302F302F302F000276
:1048B00003000980000A6F0100EA00FF0002000007
:1048C00009C0000A780007960000230500E70500EC
:1048D000D301FF0002040007A000001401001E0025
:1048E00002040100F00100F204FF0001DE0009DE15
:1048F000000A7800079100001E0900F1000116026D
:10490000001E0200F60200F823050000FF0002016D
:1049100001084501084901084601084A0108470104
:10492000084B01084801084C01084901084D0105E0
:104930000001FF0002010108450108490108460184
:10494000084A01084701084B01084801084C0108C2
:104950004901084D01050000FF0002010108450161
:1049600008490A08450108490A08450108490A0892
:10497000450108490A08450108490A050000FF00E9
:1049800002010108450108490A08450108490A08C9
:10499000450108490A08450108490A08450108492E
:1049A0000A050000FF00020100082B01082D010884
:1049B0002F01083101083001050001FF000202004B
:1049C0000980000A6F00083A020838020836020817
:1049D0003401083301083201050001FF0002010023
:1049E0000980000A6F00082C02083004082C020815
:1049F0003001082803050001FF00020000098000C3
:104A00000A6F01083A02083B01083A01083C020813
:104A10003D01083C0009C8000A6F01083E02083F3A
:104A200001083E0108400208410108400108420116
:104A300008410108420009FF000A6F000200010856
:104A4000450208470108450208480108450208498F
:104A500001084502084A01084502084B010500010A
:104A6000FF00010E0007AA00001E0100EC0100F883
:104A70000100FC01050000FF00020000082C0208F4
:104A80003004082C02083001082803050001FF004B
:104A900001080007C80000E20100F10100F802056A
:104AA0000000FF01FF01FF01FF00010200072C00D1
:104AB00000E20100F10100F802050000FF01FF0122
:104AC000FF01FF00010400072C0000E20100F101DA
:104AD00000F802050000FF00FF00FF000000AE48E4
:104AE00000000000000000BC4800000000000000C2
:104AF000D34800000000010000EA48000000000068
:104B000000000D49000000000000003349000000D3
:104B1000000000005949000000000000007F49002B
:104B2000000000000000A54900000000000000BCDB
:104B30004900000000000000DC4900000000000007
:104B400000F94900000000010000614A0000000077
:104B5000010000784A000000000100008F4A0000B8
:104B60000000010000A34A00000000010000A54A67
:104B700000000000010000A74A0000000001000042
:104B8000A94A00000000010000BD4A000000000129
:104B90000000BF4A00000000010000C14A00000000
:104BA00000010000C34A0000000000C30000C20270
:104BB00000C10100C00000B0640000640000B164E6
:104BC000000091454800B1640000B26400009221E9
:104BD0006000B3640000930C6600FF0601530B9164
:104BE0004C4800922D6006914C48054548009221A2
:104BF0006000930E60060E4006914C4800922D60B6
:104C000000930E200512660691454800922160002F
:104C1000930C66060C6605914C4800922D6000933B
:104C20000E40060E4006914D4800922E6000930EF5
:104C300060060E40050E20060E6006914548009263
:104C40002160009312600B914C4800922D600691F8
:104C50004C480545480092216000930E60060E40C6
:104C600006914C4800922D6000930E20060E6005C0
:104C7000914C4800922D6000931260060E600691E0
:104C80004B4800922C6005930E4006914A480092D2
:104C90002B6000930E60060E400591494800922A51
:104CA0006000930E20060E60069145480092216038
:104CB00000931260000C660B914C4800922D600628
:104CC000914C480645480092216000930E60050E05
:104CD0004006914C4800922D6000930E20060E6015
:104CE000059145480092216000931260000C660611
:104CF0000C6606914C4800922D6000930C66060EDF
:104D00004005914D4800922E6000930E60060E40C3
:104D1000060E20050E600691454800922160009322
:104D200012600B914C4800922D6006914C4806454C
:104D3000480092216000930E60060E4005914C4899
:104D400000922D6000930E20060E6006914C4800E4
:104D5000922D6000931260050E6006914B48009200
:104D60002C6006930E4005914A4800922B600093F8
:104D70000C66060C660691494800922A6000930C66
:104D800066060C660591454800922160009312600A
:104D9000000E660C90516000914C4800922D600509
:104DA000914C480690516000914548009221600066
:104DB000930E60060E4005904F6000914C480092A3
:104DC0002D6000930E20060E600690516000914504
:104DD000480092216000931260060E6005905160B9
:104DE00000914C4800922D6000930E4006904F6059
:104DF00000930E400690546000914D4800922E6042
:104E000000930E60050E40060E20060E60059145CB
:104E10004800922160009312600C90516000914C08
:104E20004800922D6006914C4805905160009145D4
:104E3000480092216000930E60060E4006904F607D
:104E400000914C4800922D6000930E20050E6006E4
:104E500090516000914C4800922D600093126006C2
:104E60000E600590516000914B4800922C600093B9
:104E70000E4006904F6000930E40069048600091EF
:104E80004A4800922B6000930E60060E400591493F
:104E90004800922A6000930E20060E6006904C6037
:104EA00000914C4800922860009312600B904F6074
:104EB0000091534800923460069153480092346048
:104EC00005904C6000914C480092286000930E6061
:104ED000060E4006904A60009153480092346000EC
:104EE000930E20060E6005904C6000914C48009295
:104EF000286000931260060E6006915348009234B9
:104F00006000930E40050E400691544800922660C2
:104F100000930E60060E400592276000930E200657
:104F20000E6006914C4800922860009312600B912D
:104F300053480092346006915348009234600691C1
:104F40004C480092286000930E60050E4006915375
:104F5000480092346000930E20060E6005914C4884
:104F60000092286000930E600692346000930E60F9
:104F7000069153480092266000930E6006923260BC
:104F800000930E60059158480092256000930C66CE
:104F90000692316000930C660692236000930C66C3
:104FA00005922F6000930C6606914548009221609F
:104FB000009312600B90516000914C4800922D605C
:104FC00006914C480690516000914548009221603E
:104FD00000930E60050E4006904F6000914C480013
:104FE000922D6000930E20060E6006905160009195
:104FF00045480092216000931260050E60069051B2
:105000006000914C4800922D6000930E4006904F36
:105010006000930E400590546000914D4800922E20
:105020006000930E60060E40060E20050E6006918D
:10503000454800922160009312600C9051600091ED
:105040004C4800922D6005914C48069051600091AB
:1050500045480092216000930E60060E4005904F77
:105060006000914C4800922D6000930E20060E6067
:105070000690516000914C4800922D6000931260A0
:10508000050E600690516000914B4800922C600024
:10509000930E4006904F6000930E400690486000CB
:1050A000914A4800922B6000930E60050E400691D5
:1050B000494800922A6000930E20060E6005904C2D
:1050C0006000914C4800922860009312600C904F51
:1050D0006000915348009234600591534800923427
:1050E0006006904C6000914C480092286000930E3E
:1050F00060060E4006904A6000915348009234606A
:1051000000930E20050E6006904C6000914C480004
:1051100092286000931260060E6005915348009239
:10512000346000930E40060E4006915448009226CB
:105130006000930E60050E400692276000930E20DB
:10514000060E6006914C4800922860009312600B96
:1051500091534800923460069153480092346005A0
:10516000914C480092286000930E60060E40069114
:1051700053480092346000930E20050E6006914C57
:105180004800922860009312600692346000930CED
:1051900066069153480092266000930C6605923291
:1051A0006000930C66069158480092256000930EAB
:1051B000600692316000930C660592236000930EA6
:1051C0002006922F6000930E6006914A48009226B6
:1051D00060009312600B905660009151480092322B
:1051E00060069151480690566000914A4800922608
:1051F0006000930E60050E40069054600091514887
:105200000092326000930E20060E600590566000FA
:10521000914A480092266000931260060E60069044
:105220005660009151480092326000930E40059004
:10523000546000930E4006905A60009152480092CC
:10524000336000930E60060E40060E20050E6006C9
:10525000914A4800922660009312600B90566000BD
:105260009151480092326006915148069056600074
:10527000914A480092266000930E60050E40069009
:105280005460009151480092326000930E20060E47
:10529000600690566000915148009232600093126F
:1052A00060050E6006905660009150480092316093
:1052B00000930E400690546000930E4005904E609F
:1052C00000914F480092306000930E60060E400639
:1052D000914E4800922F6000930E20050E600691BB
:1052E0004A4800922660009312600C90566000912C
:1052F00051480092326005915148069056600091E5
:105300004A480092266000930E60060E40059054B5
:1053100060009151480092326000930E20060E60AA
:105320000690566000914A480092266000931260F1
:10533000050E600690566000915148009232600060
:10534000930E400690546000930E4006905A600001
:105350009152480092336000930E60050E40060E95
:1053600020060E6005914A48009226600C90566017
:105370000091514800923260059151480690566064
:1053800000914A480092266000930E60060E400687
:10539000905460009151480092326000930E2005B5
:1053A0000E60069056600091514800923260009362
:1053B0000E60060E600590566000915048009231D4
:1053C0006000930E600690546000930E6006904E4D
:1053D0006000914F480092306000930E60050E60AF
:1053E00006914E4800922F6000930E600B90516022
:1053F0000091454800922D6000930C6606904F6026
:105400000091454800930C6606904C600091454819
:1054100000930C6606904F6000930C6605905160F7
:10542000009145480092286000930E60069145481F
:1054300000930E40060E200591454800930E60062D
:1054400090576000914B480092336000930E6006C5
:1054500090556000914B4800930E6005905260009B
:10546000930E600690556000914B4800930E6006C5
:1054700090576000914B4800922E6000930E60069A
:10548000914B4800930E60050E6006914B480690C4
:10549000516000914C4800922D6000930C6605907D
:1054A0004F6000914C4800930C6606904C6000934E
:1054B0000C6606904F6000914C4800930C66059076
:1054C000516000914C480092286000930E60069154
:1054D0004C4800930E40060E2006914C4800930E57
:1054E0006005905760009152480092336000930E1F
:1054F00060069055600091524800930E60069052ED
:105500006000930E60059055600091524800930E24
:1055100060069057600091524800922E6000930EF2
:10552000600691524800930E60050E600691524845
:10553000069051600091454800922D6000930C66E2
:1055400006904F60054C60009228600690516006FE
:10555000576000914B480092336000930E660590AF
:10556000556006526000922E6006905760055160AB
:105570000091524800922D6000930C6606904F6097
:10558000064C6000922860069051600557600091BB
:1055900057480092336000930E660690556006529D
:1055A0006000922E600590576006930C66060C66AC
:1055B00005904C60009147480092286000930C666B
:1055C00006904C6000914748009228600093126654
:1055D00006904C60009147480092286000930C664A
:1055E0000612660590526000914C4800922E6000B1
:1055F000930C6606126606904C6000914748009234
:10560000286000930C66050C660692266000930CD9
:10561000660612660592256000930E66060E660603
:1056200092236000930E66060E6605904560009218
:10563000296000930C660C90453000923560009311
:105640001266050E66069048600092296000930C71
:1056500066061266059048300092356000930C662D
:10566000060E6606904A600092296000930C66065A
:105670000C6605904A300092356000930C66060E69
:105680006606904C600092296000930C66050E66D9
:1056900006904C300092356000930C66060C66054F
:1056A000904F600092286000930C660C904F300081
:1056B0009234600B904C600092286000930E660C50
:1056C000904F60009234600B90546000922D600007
:1056D000930C66060C660590536000923960009347
:1056E0000C66060C660690516000922D6000930CCB
:1056F00066060E66059051300092396006930E667C
:10570000069045600092296000930C66050C6606C1
:105710009045300092356000930C66061266059045
:1057200048600092296000930C6606126606904855
:10573000300092356000930C6606126605904A6050
:105740000092296000930C66060C6606904A3000B1
:1057500092356000930C6605126606904C600092CC
:10576000296000930E66060E6605904C3000923557
:105770006000930E66060E6606904E6000922F60E3
:1057800000930C660B904E3000923B6000931266C3
:10579000060E6606904B6000922F6000930C660523
:1057A000126606904E6000923B6000930C66060EF7
:1057B00066059044600092286000930C6606905045
:1057C0005600930C660690444C0092346000930C93
:1057D000660590504200930E660690443800922869
:1057E0006000930C660690502E00930E660690445F
:1057F000240092346000930C660590501A00930CBC
:10580000660691483800930C60000E66061260052B
:105810009051600091483800931660060E66041699
:1058200004029051600091483800930C60051260AA
:1058300006904F600091483800931660000E660A8B
:105840001604029051600091483800930C60000EDD
:1058500066051260000E66069051600093166000A7
:105860000E6606904F60009148380493160401902C
:1058700051600091483800930C60000E660612607B
:1058800006904F600091483800931260000E660544
:105890001260069051600091483800930C60061227
:1058A0006006904F6000914838009316600A160415
:1058B000019051600091483800930C600612600519
:1058C000904F6000914838009316600A16040290C9
:1058D00051600091483800930C60051260069051A9
:1058E00060009316600491483802904F600493164C
:1058F000040290516000930C600590546000931274
:105900006002914838049051600093126006904FF5
:10591000600093126005904C6000914E3800930C2B
:105920006006126006904F6000914E38009316603A
:105930000A160401904C6000914E3800930C6006EA
:10594000126006904A6000914E38009316600A1665
:105950000401904C6000914E3800930C6003904C11
:105960005A034C540093126003904C4E024C480072
:1059700093166003904C42034C3C034C3601931643
:105980000402904C3000930C6003904C2A024C248B
:105990000093126003904C1E034C18009312600396
:1059A000904C12034C0C0093126003904C06039130
:1059B0004E3800930C600512600691513800931622
:1059C000600A160401914E3800930C6006126006BE
:1059D000914C38009316600A160401914E380093DA
:1059E0000C600612600616600A1604010C600612AE
:1059F000600512600612600691483800930C60053D
:105A000012600690516000914838009316600A16A3
:105A100004029051600091483800930C60051260B8
:105A200006904F6000914838009316600A160401F2
:105A30009051600091483800930C60061260069007
:105A40005160009148380093166005904F600593AF
:105A50001604019051600091483800930C600612C2
:105A60006006904F60009148380093126005126004
:105A7000069051600091483800930C600612600552
:105A8000904F6000914838009316600A1604029007
:105A900051600091483800930C6005126006904FE9
:105AA0006000914838009316600A16040290516015
:105AB0000091483800930C60051260069051600018
:105AC0009148380093166006904F600493160401C5
:105AD0009051600091483800930C6006905460002B
