:100000000C94AC540C9451550C9451550C9451557E
:100010000C9451550C9451550C9451550C945155C8
:100020000C9451550C9451550C9451550C945155B8
:100030000C9451550C949A570C9451550C9451555D
:100040000C9451550C9451550C9451550C94515598
:100050000C9451550C9451550C9451550C94515588
:100060000C9451550C9451550C9451550C94515578
:100070005A5501200201003808000000000000006D
:100080000000000000565E645E375FDB62C7626797
:100090005E765E855EAF62935EA15E5B5B525B5B8C
:1000A0005252095B52A45252A4A45252A45B52A4CD
:1000B0005B5B5B525B5B52A45B5B5B095252525BC6
:1000C0005B5B525252A4A4525B5B5252A45B5B5BDB
:1000D000525252525B5B5B52A4A4520952A4A45BDD
:1000E000525B5B52A45B5B5B525B5B52A45B5B5BF2
:1000F0005B525252525B5B5B5B0909A4A4525B5298
:1001000052A4A4A45B5B5252A45B5BA45B5B520948
:10011000525B5B5B5B525B5B5B5252525B5B52A41C
:100120005B5B5BA45252525B5B5B52A45B5B525BBA
:100130005B52A45B5B5B525209095B5B5B52A4A4FC
:100140005209525252A45B5B5B52A4A4A4525B5B63
:100150005B52A45B5B525B5B5B525B5252525B5BDC
:100160005B5B52A4A4A4525B5B5B525B5B5B525231
:100170005B5B525B5B52A4A45252525252A45B5B33
:100180005B5B525B52A45B5B5B5B525B5B525B5B9A
:100190005B52A45B5B52525252A45B000000000011
:1001A0000000000000898989898900008992929263
:1001B0009289920089929292928992008992929267
:1001C000899B9200899292899B9292008989899B4E
:1001D00092929200009B9B929292920000000000EB
:1001E00000000089898989898989899292929292ED
:1001F00092929292929292929292929292929292DF
:1002000092929292929292929292929292929292CE
:100210009292929292929292929292009292929250
:1002200092929200899292929292920089929292E4
:1002300092929200899292929292920089929292D4
:1002400092929200899292929292920089929292C4
:100250009292920089929292929292929292929219
:100260009289899292929289899B9B929292899B80
:100270009B92929292899B9292929292899B929255
:1002800092929292899B9292929292899B9292924E
:10029000929292899B929292929292000000000018
:1002A0000000000000898989898900008992929262
:1002B0009289920089929292928992008992929266
:1002C000899B9200899292899B923F008989899BA0
:1002D000923F3F00009B9B923F3F3F000000000089
:1002E00000000089898989898989899292929292EC
:1002F00092929292929292929292929292929292DE
:100300009292923F929292929292923F3F929292C6
:100310009292923F3F3F9292929292009292929248
:100320003F3F3F0089929292923F3F008992929282
:1003300092923F0089929292929292008992929226
:1003400092929200899292929292920089929292C3
:1003500092929200899292929292923F3F3F929211
:100360009289893F3F929289899B9B3F9292899B78
:100370009B92929292899B9292929292899B929254
:1003800092929292899B9292929292899B9292924D
:10039000929292899B9292929292920909090909EA
:1003A000090909092E2E2E2E2E2E2E092E1C1C1C5C
:1003B0001C1C1C092E131313131313092E1C1C1CB5
:1003C0001C1C1C092E1C1C1C1C1C1C092E1313138A
:1003D00013132E092E1C1C1C1C2E1C0909090909AB
:1003E0000909092E2E2E2E2E2E13091C1C1C2E1C24
:1003F0002E130913132E1C132E13091C2E1C131C51
:100400002E13092E1C131C1C2E13091C131313135B
:100410002E1309131C1C1C1C2E1309092E1C1C1C3A
:100420002E1C13092E13132E1C1313092E1C2E1C05
:10043000131C1C092E2E1C131C1C2E092E1C1313FE
:10044000131313092E2E2E2E2E2E2E0913131313D3
:1004500013131309090909090909091C1C1C1C1C8F
:100460002E130913131313132E13091C1C1C1C1C0D
:100470002E13091C2E2E1C1C2E13091313131313D9
:100480002E13092E2E2E2E2E2E1309131313131393
:1004900013130909090909090909090101010101E0
:1004A000010101011717171717171701170606067D
:1004B00006060601170202020202020117060606DC
:1004C00006060601170606060606060117020202C0
:1004D00002021701170606060617060101010101AF
:1004E000010101171717171717020106060617064D
:1004F000170201020217060217020106170602067A
:10050000170201170602060617020106020202027E
:100510001702010206060606170201011706060663
:100520001706020117020217060202011706170634
:100530000206060117170602060617011706020231
:1005400002020201171717171717170102020202FA
:10055000020202010101010101010106060606066F
:10056000170201020202020217020106060606062F
:1005700017020106171706061702010202020202FD
:1005800017020117171717171702010202020202BA
:1005900002020101010101010101015353535353AF
:1005A00053535353AEAEAEAEAEAEAE53AEAEAEAE32
:1005B000AEAEAE53AEAEA5AEAEA5A553AEAEA5A53E
:1005C000AEA55C53AEAEA5A55C5CA553AEAE5C5CBF
:1005D0005CA55C53AEAEA5A5A5A5A5535353535337
:1005E000535353AEAEAEAEAEAEA553AEAEAEAEAEA0
:1005F000A55C535C5CA55C5C5C5C535CA5A5AE5CD7
:10060000535C53A5A5AEAEA55C53535CAEAEA5A599
:100610005C5C53AE5C5CA5A55C5C5353AEAEAEA512
:10062000A5A5AE53AEAEA5AEAEAEA553AEAEAEA5CD
:10063000A5A5A553AEAEAEA5A5A5A553AEAEA5A5E1
:100640005C5C5C53AEA55C5C5C535353A55C5C5C2A
:1006500053535C5353535353535353AEA55C5C5C99
:10066000535353A5AEA55C5C535353A55C5CA5A541
:100670005C5C535C5CA5AEAEA55C535CA5A5A5AE69
:10068000A55C535C5C5C5C5C5CA5535C5C5C5C5C2A
:100690005C5C5353535353535353531B5C1B5C5C6D
:1006A0005C5C131B1B5C1B5C5C5C131B5C5C5C1B61
:1006B0005C5C135C5C1B5C5C5C131B1B5C5C1B5C10
:1006C0005C13135C1B5C5C5C5C131B1B5C5C5C5C08
:1006D000131B135C5C1B5C5C131B5C1B5C1B5C5C7A
:1006E0005C5C131B1B5C1B5C5C5C131B5C5C1B1B62
:1006F0005C5C135C5C1B5C5C5C131B1B5C5C1B5CD0
:100700005C13135C1B5C5C5C5C131B1B5C1B5C5C08
:10071000131B135C5C1B5C5C131B5C5C5C5C5C1300
:100720001B131B5C5C5C131B131B5C5C5C13131BBB
:100730001B5C1B5C13131B135C1B5C5C131B131BEC
:100740005C5C5C13131B1B5C1B5C5C131B131B5C52
:100750005C5C5C131B1B5C1B5C5C5C5C5C5C5C132E
:100760001B131B1B5C1B131B5C1B5C5C5C13131BB4
:100770001B5C1B5C135C1B135C1B5C5C131B131B63
:100780005C5C5C135C1B1B5C1B5C5C131B131B5CC9
:100790005C1B5C131B1B5C1B5C5C1B0101010101EE
:1007A000010101011818181810010101181010108A
:1007B00010100101011010101010011001010101B1
:1007C000010101181010011818181010101001184C
:1007D0001010101010010101101010010101010191
:1007E00001010118181818181810101810101010FE
:1007F0001010101010101010100101010101010162
:100800000101011001010118180118101001181040
:100810001001101010011010101001010101010150
:1008200001010118101810100118181010101010E4
:100830000118101010100101011010010101011028
:1008400010010101101818181010100110181010C4
:100850001010100101101010101010010101010101
:1008600001010118181010011018181010101001B3
:1008700010181010101001010110100101011010CA
:100880001001011001101818181010100110181084
:1008900010101001010110101010010101010101DF
:1008A0000101010118181818100101011810101089
:1008B00010100101011010101010011001010101B0
:1008C0000101011810100118181837101010011824
:1008D00010373710100101013737370101010101CD
:1008E00001010118181818181810101810101010FD
:1008F0001010101010101010100101010101010161
:1009000001010137010101181801183737011810CA
:1009100010011037373710101010010101010101CB
:100920003737371810181010013737101010101003
:100930000118371010100101011010010101011000
:1009400010010101101818181010100110181010C3
:10095000101010010110101010101037373701015E
:10096000010101373710100110181837101010014D
:1009700010181010101001010110100101011010C9
:100980001001011001101818181010100110181083
:1009900010101001010110101010010000000000E3
:1009A000000000007676767676767600761B1B6DF4
:1009B0006D1B1B007624246D6D1B2400766D6D6D00
:1009C0006D1B2400766D6D6D6D6D1B00766D1B6D5E
:1009D0006D6D1B00761B241B6D6D1B00000000005D
:1009E00000000076767676766D1B001B6D6D1B6DB4
:1009F000241B00246D6D1B6D241B00241B6D6D6D6D
:100A0000241B0024246D6D6D241B0024241B6D6D9C
:100A1000241B002424246D6D241B00007624242430
:100A20006D6D1B00766D6D6D6D6D1B00761B1B1B58
:100A30006D1B6D00766D6D6D1B6D1B00766D6D6DA4
:100A40006D6D6D006D242424242424001B1B1B1BAE
:100A50001B1B1B00000000000000002424241B6D51
:100A6000241B001B2424246D241B001B6D24246DD7
:100A7000241B001B6D6D246D241B006D6D6D6D6D51
:100A8000241B002424242424241B001B1B1B1B1BAD
:100A90001B1B00000000000000000001010101011B
:100AA0000101010117171717171717011701010681
:100AB00006010101170202060601020117060606D9
:100AC00006010201170606060606010117060106C1
:100AD00006060101170102010606010101010101DB
:100AE0000101011717171717060101010606010674
:100AF00002010102060601060201010201060606C4
:100B000002010102020606060201010202010606B6
:100B1000020101020202060602010101170202029D
:100B20000606010117060606060601011701010166
:100B3000060106011706060601060101170606064C
:100B4000060606010602020202020201010101017B
:100B5000010101010101010101010102020201067D
:100B6000020101010202020602010101060202065F
:100B7000020101010606020602010106060606063A
:100B8000020101020202020202010101010101014E
:100B90000101010101010101010101262626261C96
:100BA000012626262626261C01262626261C1C1360
:100BB00001261C26261C1C1301261C26261C13138A
:100BC00001261C261C131C1301261C1C13131313B3
:100BD000011C13010101010101010126262626261F
:100BE000261C0126262626261C13011C1C1C1C1C48
:100BF0001313011C1C1C1C1C1313011C1C1C1C1398
:100C00001313011C131C131C1313011313131313BD
:100C100013130101010101010101012626262626E7
:100C200026262626261C1C1C1C1C1C26261C1C1CBE
:100C30001C1C1C26261C1C1C1C1C1C26261C1C1CCC
:100C40001C131C261C1313131313131C131313133D
:100C50001313130101010101010101261C012626C4
:100C6000261C011C1301261C1C13011C1301261C2D
:100C7000131301131301261C1313011C1301261C4B
:100C80001313011313011C131313011313011C136A
:100C900013130101010101010101010B0B0B0B0AEF
:100CA0000B0B140B0B140B0B0B0B0A140B0A0A0B7C
:100CB0000B0B0B0A0B0B140B0B0B0B0B0B0B0A0B7D
:100CC0000B0B140B140B0B0B140B0A0B0B0B0B0B5A
:100CD0000A0B0B0B0A0B0A140B0B0B0A0B0B0B0A60
:100CE0000B0B140B0B140B0B0B0B0A140B0A0B0B3B
:100CF0000B0B0A0A0B0B140B0B0B0B0B0B0B0A0B3E
:100D00000B0B140B140B0B0B140B0A0B0B0B0B0B19
:100D10000A0B0B0B0A0B0B140B0B0B0B0B0A0B0A1E
:100D20000B0B140B0B140B0B0B0B0A140B0A0B0BFA
:100D30000B0B0B0A0B0B140B0B0B0B0B0B0B0A0BFC
:100D40000B0B140B140B0B0B140B0A0B0A0B0B0BDA
:100D50000A0B0B0B0A0B0B140B0B0B0B0B0B0B0ADD
:100D60000B0A140B0B140B0B0B0B0A140B0A0B0BBB
:100D70000B0B0B0A0A0B140B0B0B0B0B0B0B0A0BBD
:100D80000A0B140B140B0B0B140B0A0B0B0B0B0B9A
:100D90000A0B0B0B0A0B0B140A0B0B0000000000D4
:100DA00000000000080808080808080008111111D0
:100DB0001111110008111111121111000811121254
:100DC0001212120008111111121111000811121241
:100DD000121212000811111111111100000000006F
:100DE000000000080808080808080811111111116E
:100DF00011111111111112111111111112121212DE
:100E000012111111111112111111111112121212CC
:100E100012111111111111111111110008111212D9
:100E200012121200081112111111120008111212DF
:100E300012121200081111111211110008111212D0
:100E400012121200081111111211110008111212C0
:100E50001212120008111111111111111212121295
:100E6000121111111211111112111111121212126B
:100E7000121111111111121111111111121212125C
:100E8000121111111111121111111111121212124C
:100E90001211111111111111111111000000000096
:100EA00000000000080808080808080008111111CF
:100EB0001111110008111111121111000811121253
:100EC000121212000811111112113F000811121212
:100ED000123F3F00081111113F3F3F00000000008A
:100EE000000000080808080808080811111111116D
:100EF00011111111111112111111111112121212DD
:100F00001211113F111112111111113F3F12121242
:100F10001211113F3F3F111111111100081112124E
:100F20003F3F3F0008111211113F3F0008111212FC
:100F300012123F00081111111211110008111212A2
:100F400012121200081111111211110008111212BF
:100F500012121200081111111111113F3F3F12120C
:100F60001211113F3F1111111211113F12121212E1
:100F7000121111111111121111111111121212125B
:100F8000121111111111121111111111121212124B
:100F9000121111111111111111111108080808086D
:100FA00008080808F6F6F6F6F6F6F608F6ADADAD62
:100FB000AD5A5A08F6ADAD5A5AAD5A08F6AD5AAD0B
:100FC000AD5A5A08F6AD5AAD5AADAD08F65AAD5AFB
:100FD000AD5A0808F65A5A5AAD08AD08080808086C
:100FE000080808F6F6F6F6F6AD5A085AADADADADFE
:100FF000AD5A08AD5A5AADADAD5A085AADAD5AAD5D
:10100000AD5A08AD5AAD5AADAD5A085AAD5AAD5A9F
:10101000AD5A0808AD5A5A5AAD5A0808F65AAD5A90
:10102000AD5A0808F6AD5AAD5AADAD08F6AD5AAD99
:10103000AD5A5A08F6ADAD5A5AAD5A08F6ADADAD37
:10104000AD5A5A08F6ADADADADADAD08AD5A5A5A70
:101050005A5A5A08080808080808085AAD5AAD5ADA
:10106000AD5A08AD5AAD5AADAD5A085AADAD5AADEC
:10107000AD5A08AD5A5AADADAD5A085AADADADAD89
:10108000AD5A08ADADADADAD5A5A085A5A5A5A5A72
:101090005A080808080808080808080101010101A1
:1010A000010101011717171717171701170707076E
:1010B00007020201170707020207020117070207CA
:1010C00007020201170702070207070117020702BA
:1010D00007020201170202020702070101010101D2
:1010E0000101011717171717070201020707070762
:1010F00007020107020207070702010207070207AA
:10110000070201070207020707020102070207029E
:101110000702010207020202070201011702070289
:101120000702020117070207020707011707020754
:101130000702020117070702020702011707070744
:101140000702020117070707070707010702020244
:10115000020202010101010101010102070207026D
:101160000702010702070207070201020707020739
:101170000702010702020707070201020707070724
:101180000702010707070707020201020202020223
:10119000020101010101010101010125252525258A
:1011A0002525251C252525252525251C1C1C251C1C
:1011B0002525251C1C1C251C2525251C1C1C251C27
:1011C0002525251C1C1C251C2525251C1C1C251C17
:1011D0002525251C1C1C251C2525252525252525E3
:1011E000251C00252525251C1C13001C1C1C1C135C
:1011F0000A00001C131C13130A00001C131C1313F9
:101200000A00001C131C13130A00001C131C1313E8
:101210000A00001C131C13130A00001C1C1C251CB4
:101220002525251C1C1C251C2525251C1C1C251CB6
:101230002525251C1C1C251C2525251C1C1C251CA6
:101240002525251C1C1C13131313131C1313131314
:1012500013131300000000000000001C131C1313E4
:101260000A00001C131C13130A00001C131C131388
:101270000A00001C131C13130A00001C131C131378
:101280000A000013131C13130A0000131313131383
:101290000A00000000000000000000515B515B519B
:1012A000515B5B5B51515B5151515B515B5B5B51DE
:1012B000515B51515B5B51515B51515B5B515B5BCE
:1012C000515B5B515B5B515B5B5B51515B515B5BAA
:1012D000515B5B515B5B5B515B515B51515B5151AE
:1012E0005B515151515B515B5B5B515B5B5B5B5B8A
:1012F0005B5B5B515B5151515B51515B5B515B518E
:101300005B51515B5B515B515B5B5B5B5B5B515169
:10131000515151515B5B5B5B5B5B5B5B51515B5B59
:10132000515B5B5B5B51515B5B5B51515B5B5B5B3F
:10133000515B5B5B515B5B51515B515B5B5B515B39
:10134000515B5151515B5B5B515B5B515B5B5B5133
:101350005B5B5B515B5B51515B5B515B5B515B5B0F
:101360005151515B515B5B51515B5B5B5B5B51511D
:101370005B5B515B515B5B5B515B515B5B515B51F9
:1013800051515B5B5B515B515B5B5B5B515B515BE9
:101390005151515B51515B515B5B5149494949493D
:1013A000494949DADADADADADADADADADADADADA50
:1013B000DADADADADAEBEBEBEBEBEBDADAEBEBEBF4
:1013C000EBF4F4DADAEBEBEBF4F4F4DADAEBEBF47B
:1013D000F4F4EBDADAEBF4F4F4EBF4494949494973
:1013E000494949DADADADADADADA49DADADADADAA1
:1013F000DADA49EBEBEBEBEBEBEB49F4EBF4F4EB88
:10140000EBEB49EBF4F4EBEBEBF449F4F4EBEBEB43
:10141000F4F449F4EBEBEBF4F4F449DADAEBF4F43A
:10142000EBF4F4DADAEBF4EBF4F4EBDADAEBEBF41A
:10143000F4EBEBDADAEBF4F4EBEBEBDADAEBF4EB1C
:10144000EBEBF4DADAEBEBEBEBF4F4DADAEBEBEB15
:10145000F4F4F4DADAEBEBF4F4F4EBEBEBEBF4F4B6
:10146000F4EB49EBEBF4F4F4EBEB49EBF4F4F4EBD1
:10147000EBEB49F4F4F4EBEBEBEB49F4F4EBEBEBD3
:10148000EBEB49F4EBEBEBEBEBEB49EBEBEBEBEBE7
:10149000EBEB49EBEBEBEBEBEBEB4949494949490A
:1014A000494949DADADADADADADADADADADADADA4F
:1014B000DADADADADAEBEBEBEBEBEBDADAEBEBEBF3
:1014C000EBF4F4DADAEBEBEBF43F3FDADAEBEBF4E4
:1014D0003F3F3FDADAEBF43F3F3F3F494949494953
:1014E000494949DADADADADADADA49DADADADADAA0
:1014F000DADA49EBEBEBEBEBEBEB49F4EBF4F4EB87
:10150000EBEB49EBF4F4EBEBEBF4493FF4EBEBEBF7
:10151000F4F4493F3FEBEBF4F4F449DADAEBF43F4F
:101520003F3F3FDADAEBF4EB3F3F3FDADAEBEBF445
:10153000F43F3FDADAEBF4F4EBEBEBDADAEBF4EB73
:10154000EBEBF4DADAEBEBEBEBF4F4DADAEBEBEB14
:10155000F4F4F4DADAEBEBF4F4F4EB3F3FEBF4F40D
:10156000F4EB493FEBF4F4F4EBEB49EBF4F4F4EB7C
:10157000EBEB49F4F4F4EBEBEBEB49F4F4EBEBEBD2
:10158000EBEB49F4EBEBEBEBEBEB49EBEBEBEBEBE6
:10159000EBEB49EBEBEBEBEBEBEB49494949494909
:1015A00049494949FFFFFFFFFFFFFF49FFADADADCF
:1015B000ADADAD49FFADADADADADAD49FFADADAD7F
:1015C000ADADAD49FFADADADADADAD49FFADADAD6F
:1015D000ADADAD49AD9B9B9B9B9B9B4949494949FF
:1015E000494949FFFFFFFFFFFFAD499BADADADADE1
:1015F000AD9B499BADADADADAD9B499BADADADAD2B
:10160000AD9B499BADADADADAD9B499BADADADAD1A
:10161000AD9B499B9B9B9B9B9B9B4949FFADADAD64
:10162000ADADAD49FFADADADADADAD49FFADADAD0E
:10163000ADADAD49FFADADADADADAD49FFADADADFE
:10164000ADADAD49FFADADADADADAD49AD9B9B9B76
:101650009B9B9B49494949494949499BADADADAD22
:10166000AD9B499BADADADADAD9B499BADADADADBA
:10167000AD9B499BADADADADAD9B499BADADADADAA
:10168000AD9B499BADADADADAD9B499B9B9B9B9BE2
:101690009B9B49494949494949494901010101017E
:1016A000010101011717171717171701170606066B
:1016B00006060601170606060606060117060606B2
:1016C00006060601170606060606060117060606A2
:1016D00006060601060202020202020101010101E0
:1016E000010101171717171717060102060606064C
:1016F00006020102060606060602010206060606A4
:101700000602010206060606060201020606060693
:101710000602010202020202020201011706060687
:101720000606060117060606060606011706060641
:101730000606060117060606060606011706060631
:10174000060606011706060606060601060202023E
:101750000202020101010101010101020606060661
:101760000602010206060606060201020606060633
:101770000602010206060606060201020606060623
:101780000602010206060606060201020202020223
:101790000202010101010101010101E4E4E4E4E4C8
:1017A000E4E4E4E4E4E4DBE4DBE4DBE4E4DBE4DB26
:1017B000DBDBE4E4DBDBDBDBDBDBDBE4E4DBDBDB55
:1017C000DB92DBE4DBDB92DB92DB92DB92929292A8
:1017D0009292928989898989898989E4E4E4E4E497
:1017E000E4DB89E4DBE4DBE4DB9289DBDBDBE4DB09
:1017F000929289DBDBDBDBDBDB9289DB92DB92DB4A
:10180000929289DBDB92DB92DB92899292929292A6
:101810009292898989898989898989E4E4E4E4E45F
:10182000E4DB89E4DBE4DBE4DB9289DBDBDBE4DBC8
:10183000929289DBDB92DB92DB9289DB92DB92DB9B
:10184000929289DBDB92DB92DB9289929292929266
:101850009292898989898989898989E4E4E4E4E41F
:10186000E4E4E4E4E4E4DBE4DBE4DBE4E4DBE4DB65
:10187000DBDBE4E4DBDBDBDBDBDBDBE4E492DB9226
:10188000DB92DBE4DBDB92DB92DB92DB92929292E7
:1018900092929289898989898989891818181810DA
:1018A00018181A18101A18181818101A18101810D2
:1018B00018181A1018181A181818181818181018B4
:1018C00018181A181A1818181A181018181818189A
:1018D00010181818101A181A1818101818181810A4
:1018E00018181A18181A18181818101A1810181882
:1018F0001818181018181A1018181818181810187E
:1019000018181A181A1818101A1810181818181861
:10191000101818181018181A18181818181818105D
:1019200018181A18181A18181818101A1810181841
:101930001810181018181A10181818181818101845
:1019400010181A181A1818181A1810181818181821
:10195000101818181018181A18181818181818101D
:1019600018181A18101A1818181A101A1810181807
:101970001018181018181A181818181818181018FD
:1019800018181A1A1A1818181A18101A18181818D5
:10199000101018181018181A181818000000000055
:1019A00000000000525252525252520052494949CC
:1019B0004949490052494949494949000000000044
:1019C000000000525252524952525249494949006C
:1019D000524949494949490052494900000000001B
:1019E0000000004952525252525252005249494943
:1019F0004949490052494949494949000000000004
:101A0000000000525252524952525249494949002B
:101A10005249494949494900524949490000000091
:101A20000000004952525252525252005249494902
:101A300049494900524949494949490000000000C3
:101A400000000052525252495252524949494900EB
:101A50005249494949494900524949000000004951
:101A600000000049525252525252520052494949C2
:101A70004949490052494949494949000000000083
:101A800000000052525252495252524949494900AB
:101A9000524949494949490052494900000000005A
:101AA0000000004952525252525252005249494982
:101AB0004949490052494949494949000000000043
:101AC0000000005252525249525237494949490086
:101AD000523737494949490037373700000000007D
:101AE0000000004952525252525252005249494942
:101AF0004949490052494949494949000000000003
:101B00000000003752525249525252373749490069
:101B1000524949373737490052494900000000000F
:101B20003737374952525252523737005249494992
:101B300049493700524949494949490000000000D4
:101B400000000052525252495252524949494900EA
:101B500052494949494949005249493737370000F4
:101B600000000037375252525252523752494949B7
:101B70004949490052494949494949000000000082
:101B800000000052525252495252524949494900AA
:101B900052494949494949005249490A0A0A0A0A27
:101BA0000A0A0A0A661466666666660A140A0A0A59
:101BB0000A0A0A0A660A1D661D141D0A660A0A1D1B
:101BC00066141D0A660A1D0A1D661D0A660A1D1492
:101BD0000A1D660A660A1D141D661D0A0A0A0A0AFB
:101BE0000A0A0A666666660A66140A0A0A0A0A0A7F
:101BF000140A0A141D661D0A66140A14661D0A0AD0
:101C000066140A661D0A1D0A66140A1D0A141D0AB6
:101C100066140A0A1D141D0A66140A0A660A1D14AF
:101C2000661D0A0A660A1D661D0A1D0A660A661DE9
:101C30000A141D0A660A1D0A1D141D0A140A0A0A3E
:101C40000A0A0A0A661466666666660A140A1414A4
:101C50001414140A0A0A0A0A0A0A0A1D66141D0A3A
:101C600066140A0A1D661D0A66140A140A1D660A0D
:101C700066140A141D0A1D0A66140A0A0A0A0A0AC8
:101C8000140A0A666666661466140A141414140AA2
:101C900014140A0A0A0A0A0A0A0A0A0101010101BD
:101CA000010101011702171717171701020101019E
:101CB00001010101170106170602060117010106BD
:101CC0001702060117010601061706011701060291
:101CD000010617011701060206170601010101019D
:101CE0000101011717171701170201010101010175
:101CF000020101020617060117020102170601017F
:101D0000170201170601060117020106010206016A
:101D1000170201010602060117020101170106025E
:101D2000170601011701061706010601170117061C
:101D30000102060117010601060206010201010166
:101D400001010101170217171717170102010202FB
:101D5000020202010101010101010106170206014F
:101D600017020101061706011702010201061701F9
:101D7000170201020601060117020101010101011A
:101D800002010117171717021702010202020201CE
:101D90000202010101010101010101646464646442
:101DA000646464646464646464646464645B5B5B0E
:101DB0005B5B5B64645B5B5B5B5B5B64645B5B5B4F
:101DC0005B5B5B645B5B5B5B5B5B5B5B09090909A2
:101DD00009090909090909090909096464646464AC
:101DE00064641264646464645B12125B5B5B5B5BDF
:101DF0005B12125B5B5B5B5B5B12125B5B5B5B5B57
:101E00005B12125B5B5B5B5B5B12120909090909E0
:101E10000912120909090909090912646464646450
:101E2000646412646464645B5B12125B5B5B5B5BA7
:101E30005B12125B5B5B5B5B5B12125B5B5B5B5B16
:101E40005B12125B5B5B5B5B5B12120909090909A0
:101E50000912120909090909090912646464646410
:101E6000646464646464646464646464645B5B5B4D
:101E70005B5B5B64645B5B5B5B5B5B645B5B5B5B97
:101E80005B5B5B645B5B5B5B5B5B5B5B09090909E1
:101E90000909090909090909090909FFFFFFFFFFE4
:101EA000FFFFFFFFFFFFFFFFFFFFFF5B5B5B5B5B76
:101EB0005B5B5B8080808080808080808080808091
:101EC000808080C0C0C0C0C0C0C0C0C0C0C0C0C0D2
:101ED000C0C0C0C0C0C0C0C0C0C0C0C0C0C0C0C002
:101EE000C0C0C0C0C0C0C0C0C0C0C0C0C0C0C0C0F2
:101EF000C0C0C0C0C0C0C0C0C0C0C0C0C0C0C0C0E2
:101F0000C0C0C0FFFFFFFFFFFFFFFFFFFFFFFFFF9E
:101F1000FFFFFF5B5B5B5B5B5B5B5BFFFF5B808093
:101F2000C0C0C0FFFF5B8080C0C0C0FFFF5B80807F
:101F3000C0C0C0FFFF5B8080C0C0C0FFFF5B80806F
:101F4000C0C0C0FFFF5B8080C0C0C0FFFF5B80805F
:101F5000C0C0C0FFFF5B8080C0C0C0C0C0C0C0C0E8
:101F6000FFFF5BC0C0C0C0C0FFFF5BC0C0C0C0C03F
:101F7000FFFF5BC0C0C0C0C0FFFF5BC0C0C0C0C02F
:101F8000FFFF5BC0C0C0C0C0FFFF5BC0C0C0C0C01F
:101F9000FFFF5BC0C0C0C0C0FFFF5BFFFF008080D1
:101FA000C0C0C0FF00F60000C0C0C0FF00F6F6F6DB
:101FB00000C0C0FF00F6F6F6F600C0FF00F6F6F629
:101FC00000C0C0FF00F60000C0C0C0FFFF0080805E
:101FD000C0C0C0FFFF5B8080C0C0C00000FFFFFF2B
:101FE000FFFFFF00FFFFFFFFFFFFFFFFFFFFFFFF00
:101FF0005B5B5BFFFFFF5B5B808080FFFF5B5B8069
:10200000808080FFFF5B808080C0C0FFFF5B80809E
:10201000C0C0C0FFFF5B8080C0C0C0FFFFFFFFFFEC
:102020005B0000FFFFFFFFFF5B5B005B5B5BFFFF95
:10203000FF5B5B8080805B5BFFFF5B808080805B01
:10204000FFFF5BC0C0C0C080FFFF5BC0C0C0C0C09E
:10205000FFFF5BC0C0C0C0C0FFFF5BFFFF5B8080B5
:10206000C0C0C0FFFF5B8080C0C0C0FFFF5B80803E
:10207000C0C0C0FFFF5B5B80C0C0C0FFFFFF5B5BF9
:1020800080C0C0FFFFFFFFFFFFFFFF00FFFFFFFF5C
:10209000FFFFFF00005B5B5B5B5B5BC0C0C0C0C061
:1020A000FFFF5BC0C0C0C0C0FFFF5BC0C0C0C0C0FE
:1020B000FFFF5BC0C0C0C0FFFFFF5BC0C0C0FFFF31
:1020C000FFFF5BFFFFFFFFFFFF5B5BFFFFFFFFFF0C
:1020D0005B5B005B5B5B5B5B5B0000000000000028
:1020E00000000000000000000000000000000000F0
:1020F00000000000000000000000000000000000E0
:1021000000000000000000000000000000000000CF
:102110000000000000000000000000C0C0C0C0C0FF
:10212000C0C0C0C0C0C0C0C0C0C0C0C0C0C0C0C0AF
:10213000C0C0C0C0C0C0C0C0C0C0C0C0C0C0C0C09F
:10214000C0C0C0C0C0C0C0C0C0C0C0C0C0C0C0C08F
:10215000C0C0C0C0C0C0C0C0C0C0C0C0C0FFFFFFC2
:1021600080C0C0C0C0FFFFFF80C0C0C0C0FFFFFF75
:1021700080C0C0C0C0FFFF8080C0C0C0C0FFFF8063
:10218000C0C0C0C0C0808080C0C0C0C0C0FFFF80D1
:10219000C0C0C0C0C0C0C0C0C0C0C0C0C0C0C0C03F
:1021A000C0C0C0C0C0C0FFC0C0C0C0C0FFC0FFC072
:1021B000FFC0C0C0C0FFFFFFC0C0C0C0FFC0FFC0A5
:1021C000FFC0C0C0C0C0FFC0C0C0C0C0C0C0C0C091
:1021D000C0C0C0C0C0C0C0C0C0C0C0C0C0C0C0C0FF
:1021E000C0C0C0C0C0C0C0C0C0C0C0C0C0C0C0C0EF
:1021F000C0C0C0C0FFFFFFFFFFC0C0C0C0C0C0C0A4
:10220000C0C0C0C0C0C0C0C0C0C0C0C0C0C0C0C0CE
:10221000C0C0C0C0C0C0C0C0C0C0C0C0C0FFFFFF01
:10222000C0C0C0C0FF8080FFFFC0C0FFFF80C08073
:10223000FFFFC0FFFF80C0C0FFFFC0FFFF80C0C026
:10224000FFFFC0C0FFFF80C0FF80C0C0C0FFFFFF16
:1022500080C0C0C0C0C0C0C0C0C0C0C0C0C0FFFF40
:10226000C0C0C0C0C0FFFFFF80C0C0C0C0C0FFFF73
:1022700080C0C0C0C0C0FFFF80C0C0C0C0C0FFFFE2
:1022800080C0C0C0C0C0FFFF80C0C0C0FFFFFFFF54
:10229000FFFFC0C0C0808080808080C0FFFFFFFF44
:1022A000FF80C0FFFFC0C0C0FFFF80C0C0C0C0FF34
:1022B000FFFF80C0C0FFFFFFFF80C0C0FFFFFFFF28
:1022C00080C0C0FFFFFF8080C0C0C0FFFFFFFFFFD6
:1022D000FFFFC0C080808080808080C0FFFFFFFF44
:1022E000FFFFC0C0C08080FFFF80C0C0C0C0FFFF34
:1022F00080C0C0C0C0FFFFFFFFC0C0C0C0C0C0C022
:10230000FFFFC0FFFFC0C0C0FFFFC0C0FFFFFFFF57
:10231000FF80C0C0C080808080C0C0C0C0C0FFFF40
:10232000FF80C0C0C0FFFFFFFF80C0C0FFFF80FF75
:10233000FF80C0FFFF80C0FFFF80C0FFFFFFFFFFE7
:10234000FFFFC0C0808080FFFF8080C0C0C0C0FF92
:10235000FF80C0C0C0C0C0C08080C0FFFFFFFFFFC3
:10236000FFC0C0FFFF80808080C0C0FFFFFFFFFF75
:10237000FFC0C0C080808080FFFFC0C0C0C0C080E0
:10238000FFFFC0FFFFC0C080FFFFC0C0FFFFFFFF17
:10239000FFC0C0C08080808080C0C0C0C0FFFFFF81
:1023A000FFC0C0C0FFFF8080C0C0C0FFFF80C0C0B2
:1023B000C0C0C0FFFFFFFFFFFFC0C0FFFF808080E5
:1023C000FFFFC0FFFF80C0C0FFFFC0C0FFFFFFFFD7
:1023D000FF80C0C0C080808080C0C0FFFFFFFFFFC3
:1023E000FFFFC0FFFF808080FFFFC0C0C0C0C0FFF4
:1023F000FF80C0C0C0C0FFFF80C0C0C0C0FFFF8062
:10240000C0C0C0C0C0FFFF80C0C0C0C0C0FFFF8050
:10241000C0C0C0C0C0C0C0C0C0C0C0C0FFFFFFFFC0
:10242000C0C0C0FFFF808080FFC0C0FFFFFF80C032
:10243000FFC0C0C0FFFFFFFFC0C0C0FF8080FFFF24
:10244000FFFFC0FF80C0C0C0FFFFC0C0FFFFFFFF95
:10245000FF80C0C0C0C0C0C0C0C0C0C0FFFFFFFF81
:10246000FFC0C0FFFF808080FFFFC0FFFF80C0C0B3
:10247000FFFFC0C0FFFFFFFFFFFFC0C0C0C0C0C064
:10248000FFFFC0C0C0C0C0FFFF80C0C0FFFFFFFF94
:1024900080C0C0C0C0808080C0C0C0C0C0FFFFFF7F
:1024A00080C0C0C0FFFF80FFFF80C0FFFF80C080F2
:1024B000FFFFC0FFFF80C0C0FFFF80FFFFFFFFFFE7
:1024C000FFFF80FFFF808080FFFF80FFFF80C0C094
:1024D000FFFF80808080C0C0C08080FFFFFFFFFFC3
:1024E000FFC0C0FFFF808080FFFFC0FFFF80C0C033
:1024F000FFFFC0FFFFFFFFFFFF80C0FFFF80808066
:10250000FFFFC0FFFF80C0C0FFFFC0FFFFFFFFFF56
:10251000FF80C0C08080808080C0C0C0C0FFFFFF3F
:10252000FF80C0C0FFFF8080FFFFC0FFFF80C0C0F2
:10253000C0C0C0FFFF80C0C0C0C0C0FFFF80C0C01F
:10254000C0C0C0C0FFFF8080FFFFC0C080FFFFFF92
:10255000FF80C0C0C080808080C0C0FFFFFFFFFF41
:1025600080C0C0FFFF8080FFFF80C0FFFF80C0C031
:10257000FFFFC0FFFF80C0C0FFFFC0FFFF80C0C0E3
:10258000FFFFC0FFFF80C0FFFF80C0FFFFFFFFFF16
:1025900080C0C0C080808080C0C0C0FFFFFFFFFF40
:1025A000FFFFC0FFFF80808080C0C0FFFF80C0C0F1
:1025B000C0C0C0FFFFFFFFFFFFC0C0FFFF808080E3
:1025C000C0C0C0FFFF80C0C0C0C0C0FFFFFFFFFF92
:1025D000FFFFC0C0808080808080C0FFFFFFFFFFC2
:1025E000FFFFC0FFFF80808080C0C0FFFF80C0C0B1
:1025F000C0C0C0FFFFFFFFFFFFC0C0FFFF808080A3
:10260000C0C0C0FFFF80C0C0C0C0C0FFFF80C0C04E
:10261000C0C0C0C0C0C0C0C0C0C0C0C0C0FFFFFFFD
:10262000FFFFC0C0FFFF808080C0C0FFFF80C0C030
:10263000C0C0C0FFFF80C0FFFFFFC0FFFF80C080A1
:10264000FFFFC0C0FFFF8080FFFFC0C0C0FFFFFFD3
:10265000FF80C0C0C0C0C0C0C0C0C0FFFFC0C0C0FD
:10266000FFFFC0FFFF80C0C0FFFF80FFFF80C0C032
:10267000FFFF80FFFFFFFFFFFFFF80FFFF808080E5
:10268000FFFF80FFFF80C0C0FFFF80FFFF80C0C052
:10269000FFFF80C08080C0C0C08080C0FFFFFFFF00
:1026A000FFFFC0C0C0C0FFFF80C0C0C0C0C0FFFFF0
:1026B00080C0C0C0C0C0FFFF80C0C0C0C0C0FFFF9E
:1026C00080C0C0C0C0C0FFFF80C0C0C0FFFFFFFF10
:1026D000FFFFC0C0C08080808080C0C0C0C0FFFF3E
:1026E000FFFF80C0C0C0C0FFFF80C0C0C0C0C0FF2F
:1026F000FF80C0C0C0C0C0FFFF80C0C0C0C0C0FF5E
:10270000FF80C0FFC0C0C0FFFF80C0C0FFFFFFFF51
:1027100080C0C0C0C080808080C0C0FFFFC0C0C07B
:10272000FFFFC0FFFF80C0FFFF80C0FFFF80FFFFF3
:1027300080C0C0FFFFFFFF80C0C0C0FFFFFFFFFFE2
:10274000C0C0C0FFFF80FFFFFFC0C0FFFF80C0FF11
:10275000FFFFC0C08080C0C08080C0C0FFFFC0C07D
:10276000C0C0C0C0FFFF80C0C0C0C0C0FFFF80C0ED
:10277000C0C0C0C0FFFF80C0C0C0C0C0FFFF80C0DD
:10278000C0C0C0C0FFFF80C0C0C0C0C0FFFFFFFF0F
:10279000FFFFC0C0C08080808080C0FFFF80C0C0BD
:1027A000FFFFC0FFFFFF80FFFFFF80FFFFFFFFFF76
:1027B000FFFF80FFFFFFFFFFFFFF80FFFF80FF8025
:1027C000FFFF80FFFF80C0C0FFFF80FFFF80C0C011
:1027D000FFFF80C08080C0C0C08080FFFFC0C0C03D
:1027E000FFFFC0FFFFFF80C0FFFF80FFFFFFFF80F4
:1027F000FFFF80FFFFFFFFFFFFFF80FFFF80FFFF66
:10280000FFFF80FFFF80C0FFFFFF80FFFF80C0C091
:10281000FFFF80C08080C0C0C08080C0FFFFFFFF7E
:10282000FFC0C0FFFF808080FFFFC0FFFF80C0C0EF
:10283000FFFFC0FFFF80C0C0FFFFC0FFFF80C0C020
:10284000FFFFC0FFFF80C0C0FFFFC0C0FFFFFFFF52
:10285000FF80C0C0C080808080C0C0FFFFFFFFFF3E
:10286000FFC0C0FFFF808080FFFFC0FFFF80C0C0AF
:10287000FFFFC0FFFF80C0C0FFFFC0FFFFFFFFFFE3
:10288000FF80C0FFFF80C0C0C0C0C0FFFF80C0C0CD
:10289000C0C0C0C0C0C0C0C0C0C0C0C0FFFFFFFF3C
:1028A000FFC0C0FFFF80C0C0FFFFC0FFFF80C0C0EF
:1028B000FFFFC0FFFF80C0C0FFFFC0FFFF80FFFF22
:1028C000FFFFC0FFFF80C0FFFF80C0C0FFFFFFFF12
:1028D00080FFC0C0C0C0C0C0C0C0C0FFFFFFFFFFBE
:1028E000FFC0C0FFFF808080FFFFC0FFFF80C0C02F
:1028F000FFFFC0FFFF80C0FFFFFFC0FFFFFFFFFF24
:1029000080C0C0FFFF80FFFFFF80C0FFFF80C0FFCF
:10291000FFFF80C0C0C0C0C0C0C0C0C0FFFFFFFF7D
:1029200080C0C0FFFF8080FFFFC0C0FFFF80C0C02D
:10293000C0C0C0C0FFFFFFFFFFC0C0C0C0C08080DC
:10294000FFFFC0FFFFC0C0C0FFFFC0C0FFFFFFFF11
:10295000FF80C0C0C0C0C0C0C0C0C0FFFFFFFFFF3D
:10296000FF80C0C0C0FFFF80C0C0C0C0C0FFFF80EC
:10297000C0C0C0C0C0FFFF80C0C0C0C0C0FFFF80DB
:10298000C0C0C0C0C0FFFF80C0C0C0C0C0FFFF80CB
:10299000C0C0C0C0C0C0C0C0C0C0C0FFFF80C0C0F9
:1029A000FFFF80FFFF80C0C0FFFF80FFFF80C0C02F
:1029B000FFFF80FFFF80C0C0FFFF80FFFF80C0C01F
:1029C000FFFF80FFFF808080FFFF80C0FFFFFFFFD1
:1029D000FF80C0C0C0C0C0C0C0C0C0FFFF80C0C0BA
:1029E000FFFF80FFFF80C0C0FFFF80FFFF80C0C0EF
:1029F000FFFF80FFFFFF80FFFFFF80C0FFFFFFFFA3
:102A0000FF80C0C0C0FFFFFF80C0C0C0C0C0FF804B
:102A1000C0C0C0C0C0C0C0C0C0C0C0FFFFC0C0C038
:102A2000FFFFC0FFFF80C0C0FFFF80FFFF80FF806F
:102A3000FFFF80FFFFFFFFFFFFFF80FFFFFFFFFFA4
:102A4000FFFF80FFFFFF80FFFFFF80FFFF80C08050
:102A5000FFFF80C080C0C0C0C08080FFFF80C0C0BA
:102A6000FFFF80FFFFFF80FFFFFF80C0FFFFFFFF32
:102A7000FF80C0C0C0FFFFFF80C0C0C0FFFFFFFFDE
:102A8000FF80C0FFFFFF80FFFFFF80FFFF80C0C00F
:102A9000FFFF80C0C0C0C0C0C0C0C0C0FFFF80C0BA
:102AA000FFFF80C0FFFF80C0FFFF80C0FFFF80C02E
:102AB000FFFF80C0C0FFFFFFFF80C0C0C0C0FFFF9E
:102AC00080C0C0C0C0C0FFFF80C0C0C0C0C0FFFF8A
:102AD00080C0C0C0C0C0C08080C0C0FFFFFFFFFF7B
:102AE000FFFF80C0808080FFFFFF80C0C0C0FFFF6D
:102AF000FF80C0C0C0FFFFFF80C0C0C0FFFFFF80DD
:102B0000C0C0C0FFFFFF80C0C0C0C0FFFFFFFFFF0D
:102B1000FFFF80C0808080808080800000008282F3
:102B200082828200008207070707070082070707E3
:102B3000070707821717171717171782171717177F
:102B4000171782821F1F1F1F1F1F8200821F1F1F38
:102B50001F1F820000822727272782828200000011
:102B600000000082078282000000008207070782BF
:102B700000000082171717820000001717828200DA
:102B80000000001F820000000000001F8200000003
:102B90000000002727820000000000000000000065
:102BA000008282000000000082070700000082828D
:102BB00007070700008282171717170000821717F0
:102BC0001717170082821F1F1F1F1F00821F1F1F42
:102BD0001F1F1F82822727272727278282828200A2
:102BE000000000078207078200000007820707072E
:102BF00082000017821717171782008217171717FE
:102C0000178200821F1F1F1F1F1F82821F1F1F1F6F
:102C10001F1F828227272727272782000000000006
:102C20008282820000000082070707000000008205
:102C3000070707000000008217171700000082171F
:102C4000171717000000821F1F1F1F000000821FA0
:102C50001F1F1F000000822727272782828282826F
:102C60008282000782070707070782078207070794
:102C70000782001782171717178200821717171776
:102C8000820000821F1F1F1F820000821F1F1F82E1
:102C900000000082272727820000000000000000BB
:102CA0008282820000000082070707000000008285
:102CB000070707000000008217171700000082179F
:102CC000171782000000821F1F1F82000000821F52
:102CD0001F1F8200000082272727828282828200B3
:102CE000000000820707078200000082070707072D
:102CF0008200008217171717178200171717171768
:102D00001782001F1F1F1F1F1F82001F1F1F1F1F53
:102D10008200002727272782000000000000000013
:102D2000008282000000000082070700000000000F
:102D300082070700000000008217170000000082D1
:102D400017178200000000821F1F8200000000820F
:102D50001F1F8200000082822727828282000000DB
:102D6000000000820782000000000082078200004D
:102D70000000008217820000000000171717820071
:102D80000000001F1F1F82000000001F1F1F820085
:102D900000000027272782820000000000000000BA
:102DA0008282820000000082070707000000008284
:102DB00007070700000000821717170000000082B5
:102DC000171717000000821F821F1F000000821FBC
:102DD000821F1F000082272782272782008282828B
:102DE0008282000782070707070782078207070713
:102DF000070782178217171717828217821717176C
:102E00001782001F1F821F1F8282001F1F821F1F29
:102E1000820000272782278282000000000082278C
:102E20002782270000000082278227000000822FCF
:102E30002F822F0000822F2F2F822F00822F2F2FE3
:102E4000822F2F00823F3F3F823F3F0000823F3F63
:102E5000823F3F00000082828282822727278200F1
:102E600000000027272727820000002F2F2F2F2F59
:102E70008200002F2F2F2F2F8200002F2F2F2F2F78
:102E80008200003F3F3F3F820000003F3F3F820003
:102E9000000000828282000000000082272727278E
:102EA0002727828227272727272782822F2F2F2F26
:102EB0002F2F8200822F2F2F2F2F8200822F2F2F34
:102EC0002F822F0000823F3F3F823F000000823F61
:102ED0003F823F0000000082828282272727272727
:102EE00027278227272727272782822F2F2F2F2F39
:102EF0002F82002F2F2F2F2F2F82002F2F2F2F2F9A
:102F00008200003F3F3F3F820000003F3F8282003F
:102F100000000082820000000000000000822727DD
:102F200027278200008227272727820000822F2F51
:102F30002F2F820082822F2F2F2F8200822F2F2F60
:102F40002F822F00823F3F3F3F823F00823F3F3F23
:102F50003F823F0000828282828282272782820013
:102F600000000027278200000000002F2F2F820082
:102F70000000002F2F2F82000000002F2F2F2F8204
:102F80000000003F3F3F3F828200003F3F3F3F3F06
:102F9000820000828282828200000000000082277C
:102FA0002782270000008227278227000000822F27
:102FB0002F822F000000822F2F822F0000822F2FC0
:102FC000822F2F0000823F3F823F3F0000823F3F21
:102FD000823F3F0000828282828282272782820093
:102FE00000000027272727820000002F2F2F2F2FD8
:102FF0008200002F2F2F2F2F8200002F2F2F2F2FF7
:103000008200003F3F3F3F3F8200003F3F3F3F8203
:1030100000000082828282000000000000008227FF
:103020002782270000008227278227000000822FA6
:103030002F822F000082822F2F822F0000822F2FBD
:10304000822F2F0000823F3F823F3F0000823F3FA0
:10305000823F3F00000082828282822727272782C8
:1030600000000027272727820000002F2F2F2F8204
:103070000000002F2F2F2F828200002F2F2F2F2FA5
:103080008200003F3F3F3F3F8200003F3F3F3F3FC6
:103090008200008282828282000000000082272754
:1030A000822727000082272782272700822F2F2FA1
:1030B000822F2F00822F2F2F2F822F00822F2F2F32
:1030C0002F822F823F3F3F3F82823F823F3F3F3FE1
:1030D00082823F000082828200008227278227822C
:1030E00000000027278282820000002F2F2F82827B
:1030F0000000002F2F2F82000000002F2F2F8200B2
:103100000000003F3F8200000000003F3F820000BF
:1031100000000082820000000000000000000000AB
:10312000000000000000000000000000000000009F
:10313000000000000000000000000000000000008F
:10314000000000000000000000000000000000007F
:1031500000000000000000000000008282828282E5
:10316000008282820707070782070782070707078F
:103170008207078217171717821717821717171753
:1031800082171700821F1F1F1F821F00821F1F1F11
:103190001F821F00822727272782278282008282A0
:1031A00082828207078207070707820707820707CD
:1031B0000707821717821717171782171782171713
:1031C0001717821F1F1F821F1F82821F1F1F821F30
:1031D0001F8200272727822782820000000000002C
:1031E000008282000000000082070700000000004B
:1031F000820707000000000082171700000000820D
:1032000017171700000000821F1F1F000000008218
:103210001F1F1F0000000082272727828200000056
:10322000000000070782000000000007078200007E
:103230000000001717820000000000178200000045
:103240000000001F820000000000001F820000003C
:10325000000000278200000000000082828282823B
:1032600000000007820707078200000782070707A0
:103270000782001782171717178200821717171770
:10328000171782821F1F1F1F1F1F82821F1F1F1FD2
:103290001F1F828227272727272782008227272789
:1032A000278227008227272727822700822F2F2F78
:1032B0002F822F0000822F2F2F2F820000822F2F8E
:1032C0002F2F820000823F3F3F82820000823F3FDB
:1032D0003F82820000008282820000272727822707
:1032E00082000027272782828200002F2F2F2F8223
:1032F0008200002F2F2F2F820000002F2F2F2F82D0
:103300000000003F3F3F82000000003F3F3F82003F
:103310000000008282820000000000000082272757
:1033200027822700008227272782270000822F2F4D
:103330002F822F0000822F2F2F822F00822F2F2FDE
:10334000822F2F00823F3F3F823F3F00823F3F3F1F
:10335000823F3F00008282828282820000008227B8
:103360002727270000008227272727000000822F19
:103370002F2F2F000000822F2F2F2F0000822F2FA2
:103380002F2F820000823F3F3F3F820000823F3F5D
:103390003F3F820000008282828282820000000021
:1033A000000000820082828200000082822F2F8231
:1033B000000000822F2F2F820000002F2F2F2F823E
:1033C0000000003F3F3F82820000003F3F3F8200FD
:1033D0000000008282820000000000000082272797
:1033E00027278200008227272727820000822F2F8D
:1033F0002F2F820000822F2F2F2F8200822F2F2F1E
:103400002F822F00823F3F3F3F823F00823F3F3F5E
:103410003F823F00008282828282822727272727DD
:1034200027278227272727272727822F2F2F2F2F4E
:103430002F82002F2F2F2F2F2F82002F2F2F2F2F54
:103440008200003F3F3F3F820000003F82828200B7
:1034500000000082000000000000000F30F037C0C4
:1034600001020304050603040708090A0B0C0D0EEC
:103470000F1011120F1013141516171819191A1B03
:10348000030407081C1D051E191919191F200F1008
:1034900021122223242519191711030005003008D1
:1034A00004000400271103010500000904000400C2
:1034B0003708040104000809040104002808040076
:1034C0000400090E020004002F080401040038085B
:1034D00006000800160E0201040081000000000032
:1034E000008142810000000081422442810000816D
:1034F0004224184281818181421800244281814303
:1035000024180018428181424200000024424224D3
:103510003C0000001C2424000000000000181818C3
:10352000000080000000000000004080000000005B
:1035300000002040800000000000102040800000BB
:103540000000081020408000000004081020408087
:10355000000002040810204080000102040810202E
:10356000408000010204081020400000010204080D
:1035700010200000000102040810000000000102F9
:103580000408000000000001020400000000000028
:103590000103F0000000000000000F000000000028
:1035A0000000000101010100000000000000000116
:1035B0000103000000000000003C0000000000804B
:1035C00080C0008080808000000000780000000043
:1035D00000000006020200000000000000000202DD
:1035E000060000000000000078000000404040405D
:1035F000000000003C000000000000000004040C7B
:103600000000000000202030000000000018080822
:10361000000000000000101000008080808080808A
:1036200080804040404040404040202020202020DA
:10363000202010101010101010100808080808089A
:10364000080804040404040404040202020202023E
:1036500002020101010101010101FF00000000005F
:10366000000000FF0000000000000000FF0000005C
:103670000000000000FF0000000000000000FF004C
:1036800000000000000000FF00000000000000003B
:10369000FF0000000000000000FF1000000000001C
:1036A000001028100000000010284428100000100E
:1036B0002844824428101028448201824428284447
:1036C00082010000000081000000000000814281B2
:1036D000000000008142244281000909090909090A
:1036E0000909092E2E2E2E2E2E2E092E1C1C1C1CD6
:1036F0001C1C092E131313131313092E1C1C1C1C42
:103700001C1C092E1C1C1C1C1C1C092E131313131F
:10371000132E092E1C1C1C1C2E1C09090909090941
:1037200009092E2E2E2E2E2E13091C1C1C2E1C2E8B
:10373000130913132E1C132E13091C2E1C131C2EDD
:1037400013092E1C131C1C2E13091C131313132EE8
:103750001309131C1C1C1C2E1309092E1C1C1C2EC7
:103760001C13092E13132E1C1313092E1C2E1C13AD
:103770001C1C092E2E1C131C1C2E092E1C1313138B
:103780001313092E2E2E2E2E2E2E09131313131360
:10379000131309090909090909091C1C1C1C1C2E01
:1037A000130913131313132E13091C1C1C1C1C2E9A
:1037B00013091C2E2E1C1C2E130913131313132E66
:1037C00013092E2E2E2E2E2E13091313131313133B
:1037D00013090909090909090909FEFEFEFEFEFE91
:1037E0000000FEFEFEFE000037FFFEFEFE00161685
:1037F00037FFFEFE00166F1637FFFE0000166F162D
:103800003737001600166F163737006F00166F6FC8
:103810001637FE0000166F6F6F1600FEFEFEFEFEEE
:10382000FEFE370000FEFEFEFEFE37161600FEFE10
:10383000FEFE37166F1600FEFEFE37166F160000EE
:10384000FEFE37166F16001600FE166F6F16006F1D
:1038500000FE6F6F6F160000FEFEFE00FF00166F89
:103860006F6FFE00FF0000161616FEFE00D0D0009F
:103870000000FEFE00D0D0D0D0D0FEFEFE00D0D0A2
:10388000D0D0FEFE000700000000FEFE0007070784
:1038900000FEFEFEFE000000FEFE6F6F1600FFFF42
:1038A00000FE161600D0FF0000FE0000D0D000077A
:1038B00000FED0D0D0D0000700FED0D0D000FE0057
:1038C000FEFE000000FEFEFEFEFEFEFEFEFEFEFE12
:1038D000FEFEFEFEFEFEFEFEFEFEFEFEFEFEFE0006
:1038E0000000FEFEFEFE000737FFFEFEFE0007079B
:1038F00037FFFE000007070737FF0007000707072D
:1039000037370007000707070737FE0000070707DC
:103910000707FE00FF00070707070000FEFEFEFE88
:10392000FEFE370700FEFEFEFEFE37070700FEFE26
:10393000FEFE370707070000FEFE370707070007F0
:1039400000FE07070707000700FE0707070700003C
:10395000FEFE07070700FF00FEFEFE00D00007077F
:103960000707FE00D0D000000000FE00D0D0D0D06D
:10397000D0D0FE00D0D0D0D0D0D0FEFE00D0D0D05D
:10398000D0D0FE00070000000000FE00070707007F
:10399000FEFEFEFE000000FEFEFE0700D000FEFE62
:1039A000FEFE00D0D000FEFEFEFED0D0D000FEFE17
:1039B000FEFED0D0D000FEFEFEFED0D000FEFEFE09
:1039C000FEFE0000FEFEFEFEFEFEFEFEFEFEFEFE13
:1039D000FEFEFEFEFEFEFEFEFEFEFEFEFEFEFEFE07
:1039E0000000FEFEFEFE000037FFFEFEFE00161683
:1039F00037FFFEFE00166F163737FE0000166F6F9A
:103A00001637006F00166F6F6F16006F00166F008D
:103A10006F6FFE0000166FFF006F00FEFEFEFEFEE1
:103A2000FEFE370000FEFEFEFEFE37161600FEFE0E
:103A3000FEFE37166F1600FEFEFE166F6F160000B4
:103A4000FEFE6F6F6F16001600FE6F006F16006FA0
:103A500000FE00FF6F16000000FEFE00D00016FF03
:103A6000006FFE00D0D000166F6FFEFE00D0D000B9
:103A70000000FEFE00D0D0D0D0D0FEFEFE00D0D0A0
:103A8000D0D0FEFE000700000000FEFE0007070782
:103A900000FEFEFEFE000000FEFE00FF1600FFFF1F
:103AA00000FE6F1600D0FFFF00FE0000D0D0000720
:103AB00000FED0D0D000000700FED0D000FEFE00F7
:103AC000FEFE0000FEFEFEFEFEFEFEFEFEFEFEFE12
:103AD000FEFEFEFEFEFEFEFEFEFEFEFEFEFEFEFE06
:103AE000FEFEFEFEFEFEFEFE0000FEFEFEFE0000EE
:103AF00037FFFEFEFE00070737FFFEFE0007070741
:103B00003737FE00000707073737000700070707AA
:103B100007370007000707000707FEFEFEFEFEFE50
:103B2000FEFE00FEFEFEFEFEFEFE370000FEFEFE76
:103B3000FEFE37070700FEFEFEFE3707070700FE02
:103B4000FEFE370707070000FEFE0707070700070E
:103B500000FE07000707000700FEFE00000707FF42
:103B60000007FE00070707FF0007FE00070707071B
:103B70000707FE00000707070707FE00FF00000712
:103B80000707FE00000000000000FE006F6F00FE4F
:103B9000FEFEFEFE0000FEFEFEFE00FF0707000028
:103BA000FEFE00FF07070700FEFE070707070700E6
:103BB000FEFE070707070000FEFE07070000FF00E4
:103BC000FEFE000000000000FEFEFEFE006F6F0023
:103BD000FEFEFEFEFE0000FEFEFEFEFEFEFEFE00FF
:103BE0000000FEFEFEFE00373737FEFEFEFE00162A
:103BF0001616FEFEFE006F6F006FFEFEFE006F00E9
:103C0000FF6FFEFEFE006F00FF6FFEFEFE006F6F97
:103C10006F6FFEFEFEFE006F6F00000000FEFEFEF6
:103C2000FEFE37373700FEFEFEFE1616373700FE63
:103C3000FEFE6F6F163700FEFEFE6F6F6F1600FE02
:103C4000FEFE006F161600FEFEFE006F001600FE60
:103C5000FEFE6F6F0000FEFEFEFEFEFE0000D000C6
:103C60000000FEFE0000D0D000FFFEFEFE00D0D01F
:103C700000FFFEFEFE00D0D00007FEFEFEFE0000AC
:103C80000000FEFEFE0007070700FEFEFEFE00002D
:103C900000FEFEFEFEFEFEFEFEFE00000000FEFE3A
:103CA000FEFEFF00D000FEFEFEFEFF00D000FEFE86
:103CB000FEFE0700D000FEFEFEFE000000FEFEFE3F
:103CC000FEFEFEFEFEFEFEFEFEFEFEFEFEFEFEFE14
:103CD000FEFEFEFEFEFEFEFEFEFEFEFEFEFEFEFE04
:103CE000FEFEFEFEFEFEFE000000FEFEFEFE0037B3
:103CF0003737FEFEFEFE00161600FEFEFE006F6F5A
:103D0000006FFEFEFE006F00FF6FFEFEFE006F0004
:103D1000FF6FFEFEFE006F6F6F6FFEFEFEFEFEFE8B
:103D2000FEFE000000FEFEFEFEFE37373700FEFE00
:103D3000FEFE1616373700FEFEFE6F6F163700FECA
:103D4000FEFE6F6F6F1600FEFEFE6F6F161600FE12
:103D5000FEFE006F001600FEFEFEFEFEFEFE006F81
:103D60006F00FEFEFE00D0000000FEFEFE00D00050
:103D7000FFFFFEFEFE00D000FFFFFEFE0007000773
:103D80000700FEFEFE0000000000FEFEFEFEFEFE3E
:103D90000007FEFEFEFEFEFEFE006F6F0000FEFE50
:103DA000FEFE00000000FEFEFEFE00D0D000FEFE83
:103DB000FEFE00D0D000FEFEFEFED00000FEFEFEA5
:103DC000FEFE000700FEFEFEFEFE0700FEFEFEFEFB
:103DD000FEFE00FEFEFEFEFEFEFEFEFEFEFE0000FD
:103DE0000000FEFEFE0037373737FEFE00070707EC
:103DF0000707FEFE000707070707FE000707000783
:103E00000707FE000700FF070700FE000700FF0787
:103E10000007FE000707070700070000FEFEFEFE82
:103E2000FEFE373700FEFEFEFEFE07373700FEFEC1
:103E3000FEFE07073700FEFEFEFE07070700FEFE38
:103E4000FEFE00070700FEFEFEFE07000700FEFE66
:103E5000FEFE070000FEFEFEFEFEFEFE0007070758
:103E600000070000000000000000006F00FFFFFFDF
:103E7000FF00FE000000000000D0FEFEFEFEFE007F
:103E8000D0D0FEFEFEFEFEFE0000FEFEFEFEFEFEAA
:103E9000FEFEFEFEFEFEFEFEFEFE00D000FEFEFE6C
:103EA000FEFED0D0D000FEFEFEFED0D0D000FEFE42
:103EB000FEFED00000FEFEFEFEFE000700FEFEFE3F
:103EC000FEFE070700FEFEFEFEFE0000FEFEFEFEFA
:103ED000FEFEFEFEFEFEFEFEFEFEFEFEFEFEFEFE02
:103EE000FEFEFEFEFEFE00000000FEFEFE00373776
:103EF0003737FEFE000707070707FEFE0007070724
:103F00000707FE00070700000707FE000700FF077E
:103F10000700FE000700FF070007FEFEFEFEFEFE94
:103F2000FEFE0000FEFEFEFEFEFE373700FEFEFE39
:103F3000FEFE07373700FEFEFEFE07073700FEFED7
:103F4000FEFE07070700FEFEFEFE00070700FEFE5E
:103F5000FEFE07000700FEFEFEFEFE000707070745
:103F60000007FEFE00070707000700000000000032
:103F70000000006F00FF00FFFF00FE000000FF00D8
:103F800000D0FEFEFEFEFE00D000FEFEFEFEFEFEA7
:103F90000007FEFEFEFEFEFEFE00070000FEFEFE27
:103FA000FEFE00D000FEFEFEFEFED0D0D000FEFEE3
:103FB000FEFED0D0D000FEFEFEFE000000FEFEFEA3
:103FC000FEFE0700FEFEFEFEFEFE0700FEFEFEFEFB
:103FD000FEFE00FEFEFEFEFEFEFE000000000000F3
:103FE0000000007676767676767600761B1B6D6D11
:103FF0001B1B007624246D6D1B2400766D6D6D6D8A
:104000001B2400766D6D6D6D6D1B00766D1B6D6DE7
:104010006D1B00761B241B6D6D1B00000000000053
:10402000000076767676766D1B001B6D6D1B6D2419
:104030001B00246D6D1B6D241B00241B6D6D6D24F6
:104040001B0024246D6D6D241B0024241B6D6D2426
:104050001B002424246D6D241B0000762424246D71
:104060006D1B00766D6D6D6D6D1B00761B1B1B6DE2
:104070001B6D00766D6D6D1B6D1B00766D6D6D6D2E
:104080006D6D006D242424242424001B1B1B1B1B8A
:104090001B1B00000000000000002424241B6D24D2
:1040A0001B001B2424246D241B001B6D24246D2461
:1040B0001B001B6D6D246D241B006D6D6D6D6D24DB
:1040C0001B002424242424241B001B1B1B1B1B1B40
:1040D0001B000000000000000000FEFEFEFE0000CD
:1040E0000000FEFE00001C2E2E2EFE001C2E1C2E9C
:1040F0002E2EFE001C2E001C1C1CFE001C2E2E0052
:104100000000001F001C2E2E1C2E006F00001C1C27
:104110002E2EFE00001F00001C1C000000FEFEFEF4
:10412000FEFE2E2E1C0000FEFEFE2E2E1C2E1C005F
:10413000FEFE1C1C002E1C00FEFE00002E1C1C009F
:10414000FEFE2E1C2E1C001F00FE2E2E1C00006FDB
:1041500000FE1C1C001F0000FEFEFE006400001F8D
:104160001F00FEFE007676000000FEFE00647676FC
:104170007676FEFEFE0064646464FEFE0098000035
:104180000000FEFE0098989800FEFEFEFE00000073
:10419000FEFEFEFEFEFEFEFEFEFE760000006476E3
:1041A00000FE64007676000000FE00767664006F04
:1041B00000FE64646400FE0001FE000000FEFEFEDE
:1041C000FEFEFEFEFEFEFEFEFEFEFEFEFEFEFEFE0F
:1041D000FEFEFEFEFEFEFEFEFEFEFEFEFEFE0000FB
:1041E0000000FEFE00001C2E2E2EFE001C2E1C2E9B
:1041F0002E2EFE001C2E001C1C1C00001C2E2E004F
:104200000000001F001C2E2E1C2EFE0000001C1C97
:104210002E2EFE006F0000001C1C000000FEFEFEA3
:10422000FEFE2E2E1C0000FEFEFE2E2E1C2E1C005E
:10423000FEFE1C1C002E1C00FEFE00002E1C1C009E
:1042400000FE2E1C2E1C001F00FE2E2E1C00000047
:10425000FEFE1C1C00006F00FEFEFEFE0064000E51
:104260000000FEFE006476000000FEFE006476762C
:104270007600FEFE006464767676FEFEFE006464E0
:104280006464FEFE009800000000FEFE009898980E
:1042900000FEFEFEFE000000FEFE0000006400FEC8
:1042A000FEFE7600766400FEFEFE6400766400FE8C
:1042B000FEFE0076646400FEFEFE64646400FEFEA2
:1042C000FEFE000000FEFEFEFEFEFEFEFEFEFEFE08
:1042D000FEFEFEFEFEFEFEFEFEFEFEFEFE000000F8
:1042E0000000FEFE001C001C2E2EFE001C1C2E00DA
:1042F0000000FE001C1C2E1C2E2EFE00001C1C2E7E
:104300002E2E006F000000000000006F001F6F00E5
:104310006F6FFE00001F6FFF006F00000000FEFEC9
:10432000FEFE1C002E1C00FEFEFE002E2E1C1C009D
:10433000FEFE2E1C2E1C1C00FEFE2E1C1C1C000053
:10434000FEFE00000000001F00FE6F006F1F006FE8
:1043500000FE00FF1F1F0000FEFEFE002E001FFFDC
:10436000006FFE007676001F1F1FFEFE00767600AF
:104370000000FEFE006476767664FEFEFE00646455
:104380006464FEFE009800000000FEFE009898980D
:1043900000FEFEFEFE000000FEFE00FF1F001C1CD3
:1043A00000FE1F1F0064006400FE00007664000031
:1043B00000FE76766400006F00FE646400FEFE007E
:1043C000FEFE0000FEFEFEFEFEFEFEFEFEFEFEFE09
:1043D000FEFEFEFEFEFEFEFEFEFEFEFEFEFEFEFEFD
:1043E000FEFEFEFEFE0000000000FEFE001C2E0091
:1043F0001C2EFE001C1C2E2E0000FE001C1C2E1C61
:104400002E2EFE00001C1C1C2E2E000E0000000094
:104410000000001F000E1F001F1FFEFEFEFEFEFE1E
:10442000FEFE00000000FEFEFEFE2E1C001C00FE34
:10443000FEFE00002E1C1C00FEFE2E1C2E1C1C006E
:10444000FEFE2E2E1C1C0000FEFE00000000001FC1
:1044500000FE1F001F0E001F00FEFE00000E1FFFCB
:10446000001FFE000E1F1FFF001FFE000E1F1F1F5C
:104470001F1FFE00000E1F1F1F1FFE006F00000EFB
:104480000E0EFE006F0000000000FE006F6F00FEC9
:10449000FEFEFEFE0000FEFEFEFE00FF1F0E000000
:1044A000FEFE00FF1F1F0E00FEFE1F1F1F1F0E003F
:1044B000FEFE1F1F0E0E0000FEFE0E0E00006F001F
:1044C000FEFE000000006F00FEFEFEFE006F6F00AB
:1044D000FEFEFEFEFE0000FEFEFEFEFEFEFEFE00F6
:1044E0000000FEFEFEFE001C2E2EFEFEFE001C2E18
:1044F0002E1CFEFEFE001C1C1C00FEFEFE0000002A
:104500000000FEFEFE006F00FF6FFEFEFE006F6FFC
:104510006F6FFEFEFEFE006F6F0000000000FEFEEB
:10452000FEFE1C001C1C00FEFEFE2E2E2E001C009B
:10453000FEFE1C1C00001C00FEFE00000000001C13
:1045400000FE6F00001F002E00FE6F6F001F002E88
:1045500000FE6F1F0000001C00FEFEFE0000760043
:104560000000FEFE00007676006FFEFEFE00647620
:10457000006FFEFEFE006464006FFEFEFE000000A1
:104580000000FEFEFE0098989800FEFEFEFE000071
:1045900000FEFEFEFEFEFEFEFEFE00000000FE002F
:1045A00000FE6F007600FEFEFEFE6F007600FEFE4F
:1045B000FEFE6F006400FEFEFEFE000000FEFEFE3A
:1045C000FEFEFEFEFEFEFEFEFEFEFEFEFEFEFEFE0B
:1045D000FEFEFEFEFEFEFEFEFEFEFEFEFEFEFEFEFB
:1045E000FEFEFEFEFEFEFE000000FEFEFEFE001CC5
:1045F0002E2EFEFEFE001C2E2E1CFEFEFE001C1C9F
:104600001C00FEFEFE0000000000FEFEFE006F002B
:10461000FF6FFEFEFE006F6F6F6FFEFEFEFEFEFE82
:10462000FEFE00000000FEFEFEFE1C001C1C00FE44
:10463000FEFE2E2E2E001C00FEFE1C1C00001C0088
:10464000FEFE00000000002E00FE6F00001F0000B4
:104650002E006F6F001F00001C00FEFEFEFE006FAC
:104660006F00FEFEFE0076000000FEFEFE007600FB
:104670006F6FFEFEFE0064006F6FFEFE006F006F46
:104680006F00FEFEFE0000000000FEFEFEFEFEFECD
:104690000098FEFEFEFEFEFEFE006F1F0000FEFE06
:1046A00000FE00000000FEFEFEFE00767600FEFE2C
:1046B000FEFE00766400FEFEFEFE64000000FEFECC
:1046C000FEFE006F00FEFEFEFEFE9800FEFEFEFEF9
:1046D000FEFE00FEFEFEFEFEFEFEFEFE00000000F0
:1046E0000000FE001C2E2E1C001C001C2E2E1C2E5A
:1046F0002E2E001C1C1C001C1C00000000000000D2
:104700000000001F00FF1F1F0000001F00FF1F0010
:104710001F1F001F1F1F1F001F0E00FEFEFEFEFEBC
:10472000FEFE1C00FEFEFEFEFEFE001C00FEFEFE67
:10473000FEFE001C00FEFEFEFEFE00001C00FEFE53
:10474000FEFE0E002E00FEFEFEFE00002E00FEFE0F
:10475000FEFE00001C00FEFEFEFEFE001F1F1F1FCF
:10476000000E0000000000000000006F6F6F6F6F10
:104770006F00FE00000000000076FEFEFEFEFE0060
:104780006464FEFEFEFEFEFE0000FEFEFEFEFEFE79
:10479000FEFEFEFEFEFEFEFEFEFE0000000000FE2F
:1047A000FEFE00006400FEFEFEFE76646400FEFE77
:1047B000FEFE640000FEFEFEFEFE009800FEFEFE11
:1047C000FEFE989800FEFEFEFEFE0000FEFEFEFECF
:1047D000FEFEFEFEFEFEFEFEFEFEFEFEFEFEFEFEF9
:1047E000FEFEFEFE000000000000FE001C2E2E1C3F
:1047F000001C002E2E2E1C2E2E2E001C1C1C001CFD
:104800001C000000000000000000001F00FF1F1F30
:104810000000001F00FF1F001F1FFEFEFEFEFEFE29
:10482000FEFE00FEFEFEFEFEFEFE1C00FEFEFEFE86
:10483000FEFE001C00FEFEFEFEFE001C00FEFEFE54
:10484000FEFE00001C00FEFEFEFE0E001C00FEFE32
:10485000FEFE0E002E00FEFEFEFEFE001F1F1F1FAE
:10486000001FFE001F1F1F1F000E000000000000A1
:10487000000000006F6F6F6F6F00FE00000000000F
:104880000076FEFEFEFEFE000098FEFEFEFEFEFE30
:104890009898FEFEFEFEFEFE00000E00001C00FECC
:1048A000FEFE0000000000FEFEFE00006400FEFEB2
:1048B000FEFE76766400FEFEFEFE640000FEFEFE56
:1048C000FEFE00FEFEFEFEFEFEFE00FEFEFEFEFE04
:1048D000FEFEFEFEFEFEFEFEFEFE080808080808BC
:1048E000080808F6F6F6F6F6F6F608F6ADADADAD44
:1048F0005A5A08F6ADAD5A5AAD5A08F6AD5AADAD92
:104900005A5A08F6AD5AAD5AADAD08F65AAD5AAD81
:104910005A0808F65A5A5AAD08AD08080808080897
:104920000808F6F6F6F6F6AD5A085AADADADADADDF
:104930005A08AD5A5AADADAD5A085AADAD5AADADE3
:104940005A08AD5AAD5AADAD5A085AAD5AAD5AAD26
:104950005A0808AD5A5A5AAD5A0808F65AAD5AAD17
:104960005A0808F6AD5AAD5AADAD08F6AD5AADAD20
:104970005A5A08F6ADAD5A5AAD5A08F6ADADADADBE
:104980005A5A08F6ADADADADADAD08AD5A5A5A5A4A
:104990005A5A08080808080808085AAD5AAD5AAD0E
:1049A0005A08AD5AAD5AADAD5A085AADAD5AADAD73
:1049B0005A08AD5A5AADADAD5A085AADADADADAD10
:1049C0005A08ADADADADAD5A5A085A5A5A5A5A5A4C
:1049D00008080808080808080808FEFEFEFEFEFE93
:1049E0000000FEFEFEFE00008080FEFEFE008080D5
:1049F00080FFFEFE008080808080FE00008080803E
:104A00008080001E000080808080006F00FF00809A
:104A10008080FE000000FF00000000FEFEFEFEFEA3
:104A2000FEFE800000FEFEFEFEFE80808000FEFE98
:104A3000FEFE8080808000FEFEFE80808080000080
:104A4000FEFE80808000001E00FE808000FF006F60
:104A500000FE0000FF000000FEFEFE00FF0000FF61
:104A6000FFFFFE00FF2200000000FEFE00222200E9
:104A70000000FEFE002222222222FEFEFE00222252
:104A80002222FEFE000700000000FEFE00070707CE
:104A900000FEFEFEFE000000FEFEFFFF0000FFFF26
:104AA00000FE00000022FF0000FE00002222006F36
:104AB00000FE22222222006F00FE22222200FE009F
:104AC000FEFE000000FEFEFEFEFEFEFEFEFEFEFE00
:104AD000FEFEFEFEFEFEFEFEFEFEFEFEFEFEFE00F4
:104AE0000000FEFEFE00008080FFFEFE0080808051
:104AF000808000000080808080800007000080802F
:104B00008080000700FF00808080FE000000FF0022
:104B10000000FE00FF0000FFFFFF0000FEFEFEFEA3
:104B2000FEFE80800000FEFEFEFE8080808000FE93
:104B3000FEFE80808080000000FE808080000007F4
:104B400000FE808000FF000700FE0000FF00000064
:104B5000FEFEFFFF0000FF00FEFEFEFEFE00220044
:104B60000000FEFEFE0022220000FEFEFE002222C9
:104B70002222FEFEFE0022222222FEFEFEFE002255
:104B80002222FEFEFE0007000000FEFEFE000707D8
:104B90000700FEFEFEFE000000FE000000002200F6
:104BA000FEFE000000222200FEFE2222222222001F
:104BB000FEFE222222222200FEFE2222222200FECD
:104BC000FEFE00000000FEFEFEFEFEFEFEFEFEFEFD
:104BD000FEFEFEFEFEFEFEFEFEFEFEFEFEFEFEFEF5
:104BE0000000FEFEFEFE000080FFFEFEFE00808054
:104BF0008080FEFE000080808080FE0000FF0000BC
:104C00000000001E0000FFFFFFFF006F001E0000FD
:104C10000000FE00001E6FFF006F00FEFEFEFEFEA5
:104C2000FEFE800000FEFEFEFEFE80808000FEFE96
:104C3000FEFE8080800000FEFEFE000000FF0000FF
:104C4000FEFEFFFFFF00001E00FE0000001E006FC2
:104C500000FE00FF6F1E0000FFFEFE00FF006FFF62
:104C6000006FFE00FF22006F6F6FFEFE0022220029
:104C70000000FEFE0022222222FFFEFEFE00222273
:104C800022FFFEFE000700000000FEFE00070707EF
:104C900000FEFEFEFE000000FEFE00FF6F00FFFFB4
:104CA00000FE6F6F0022FF0000FE00002222006F56
:104CB00000FE22222222006F00FE22222200FE009D
:104CC000FEFE000000FEFEFEFEFEFEFEFEFEFEFEFE
:104CD000FEFEFEFEFEFEFEFEFEFEFEFEFEFEFEFEF4
:104CE000FEFEFEFEFEFEFEFE0000FEFEFEFE0000DC
:104CF00080FFFEFEFE0080808080FEFE000080803F
:104D00008080FE0000FF0000000000070000FFFFA1
:104D1000FFFF0007000700000000FEFEFEFEFEFE93
:104D2000FEFE00FEFEFEFEFEFEFE800000FEFEFE1B
:104D3000FEFE80808000FEFEFEFE8080800000FE81
:104D4000FEFE000000FF0000FEFEFFFFFF00000768
:104D500000FE00000007000700FEFE00000707FF3E
:104D60000007FE00070707FF0007FE00071E0707F2
:104D70000707FE00000707070707FE00FF00000700
:104D80000707FE00000000000000FE006F6F00FE3D
:104D9000FEFEFEFE0000FEFEFEFE00FF0707000016
:104DA000FEFE00FF07070700FEFE0707071E0700BD
:104DB000FEFE070707070000FEFE07070000FF00D2
:104DC000FEFE000000000000FEFEFEFE006F6F0011
:104DD000FEFEFEFEFE0000FEFEFEFEFEFEFEFE00ED
:104DE0000000FEFEFEFE008080FFFEFEFE008080D2
:104DF0008080FEFEFE00FF808080FEFEFE0000FF41
:104E0000FFFFFEFEFE006F000000FEFEFE006F00D2
:104E1000FF00FEFEFEFE006F6F00000000FEFEFEC3
:104E2000FEFE80808000FEFEFEFE8080808000FE10
:104E3000FEFE808080FF00FEFEFEFFFFFF0000FE02
:104E4000FEFE0000006F00FEFEFE1E6F006F00FE03
:104E5000FEFE6F6F0000FEFEFEFEFEFE0000FF0085
:104E60000000FEFE0000FF2200FFFEFEFE002222E8
:104E70000000FEFEFE002222006FFEFEFE0000008B
:104E80000000FEFEFE0007070700FEFEFEFE00001B
:104E900000FEFEFEFEFEFEFEFEFE00000000FEFE28
:104EA000FEFEFF002200FEFEFEFE00002200FEFECF
:104EB000FEFE6F002200FEFEFEFE000000FEFEFE73
:104EC000FEFEFEFEFEFEFEFEFEFEFEFEFEFEFEFE02
:104ED000FEFEFEFEFEFEFEFEFEFEFEFEFEFEFEFEF2
:104EE000FEFEFEFEFEFEFE000000FEFEFEFE008058
:104EF00080FFFEFEFE0080808080FEFEFE00FF80C0
:104F00008080FEFEFE0000FFFFFFFEFEFE006F0041
:104F10000000FEFEFE006F00FF00FEFEFEFEFEFE35
:104F2000FEFE000000FEFEFEFEFE80808000FEFE13
:104F3000FEFE8080808000FEFEFE808080FF00FEFE
:104F4000FEFEFFFFFF0000FEFEFE0000006F00FE01
:104F5000FEFE1E6F006F00FEFEFEFEFEFEFE006FF8
:104F60006F00FEFEFE00FF000000FEFEFE00FF00E0
:104F7000FFFFFEFEFE00220000FFFEFE0007006FA6
:104F80006F00FEFEFE0000000000FEFEFEFEFEFEC4
:104F90000007FEFEFEFEFEFEFE006F6F0000FEFE3E
:104FA000FEFE00000000FEFEFEFE00222200FEFECD
:104FB000FEFE00222200FEFEFEFE22000000FEFE9B
:104FC000FEFE000700FEFEFEFEFE0700FEFEFEFEE9
:104FD000FEFE00FEFEFEFEFEFEFEFEFEFEFE0000EB
:104FE0000000FEFEFE008080FF80FEFE00808080CC
:104FF0008080FEFE00FF80808080FE000700FFFFB3
:10500000FFFFFE00070000000000FE000700FF0792
:105010000007FE000707070700070000FEFEFEFE70
:10502000FEFE808000FEFEFEFEFE80808000FEFE12
:10503000FEFE8080FF00FEFEFEFEFFFF0000FEFE83
:10504000FEFE00000700FEFEFEFE07000700FEFE5B
:10505000FEFE070000FEFEFEFEFEFEFE0007070746
:1050600000070000000000000000006F00FFFFFFCD
:10507000FF00FE00000000000022FEFEFEFEFE001B
:105080002222FEFEFEFEFEFE0000FEFEFEFEFEFEF4
:10509000FEFEFEFEFEFEFEFEFEFE000700FEFEFE23
:1050A000FEFE00222200FEFEFEFE22222200FEFE66
:1050B000FEFE22220000FEFEFEFE22000700FEFE93
:1050C000FEFE00070700FEFEFEFEFE0000FEFEFEE6
:1050D000FEFEFEFEFEFEFEFEFEFEFEFEFEFEFEFEF0
:1050E000FEFEFEFEFEFE00000000FEFEFE008080D2
:1050F000FF80FEFE008080808080FEFE00FF8080BA
:105100008080FE000700FFFFFFFFFE000700000099
:105110000000FE000700FF070007FEFEFEFEFEFE89
:10512000FEFE0000FEFEFEFEFEFE808000FEFEFE95
:10513000FEFE80808000FEFEFEFE8080FF00FEFE00
:10514000FEFEFFFF0000FEFEFEFE00000700FEFE6A
:10515000FEFE07000700FEFEFEFEFE000707070733
:105160000007FEFE00070707000700000000000020
:105170000000006F00FFFFFFFF00FE0000000000C6
:105180000022FEFEFEFEFE002222FEFEFEFEFEFECF
:105190000000FEFEFEFEFEFEFEFE070000FEFEFE1E
:1051A000FEFE002200FEFEFEFEFE22222200FEFE89
:1051B000FEFE22222200FEFEFEFE220000FEFEFE79
:1051C000FEFE000700FEFEFEFEFE070700FEFEFEDE
:1051D000FEFE0000FEFEFEFEFEFE49494949494929
:1051E000494949FFFFFFFFFFFFFF49FFADADADADEF
:1051F000ADAD49FFADADADADADAD49FFADADADAD03
:10520000ADAD49FFADADADADADAD49FFADADADADF2
:10521000ADAD49AD9B9B9B9B9B9B494949494949E6
:105220004949FFFFFFFFFFFFAD499BADADADADAD00
:105230009B499BADADADADAD9B499BADADADADADAE
:105240009B499BADADADADAD9B499BADADADADAD9E
:105250009B499B9B9B9B9B9B9B4949FFADADADADE8
:10526000ADAD49FFADADADADADAD49FFADADADAD92
:10527000ADAD49FFADADADADADAD49FFADADADAD82
:10528000ADAD49FFADADADADADAD49AD9B9B9B9B0C
:105290009B9B49494949494949499BADADADADAD94
:1052A0009B499BADADADADAD9B499BADADADADAD3E
:1052B0009B499BADADADADAD9B499BADADADADAD2E
:1052C0009B499BADADADADAD9B499B9B9B9B9B9B78
:1052D0009B494949494949494949FEFEFEFEFEFEAE
:1052E0000000FEFEFEFE0000E8E8FEFEFE00D8E83C
:1052F000F8F8FEFE00D8E8F8F8F8FE00D8E8E8F87C
:10530000F8F8FE00D8E8E8E8F8F8FE00D8D8E8E8B1
:10531000E8E8FE0000D8D8E8E8E800FEFEFEFEFE61
:10532000FEFEE80000FEFEFEFEFEF8E8D800FEFEEF
:10533000FEFEF8F8E8D800FEFEFEF8F8E8E8D8002F
:10534000FEFEF8E8E8E8D800FEFEE8E8E8D8D80075
:10535000FEFEE8E8D8D80000FEFEFE00FF00D8D828
:10536000D8D8FE00FFD800D8D8D8FEFE00D8D80084
:105370000000FEFE00D8E8D8D8D8FEFEFE00D8E82F
:10538000E8E8FEFE000F00000000FEFE000F0F0F19
:1053900000FEFEFEFE000000FEFED8D8D800FF0092
:1053A000FEFED8D800D8FF0000FE0000D8D8000FBD
:1053B00000FED8D8E8D8000F00FEE8E8D800FE00CC
:1053C000FEFE000000FEFEFEFEFEFEFEFEFEFEFEF7
:1053D000FEFEFEFEFEFEFEFEFEFEFEFEFEFEFE00EB
:1053E0000000FEFEFE0000E8E8E8FEFE0000D8E84F
:1053F000F8F8FEFE00D8E8F8F8F8FE00D8E8E8F87B
:10540000F8F8FE00D8D8E8E8F8F8FE0000D8D8E8A8
:10541000E8E8FE00FF00D8D8D8D80000FEFEFEFE67
:10542000FEFEE8E80000FEFEFEFEF8E8D80000FE02
:10543000FEFEF8F8E8D800FEFEFEF8F8E8E8D8002E
:10544000FEFEF8E8E8D8D800FEFEE8E8D8D800006C
:10545000FEFED8D8D800FF00FEFEFEFE00D800D821
:10546000D8D8FEFE00D8D8000000FEFE00D8E8D84C
:10547000D8D8FEFE00D8E8E8F8F8FEFEFE00D8E82E
:10548000E8E8FEFE000F00000000FEFE000F0F0F18
:1054900000FEFEFEFE000000FEFED8D800D800FE92
:1054A000FEFE0000D8D800FEFEFED8D8E8D800FEE8
:1054B000FEFEF8E8E8D800FEFEFEE8E8D800FEFEB2
:1054C000FEFE000000FEFEFEFEFEFEFEFEFEFEFEF6
:1054D000FEFEFEFEFEFEFEFEFEFEFEFEFEFEFEFEEC
:1054E0000000FEFEFEFE0000E8E8FEFEFE00D8E83A
:1054F000F8F8FEFE00D8E8F8F8F8FE00D8D800006A
:105500000000FE00D800FFFFFFFFFE0000FFFF00CD
:105510000000FE0000FF00FF006F00FEFEFEFEFE2A
:10552000FEFEE80000FEFEFEFEFEF8E8D800FEFEED
:10553000FEFEF8F8E8D800FEFEFE000000E8D80005
:10554000FEFEFFFFFF00E800FEFE0000FFFF000080
:10555000FEFE00FF00FF0000FEFEFE0000FFFF0059
:105560000000FE00FF00FFFFFFFFFEFE00D800006E
:105570000000FEFE00E8D8D8D8FFFEFEFE00E8F8E6
:10558000E8FFFEFE000F00000000FEFE000F0F0F00
:1055900000FEFEFEFE000000FEFE0000FFFF00FF1A
:1055A00000FEFFFFFF00FF0000FE000000D8000F1C
:1055B00000FED8D8D8E8000F00FEE8F8E800FE00AA
:1055C000FEFE000000FEFEFEFEFEFEFEFEFEFEFEF5
:1055D000FEFEFEFEFEFEFEFEFEFEFEFEFEFEFEFEEB
:1055E0000000FEFEFEFE0000E8E8FEFEFE00D8E839
:1055F000F8F8FEFE00D8E8F8F8F8FE00D8D8000069
:105600000000FE00D800FFFFFFFFFE0000FFFF00CC
:105610000000FE0000FF00FF000F00FEFEFEFEFE89
:10562000FEFEE80000FEFEFEFEFEF8E8D800FEFEEC
:10563000FEFEF8F8E8D800FEFEFE000000D8D80014
:10564000FEFEFFFFFF00D800FEFE0000FFFF00008F
:10565000FEFE00FF00FF0000FEFEFE0000FF00FF58
:10566000000FFEFE00FFFF000000FE00D800FFFF5D
:10567000FFFFFE0000D800000000FE00FF0000D881
:10568000D8D8FE00000000000000FE000F0F00FE52
:10569000FEFEFEFE0000FEFEFEFE00FF00FF00001C
:1056A000FEFE0000FFFF00FEFEFEFFFFFF00D80031
:1056B000FEFE000000D80000FEFED8D80000FF006B
:1056C000FEFE000000000000FEFEFEFE000F0F00C8
:1056D000FEFEFEFEFE0000FEFEFEFEFEFEFEFE00E4
:1056E0000000FEFEFEFE00E8E8E8FEFEFEFE000012
:1056F0000000FEFEFE00FFFFFFFFFEFEFE000000BA
:1057000000FFFEFEFE006F00FF00FEFEFE00000038
:1057100000FFFEFEFEFE00FFFF00000000FEFEFE9A
:10572000FEFEE8D8D800FEFEFEFEE8E8D8D800FE6F
:10573000FEFE00E8E8D800FEFEFEFF00E8D800FE0E
:10574000FEFEFF00E8D800FEFEFE00D8D8D800FE1E
:10575000FEFED8D8D800FEFEFEFEFEFE0000FF00D2
:105760000000FEFE0000FFE800FFFEFEFE00E8E88D
:1057700000FFFEFEFE00E8E8000FFEFEFE00000057
:105780000000FEFEFE000F0F0F00FEFEFEFE0000FA
:1057900000FEFEFEFEFEFEFEFEFE00000000FEFE1F
:1057A000FEFEFF00D800FEFEFEFEFF00D800FEFE5B
:1057B000FEFE0F00E800FEFEFEFE000000FEFEFE04
:1057C000FEFEFEFEFEFEFEFEFEFEFEFEFEFEFEFEF9
:1057D000FEFEFEFEFEFEFEFEFEFEFEFEFEFEFEFEE9
:1057E000FEFEFEFEFEFEFE000000FEFEFEFE00E8E7
:1057F000E8E8FEFEFEFE00000000FEFEFE00FFFFE9
:10580000FFFFFEFEFE00000000FFFEFEFE006F0038
:10581000FF00FEFEFE00000000FFFEFEFEFEFEFE9C
:10582000FEFE000000FEFEFEFEFEE8D8D800FEFEF2
:10583000FEFEE8E8D8D800FEFEFE00E8E8D800FE4C
:10584000FEFEFF00E8D800FEFEFEFF00E8D800FEE6
:10585000FEFE00D8E8D800FEFEFEFEFEFEFE00FFC3
:10586000FF00FEFEFE00FF000000FEFEFE00FF0047
:10587000FFFFFEFEFE00E800FFFFFEFE000F000F30
:105880000F00FEFEFE0000000000FEFEFEFEFEFE1B
:10589000000FFEFEFEFEFEFEFE00D8E8D800FEFE73
:1058A000FEFE00000000FEFEFEFE00E8D800FEFE48
:1058B000FEFE00E8D800FEFEFEFEE8000000FEFE50
:1058C000FEFE000F00FEFEFEFEFE0F00FEFEFEFED0
:1058D000FEFE00FEFEFEFEFEFEFEFEFEFEFE0000E2
:1058E0000000FEFEFE00E8E8E8E8FEFEFE00000024
:1058F00000E8FEFE00FFFFFFFF00FEFE00000000CC
:10590000FFFFFEFE000F00FF00FFFEFE0000000094
:10591000FF00FEFE00FFFFFF00D80000FEFEFEFEBF
:10592000FEFED8D800FEFEFEFEFEE8D8D800FEFE41
:10593000FEFEE8E8D800FEFEFEFE00E8D800FEFE0F
:10594000FEFE00E8D800FEFEFEFED8E8D800FEFE0F
:10595000FEFED8D80000FEFEFEFE000000000000A3
:105960000000000F0FFFFFFFFF00FE00000000001F
:1059700000E8FEFEFEFEFE00E8E8FEFEFEFEFEFE85
:105980000000FEFEFEFEFEFEFEFEFEFEFEFEFEFE33
:10599000FEFEFEFEFEFEFEFEFEFE00D8D800FEFE6F
:1059A000FEFEE8E8D800FEFEFEFEE8E80000FEFE8F
:1059B000FEFEE8000F00FEFEFEFE000F0F00FEFEE2
:1059C000FEFEFE0000FEFEFEFEFEFEFEFEFEFEFEF3
:1059D000FEFEFEFEFEFEFEFEFEFEFEFEFEFEFEFEE7
:1059E000FEFEFEFEFEFE00000000FEFEFE00E8E8F9
:1059F000E8E8FEFEFE00000000E8FEFE00FFFFFFFC
:105A0000FF00FEFE00000000FFFFFEFE000F00A4EE
:105A100000FFFEFE00000000FF00FEFEFEFEFEFE98
:105A2000FEFE0000FEFEFEFEFEFED8D800FEFEFEDC
:105A3000FEFEE8D8D800FEFEFEFEE8E8D800FEFE36
:105A4000FEFE00E8D800FEFEFEFE00E8D800FEFEE6
:105A5000FEFEE8D8E800FEFEFEFEFE00000000D8D4
:105A6000D8D80000000000000000000F0FFFFFFF6B
:105A7000FF00FE000000000000E8FEFEFEFEFE004B
:105A8000E8E8FEFEFEFEFEFE0000FEFEFEFEFEFE5E
:105A9000FEFEFEFEFEFEFEFEFEFE00D8D800FEFE6E
:105AA000FEFEE8E8D800FEFEFEFEE8E8E800FEFEA6
:105AB000FEFEE80000FEFEFEFEFE000F00FEFEFE03
:105AC000FEFE0F0F00FEFEFEFEFE0000FEFEFEFECE
:105AD000FEFEFEFEFEFEFEFEFEFE0A0A0A0A0A0A9E
